{
  "contractName": "PZChest",
  "abi": [
    {
      "constant": true,
      "inputs": [
        {
          "name": "",
          "type": "uint256"
        }
      ],
      "name": "chestIndexToOwner",
      "outputs": [
        {
          "name": "",
          "type": "address"
        }
      ],
      "payable": false,
      "stateMutability": "view",
      "type": "function"
    },
    {
      "constant": true,
      "inputs": [],
      "name": "contractItemCore",
      "outputs": [
        {
          "name": "",
          "type": "address"
        }
      ],
      "payable": false,
      "stateMutability": "view",
      "type": "function"
    },
    {
      "constant": true,
      "inputs": [
        {
          "name": "",
          "type": "uint256"
        }
      ],
      "name": "chests",
      "outputs": [
        {
          "name": "name",
          "type": "string"
        },
        {
          "name": "price",
          "type": "uint256"
        },
        {
          "name": "tokenId",
          "type": "uint256"
        },
        {
          "name": "tokenPrice",
          "type": "uint256"
        },
        {
          "name": "zaCoin",
          "type": "uint256"
        },
        {
          "name": "chance",
          "type": "uint256"
        },
        {
          "name": "eggFlag",
          "type": "bool"
        }
      ],
      "payable": false,
      "stateMutability": "view",
      "type": "function"
    },
    {
      "constant": true,
      "inputs": [
        {
          "name": "",
          "type": "address"
        }
      ],
      "name": "ownershipChestCount",
      "outputs": [
        {
          "name": "",
          "type": "uint256"
        }
      ],
      "payable": false,
      "stateMutability": "view",
      "type": "function"
    },
    {
      "constant": true,
      "inputs": [],
      "name": "contractEggCore",
      "outputs": [
        {
          "name": "",
          "type": "address"
        }
      ],
      "payable": false,
      "stateMutability": "view",
      "type": "function"
    },
    {
      "constant": true,
      "inputs": [],
      "name": "contractHeroCore",
      "outputs": [
        {
          "name": "",
          "type": "address"
        }
      ],
      "payable": false,
      "stateMutability": "view",
      "type": "function"
    },
    {
      "constant": true,
      "inputs": [
        {
          "name": "",
          "type": "uint256"
        }
      ],
      "name": "pzZADownLimit",
      "outputs": [
        {
          "name": "",
          "type": "uint256"
        }
      ],
      "payable": false,
      "stateMutability": "view",
      "type": "function"
    },
    {
      "constant": true,
      "inputs": [
        {
          "name": "",
          "type": "uint256"
        }
      ],
      "name": "chestGroups",
      "outputs": [
        {
          "name": "name",
          "type": "string"
        },
        {
          "name": "quantity",
          "type": "uint256"
        },
        {
          "name": "totalAmount",
          "type": "uint256"
        },
        {
          "name": "price",
          "type": "uint256"
        },
        {
          "name": "tokenId",
          "type": "uint256"
        },
        {
          "name": "tokenPrice",
          "type": "uint256"
        },
        {
          "name": "startDate",
          "type": "uint256"
        },
        {
          "name": "endDate",
          "type": "uint256"
        },
        {
          "name": "zaCoin",
          "type": "uint256"
        },
        {
          "name": "chance",
          "type": "uint256"
        },
        {
          "name": "eggFlag",
          "type": "bool"
        }
      ],
      "payable": false,
      "stateMutability": "view",
      "type": "function"
    },
    {
      "constant": true,
      "inputs": [
        {
          "name": "",
          "type": "uint256"
        }
      ],
      "name": "pzZAUpperLimit",
      "outputs": [
        {
          "name": "",
          "type": "uint256"
        }
      ],
      "payable": false,
      "stateMutability": "view",
      "type": "function"
    },
    {
      "inputs": [
        {
          "name": "_heroCore",
          "type": "address"
        },
        {
          "name": "_itemCore",
          "type": "address"
        },
        {
          "name": "_eggCore",
          "type": "address"
        },
        {
          "name": "_pool",
          "type": "address"
        }
      ],
      "payable": false,
      "stateMutability": "nonpayable",
      "type": "constructor"
    },
    {
      "anonymous": false,
      "inputs": [
        {
          "indexed": true,
          "name": "_admin",
          "type": "address"
        },
        {
          "indexed": false,
          "name": "_name",
          "type": "string"
        },
        {
          "indexed": false,
          "name": "_quantity",
          "type": "uint256"
        },
        {
          "indexed": false,
          "name": "_totalAmount",
          "type": "uint256"
        },
        {
          "indexed": false,
          "name": "_price",
          "type": "uint256"
        },
        {
          "indexed": false,
          "name": "_tokenId",
          "type": "uint256"
        },
        {
          "indexed": false,
          "name": "_tokenPrice",
          "type": "uint256"
        },
        {
          "indexed": false,
          "name": "_startDate",
          "type": "uint256"
        },
        {
          "indexed": false,
          "name": "_endDate",
          "type": "uint256"
        },
        {
          "indexed": false,
          "name": "_zaCoin",
          "type": "uint256"
        },
        {
          "indexed": false,
          "name": "_chance",
          "type": "uint256"
        },
        {
          "indexed": false,
          "name": "_slot",
          "type": "uint256[][]"
        },
        {
          "indexed": false,
          "name": "_eggFlag",
          "type": "bool"
        }
      ],
      "name": "CreateChestGroup",
      "type": "event"
    },
    {
      "anonymous": false,
      "inputs": [
        {
          "indexed": true,
          "name": "_admin",
          "type": "address"
        },
        {
          "indexed": true,
          "name": "_newHeroCore",
          "type": "address"
        }
      ],
      "name": "SetHeroCoreAddress",
      "type": "event"
    },
    {
      "anonymous": false,
      "inputs": [
        {
          "indexed": true,
          "name": "_admin",
          "type": "address"
        },
        {
          "indexed": true,
          "name": "_newItemCore",
          "type": "address"
        }
      ],
      "name": "SetItemCoreAddress",
      "type": "event"
    },
    {
      "anonymous": false,
      "inputs": [
        {
          "indexed": true,
          "name": "_admin",
          "type": "address"
        },
        {
          "indexed": true,
          "name": "_newPool",
          "type": "address"
        }
      ],
      "name": "SetPoolAddress",
      "type": "event"
    },
    {
      "anonymous": false,
      "inputs": [
        {
          "indexed": true,
          "name": "_admin",
          "type": "address"
        },
        {
          "indexed": true,
          "name": "_newAdmin",
          "type": "address"
        }
      ],
      "name": "ChangeAdmin",
      "type": "event"
    },
    {
      "anonymous": false,
      "inputs": [
        {
          "indexed": true,
          "name": "_buyer",
          "type": "address"
        },
        {
          "indexed": false,
          "name": "_chestId",
          "type": "uint256"
        }
      ],
      "name": "OpenChest",
      "type": "event"
    },
    {
      "anonymous": false,
      "inputs": [
        {
          "indexed": true,
          "name": "_buyer",
          "type": "address"
        },
        {
          "indexed": false,
          "name": "_chestGroupId",
          "type": "uint256"
        },
        {
          "indexed": false,
          "name": "_referrer",
          "type": "address"
        },
        {
          "indexed": false,
          "name": "bTrxPurchase",
          "type": "bool"
        }
      ],
      "name": "BuyChest",
      "type": "event"
    },
    {
      "anonymous": false,
      "inputs": [
        {
          "indexed": false,
          "name": "burnQuantity",
          "type": "uint256"
        },
        {
          "indexed": false,
          "name": "id",
          "type": "uint256"
        }
      ],
      "name": "BurnChest",
      "type": "event"
    },
    {
      "anonymous": false,
      "inputs": [
        {
          "indexed": false,
          "name": "quantity",
          "type": "uint256"
        },
        {
          "indexed": false,
          "name": "supply",
          "type": "uint256"
        }
      ],
      "name": "CreateChest",
      "type": "event"
    },
    {
      "anonymous": false,
      "inputs": [
        {
          "indexed": true,
          "name": "sender",
          "type": "address"
        },
        {
          "indexed": true,
          "name": "_to",
          "type": "address"
        },
        {
          "indexed": false,
          "name": "_chestId",
          "type": "uint256"
        }
      ],
      "name": "GiftChest",
      "type": "event"
    },
    {
      "anonymous": false,
      "inputs": [
        {
          "indexed": false,
          "name": "from",
          "type": "address"
        },
        {
          "indexed": false,
          "name": "to",
          "type": "address"
        },
        {
          "indexed": false,
          "name": "chestId",
          "type": "uint256"
        }
      ],
      "name": "ChestTransfer",
      "type": "event"
    },
    {
      "anonymous": false,
      "inputs": [
        {
          "indexed": false,
          "name": "itmeType",
          "type": "uint256"
        },
        {
          "indexed": false,
          "name": "quantity",
          "type": "uint256"
        }
      ],
      "name": "ChestCreated",
      "type": "event"
    },
    {
      "constant": false,
      "inputs": [
        {
          "name": "_heroCore",
          "type": "address"
        }
      ],
      "name": "setHeroCoreAddress",
      "outputs": [],
      "payable": false,
      "stateMutability": "nonpayable",
      "type": "function"
    },
    {
      "constant": false,
      "inputs": [
        {
          "name": "_itemCore",
          "type": "address"
        }
      ],
      "name": "setItemCoreAddress",
      "outputs": [],
      "payable": false,
      "stateMutability": "nonpayable",
      "type": "function"
    },
    {
      "constant": false,
      "inputs": [
        {
          "name": "_pool",
          "type": "address"
        }
      ],
      "name": "setPoolAddress",
      "outputs": [],
      "payable": false,
      "stateMutability": "nonpayable",
      "type": "function"
    },
    {
      "constant": false,
      "inputs": [
        {
          "name": "_addrAdmin",
          "type": "address"
        }
      ],
      "name": "changeAdmin",
      "outputs": [],
      "payable": false,
      "stateMutability": "nonpayable",
      "type": "function"
    },
    {
      "constant": false,
      "inputs": [
        {
          "name": "_name",
          "type": "string"
        },
        {
          "name": "_quantity",
          "type": "uint256"
        },
        {
          "name": "_price",
          "type": "uint256"
        },
        {
          "name": "_tokenId",
          "type": "uint256"
        },
        {
          "name": "_tokenPrice",
          "type": "uint256"
        },
        {
          "name": "_startDate",
          "type": "uint256"
        },
        {
          "name": "_endDate",
          "type": "uint256"
        },
        {
          "name": "_zaCoin",
          "type": "uint256"
        },
        {
          "name": "_chance",
          "type": "uint256"
        },
        {
          "name": "_slot",
          "type": "uint256[][]"
        },
        {
          "name": "_eggFlag",
          "type": "bool"
        }
      ],
      "name": "createChestGroup",
      "outputs": [],
      "payable": false,
      "stateMutability": "nonpayable",
      "type": "function"
    },
    {
      "constant": false,
      "inputs": [
        {
          "name": "_to",
          "type": "address"
        },
        {
          "name": "_chestId",
          "type": "uint256"
        }
      ],
      "name": "giftChest",
      "outputs": [],
      "payable": false,
      "stateMutability": "nonpayable",
      "type": "function"
    },
    {
      "constant": false,
      "inputs": [
        {
          "name": "_chestId",
          "type": "uint256"
        }
      ],
      "name": "openChest",
      "outputs": [],
      "payable": false,
      "stateMutability": "nonpayable",
      "type": "function"
    },
    {
      "constant": false,
      "inputs": [],
      "name": "burnChests",
      "outputs": [],
      "payable": false,
      "stateMutability": "nonpayable",
      "type": "function"
    },
    {
      "constant": false,
      "inputs": [
        {
          "name": "_chestGroupId",
          "type": "uint256"
        },
        {
          "name": "_referrer",
          "type": "address"
        },
        {
          "name": "bTrxPurchase",
          "type": "bool"
        }
      ],
      "name": "buyChest",
      "outputs": [],
      "payable": true,
      "stateMutability": "payable",
      "type": "function"
    },
    {
      "constant": true,
      "inputs": [],
      "name": "getChestsQuantity",
      "outputs": [
        {
          "name": "",
          "type": "uint256"
        }
      ],
      "payable": false,
      "stateMutability": "view",
      "type": "function"
    },
    {
      "constant": true,
      "inputs": [
        {
          "name": "_id",
          "type": "uint256"
        }
      ],
      "name": "getChestById",
      "outputs": [
        {
          "name": "name",
          "type": "string"
        },
        {
          "name": "price",
          "type": "uint256"
        },
        {
          "name": "tokenId",
          "type": "uint256"
        },
        {
          "name": "tokenPrice",
          "type": "uint256"
        },
        {
          "name": "zaCoin",
          "type": "uint256"
        },
        {
          "name": "chance",
          "type": "uint256"
        },
        {
          "name": "slot",
          "type": "uint256[][]"
        },
        {
          "name": "eggFlag",
          "type": "bool"
        }
      ],
      "payable": false,
      "stateMutability": "view",
      "type": "function"
    },
    {
      "constant": true,
      "inputs": [],
      "name": "getChestGroupSupply",
      "outputs": [
        {
          "name": "",
          "type": "uint256"
        }
      ],
      "payable": false,
      "stateMutability": "view",
      "type": "function"
    },
    {
      "constant": true,
      "inputs": [
        {
          "name": "_chestGroupId",
          "type": "uint256"
        }
      ],
      "name": "getChestGroupById",
      "outputs": [
        {
          "name": "name",
          "type": "string"
        },
        {
          "name": "quantity",
          "type": "uint256"
        },
        {
          "name": "totalAmount",
          "type": "uint256"
        },
        {
          "name": "price",
          "type": "uint256"
        },
        {
          "name": "tokenId",
          "type": "uint256"
        },
        {
          "name": "tokenPrice",
          "type": "uint256"
        },
        {
          "name": "startDate",
          "type": "uint256"
        },
        {
          "name": "endDate",
          "type": "uint256"
        },
        {
          "name": "zaCoin",
          "type": "uint256"
        },
        {
          "name": "chance",
          "type": "uint256"
        },
        {
          "name": "slot",
          "type": "uint256[][]"
        },
        {
          "name": "eggFlag",
          "type": "bool"
        }
      ],
      "payable": false,
      "stateMutability": "view",
      "type": "function"
    },
    {
      "constant": true,
      "inputs": [
        {
          "name": "_chestId",
          "type": "uint256"
        }
      ],
      "name": "ownerOf",
      "outputs": [
        {
          "name": "owner",
          "type": "address"
        }
      ],
      "payable": false,
      "stateMutability": "view",
      "type": "function"
    },
    {
      "constant": true,
      "inputs": [
        {
          "name": "_owner",
          "type": "address"
        }
      ],
      "name": "balanceOf",
      "outputs": [
        {
          "name": "count",
          "type": "uint256"
        }
      ],
      "payable": false,
      "stateMutability": "view",
      "type": "function"
    },
    {
      "constant": true,
      "inputs": [],
      "name": "totalSupply",
      "outputs": [
        {
          "name": "",
          "type": "uint256"
        }
      ],
      "payable": false,
      "stateMutability": "view",
      "type": "function"
    },
    {
      "constant": true,
      "inputs": [
        {
          "name": "_owner",
          "type": "address"
        }
      ],
      "name": "chestsOfOwner",
      "outputs": [
        {
          "name": "ownerChests",
          "type": "uint256[]"
        }
      ],
      "payable": false,
      "stateMutability": "view",
      "type": "function"
    },
    {
      "constant": true,
      "inputs": [],
      "name": "chestTest",
      "outputs": [
        {
          "name": "",
          "type": "address"
        }
      ],
      "payable": false,
      "stateMutability": "view",
      "type": "function"
    },
    {
      "constant": true,
      "inputs": [],
      "name": "isChestContract",
      "outputs": [
        {
          "name": "",
          "type": "bool"
        }
      ],
      "payable": false,
      "stateMutability": "pure",
      "type": "function"
    }
  ],
  "bytecode": "0x60806040523480156200001157600080fd5b50d380156200001f57600080fd5b50d280156200002d57600080fd5b5060405160808062004c0083398101806040526200004f919081019062000515565b600073ffffffffffffffffffffffffffffffffffffffff168473ffffffffffffffffffffffffffffffffffffffff16141515156200008c57600080fd5b600073ffffffffffffffffffffffffffffffffffffffff168373ffffffffffffffffffffffffffffffffffffffff1614151515620000c957600080fd5b600073ffffffffffffffffffffffffffffffffffffffff168273ffffffffffffffffffffffffffffffffffffffff16141515156200010657600080fd5b600073ffffffffffffffffffffffffffffffffffffffff168173ffffffffffffffffffffffffffffffffffffffff16141515156200014357600080fd5b33601660006101000a81548173ffffffffffffffffffffffffffffffffffffffff021916908373ffffffffffffffffffffffffffffffffffffffff16021790555083601160006101000a81548173ffffffffffffffffffffffffffffffffffffffff021916908373ffffffffffffffffffffffffffffffffffffffff16021790555082601260006101000a81548173ffffffffffffffffffffffffffffffffffffffff021916908373ffffffffffffffffffffffffffffffffffffffff16021790555081601360006101000a81548173ffffffffffffffffffffffffffffffffffffffff021916908373ffffffffffffffffffffffffffffffffffffffff16021790555080601460006101000a81548173ffffffffffffffffffffffffffffffffffffffff021916908373ffffffffffffffffffffffffffffffffffffffff160217905550601260009054906101000a900473ffffffffffffffffffffffffffffffffffffffff16601760006101000a81548173ffffffffffffffffffffffffffffffffffffffff021916908373ffffffffffffffffffffffffffffffffffffffff160217905550601160009054906101000a900473ffffffffffffffffffffffffffffffffffffffff16601960006101000a81548173ffffffffffffffffffffffffffffffffffffffff021916908373ffffffffffffffffffffffffffffffffffffffff160217905550601360009054906101000a900473ffffffffffffffffffffffffffffffffffffffff16601860006101000a81548173ffffffffffffffffffffffffffffffffffffffff021916908373ffffffffffffffffffffffffffffffffffffffff1602179055506101b860086000600581101515620003c557fe5b01819055506102e460086001600581101515620003de57fe5b01819055506103bb60086002600581101515620003f757fe5b01819055506103e3600860036005811015156200041057fe5b01819055506103e8600860046005811015156200042957fe5b01819055506161a86000806004811015156200044157fe5b0181905550612710600060016004811015156200045a57fe5b0181905550612710600060026004811015156200047357fe5b0181905550614e20600060036004811015156200048c57fe5b018190555061271060046000600481101515620004a557fe5b018190555061138860046001600481101515620004be57fe5b018190555061138860046002600481101515620004d757fe5b0181905550611b5860046003600481101515620004f057fe5b018190555050505050620005a1565b60006200050d825162000581565b905092915050565b600080600080608085870312156200052c57600080fd5b60006200053c87828801620004ff565b94505060206200054f87828801620004ff565b93505060406200056287828801620004ff565b92505060606200057587828801620004ff565b91505092959194509250565b600073ffffffffffffffffffffffffffffffffffffffff82169050919050565b61464f80620005b16000396000f30060806040526004361061016a576000357c0100000000000000000000000000000000000000000000000000000000900463ffffffff16806303a92a0f1461016f5780630936183c146101c657806318160ddd1461020957806319c6f7bf1461024e5780632e01c4aa1461026a5780632f7d747f146102af57806336541cc5146102f457806336883e801461035157806340079992146103a85780634558f4c8146103eb57806353b4e8fa14610430578063540ec5bd146104755780636075eb7d146104ba5780636352211e146104fd5780636a05474f1461055457806370a08231146105ab5780637bb3cd3f1461060257806389679d62146106475780638f2839701461068c578063a8e6a624146106cf578063ba9b769014610726578063c176b10114610784578063c42b35dd146107b5578063cb0e2c5a14610816578063d23ff58414610859578063d5e26392146108b0578063e51a588a146108f3578063e9e15b4f14610955575b600080fd5b34801561017b57600080fd5b50d3801561018857600080fd5b50d2801561019557600080fd5b506101b060048036036101ab9190810190613d61565b610998565b6040516101bd9190613fd2565b60405180910390f35b3480156101d257600080fd5b50d380156101df57600080fd5b50d280156101ec57600080fd5b5061020760048036036102029190810190613b61565b6109cb565b005b34801561021557600080fd5b50d3801561022257600080fd5b50d2801561022f57600080fd5b50610238610a90565b604051610245919061438e565b60405180910390f35b61026860048036036102639190810190613d8a565b610aa0565b005b34801561027657600080fd5b50d3801561028357600080fd5b50d2801561029057600080fd5b50610299611420565b6040516102a69190613fd2565b60405180910390f35b3480156102bb57600080fd5b50d380156102c857600080fd5b50d280156102d557600080fd5b506102de6114e5565b6040516102eb91906140f7565b60405180910390f35b34801561030057600080fd5b50d3801561030d57600080fd5b50d2801561031a57600080fd5b5061033560048036036103309190810190613d61565b61150b565b6040516103489796959493929190614266565b60405180910390f35b34801561035d57600080fd5b50d3801561036a57600080fd5b50d2801561037757600080fd5b50610392600480360361038d9190810190613b0f565b611601565b60405161039f919061438e565b60405180910390f35b3480156103b457600080fd5b50d380156103c157600080fd5b50d280156103ce57600080fd5b506103e960048036036103e49190810190613c41565b611619565b005b3480156103f757600080fd5b50d3801561040457600080fd5b50d2801561041157600080fd5b5061041a61184f565b60405161042791906140c1565b60405180910390f35b34801561043c57600080fd5b50d3801561044957600080fd5b50d2801561045657600080fd5b5061045f611875565b60405161046c91906140dc565b60405180910390f35b34801561048157600080fd5b50d3801561048e57600080fd5b50d2801561049b57600080fd5b506104a461189b565b6040516104b191906140a6565b60405180910390f35b3480156104c657600080fd5b50d380156104d357600080fd5b50d280156104e057600080fd5b506104fb60048036036104f69190810190613d61565b6118a4565b005b34801561050957600080fd5b50d3801561051657600080fd5b50d2801561052357600080fd5b5061053e60048036036105399190810190613d61565b611c18565b60405161054b9190613fd2565b60405180910390f35b34801561056057600080fd5b50d3801561056d57600080fd5b50d2801561057a57600080fd5b5061059560048036036105909190810190613d61565b611c91565b6040516105a2919061438e565b60405180910390f35b3480156105b757600080fd5b50d380156105c457600080fd5b50d280156105d157600080fd5b506105ec60048036036105e79190810190613b0f565b611cab565b6040516105f9919061438e565b60405180910390f35b34801561060e57600080fd5b50d3801561061b57600080fd5b50d2801561062857600080fd5b50610631611cf4565b60405161063e919061438e565b60405180910390f35b34801561065357600080fd5b50d3801561066057600080fd5b50d2801561066d57600080fd5b50610676611d01565b604051610683919061438e565b60405180910390f35b34801561069857600080fd5b50d380156106a557600080fd5b50d280156106b257600080fd5b506106cd60048036036106c89190810190613b0f565b611d0e565b005b3480156106db57600080fd5b50d380156106e857600080fd5b50d280156106f557600080fd5b50610710600480360361070b9190810190613b0f565b611e2a565b60405161071d9190614084565b60405180910390f35b34801561073257600080fd5b50d3801561073f57600080fd5b50d2801561074c57600080fd5b5061076760048036036107629190810190613d61565b611f77565b60405161077b989796959493929190614112565b60405180910390f35b34801561079057600080fd5b50d3801561079d57600080fd5b50d280156107aa57600080fd5b506107b3612191565b005b3480156107c157600080fd5b50d380156107ce57600080fd5b50d280156107db57600080fd5b506107f660048036036107f19190810190613d61565b6122c8565b60405161080d9b9a999897969594939291906142dc565b60405180910390f35b34801561082257600080fd5b50d3801561082f57600080fd5b50d2801561083c57600080fd5b5061085760048036036108529190810190613b0f565b6123d6565b005b34801561086557600080fd5b50d3801561087257600080fd5b50d2801561087f57600080fd5b5061089a60048036036108959190810190613d61565b61263e565b6040516108a7919061438e565b60405180910390f35b3480156108bc57600080fd5b50d380156108c957600080fd5b50d280156108d657600080fd5b506108f160048036036108ec9190810190613b0f565b612658565b005b3480156108ff57600080fd5b50d3801561090c57600080fd5b50d2801561091957600080fd5b50610934600480360361092f9190810190613d61565b6128c0565b60405161094c9c9b9a9998979695949392919061419e565b60405180910390f35b34801561096157600080fd5b50d3801561096e57600080fd5b50d2801561097b57600080fd5b5061099660048036036109919190810190613b0f565b612b2c565b005b600f6020528060005260406000206000915054906101000a900473ffffffffffffffffffffffffffffffffffffffff1681565b6109d53382612c84565b15156109e057600080fd5b600073ffffffffffffffffffffffffffffffffffffffff168273ffffffffffffffffffffffffffffffffffffffff1614151515610a1c57600080fd5b610a27338383612cf0565b8173ffffffffffffffffffffffffffffffffffffffff163373ffffffffffffffffffffffffffffffffffffffff167fb4da2aea3fd257ead1af3bb5e5560a95323b82734457f971a8141a7ca028e93c83604051610a84919061438e565b60405180910390a35050565b60006001600d8054905003905090565b610aa8613529565b6000600e85815481101515610ab957fe5b90600052602060002090600c02016101806040519081016040529081600082018054600181600116156101000203166002900480601f016020809104026020016040519081016040528092919081815260200182805460018160011615610100020316600290048015610b6d5780601f10610b4257610100808354040283529160200191610b6d565b820191906000526020600020905b815481529060010190602001808311610b5057829003601f168201915b50505050508152602001600182015481526020016002820154815260200160038201548152602001600482015481526020016005820154815260200160068201548152602001600782015481526020016008820154815260200160098201548152602001600a8201805480602002602001604051908101604052809291908181526020016000905b82821015610c6757838290600052602060002001805480602002602001604051908101604052809291908181526020018280548015610c5357602002820191906000526020600020905b815481526020019060010190808311610c3f575b505050505081526020019060010190610bf5565b505050508152602001600b820160009054906101000a900460ff161515151581525050915060008260200151111515610c9f57600080fd5b60009050821561100057816060015134141515610cbb57600080fd5b600073ffffffffffffffffffffffffffffffffffffffff168473ffffffffffffffffffffffffffffffffffffffff16141515610e34578373ffffffffffffffffffffffffffffffffffffffff166108fc600a34811515610d1757fe5b049081150290604051600060405180830381858888f19350505050158015610d43573d6000803e3d6000fd5b50601460009054906101000a900473ffffffffffffffffffffffffffffffffffffffff1673ffffffffffffffffffffffffffffffffffffffff166108fc600a34811515610d8c57fe5b049081150290604051600060405180830381858888f19350505050158015610db8573d6000803e3d6000fd5b50601660009054906101000a900473ffffffffffffffffffffffffffffffffffffffff1673ffffffffffffffffffffffffffffffffffffffff166108fc6002600a34811515610e0357fe5b040234039081150290604051600060405180830381858888f19350505050158015610e32573d6000803e3d6000fd5b505b6001600d610100604051908101604052808560000151815260200185606001518152602001856080015181526020018560a0015181526020018561010001518152602001856101200151815260200185610140015181526020018561016001511515815250908060018154018082558091505090600182039060005260206000209060080201600090919290919091506000820151816000019080519060200190610ee092919061358d565b506020820151816001015560408201518160020155606082015181600301556080820151816004015560a0820151816005015560c0820151816006019080519060200190610f2f92919061360d565b5060e08201518160070160006101000a81548160ff02191690831515021790555050500390506001600e86815481101515610f6657fe5b90600052602060002090600c02016001015403600e86815481101515610f8857fe5b90600052602060002090600c020160010181905550610fa960003383612cf0565b3373ffffffffffffffffffffffffffffffffffffffff167f3af1f8fcc504ff780e5374a01a60d80b13ce7931cea6ebc8a5fdff94491d0bce868686604051610ff3939291906143a9565b60405180910390a2611419565b8160800151d314151561101257600080fd5b8160a00151d214151561102457600080fd5b600073ffffffffffffffffffffffffffffffffffffffff168473ffffffffffffffffffffffffffffffffffffffff16141515611251578373ffffffffffffffffffffffffffffffffffffffff166108fc600ad281151561108057fe5b049081150290d38015801561109457600080fd5b5080678000000000000000111580156110ac57600080fd5b5080620f4240101580156110bf57600080fd5b5060405160006040518083038185878a8ad09450505050501580156110e8573d6000803e3d6000fd5b50601460009054906101000a900473ffffffffffffffffffffffffffffffffffffffff1673ffffffffffffffffffffffffffffffffffffffff166108fc600ad281151561113157fe5b049081150290d38015801561114557600080fd5b50806780000000000000001115801561115d57600080fd5b5080620f42401015801561117057600080fd5b5060405160006040518083038185878a8ad0945050505050158015611199573d6000803e3d6000fd5b50601660009054906101000a900473ffffffffffffffffffffffffffffffffffffffff1673ffffffffffffffffffffffffffffffffffffffff166108fc6002600ad28115156111e457fe5b0402d2039081150290d3801580156111fb57600080fd5b50806780000000000000001115801561121357600080fd5b5080620f42401015801561122657600080fd5b5060405160006040518083038185878a8ad094505050505015801561124f573d6000803e3d6000fd5b505b6001600d610100604051908101604052808560000151815260200185606001518152602001856080015181526020018560a00151815260200185610100015181526020018561012001518152602001856101400151815260200185610160015115158152509080600181540180825580915050906001820390600052602060002090600802016000909192909190915060008201518160000190805190602001906112fd92919061358d565b506020820151816001015560408201518160020155606082015181600301556080820151816004015560a0820151816005015560c082015181600601908051906020019061134c92919061360d565b5060e08201518160070160006101000a81548160ff02191690831515021790555050500390506001600e8681548110151561138357fe5b90600052602060002090600c02016001015403600e868154811015156113a557fe5b90600052602060002090600c0201600101819055506113c660003383612cf0565b3373ffffffffffffffffffffffffffffffffffffffff167f3af1f8fcc504ff780e5374a01a60d80b13ce7931cea6ebc8a5fdff94491d0bce868686604051611410939291906143a9565b60405180910390a25b5050505050565b6000601960009054906101000a900473ffffffffffffffffffffffffffffffffffffffff1673ffffffffffffffffffffffffffffffffffffffff1663bc82b93b6040518163ffffffff167c0100000000000000000000000000000000000000000000000000000000028152600401602060405180830381600087803b1580156114a857600080fd5b505af11580156114bc573d6000803e3d6000fd5b505050506040513d601f19601f820116820180604052506114e09190810190613b38565b905090565b601760009054906101000a900473ffffffffffffffffffffffffffffffffffffffff1681565b600d8181548110151561151a57fe5b9060005260206000209060080201600091509050806000018054600181600116156101000203166002900480601f0160208091040260200160405190810160405280929190818152602001828054600181600116156101000203166002900480156115c65780601f1061159b576101008083540402835291602001916115c6565b820191906000526020600020905b8154815290600101906020018083116115a957829003601f168201915b5050505050908060010154908060020154908060030154908060040154908060050154908060070160009054906101000a900460ff16905087565b60106020528060005260406000206000915090505481565b601660009054906101000a900473ffffffffffffffffffffffffffffffffffffffff1673ffffffffffffffffffffffffffffffffffffffff163373ffffffffffffffffffffffffffffffffffffffff1614151561167557600080fd5b60008a11151561168457600080fd5b60008911151561169357600080fd5b84861015156116a157600080fd5b600e610180604051908101604052808d81526020018c81526020018c81526020018b81526020018a81526020018981526020018881526020018781526020018681526020018581526020018481526020018315158152509080600181540180825580915050906001820390600052602060002090600c020160009091929091909150600082015181600001908051906020019061173f92919061358d565b506020820151816001015560408201518160020155606082015181600301556080820151816004015560a0820151816005015560c0820151816006015560e082015181600701556101008201518160080155610120820151816009015561014082015181600a0190805190602001906117b992919061360d565b5061016082015181600b0160006101000a81548160ff0219169083151502179055505050503373ffffffffffffffffffffffffffffffffffffffff167f0e5a0f6339427a91c20187cf08c18d5784100a33ae5cd8dcffcc6ba37e4ef09f8c8c8d8d8d8d8d8d8d8d8d8d60405161183a9c9b9a9998979695949392919061419e565b60405180910390a25050505050505050505050565b601860009054906101000a900473ffffffffffffffffffffffffffffffffffffffff1681565b601960009054906101000a900473ffffffffffffffffffffffffffffffffffffffff1681565b60006001905090565b6118ac61366d565b6118b63383612c84565b15156118c157600080fd5b600d828154811015156118d057fe5b90600052602060002090600802016101006040519081016040529081600082018054600181600116156101000203166002900480601f0160208091040260200160405190810160405280929190818152602001828054600181600116156101000203166002900480156119845780601f1061195957610100808354040283529160200191611984565b820191906000526020600020905b81548152906001019060200180831161196757829003601f168201915b50505050508152602001600182015481526020016002820154815260200160038201548152602001600482015481526020016005820154815260200160068201805480602002602001604051908101604052809291908181526020016000905b82821015611a5657838290600052602060002001805480602002602001604051908101604052809291908181526020018280548015611a4257602002820191906000526020600020905b815481526020019060010190808311611a2e575b5050505050815260200190600101906119e4565b5050505081526020016007820160009054906101000a900460ff1615151515815250509050611a853383612e58565b8060e0015115611b3e57601860009054906101000a900473ffffffffffffffffffffffffffffffffffffffff1673ffffffffffffffffffffffffffffffffffffffff1663e1162569336000806040518463ffffffff167c0100000000000000000000000000000000000000000000000000000000028152600401611b0b93929190614024565b600060405180830381600087803b158015611b2557600080fd5b505af1158015611b39573d6000803e3d6000fd5b505050505b611b4a33600084612cf0565b600d82815481101515611b5957fe5b906000526020600020906008020160008082016000611b7891906136b5565b60018201600090556002820160009055600382016000905560048201600090556005820160009055600682016000611bb091906136fd565b6007820160006101000a81549060ff021916905550503373ffffffffffffffffffffffffffffffffffffffff167f46c93111dd8c7b802311d4e633f37f328d3ab5596290965602e99706395af7d683604051611c0c919061438e565b60405180910390a25050565b6000600f600083815260200190815260200160002060009054906101000a900473ffffffffffffffffffffffffffffffffffffffff169050600073ffffffffffffffffffffffffffffffffffffffff168173ffffffffffffffffffffffffffffffffffffffff1614151515611c8c57600080fd5b919050565b600481600481101515611ca057fe5b016000915090505481565b6000601060008373ffffffffffffffffffffffffffffffffffffffff1673ffffffffffffffffffffffffffffffffffffffff168152602001908152602001600020549050919050565b6000600d80549050905090565b6000600e80549050905090565b601660009054906101000a900473ffffffffffffffffffffffffffffffffffffffff1673ffffffffffffffffffffffffffffffffffffffff163373ffffffffffffffffffffffffffffffffffffffff16141515611d6a57600080fd5b80601660006101000a81548173ffffffffffffffffffffffffffffffffffffffff021916908373ffffffffffffffffffffffffffffffffffffffff1602179055508073ffffffffffffffffffffffffffffffffffffffff16601660009054906101000a900473ffffffffffffffffffffffffffffffffffffffff1673ffffffffffffffffffffffffffffffffffffffff167fcf9b665e0639e0b81a8db37b60ac7ddf45aeb1b484e11adeb7dff4bf4a3a625860405160405180910390a350565b6060600060606000806000611e3e87611cab565b94506000851415611e81576000604051908082528060200260200182016040528015611e795781602001602082028038833980820191505090505b509550611f6d565b84604051908082528060200260200182016040528015611eb05781602001602082028038833980820191505090505b509350611ebb610a90565b925060009150600190505b8281111515611f69578673ffffffffffffffffffffffffffffffffffffffff16600f600083815260200190815260200160002060009054906101000a900473ffffffffffffffffffffffffffffffffffffffff1673ffffffffffffffffffffffffffffffffffffffff161415611f5c57808483815181101515611f4557fe5b906020019060200201818152505081806001019250505b8080600101915050611ec6565b8395505b5050505050919050565b6060600080600080600060606000611f8d61366d565b600d8a815481101515611f9c57fe5b90600052602060002090600802016101006040519081016040529081600082018054600181600116156101000203166002900480601f0160208091040260200160405190810160405280929190818152602001828054600181600116156101000203166002900480156120505780601f1061202557610100808354040283529160200191612050565b820191906000526020600020905b81548152906001019060200180831161203357829003601f168201915b50505050508152602001600182015481526020016002820154815260200160038201548152602001600482015481526020016005820154815260200160068201805480602002602001604051908101604052809291908181526020016000905b828210156121225783829060005260206000200180548060200260200160405190810160405280929190818152602001828054801561210e57602002820191906000526020600020905b8154815260200190600101908083116120fa575b5050505050815260200190600101906120b0565b5050505081526020016007820160009054906101000a900460ff1615151515815250509050806000015181602001518260400151836060015184608001518560a001518660c001518760e001518797508191509850985098509850985098509850985050919395975091939597565b600080601660009054906101000a900473ffffffffffffffffffffffffffffffffffffffff1673ffffffffffffffffffffffffffffffffffffffff163373ffffffffffffffffffffffffffffffffffffffff161415156121f057600080fd5b600e805490509150600090505b818110156122c457600e8181548110151561221457fe5b90600052602060002090600c02016000808201600061223391906136b5565b600182016000905560028201600090556003820160009055600482016000905560058201600090556006820160009055600782016000905560088201600090556009820160009055600a8201600061228b91906136fd565b600b820160006101000a81549060ff02191690555050600e8054809190600190036122b6919061371e565b5080806001019150506121fd565b5050565b600e818154811015156122d757fe5b90600052602060002090600c0201600091509050806000018054600181600116156101000203166002900480601f0160208091040260200160405190810160405280929190818152602001828054600181600116156101000203166002900480156123835780601f1061235857610100808354040283529160200191612383565b820191906000526020600020905b81548152906001019060200180831161236657829003601f168201915b50505050509080600101549080600201549080600301549080600401549080600501549080600601549080600701549080600801549080600901549080600b0160009054906101000a900460ff1690508b565b6000601660009054906101000a900473ffffffffffffffffffffffffffffffffffffffff1673ffffffffffffffffffffffffffffffffffffffff163373ffffffffffffffffffffffffffffffffffffffff1614151561243457600080fd5b600073ffffffffffffffffffffffffffffffffffffffff168273ffffffffffffffffffffffffffffffffffffffff161415151561247057600080fd5b81601260006101000a81548173ffffffffffffffffffffffffffffffffffffffff021916908373ffffffffffffffffffffffffffffffffffffffff160217905550601260009054906101000a900473ffffffffffffffffffffffffffffffffffffffff1690508073ffffffffffffffffffffffffffffffffffffffff16635461c5f96040518163ffffffff167c0100000000000000000000000000000000000000000000000000000000028152600401602060405180830381600087803b15801561253a57600080fd5b505af115801561254e573d6000803e3d6000fd5b505050506040513d601f19601f820116820180604052506125729190810190613b9d565b151561257d57600080fd5b80601760006101000a81548173ffffffffffffffffffffffffffffffffffffffff021916908373ffffffffffffffffffffffffffffffffffffffff1602179055508173ffffffffffffffffffffffffffffffffffffffff16601660009054906101000a900473ffffffffffffffffffffffffffffffffffffffff1673ffffffffffffffffffffffffffffffffffffffff167f075c423fa08481d6748b1ef2f69989b6b41ab80837686fc8dd5c2492d88d7b9660405160405180910390a35050565b60008160048110151561264d57fe5b016000915090505481565b6000601660009054906101000a900473ffffffffffffffffffffffffffffffffffffffff1673ffffffffffffffffffffffffffffffffffffffff163373ffffffffffffffffffffffffffffffffffffffff161415156126b657600080fd5b600073ffffffffffffffffffffffffffffffffffffffff168273ffffffffffffffffffffffffffffffffffffffff16141515156126f257600080fd5b81601160006101000a81548173ffffffffffffffffffffffffffffffffffffffff021916908373ffffffffffffffffffffffffffffffffffffffff160217905550601160009054906101000a900473ffffffffffffffffffffffffffffffffffffffff1690508073ffffffffffffffffffffffffffffffffffffffff1663b1e4f01f6040518163ffffffff167c0100000000000000000000000000000000000000000000000000000000028152600401602060405180830381600087803b1580156127bc57600080fd5b505af11580156127d0573d6000803e3d6000fd5b505050506040513d601f19601f820116820180604052506127f49190810190613b9d565b15156127ff57600080fd5b80601960006101000a81548173ffffffffffffffffffffffffffffffffffffffff021916908373ffffffffffffffffffffffffffffffffffffffff1602179055508173ffffffffffffffffffffffffffffffffffffffff16601660009054906101000a900473ffffffffffffffffffffffffffffffffffffffff1673ffffffffffffffffffffffffffffffffffffffff167f397cd66e5762b28b138e6e8193ac3a549da9b184f1f187178be7c5b382c316d160405160405180910390a35050565b60606000806000806000806000806000606060006128dc613529565b600e8e8154811015156128eb57fe5b90600052602060002090600c02016101806040519081016040529081600082018054600181600116156101000203166002900480601f01602080910402602001604051908101604052809291908181526020018280546001816001161561010002031660029004801561299f5780601f106129745761010080835404028352916020019161299f565b820191906000526020600020905b81548152906001019060200180831161298257829003601f168201915b50505050508152602001600182015481526020016002820154815260200160038201548152602001600482015481526020016005820154815260200160068201548152602001600782015481526020016008820154815260200160098201548152602001600a8201805480602002602001604051908101604052809291908181526020016000905b82821015612a9957838290600052602060002001805480602002602001604051908101604052809291908181526020018280548015612a8557602002820191906000526020600020905b815481526020019060010190808311612a71575b505050505081526020019060010190612a27565b505050508152602001600b820160009054906101000a900460ff1615151515815250509050806000015181602001518260400151836060015184608001518560a001518660c001518760e001518861010001518961012001518a61014001518b61016001518b9b508191509c509c509c509c509c509c509c509c509c509c509c509c505091939597999b5091939597999b565b601660009054906101000a900473ffffffffffffffffffffffffffffffffffffffff1673ffffffffffffffffffffffffffffffffffffffff163373ffffffffffffffffffffffffffffffffffffffff16141515612b8857600080fd5b600073ffffffffffffffffffffffffffffffffffffffff168173ffffffffffffffffffffffffffffffffffffffff1614151515612bc457600080fd5b80601460006101000a81548173ffffffffffffffffffffffffffffffffffffffff021916908373ffffffffffffffffffffffffffffffffffffffff1602179055508073ffffffffffffffffffffffffffffffffffffffff16601660009054906101000a900473ffffffffffffffffffffffffffffffffffffffff1673ffffffffffffffffffffffffffffffffffffffff167f8353f2ec2d93e5b3f4e1e9f3fa7ce3c8e5ec8bfd6c0fc95f39f6ed23033e7bc660405160405180910390a350565b60008273ffffffffffffffffffffffffffffffffffffffff16600f600084815260200190815260200160002060009054906101000a900473ffffffffffffffffffffffffffffffffffffffff1673ffffffffffffffffffffffffffffffffffffffff1614905092915050565b601060008373ffffffffffffffffffffffffffffffffffffffff1673ffffffffffffffffffffffffffffffffffffffff1681526020019081526020016000206000815480929190600101919050555081600f600083815260200190815260200160002060006101000a81548173ffffffffffffffffffffffffffffffffffffffff021916908373ffffffffffffffffffffffffffffffffffffffff160217905550600073ffffffffffffffffffffffffffffffffffffffff168373ffffffffffffffffffffffffffffffffffffffff16141515612e1857601060008473ffffffffffffffffffffffffffffffffffffffff1673ffffffffffffffffffffffffffffffffffffffff16815260200190815260200160002060008154809291906001900391905055505b7f5fa5f8538fe52864231df4d67901199394269477d8d71a12e1418af8a1c9f18a838383604051612e4b93929190613fed565b60405180910390a1505050565b612e6061366d565b6000806000600d85815481101515612e7457fe5b90600052602060002090600802016101006040519081016040529081600082018054600181600116156101000203166002900480601f016020809104026020016040519081016040528092919081815260200182805460018160011615610100020316600290048015612f285780601f10612efd57610100808354040283529160200191612f28565b820191906000526020600020905b815481529060010190602001808311612f0b57829003601f168201915b50505050508152602001600182015481526020016002820154815260200160038201548152602001600482015481526020016005820154815260200160068201805480602002602001604051908101604052809291908181526020016000905b82821015612ffa57838290600052602060002001805480602002602001604051908101604052809291908181526020018280548015612fe657602002820191906000526020600020905b815481526020019060010190808311612fd2575b505050505081526020019060010190612f88565b5050505081526020016007820160009054906101000a900460ff1615151515815250509350600092506000915060009050600090505b8360c001515181101561312d57613062818560c001518381518110151561305357fe5b90602001906020020151613135565b8093508194505050821561312057601760009054906101000a900473ffffffffffffffffffffffffffffffffffffffff1673ffffffffffffffffffffffffffffffffffffffff16637d4cb74e87846040518363ffffffff167c01000000000000000000000000000000000000000000000000000000000281526004016130e992919061405b565b600060405180830381600087803b15801561310357600080fd5b505af1158015613117573d6000803e3d6000fd5b50505050600092505b8080600101915050613030565b505050505050565b6000806000613142613750565b61314a613773565b60008060008060008042448e6040516020018084815260200183815260200182815260200193505050506040516020818303038152906040526040518082805190602001908083835b6020831015156131b85780518252602082019150602081019050602083039250613193565b6001836020036101000a03801982511681845116808217855250505050505090500191505060405180910390206001900498506103e8898115156131f857fe5b06985060a060405190810160405280600015151515815260200160001515151581526020016000151515158152602001600015151515815260200160001515151581525097506000955060009450600093506000925060009150600090506008600060058110151561326657fe5b01548910156132785760009450613300565b6008600160058110151561328857fe5b015489101561329a57600194506132ff565b600860026005811015156132aa57fe5b01548910156132bc57600294506132fe565b600860036005811015156132cc57fe5b01548910156132de57600394506132fd565b600860046005811015156132ee57fe5b01548910156132fc57600494505b5b5b5b5b600095505b8b518610156134b057601760009054906101000a900473ffffffffffffffffffffffffffffffffffffffff1673ffffffffffffffffffffffffffffffffffffffff1663019d90528d8881518110151561335a57fe5b906020019060200201516040518263ffffffff167c010000000000000000000000000000000000000000000000000000000002815260040161339c919061438e565b600060405180830381600087803b1580156133b657600080fd5b505af11580156133ca573d6000803e3d6000fd5b505050506040513d6000823e3d601f19601f820116820180604052506133f39190810190613bc6565b9091925050809350819450505060008311156134a35784821415613434578b8681518110151561341f57fe5b906020019060200201519350600190506134b0565b60001515888360058110151561344657fe5b6020020151151514156134a2576001888360058110151561346357fe5b6020020190151590811515815250508b8681518110151561348057fe5b90602001906020020151878360058110151561349857fe5b6020020181815250505b5b8580600101965050613305565b80151561351357600095505b6005861015613512576001151588876005811015156134d757fe5b6020020151151514156135055785945086866005811015156134f557fe5b6020020151935060019050613512565b85806001019650506134bc565b5b80849a509a505050505050505050509250929050565b6101806040519081016040528060608152602001600081526020016000815260200160008152602001600081526020016000815260200160008152602001600081526020016000815260200160008152602001606081526020016000151581525090565b828054600181600116156101000203166002900490600052602060002090601f016020900481019282601f106135ce57805160ff19168380011785556135fc565b828001600101855582156135fc579182015b828111156135fb5782518255916020019190600101906135e0565b5b5090506136099190613796565b5090565b82805482825590600052602060002090810192821561365c579160200282015b8281111561365b57825182908051906020019061364b9291906137bb565b509160200191906001019061362d565b5b5090506136699190613808565b5090565b61010060405190810160405280606081526020016000815260200160008152602001600081526020016000815260200160008152602001606081526020016000151581525090565b50805460018160011615610100020316600290046000825580601f106136db57506136fa565b601f0160209004906000526020600020908101906136f99190613796565b5b50565b508054600082559060005260206000209081019061371b9190613808565b50565b81548183558181111561374b57600c0281600c02836000526020600020918201910161374a9190613834565b5b505050565b60a060405190810160405280600590602082028038833980820191505090505090565b60a060405190810160405280600590602082028038833980820191505090505090565b6137b891905b808211156137b457600081600090555060010161379c565b5090565b90565b8280548282559060005260206000209081019282156137f7579160200282015b828111156137f65782518255916020019190600101906137db565b5b5090506138049190613796565b5090565b61383191905b8082111561382d576000818161382491906138cf565b5060010161380e565b5090565b90565b6138cc91905b808211156138c8576000808201600061385391906136b5565b600182016000905560028201600090556003820160009055600482016000905560058201600090556006820160009055600782016000905560088201600090556009820160009055600a820160006138ab91906136fd565b600b820160006101000a81549060ff021916905550600c0161383a565b5090565b90565b50805460008255906000526020600020908101906138ed9190613796565b50565b60006138fc8235614544565b905092915050565b60006139108251614544565b905092915050565b600082601f830112151561392b57600080fd5b813561393e6139398261440d565b6143e0565b9150818183526020840193506020810190508360005b83811015613984578135860161396a888261398e565b845260208401935060208301925050600181019050613954565b5050505092915050565b600082601f83011215156139a157600080fd5b81356139b46139af82614435565b6143e0565b915081818352602084019350602081019050838560208402820111156139d957600080fd5b60005b83811015613a0957816139ef8882613ae7565b8452602084019350602083019250506001810190506139dc565b5050505092915050565b6000613a1f8235614564565b905092915050565b6000613a338251614564565b905092915050565b600082601f8301121515613a4e57600080fd5b8135613a61613a5c8261445d565b6143e0565b91508082526020830160208301858383011115613a7d57600080fd5b613a888382846145c2565b50505092915050565b600082601f8301121515613aa457600080fd5b8151613ab7613ab28261445d565b6143e0565b91508082526020830160208301858383011115613ad357600080fd5b613ade8382846145d1565b50505092915050565b6000613af38235614570565b905092915050565b6000613b078251614570565b905092915050565b600060208284031215613b2157600080fd5b6000613b2f848285016138f0565b91505092915050565b600060208284031215613b4a57600080fd5b6000613b5884828501613904565b91505092915050565b60008060408385031215613b7457600080fd5b6000613b82858286016138f0565b9250506020613b9385828601613ae7565b9150509250929050565b600060208284031215613baf57600080fd5b6000613bbd84828501613a27565b91505092915050565b60008060008060808587031215613bdc57600080fd5b600085015167ffffffffffffffff811115613bf657600080fd5b613c0287828801613a91565b9450506020613c1387828801613afb565b9350506040613c2487828801613afb565b9250506060613c3587828801613afb565b91505092959194509250565b60008060008060008060008060008060006101608c8e031215613c6357600080fd5b60008c013567ffffffffffffffff811115613c7d57600080fd5b613c898e828f01613a3b565b9b50506020613c9a8e828f01613ae7565b9a50506040613cab8e828f01613ae7565b9950506060613cbc8e828f01613ae7565b9850506080613ccd8e828f01613ae7565b97505060a0613cde8e828f01613ae7565b96505060c0613cef8e828f01613ae7565b95505060e0613d008e828f01613ae7565b945050610100613d128e828f01613ae7565b9350506101208c013567ffffffffffffffff811115613d3057600080fd5b613d3c8e828f01613918565b925050610140613d4e8e828f01613a13565b9150509295989b509295989b9093969950565b600060208284031215613d7357600080fd5b6000613d8184828501613ae7565b91505092915050565b600080600060608486031215613d9f57600080fd5b6000613dad86828701613ae7565b9350506020613dbe868287016138f0565b9250506040613dcf86828701613a13565b9150509250925092565b613de28161450e565b82525050565b6000613df3826144b0565b80845260208401935083602082028501613e0c85614489565b60005b84811015613e45578383038852613e27838351613eb1565b9250613e32826144e7565b9150602088019750600181019050613e0f565b508196508694505050505092915050565b6000613e61826144c6565b808452602084019350613e73836144a3565b60005b82811015613ea557613e89868351613fc3565b613e9282614501565b9150602086019550600181019050613e76565b50849250505092915050565b6000613ebc826144bb565b808452602084019350613ece83614496565b60005b82811015613f0057613ee4868351613fc3565b613eed826144f4565b9150602086019550600181019050613ed1565b50849250505092915050565b613f158161452e565b82525050565b613f248161457a565b82525050565b613f338161458c565b82525050565b613f428161459e565b82525050565b613f51816145b0565b82525050565b6000613f62826144dc565b808452613f768160208601602086016145d1565b613f7f81614604565b602085010191505092915050565b6000613f98826144d1565b808452613fac8160208601602086016145d1565b613fb581614604565b602085010191505092915050565b613fcc8161453a565b82525050565b6000602082019050613fe76000830184613dd9565b92915050565b60006060820190506140026000830186613dd9565b61400f6020830185613dd9565b61401c6040830184613fc3565b949350505050565b60006060820190506140396000830186613dd9565b6140466020830185613f48565b6140536040830184613f48565b949350505050565b60006040820190506140706000830185613dd9565b61407d6020830184613fc3565b9392505050565b6000602082019050818103600083015261409e8184613e56565b905092915050565b60006020820190506140bb6000830184613f0c565b92915050565b60006020820190506140d66000830184613f1b565b92915050565b60006020820190506140f16000830184613f2a565b92915050565b600060208201905061410c6000830184613f39565b92915050565b600061010082019050818103600083015261412d818b613f57565b905061413c602083018a613fc3565b6141496040830189613fc3565b6141566060830188613fc3565b6141636080830187613fc3565b61417060a0830186613fc3565b81810360c08301526141828185613de8565b905061419160e0830184613f0c565b9998505050505050505050565b60006101808201905081810360008301526141b9818f613f57565b90506141c8602083018e613fc3565b6141d5604083018d613fc3565b6141e2606083018c613fc3565b6141ef608083018b613fc3565b6141fc60a083018a613fc3565b61420960c0830189613fc3565b61421660e0830188613fc3565b614224610100830187613fc3565b614232610120830186613fc3565b8181036101408301526142458185613de8565b9050614255610160830184613f0c565b9d9c50505050505050505050505050565b600060e0820190508181036000830152614280818a613f8d565b905061428f6020830189613fc3565b61429c6040830188613fc3565b6142a96060830187613fc3565b6142b66080830186613fc3565b6142c360a0830185613fc3565b6142d060c0830184613f0c565b98975050505050505050565b60006101608201905081810360008301526142f7818e613f8d565b9050614306602083018d613fc3565b614313604083018c613fc3565b614320606083018b613fc3565b61432d608083018a613fc3565b61433a60a0830189613fc3565b61434760c0830188613fc3565b61435460e0830187613fc3565b614362610100830186613fc3565b614370610120830185613fc3565b61437e610140830184613f0c565b9c9b505050505050505050505050565b60006020820190506143a36000830184613fc3565b92915050565b60006060820190506143be6000830186613fc3565b6143cb6020830185613dd9565b6143d86040830184613f0c565b949350505050565b6000604051905081810181811067ffffffffffffffff8211171561440357600080fd5b8060405250919050565b600067ffffffffffffffff82111561442457600080fd5b602082029050602081019050919050565b600067ffffffffffffffff82111561444c57600080fd5b602082029050602081019050919050565b600067ffffffffffffffff82111561447457600080fd5b601f19601f8301169050602081019050919050565b6000602082019050919050565b6000602082019050919050565b6000602082019050919050565b600081519050919050565b600081519050919050565b600081519050919050565b600081519050919050565b600081519050919050565b6000602082019050919050565b6000602082019050919050565b6000602082019050919050565b600073ffffffffffffffffffffffffffffffffffffffff82169050919050565b60008115159050919050565b6000819050919050565b600073ffffffffffffffffffffffffffffffffffffffff82169050919050565b60008115159050919050565b6000819050919050565b60006145858261450e565b9050919050565b60006145978261450e565b9050919050565b60006145a98261450e565b9050919050565b60006145bb8261453a565b9050919050565b82818337600083830152505050565b60005b838110156145ef5780820151818401526020810190506145d4565b838111156145fe576000848401525b50505050565b6000601f19601f83011690509190505600a265627a7a72305820868e3f25ebbcf91ce1c19e82d07702a7306cb2ff29e6e1cadf0a32a264bd724b6c6578706572696d656e74616cf50037",
  "source": "pragma solidity ^0.4.25;\npragma experimental ABIEncoderV2;\n\nimport \"./PZHeroCore.sol\";\nimport \"./PZItemCore.sol\";\nimport \"./PZEggCore.sol\";\n\ncontract PZChest\n{\n    uint private constant       PZ_ITEM_GEAR = 0;\n    uint private constant       PZ_ITEM_EMOTE = 1;\n\n    uint private constant       PZ_ITEM_COMMON = 0;\n    uint private constant       PZ_ITEM_UNCOMMON = 1;\n    uint private constant       PZ_ITEM_RARE = 2;\n    uint private constant       PZ_ITEM_EPIC = 3;\n    uint private constant       PZ_ITEM_LEGENDARY = 4;\n\n    uint private constant       PZ_ITEM_CHANCE_COMMON = 440;\n    uint private constant       PZ_ITEM_CHANCE_UNCOMMON = 740;\n    uint private constant       PZ_ITEM_CHANCE_RARE = 955;\n    uint private constant       PZ_ITEM_CHANCE_EPIC = 995;\n    uint private constant       PZ_ITEM_CHANCE_LEGENDARY = 1000;\n\n    uint private constant       PZ_ZA_NORMAL_DOWN_LIMIT = 10000;\n    uint private constant       PZ_ZA_NORMAL_UP_LIMIT = 25000;\n    uint private constant       PZ_ZA_RARE_DOWN_LIMIT = 5000;\n    uint private constant       PZ_ZA_RARE_UP_LIMIT = 10000;\n    uint private constant       PZ_ZA_EPIC_DOWN_LIMIT = 5000;\n    uint private constant       PZ_ZA_EPIC_UP_LIMIT = 10000;\n    uint private constant       PZ_ZA_LEGENDARY_DOWN_LIMIT = 7000;\n    uint private constant       PZ_ZA_LEGENDARY_UP_LIMIT = 20000;\n    uint private constant       PZ_TOKEN_TRX_PROPOTION = 1;\n    uint private constant       PZ_TOKEN_ID = 1000382;\n\n    struct Chest {\n        string      name;\n        uint        price;\n        uint        tokenId;\n        uint        tokenPrice;\n        uint        zaCoin;\n        uint        chance;\n        uint[][]    slot;\n        bool        eggFlag;\n    }\n\n    struct ChestGroup {\n        string      name;\n        uint        quantity;\n        uint        totalAmount;\n        uint        price;\n        uint        tokenId;\n        uint        tokenPrice;\n        uint        startDate;\n        uint        endDate;\n        uint        zaCoin;\n        uint        chance;\n        uint[][]    slot;\n        bool        eggFlag;\n    }\n\n    event CreateChestGroup(\n            address indexed _admin,\n            string _name,\n            uint _quantity,\n            uint _totalAmount,\n            uint _price,\n            uint _tokenId,\n            uint _tokenPrice,\n            uint _startDate,\n            uint _endDate,\n            uint _zaCoin,\n            uint _chance,\n            uint[][] _slot,\n            bool _eggFlag);\n\n    event SetHeroCoreAddress(address indexed _admin, address indexed _newHeroCore);\n    event SetItemCoreAddress(address indexed _admin, address indexed _newItemCore);\n    event SetPoolAddress(address indexed _admin, address indexed _newPool);\n    event ChangeAdmin(address indexed _admin, address indexed _newAdmin);\n    event OpenChest(address indexed _buyer, uint _chestId);\n    event BuyChest(address indexed _buyer, uint _chestGroupId, address _referrer, bool bTrxPurchase);\n    event BurnChest(uint burnQuantity, uint id);\n    event CreateChest(uint quantity, uint supply);\n    event GiftChest(address indexed sender, address indexed _to, uint _chestId);\n\n    uint[4] public                          pzZAUpperLimit;\n    uint[4] public                          pzZADownLimit;\n\n    uint[5] private                         itemChance;\n    Chest[] public                          chests;\n    ChestGroup[] public                     chestGroups;\n    mapping(uint => address) public         chestIndexToOwner;\n    mapping(address => uint) public         ownershipChestCount;\n\n    address private                         addrHeroCore;\n    address private                         addrItemCore;\n    address private                         addrEggCore;\n    address private                         addrPool;\n    address private                         addrEVO;\n    address private                         addrAdmin;\n    // address private                         addrToken;\n\n    PZItemCore public                       contractItemCore;\n    PZEggCore public                        contractEggCore;\n    PZHeroCore public                       contractHeroCore;\n    // PZToken public                          contractToken;\n//    PZPool public                           contractPool;\n\n    event ChestTransfer(address from, address to, uint256 chestId);\n    event ChestCreated(uint itmeType, uint quantity);\n\n    /**\n    * Constructor\n    *\n    * @param _heroCore                      address of hero contract\n    * @param _itemCore                      address of item contract\n    * @param _eggCore                       address of egg contract\n    * @param _pool                          address of pool contract\n    *\n    */\n\n    constructor(address _heroCore, address _itemCore, address _eggCore, address _pool) public\n    {\n        require(_heroCore != address(0));\n        require(_itemCore != address(0));\n        require(_eggCore != address(0));\n        require(_pool != address(0));\n\n        addrAdmin = msg.sender;\n        addrHeroCore = _heroCore;\n        addrItemCore = _itemCore;\n        addrEggCore = _eggCore;\n        addrPool = _pool;\n\n        contractItemCore = PZItemCore(addrItemCore);\n        contractHeroCore = PZHeroCore(addrHeroCore);\n        contractEggCore = PZEggCore(addrEggCore);\n        // contractToken = PZToken(addrToken);\n\n        itemChance[PZ_ITEM_COMMON] = PZ_ITEM_CHANCE_COMMON;\n        itemChance[PZ_ITEM_UNCOMMON] = PZ_ITEM_CHANCE_UNCOMMON;\n        itemChance[PZ_ITEM_RARE] = PZ_ITEM_CHANCE_RARE;\n        itemChance[PZ_ITEM_EPIC] = PZ_ITEM_CHANCE_EPIC;\n        itemChance[PZ_ITEM_LEGENDARY] = PZ_ITEM_CHANCE_LEGENDARY;\n\n        pzZAUpperLimit[PZ_ITEM_COMMON] = PZ_ZA_NORMAL_UP_LIMIT;\n        pzZAUpperLimit[PZ_ITEM_UNCOMMON] = PZ_ZA_RARE_UP_LIMIT;\n        pzZAUpperLimit[PZ_ITEM_RARE] = PZ_ZA_EPIC_UP_LIMIT;\n        pzZAUpperLimit[PZ_ITEM_EPIC] = PZ_ZA_LEGENDARY_UP_LIMIT;\n\n        pzZADownLimit[PZ_ITEM_COMMON] = PZ_ZA_NORMAL_DOWN_LIMIT;\n        pzZADownLimit[PZ_ITEM_UNCOMMON] = PZ_ZA_RARE_DOWN_LIMIT;\n        pzZADownLimit[PZ_ITEM_RARE] = PZ_ZA_EPIC_DOWN_LIMIT;\n        pzZADownLimit[PZ_ITEM_EPIC] = PZ_ZA_LEGENDARY_DOWN_LIMIT;\n//        contractPool = PZPool(addrPool);\n    }\n\n    modifier onlyAdmin()\n    {\n        require(msg.sender == addrAdmin);\n        _;\n    }\n\n    /**\n    * Set the Address of Hero contract\n    *\n    * @param _heroCore                   new address of hero contract\n    *\n    */\n    function setHeroCoreAddress(address _heroCore) public onlyAdmin\n    {\n        require(_heroCore != address(0x0));\n\n        addrHeroCore = _heroCore;\n        PZHeroCore candidateContract = PZHeroCore(addrHeroCore);\n\n        require(candidateContract.isHeroContract());\n        contractHeroCore = candidateContract;\n        emit SetHeroCoreAddress(addrAdmin, _heroCore);\n    }\n\n    /**\n    * Set the Address of Item contract\n    *\n    * @param _itemCore                   new address of item contract\n    *\n    */\n    function setItemCoreAddress(address _itemCore) public onlyAdmin\n    {\n        require(_itemCore != address(0x0));\n\n        addrItemCore = _itemCore;\n\n        PZItemCore candidateContract = PZItemCore(addrItemCore);\n        require(candidateContract.isItemContract());\n\n        contractItemCore = candidateContract;\n        emit SetItemCoreAddress(addrAdmin, _itemCore);\n    }\n\n    /**\n    * Set the Address of Pool\n    *\n    * @param _pool                   new address of pool\n    *\n    */\n    function setPoolAddress(address _pool) public onlyAdmin\n    {\n        require(_pool != address(0x0));\n\n        addrPool = _pool;\n        emit SetPoolAddress(addrAdmin, _pool);\n    }\n\n    /**\n    * Set the Address of Admin\n    *\n    * @param _addrAdmin                   new address of Admin\n    *\n    */\n    function changeAdmin(address _addrAdmin) public onlyAdmin\n    {\n        addrAdmin = _addrAdmin;\n        emit ChangeAdmin(addrAdmin, _addrAdmin);\n    }\n\n    /**\n    * Create Chest Group that is the Meta Information for creating Chest NFT\n    *\n    * @param _name                          name of the chest\n    * @param _quantity                      quantity of the chest\n    * @param _price                         price of the chest\n    * @param _startDate                     start Date of Sale for the chest\n    * @param _endDate                       end Date of Sale for the chest\n    * @param _zaCoin                        zaCoin amount //not sure\n    * @param _chance                        chance  //not sure\n    * @param _slot                          item slots of the chest\n    *\n    */\n    function createChestGroup(\n            string _name,\n            uint _quantity,\n            uint _price,\n            uint _tokenId,\n            uint _tokenPrice,\n            uint _startDate,\n            uint _endDate,\n            uint _zaCoin,\n            uint _chance,\n            uint[][] _slot,\n            bool _eggFlag)\n        public\n        onlyAdmin\n    {\n        require(_quantity > 0);\n        require(_price > 0);\n        require(_startDate < _endDate);\n\n        chestGroups.push(ChestGroup(_name, _quantity, _quantity, _price, _tokenId, _tokenPrice, _startDate, _endDate, _zaCoin, _chance, _slot, _eggFlag));\n        emit CreateChestGroup(msg.sender, _name, _quantity, _quantity, _price, _tokenId, _tokenPrice, _startDate, _endDate, _zaCoin, _chance, _slot, _eggFlag);\n    }\n\n    function _generateRandomZA(uint _rarity) private view returns (uint)\n    {\n        uint rand = uint(keccak256(abi.encodePacked(block.timestamp)));\n        uint diff = pzZAUpperLimit[_rarity] - pzZADownLimit[_rarity];\n        uint result = rand % diff + pzZADownLimit[_rarity];\n        return result;\n    }\n\n    /**\n    * Get ID of item group for the item slot of the chest to open\n    *\n    * @param num                                num for random generation\n    * @param itemSlot                           items arry for the slot\n    *\n    * @return bFindItem                         flag if the available item is found\n    * @return itemGroupId                       Id of Itemgroup\n    *\n    */\n    function _getItemGroupIdFromSlot(uint num, uint[] itemSlot)\n        private\n        view\n        returns(bool, uint256)\n    {\n        uint rand = uint(keccak256(abi.encodePacked(block.timestamp, block.difficulty, num)));\n        rand = rand % 1000;\n        bool[5] memory rarityFlag = [false, false, false, false, false];\n        uint[5] memory rarityItemGroupId;\n\n        uint index = 0;\n\n        uint itemRarity = 0;\n        uint itemGroupId = 0;\n\n        uint _slotQuantity = 0;\n        uint _slotRarity = 0;\n        bool bFindItem = false;\n        // uint\n\n        if (rand < itemChance[PZ_ITEM_COMMON]) {\n            itemRarity = PZ_ITEM_COMMON;\n        } else if (rand < itemChance[PZ_ITEM_UNCOMMON]) {\n            itemRarity = PZ_ITEM_UNCOMMON;\n        } else if (rand < itemChance[PZ_ITEM_RARE]) {\n            itemRarity = PZ_ITEM_RARE;\n        } else if (rand < itemChance[PZ_ITEM_EPIC]) {\n            itemRarity = PZ_ITEM_EPIC;\n        } else if (rand < itemChance[PZ_ITEM_LEGENDARY]) {\n            itemRarity = PZ_ITEM_LEGENDARY;\n        }\n\n        for(index = 0; index < itemSlot.length; index ++) {\n            (,_slotQuantity, _slotRarity,) = contractItemCore.getItemGroup(itemSlot[index]);\n            if (_slotQuantity > 0) {\n                if (_slotRarity == itemRarity) {\n                    itemGroupId = itemSlot[index];\n                    bFindItem = true;\n                    break;\n                } else {\n                    if (rarityFlag[_slotRarity] == false) {\n                        rarityFlag[_slotRarity] = true;\n                        rarityItemGroupId[_slotRarity] = itemSlot[index];\n                    }\n                }\n            }\n        }\n\n        if( !bFindItem ) {\n            for (index = 0; index < 5; index ++) {\n                if (rarityFlag[index] == true) {\n                    itemRarity = index;\n                    itemGroupId = rarityItemGroupId[index];\n                    bFindItem = true;\n                    break;\n                }\n            }\n        }\n\n        return (bFindItem, itemGroupId);\n    }\n\n    /**\n    * Open item Slots to create Item NFT for buy chest\n    *\n    * @param buyer                          address of Buyer\n    * @param _chestId                       chest Id to buy\n    *\n    */\n    function _openItemSlots(address buyer, uint _chestId) internal\n    {\n        Chest memory chest = chests[_chestId];\n\n        bool bFindItemGroupId = false;\n        uint itemGroupId = 0;\n        uint index = 0;\n        // uint[] memory itemSlot = chest.slot;\n        for (index = 0; index < chest.slot.length; index ++) {\n            (bFindItemGroupId, itemGroupId) = _getItemGroupIdFromSlot(index, chest.slot[index]);\n            if (bFindItemGroupId) {\n                contractItemCore.createItemToBuyer(buyer, itemGroupId);\n                bFindItemGroupId = false;\n            }\n        }\n    }\n\n    /**\n    * Gift Chest to other users\n    *\n    * @param _to                            address of receiver\n    * @param _chestId                       chest Id to gift\n    *\n    */\n    function giftChest(address _to, uint _chestId) public\n    {\n        require(_owns(msg.sender, _chestId));\n        require(_to != address(0x0));\n        _transfer(msg.sender, _to, _chestId);\n        emit GiftChest(msg.sender, _to, _chestId);\n    }\n    \n    /**\n    * Open Chest\n    *\n    * @param _chestId                       chest Id to Open\n    *\n    */\n    function openChest(uint _chestId) public\n    {\n        require(_owns(msg.sender, _chestId));\n\n        Chest memory chest = chests[_chestId];\n\n        //Open Item Slot to create Item and send to Buyer\n        _openItemSlots(msg.sender, _chestId);\n\n        // chests[_chestId].zaCoin = _generateRandomZA();\n\n        //Breed Egg\n        if (chest.eggFlag)\n            contractEggCore.createEggToOwner(msg.sender, 0, 0);\n\n        //Implementation\n        _transfer(msg.sender, address(0x0), _chestId);\n        delete chests[_chestId];\n\n        emit OpenChest(msg.sender, _chestId);\n    }\n\n    /**\n    * Burn chests\n    *\n    *\n    */\n    function burnChests() public onlyAdmin\n    {\n        uint supply = chestGroups.length;\n\n        for (uint index = 0; index < supply; index ++) {\n            delete chestGroups[index];\n            chestGroups.length--;\n        }\n        // emit BurnChest();\n    }\n\n    /**\n    * Buy Chest\n    *\n    * @param _chestGroupId                          chest Group Id to buy\n    * @param _referrer                              address of referrer\n    * @param bTrxPurchase                           flag whether the purchase is by TRX or TRC10 token\n    *\n    */\n    function buyChest(uint _chestGroupId, address _referrer, bool bTrxPurchase) public payable\n    {\n        // require((block.number >= chests[_chestId].startDate) && (block.number <= chests[_chestId].endDate));\n\n        //Implementation\n        ChestGroup memory _chestGroup = chestGroups[_chestGroupId];\n        require(_chestGroup.quantity > 0);\n        uint256 newChestId = 0;\n\n        if (bTrxPurchase) {\n            require (msg.value == _chestGroup.price);\n            if (_referrer != address(0x0)) {\n                _referrer.transfer(msg.value / 10);\n                addrPool.transfer(msg.value / 10);\n                addrAdmin.transfer(msg.value - msg.value / 10 * 2);\n                // addrAdmin.transfer(msg.value);\n            }\n            newChestId = chests.push(Chest(_chestGroup.name, _chestGroup.price, _chestGroup.tokenId, _chestGroup.tokenPrice, _chestGroup.zaCoin, _chestGroup.chance, _chestGroup.slot, _chestGroup.eggFlag)) - 1;\n            chestGroups[_chestGroupId].quantity = chestGroups[_chestGroupId].quantity - 1;\n            _transfer(0, msg.sender, newChestId);\n            emit BuyChest(msg.sender, _chestGroupId, _referrer, bTrxPurchase);\n        } else {\n            // uint256 _tokenBalance = contractToken.getTokenBalance(msg.sender, PZ_TOKEN_ID);\n            // uint256 _valueInToken = _chestGroup.price * PZ_TOKEN_TRX_PROPOTION;\n            require (msg.tokenid == _chestGroup.tokenId);\n            require (msg.tokenvalue == _chestGroup.tokenPrice);\n        \n            if (_referrer != address(0x0)) {\n                _referrer.transferToken(msg.tokenvalue / 10, msg.tokenid);\n                addrPool.transferToken(msg.tokenvalue / 10, msg.tokenid);\n                addrAdmin.transferToken(msg.tokenvalue - msg.tokenvalue / 10 * 2, msg.tokenid);\n\n                // addrAdmin.transferToken(msg.tokenvalue, msg.tokenid);\n                // contractToken.transferToken(_referrer, _valueInToken / 10, PZ_TOKEN_ID);\n                // contractToken.transferToken(addrPool, _valueInToken / 10, PZ_TOKEN_ID);\n                // contractToken.transferToken(addrAdmin, _valueInToken - _valueInToken / 10 * 2, PZ_TOKEN_ID);\n            }\n            newChestId = chests.push(Chest(_chestGroup.name, _chestGroup.price, _chestGroup.tokenId, _chestGroup.tokenPrice, _chestGroup.zaCoin, _chestGroup.chance, _chestGroup.slot, _chestGroup.eggFlag)) - 1;\n            chestGroups[_chestGroupId].quantity = chestGroups[_chestGroupId].quantity - 1;\n            _transfer(0, msg.sender, newChestId);\n            emit BuyChest(msg.sender, _chestGroupId, _referrer, bTrxPurchase);\n        }\n    }\n\n    /**\n    * Get quantity of Chest NFT\n    *\n    *\n    */\n    function getChestsQuantity() external view returns(uint)\n    {\n        return chests.length;\n    }\n\n    /**\n    * Get Chest NFT\n    *\n    * @return name                      chest name\n    * @return price                     chest price\n    * @return zaCoin                    chest zaCoin\n    * @return chance                    chest chance\n    * @return slot                      chest slot\n    *\n    */\n    function getChestById(uint _id) external view returns(\n        string name, uint price, uint tokenId, uint tokenPrice, uint zaCoin, uint chance, uint[][] slot, bool eggFlag\n        )\n    {\n        Chest memory chest = chests[_id];\n        return (chest.name, chest.price, chest.tokenId, chest.tokenPrice, chest.zaCoin, chest.chance, chest.slot, chest.eggFlag);\n    }\n\n    /**\n    * Get quantity of chest group\n    *\n    *\n    */\n    function getChestGroupSupply() external view returns(uint256)\n    {\n        return chestGroups.length;\n    }\n\n    /**\n    * Get Chest Group Info\n    *\n    * @return name                      chest name\n    * @return quantity                  chest quantity\n    * @return startDate                 start Date of chest sale\n    * @return endDate                   end Date of chest sale\n    * @return price                     chest price\n    * @return zaCoin                    chest zaCoin\n    * @return chance                    chest chance\n    * @return slot                      chest slot\n    *\n    */\n    function getChestGroupById(uint _chestGroupId)\n        external\n        view\n        returns(string name, uint quantity, uint totalAmount, uint price, uint tokenId, uint tokenPrice, uint startDate, uint endDate, uint zaCoin, uint chance, uint[][] slot, bool eggFlag)\n    {\n        ChestGroup memory _chestGroup = chestGroups[_chestGroupId];\n        return(_chestGroup.name,\n                _chestGroup.quantity, _chestGroup.totalAmount,\n                _chestGroup.price, _chestGroup.tokenId, _chestGroup.tokenPrice, _chestGroup.startDate,\n                _chestGroup.endDate, _chestGroup.zaCoin, _chestGroup.chance, _chestGroup.slot, _chestGroup.eggFlag);\n    }\n\n    /**\n    * Transfer Chest NFT\n    *\n    * @param _from                              address of sender\n    * @param _to                                address of receiver\n    * @param _chestId                           chest Id to transfer\n    *\n    */\n    function _transfer(address _from, address _to, uint256 _chestId) internal\n    {\n        ownershipChestCount[_to]++;\n        chestIndexToOwner[_chestId] = _to;\n        if (_from != address(0)) {\n            ownershipChestCount[_from]--;\n            // delete itemIndexToApproved[_chestId];\n        }\n\n        emit ChestTransfer(_from, _to, _chestId);\n    }\n\n    /**\n    * Check if the claimer owns item\n    *\n    * @param _claimant                  address of claimer\n    * @param _itemId                    item id to claim\n    *\n    */\n    function _owns(address _claimant, uint256 _itemId) internal view returns (bool) {\n        return chestIndexToOwner[_itemId] == _claimant;\n    }\n\n    /**\n    * Get Owner address of Chest Id\n    *\n    * @param _chestId                   Chest Id to Check\n    *\n    * @return owner                     address of owner\n    *\n    */\n    function ownerOf(uint256 _chestId)\n        external\n        view\n        returns (address owner)\n    {\n        owner = chestIndexToOwner[_chestId];\n\n        require(owner != address(0));\n    }\n\n    /**\n    * Get count of chest NFT belongs to owner\n    *\n    * @param _owner                     address of owner\n    *\n    * @return count                     count of chest NFT\n    *\n    */\n    function balanceOf(address _owner) public view returns (uint256 count) {\n        return ownershipChestCount[_owner];\n    }\n\n    /**\n    * Total count of chest NFT\n    *\n    */\n    function totalSupply() public view returns (uint) {\n        return chests.length - 1;\n    }\n\n    /**\n    * Get chest array of given address\n    *\n    * @return ownerChests                   chests array\n    *\n    */\n    function chestsOfOwner(address _owner) external view returns(uint256[] ownerChests) {\n        uint256 chestCount = balanceOf(_owner);\n\n        if (chestCount == 0) {\n            // Return an empty array\n            return new uint256[](0);\n        } else {\n            uint256[] memory result = new uint256[](chestCount);\n            uint256 totalChests = totalSupply();\n            uint256 resultIndex = 0;\n\n            uint256 chestId;\n\n            for (chestId = 1; chestId <= totalChests; chestId++) {\n                if (chestIndexToOwner[chestId] == _owner) {\n                    result[resultIndex] = chestId;\n                    resultIndex++;\n                }\n            }\n\n            return result;\n        }\n    }\n\n    /**\n    * Check function of Chest contract\n    *\n    */\n    function chestTest() external view returns (address){\n        return contractHeroCore.heroTest();\n    }\n\n    /**\n    * Check function as if this is the Chest contract\n    *\n    */\n    function isChestContract() external pure returns (bool) {\n        return true;\n    }\n}\n",
  "sourcePath": "/Volumes/Backup/workspace/Dave(Tron_NFT)/pizzaHero/contracts/PZChest.sol",
  "compiler": {
    "name": "solc",
    "version": "0.4.25+commit.69a1e720.Emscripten.clang"
  },
  "schemaVersion": "2.0.1",
  "updatedAt": "2020-01-09T11:59:26.905Z"
}