{
  "contractName": "PZChest",
  "abi": [
    {
      "constant": true,
      "inputs": [
        {
          "name": "",
          "type": "uint256"
        }
      ],
      "name": "chestIndexToOwner",
      "outputs": [
        {
          "name": "",
          "type": "address"
        }
      ],
      "payable": false,
      "stateMutability": "view",
      "type": "function"
    },
    {
      "constant": true,
      "inputs": [],
      "name": "contractItemCore",
      "outputs": [
        {
          "name": "",
          "type": "address"
        }
      ],
      "payable": false,
      "stateMutability": "view",
      "type": "function"
    },
    {
      "constant": true,
      "inputs": [
        {
          "name": "",
          "type": "uint256"
        }
      ],
      "name": "chests",
      "outputs": [
        {
          "name": "name",
          "type": "string"
        },
        {
          "name": "price",
          "type": "uint256"
        },
        {
          "name": "zaCoin",
          "type": "uint256"
        },
        {
          "name": "chance",
          "type": "uint256"
        }
      ],
      "payable": false,
      "stateMutability": "view",
      "type": "function"
    },
    {
      "constant": true,
      "inputs": [
        {
          "name": "",
          "type": "address"
        }
      ],
      "name": "ownershipChestCount",
      "outputs": [
        {
          "name": "",
          "type": "uint256"
        }
      ],
      "payable": false,
      "stateMutability": "view",
      "type": "function"
    },
    {
      "constant": true,
      "inputs": [],
      "name": "contractEggCore",
      "outputs": [
        {
          "name": "",
          "type": "address"
        }
      ],
      "payable": false,
      "stateMutability": "view",
      "type": "function"
    },
    {
      "constant": true,
      "inputs": [],
      "name": "contractHeroCore",
      "outputs": [
        {
          "name": "",
          "type": "address"
        }
      ],
      "payable": false,
      "stateMutability": "view",
      "type": "function"
    },
    {
      "constant": true,
      "inputs": [
        {
          "name": "",
          "type": "uint256"
        }
      ],
      "name": "pzZADownLimit",
      "outputs": [
        {
          "name": "",
          "type": "uint256"
        }
      ],
      "payable": false,
      "stateMutability": "view",
      "type": "function"
    },
    {
      "constant": true,
      "inputs": [
        {
          "name": "",
          "type": "uint256"
        }
      ],
      "name": "chestGroups",
      "outputs": [
        {
          "name": "name",
          "type": "string"
        },
        {
          "name": "quantity",
          "type": "uint256"
        },
        {
          "name": "price",
          "type": "uint256"
        },
        {
          "name": "startDate",
          "type": "uint256"
        },
        {
          "name": "endDate",
          "type": "uint256"
        },
        {
          "name": "zaCoin",
          "type": "uint256"
        },
        {
          "name": "chance",
          "type": "uint256"
        }
      ],
      "payable": false,
      "stateMutability": "view",
      "type": "function"
    },
    {
      "constant": true,
      "inputs": [
        {
          "name": "",
          "type": "uint256"
        }
      ],
      "name": "pzZAUpperLimit",
      "outputs": [
        {
          "name": "",
          "type": "uint256"
        }
      ],
      "payable": false,
      "stateMutability": "view",
      "type": "function"
    },
    {
      "inputs": [
        {
          "name": "_heroCore",
          "type": "address"
        },
        {
          "name": "_itemCore",
          "type": "address"
        },
        {
          "name": "_eggCore",
          "type": "address"
        },
        {
          "name": "_pool",
          "type": "address"
        }
      ],
      "payable": false,
      "stateMutability": "nonpayable",
      "type": "constructor"
    },
    {
      "anonymous": false,
      "inputs": [
        {
          "indexed": true,
          "name": "_admin",
          "type": "address"
        },
        {
          "indexed": false,
          "name": "_name",
          "type": "string"
        },
        {
          "indexed": false,
          "name": "_quantity",
          "type": "uint256"
        },
        {
          "indexed": false,
          "name": "_price",
          "type": "uint256"
        },
        {
          "indexed": false,
          "name": "_startDate",
          "type": "uint256"
        },
        {
          "indexed": false,
          "name": "_endDate",
          "type": "uint256"
        },
        {
          "indexed": false,
          "name": "_zaCoin",
          "type": "uint256"
        },
        {
          "indexed": false,
          "name": "_chance",
          "type": "uint256"
        },
        {
          "indexed": false,
          "name": "_slot",
          "type": "uint256[][]"
        }
      ],
      "name": "CreateChestGroup",
      "type": "event"
    },
    {
      "anonymous": false,
      "inputs": [
        {
          "indexed": true,
          "name": "_admin",
          "type": "address"
        },
        {
          "indexed": true,
          "name": "_newHeroCore",
          "type": "address"
        }
      ],
      "name": "SetHeroCoreAddress",
      "type": "event"
    },
    {
      "anonymous": false,
      "inputs": [
        {
          "indexed": true,
          "name": "_admin",
          "type": "address"
        },
        {
          "indexed": true,
          "name": "_newItemCore",
          "type": "address"
        }
      ],
      "name": "SetItemCoreAddress",
      "type": "event"
    },
    {
      "anonymous": false,
      "inputs": [
        {
          "indexed": true,
          "name": "_admin",
          "type": "address"
        },
        {
          "indexed": true,
          "name": "_newPool",
          "type": "address"
        }
      ],
      "name": "SetPoolAddress",
      "type": "event"
    },
    {
      "anonymous": false,
      "inputs": [
        {
          "indexed": true,
          "name": "_admin",
          "type": "address"
        },
        {
          "indexed": true,
          "name": "_newAdmin",
          "type": "address"
        }
      ],
      "name": "ChangeAdmin",
      "type": "event"
    },
    {
      "anonymous": false,
      "inputs": [
        {
          "indexed": true,
          "name": "_buyer",
          "type": "address"
        },
        {
          "indexed": false,
          "name": "_chestId",
          "type": "uint256"
        }
      ],
      "name": "OpenChest",
      "type": "event"
    },
    {
      "anonymous": false,
      "inputs": [
        {
          "indexed": true,
          "name": "_buyer",
          "type": "address"
        },
        {
          "indexed": false,
          "name": "_chestGroupId",
          "type": "uint256"
        },
        {
          "indexed": false,
          "name": "_referrer",
          "type": "address"
        },
        {
          "indexed": false,
          "name": "bTrxPurchase",
          "type": "bool"
        }
      ],
      "name": "BuyChest",
      "type": "event"
    },
    {
      "anonymous": false,
      "inputs": [
        {
          "indexed": false,
          "name": "burnQuantity",
          "type": "uint256"
        },
        {
          "indexed": false,
          "name": "id",
          "type": "uint256"
        }
      ],
      "name": "BurnChest",
      "type": "event"
    },
    {
      "anonymous": false,
      "inputs": [
        {
          "indexed": false,
          "name": "quantity",
          "type": "uint256"
        },
        {
          "indexed": false,
          "name": "supply",
          "type": "uint256"
        }
      ],
      "name": "CreateChest",
      "type": "event"
    },
    {
      "anonymous": false,
      "inputs": [
        {
          "indexed": true,
          "name": "sender",
          "type": "address"
        },
        {
          "indexed": true,
          "name": "_to",
          "type": "address"
        },
        {
          "indexed": false,
          "name": "_chestId",
          "type": "uint256"
        }
      ],
      "name": "GiftChest",
      "type": "event"
    },
    {
      "anonymous": false,
      "inputs": [
        {
          "indexed": false,
          "name": "from",
          "type": "address"
        },
        {
          "indexed": false,
          "name": "to",
          "type": "address"
        },
        {
          "indexed": false,
          "name": "chestId",
          "type": "uint256"
        }
      ],
      "name": "ChestTransfer",
      "type": "event"
    },
    {
      "anonymous": false,
      "inputs": [
        {
          "indexed": false,
          "name": "itmeType",
          "type": "uint256"
        },
        {
          "indexed": false,
          "name": "quantity",
          "type": "uint256"
        }
      ],
      "name": "ChestCreated",
      "type": "event"
    },
    {
      "constant": false,
      "inputs": [
        {
          "name": "_heroCore",
          "type": "address"
        }
      ],
      "name": "setHeroCoreAddress",
      "outputs": [],
      "payable": false,
      "stateMutability": "nonpayable",
      "type": "function"
    },
    {
      "constant": false,
      "inputs": [
        {
          "name": "_itemCore",
          "type": "address"
        }
      ],
      "name": "setItemCoreAddress",
      "outputs": [],
      "payable": false,
      "stateMutability": "nonpayable",
      "type": "function"
    },
    {
      "constant": false,
      "inputs": [
        {
          "name": "_pool",
          "type": "address"
        }
      ],
      "name": "setPoolAddress",
      "outputs": [],
      "payable": false,
      "stateMutability": "nonpayable",
      "type": "function"
    },
    {
      "constant": false,
      "inputs": [
        {
          "name": "_addrAdmin",
          "type": "address"
        }
      ],
      "name": "changeAdmin",
      "outputs": [],
      "payable": false,
      "stateMutability": "nonpayable",
      "type": "function"
    },
    {
      "constant": false,
      "inputs": [
        {
          "name": "_name",
          "type": "string"
        },
        {
          "name": "_quantity",
          "type": "uint256"
        },
        {
          "name": "_price",
          "type": "uint256"
        },
        {
          "name": "_startDate",
          "type": "uint256"
        },
        {
          "name": "_endDate",
          "type": "uint256"
        },
        {
          "name": "_zaCoin",
          "type": "uint256"
        },
        {
          "name": "_chance",
          "type": "uint256"
        },
        {
          "name": "_slot",
          "type": "uint256[][]"
        }
      ],
      "name": "createChestGroup",
      "outputs": [],
      "payable": false,
      "stateMutability": "nonpayable",
      "type": "function"
    },
    {
      "constant": false,
      "inputs": [
        {
          "name": "_to",
          "type": "address"
        },
        {
          "name": "_chestId",
          "type": "uint256"
        }
      ],
      "name": "giftChest",
      "outputs": [],
      "payable": false,
      "stateMutability": "nonpayable",
      "type": "function"
    },
    {
      "constant": false,
      "inputs": [
        {
          "name": "_chestId",
          "type": "uint256"
        }
      ],
      "name": "openChest",
      "outputs": [],
      "payable": false,
      "stateMutability": "nonpayable",
      "type": "function"
    },
    {
      "constant": false,
      "inputs": [],
      "name": "burnChests",
      "outputs": [],
      "payable": false,
      "stateMutability": "nonpayable",
      "type": "function"
    },
    {
      "constant": false,
      "inputs": [
        {
          "name": "_chestGroupId",
          "type": "uint256"
        },
        {
          "name": "_referrer",
          "type": "address"
        },
        {
          "name": "bTrxPurchase",
          "type": "bool"
        }
      ],
      "name": "buyChest",
      "outputs": [],
      "payable": true,
      "stateMutability": "payable",
      "type": "function"
    },
    {
      "constant": true,
      "inputs": [],
      "name": "getChestsQuantity",
      "outputs": [
        {
          "name": "",
          "type": "uint256"
        }
      ],
      "payable": false,
      "stateMutability": "view",
      "type": "function"
    },
    {
      "constant": true,
      "inputs": [
        {
          "name": "_id",
          "type": "uint256"
        }
      ],
      "name": "getChestById",
      "outputs": [
        {
          "name": "name",
          "type": "string"
        },
        {
          "name": "price",
          "type": "uint256"
        },
        {
          "name": "zaCoin",
          "type": "uint256"
        },
        {
          "name": "chance",
          "type": "uint256"
        },
        {
          "name": "slot",
          "type": "uint256[][]"
        }
      ],
      "payable": false,
      "stateMutability": "view",
      "type": "function"
    },
    {
      "constant": true,
      "inputs": [],
      "name": "getChestGroupSupply",
      "outputs": [
        {
          "name": "",
          "type": "uint256"
        }
      ],
      "payable": false,
      "stateMutability": "view",
      "type": "function"
    },
    {
      "constant": true,
      "inputs": [
        {
          "name": "_chestGroupId",
          "type": "uint256"
        }
      ],
      "name": "getChestGroupById",
      "outputs": [
        {
          "name": "name",
          "type": "string"
        },
        {
          "name": "quantity",
          "type": "uint256"
        },
        {
          "name": "price",
          "type": "uint256"
        },
        {
          "name": "startDate",
          "type": "uint256"
        },
        {
          "name": "endDate",
          "type": "uint256"
        },
        {
          "name": "zaCoin",
          "type": "uint256"
        },
        {
          "name": "chance",
          "type": "uint256"
        },
        {
          "name": "slot",
          "type": "uint256[][]"
        }
      ],
      "payable": false,
      "stateMutability": "view",
      "type": "function"
    },
    {
      "constant": true,
      "inputs": [
        {
          "name": "_chestId",
          "type": "uint256"
        }
      ],
      "name": "ownerOf",
      "outputs": [
        {
          "name": "owner",
          "type": "address"
        }
      ],
      "payable": false,
      "stateMutability": "view",
      "type": "function"
    },
    {
      "constant": true,
      "inputs": [
        {
          "name": "_owner",
          "type": "address"
        }
      ],
      "name": "balanceOf",
      "outputs": [
        {
          "name": "count",
          "type": "uint256"
        }
      ],
      "payable": false,
      "stateMutability": "view",
      "type": "function"
    },
    {
      "constant": true,
      "inputs": [],
      "name": "totalSupply",
      "outputs": [
        {
          "name": "",
          "type": "uint256"
        }
      ],
      "payable": false,
      "stateMutability": "view",
      "type": "function"
    },
    {
      "constant": true,
      "inputs": [
        {
          "name": "_owner",
          "type": "address"
        }
      ],
      "name": "chestsOfOwner",
      "outputs": [
        {
          "name": "ownerChests",
          "type": "uint256[]"
        }
      ],
      "payable": false,
      "stateMutability": "view",
      "type": "function"
    },
    {
      "constant": true,
      "inputs": [],
      "name": "chestTest",
      "outputs": [
        {
          "name": "",
          "type": "address"
        }
      ],
      "payable": false,
      "stateMutability": "view",
      "type": "function"
    },
    {
      "constant": true,
      "inputs": [],
      "name": "isChestContract",
      "outputs": [
        {
          "name": "",
          "type": "bool"
        }
      ],
      "payable": false,
      "stateMutability": "pure",
      "type": "function"
    }
  ],
  "bytecode": "0x60806040523480156200001157600080fd5b50d380156200001f57600080fd5b50d280156200002d57600080fd5b50604051608080620045d883398101806040526200004f919081019062000515565b600073ffffffffffffffffffffffffffffffffffffffff168473ffffffffffffffffffffffffffffffffffffffff16141515156200008c57600080fd5b600073ffffffffffffffffffffffffffffffffffffffff168373ffffffffffffffffffffffffffffffffffffffff1614151515620000c957600080fd5b600073ffffffffffffffffffffffffffffffffffffffff168273ffffffffffffffffffffffffffffffffffffffff16141515156200010657600080fd5b600073ffffffffffffffffffffffffffffffffffffffff168173ffffffffffffffffffffffffffffffffffffffff16141515156200014357600080fd5b33601660006101000a81548173ffffffffffffffffffffffffffffffffffffffff021916908373ffffffffffffffffffffffffffffffffffffffff16021790555083601160006101000a81548173ffffffffffffffffffffffffffffffffffffffff021916908373ffffffffffffffffffffffffffffffffffffffff16021790555082601260006101000a81548173ffffffffffffffffffffffffffffffffffffffff021916908373ffffffffffffffffffffffffffffffffffffffff16021790555081601360006101000a81548173ffffffffffffffffffffffffffffffffffffffff021916908373ffffffffffffffffffffffffffffffffffffffff16021790555080601460006101000a81548173ffffffffffffffffffffffffffffffffffffffff021916908373ffffffffffffffffffffffffffffffffffffffff160217905550601260009054906101000a900473ffffffffffffffffffffffffffffffffffffffff16601760006101000a81548173ffffffffffffffffffffffffffffffffffffffff021916908373ffffffffffffffffffffffffffffffffffffffff160217905550601160009054906101000a900473ffffffffffffffffffffffffffffffffffffffff16601960006101000a81548173ffffffffffffffffffffffffffffffffffffffff021916908373ffffffffffffffffffffffffffffffffffffffff160217905550601360009054906101000a900473ffffffffffffffffffffffffffffffffffffffff16601860006101000a81548173ffffffffffffffffffffffffffffffffffffffff021916908373ffffffffffffffffffffffffffffffffffffffff1602179055506101b860086000600581101515620003c557fe5b01819055506102e460086001600581101515620003de57fe5b01819055506103bb60086002600581101515620003f757fe5b01819055506103e3600860036005811015156200041057fe5b01819055506103e8600860046005811015156200042957fe5b01819055506161a86000806004811015156200044157fe5b0181905550612710600060016004811015156200045a57fe5b0181905550612710600060026004811015156200047357fe5b0181905550614e20600060036004811015156200048c57fe5b018190555061271060046000600481101515620004a557fe5b018190555061138860046001600481101515620004be57fe5b018190555061138860046002600481101515620004d757fe5b0181905550611b5860046003600481101515620004f057fe5b018190555050505050620005a1565b60006200050d825162000581565b905092915050565b600080600080608085870312156200052c57600080fd5b60006200053c87828801620004ff565b94505060206200054f87828801620004ff565b93505060406200056287828801620004ff565b92505060606200057587828801620004ff565b91505092959194509250565b600073ffffffffffffffffffffffffffffffffffffffff82169050919050565b61402780620005b16000396000f30060806040526004361061016a576000357c0100000000000000000000000000000000000000000000000000000000900463ffffffff16806303a92a0f1461016f5780630936183c146101c657806318160ddd1461020957806319c6f7bf1461024e5780632e01c4aa1461026a5780632f7d747f146102af57806336541cc5146102f457806336883e801461034e5780634558f4c8146103a557806353b4e8fa146103ea578063540ec5bd1461042f5780635b74d5e9146104745780636075eb7d146104b75780636352211e146104fa5780636a05474f1461055157806370a08231146105a85780637bb3cd3f146105ff57806389679d62146106445780638f28397014610689578063a8e6a624146106cc578063ba9b769014610723578063c176b1011461077e578063c42b35dd146107af578063cb0e2c5a1461080c578063d23ff5841461084f578063d5e26392146108a6578063e51a588a146108e9578063e9e15b4f14610947575b600080fd5b34801561017b57600080fd5b50d3801561018857600080fd5b50d2801561019557600080fd5b506101b060048036036101ab9190810190613806565b61098a565b6040516101bd9190613a77565b60405180910390f35b3480156101d257600080fd5b50d380156101df57600080fd5b50d280156101ec57600080fd5b5061020760048036036102029190810190613644565b6109bd565b005b34801561021557600080fd5b50d3801561022257600080fd5b50d2801561022f57600080fd5b50610238610a82565b6040516102459190613d66565b60405180910390f35b6102686004803603610263919081019061382f565b610a92565b005b34801561027657600080fd5b50d3801561028357600080fd5b50d2801561029057600080fd5b5061029961130e565b6040516102a69190613a77565b60405180910390f35b3480156102bb57600080fd5b50d380156102c857600080fd5b50d280156102d557600080fd5b506102de6113d3565b6040516102eb9190613b9c565b60405180910390f35b34801561030057600080fd5b50d3801561030d57600080fd5b50d2801561031a57600080fd5b5061033560048036036103309190810190613806565b6113f9565b6040516103459493929190613ca4565b60405180910390f35b34801561035a57600080fd5b50d3801561036757600080fd5b50d2801561037457600080fd5b5061038f600480360361038a91908101906135f2565b6114d0565b60405161039c9190613d66565b60405180910390f35b3480156103b157600080fd5b50d380156103be57600080fd5b50d280156103cb57600080fd5b506103d46114e8565b6040516103e19190613b66565b60405180910390f35b3480156103f657600080fd5b50d3801561040357600080fd5b50d2801561041057600080fd5b5061041961150e565b6040516104269190613b81565b60405180910390f35b34801561043b57600080fd5b50d3801561044857600080fd5b50d2801561045557600080fd5b5061045e611534565b60405161046b9190613b4b565b60405180910390f35b34801561048057600080fd5b50d3801561048d57600080fd5b50d2801561049a57600080fd5b506104b560048036036104b09190810190613724565b61153d565b005b3480156104c357600080fd5b50d380156104d057600080fd5b50d280156104dd57600080fd5b506104f860048036036104f39190810190613806565b61170c565b005b34801561050657600080fd5b50d3801561051357600080fd5b50d2801561052057600080fd5b5061053b60048036036105369190810190613806565b61188e565b6040516105489190613a77565b60405180910390f35b34801561055d57600080fd5b50d3801561056a57600080fd5b50d2801561057757600080fd5b50610592600480360361058d9190810190613806565b611907565b60405161059f9190613d66565b60405180910390f35b3480156105b457600080fd5b50d380156105c157600080fd5b50d280156105ce57600080fd5b506105e960048036036105e491908101906135f2565b611921565b6040516105f69190613d66565b60405180910390f35b34801561060b57600080fd5b50d3801561061857600080fd5b50d2801561062557600080fd5b5061062e61196a565b60405161063b9190613d66565b60405180910390f35b34801561065057600080fd5b50d3801561065d57600080fd5b50d2801561066a57600080fd5b50610673611977565b6040516106809190613d66565b60405180910390f35b34801561069557600080fd5b50d380156106a257600080fd5b50d280156106af57600080fd5b506106ca60048036036106c591908101906135f2565b611984565b005b3480156106d857600080fd5b50d380156106e557600080fd5b50d280156106f257600080fd5b5061070d600480360361070891908101906135f2565b611aa0565b60405161071a9190613b29565b60405180910390f35b34801561072f57600080fd5b50d3801561073c57600080fd5b50d2801561074957600080fd5b50610764600480360361075f9190810190613806565b611bed565b604051610775959493929190613bb7565b60405180910390f35b34801561078a57600080fd5b50d3801561079757600080fd5b50d280156107a457600080fd5b506107ad611dbb565b005b3480156107bb57600080fd5b50d380156107c857600080fd5b50d280156107d557600080fd5b506107f060048036036107eb9190810190613806565b611ec6565b6040516108039796959493929190613cf0565b60405180910390f35b34801561081857600080fd5b50d3801561082557600080fd5b50d2801561083257600080fd5b5061084d600480360361084891908101906135f2565b611faf565b005b34801561085b57600080fd5b50d3801561086857600080fd5b50d2801561087557600080fd5b50610890600480360361088b9190810190613806565b612217565b60405161089d9190613d66565b60405180910390f35b3480156108b257600080fd5b50d380156108bf57600080fd5b50d280156108cc57600080fd5b506108e760048036036108e291908101906135f2565b612231565b005b3480156108f557600080fd5b50d3801561090257600080fd5b50d2801561090f57600080fd5b5061092a60048036036109259190810190613806565b612499565b60405161093e989796959493929190613c18565b60405180910390f35b34801561095357600080fd5b50d3801561096057600080fd5b50d2801561096d57600080fd5b50610988600480360361098391908101906135f2565b6126a1565b005b600f6020528060005260406000206000915054906101000a900473ffffffffffffffffffffffffffffffffffffffff1681565b6109c733826127f9565b15156109d257600080fd5b600073ffffffffffffffffffffffffffffffffffffffff168273ffffffffffffffffffffffffffffffffffffffff1614151515610a0e57600080fd5b610a19338383612865565b8173ffffffffffffffffffffffffffffffffffffffff163373ffffffffffffffffffffffffffffffffffffffff167fb4da2aea3fd257ead1af3bb5e5560a95323b82734457f971a8141a7ca028e93c83604051610a769190613d66565b60405180910390a35050565b60006001600d8054905003905090565b610a9a61306e565b6000600e85815481101515610aab57fe5b90600052602060002090600802016101006040519081016040529081600082018054600181600116156101000203166002900480601f016020809104026020016040519081016040528092919081815260200182805460018160011615610100020316600290048015610b5f5780601f10610b3457610100808354040283529160200191610b5f565b820191906000526020600020905b815481529060010190602001808311610b4257829003601f168201915b5050505050815260200160018201548152602001600282015481526020016003820154815260200160048201548152602001600582015481526020016006820154815260200160078201805480602002602001604051908101604052809291908181526020016000905b82821015610c3b57838290600052602060002001805480602002602001604051908101604052809291908181526020018280548015610c2757602002820191906000526020600020905b815481526020019060010190808311610c13575b505050505081526020019060010190610bc9565b5050505081525050915060008260200151111515610c5857600080fd5b600090508215610f5b578160400151341415610f5657600073ffffffffffffffffffffffffffffffffffffffff168473ffffffffffffffffffffffffffffffffffffffff16141515610de7578373ffffffffffffffffffffffffffffffffffffffff166108fc600a34811515610cca57fe5b049081150290604051600060405180830381858888f19350505050158015610cf6573d6000803e3d6000fd5b50601460009054906101000a900473ffffffffffffffffffffffffffffffffffffffff1673ffffffffffffffffffffffffffffffffffffffff166108fc600a34811515610d3f57fe5b049081150290604051600060405180830381858888f19350505050158015610d6b573d6000803e3d6000fd5b50601660009054906101000a900473ffffffffffffffffffffffffffffffffffffffff1673ffffffffffffffffffffffffffffffffffffffff166108fc6002600a34811515610db657fe5b040234039081150290604051600060405180830381858888f19350505050158015610de5573d6000803e3d6000fd5b505b6001600d60a06040519081016040528085600001518152602001856040015181526020018560a0015181526020018560c0015181526020018560e00151815250908060018154018082558091505090600182039060005260206000209060050201600090919290919091506000820151816000019080519060200190610e6e9291906130b4565b506020820151816001015560408201518160020155606082015181600301556080820151816004019080519060200190610ea9929190613134565b5050500390506001600e86815481101515610ec057fe5b90600052602060002090600802016001015403600e86815481101515610ee257fe5b906000526020600020906008020160010181905550610f0360003383612865565b3373ffffffffffffffffffffffffffffffffffffffff167f3af1f8fcc504ff780e5374a01a60d80b13ce7931cea6ebc8a5fdff94491d0bce868686604051610f4d93929190613d81565b60405180910390a25b611307565b6001826040015102d2141561130657600073ffffffffffffffffffffffffffffffffffffffff168473ffffffffffffffffffffffffffffffffffffffff16141515611197578373ffffffffffffffffffffffffffffffffffffffff166108fc600ad2811515610fc657fe5b049081150290d380158015610fda57600080fd5b508067800000000000000011158015610ff257600080fd5b5080620f42401015801561100557600080fd5b5060405160006040518083038185878a8ad094505050505015801561102e573d6000803e3d6000fd5b50601460009054906101000a900473ffffffffffffffffffffffffffffffffffffffff1673ffffffffffffffffffffffffffffffffffffffff166108fc600ad281151561107757fe5b049081150290d38015801561108b57600080fd5b5080678000000000000000111580156110a357600080fd5b5080620f4240101580156110b657600080fd5b5060405160006040518083038185878a8ad09450505050501580156110df573d6000803e3d6000fd5b50601660009054906101000a900473ffffffffffffffffffffffffffffffffffffffff1673ffffffffffffffffffffffffffffffffffffffff166108fc6002600ad281151561112a57fe5b0402d2039081150290d38015801561114157600080fd5b50806780000000000000001115801561115957600080fd5b5080620f42401015801561116c57600080fd5b5060405160006040518083038185878a8ad0945050505050158015611195573d6000803e3d6000fd5b505b6001600d60a06040519081016040528085600001518152602001856040015181526020018560a0015181526020018560c0015181526020018560e0015181525090806001815401808255809150509060018203906000526020600020906005020160009091929091909150600082015181600001908051906020019061121e9291906130b4565b506020820151816001015560408201518160020155606082015181600301556080820151816004019080519060200190611259929190613134565b5050500390506001600e8681548110151561127057fe5b90600052602060002090600802016001015403600e8681548110151561129257fe5b9060005260206000209060080201600101819055506112b360003383612865565b3373ffffffffffffffffffffffffffffffffffffffff167f3af1f8fcc504ff780e5374a01a60d80b13ce7931cea6ebc8a5fdff94491d0bce8686866040516112fd93929190613d81565b60405180910390a25b5b5050505050565b6000601960009054906101000a900473ffffffffffffffffffffffffffffffffffffffff1673ffffffffffffffffffffffffffffffffffffffff1663bc82b93b6040518163ffffffff167c0100000000000000000000000000000000000000000000000000000000028152600401602060405180830381600087803b15801561139657600080fd5b505af11580156113aa573d6000803e3d6000fd5b505050506040513d601f19601f820116820180604052506113ce919081019061361b565b905090565b601760009054906101000a900473ffffffffffffffffffffffffffffffffffffffff1681565b600d8181548110151561140857fe5b9060005260206000209060050201600091509050806000018054600181600116156101000203166002900480601f0160208091040260200160405190810160405280929190818152602001828054600181600116156101000203166002900480156114b45780601f10611489576101008083540402835291602001916114b4565b820191906000526020600020905b81548152906001019060200180831161149757829003601f168201915b5050505050908060010154908060020154908060030154905084565b60106020528060005260406000206000915090505481565b601860009054906101000a900473ffffffffffffffffffffffffffffffffffffffff1681565b601960009054906101000a900473ffffffffffffffffffffffffffffffffffffffff1681565b60006001905090565b601660009054906101000a900473ffffffffffffffffffffffffffffffffffffffff1673ffffffffffffffffffffffffffffffffffffffff163373ffffffffffffffffffffffffffffffffffffffff1614151561159957600080fd5b6000871115156115a857600080fd5b6000861115156115b757600080fd5b83851015156115c557600080fd5b600e610100604051908101604052808a8152602001898152602001888152602001878152602001868152602001858152602001848152602001838152509080600181540180825580915050906001820390600052602060002090600802016000909192909190915060008201518160000190805190602001906116499291906130b4565b506020820151816001015560408201518160020155606082015181600301556080820151816004015560a0820151816005015560c0820151816006015560e08201518160070190805190602001906116a2929190613134565b505050503373ffffffffffffffffffffffffffffffffffffffff167f875a004689fdf2426a2be19dd937953a39516659861ee80f64d1cac5681430d989898989898989896040516116fa989796959493929190613c18565b60405180910390a25050505050505050565b61171633826127f9565b151561172157600080fd5b61172b33826129cd565b601860009054906101000a900473ffffffffffffffffffffffffffffffffffffffff1673ffffffffffffffffffffffffffffffffffffffff1663e1162569336000806040518463ffffffff167c01000000000000000000000000000000000000000000000000000000000281526004016117a793929190613ac9565b600060405180830381600087803b1580156117c157600080fd5b505af11580156117d5573d6000803e3d6000fd5b505050506117e533600083612865565b600d818154811015156117f457fe5b9060005260206000209060050201600080820160006118139190613194565b60018201600090556002820160009055600382016000905560048201600061183b91906131dc565b50503373ffffffffffffffffffffffffffffffffffffffff167f46c93111dd8c7b802311d4e633f37f328d3ab5596290965602e99706395af7d6826040516118839190613d66565b60405180910390a250565b6000600f600083815260200190815260200160002060009054906101000a900473ffffffffffffffffffffffffffffffffffffffff169050600073ffffffffffffffffffffffffffffffffffffffff168173ffffffffffffffffffffffffffffffffffffffff161415151561190257600080fd5b919050565b60048160048110151561191657fe5b016000915090505481565b6000601060008373ffffffffffffffffffffffffffffffffffffffff1673ffffffffffffffffffffffffffffffffffffffff168152602001908152602001600020549050919050565b6000600d80549050905090565b6000600e80549050905090565b601660009054906101000a900473ffffffffffffffffffffffffffffffffffffffff1673ffffffffffffffffffffffffffffffffffffffff163373ffffffffffffffffffffffffffffffffffffffff161415156119e057600080fd5b80601660006101000a81548173ffffffffffffffffffffffffffffffffffffffff021916908373ffffffffffffffffffffffffffffffffffffffff1602179055508073ffffffffffffffffffffffffffffffffffffffff16601660009054906101000a900473ffffffffffffffffffffffffffffffffffffffff1673ffffffffffffffffffffffffffffffffffffffff167fcf9b665e0639e0b81a8db37b60ac7ddf45aeb1b484e11adeb7dff4bf4a3a625860405160405180910390a350565b6060600060606000806000611ab487611921565b94506000851415611af7576000604051908082528060200260200182016040528015611aef5781602001602082028038833980820191505090505b509550611be3565b84604051908082528060200260200182016040528015611b265781602001602082028038833980820191505090505b509350611b31610a82565b925060009150600190505b8281111515611bdf578673ffffffffffffffffffffffffffffffffffffffff16600f600083815260200190815260200160002060009054906101000a900473ffffffffffffffffffffffffffffffffffffffff1673ffffffffffffffffffffffffffffffffffffffff161415611bd257808483815181101515611bbb57fe5b906020019060200201818152505081806001019250505b8080600101915050611b3c565b8395505b5050505050919050565b606060008060006060611bfe6131fd565b600d87815481101515611c0d57fe5b906000526020600020906005020160a06040519081016040529081600082018054600181600116156101000203166002900480601f016020809104026020016040519081016040528092919081815260200182805460018160011615610100020316600290048015611cc05780601f10611c9557610100808354040283529160200191611cc0565b820191906000526020600020905b815481529060010190602001808311611ca357829003601f168201915b5050505050815260200160018201548152602001600282015481526020016003820154815260200160048201805480602002602001604051908101604052809291908181526020016000905b82821015611d7e57838290600052602060002001805480602002602001604051908101604052809291908181526020018280548015611d6a57602002820191906000526020600020905b815481526020019060010190808311611d56575b505050505081526020019060010190611d0c565b5050505081525050905080600001518160200151826040015183606001518460800151849450809050955095509550955095505091939590929450565b600080601660009054906101000a900473ffffffffffffffffffffffffffffffffffffffff1673ffffffffffffffffffffffffffffffffffffffff163373ffffffffffffffffffffffffffffffffffffffff16141515611e1a57600080fd5b600e805490509150600090505b81811015611ec257600e81815481101515611e3e57fe5b906000526020600020906008020160008082016000611e5d9190613194565b600182016000905560028201600090556003820160009055600482016000905560058201600090556006820160009055600782016000611e9d91906131dc565b5050600e805480919060019003611eb4919061322d565b508080600101915050611e27565b5050565b600e81815481101515611ed557fe5b9060005260206000209060080201600091509050806000018054600181600116156101000203166002900480601f016020809104026020016040519081016040528092919081815260200182805460018160011615610100020316600290048015611f815780601f10611f5657610100808354040283529160200191611f81565b820191906000526020600020905b815481529060010190602001808311611f6457829003601f168201915b5050505050908060010154908060020154908060030154908060040154908060050154908060060154905087565b6000601660009054906101000a900473ffffffffffffffffffffffffffffffffffffffff1673ffffffffffffffffffffffffffffffffffffffff163373ffffffffffffffffffffffffffffffffffffffff1614151561200d57600080fd5b600073ffffffffffffffffffffffffffffffffffffffff168273ffffffffffffffffffffffffffffffffffffffff161415151561204957600080fd5b81601260006101000a81548173ffffffffffffffffffffffffffffffffffffffff021916908373ffffffffffffffffffffffffffffffffffffffff160217905550601260009054906101000a900473ffffffffffffffffffffffffffffffffffffffff1690508073ffffffffffffffffffffffffffffffffffffffff16635461c5f96040518163ffffffff167c0100000000000000000000000000000000000000000000000000000000028152600401602060405180830381600087803b15801561211357600080fd5b505af1158015612127573d6000803e3d6000fd5b505050506040513d601f19601f8201168201806040525061214b9190810190613680565b151561215657600080fd5b80601760006101000a81548173ffffffffffffffffffffffffffffffffffffffff021916908373ffffffffffffffffffffffffffffffffffffffff1602179055508173ffffffffffffffffffffffffffffffffffffffff16601660009054906101000a900473ffffffffffffffffffffffffffffffffffffffff1673ffffffffffffffffffffffffffffffffffffffff167f075c423fa08481d6748b1ef2f69989b6b41ab80837686fc8dd5c2492d88d7b9660405160405180910390a35050565b60008160048110151561222657fe5b016000915090505481565b6000601660009054906101000a900473ffffffffffffffffffffffffffffffffffffffff1673ffffffffffffffffffffffffffffffffffffffff163373ffffffffffffffffffffffffffffffffffffffff1614151561228f57600080fd5b600073ffffffffffffffffffffffffffffffffffffffff168273ffffffffffffffffffffffffffffffffffffffff16141515156122cb57600080fd5b81601160006101000a81548173ffffffffffffffffffffffffffffffffffffffff021916908373ffffffffffffffffffffffffffffffffffffffff160217905550601160009054906101000a900473ffffffffffffffffffffffffffffffffffffffff1690508073ffffffffffffffffffffffffffffffffffffffff1663b1e4f01f6040518163ffffffff167c0100000000000000000000000000000000000000000000000000000000028152600401602060405180830381600087803b15801561239557600080fd5b505af11580156123a9573d6000803e3d6000fd5b505050506040513d601f19601f820116820180604052506123cd9190810190613680565b15156123d857600080fd5b80601960006101000a81548173ffffffffffffffffffffffffffffffffffffffff021916908373ffffffffffffffffffffffffffffffffffffffff1602179055508173ffffffffffffffffffffffffffffffffffffffff16601660009054906101000a900473ffffffffffffffffffffffffffffffffffffffff1673ffffffffffffffffffffffffffffffffffffffff167f397cd66e5762b28b138e6e8193ac3a549da9b184f1f187178be7c5b382c316d160405160405180910390a35050565b606060008060008060008060606124ae61306e565b600e8a8154811015156124bd57fe5b90600052602060002090600802016101006040519081016040529081600082018054600181600116156101000203166002900480601f0160208091040260200160405190810160405280929190818152602001828054600181600116156101000203166002900480156125715780601f1061254657610100808354040283529160200191612571565b820191906000526020600020905b81548152906001019060200180831161255457829003601f168201915b5050505050815260200160018201548152602001600282015481526020016003820154815260200160048201548152602001600582015481526020016006820154815260200160078201805480602002602001604051908101604052809291908181526020016000905b8282101561264d5783829060005260206000200180548060200260200160405190810160405280929190818152602001828054801561263957602002820191906000526020600020905b815481526020019060010190808311612625575b5050505050815260200190600101906125db565b50505050815250509050806000015181602001518260400151836060015184608001518560a001518660c001518760e001518797508090509850985098509850985098509850985050919395975091939597565b601660009054906101000a900473ffffffffffffffffffffffffffffffffffffffff1673ffffffffffffffffffffffffffffffffffffffff163373ffffffffffffffffffffffffffffffffffffffff161415156126fd57600080fd5b600073ffffffffffffffffffffffffffffffffffffffff168173ffffffffffffffffffffffffffffffffffffffff161415151561273957600080fd5b80601460006101000a81548173ffffffffffffffffffffffffffffffffffffffff021916908373ffffffffffffffffffffffffffffffffffffffff1602179055508073ffffffffffffffffffffffffffffffffffffffff16601660009054906101000a900473ffffffffffffffffffffffffffffffffffffffff1673ffffffffffffffffffffffffffffffffffffffff167f8353f2ec2d93e5b3f4e1e9f3fa7ce3c8e5ec8bfd6c0fc95f39f6ed23033e7bc660405160405180910390a350565b60008273ffffffffffffffffffffffffffffffffffffffff16600f600084815260200190815260200160002060009054906101000a900473ffffffffffffffffffffffffffffffffffffffff1673ffffffffffffffffffffffffffffffffffffffff1614905092915050565b601060008373ffffffffffffffffffffffffffffffffffffffff1673ffffffffffffffffffffffffffffffffffffffff1681526020019081526020016000206000815480929190600101919050555081600f600083815260200190815260200160002060006101000a81548173ffffffffffffffffffffffffffffffffffffffff021916908373ffffffffffffffffffffffffffffffffffffffff160217905550600073ffffffffffffffffffffffffffffffffffffffff168373ffffffffffffffffffffffffffffffffffffffff1614151561298d57601060008473ffffffffffffffffffffffffffffffffffffffff1673ffffffffffffffffffffffffffffffffffffffff16815260200190815260200160002060008154809291906001900391905055505b7f5fa5f8538fe52864231df4d67901199394269477d8d71a12e1418af8a1c9f18a8383836040516129c093929190613a92565b60405180910390a1505050565b6129d56131fd565b6000806000600d858154811015156129e957fe5b906000526020600020906005020160a06040519081016040529081600082018054600181600116156101000203166002900480601f016020809104026020016040519081016040528092919081815260200182805460018160011615610100020316600290048015612a9c5780601f10612a7157610100808354040283529160200191612a9c565b820191906000526020600020905b815481529060010190602001808311612a7f57829003601f168201915b5050505050815260200160018201548152602001600282015481526020016003820154815260200160048201805480602002602001604051908101604052809291908181526020016000905b82821015612b5a57838290600052602060002001805480602002602001604051908101604052809291908181526020018280548015612b4657602002820191906000526020600020905b815481526020019060010190808311612b32575b505050505081526020019060010190612ae8565b50505050815250509350600092506000915060009050600090505b836080015151811015612c7257612ba781856080015183815181101515612b9857fe5b90602001906020020151612c7a565b80935081945050508215612c6557601760009054906101000a900473ffffffffffffffffffffffffffffffffffffffff1673ffffffffffffffffffffffffffffffffffffffff16637d4cb74e87846040518363ffffffff167c0100000000000000000000000000000000000000000000000000000000028152600401612c2e929190613b00565b600060405180830381600087803b158015612c4857600080fd5b505af1158015612c5c573d6000803e3d6000fd5b50505050600092505b8080600101915050612b75565b505050505050565b6000806000612c8761325f565b612c8f613282565b60008060008060008042448e6040516020018084815260200183815260200182815260200193505050506040516020818303038152906040526040518082805190602001908083835b602083101515612cfd5780518252602082019150602081019050602083039250612cd8565b6001836020036101000a03801982511681845116808217855250505050505090500191505060405180910390206001900498506103e889811515612d3d57fe5b06985060a0604051908101604052806000151515158152602001600015151515815260200160001515151581526020016000151515158152602001600015151515815250975060009550600094506000935060009250600091506000905060086000600581101515612dab57fe5b0154891015612dbd5760009450612e45565b60086001600581101515612dcd57fe5b0154891015612ddf5760019450612e44565b60086002600581101515612def57fe5b0154891015612e015760029450612e43565b60086003600581101515612e1157fe5b0154891015612e235760039450612e42565b60086004600581101515612e3357fe5b0154891015612e4157600494505b5b5b5b5b600095505b8b51861015612ff557601760009054906101000a900473ffffffffffffffffffffffffffffffffffffffff1673ffffffffffffffffffffffffffffffffffffffff1663019d90528d88815181101515612e9f57fe5b906020019060200201516040518263ffffffff167c0100000000000000000000000000000000000000000000000000000000028152600401612ee19190613d66565b600060405180830381600087803b158015612efb57600080fd5b505af1158015612f0f573d6000803e3d6000fd5b505050506040513d6000823e3d601f19601f82011682018060405250612f3891908101906136a9565b909192505080935081945050506000831115612fe85784821415612f79578b86815181101515612f6457fe5b90602001906020020151935060019050612ff5565b600015158883600581101515612f8b57fe5b602002015115151415612fe75760018883600581101515612fa857fe5b6020020190151590811515815250508b86815181101515612fc557fe5b906020019060200201518783600581101515612fdd57fe5b6020020181815250505b5b8580600101965050612e4a565b80151561305857600095505b60058610156130575760011515888760058110151561301c57fe5b60200201511515141561304a57859450868660058110151561303a57fe5b6020020151935060019050613057565b8580600101965050613001565b5b80849a509a505050505050505050509250929050565b6101006040519081016040528060608152602001600081526020016000815260200160008152602001600081526020016000815260200160008152602001606081525090565b828054600181600116156101000203166002900490600052602060002090601f016020900481019282601f106130f557805160ff1916838001178555613123565b82800160010185558215613123579182015b82811115613122578251825591602001919060010190613107565b5b50905061313091906132a5565b5090565b828054828255906000526020600020908101928215613183579160200282015b828111156131825782518290805190602001906131729291906132ca565b5091602001919060010190613154565b5b5090506131909190613317565b5090565b50805460018160011615610100020316600290046000825580601f106131ba57506131d9565b601f0160209004906000526020600020908101906131d891906132a5565b5b50565b50805460008255906000526020600020908101906131fa9190613317565b50565b60a06040519081016040528060608152602001600081526020016000815260200160008152602001606081525090565b81548183558181111561325a576008028160080283600052602060002091820191016132599190613343565b5b505050565b60a060405190810160405280600590602082028038833980820191505090505090565b60a060405190810160405280600590602082028038833980820191505090505090565b6132c791905b808211156132c35760008160009055506001016132ab565b5090565b90565b828054828255906000526020600020908101928215613306579160200282015b828111156133055782518255916020019190600101906132ea565b5b50905061331391906132a5565b5090565b61334091905b8082111561333c576000818161333391906133b2565b5060010161331d565b5090565b90565b6133af91905b808211156133ab57600080820160006133629190613194565b6001820160009055600282016000905560038201600090556004820160009055600582016000905560068201600090556007820160006133a291906131dc565b50600801613349565b5090565b90565b50805460008255906000526020600020908101906133d091906132a5565b50565b60006133df8235613f1c565b905092915050565b60006133f38251613f1c565b905092915050565b600082601f830112151561340e57600080fd5b813561342161341c82613de5565b613db8565b9150818183526020840193506020810190508360005b83811015613467578135860161344d8882613471565b845260208401935060208301925050600181019050613437565b5050505092915050565b600082601f830112151561348457600080fd5b813561349761349282613e0d565b613db8565b915081818352602084019350602081019050838560208402820111156134bc57600080fd5b60005b838110156134ec57816134d288826135ca565b8452602084019350602083019250506001810190506134bf565b5050505092915050565b60006135028235613f3c565b905092915050565b60006135168251613f3c565b905092915050565b600082601f830112151561353157600080fd5b813561354461353f82613e35565b613db8565b9150808252602083016020830185838301111561356057600080fd5b61356b838284613f9a565b50505092915050565b600082601f830112151561358757600080fd5b815161359a61359582613e35565b613db8565b915080825260208301602083018583830111156135b657600080fd5b6135c1838284613fa9565b50505092915050565b60006135d68235613f48565b905092915050565b60006135ea8251613f48565b905092915050565b60006020828403121561360457600080fd5b6000613612848285016133d3565b91505092915050565b60006020828403121561362d57600080fd5b600061363b848285016133e7565b91505092915050565b6000806040838503121561365757600080fd5b6000613665858286016133d3565b9250506020613676858286016135ca565b9150509250929050565b60006020828403121561369257600080fd5b60006136a08482850161350a565b91505092915050565b600080600080608085870312156136bf57600080fd5b600085015167ffffffffffffffff8111156136d957600080fd5b6136e587828801613574565b94505060206136f6878288016135de565b9350506040613707878288016135de565b9250506060613718878288016135de565b91505092959194509250565b600080600080600080600080610100898b03121561374157600080fd5b600089013567ffffffffffffffff81111561375b57600080fd5b6137678b828c0161351e565b98505060206137788b828c016135ca565b97505060406137898b828c016135ca565b965050606061379a8b828c016135ca565b95505060806137ab8b828c016135ca565b94505060a06137bc8b828c016135ca565b93505060c06137cd8b828c016135ca565b92505060e089013567ffffffffffffffff8111156137ea57600080fd5b6137f68b828c016133fb565b9150509295985092959890939650565b60006020828403121561381857600080fd5b6000613826848285016135ca565b91505092915050565b60008060006060848603121561384457600080fd5b6000613852868287016135ca565b9350506020613863868287016133d3565b9250506040613874868287016134f6565b9150509250925092565b61388781613ee6565b82525050565b600061389882613e88565b808452602084019350836020820285016138b185613e61565b60005b848110156138ea5783830388526138cc838351613956565b92506138d782613ebf565b91506020880197506001810190506138b4565b508196508694505050505092915050565b600061390682613e9e565b80845260208401935061391883613e7b565b60005b8281101561394a5761392e868351613a68565b61393782613ed9565b915060208601955060018101905061391b565b50849250505092915050565b600061396182613e93565b80845260208401935061397383613e6e565b60005b828110156139a557613989868351613a68565b61399282613ecc565b9150602086019550600181019050613976565b50849250505092915050565b6139ba81613f06565b82525050565b6139c981613f52565b82525050565b6139d881613f64565b82525050565b6139e781613f76565b82525050565b6139f681613f88565b82525050565b6000613a0782613eb4565b808452613a1b816020860160208601613fa9565b613a2481613fdc565b602085010191505092915050565b6000613a3d82613ea9565b808452613a51816020860160208601613fa9565b613a5a81613fdc565b602085010191505092915050565b613a7181613f12565b82525050565b6000602082019050613a8c600083018461387e565b92915050565b6000606082019050613aa7600083018661387e565b613ab4602083018561387e565b613ac16040830184613a68565b949350505050565b6000606082019050613ade600083018661387e565b613aeb60208301856139ed565b613af860408301846139ed565b949350505050565b6000604082019050613b15600083018561387e565b613b226020830184613a68565b9392505050565b60006020820190508181036000830152613b4381846138fb565b905092915050565b6000602082019050613b6060008301846139b1565b92915050565b6000602082019050613b7b60008301846139c0565b92915050565b6000602082019050613b9660008301846139cf565b92915050565b6000602082019050613bb160008301846139de565b92915050565b600060a0820190508181036000830152613bd181886139fc565b9050613be06020830187613a68565b613bed6040830186613a68565b613bfa6060830185613a68565b8181036080830152613c0c818461388d565b90509695505050505050565b6000610100820190508181036000830152613c33818b6139fc565b9050613c42602083018a613a68565b613c4f6040830189613a68565b613c5c6060830188613a68565b613c696080830187613a68565b613c7660a0830186613a68565b613c8360c0830185613a68565b81810360e0830152613c95818461388d565b90509998505050505050505050565b60006080820190508181036000830152613cbe8187613a32565b9050613ccd6020830186613a68565b613cda6040830185613a68565b613ce76060830184613a68565b95945050505050565b600060e0820190508181036000830152613d0a818a613a32565b9050613d196020830189613a68565b613d266040830188613a68565b613d336060830187613a68565b613d406080830186613a68565b613d4d60a0830185613a68565b613d5a60c0830184613a68565b98975050505050505050565b6000602082019050613d7b6000830184613a68565b92915050565b6000606082019050613d966000830186613a68565b613da3602083018561387e565b613db060408301846139b1565b949350505050565b6000604051905081810181811067ffffffffffffffff82111715613ddb57600080fd5b8060405250919050565b600067ffffffffffffffff821115613dfc57600080fd5b602082029050602081019050919050565b600067ffffffffffffffff821115613e2457600080fd5b602082029050602081019050919050565b600067ffffffffffffffff821115613e4c57600080fd5b601f19601f8301169050602081019050919050565b6000602082019050919050565b6000602082019050919050565b6000602082019050919050565b600081519050919050565b600081519050919050565b600081519050919050565b600081519050919050565b600081519050919050565b6000602082019050919050565b6000602082019050919050565b6000602082019050919050565b600073ffffffffffffffffffffffffffffffffffffffff82169050919050565b60008115159050919050565b6000819050919050565b600073ffffffffffffffffffffffffffffffffffffffff82169050919050565b60008115159050919050565b6000819050919050565b6000613f5d82613ee6565b9050919050565b6000613f6f82613ee6565b9050919050565b6000613f8182613ee6565b9050919050565b6000613f9382613f12565b9050919050565b82818337600083830152505050565b60005b83811015613fc7578082015181840152602081019050613fac565b83811115613fd6576000848401525b50505050565b6000601f19601f83011690509190505600a265627a7a723058209a0fa1dea9d0bb7ea8212b79505108ba89d0e943dd0400d1e71c6a1ee663dd3d6c6578706572696d656e74616cf50037",
  "source": "pragma solidity ^0.4.25;\npragma experimental ABIEncoderV2;\n\nimport \"./PZHeroCore.sol\";\nimport \"./PZItemCore.sol\";\nimport \"./PZEggCore.sol\";\n\ncontract PZChest\n{\n    uint private constant       PZ_ITEM_GEAR = 0;\n    uint private constant       PZ_ITEM_EMOTE = 1;\n\n    uint private constant       PZ_ITEM_COMMON = 0;\n    uint private constant       PZ_ITEM_UNCOMMON = 1;\n    uint private constant       PZ_ITEM_RARE = 2;\n    uint private constant       PZ_ITEM_EPIC = 3;\n    uint private constant       PZ_ITEM_LEGENDARY = 4;\n\n    uint private constant       PZ_ITEM_CHANCE_COMMON = 440;\n    uint private constant       PZ_ITEM_CHANCE_UNCOMMON = 740;\n    uint private constant       PZ_ITEM_CHANCE_RARE = 955;\n    uint private constant       PZ_ITEM_CHANCE_EPIC = 995;\n    uint private constant       PZ_ITEM_CHANCE_LEGENDARY = 1000;\n\n    uint private constant       PZ_ZA_NORMAL_DOWN_LIMIT = 10000;\n    uint private constant       PZ_ZA_NORMAL_UP_LIMIT = 25000;\n    uint private constant       PZ_ZA_RARE_DOWN_LIMIT = 5000;\n    uint private constant       PZ_ZA_RARE_UP_LIMIT = 10000;\n    uint private constant       PZ_ZA_EPIC_DOWN_LIMIT = 5000;\n    uint private constant       PZ_ZA_EPIC_UP_LIMIT = 10000;\n    uint private constant       PZ_ZA_LEGENDARY_DOWN_LIMIT = 7000;\n    uint private constant       PZ_ZA_LEGENDARY_UP_LIMIT = 20000;\n    uint private constant       PZ_TOKEN_TRX_PROPOTION = 1;\n    uint private constant       PZ_TOKEN_ID = 1000382;\n\n    struct Chest {\n        string      name;\n        uint        price;\n        uint        zaCoin;\n        uint        chance;\n        uint[][]      slot;\n    }\n\n    struct ChestGroup {\n        string      name;\n        uint        quantity;\n        uint        price;\n        uint        startDate;\n        uint        endDate;\n        uint        zaCoin;\n        uint        chance;\n        uint[][]      slot;\n    }\n\n    event CreateChestGroup(\n            address indexed _admin,\n            string _name,\n            uint _quantity,\n            uint _price,\n            uint _startDate,\n            uint _endDate,\n            uint _zaCoin,\n            uint _chance,\n            uint[][] _slot);\n\n    event SetHeroCoreAddress(address indexed _admin, address indexed _newHeroCore);\n    event SetItemCoreAddress(address indexed _admin, address indexed _newItemCore);\n    event SetPoolAddress(address indexed _admin, address indexed _newPool);\n    event ChangeAdmin(address indexed _admin, address indexed _newAdmin);\n    event OpenChest(address indexed _buyer, uint _chestId);\n    event BuyChest(address indexed _buyer, uint _chestGroupId, address _referrer, bool bTrxPurchase);\n    event BurnChest(uint burnQuantity, uint id);\n    event CreateChest(uint quantity, uint supply);\n    event GiftChest(address indexed sender, address indexed _to, uint _chestId);\n\n    uint[4] public                          pzZAUpperLimit;\n    uint[4] public                          pzZADownLimit;\n\n    uint[5] private                         itemChance;\n    Chest[] public                          chests;\n    ChestGroup[] public                     chestGroups;\n    mapping(uint => address) public         chestIndexToOwner;\n    mapping(address => uint) public         ownershipChestCount;\n\n    address private                         addrHeroCore;\n    address private                         addrItemCore;\n    address private                         addrEggCore;\n    address private                         addrPool;\n    address private                         addrEVO;\n    address private                         addrAdmin;\n    // address private                         addrToken;\n\n    PZItemCore public                       contractItemCore;\n    PZEggCore public                        contractEggCore;\n    PZHeroCore public                       contractHeroCore;\n    // PZToken public                          contractToken;\n//    PZPool public                           contractPool;\n\n    event ChestTransfer(address from, address to, uint256 chestId);\n    event ChestCreated(uint itmeType, uint quantity);\n\n    /**\n    * Constructor\n    *\n    * @param _heroCore                      address of hero contract\n    * @param _itemCore                      address of item contract\n    * @param _eggCore                       address of egg contract\n    * @param _pool                          address of pool contract\n    *\n    */\n\n    constructor(address _heroCore, address _itemCore, address _eggCore, address _pool) public\n    {\n        require(_heroCore != address(0));\n        require(_itemCore != address(0));\n        require(_eggCore != address(0));\n        require(_pool != address(0));\n\n        addrAdmin = msg.sender;\n        addrHeroCore = _heroCore;\n        addrItemCore = _itemCore;\n        addrEggCore = _eggCore;\n        addrPool = _pool;\n\n        contractItemCore = PZItemCore(addrItemCore);\n        contractHeroCore = PZHeroCore(addrHeroCore);\n        contractEggCore = PZEggCore(addrEggCore);\n        // contractToken = PZToken(addrToken);\n\n        itemChance[PZ_ITEM_COMMON] = PZ_ITEM_CHANCE_COMMON;\n        itemChance[PZ_ITEM_UNCOMMON] = PZ_ITEM_CHANCE_UNCOMMON;\n        itemChance[PZ_ITEM_RARE] = PZ_ITEM_CHANCE_RARE;\n        itemChance[PZ_ITEM_EPIC] = PZ_ITEM_CHANCE_EPIC;\n        itemChance[PZ_ITEM_LEGENDARY] = PZ_ITEM_CHANCE_LEGENDARY;\n\n        pzZAUpperLimit[PZ_ITEM_COMMON] = PZ_ZA_NORMAL_UP_LIMIT;\n        pzZAUpperLimit[PZ_ITEM_UNCOMMON] = PZ_ZA_RARE_UP_LIMIT;\n        pzZAUpperLimit[PZ_ITEM_RARE] = PZ_ZA_EPIC_UP_LIMIT;\n        pzZAUpperLimit[PZ_ITEM_EPIC] = PZ_ZA_LEGENDARY_UP_LIMIT;\n\n        pzZADownLimit[PZ_ITEM_COMMON] = PZ_ZA_NORMAL_DOWN_LIMIT;\n        pzZADownLimit[PZ_ITEM_UNCOMMON] = PZ_ZA_RARE_DOWN_LIMIT;\n        pzZADownLimit[PZ_ITEM_RARE] = PZ_ZA_EPIC_DOWN_LIMIT;\n        pzZADownLimit[PZ_ITEM_EPIC] = PZ_ZA_LEGENDARY_DOWN_LIMIT;\n//        contractPool = PZPool(addrPool);\n    }\n\n    modifier onlyAdmin()\n    {\n        require(msg.sender == addrAdmin);\n        _;\n    }\n\n    /**\n    * Set the Address of Hero contract\n    *\n    * @param _heroCore                   new address of hero contract\n    *\n    */\n    function setHeroCoreAddress(address _heroCore) public onlyAdmin\n    {\n        require(_heroCore != address(0x0));\n\n        addrHeroCore = _heroCore;\n        PZHeroCore candidateContract = PZHeroCore(addrHeroCore);\n\n        require(candidateContract.isHeroContract());\n        contractHeroCore = candidateContract;\n        emit SetHeroCoreAddress(addrAdmin, _heroCore);\n    }\n\n    /**\n    * Set the Address of Item contract\n    *\n    * @param _itemCore                   new address of item contract\n    *\n    */\n    function setItemCoreAddress(address _itemCore) public onlyAdmin\n    {\n        require(_itemCore != address(0x0));\n\n        addrItemCore = _itemCore;\n\n        PZItemCore candidateContract = PZItemCore(addrItemCore);\n        require(candidateContract.isItemContract());\n\n        contractItemCore = candidateContract;\n        emit SetItemCoreAddress(addrAdmin, _itemCore);\n    }\n\n    /**\n    * Set the Address of Pool\n    *\n    * @param _pool                   new address of pool\n    *\n    */\n    function setPoolAddress(address _pool) public onlyAdmin\n    {\n        require(_pool != address(0x0));\n\n        addrPool = _pool;\n        emit SetPoolAddress(addrAdmin, _pool);\n    }\n\n    /**\n    * Set the Address of Admin\n    *\n    * @param _addrAdmin                   new address of Admin\n    *\n    */\n    function changeAdmin(address _addrAdmin) public onlyAdmin\n    {\n        addrAdmin = _addrAdmin;\n        emit ChangeAdmin(addrAdmin, _addrAdmin);\n    }\n\n    /**\n    * Create Chest Group that is the Meta Information for creating Chest NFT\n    *\n    * @param _name                          name of the chest\n    * @param _quantity                      quantity of the chest\n    * @param _price                         price of the chest\n    * @param _startDate                     start Date of Sale for the chest\n    * @param _endDate                       end Date of Sale for the chest\n    * @param _zaCoin                        zaCoin amount //not sure\n    * @param _chance                        chance  //not sure\n    * @param _slot                          item slots of the chest\n    *\n    */\n    function createChestGroup(\n            string _name,\n            uint _quantity,\n            uint _price,\n            uint _startDate,\n            uint _endDate,\n            uint _zaCoin,\n            uint _chance,\n            uint[][] _slot)\n        public\n        onlyAdmin\n    {\n        require(_quantity > 0);\n        require(_price > 0);\n        require(_startDate < _endDate);\n\n        chestGroups.push(ChestGroup(_name, _quantity, _price, _startDate, _endDate, _zaCoin, _chance, _slot));\n        emit CreateChestGroup(msg.sender, _name, _quantity, _price, _startDate, _endDate, _zaCoin, _chance, _slot);\n    }\n\n    function _generateRandomZA(uint _rarity) private view returns (uint)\n    {\n        uint rand = uint(keccak256(abi.encodePacked(block.timestamp)));\n        uint diff = pzZAUpperLimit[_rarity] - pzZADownLimit[_rarity];\n        uint result = rand % diff + pzZADownLimit[_rarity];\n        return result;\n    }\n\n    /**\n    * Get ID of item group for the item slot of the chest to open\n    *\n    * @param num                                num for random generation\n    * @param itemSlot                           items arry for the slot\n    *\n    * @return bFindItem                         flag if the available item is found\n    * @return itemGroupId                       Id of Itemgroup\n    *\n    */\n    function _getItemGroupIdFromSlot(uint num, uint[] itemSlot)\n        private\n        view\n        returns(bool, uint256)\n    {\n        uint rand = uint(keccak256(abi.encodePacked(block.timestamp, block.difficulty, num)));\n        rand = rand % 1000;\n        bool[5] memory rarityFlag = [false, false, false, false, false];\n        uint[5] memory rarityItemGroupId;\n\n        uint index = 0;\n\n        uint itemRarity = 0;\n        uint itemGroupId = 0;\n\n        uint _slotQuantity = 0;\n        uint _slotRarity = 0;\n        bool bFindItem = false;\n        // uint\n\n        if (rand < itemChance[PZ_ITEM_COMMON]) {\n            itemRarity = PZ_ITEM_COMMON;\n        } else if (rand < itemChance[PZ_ITEM_UNCOMMON]) {\n            itemRarity = PZ_ITEM_UNCOMMON;\n        } else if (rand < itemChance[PZ_ITEM_RARE]) {\n            itemRarity = PZ_ITEM_RARE;\n        } else if (rand < itemChance[PZ_ITEM_EPIC]) {\n            itemRarity = PZ_ITEM_EPIC;\n        } else if (rand < itemChance[PZ_ITEM_LEGENDARY]) {\n            itemRarity = PZ_ITEM_LEGENDARY;\n        }\n\n        for(index = 0; index < itemSlot.length; index ++) {\n            (,_slotQuantity, _slotRarity,) = contractItemCore.getItemGroup(itemSlot[index]);\n            if (_slotQuantity > 0) {\n                if (_slotRarity == itemRarity) {\n                    itemGroupId = itemSlot[index];\n                    bFindItem = true;\n                    break;\n                } else {\n                    if (rarityFlag[_slotRarity] == false) {\n                        rarityFlag[_slotRarity] = true;\n                        rarityItemGroupId[_slotRarity] = itemSlot[index];\n                    }\n                }\n            }\n        }\n\n        if( !bFindItem ) {\n            for (index = 0; index < 5; index ++) {\n                if (rarityFlag[index] == true) {\n                    itemRarity = index;\n                    itemGroupId = rarityItemGroupId[index];\n                    bFindItem = true;\n                    break;\n                }\n            }\n        }\n\n        return (bFindItem, itemGroupId);\n    }\n\n    /**\n    * Open item Slots to create Item NFT for buy chest\n    *\n    * @param buyer                          address of Buyer\n    * @param _chestId                       chest Id to buy\n    *\n    */\n    function _openItemSlots(address buyer, uint _chestId) internal\n    {\n        Chest memory chest = chests[_chestId];\n\n        bool bFindItemGroupId = false;\n        uint itemGroupId = 0;\n        uint index = 0;\n        // uint[] memory itemSlot = chest.slot;\n        for (index = 0; index < chest.slot.length; index ++) {\n            (bFindItemGroupId, itemGroupId) = _getItemGroupIdFromSlot(index, chest.slot[index]);\n            if (bFindItemGroupId) {\n                contractItemCore.createItemToBuyer(buyer, itemGroupId);\n                bFindItemGroupId = false;\n            }\n        }\n    }\n\n    /**\n    * Gift Chest to other users\n    *\n    * @param _to                            address of receiver\n    * @param _chestId                       chest Id to gift\n    *\n    */\n    function giftChest(address _to, uint _chestId) public\n    {\n        require(_owns(msg.sender, _chestId));\n        require(_to != address(0x0));\n        _transfer(msg.sender, _to, _chestId);\n        emit GiftChest(msg.sender, _to, _chestId);\n    }\n    \n    /**\n    * Open Chest\n    *\n    * @param _chestId                       chest Id to Open\n    *\n    */\n    function openChest(uint _chestId) public\n    {\n        require(_owns(msg.sender, _chestId));\n\n        //Open Item Slot to create Item and send to Buyer\n        _openItemSlots(msg.sender, _chestId);\n\n        // chests[_chestId].zaCoin = _generateRandomZA();\n\n        //Breed Egg\n        contractEggCore.createEggToOwner(msg.sender, 0, 0);\n\n        //Implementation\n        _transfer(msg.sender, address(0x0), _chestId);\n        delete chests[_chestId];\n\n        emit OpenChest(msg.sender, _chestId);\n    }\n\n    /**\n    * Burn chests\n    *\n    *\n    */\n    function burnChests() public onlyAdmin\n    {\n        uint supply = chestGroups.length;\n\n        for (uint index = 0; index < supply; index ++) {\n            delete chestGroups[index];\n            chestGroups.length--;\n        }\n        // emit BurnChest();\n    }\n\n    /**\n    * Buy Chest\n    *\n    * @param _chestGroupId                          chest Group Id to buy\n    * @param _referrer                              address of referrer\n    * @param bTrxPurchase                           flag whether the purchase is by TRX or TRC10 token\n    *\n    */\n    function buyChest(uint _chestGroupId, address _referrer, bool bTrxPurchase) public payable\n    {\n        // require((block.number >= chests[_chestId].startDate) && (block.number <= chests[_chestId].endDate));\n\n        //Implementation\n        ChestGroup memory _chestGroup = chestGroups[_chestGroupId];\n        require(_chestGroup.quantity > 0);\n        uint256 newChestId = 0;\n\n        if (bTrxPurchase) {\n            if (msg.value == _chestGroup.price) {\n                if (_referrer != address(0x0)) {\n                    _referrer.transfer(msg.value / 10);\n                    addrPool.transfer(msg.value / 10);\n                    addrAdmin.transfer(msg.value - msg.value / 10 * 2);\n                    // addrAdmin.transfer(msg.value);\n                }\n                newChestId = chests.push(Chest(_chestGroup.name, _chestGroup.price, _chestGroup.zaCoin, _chestGroup.chance, _chestGroup.slot)) - 1;\n                chestGroups[_chestGroupId].quantity = chestGroups[_chestGroupId].quantity - 1;\n                _transfer(0, msg.sender, newChestId);\n                emit BuyChest(msg.sender, _chestGroupId, _referrer, bTrxPurchase);\n            }\n        } else {\n            // uint256 _tokenBalance = contractToken.getTokenBalance(msg.sender, PZ_TOKEN_ID);\n            // uint256 _valueInToken = _chestGroup.price * PZ_TOKEN_TRX_PROPOTION;\n            if (msg.tokenvalue == _chestGroup.price * PZ_TOKEN_TRX_PROPOTION) {\n                if (_referrer != address(0x0)) {\n                    _referrer.transferToken(msg.tokenvalue / 10, msg.tokenid);\n                    addrPool.transferToken(msg.tokenvalue / 10, msg.tokenid);\n                    addrAdmin.transferToken(msg.tokenvalue - msg.tokenvalue / 10 * 2, msg.tokenid);\n\n                    // addrAdmin.transferToken(msg.tokenvalue, msg.tokenid);\n                    // contractToken.transferToken(_referrer, _valueInToken / 10, PZ_TOKEN_ID);\n                    // contractToken.transferToken(addrPool, _valueInToken / 10, PZ_TOKEN_ID);\n                    // contractToken.transferToken(addrAdmin, _valueInToken - _valueInToken / 10 * 2, PZ_TOKEN_ID);\n                }\n                newChestId = chests.push(Chest(_chestGroup.name, _chestGroup.price, _chestGroup.zaCoin, _chestGroup.chance, _chestGroup.slot)) - 1;\n                chestGroups[_chestGroupId].quantity = chestGroups[_chestGroupId].quantity - 1;\n                _transfer(0, msg.sender, newChestId);\n                emit BuyChest(msg.sender, _chestGroupId, _referrer, bTrxPurchase);\n            }\n        }\n    }\n\n    /**\n    * Get quantity of Chest NFT\n    *\n    *\n    */\n    function getChestsQuantity() external view returns(uint)\n    {\n        return chests.length;\n    }\n\n    /**\n    * Get Chest NFT\n    *\n    * @return name                      chest name\n    * @return price                     chest price\n    * @return zaCoin                    chest zaCoin\n    * @return chance                    chest chance\n    * @return slot                      chest slot\n    *\n    */\n    function getChestById(uint _id) external view returns(string name, uint price,uint zaCoin, uint chance, uint[][] slot)\n    {\n        Chest memory chest = chests[_id];\n        return (chest.name, chest.price, chest.zaCoin, chest.chance, chest.slot);\n    }\n\n    /**\n    * Get quantity of chest group\n    *\n    *\n    */\n    function getChestGroupSupply() external view returns(uint256)\n    {\n        return chestGroups.length;\n    }\n\n    /**\n    * Get Chest Group Info\n    *\n    * @return name                      chest name\n    * @return quantity                  chest quantity\n    * @return startDate                 start Date of chest sale\n    * @return endDate                   end Date of chest sale\n    * @return price                     chest price\n    * @return zaCoin                    chest zaCoin\n    * @return chance                    chest chance\n    * @return slot                      chest slot\n    *\n    */\n    function getChestGroupById(uint _chestGroupId)\n        external\n        view\n        returns(string name, uint quantity, uint price, uint startDate, uint endDate, uint zaCoin, uint chance, uint[][] slot)\n    {\n        ChestGroup memory _chestGroup = chestGroups[_chestGroupId];\n        return(_chestGroup.name,\n                _chestGroup.quantity,\n                _chestGroup.price, _chestGroup.startDate,\n                _chestGroup.endDate, _chestGroup.zaCoin, _chestGroup.chance, _chestGroup.slot);\n    }\n\n    /**\n    * Transfer Chest NFT\n    *\n    * @param _from                              address of sender\n    * @param _to                                address of receiver\n    * @param _chestId                           chest Id to transfer\n    *\n    */\n    function _transfer(address _from, address _to, uint256 _chestId) internal\n    {\n        ownershipChestCount[_to]++;\n        chestIndexToOwner[_chestId] = _to;\n        if (_from != address(0)) {\n            ownershipChestCount[_from]--;\n            // delete itemIndexToApproved[_chestId];\n        }\n\n        emit ChestTransfer(_from, _to, _chestId);\n    }\n\n    /**\n    * Check if the claimer owns item\n    *\n    * @param _claimant                  address of claimer\n    * @param _itemId                    item id to claim\n    *\n    */\n    function _owns(address _claimant, uint256 _itemId) internal view returns (bool) {\n        return chestIndexToOwner[_itemId] == _claimant;\n    }\n\n    /**\n    * Get Owner address of Chest Id\n    *\n    * @param _chestId                   Chest Id to Check\n    *\n    * @return owner                     address of owner\n    *\n    */\n    function ownerOf(uint256 _chestId)\n        external\n        view\n        returns (address owner)\n    {\n        owner = chestIndexToOwner[_chestId];\n\n        require(owner != address(0));\n    }\n\n    /**\n    * Get count of chest NFT belongs to owner\n    *\n    * @param _owner                     address of owner\n    *\n    * @return count                     count of chest NFT\n    *\n    */\n    function balanceOf(address _owner) public view returns (uint256 count) {\n        return ownershipChestCount[_owner];\n    }\n\n    /**\n    * Total count of chest NFT\n    *\n    */\n    function totalSupply() public view returns (uint) {\n        return chests.length - 1;\n    }\n\n    /**\n    * Get chest array of given address\n    *\n    * @return ownerChests                   chests array\n    *\n    */\n    function chestsOfOwner(address _owner) external view returns(uint256[] ownerChests) {\n        uint256 chestCount = balanceOf(_owner);\n\n        if (chestCount == 0) {\n            // Return an empty array\n            return new uint256[](0);\n        } else {\n            uint256[] memory result = new uint256[](chestCount);\n            uint256 totalChests = totalSupply();\n            uint256 resultIndex = 0;\n\n            uint256 chestId;\n\n            for (chestId = 1; chestId <= totalChests; chestId++) {\n                if (chestIndexToOwner[chestId] == _owner) {\n                    result[resultIndex] = chestId;\n                    resultIndex++;\n                }\n            }\n\n            return result;\n        }\n    }\n\n    /**\n    * Check function of Chest contract\n    *\n    */\n    function chestTest() external view returns (address){\n        return contractHeroCore.heroTest();\n    }\n\n    /**\n    * Check function as if this is the Chest contract\n    *\n    */\n    function isChestContract() external pure returns (bool) {\n        return true;\n    }\n}\n",
  "sourcePath": "/Volumes/Backup/workspace/Dave(Tron_NFT)/PizzaProject/contracts/PZChest.sol",
  "compiler": {
    "name": "solc",
    "version": "0.4.25+commit.69a1e720.Emscripten.clang"
  },
  "schemaVersion": "2.0.1",
  "updatedAt": "2019-07-03T12:47:39.520Z"
}