{
  "contractName": "PZChest",
  "abi": [
    {
      "constant": true,
      "inputs": [
        {
          "name": "",
          "type": "uint256"
        }
      ],
      "name": "chestIndexToOwner",
      "outputs": [
        {
          "name": "",
          "type": "address"
        }
      ],
      "payable": false,
      "stateMutability": "view",
      "type": "function"
    },
    {
      "constant": true,
      "inputs": [],
      "name": "contractItemCore",
      "outputs": [
        {
          "name": "",
          "type": "address"
        }
      ],
      "payable": false,
      "stateMutability": "view",
      "type": "function"
    },
    {
      "constant": true,
      "inputs": [
        {
          "name": "",
          "type": "uint256"
        }
      ],
      "name": "chests",
      "outputs": [
        {
          "name": "date",
          "type": "uint256"
        },
        {
          "name": "name",
          "type": "string"
        },
        {
          "name": "price",
          "type": "uint256"
        },
        {
          "name": "tokenId",
          "type": "uint256"
        },
        {
          "name": "tokenPrice",
          "type": "uint256"
        },
        {
          "name": "zaCoin",
          "type": "uint256"
        },
        {
          "name": "chance",
          "type": "uint256"
        },
        {
          "name": "eggFlag",
          "type": "bool"
        }
      ],
      "payable": false,
      "stateMutability": "view",
      "type": "function"
    },
    {
      "constant": true,
      "inputs": [
        {
          "name": "",
          "type": "address"
        }
      ],
      "name": "ownershipChestCount",
      "outputs": [
        {
          "name": "",
          "type": "uint256"
        }
      ],
      "payable": false,
      "stateMutability": "view",
      "type": "function"
    },
    {
      "constant": true,
      "inputs": [],
      "name": "contractEggCore",
      "outputs": [
        {
          "name": "",
          "type": "address"
        }
      ],
      "payable": false,
      "stateMutability": "view",
      "type": "function"
    },
    {
      "constant": true,
      "inputs": [],
      "name": "contractHeroCore",
      "outputs": [
        {
          "name": "",
          "type": "address"
        }
      ],
      "payable": false,
      "stateMutability": "view",
      "type": "function"
    },
    {
      "constant": true,
      "inputs": [
        {
          "name": "",
          "type": "uint256"
        }
      ],
      "name": "pzZADownLimit",
      "outputs": [
        {
          "name": "",
          "type": "uint256"
        }
      ],
      "payable": false,
      "stateMutability": "view",
      "type": "function"
    },
    {
      "constant": true,
      "inputs": [
        {
          "name": "",
          "type": "uint256"
        }
      ],
      "name": "chestGroups",
      "outputs": [
        {
          "name": "name",
          "type": "string"
        },
        {
          "name": "quantity",
          "type": "uint256"
        },
        {
          "name": "totalAmount",
          "type": "uint256"
        },
        {
          "name": "price",
          "type": "uint256"
        },
        {
          "name": "tokenId",
          "type": "uint256"
        },
        {
          "name": "tokenPrice",
          "type": "uint256"
        },
        {
          "name": "startDate",
          "type": "uint256"
        },
        {
          "name": "endDate",
          "type": "uint256"
        },
        {
          "name": "zaCoin",
          "type": "uint256"
        },
        {
          "name": "chance",
          "type": "uint256"
        },
        {
          "name": "eggFlag",
          "type": "bool"
        }
      ],
      "payable": false,
      "stateMutability": "view",
      "type": "function"
    },
    {
      "constant": true,
      "inputs": [
        {
          "name": "",
          "type": "uint256"
        }
      ],
      "name": "pzZAUpperLimit",
      "outputs": [
        {
          "name": "",
          "type": "uint256"
        }
      ],
      "payable": false,
      "stateMutability": "view",
      "type": "function"
    },
    {
      "inputs": [
        {
          "name": "_heroCore",
          "type": "address"
        },
        {
          "name": "_itemCore",
          "type": "address"
        },
        {
          "name": "_eggCore",
          "type": "address"
        },
        {
          "name": "_pool",
          "type": "address"
        }
      ],
      "payable": false,
      "stateMutability": "nonpayable",
      "type": "constructor"
    },
    {
      "anonymous": false,
      "inputs": [
        {
          "indexed": true,
          "name": "_admin",
          "type": "address"
        },
        {
          "indexed": false,
          "name": "_name",
          "type": "string"
        },
        {
          "indexed": false,
          "name": "_quantity",
          "type": "uint256"
        },
        {
          "indexed": false,
          "name": "_totalAmount",
          "type": "uint256"
        },
        {
          "indexed": false,
          "name": "_price",
          "type": "uint256"
        },
        {
          "indexed": false,
          "name": "_tokenId",
          "type": "uint256"
        },
        {
          "indexed": false,
          "name": "_tokenPrice",
          "type": "uint256"
        },
        {
          "indexed": false,
          "name": "_startDate",
          "type": "uint256"
        },
        {
          "indexed": false,
          "name": "_endDate",
          "type": "uint256"
        },
        {
          "indexed": false,
          "name": "_zaCoin",
          "type": "uint256"
        },
        {
          "indexed": false,
          "name": "_chance",
          "type": "uint256"
        },
        {
          "indexed": false,
          "name": "_slot",
          "type": "uint256[][]"
        },
        {
          "indexed": false,
          "name": "_eggFlag",
          "type": "bool"
        }
      ],
      "name": "CreateChestGroup",
      "type": "event"
    },
    {
      "anonymous": false,
      "inputs": [
        {
          "indexed": true,
          "name": "_admin",
          "type": "address"
        },
        {
          "indexed": true,
          "name": "_newHeroCore",
          "type": "address"
        }
      ],
      "name": "SetHeroCoreAddress",
      "type": "event"
    },
    {
      "anonymous": false,
      "inputs": [
        {
          "indexed": true,
          "name": "_admin",
          "type": "address"
        },
        {
          "indexed": true,
          "name": "_newItemCore",
          "type": "address"
        }
      ],
      "name": "SetItemCoreAddress",
      "type": "event"
    },
    {
      "anonymous": false,
      "inputs": [
        {
          "indexed": true,
          "name": "_admin",
          "type": "address"
        },
        {
          "indexed": true,
          "name": "_newPool",
          "type": "address"
        }
      ],
      "name": "SetPoolAddress",
      "type": "event"
    },
    {
      "anonymous": false,
      "inputs": [
        {
          "indexed": true,
          "name": "_admin",
          "type": "address"
        },
        {
          "indexed": true,
          "name": "_newAdmin",
          "type": "address"
        }
      ],
      "name": "ChangeAdmin",
      "type": "event"
    },
    {
      "anonymous": false,
      "inputs": [
        {
          "indexed": true,
          "name": "_buyer",
          "type": "address"
        },
        {
          "indexed": false,
          "name": "_chestId",
          "type": "uint256"
        }
      ],
      "name": "OpenChest",
      "type": "event"
    },
    {
      "anonymous": false,
      "inputs": [
        {
          "indexed": true,
          "name": "_buyer",
          "type": "address"
        },
        {
          "indexed": false,
          "name": "_chestGroupId",
          "type": "uint256"
        },
        {
          "indexed": false,
          "name": "_referrer",
          "type": "address"
        },
        {
          "indexed": false,
          "name": "bTrxPurchase",
          "type": "bool"
        }
      ],
      "name": "BuyChest",
      "type": "event"
    },
    {
      "anonymous": false,
      "inputs": [
        {
          "indexed": false,
          "name": "burnQuantity",
          "type": "uint256"
        },
        {
          "indexed": false,
          "name": "id",
          "type": "uint256"
        }
      ],
      "name": "BurnChest",
      "type": "event"
    },
    {
      "anonymous": false,
      "inputs": [
        {
          "indexed": false,
          "name": "quantity",
          "type": "uint256"
        },
        {
          "indexed": false,
          "name": "supply",
          "type": "uint256"
        }
      ],
      "name": "CreateChest",
      "type": "event"
    },
    {
      "anonymous": false,
      "inputs": [
        {
          "indexed": true,
          "name": "sender",
          "type": "address"
        },
        {
          "indexed": true,
          "name": "_to",
          "type": "address"
        },
        {
          "indexed": false,
          "name": "_chestId",
          "type": "uint256"
        }
      ],
      "name": "GiftChest",
      "type": "event"
    },
    {
      "anonymous": false,
      "inputs": [
        {
          "indexed": false,
          "name": "from",
          "type": "address"
        },
        {
          "indexed": false,
          "name": "to",
          "type": "address"
        },
        {
          "indexed": false,
          "name": "chestId",
          "type": "uint256"
        }
      ],
      "name": "ChestTransfer",
      "type": "event"
    },
    {
      "anonymous": false,
      "inputs": [
        {
          "indexed": false,
          "name": "itmeType",
          "type": "uint256"
        },
        {
          "indexed": false,
          "name": "quantity",
          "type": "uint256"
        }
      ],
      "name": "ChestCreated",
      "type": "event"
    },
    {
      "constant": false,
      "inputs": [
        {
          "name": "_heroCore",
          "type": "address"
        }
      ],
      "name": "setHeroCoreAddress",
      "outputs": [],
      "payable": false,
      "stateMutability": "nonpayable",
      "type": "function"
    },
    {
      "constant": false,
      "inputs": [
        {
          "name": "_itemCore",
          "type": "address"
        }
      ],
      "name": "setItemCoreAddress",
      "outputs": [],
      "payable": false,
      "stateMutability": "nonpayable",
      "type": "function"
    },
    {
      "constant": false,
      "inputs": [
        {
          "name": "_pool",
          "type": "address"
        }
      ],
      "name": "setPoolAddress",
      "outputs": [],
      "payable": false,
      "stateMutability": "nonpayable",
      "type": "function"
    },
    {
      "constant": false,
      "inputs": [
        {
          "name": "_addrAdmin",
          "type": "address"
        }
      ],
      "name": "changeAdmin",
      "outputs": [],
      "payable": false,
      "stateMutability": "nonpayable",
      "type": "function"
    },
    {
      "constant": false,
      "inputs": [
        {
          "name": "_name",
          "type": "string"
        },
        {
          "name": "_quantity",
          "type": "uint256"
        },
        {
          "name": "_price",
          "type": "uint256"
        },
        {
          "name": "_tokenId",
          "type": "uint256"
        },
        {
          "name": "_tokenPrice",
          "type": "uint256"
        },
        {
          "name": "_startDate",
          "type": "uint256"
        },
        {
          "name": "_endDate",
          "type": "uint256"
        },
        {
          "name": "_zaCoin",
          "type": "uint256"
        },
        {
          "name": "_chance",
          "type": "uint256"
        },
        {
          "name": "_slot",
          "type": "uint256[][]"
        },
        {
          "name": "_eggFlag",
          "type": "bool"
        }
      ],
      "name": "createChestGroup",
      "outputs": [],
      "payable": false,
      "stateMutability": "nonpayable",
      "type": "function"
    },
    {
      "constant": false,
      "inputs": [
        {
          "name": "_to",
          "type": "address"
        },
        {
          "name": "_chestId",
          "type": "uint256"
        }
      ],
      "name": "giftChest",
      "outputs": [],
      "payable": false,
      "stateMutability": "nonpayable",
      "type": "function"
    },
    {
      "constant": false,
      "inputs": [
        {
          "name": "_chestId",
          "type": "uint256"
        }
      ],
      "name": "openChest",
      "outputs": [],
      "payable": false,
      "stateMutability": "nonpayable",
      "type": "function"
    },
    {
      "constant": false,
      "inputs": [],
      "name": "burnChests",
      "outputs": [],
      "payable": false,
      "stateMutability": "nonpayable",
      "type": "function"
    },
    {
      "constant": false,
      "inputs": [
        {
          "name": "_chestGroupId",
          "type": "uint256"
        },
        {
          "name": "_referrer",
          "type": "address"
        },
        {
          "name": "chestAmount",
          "type": "uint256"
        },
        {
          "name": "bTrxPurchase",
          "type": "bool"
        }
      ],
      "name": "buyChest",
      "outputs": [],
      "payable": true,
      "stateMutability": "payable",
      "type": "function"
    },
    {
      "constant": true,
      "inputs": [],
      "name": "getChestsQuantity",
      "outputs": [
        {
          "name": "",
          "type": "uint256"
        }
      ],
      "payable": false,
      "stateMutability": "view",
      "type": "function"
    },
    {
      "constant": true,
      "inputs": [
        {
          "name": "_id",
          "type": "uint256"
        }
      ],
      "name": "getChestById",
      "outputs": [
        {
          "name": "date",
          "type": "uint256"
        },
        {
          "name": "name",
          "type": "string"
        },
        {
          "name": "price",
          "type": "uint256"
        },
        {
          "name": "tokenId",
          "type": "uint256"
        },
        {
          "name": "tokenPrice",
          "type": "uint256"
        },
        {
          "name": "zaCoin",
          "type": "uint256"
        },
        {
          "name": "chance",
          "type": "uint256"
        },
        {
          "name": "slot",
          "type": "uint256[][]"
        },
        {
          "name": "eggFlag",
          "type": "bool"
        }
      ],
      "payable": false,
      "stateMutability": "view",
      "type": "function"
    },
    {
      "constant": true,
      "inputs": [],
      "name": "getChestGroupSupply",
      "outputs": [
        {
          "name": "",
          "type": "uint256"
        }
      ],
      "payable": false,
      "stateMutability": "view",
      "type": "function"
    },
    {
      "constant": true,
      "inputs": [
        {
          "name": "_chestGroupId",
          "type": "uint256"
        }
      ],
      "name": "getChestGroupById",
      "outputs": [
        {
          "name": "name",
          "type": "string"
        },
        {
          "name": "quantity",
          "type": "uint256"
        },
        {
          "name": "totalAmount",
          "type": "uint256"
        },
        {
          "name": "price",
          "type": "uint256"
        },
        {
          "name": "tokenId",
          "type": "uint256"
        },
        {
          "name": "tokenPrice",
          "type": "uint256"
        },
        {
          "name": "startDate",
          "type": "uint256"
        },
        {
          "name": "endDate",
          "type": "uint256"
        },
        {
          "name": "zaCoin",
          "type": "uint256"
        },
        {
          "name": "chance",
          "type": "uint256"
        },
        {
          "name": "slot",
          "type": "uint256[][]"
        },
        {
          "name": "eggFlag",
          "type": "bool"
        }
      ],
      "payable": false,
      "stateMutability": "view",
      "type": "function"
    },
    {
      "constant": true,
      "inputs": [
        {
          "name": "_chestId",
          "type": "uint256"
        }
      ],
      "name": "ownerOf",
      "outputs": [
        {
          "name": "owner",
          "type": "address"
        }
      ],
      "payable": false,
      "stateMutability": "view",
      "type": "function"
    },
    {
      "constant": true,
      "inputs": [
        {
          "name": "_owner",
          "type": "address"
        }
      ],
      "name": "balanceOf",
      "outputs": [
        {
          "name": "count",
          "type": "uint256"
        }
      ],
      "payable": false,
      "stateMutability": "view",
      "type": "function"
    },
    {
      "constant": true,
      "inputs": [],
      "name": "totalSupply",
      "outputs": [
        {
          "name": "",
          "type": "uint256"
        }
      ],
      "payable": false,
      "stateMutability": "view",
      "type": "function"
    },
    {
      "constant": true,
      "inputs": [
        {
          "name": "_owner",
          "type": "address"
        }
      ],
      "name": "chestsOfOwner",
      "outputs": [
        {
          "name": "ownerChests",
          "type": "uint256[]"
        }
      ],
      "payable": false,
      "stateMutability": "view",
      "type": "function"
    },
    {
      "constant": true,
      "inputs": [],
      "name": "chestTest",
      "outputs": [
        {
          "name": "",
          "type": "address"
        }
      ],
      "payable": false,
      "stateMutability": "view",
      "type": "function"
    },
    {
      "constant": true,
      "inputs": [],
      "name": "isChestContract",
      "outputs": [
        {
          "name": "",
          "type": "bool"
        }
      ],
      "payable": false,
      "stateMutability": "pure",
      "type": "function"
    }
  ],
  "bytecode": "0x60806040523480156200001157600080fd5b50d380156200001f57600080fd5b50d280156200002d57600080fd5b5060405160808062004d8283398101806040526200004f919081019062000515565b600073ffffffffffffffffffffffffffffffffffffffff168473ffffffffffffffffffffffffffffffffffffffff16141515156200008c57600080fd5b600073ffffffffffffffffffffffffffffffffffffffff168373ffffffffffffffffffffffffffffffffffffffff1614151515620000c957600080fd5b600073ffffffffffffffffffffffffffffffffffffffff168273ffffffffffffffffffffffffffffffffffffffff16141515156200010657600080fd5b600073ffffffffffffffffffffffffffffffffffffffff168173ffffffffffffffffffffffffffffffffffffffff16141515156200014357600080fd5b33601660006101000a81548173ffffffffffffffffffffffffffffffffffffffff021916908373ffffffffffffffffffffffffffffffffffffffff16021790555083601160006101000a81548173ffffffffffffffffffffffffffffffffffffffff021916908373ffffffffffffffffffffffffffffffffffffffff16021790555082601260006101000a81548173ffffffffffffffffffffffffffffffffffffffff021916908373ffffffffffffffffffffffffffffffffffffffff16021790555081601360006101000a81548173ffffffffffffffffffffffffffffffffffffffff021916908373ffffffffffffffffffffffffffffffffffffffff16021790555080601460006101000a81548173ffffffffffffffffffffffffffffffffffffffff021916908373ffffffffffffffffffffffffffffffffffffffff160217905550601260009054906101000a900473ffffffffffffffffffffffffffffffffffffffff16601760006101000a81548173ffffffffffffffffffffffffffffffffffffffff021916908373ffffffffffffffffffffffffffffffffffffffff160217905550601160009054906101000a900473ffffffffffffffffffffffffffffffffffffffff16601960006101000a81548173ffffffffffffffffffffffffffffffffffffffff021916908373ffffffffffffffffffffffffffffffffffffffff160217905550601360009054906101000a900473ffffffffffffffffffffffffffffffffffffffff16601860006101000a81548173ffffffffffffffffffffffffffffffffffffffff021916908373ffffffffffffffffffffffffffffffffffffffff1602179055506101b860086000600581101515620003c557fe5b01819055506102e460086001600581101515620003de57fe5b01819055506103bb60086002600581101515620003f757fe5b01819055506103e3600860036005811015156200041057fe5b01819055506103e8600860046005811015156200042957fe5b01819055506161a86000806004811015156200044157fe5b0181905550612710600060016004811015156200045a57fe5b0181905550612710600060026004811015156200047357fe5b0181905550614e20600060036004811015156200048c57fe5b018190555061271060046000600481101515620004a557fe5b018190555061138860046001600481101515620004be57fe5b018190555061138860046002600481101515620004d757fe5b0181905550611b5860046003600481101515620004f057fe5b018190555050505050620005a1565b60006200050d825162000581565b905092915050565b600080600080608085870312156200052c57600080fd5b60006200053c87828801620004ff565b94505060206200054f87828801620004ff565b93505060406200056287828801620004ff565b92505060606200057587828801620004ff565b91505092959194509250565b600073ffffffffffffffffffffffffffffffffffffffff82169050919050565b6147d180620005b16000396000f30060806040526004361061016a576000357c0100000000000000000000000000000000000000000000000000000000900463ffffffff16806303a92a0f1461016f5780630936183c146101c657806318160ddd146102095780632e01c4aa1461024e5780632f7d747f1461029357806336541cc5146102d857806336883e8014610336578063400799921461038d5780634558f4c8146103d057806353b4e8fa14610415578063540ec5bd1461045a5780636075eb7d1461049f5780636352211e146104e25780636a05474f1461053957806370a08231146105905780637bb3cd3f146105e757806389679d621461062c5780638b59cad3146106715780638f2839701461068d578063a8e6a624146106d0578063ba9b769014610727578063c176b10114610786578063c42b35dd146107b7578063cb0e2c5a14610818578063d23ff5841461085b578063d5e26392146108b2578063e51a588a146108f5578063e9e15b4f14610957575b600080fd5b34801561017b57600080fd5b50d3801561018857600080fd5b50d2801561019557600080fd5b506101b060048036036101ab9190810190613daf565b61099a565b6040516101bd91906140fe565b60405180910390f35b3480156101d257600080fd5b50d380156101df57600080fd5b50d280156101ec57600080fd5b5061020760048036036102029190810190613c2a565b6109cd565b005b34801561021557600080fd5b50d3801561022257600080fd5b50d2801561022f57600080fd5b50610238610a92565b60405161024591906143f0565b60405180910390f35b34801561025a57600080fd5b50d3801561026757600080fd5b50d2801561027457600080fd5b5061027d610aa2565b60405161028a91906140fe565b60405180910390f35b34801561029f57600080fd5b50d380156102ac57600080fd5b50d280156102b957600080fd5b506102c2610b67565b6040516102cf919061425b565b60405180910390f35b3480156102e457600080fd5b50d380156102f157600080fd5b50d280156102fe57600080fd5b5061031960048036036103149190810190613daf565b610b8d565b60405161032d9897969594939291906144dd565b60405180910390f35b34801561034257600080fd5b50d3801561034f57600080fd5b50d2801561035c57600080fd5b5061037760048036036103729190810190613bd8565b610c89565b60405161038491906143f0565b60405180910390f35b34801561039957600080fd5b50d380156103a657600080fd5b50d280156103b357600080fd5b506103ce60048036036103c99190810190613c8f565b610ca1565b005b3480156103dc57600080fd5b50d380156103e957600080fd5b50d280156103f657600080fd5b506103ff610ed7565b60405161040c9190614225565b60405180910390f35b34801561042157600080fd5b50d3801561042e57600080fd5b50d2801561043b57600080fd5b50610444610efd565b6040516104519190614240565b60405180910390f35b34801561046657600080fd5b50d3801561047357600080fd5b50d2801561048057600080fd5b50610489610f23565b604051610496919061420a565b60405180910390f35b3480156104ab57600080fd5b50d380156104b857600080fd5b50d280156104c557600080fd5b506104e060048036036104db9190810190613daf565b610f2c565b005b3480156104ee57600080fd5b50d380156104fb57600080fd5b50d2801561050857600080fd5b50610523600480360361051e9190810190613daf565b6112c7565b60405161053091906140fe565b60405180910390f35b34801561054557600080fd5b50d3801561055257600080fd5b50d2801561055f57600080fd5b5061057a60048036036105759190810190613daf565b611340565b60405161058791906143f0565b60405180910390f35b34801561059c57600080fd5b50d380156105a957600080fd5b50d280156105b657600080fd5b506105d160048036036105cc9190810190613bd8565b61135a565b6040516105de91906143f0565b60405180910390f35b3480156105f357600080fd5b50d3801561060057600080fd5b50d2801561060d57600080fd5b506106166113a3565b60405161062391906143f0565b60405180910390f35b34801561063857600080fd5b50d3801561064557600080fd5b50d2801561065257600080fd5b5061065b6113b0565b60405161066891906143f0565b60405180910390f35b61068b60048036036106869190810190613dd8565b6113bd565b005b34801561069957600080fd5b50d380156106a657600080fd5b50d280156106b357600080fd5b506106ce60048036036106c99190810190613bd8565b611d97565b005b3480156106dc57600080fd5b50d380156106e957600080fd5b50d280156106f657600080fd5b50610711600480360361070c9190810190613bd8565b611eb3565b60405161071e91906141e8565b60405180910390f35b34801561073357600080fd5b50d3801561074057600080fd5b50d2801561074d57600080fd5b5061076860048036036107639190810190613daf565b612000565b60405161077d99989796959493929190614442565b60405180910390f35b34801561079257600080fd5b50d3801561079f57600080fd5b50d280156107ac57600080fd5b506107b5612230565b005b3480156107c357600080fd5b50d380156107d057600080fd5b50d280156107dd57600080fd5b506107f860048036036107f39190810190613daf565b612367565b60405161080f9b9a9998979695949392919061433e565b60405180910390f35b34801561082457600080fd5b50d3801561083157600080fd5b50d2801561083e57600080fd5b5061085960048036036108549190810190613bd8565b612475565b005b34801561086757600080fd5b50d3801561087457600080fd5b50d2801561088157600080fd5b5061089c60048036036108979190810190613daf565b6126dd565b6040516108a991906143f0565b60405180910390f35b3480156108be57600080fd5b50d380156108cb57600080fd5b50d280156108d857600080fd5b506108f360048036036108ee9190810190613bd8565b6126f7565b005b34801561090157600080fd5b50d3801561090e57600080fd5b50d2801561091b57600080fd5b5061093660048036036109319190810190613daf565b61295f565b60405161094e9c9b9a99989796959493929190614276565b60405180910390f35b34801561096357600080fd5b50d3801561097057600080fd5b50d2801561097d57600080fd5b5061099860048036036109939190810190613bd8565b612bcb565b005b600f6020528060005260406000206000915054906101000a900473ffffffffffffffffffffffffffffffffffffffff1681565b6109d73382612d23565b15156109e257600080fd5b600073ffffffffffffffffffffffffffffffffffffffff168273ffffffffffffffffffffffffffffffffffffffff1614151515610a1e57600080fd5b610a29338383612d8f565b8173ffffffffffffffffffffffffffffffffffffffff163373ffffffffffffffffffffffffffffffffffffffff167fb4da2aea3fd257ead1af3bb5e5560a95323b82734457f971a8141a7ca028e93c83604051610a8691906143f0565b60405180910390a35050565b60006001600d8054905003905090565b6000601960009054906101000a900473ffffffffffffffffffffffffffffffffffffffff1673ffffffffffffffffffffffffffffffffffffffff1663bc82b93b6040518163ffffffff167c0100000000000000000000000000000000000000000000000000000000028152600401602060405180830381600087803b158015610b2a57600080fd5b505af1158015610b3e573d6000803e3d6000fd5b505050506040513d601f19601f82011682018060405250610b629190810190613c01565b905090565b601760009054906101000a900473ffffffffffffffffffffffffffffffffffffffff1681565b600d81815481101515610b9c57fe5b9060005260206000209060090201600091509050806000015490806001018054600181600116156101000203166002900480601f016020809104026020016040519081016040528092919081815260200182805460018160011615610100020316600290048015610c4e5780601f10610c2357610100808354040283529160200191610c4e565b820191906000526020600020905b815481529060010190602001808311610c3157829003601f168201915b5050505050908060020154908060030154908060040154908060050154908060060154908060080160009054906101000a900460ff16905088565b60106020528060005260406000206000915090505481565b601660009054906101000a900473ffffffffffffffffffffffffffffffffffffffff1673ffffffffffffffffffffffffffffffffffffffff163373ffffffffffffffffffffffffffffffffffffffff16141515610cfd57600080fd5b60008a111515610d0c57600080fd5b600089111515610d1b57600080fd5b8486101515610d2957600080fd5b600e610180604051908101604052808d81526020018c81526020018c81526020018b81526020018a81526020018981526020018881526020018781526020018681526020018581526020018481526020018315158152509080600181540180825580915050906001820390600052602060002090600c0201600090919290919091506000820151816000019080519060200190610dc79291906135eb565b506020820151816001015560408201518160020155606082015181600301556080820151816004015560a0820151816005015560c0820151816006015560e082015181600701556101008201518160080155610120820151816009015561014082015181600a019080519060200190610e4192919061366b565b5061016082015181600b0160006101000a81548160ff0219169083151502179055505050503373ffffffffffffffffffffffffffffffffffffffff167f0e5a0f6339427a91c20187cf08c18d5784100a33ae5cd8dcffcc6ba37e4ef09f8c8c8d8d8d8d8d8d8d8d8d8d604051610ec29c9b9a99989796959493929190614276565b60405180910390a25050505050505050505050565b601860009054906101000a900473ffffffffffffffffffffffffffffffffffffffff1681565b601960009054906101000a900473ffffffffffffffffffffffffffffffffffffffff1681565b60006001905090565b610f346136cb565b610f3e3383612d23565b1515610f4957600080fd5b600d82815481101515610f5857fe5b9060005260206000209060090201610120604051908101604052908160008201548152602001600182018054600181600116156101000203166002900480601f0160208091040260200160405190810160405280929190818152602001828054600181600116156101000203166002900480156110165780601f10610feb57610100808354040283529160200191611016565b820191906000526020600020905b815481529060010190602001808311610ff957829003601f168201915b50505050508152602001600282015481526020016003820154815260200160048201548152602001600582015481526020016006820154815260200160078201805480602002602001604051908101604052809291908181526020016000905b828210156110e8578382906000526020600020018054806020026020016040519081016040528092919081815260200182805480156110d457602002820191906000526020600020905b8154815260200190600101908083116110c0575b505050505081526020019060010190611076565b5050505081526020016008820160009054906101000a900460ff16151515158152505090506111173383612ef7565b806101000151156111e557601860009054906101000a900473ffffffffffffffffffffffffffffffffffffffff1673ffffffffffffffffffffffffffffffffffffffff16639f5010e033428460400151856060015186608001516000806040518863ffffffff167c01000000000000000000000000000000000000000000000000000000000281526004016111b29796959493929190614179565b600060405180830381600087803b1580156111cc57600080fd5b505af11580156111e0573d6000803e3d6000fd5b505050505b6111f133600084612d8f565b600d8281548110151561120057fe5b9060005260206000209060090201600080820160009055600182016000611227919061371a565b6002820160009055600382016000905560048201600090556005820160009055600682016000905560078201600061125f9190613762565b6008820160006101000a81549060ff021916905550503373ffffffffffffffffffffffffffffffffffffffff167f46c93111dd8c7b802311d4e633f37f328d3ab5596290965602e99706395af7d6836040516112bb91906143f0565b60405180910390a25050565b6000600f600083815260200190815260200160002060009054906101000a900473ffffffffffffffffffffffffffffffffffffffff169050600073ffffffffffffffffffffffffffffffffffffffff168173ffffffffffffffffffffffffffffffffffffffff161415151561133b57600080fd5b919050565b60048160048110151561134f57fe5b016000915090505481565b6000601060008373ffffffffffffffffffffffffffffffffffffffff1673ffffffffffffffffffffffffffffffffffffffff168152602001908152602001600020549050919050565b6000600d80549050905090565b6000600e80549050905090565b6113c5613783565b600080600e878154811015156113d757fe5b90600052602060002090600c02016101806040519081016040529081600082018054600181600116156101000203166002900480601f01602080910402602001604051908101604052809291908181526020018280546001816001161561010002031660029004801561148b5780601f106114605761010080835404028352916020019161148b565b820191906000526020600020905b81548152906001019060200180831161146e57829003601f168201915b50505050508152602001600182015481526020016002820154815260200160038201548152602001600482015481526020016005820154815260200160068201548152602001600782015481526020016008820154815260200160098201548152602001600a8201805480602002602001604051908101604052809291908181526020016000905b828210156115855783829060005260206000200180548060200260200160405190810160405280929190818152602001828054801561157157602002820191906000526020600020905b81548152602001906001019080831161155d575b505050505081526020019060010190611513565b505050508152602001600b820160009054906101000a900460ff16151515158152505092508483602001511115156115bc57600080fd5b6000915060009050831561194b5784836060015102341415156115de57600080fd5b600073ffffffffffffffffffffffffffffffffffffffff168673ffffffffffffffffffffffffffffffffffffffff16141515611757578573ffffffffffffffffffffffffffffffffffffffff166108fc600a3481151561163a57fe5b049081150290604051600060405180830381858888f19350505050158015611666573d6000803e3d6000fd5b50601460009054906101000a900473ffffffffffffffffffffffffffffffffffffffff1673ffffffffffffffffffffffffffffffffffffffff166108fc600a348115156116af57fe5b049081150290604051600060405180830381858888f193505050501580156116db573d6000803e3d6000fd5b50601660009054906101000a900473ffffffffffffffffffffffffffffffffffffffff1673ffffffffffffffffffffffffffffffffffffffff166108fc6002600a3481151561172657fe5b040234039081150290604051600060405180830381858888f19350505050158015611755573d6000803e3d6000fd5b505b600090505b84811015611946576001600d610120604051908101604052804281526020018660000151815260200186606001518152602001866080015181526020016000815260200186610100015181526020018661012001518152602001866101400151815260200186610160015115158152509080600181540180825580915050906001820390600052602060002090600902016000909192909190915060008201518160000155602082015181600101908051906020019061181d9291906135eb565b5060408201518160020155606082015181600301556080820151816004015560a0820151816005015560c0820151816006015560e082015181600701908051906020019061186c92919061366b565b506101008201518160080160006101000a81548160ff02191690831515021790555050500391506001600e888154811015156118a457fe5b90600052602060002090600c02016001015403600e888154811015156118c657fe5b90600052602060002090600c0201600101819055506118e760003384612d8f565b3373ffffffffffffffffffffffffffffffffffffffff167f3af1f8fcc504ff780e5374a01a60d80b13ce7931cea6ebc8a5fdff94491d0bce8888876040516119319392919061440b565b60405180910390a2808060010191505061175c565b611d8e565b8260800151d314151561195d57600080fd5b848360a0015102d214151561197157600080fd5b600073ffffffffffffffffffffffffffffffffffffffff168673ffffffffffffffffffffffffffffffffffffffff16141515611b9e578573ffffffffffffffffffffffffffffffffffffffff166108fc600ad28115156119cd57fe5b049081150290d3801580156119e157600080fd5b5080678000000000000000111580156119f957600080fd5b5080620f424010158015611a0c57600080fd5b5060405160006040518083038185878a8ad0945050505050158015611a35573d6000803e3d6000fd5b50601460009054906101000a900473ffffffffffffffffffffffffffffffffffffffff1673ffffffffffffffffffffffffffffffffffffffff166108fc600ad2811515611a7e57fe5b049081150290d380158015611a9257600080fd5b508067800000000000000011158015611aaa57600080fd5b5080620f424010158015611abd57600080fd5b5060405160006040518083038185878a8ad0945050505050158015611ae6573d6000803e3d6000fd5b50601660009054906101000a900473ffffffffffffffffffffffffffffffffffffffff1673ffffffffffffffffffffffffffffffffffffffff166108fc6002600ad2811515611b3157fe5b0402d2039081150290d380158015611b4857600080fd5b508067800000000000000011158015611b6057600080fd5b5080620f424010158015611b7357600080fd5b5060405160006040518083038185878a8ad0945050505050158015611b9c573d6000803e3d6000fd5b505b600090505b84811015611d3b576001600d610120604051908101604052804281526020018660000151815260200160008152602001866080015181526020018660a001518152602001866101000151815260200186610120015181526020018661014001518152602001866101600151151581525090806001815401808255809150509060018203906000526020600020906009020160009091929091909150600082015181600001556020820151816001019080519060200190611c649291906135eb565b5060408201518160020155606082015181600301556080820151816004015560a0820151816005015560c0820151816006015560e0820151816007019080519060200190611cb392919061366b565b506101008201518160080160006101000a81548160ff02191690831515021790555050500391506001600e88815481101515611ceb57fe5b90600052602060002090600c02016001015403600e88815481101515611d0d57fe5b90600052602060002090600c020160010181905550611d2e60003384612d8f565b8080600101915050611ba3565b3373ffffffffffffffffffffffffffffffffffffffff167f3af1f8fcc504ff780e5374a01a60d80b13ce7931cea6ebc8a5fdff94491d0bce888887604051611d859392919061440b565b60405180910390a25b50505050505050565b601660009054906101000a900473ffffffffffffffffffffffffffffffffffffffff1673ffffffffffffffffffffffffffffffffffffffff163373ffffffffffffffffffffffffffffffffffffffff16141515611df357600080fd5b80601660006101000a81548173ffffffffffffffffffffffffffffffffffffffff021916908373ffffffffffffffffffffffffffffffffffffffff1602179055508073ffffffffffffffffffffffffffffffffffffffff16601660009054906101000a900473ffffffffffffffffffffffffffffffffffffffff1673ffffffffffffffffffffffffffffffffffffffff167fcf9b665e0639e0b81a8db37b60ac7ddf45aeb1b484e11adeb7dff4bf4a3a625860405160405180910390a350565b6060600060606000806000611ec78761135a565b94506000851415611f0a576000604051908082528060200260200182016040528015611f025781602001602082028038833980820191505090505b509550611ff6565b84604051908082528060200260200182016040528015611f395781602001602082028038833980820191505090505b509350611f44610a92565b925060009150600190505b8281111515611ff2578673ffffffffffffffffffffffffffffffffffffffff16600f600083815260200190815260200160002060009054906101000a900473ffffffffffffffffffffffffffffffffffffffff1673ffffffffffffffffffffffffffffffffffffffff161415611fe557808483815181101515611fce57fe5b906020019060200201818152505081806001019250505b8080600101915050611f4f565b8395505b5050505050919050565b600060606000806000806000606060006120186136cb565b600d8b81548110151561202757fe5b9060005260206000209060090201610120604051908101604052908160008201548152602001600182018054600181600116156101000203166002900480601f0160208091040260200160405190810160405280929190818152602001828054600181600116156101000203166002900480156120e55780601f106120ba576101008083540402835291602001916120e5565b820191906000526020600020905b8154815290600101906020018083116120c857829003601f168201915b50505050508152602001600282015481526020016003820154815260200160048201548152602001600582015481526020016006820154815260200160078201805480602002602001604051908101604052809291908181526020016000905b828210156121b7578382906000526020600020018054806020026020016040519081016040528092919081815260200182805480156121a357602002820191906000526020600020905b81548152602001906001019080831161218f575b505050505081526020019060010190612145565b5050505081526020016008820160009054906101000a900460ff1615151515815250509050806000015181602001518260400151836060015184608001518560a001518660c001518760e00151886101000151879750819150995099509950995099509950995099509950509193959799909294969850565b600080601660009054906101000a900473ffffffffffffffffffffffffffffffffffffffff1673ffffffffffffffffffffffffffffffffffffffff163373ffffffffffffffffffffffffffffffffffffffff1614151561228f57600080fd5b600e805490509150600090505b8181101561236357600e818154811015156122b357fe5b90600052602060002090600c0201600080820160006122d2919061371a565b600182016000905560028201600090556003820160009055600482016000905560058201600090556006820160009055600782016000905560088201600090556009820160009055600a8201600061232a9190613762565b600b820160006101000a81549060ff02191690555050600e80548091906001900361235591906137e7565b50808060010191505061229c565b5050565b600e8181548110151561237657fe5b90600052602060002090600c0201600091509050806000018054600181600116156101000203166002900480601f0160208091040260200160405190810160405280929190818152602001828054600181600116156101000203166002900480156124225780601f106123f757610100808354040283529160200191612422565b820191906000526020600020905b81548152906001019060200180831161240557829003601f168201915b50505050509080600101549080600201549080600301549080600401549080600501549080600601549080600701549080600801549080600901549080600b0160009054906101000a900460ff1690508b565b6000601660009054906101000a900473ffffffffffffffffffffffffffffffffffffffff1673ffffffffffffffffffffffffffffffffffffffff163373ffffffffffffffffffffffffffffffffffffffff161415156124d357600080fd5b600073ffffffffffffffffffffffffffffffffffffffff168273ffffffffffffffffffffffffffffffffffffffff161415151561250f57600080fd5b81601260006101000a81548173ffffffffffffffffffffffffffffffffffffffff021916908373ffffffffffffffffffffffffffffffffffffffff160217905550601260009054906101000a900473ffffffffffffffffffffffffffffffffffffffff1690508073ffffffffffffffffffffffffffffffffffffffff16635461c5f96040518163ffffffff167c0100000000000000000000000000000000000000000000000000000000028152600401602060405180830381600087803b1580156125d957600080fd5b505af11580156125ed573d6000803e3d6000fd5b505050506040513d601f19601f820116820180604052506126119190810190613c66565b151561261c57600080fd5b80601760006101000a81548173ffffffffffffffffffffffffffffffffffffffff021916908373ffffffffffffffffffffffffffffffffffffffff1602179055508173ffffffffffffffffffffffffffffffffffffffff16601660009054906101000a900473ffffffffffffffffffffffffffffffffffffffff1673ffffffffffffffffffffffffffffffffffffffff167f075c423fa08481d6748b1ef2f69989b6b41ab80837686fc8dd5c2492d88d7b9660405160405180910390a35050565b6000816004811015156126ec57fe5b016000915090505481565b6000601660009054906101000a900473ffffffffffffffffffffffffffffffffffffffff1673ffffffffffffffffffffffffffffffffffffffff163373ffffffffffffffffffffffffffffffffffffffff1614151561275557600080fd5b600073ffffffffffffffffffffffffffffffffffffffff168273ffffffffffffffffffffffffffffffffffffffff161415151561279157600080fd5b81601160006101000a81548173ffffffffffffffffffffffffffffffffffffffff021916908373ffffffffffffffffffffffffffffffffffffffff160217905550601160009054906101000a900473ffffffffffffffffffffffffffffffffffffffff1690508073ffffffffffffffffffffffffffffffffffffffff1663b1e4f01f6040518163ffffffff167c0100000000000000000000000000000000000000000000000000000000028152600401602060405180830381600087803b15801561285b57600080fd5b505af115801561286f573d6000803e3d6000fd5b505050506040513d601f19601f820116820180604052506128939190810190613c66565b151561289e57600080fd5b80601960006101000a81548173ffffffffffffffffffffffffffffffffffffffff021916908373ffffffffffffffffffffffffffffffffffffffff1602179055508173ffffffffffffffffffffffffffffffffffffffff16601660009054906101000a900473ffffffffffffffffffffffffffffffffffffffff1673ffffffffffffffffffffffffffffffffffffffff167f397cd66e5762b28b138e6e8193ac3a549da9b184f1f187178be7c5b382c316d160405160405180910390a35050565b606060008060008060008060008060006060600061297b613783565b600e8e81548110151561298a57fe5b90600052602060002090600c02016101806040519081016040529081600082018054600181600116156101000203166002900480601f016020809104026020016040519081016040528092919081815260200182805460018160011615610100020316600290048015612a3e5780601f10612a1357610100808354040283529160200191612a3e565b820191906000526020600020905b815481529060010190602001808311612a2157829003601f168201915b50505050508152602001600182015481526020016002820154815260200160038201548152602001600482015481526020016005820154815260200160068201548152602001600782015481526020016008820154815260200160098201548152602001600a8201805480602002602001604051908101604052809291908181526020016000905b82821015612b3857838290600052602060002001805480602002602001604051908101604052809291908181526020018280548015612b2457602002820191906000526020600020905b815481526020019060010190808311612b10575b505050505081526020019060010190612ac6565b505050508152602001600b820160009054906101000a900460ff1615151515815250509050806000015181602001518260400151836060015184608001518560a001518660c001518760e001518861010001518961012001518a61014001518b61016001518b9b508191509c509c509c509c509c509c509c509c509c509c509c509c505091939597999b5091939597999b565b601660009054906101000a900473ffffffffffffffffffffffffffffffffffffffff1673ffffffffffffffffffffffffffffffffffffffff163373ffffffffffffffffffffffffffffffffffffffff16141515612c2757600080fd5b600073ffffffffffffffffffffffffffffffffffffffff168173ffffffffffffffffffffffffffffffffffffffff1614151515612c6357600080fd5b80601460006101000a81548173ffffffffffffffffffffffffffffffffffffffff021916908373ffffffffffffffffffffffffffffffffffffffff1602179055508073ffffffffffffffffffffffffffffffffffffffff16601660009054906101000a900473ffffffffffffffffffffffffffffffffffffffff1673ffffffffffffffffffffffffffffffffffffffff167f8353f2ec2d93e5b3f4e1e9f3fa7ce3c8e5ec8bfd6c0fc95f39f6ed23033e7bc660405160405180910390a350565b60008273ffffffffffffffffffffffffffffffffffffffff16600f600084815260200190815260200160002060009054906101000a900473ffffffffffffffffffffffffffffffffffffffff1673ffffffffffffffffffffffffffffffffffffffff1614905092915050565b601060008373ffffffffffffffffffffffffffffffffffffffff1673ffffffffffffffffffffffffffffffffffffffff1681526020019081526020016000206000815480929190600101919050555081600f600083815260200190815260200160002060006101000a81548173ffffffffffffffffffffffffffffffffffffffff021916908373ffffffffffffffffffffffffffffffffffffffff160217905550600073ffffffffffffffffffffffffffffffffffffffff168373ffffffffffffffffffffffffffffffffffffffff16141515612eb757601060008473ffffffffffffffffffffffffffffffffffffffff1673ffffffffffffffffffffffffffffffffffffffff16815260200190815260200160002060008154809291906001900391905055505b7f5fa5f8538fe52864231df4d67901199394269477d8d71a12e1418af8a1c9f18a838383604051612eea93929190614119565b60405180910390a1505050565b612eff6136cb565b6000806000600d85815481101515612f1357fe5b9060005260206000209060090201610120604051908101604052908160008201548152602001600182018054600181600116156101000203166002900480601f016020809104026020016040519081016040528092919081815260200182805460018160011615610100020316600290048015612fd15780601f10612fa657610100808354040283529160200191612fd1565b820191906000526020600020905b815481529060010190602001808311612fb457829003601f168201915b50505050508152602001600282015481526020016003820154815260200160048201548152602001600582015481526020016006820154815260200160078201805480602002602001604051908101604052809291908181526020016000905b828210156130a35783829060005260206000200180548060200260200160405190810160405280929190818152602001828054801561308f57602002820191906000526020600020905b81548152602001906001019080831161307b575b505050505081526020019060010190613031565b5050505081526020016008820160009054906101000a900460ff1615151515815250509350600092506000915060009050600090505b8360e00151518110156131d65761310b818560e00151838151811015156130fc57fe5b906020019060200201516131de565b809350819450505082156131c957601760009054906101000a900473ffffffffffffffffffffffffffffffffffffffff1673ffffffffffffffffffffffffffffffffffffffff16637d4cb74e87846040518363ffffffff167c0100000000000000000000000000000000000000000000000000000000028152600401613192929190614150565b600060405180830381600087803b1580156131ac57600080fd5b505af11580156131c0573d6000803e3d6000fd5b50505050600092505b80806001019150506130d9565b505050505050565b60008060006131eb613819565b6131f361383c565b60008060008060008042448e6040516020018084815260200183815260200182815260200193505050506040516020818303038152906040526040518082805190602001908083835b602083101515613261578051825260208201915060208101905060208303925061323c565b6001836020036101000a03801982511681845116808217855250505050505090500191505060405180910390206001900498506103e8898115156132a157fe5b06985060a060405190810160405280600015151515815260200160001515151581526020016000151515158152602001600015151515815260200160001515151581525097506000955060009450600093506000925060009150600090506008600060058110151561330f57fe5b015489101561332157600094506133a9565b6008600160058110151561333157fe5b015489101561334357600194506133a8565b6008600260058110151561335357fe5b015489101561336557600294506133a7565b6008600360058110151561337557fe5b015489101561338757600394506133a6565b6008600460058110151561339757fe5b01548910156133a557600494505b5b5b5b5b600095505b8b5186101561357257601760009054906101000a900473ffffffffffffffffffffffffffffffffffffffff1673ffffffffffffffffffffffffffffffffffffffff1663019d90528d8881518110151561340357fe5b906020019060200201516040518263ffffffff167c010000000000000000000000000000000000000000000000000000000002815260040161344591906143f0565b600060405180830381600087803b15801561345f57600080fd5b505af1158015613473573d6000803e3d6000fd5b505050506040513d6000823e3d601f19601f8201168201806040525061349c9190810190613e3b565b9091929394959650909192939495509091929394509091929350909150508093508194505050600083111561356557848214156134f6578b868151811015156134e157fe5b90602001906020020151935060019050613572565b60001515888360058110151561350857fe5b602002015115151415613564576001888360058110151561352557fe5b6020020190151590811515815250508b8681518110151561354257fe5b90602001906020020151878360058110151561355a57fe5b6020020181815250505b5b85806001019650506133ae565b8015156135d557600095505b60058610156135d45760011515888760058110151561359957fe5b6020020151151514156135c75785945086866005811015156135b757fe5b60200201519350600190506135d4565b858060010196505061357e565b5b80849a509a505050505050505050509250929050565b828054600181600116156101000203166002900490600052602060002090601f016020900481019282601f1061362c57805160ff191683800117855561365a565b8280016001018555821561365a579182015b8281111561365957825182559160200191906001019061363e565b5b509050613667919061385f565b5090565b8280548282559060005260206000209081019282156136ba579160200282015b828111156136b95782518290805190602001906136a9929190613884565b509160200191906001019061368b565b5b5090506136c791906138d1565b5090565b6101206040519081016040528060008152602001606081526020016000815260200160008152602001600081526020016000815260200160008152602001606081526020016000151581525090565b50805460018160011615610100020316600290046000825580601f10613740575061375f565b601f01602090049060005260206000209081019061375e919061385f565b5b50565b508054600082559060005260206000209081019061378091906138d1565b50565b6101806040519081016040528060608152602001600081526020016000815260200160008152602001600081526020016000815260200160008152602001600081526020016000815260200160008152602001606081526020016000151581525090565b81548183558181111561381457600c0281600c02836000526020600020918201910161381391906138fd565b5b505050565b60a060405190810160405280600590602082028038833980820191505090505090565b60a060405190810160405280600590602082028038833980820191505090505090565b61388191905b8082111561387d576000816000905550600101613865565b5090565b90565b8280548282559060005260206000209081019282156138c0579160200282015b828111156138bf5782518255916020019190600101906138a4565b5b5090506138cd919061385f565b5090565b6138fa91905b808211156138f657600081816138ed9190613998565b506001016138d7565b5090565b90565b61399591905b80821115613991576000808201600061391c919061371a565b600182016000905560028201600090556003820160009055600482016000905560058201600090556006820160009055600782016000905560088201600090556009820160009055600a820160006139749190613762565b600b820160006101000a81549060ff021916905550600c01613903565b5090565b90565b50805460008255906000526020600020908101906139b6919061385f565b50565b60006139c582356146c6565b905092915050565b60006139d982516146c6565b905092915050565b600082601f83011215156139f457600080fd5b8135613a07613a028261458f565b614562565b9150818183526020840193506020810190508360005b83811015613a4d5781358601613a338882613a57565b845260208401935060208301925050600181019050613a1d565b5050505092915050565b600082601f8301121515613a6a57600080fd5b8135613a7d613a78826145b7565b614562565b91508181835260208401935060208101905083856020840282011115613aa257600080fd5b60005b83811015613ad25781613ab88882613bb0565b845260208401935060208301925050600181019050613aa5565b5050505092915050565b6000613ae882356146e6565b905092915050565b6000613afc82516146e6565b905092915050565b600082601f8301121515613b1757600080fd5b8135613b2a613b25826145df565b614562565b91508082526020830160208301858383011115613b4657600080fd5b613b51838284614744565b50505092915050565b600082601f8301121515613b6d57600080fd5b8151613b80613b7b826145df565b614562565b91508082526020830160208301858383011115613b9c57600080fd5b613ba7838284614753565b50505092915050565b6000613bbc82356146f2565b905092915050565b6000613bd082516146f2565b905092915050565b600060208284031215613bea57600080fd5b6000613bf8848285016139b9565b91505092915050565b600060208284031215613c1357600080fd5b6000613c21848285016139cd565b91505092915050565b60008060408385031215613c3d57600080fd5b6000613c4b858286016139b9565b9250506020613c5c85828601613bb0565b9150509250929050565b600060208284031215613c7857600080fd5b6000613c8684828501613af0565b91505092915050565b60008060008060008060008060008060006101608c8e031215613cb157600080fd5b60008c013567ffffffffffffffff811115613ccb57600080fd5b613cd78e828f01613b04565b9b50506020613ce88e828f01613bb0565b9a50506040613cf98e828f01613bb0565b9950506060613d0a8e828f01613bb0565b9850506080613d1b8e828f01613bb0565b97505060a0613d2c8e828f01613bb0565b96505060c0613d3d8e828f01613bb0565b95505060e0613d4e8e828f01613bb0565b945050610100613d608e828f01613bb0565b9350506101208c013567ffffffffffffffff811115613d7e57600080fd5b613d8a8e828f016139e1565b925050610140613d9c8e828f01613adc565b9150509295989b509295989b9093969950565b600060208284031215613dc157600080fd5b6000613dcf84828501613bb0565b91505092915050565b60008060008060808587031215613dee57600080fd5b6000613dfc87828801613bb0565b9450506020613e0d878288016139b9565b9350506040613e1e87828801613bb0565b9250506060613e2f87828801613adc565b91505092959194509250565b600080600080600080600080610100898b031215613e5857600080fd5b6000613e668b828c01613bc4565b9850506020613e778b828c01613bc4565b9750506040613e888b828c01613bc4565b965050606089015167ffffffffffffffff811115613ea557600080fd5b613eb18b828c01613b5a565b9550506080613ec28b828c01613bc4565b94505060a0613ed38b828c01613bc4565b93505060c0613ee48b828c01613bc4565b92505060e0613ef58b828c01613bc4565b9150509295985092959890939650565b613f0e81614690565b82525050565b6000613f1f82614632565b80845260208401935083602082028501613f388561460b565b60005b84811015613f71578383038852613f53838351613fdd565b9250613f5e82614669565b9150602088019750600181019050613f3b565b508196508694505050505092915050565b6000613f8d82614648565b808452602084019350613f9f83614625565b60005b82811015613fd157613fb58683516140ef565b613fbe82614683565b9150602086019550600181019050613fa2565b50849250505092915050565b6000613fe88261463d565b808452602084019350613ffa83614618565b60005b8281101561402c576140108683516140ef565b61401982614676565b9150602086019550600181019050613ffd565b50849250505092915050565b614041816146b0565b82525050565b614050816146fc565b82525050565b61405f8161470e565b82525050565b61406e81614720565b82525050565b61407d81614732565b82525050565b600061408e8261465e565b8084526140a2816020860160208601614753565b6140ab81614786565b602085010191505092915050565b60006140c482614653565b8084526140d8816020860160208601614753565b6140e181614786565b602085010191505092915050565b6140f8816146bc565b82525050565b60006020820190506141136000830184613f05565b92915050565b600060608201905061412e6000830186613f05565b61413b6020830185613f05565b61414860408301846140ef565b949350505050565b60006040820190506141656000830185613f05565b61417260208301846140ef565b9392505050565b600060e08201905061418e600083018a613f05565b61419b60208301896140ef565b6141a860408301886140ef565b6141b560608301876140ef565b6141c260808301866140ef565b6141cf60a0830185614074565b6141dc60c0830184614074565b98975050505050505050565b600060208201905081810360008301526142028184613f82565b905092915050565b600060208201905061421f6000830184614038565b92915050565b600060208201905061423a6000830184614047565b92915050565b60006020820190506142556000830184614056565b92915050565b60006020820190506142706000830184614065565b92915050565b6000610180820190508181036000830152614291818f614083565b90506142a0602083018e6140ef565b6142ad604083018d6140ef565b6142ba606083018c6140ef565b6142c7608083018b6140ef565b6142d460a083018a6140ef565b6142e160c08301896140ef565b6142ee60e08301886140ef565b6142fc6101008301876140ef565b61430a6101208301866140ef565b81810361014083015261431d8185613f14565b905061432d610160830184614038565b9d9c50505050505050505050505050565b6000610160820190508181036000830152614359818e6140b9565b9050614368602083018d6140ef565b614375604083018c6140ef565b614382606083018b6140ef565b61438f608083018a6140ef565b61439c60a08301896140ef565b6143a960c08301886140ef565b6143b660e08301876140ef565b6143c46101008301866140ef565b6143d26101208301856140ef565b6143e0610140830184614038565b9c9b505050505050505050505050565b600060208201905061440560008301846140ef565b92915050565b600060608201905061442060008301866140ef565b61442d6020830185613f05565b61443a6040830184614038565b949350505050565b600061012082019050614458600083018c6140ef565b818103602083015261446a818b614083565b9050614479604083018a6140ef565b61448660608301896140ef565b61449360808301886140ef565b6144a060a08301876140ef565b6144ad60c08301866140ef565b81810360e08301526144bf8185613f14565b90506144cf610100830184614038565b9a9950505050505050505050565b6000610100820190506144f3600083018b6140ef565b8181036020830152614505818a6140b9565b905061451460408301896140ef565b61452160608301886140ef565b61452e60808301876140ef565b61453b60a08301866140ef565b61454860c08301856140ef565b61455560e0830184614038565b9998505050505050505050565b6000604051905081810181811067ffffffffffffffff8211171561458557600080fd5b8060405250919050565b600067ffffffffffffffff8211156145a657600080fd5b602082029050602081019050919050565b600067ffffffffffffffff8211156145ce57600080fd5b602082029050602081019050919050565b600067ffffffffffffffff8211156145f657600080fd5b601f19601f8301169050602081019050919050565b6000602082019050919050565b6000602082019050919050565b6000602082019050919050565b600081519050919050565b600081519050919050565b600081519050919050565b600081519050919050565b600081519050919050565b6000602082019050919050565b6000602082019050919050565b6000602082019050919050565b600073ffffffffffffffffffffffffffffffffffffffff82169050919050565b60008115159050919050565b6000819050919050565b600073ffffffffffffffffffffffffffffffffffffffff82169050919050565b60008115159050919050565b6000819050919050565b600061470782614690565b9050919050565b600061471982614690565b9050919050565b600061472b82614690565b9050919050565b600061473d826146bc565b9050919050565b82818337600083830152505050565b60005b83811015614771578082015181840152602081019050614756565b83811115614780576000848401525b50505050565b6000601f19601f83011690509190505600a265627a7a72305820f8b88d09b3134bd736233af4de14063b9c69da5597097778e4423e787aed46a86c6578706572696d656e74616cf50037",
  "source": "pragma solidity ^0.4.25;\npragma experimental ABIEncoderV2;\n\nimport \"./PZHeroCore.sol\";\nimport \"./PZItemCore.sol\";\nimport \"./PZEggCore.sol\";\n\ncontract PZChest\n{\n    uint private constant       PZ_ITEM_GEAR = 0;\n    uint private constant       PZ_ITEM_EMOTE = 1;\n\n    uint private constant       PZ_ITEM_COMMON = 0;\n    uint private constant       PZ_ITEM_UNCOMMON = 1;\n    uint private constant       PZ_ITEM_RARE = 2;\n    uint private constant       PZ_ITEM_EPIC = 3;\n    uint private constant       PZ_ITEM_LEGENDARY = 4;\n\n    uint private constant       PZ_ITEM_CHANCE_COMMON = 440;\n    uint private constant       PZ_ITEM_CHANCE_UNCOMMON = 740;\n    uint private constant       PZ_ITEM_CHANCE_RARE = 955;\n    uint private constant       PZ_ITEM_CHANCE_EPIC = 995;\n    uint private constant       PZ_ITEM_CHANCE_LEGENDARY = 1000;\n\n    uint private constant       PZ_ZA_NORMAL_DOWN_LIMIT = 10000;\n    uint private constant       PZ_ZA_NORMAL_UP_LIMIT = 25000;\n    uint private constant       PZ_ZA_RARE_DOWN_LIMIT = 5000;\n    uint private constant       PZ_ZA_RARE_UP_LIMIT = 10000;\n    uint private constant       PZ_ZA_EPIC_DOWN_LIMIT = 5000;\n    uint private constant       PZ_ZA_EPIC_UP_LIMIT = 10000;\n    uint private constant       PZ_ZA_LEGENDARY_DOWN_LIMIT = 7000;\n    uint private constant       PZ_ZA_LEGENDARY_UP_LIMIT = 20000;\n    uint private constant       PZ_TOKEN_TRX_PROPOTION = 1;\n    uint private constant       PZ_TOKEN_ID = 1000382;\n\n    struct Chest {\n        uint        date;\n        string      name;\n        uint        price;\n        uint        tokenId;\n        uint        tokenPrice;\n        uint        zaCoin;\n        uint        chance;\n        uint[][]    slot;\n        bool        eggFlag;\n    }\n\n    struct ChestGroup {\n        string      name;\n        uint        quantity;\n        uint        totalAmount;\n        uint        price;\n        uint        tokenId;\n        uint        tokenPrice;\n        uint        startDate;\n        uint        endDate;\n        uint        zaCoin;\n        uint        chance;\n        uint[][]    slot;\n        bool        eggFlag;\n    }\n\n    event CreateChestGroup(\n            address indexed _admin,\n            string _name,\n            uint _quantity,\n            uint _totalAmount,\n            uint _price,\n            uint _tokenId,\n            uint _tokenPrice,\n            uint _startDate,\n            uint _endDate,\n            uint _zaCoin,\n            uint _chance,\n            uint[][] _slot,\n            bool _eggFlag);\n\n    event SetHeroCoreAddress(address indexed _admin, address indexed _newHeroCore);\n    event SetItemCoreAddress(address indexed _admin, address indexed _newItemCore);\n    event SetPoolAddress(address indexed _admin, address indexed _newPool);\n    event ChangeAdmin(address indexed _admin, address indexed _newAdmin);\n    event OpenChest(address indexed _buyer, uint _chestId);\n    event BuyChest(address indexed _buyer, uint _chestGroupId, address _referrer, bool bTrxPurchase);\n    event BurnChest(uint burnQuantity, uint id);\n    event CreateChest(uint quantity, uint supply);\n    event GiftChest(address indexed sender, address indexed _to, uint _chestId);\n\n    uint[4] public                          pzZAUpperLimit;\n    uint[4] public                          pzZADownLimit;\n\n    uint[5] private                         itemChance;\n    Chest[] public                          chests;\n    ChestGroup[] public                     chestGroups;\n    mapping(uint => address) public         chestIndexToOwner;\n    mapping(address => uint) public         ownershipChestCount;\n\n    address private                         addrHeroCore;\n    address private                         addrItemCore;\n    address private                         addrEggCore;\n    address private                         addrPool;\n    address private                         addrEVO;\n    address private                         addrAdmin;\n    // address private                         addrToken;\n\n    PZItemCore public                       contractItemCore;\n    PZEggCore public                        contractEggCore;\n    PZHeroCore public                       contractHeroCore;\n    // PZToken public                          contractToken;\n//    PZPool public                           contractPool;\n\n    event ChestTransfer(address from, address to, uint256 chestId);\n    event ChestCreated(uint itmeType, uint quantity);\n\n    /**\n    * Constructor\n    *\n    * @param _heroCore                      address of hero contract\n    * @param _itemCore                      address of item contract\n    * @param _eggCore                       address of egg contract\n    * @param _pool                          address of pool contract\n    *\n    */\n\n    constructor(address _heroCore, address _itemCore, address _eggCore, address _pool) public\n    {\n        require(_heroCore != address(0));\n        require(_itemCore != address(0));\n        require(_eggCore != address(0));\n        require(_pool != address(0));\n\n        addrAdmin = msg.sender;\n        addrHeroCore = _heroCore;\n        addrItemCore = _itemCore;\n        addrEggCore = _eggCore;\n        addrPool = _pool;\n\n        contractItemCore = PZItemCore(addrItemCore);\n        contractHeroCore = PZHeroCore(addrHeroCore);\n        contractEggCore = PZEggCore(addrEggCore);\n        // contractToken = PZToken(addrToken);\n\n        // contractItemCore.setAddrPool(addrPool);\n        itemChance[PZ_ITEM_COMMON] = PZ_ITEM_CHANCE_COMMON;\n        itemChance[PZ_ITEM_UNCOMMON] = PZ_ITEM_CHANCE_UNCOMMON;\n        itemChance[PZ_ITEM_RARE] = PZ_ITEM_CHANCE_RARE;\n        itemChance[PZ_ITEM_EPIC] = PZ_ITEM_CHANCE_EPIC;\n        itemChance[PZ_ITEM_LEGENDARY] = PZ_ITEM_CHANCE_LEGENDARY;\n\n        pzZAUpperLimit[PZ_ITEM_COMMON] = PZ_ZA_NORMAL_UP_LIMIT;\n        pzZAUpperLimit[PZ_ITEM_UNCOMMON] = PZ_ZA_RARE_UP_LIMIT;\n        pzZAUpperLimit[PZ_ITEM_RARE] = PZ_ZA_EPIC_UP_LIMIT;\n        pzZAUpperLimit[PZ_ITEM_EPIC] = PZ_ZA_LEGENDARY_UP_LIMIT;\n\n        pzZADownLimit[PZ_ITEM_COMMON] = PZ_ZA_NORMAL_DOWN_LIMIT;\n        pzZADownLimit[PZ_ITEM_UNCOMMON] = PZ_ZA_RARE_DOWN_LIMIT;\n        pzZADownLimit[PZ_ITEM_RARE] = PZ_ZA_EPIC_DOWN_LIMIT;\n        pzZADownLimit[PZ_ITEM_EPIC] = PZ_ZA_LEGENDARY_DOWN_LIMIT;\n//        contractPool = PZPool(addrPool);\n    }\n\n    modifier onlyAdmin()\n    {\n        require(msg.sender == addrAdmin);\n        _;\n    }\n\n    /**\n    * Set the Address of Hero contract\n    *\n    * @param _heroCore                   new address of hero contract\n    *\n    */\n    function setHeroCoreAddress(address _heroCore) public onlyAdmin\n    {\n        require(_heroCore != address(0x0));\n\n        addrHeroCore = _heroCore;\n        PZHeroCore candidateContract = PZHeroCore(addrHeroCore);\n\n        require(candidateContract.isHeroContract());\n        contractHeroCore = candidateContract;\n        emit SetHeroCoreAddress(addrAdmin, _heroCore);\n    }\n\n    /**\n    * Set the Address of Item contract\n    *\n    * @param _itemCore                   new address of item contract\n    *\n    */\n    function setItemCoreAddress(address _itemCore) public onlyAdmin\n    {\n        require(_itemCore != address(0x0));\n\n        addrItemCore = _itemCore;\n\n        PZItemCore candidateContract = PZItemCore(addrItemCore);\n        require(candidateContract.isItemContract());\n\n        contractItemCore = candidateContract;\n        // contractItemCore.setAddrPool(addrPool);\n        emit SetItemCoreAddress(addrAdmin, _itemCore);\n    }\n\n    /**\n    * Set the Address of Pool\n    *\n    * @param _pool                   new address of pool\n    *\n    */\n    function setPoolAddress(address _pool) public onlyAdmin\n    {\n        require(_pool != address(0x0));\n\n        addrPool = _pool;\n        emit SetPoolAddress(addrAdmin, _pool);\n    }\n\n    /**\n    * Set the Address of Admin\n    *\n    * @param _addrAdmin                   new address of Admin\n    *\n    */\n    function changeAdmin(address _addrAdmin) public onlyAdmin\n    {\n        addrAdmin = _addrAdmin;\n        emit ChangeAdmin(addrAdmin, _addrAdmin);\n    }\n\n    /**\n    * Create Chest Group that is the Meta Information for creating Chest NFT\n    *\n    * @param _name                          name of the chest\n    * @param _quantity                      quantity of the chest\n    * @param _price                         price of the chest\n    * @param _startDate                     start Date of Sale for the chest\n    * @param _endDate                       end Date of Sale for the chest\n    * @param _zaCoin                        zaCoin amount //not sure\n    * @param _chance                        chance  //not sure\n    * @param _slot                          item slots of the chest\n    *\n    */\n    function createChestGroup(\n            string _name,\n            uint _quantity,\n            uint _price,\n            uint _tokenId,\n            uint _tokenPrice,\n            uint _startDate,\n            uint _endDate,\n            uint _zaCoin,\n            uint _chance,\n            uint[][] _slot,\n            bool _eggFlag)\n        public\n        onlyAdmin\n    {\n        require(_quantity > 0);\n        require(_price > 0);\n        require(_startDate < _endDate);\n\n        chestGroups.push(ChestGroup(_name, _quantity, _quantity, _price, _tokenId, _tokenPrice, _startDate, _endDate, _zaCoin, _chance, _slot, _eggFlag));\n        emit CreateChestGroup(msg.sender, _name, _quantity, _quantity, _price, _tokenId, _tokenPrice, _startDate, _endDate, _zaCoin, _chance, _slot, _eggFlag);\n    }\n\n    function _generateRandomZA(uint _rarity) private view returns (uint)\n    {\n        uint rand = uint(keccak256(abi.encodePacked(block.timestamp)));\n        uint diff = pzZAUpperLimit[_rarity] - pzZADownLimit[_rarity];\n        uint result = rand % diff + pzZADownLimit[_rarity];\n        return result;\n    }\n\n    /**\n    * Get ID of item group for the item slot of the chest to open\n    *\n    * @param num                                num for random generation\n    * @param itemSlot                           items arry for the slot\n    *\n    * @return bFindItem                         flag if the available item is found\n    * @return itemGroupId                       Id of Itemgroup\n    *\n    */\n    function _getItemGroupIdFromSlot(uint num, uint[] itemSlot)\n        private\n        view\n        returns(bool, uint256)\n    {\n        uint rand = uint(keccak256(abi.encodePacked(block.timestamp, block.difficulty, num)));\n        rand = rand % 1000;\n        bool[5] memory rarityFlag = [false, false, false, false, false];\n        uint[5] memory rarityItemGroupId;\n\n        uint index = 0;\n\n        uint itemRarity = 0;\n        uint itemGroupId = 0;\n\n        uint _slotQuantity = 0;\n        uint _slotRarity = 0;\n        bool bFindItem = false;\n        // uint\n\n        if (rand < itemChance[PZ_ITEM_COMMON]) {\n            itemRarity = PZ_ITEM_COMMON;\n        } else if (rand < itemChance[PZ_ITEM_UNCOMMON]) {\n            itemRarity = PZ_ITEM_UNCOMMON;\n        } else if (rand < itemChance[PZ_ITEM_RARE]) {\n            itemRarity = PZ_ITEM_RARE;\n        } else if (rand < itemChance[PZ_ITEM_EPIC]) {\n            itemRarity = PZ_ITEM_EPIC;\n        } else if (rand < itemChance[PZ_ITEM_LEGENDARY]) {\n            itemRarity = PZ_ITEM_LEGENDARY;\n        }\n\n        for(index = 0; index < itemSlot.length; index ++) {\n            (,,,,_slotQuantity,, _slotRarity,) = contractItemCore.getItemGroup(itemSlot[index]);\n            if (_slotQuantity > 0) {\n                if (_slotRarity == itemRarity) {\n                    itemGroupId = itemSlot[index];\n                    bFindItem = true;\n                    break;\n                } else {\n                    if (rarityFlag[_slotRarity] == false) {\n                        rarityFlag[_slotRarity] = true;\n                        rarityItemGroupId[_slotRarity] = itemSlot[index];\n                    }\n                }\n            }\n        }\n\n        if( !bFindItem ) {\n            for (index = 0; index < 5; index ++) {\n                if (rarityFlag[index] == true) {\n                    itemRarity = index;\n                    itemGroupId = rarityItemGroupId[index];\n                    bFindItem = true;\n                    break;\n                }\n            }\n        }\n\n        return (bFindItem, itemGroupId);\n    }\n\n    /**\n    * Open item Slots to create Item NFT for buy chest\n    *\n    * @param buyer                          address of Buyer\n    * @param _chestId                       chest Id to buy\n    *\n    */\n    function _openItemSlots(address buyer, uint _chestId) internal\n    {\n        Chest memory chest = chests[_chestId];\n\n        bool bFindItemGroupId = false;\n        uint itemGroupId = 0;\n        uint index = 0;\n        // uint[] memory itemSlot = chest.slot;\n        for (index = 0; index < chest.slot.length; index ++) {\n            (bFindItemGroupId, itemGroupId) = _getItemGroupIdFromSlot(index, chest.slot[index]);\n            if (bFindItemGroupId) {\n                contractItemCore.createItemToBuyer(buyer, itemGroupId);\n                bFindItemGroupId = false;\n            }\n        }\n    }\n\n    /**\n    * Gift Chest to other users\n    *\n    * @param _to                            address of receiver\n    * @param _chestId                       chest Id to gift\n    *\n    */\n    function giftChest(address _to, uint _chestId) public\n    {\n        require(_owns(msg.sender, _chestId));\n        require(_to != address(0x0));\n        _transfer(msg.sender, _to, _chestId);\n        emit GiftChest(msg.sender, _to, _chestId);\n    }\n    \n    /**\n    * Open Chest\n    *\n    * @param _chestId                       chest Id to Open\n    *\n    */\n    function openChest(uint _chestId) public\n    {\n        require(_owns(msg.sender, _chestId));\n\n        Chest memory chest = chests[_chestId];\n\n        //Open Item Slot to create Item and send to Buyer\n        _openItemSlots(msg.sender, _chestId);\n\n        // chests[_chestId].zaCoin = _generateRandomZA();\n\n        //Breed Egg\n        if (chest.eggFlag)\n            contractEggCore.createEggToOwner(msg.sender, now, chest.price, chest.tokenId, chest.tokenPrice, 0, 0);\n\n        //Implementation\n        _transfer(msg.sender, address(0x0), _chestId);\n        delete chests[_chestId];\n\n        emit OpenChest(msg.sender, _chestId);\n    }\n\n    /**\n    * Burn chests\n    *\n    *\n    */\n    function burnChests() public onlyAdmin\n    {\n        uint supply = chestGroups.length;\n\n        for (uint index = 0; index < supply; index ++) {\n            delete chestGroups[index];\n            chestGroups.length--;\n        }\n        // emit BurnChest();\n    }\n\n    /**\n    * Buy Chest\n    *\n    * @param _chestGroupId                          chest Group Id to buy\n    * @param _referrer                              address of referrer\n    * @param bTrxPurchase                           flag whether the purchase is by TRX or TRC10 token\n    *\n    */\n    function buyChest(uint _chestGroupId, address _referrer, uint chestAmount, bool bTrxPurchase) public payable\n    {\n        // require((block.number >= chests[_chestId].startDate) && (block.number <= chests[_chestId].endDate));\n\n        //Implementation\n        ChestGroup memory _chestGroup = chestGroups[_chestGroupId];\n        require(_chestGroup.quantity > chestAmount);\n        uint256 newChestId = 0;\n        uint i = 0;\n\n        if (bTrxPurchase) {\n            require (msg.value == _chestGroup.price * chestAmount);\n            if (_referrer != address(0x0)) {\n                _referrer.transfer(msg.value / 10);\n                addrPool.transfer(msg.value / 10);\n                addrAdmin.transfer(msg.value - msg.value / 10 * 2);\n                // addrAdmin.transfer(msg.value);\n            }\n            for (i = 0; i < chestAmount; i ++) {\n                newChestId = chests.push(Chest(now, _chestGroup.name, _chestGroup.price, _chestGroup.tokenId, 0, _chestGroup.zaCoin, _chestGroup.chance, _chestGroup.slot, _chestGroup.eggFlag)) - 1;\n                chestGroups[_chestGroupId].quantity = chestGroups[_chestGroupId].quantity - 1;\n                _transfer(0, msg.sender, newChestId);\n                emit BuyChest(msg.sender, _chestGroupId, _referrer, bTrxPurchase);\n            }\n        } else {\n            // uint256 _tokenBalance = contractToken.getTokenBalance(msg.sender, PZ_TOKEN_ID);\n            // uint256 _valueInToken = _chestGroup.price * PZ_TOKEN_TRX_PROPOTION;\n            require (msg.tokenid == _chestGroup.tokenId);\n            require (msg.tokenvalue == _chestGroup.tokenPrice * chestAmount);\n        \n            if (_referrer != address(0x0)) {\n                _referrer.transferToken(msg.tokenvalue / 10, msg.tokenid);\n                addrPool.transferToken(msg.tokenvalue / 10, msg.tokenid);\n                addrAdmin.transferToken(msg.tokenvalue - msg.tokenvalue / 10 * 2, msg.tokenid);\n\n                // addrAdmin.transferToken(msg.tokenvalue, msg.tokenid);\n                // contractToken.transferToken(_referrer, _valueInToken / 10, PZ_TOKEN_ID);\n                // contractToken.transferToken(addrPool, _valueInToken / 10, PZ_TOKEN_ID);\n                // contractToken.transferToken(addrAdmin, _valueInToken - _valueInToken / 10 * 2, PZ_TOKEN_ID);\n            }\n            for (i = 0; i < chestAmount; i ++) {\n                newChestId = chests.push(Chest(now, _chestGroup.name, 0, _chestGroup.tokenId, _chestGroup.tokenPrice, _chestGroup.zaCoin, _chestGroup.chance, _chestGroup.slot, _chestGroup.eggFlag)) - 1;\n                chestGroups[_chestGroupId].quantity = chestGroups[_chestGroupId].quantity - 1;\n                _transfer(0, msg.sender, newChestId);\n            }\n            emit BuyChest(msg.sender, _chestGroupId, _referrer, bTrxPurchase);\n        }\n    }\n\n    /**\n    * Get quantity of Chest NFT\n    *\n    *\n    */\n    function getChestsQuantity() external view returns(uint)\n    {\n        return chests.length;\n    }\n\n    /**\n    * Get Chest NFT\n    *\n    * @return name                      chest name\n    * @return price                     chest price\n    * @return zaCoin                    chest zaCoin\n    * @return chance                    chest chance\n    * @return slot                      chest slot\n    *\n    */\n    function getChestById(uint _id) external view returns(\n        uint date, string name, uint price, uint tokenId, uint tokenPrice, uint zaCoin, uint chance, uint[][] slot, bool eggFlag\n        )\n    {\n        Chest memory chest = chests[_id];\n        return (chest.date, chest.name, chest.price, chest.tokenId, chest.tokenPrice, chest.zaCoin, chest.chance, chest.slot, chest.eggFlag);\n    }\n\n    /**\n    * Get quantity of chest group\n    *\n    *\n    */\n    function getChestGroupSupply() external view returns(uint256)\n    {\n        return chestGroups.length;\n    }\n\n    /**\n    * Get Chest Group Info\n    *\n    * @return name                      chest name\n    * @return quantity                  chest quantity\n    * @return startDate                 start Date of chest sale\n    * @return endDate                   end Date of chest sale\n    * @return price                     chest price\n    * @return zaCoin                    chest zaCoin\n    * @return chance                    chest chance\n    * @return slot                      chest slot\n    *\n    */\n    function getChestGroupById(uint _chestGroupId)\n        external\n        view\n        returns(string name, uint quantity, uint totalAmount, uint price, uint tokenId, uint tokenPrice, uint startDate, uint endDate, uint zaCoin, uint chance, uint[][] slot, bool eggFlag)\n    {\n        ChestGroup memory _chestGroup = chestGroups[_chestGroupId];\n        return(_chestGroup.name,\n                _chestGroup.quantity, _chestGroup.totalAmount,\n                _chestGroup.price, _chestGroup.tokenId, _chestGroup.tokenPrice, _chestGroup.startDate,\n                _chestGroup.endDate, _chestGroup.zaCoin, _chestGroup.chance, _chestGroup.slot, _chestGroup.eggFlag);\n    }\n\n    /**\n    * Transfer Chest NFT\n    *\n    * @param _from                              address of sender\n    * @param _to                                address of receiver\n    * @param _chestId                           chest Id to transfer\n    *\n    */\n    function _transfer(address _from, address _to, uint256 _chestId) internal\n    {\n        ownershipChestCount[_to]++;\n        chestIndexToOwner[_chestId] = _to;\n        if (_from != address(0)) {\n            ownershipChestCount[_from]--;\n            // delete itemIndexToApproved[_chestId];\n        }\n\n        emit ChestTransfer(_from, _to, _chestId);\n    }\n\n    /**\n    * Check if the claimer owns item\n    *\n    * @param _claimant                  address of claimer\n    * @param _itemId                    item id to claim\n    *\n    */\n    function _owns(address _claimant, uint256 _itemId) internal view returns (bool) {\n        return chestIndexToOwner[_itemId] == _claimant;\n    }\n\n    /**\n    * Get Owner address of Chest Id\n    *\n    * @param _chestId                   Chest Id to Check\n    *\n    * @return owner                     address of owner\n    *\n    */\n    function ownerOf(uint256 _chestId)\n        external\n        view\n        returns (address owner)\n    {\n        owner = chestIndexToOwner[_chestId];\n\n        require(owner != address(0));\n    }\n\n    /**\n    * Get count of chest NFT belongs to owner\n    *\n    * @param _owner                     address of owner\n    *\n    * @return count                     count of chest NFT\n    *\n    */\n    function balanceOf(address _owner) public view returns (uint256 count) {\n        return ownershipChestCount[_owner];\n    }\n\n    /**\n    * Total count of chest NFT\n    *\n    */\n    function totalSupply() public view returns (uint) {\n        return chests.length - 1;\n    }\n\n    /**\n    * Get chest array of given address\n    *\n    * @return ownerChests                   chests array\n    *\n    */\n    function chestsOfOwner(address _owner) external view returns(uint256[] ownerChests) {\n        uint256 chestCount = balanceOf(_owner);\n\n        if (chestCount == 0) {\n            // Return an empty array\n            return new uint256[](0);\n        } else {\n            uint256[] memory result = new uint256[](chestCount);\n            uint256 totalChests = totalSupply();\n            uint256 resultIndex = 0;\n\n            uint256 chestId;\n\n            for (chestId = 1; chestId <= totalChests; chestId++) {\n                if (chestIndexToOwner[chestId] == _owner) {\n                    result[resultIndex] = chestId;\n                    resultIndex++;\n                }\n            }\n\n            return result;\n        }\n    }\n\n    /**\n    * Check function of Chest contract\n    *\n    */\n    function chestTest() external view returns (address){\n        return contractHeroCore.heroTest();\n    }\n\n    /**\n    * Check function as if this is the Chest contract\n    *\n    */\n    function isChestContract() external pure returns (bool) {\n        return true;\n    }\n}\n",
  "sourcePath": "/Volumes/Backup/workspace/Dave(Tron_NFT)/pizzaHero/contracts/PZChest.sol",
  "compiler": {
    "name": "solc",
    "version": "0.4.25+commit.69a1e720.Emscripten.clang"
  },
  "schemaVersion": "2.0.1",
  "updatedAt": "2020-01-15T17:55:13.453Z"
}