{
  "contractName": "PZChest",
  "abi": [
    {
      "constant": true,
      "inputs": [
        {
          "name": "",
          "type": "uint256"
        }
      ],
      "name": "chestIndexToOwner",
      "outputs": [
        {
          "name": "",
          "type": "address"
        }
      ],
      "payable": false,
      "stateMutability": "view",
      "type": "function"
    },
    {
      "constant": true,
      "inputs": [],
      "name": "contractItemCore",
      "outputs": [
        {
          "name": "",
          "type": "address"
        }
      ],
      "payable": false,
      "stateMutability": "view",
      "type": "function"
    },
    {
      "constant": true,
      "inputs": [
        {
          "name": "",
          "type": "uint256"
        }
      ],
      "name": "chests",
      "outputs": [
        {
          "name": "name",
          "type": "string"
        },
        {
          "name": "price",
          "type": "uint256"
        },
        {
          "name": "zaCoin",
          "type": "uint256"
        },
        {
          "name": "chance",
          "type": "uint256"
        },
        {
          "name": "eggFlag",
          "type": "bool"
        }
      ],
      "payable": false,
      "stateMutability": "view",
      "type": "function"
    },
    {
      "constant": true,
      "inputs": [
        {
          "name": "",
          "type": "address"
        }
      ],
      "name": "ownershipChestCount",
      "outputs": [
        {
          "name": "",
          "type": "uint256"
        }
      ],
      "payable": false,
      "stateMutability": "view",
      "type": "function"
    },
    {
      "constant": true,
      "inputs": [],
      "name": "contractEggCore",
      "outputs": [
        {
          "name": "",
          "type": "address"
        }
      ],
      "payable": false,
      "stateMutability": "view",
      "type": "function"
    },
    {
      "constant": true,
      "inputs": [],
      "name": "contractHeroCore",
      "outputs": [
        {
          "name": "",
          "type": "address"
        }
      ],
      "payable": false,
      "stateMutability": "view",
      "type": "function"
    },
    {
      "constant": true,
      "inputs": [
        {
          "name": "",
          "type": "uint256"
        }
      ],
      "name": "pzZADownLimit",
      "outputs": [
        {
          "name": "",
          "type": "uint256"
        }
      ],
      "payable": false,
      "stateMutability": "view",
      "type": "function"
    },
    {
      "constant": true,
      "inputs": [
        {
          "name": "",
          "type": "uint256"
        }
      ],
      "name": "chestGroups",
      "outputs": [
        {
          "name": "name",
          "type": "string"
        },
        {
          "name": "quantity",
          "type": "uint256"
        },
        {
          "name": "price",
          "type": "uint256"
        },
        {
          "name": "startDate",
          "type": "uint256"
        },
        {
          "name": "endDate",
          "type": "uint256"
        },
        {
          "name": "zaCoin",
          "type": "uint256"
        },
        {
          "name": "chance",
          "type": "uint256"
        },
        {
          "name": "eggFlag",
          "type": "bool"
        }
      ],
      "payable": false,
      "stateMutability": "view",
      "type": "function"
    },
    {
      "constant": true,
      "inputs": [
        {
          "name": "",
          "type": "uint256"
        }
      ],
      "name": "pzZAUpperLimit",
      "outputs": [
        {
          "name": "",
          "type": "uint256"
        }
      ],
      "payable": false,
      "stateMutability": "view",
      "type": "function"
    },
    {
      "inputs": [
        {
          "name": "_heroCore",
          "type": "address"
        },
        {
          "name": "_itemCore",
          "type": "address"
        },
        {
          "name": "_eggCore",
          "type": "address"
        },
        {
          "name": "_pool",
          "type": "address"
        }
      ],
      "payable": false,
      "stateMutability": "nonpayable",
      "type": "constructor"
    },
    {
      "anonymous": false,
      "inputs": [
        {
          "indexed": true,
          "name": "_admin",
          "type": "address"
        },
        {
          "indexed": false,
          "name": "_name",
          "type": "string"
        },
        {
          "indexed": false,
          "name": "_quantity",
          "type": "uint256"
        },
        {
          "indexed": false,
          "name": "_price",
          "type": "uint256"
        },
        {
          "indexed": false,
          "name": "_startDate",
          "type": "uint256"
        },
        {
          "indexed": false,
          "name": "_endDate",
          "type": "uint256"
        },
        {
          "indexed": false,
          "name": "_zaCoin",
          "type": "uint256"
        },
        {
          "indexed": false,
          "name": "_chance",
          "type": "uint256"
        },
        {
          "indexed": false,
          "name": "_slot",
          "type": "uint256[][]"
        },
        {
          "indexed": false,
          "name": "_eggFlag",
          "type": "bool"
        }
      ],
      "name": "CreateChestGroup",
      "type": "event"
    },
    {
      "anonymous": false,
      "inputs": [
        {
          "indexed": true,
          "name": "_admin",
          "type": "address"
        },
        {
          "indexed": true,
          "name": "_newHeroCore",
          "type": "address"
        }
      ],
      "name": "SetHeroCoreAddress",
      "type": "event"
    },
    {
      "anonymous": false,
      "inputs": [
        {
          "indexed": true,
          "name": "_admin",
          "type": "address"
        },
        {
          "indexed": true,
          "name": "_newItemCore",
          "type": "address"
        }
      ],
      "name": "SetItemCoreAddress",
      "type": "event"
    },
    {
      "anonymous": false,
      "inputs": [
        {
          "indexed": true,
          "name": "_admin",
          "type": "address"
        },
        {
          "indexed": true,
          "name": "_newPool",
          "type": "address"
        }
      ],
      "name": "SetPoolAddress",
      "type": "event"
    },
    {
      "anonymous": false,
      "inputs": [
        {
          "indexed": true,
          "name": "_admin",
          "type": "address"
        },
        {
          "indexed": true,
          "name": "_newAdmin",
          "type": "address"
        }
      ],
      "name": "ChangeAdmin",
      "type": "event"
    },
    {
      "anonymous": false,
      "inputs": [
        {
          "indexed": true,
          "name": "_buyer",
          "type": "address"
        },
        {
          "indexed": false,
          "name": "_chestId",
          "type": "uint256"
        }
      ],
      "name": "OpenChest",
      "type": "event"
    },
    {
      "anonymous": false,
      "inputs": [
        {
          "indexed": true,
          "name": "_buyer",
          "type": "address"
        },
        {
          "indexed": false,
          "name": "_chestGroupId",
          "type": "uint256"
        },
        {
          "indexed": false,
          "name": "_referrer",
          "type": "address"
        },
        {
          "indexed": false,
          "name": "bTrxPurchase",
          "type": "bool"
        }
      ],
      "name": "BuyChest",
      "type": "event"
    },
    {
      "anonymous": false,
      "inputs": [
        {
          "indexed": false,
          "name": "burnQuantity",
          "type": "uint256"
        },
        {
          "indexed": false,
          "name": "id",
          "type": "uint256"
        }
      ],
      "name": "BurnChest",
      "type": "event"
    },
    {
      "anonymous": false,
      "inputs": [
        {
          "indexed": false,
          "name": "quantity",
          "type": "uint256"
        },
        {
          "indexed": false,
          "name": "supply",
          "type": "uint256"
        }
      ],
      "name": "CreateChest",
      "type": "event"
    },
    {
      "anonymous": false,
      "inputs": [
        {
          "indexed": true,
          "name": "sender",
          "type": "address"
        },
        {
          "indexed": true,
          "name": "_to",
          "type": "address"
        },
        {
          "indexed": false,
          "name": "_chestId",
          "type": "uint256"
        }
      ],
      "name": "GiftChest",
      "type": "event"
    },
    {
      "anonymous": false,
      "inputs": [
        {
          "indexed": false,
          "name": "from",
          "type": "address"
        },
        {
          "indexed": false,
          "name": "to",
          "type": "address"
        },
        {
          "indexed": false,
          "name": "chestId",
          "type": "uint256"
        }
      ],
      "name": "ChestTransfer",
      "type": "event"
    },
    {
      "anonymous": false,
      "inputs": [
        {
          "indexed": false,
          "name": "itmeType",
          "type": "uint256"
        },
        {
          "indexed": false,
          "name": "quantity",
          "type": "uint256"
        }
      ],
      "name": "ChestCreated",
      "type": "event"
    },
    {
      "constant": false,
      "inputs": [
        {
          "name": "_heroCore",
          "type": "address"
        }
      ],
      "name": "setHeroCoreAddress",
      "outputs": [],
      "payable": false,
      "stateMutability": "nonpayable",
      "type": "function"
    },
    {
      "constant": false,
      "inputs": [
        {
          "name": "_itemCore",
          "type": "address"
        }
      ],
      "name": "setItemCoreAddress",
      "outputs": [],
      "payable": false,
      "stateMutability": "nonpayable",
      "type": "function"
    },
    {
      "constant": false,
      "inputs": [
        {
          "name": "_pool",
          "type": "address"
        }
      ],
      "name": "setPoolAddress",
      "outputs": [],
      "payable": false,
      "stateMutability": "nonpayable",
      "type": "function"
    },
    {
      "constant": false,
      "inputs": [
        {
          "name": "_addrAdmin",
          "type": "address"
        }
      ],
      "name": "changeAdmin",
      "outputs": [],
      "payable": false,
      "stateMutability": "nonpayable",
      "type": "function"
    },
    {
      "constant": false,
      "inputs": [
        {
          "name": "_name",
          "type": "string"
        },
        {
          "name": "_quantity",
          "type": "uint256"
        },
        {
          "name": "_price",
          "type": "uint256"
        },
        {
          "name": "_startDate",
          "type": "uint256"
        },
        {
          "name": "_endDate",
          "type": "uint256"
        },
        {
          "name": "_zaCoin",
          "type": "uint256"
        },
        {
          "name": "_chance",
          "type": "uint256"
        },
        {
          "name": "_slot",
          "type": "uint256[][]"
        },
        {
          "name": "_eggFlag",
          "type": "bool"
        }
      ],
      "name": "createChestGroup",
      "outputs": [],
      "payable": false,
      "stateMutability": "nonpayable",
      "type": "function"
    },
    {
      "constant": false,
      "inputs": [
        {
          "name": "_to",
          "type": "address"
        },
        {
          "name": "_chestId",
          "type": "uint256"
        }
      ],
      "name": "giftChest",
      "outputs": [],
      "payable": false,
      "stateMutability": "nonpayable",
      "type": "function"
    },
    {
      "constant": false,
      "inputs": [
        {
          "name": "_chestId",
          "type": "uint256"
        }
      ],
      "name": "openChest",
      "outputs": [],
      "payable": false,
      "stateMutability": "nonpayable",
      "type": "function"
    },
    {
      "constant": false,
      "inputs": [],
      "name": "burnChests",
      "outputs": [],
      "payable": false,
      "stateMutability": "nonpayable",
      "type": "function"
    },
    {
      "constant": false,
      "inputs": [
        {
          "name": "_chestGroupId",
          "type": "uint256"
        },
        {
          "name": "_referrer",
          "type": "address"
        },
        {
          "name": "bTrxPurchase",
          "type": "bool"
        }
      ],
      "name": "buyChest",
      "outputs": [],
      "payable": true,
      "stateMutability": "payable",
      "type": "function"
    },
    {
      "constant": true,
      "inputs": [],
      "name": "getChestsQuantity",
      "outputs": [
        {
          "name": "",
          "type": "uint256"
        }
      ],
      "payable": false,
      "stateMutability": "view",
      "type": "function"
    },
    {
      "constant": true,
      "inputs": [
        {
          "name": "_id",
          "type": "uint256"
        }
      ],
      "name": "getChestById",
      "outputs": [
        {
          "name": "name",
          "type": "string"
        },
        {
          "name": "price",
          "type": "uint256"
        },
        {
          "name": "zaCoin",
          "type": "uint256"
        },
        {
          "name": "chance",
          "type": "uint256"
        },
        {
          "name": "slot",
          "type": "uint256[][]"
        },
        {
          "name": "eggFlag",
          "type": "bool"
        }
      ],
      "payable": false,
      "stateMutability": "view",
      "type": "function"
    },
    {
      "constant": true,
      "inputs": [],
      "name": "getChestGroupSupply",
      "outputs": [
        {
          "name": "",
          "type": "uint256"
        }
      ],
      "payable": false,
      "stateMutability": "view",
      "type": "function"
    },
    {
      "constant": true,
      "inputs": [
        {
          "name": "_chestGroupId",
          "type": "uint256"
        }
      ],
      "name": "getChestGroupById",
      "outputs": [
        {
          "name": "name",
          "type": "string"
        },
        {
          "name": "quantity",
          "type": "uint256"
        },
        {
          "name": "price",
          "type": "uint256"
        },
        {
          "name": "startDate",
          "type": "uint256"
        },
        {
          "name": "endDate",
          "type": "uint256"
        },
        {
          "name": "zaCoin",
          "type": "uint256"
        },
        {
          "name": "chance",
          "type": "uint256"
        },
        {
          "name": "slot",
          "type": "uint256[][]"
        },
        {
          "name": "eggFlag",
          "type": "bool"
        }
      ],
      "payable": false,
      "stateMutability": "view",
      "type": "function"
    },
    {
      "constant": true,
      "inputs": [
        {
          "name": "_chestId",
          "type": "uint256"
        }
      ],
      "name": "ownerOf",
      "outputs": [
        {
          "name": "owner",
          "type": "address"
        }
      ],
      "payable": false,
      "stateMutability": "view",
      "type": "function"
    },
    {
      "constant": true,
      "inputs": [
        {
          "name": "_owner",
          "type": "address"
        }
      ],
      "name": "balanceOf",
      "outputs": [
        {
          "name": "count",
          "type": "uint256"
        }
      ],
      "payable": false,
      "stateMutability": "view",
      "type": "function"
    },
    {
      "constant": true,
      "inputs": [],
      "name": "totalSupply",
      "outputs": [
        {
          "name": "",
          "type": "uint256"
        }
      ],
      "payable": false,
      "stateMutability": "view",
      "type": "function"
    },
    {
      "constant": true,
      "inputs": [
        {
          "name": "_owner",
          "type": "address"
        }
      ],
      "name": "chestsOfOwner",
      "outputs": [
        {
          "name": "ownerChests",
          "type": "uint256[]"
        }
      ],
      "payable": false,
      "stateMutability": "view",
      "type": "function"
    },
    {
      "constant": true,
      "inputs": [],
      "name": "chestTest",
      "outputs": [
        {
          "name": "",
          "type": "address"
        }
      ],
      "payable": false,
      "stateMutability": "view",
      "type": "function"
    },
    {
      "constant": true,
      "inputs": [],
      "name": "isChestContract",
      "outputs": [
        {
          "name": "",
          "type": "bool"
        }
      ],
      "payable": false,
      "stateMutability": "pure",
      "type": "function"
    }
  ],
  "bytecode": "0x60806040523480156200001157600080fd5b50d380156200001f57600080fd5b50d280156200002d57600080fd5b506040516080806200495e83398101806040526200004f919081019062000515565b600073ffffffffffffffffffffffffffffffffffffffff168473ffffffffffffffffffffffffffffffffffffffff16141515156200008c57600080fd5b600073ffffffffffffffffffffffffffffffffffffffff168373ffffffffffffffffffffffffffffffffffffffff1614151515620000c957600080fd5b600073ffffffffffffffffffffffffffffffffffffffff168273ffffffffffffffffffffffffffffffffffffffff16141515156200010657600080fd5b600073ffffffffffffffffffffffffffffffffffffffff168173ffffffffffffffffffffffffffffffffffffffff16141515156200014357600080fd5b33601660006101000a81548173ffffffffffffffffffffffffffffffffffffffff021916908373ffffffffffffffffffffffffffffffffffffffff16021790555083601160006101000a81548173ffffffffffffffffffffffffffffffffffffffff021916908373ffffffffffffffffffffffffffffffffffffffff16021790555082601260006101000a81548173ffffffffffffffffffffffffffffffffffffffff021916908373ffffffffffffffffffffffffffffffffffffffff16021790555081601360006101000a81548173ffffffffffffffffffffffffffffffffffffffff021916908373ffffffffffffffffffffffffffffffffffffffff16021790555080601460006101000a81548173ffffffffffffffffffffffffffffffffffffffff021916908373ffffffffffffffffffffffffffffffffffffffff160217905550601260009054906101000a900473ffffffffffffffffffffffffffffffffffffffff16601760006101000a81548173ffffffffffffffffffffffffffffffffffffffff021916908373ffffffffffffffffffffffffffffffffffffffff160217905550601160009054906101000a900473ffffffffffffffffffffffffffffffffffffffff16601960006101000a81548173ffffffffffffffffffffffffffffffffffffffff021916908373ffffffffffffffffffffffffffffffffffffffff160217905550601360009054906101000a900473ffffffffffffffffffffffffffffffffffffffff16601860006101000a81548173ffffffffffffffffffffffffffffffffffffffff021916908373ffffffffffffffffffffffffffffffffffffffff1602179055506101b860086000600581101515620003c557fe5b01819055506102e460086001600581101515620003de57fe5b01819055506103bb60086002600581101515620003f757fe5b01819055506103e3600860036005811015156200041057fe5b01819055506103e8600860046005811015156200042957fe5b01819055506161a86000806004811015156200044157fe5b0181905550612710600060016004811015156200045a57fe5b0181905550612710600060026004811015156200047357fe5b0181905550614e20600060036004811015156200048c57fe5b018190555061271060046000600481101515620004a557fe5b018190555061138860046001600481101515620004be57fe5b018190555061138860046002600481101515620004d757fe5b0181905550611b5860046003600481101515620004f057fe5b018190555050505050620005a1565b60006200050d825162000581565b905092915050565b600080600080608085870312156200052c57600080fd5b60006200053c87828801620004ff565b94505060206200054f87828801620004ff565b93505060406200056287828801620004ff565b92505060606200057587828801620004ff565b91505092959194509250565b600073ffffffffffffffffffffffffffffffffffffffff82169050919050565b6143ad80620005b16000396000f30060806040526004361061016a576000357c0100000000000000000000000000000000000000000000000000000000900463ffffffff16806303a92a0f1461016f5780630936183c146101c657806318160ddd1461020957806319c6f7bf1461024e5780632e01c4aa1461026a5780632f7d747f146102af57806336541cc5146102f457806336883e801461034f5780634558f4c8146103a657806353b4e8fa146103eb578063540ec5bd146104305780636075eb7d146104755780636352211e146104b85780636a05474f1461050f57806370a08231146105665780637bb3cd3f146105bd57806383320ac21461060257806389679d62146106455780638f2839701461068a578063a8e6a624146106cd578063ba9b769014610724578063c176b10114610780578063c42b35dd146107b1578063cb0e2c5a1461080f578063d23ff58414610852578063d5e26392146108a9578063e51a588a146108ec578063e9e15b4f1461094b575b600080fd5b34801561017b57600080fd5b50d3801561018857600080fd5b50d2801561019557600080fd5b506101b060048036036101ab9190810190613b52565b61098e565b6040516101bd9190613dc3565b60405180910390f35b3480156101d257600080fd5b50d380156101df57600080fd5b50d280156101ec57600080fd5b506102076004803603610202919081019061397c565b6109c1565b005b34801561021557600080fd5b50d3801561022257600080fd5b50d2801561022f57600080fd5b50610238610a86565b60405161024591906140ec565b60405180910390f35b61026860048036036102639190810190613b7b565b610a96565b005b34801561027657600080fd5b50d3801561028357600080fd5b50d2801561029057600080fd5b50610299611387565b6040516102a69190613dc3565b60405180910390f35b3480156102bb57600080fd5b50d380156102c857600080fd5b50d280156102d557600080fd5b506102de61144c565b6040516102eb9190613ee8565b60405180910390f35b34801561030057600080fd5b50d3801561030d57600080fd5b50d2801561031a57600080fd5b5061033560048036036103309190810190613b52565b611472565b60405161034695949392919061400d565b60405180910390f35b34801561035b57600080fd5b50d3801561036857600080fd5b50d2801561037557600080fd5b50610390600480360361038b919081019061392a565b61155c565b60405161039d91906140ec565b60405180910390f35b3480156103b257600080fd5b50d380156103bf57600080fd5b50d280156103cc57600080fd5b506103d5611574565b6040516103e29190613eb2565b60405180910390f35b3480156103f757600080fd5b50d3801561040457600080fd5b50d2801561041157600080fd5b5061041a61159a565b6040516104279190613ecd565b60405180910390f35b34801561043c57600080fd5b50d3801561044957600080fd5b50d2801561045657600080fd5b5061045f6115c0565b60405161046c9190613e97565b60405180910390f35b34801561048157600080fd5b50d3801561048e57600080fd5b50d2801561049b57600080fd5b506104b660048036036104b19190810190613b52565b6115c9565b005b3480156104c457600080fd5b50d380156104d157600080fd5b50d280156104de57600080fd5b506104f960048036036104f49190810190613b52565b611918565b6040516105069190613dc3565b60405180910390f35b34801561051b57600080fd5b50d3801561052857600080fd5b50d2801561053557600080fd5b50610550600480360361054b9190810190613b52565b611991565b60405161055d91906140ec565b60405180910390f35b34801561057257600080fd5b50d3801561057f57600080fd5b50d2801561058c57600080fd5b506105a760048036036105a2919081019061392a565b6119ab565b6040516105b491906140ec565b60405180910390f35b3480156105c957600080fd5b50d380156105d657600080fd5b50d280156105e357600080fd5b506105ec6119f4565b6040516105f991906140ec565b60405180910390f35b34801561060e57600080fd5b50d3801561061b57600080fd5b50d2801561062857600080fd5b50610643600480360361063e9190810190613a5c565b611a01565b005b34801561065157600080fd5b50d3801561065e57600080fd5b50d2801561066b57600080fd5b50610674611bfc565b60405161068191906140ec565b60405180910390f35b34801561069657600080fd5b50d380156106a357600080fd5b50d280156106b057600080fd5b506106cb60048036036106c6919081019061392a565b611c09565b005b3480156106d957600080fd5b50d380156106e657600080fd5b50d280156106f357600080fd5b5061070e6004803603610709919081019061392a565b611d25565b60405161071b9190613e75565b60405180910390f35b34801561073057600080fd5b50d3801561073d57600080fd5b50d2801561074a57600080fd5b5061076560048036036107609190810190613b52565b611e72565b60405161077796959493929190613f03565b60405180910390f35b34801561078c57600080fd5b50d3801561079957600080fd5b50d280156107a657600080fd5b506107af612064565b005b3480156107bd57600080fd5b50d380156107ca57600080fd5b50d280156107d757600080fd5b506107f260048036036107ed9190810190613b52565b612183565b604051610806989796959493929190614067565b60405180910390f35b34801561081b57600080fd5b50d3801561082857600080fd5b50d2801561083557600080fd5b50610850600480360361084b919081019061392a565b61227f565b005b34801561085e57600080fd5b50d3801561086b57600080fd5b50d2801561087857600080fd5b50610893600480360361088e9190810190613b52565b6124e7565b6040516108a091906140ec565b60405180910390f35b3480156108b557600080fd5b50d380156108c257600080fd5b50d280156108cf57600080fd5b506108ea60048036036108e5919081019061392a565b612501565b005b3480156108f857600080fd5b50d3801561090557600080fd5b50d2801561091257600080fd5b5061092d60048036036109289190810190613b52565b612769565b60405161094299989796959493929190613f72565b60405180910390f35b34801561095757600080fd5b50d3801561096457600080fd5b50d2801561097157600080fd5b5061098c6004803603610987919081019061392a565b612998565b005b600f6020528060005260406000206000915054906101000a900473ffffffffffffffffffffffffffffffffffffffff1681565b6109cb3382612af0565b15156109d657600080fd5b600073ffffffffffffffffffffffffffffffffffffffff168273ffffffffffffffffffffffffffffffffffffffff1614151515610a1257600080fd5b610a1d338383612b5c565b8173ffffffffffffffffffffffffffffffffffffffff163373ffffffffffffffffffffffffffffffffffffffff167fb4da2aea3fd257ead1af3bb5e5560a95323b82734457f971a8141a7ca028e93c83604051610a7a91906140ec565b60405180910390a35050565b60006001600d8054905003905090565b610a9e613380565b6000600e85815481101515610aaf57fe5b90600052602060002090600902016101206040519081016040529081600082018054600181600116156101000203166002900480601f016020809104026020016040519081016040528092919081815260200182805460018160011615610100020316600290048015610b635780601f10610b3857610100808354040283529160200191610b63565b820191906000526020600020905b815481529060010190602001808311610b4657829003601f168201915b5050505050815260200160018201548152602001600282015481526020016003820154815260200160048201548152602001600582015481526020016006820154815260200160078201805480602002602001604051908101604052809291908181526020016000905b82821015610c3f57838290600052602060002001805480602002602001604051908101604052809291908181526020018280548015610c2b57602002820191906000526020600020905b815481526020019060010190808311610c17575b505050505081526020019060010190610bcd565b5050505081526020016008820160009054906101000a900460ff161515151581525050915060008260200151111515610c7757600080fd5b600090508215610fa7578160400151341415610fa257600073ffffffffffffffffffffffffffffffffffffffff168473ffffffffffffffffffffffffffffffffffffffff16141515610e06578373ffffffffffffffffffffffffffffffffffffffff166108fc600a34811515610ce957fe5b049081150290604051600060405180830381858888f19350505050158015610d15573d6000803e3d6000fd5b50601460009054906101000a900473ffffffffffffffffffffffffffffffffffffffff1673ffffffffffffffffffffffffffffffffffffffff166108fc600a34811515610d5e57fe5b049081150290604051600060405180830381858888f19350505050158015610d8a573d6000803e3d6000fd5b50601660009054906101000a900473ffffffffffffffffffffffffffffffffffffffff1673ffffffffffffffffffffffffffffffffffffffff166108fc6002600a34811515610dd557fe5b040234039081150290604051600060405180830381858888f19350505050158015610e04573d6000803e3d6000fd5b505b6001600d60c06040519081016040528085600001518152602001856040015181526020018560a0015181526020018560c0015181526020018560e0015181526020018561010001511515815250908060018154018082558091505090600182039060005260206000209060060201600090919290919091506000820151816000019080519060200190610e9a9291906133cf565b506020820151816001015560408201518160020155606082015181600301556080820151816004019080519060200190610ed592919061344f565b5060a08201518160050160006101000a81548160ff02191690831515021790555050500390506001600e86815481101515610f0c57fe5b90600052602060002090600902016001015403600e86815481101515610f2e57fe5b906000526020600020906009020160010181905550610f4f60003383612b5c565b3373ffffffffffffffffffffffffffffffffffffffff167f3af1f8fcc504ff780e5374a01a60d80b13ce7931cea6ebc8a5fdff94491d0bce868686604051610f9993929190614107565b60405180910390a25b611380565b6001826040015102d2141561137f57600073ffffffffffffffffffffffffffffffffffffffff168473ffffffffffffffffffffffffffffffffffffffff161415156111e3578373ffffffffffffffffffffffffffffffffffffffff166108fc600ad281151561101257fe5b049081150290d38015801561102657600080fd5b50806780000000000000001115801561103e57600080fd5b5080620f42401015801561105157600080fd5b5060405160006040518083038185878a8ad094505050505015801561107a573d6000803e3d6000fd5b50601460009054906101000a900473ffffffffffffffffffffffffffffffffffffffff1673ffffffffffffffffffffffffffffffffffffffff166108fc600ad28115156110c357fe5b049081150290d3801580156110d757600080fd5b5080678000000000000000111580156110ef57600080fd5b5080620f42401015801561110257600080fd5b5060405160006040518083038185878a8ad094505050505015801561112b573d6000803e3d6000fd5b50601660009054906101000a900473ffffffffffffffffffffffffffffffffffffffff1673ffffffffffffffffffffffffffffffffffffffff166108fc6002600ad281151561117657fe5b0402d2039081150290d38015801561118d57600080fd5b5080678000000000000000111580156111a557600080fd5b5080620f4240101580156111b857600080fd5b5060405160006040518083038185878a8ad09450505050501580156111e1573d6000803e3d6000fd5b505b6001600d60c06040519081016040528085600001518152602001856040015181526020018560a0015181526020018560c0015181526020018560e00151815260200185610100015115158152509080600181540180825580915050906001820390600052602060002090600602016000909192909190915060008201518160000190805190602001906112779291906133cf565b5060208201518160010155604082015181600201556060820151816003015560808201518160040190805190602001906112b292919061344f565b5060a08201518160050160006101000a81548160ff02191690831515021790555050500390506001600e868154811015156112e957fe5b90600052602060002090600902016001015403600e8681548110151561130b57fe5b90600052602060002090600902016001018190555061132c60003383612b5c565b3373ffffffffffffffffffffffffffffffffffffffff167f3af1f8fcc504ff780e5374a01a60d80b13ce7931cea6ebc8a5fdff94491d0bce86868660405161137693929190614107565b60405180910390a25b5b5050505050565b6000601960009054906101000a900473ffffffffffffffffffffffffffffffffffffffff1673ffffffffffffffffffffffffffffffffffffffff1663bc82b93b6040518163ffffffff167c0100000000000000000000000000000000000000000000000000000000028152600401602060405180830381600087803b15801561140f57600080fd5b505af1158015611423573d6000803e3d6000fd5b505050506040513d601f19601f820116820180604052506114479190810190613953565b905090565b601760009054906101000a900473ffffffffffffffffffffffffffffffffffffffff1681565b600d8181548110151561148157fe5b9060005260206000209060060201600091509050806000018054600181600116156101000203166002900480601f01602080910402602001604051908101604052809291908181526020018280546001816001161561010002031660029004801561152d5780601f106115025761010080835404028352916020019161152d565b820191906000526020600020905b81548152906001019060200180831161151057829003601f168201915b5050505050908060010154908060020154908060030154908060050160009054906101000a900460ff16905085565b60106020528060005260406000206000915090505481565b601860009054906101000a900473ffffffffffffffffffffffffffffffffffffffff1681565b601960009054906101000a900473ffffffffffffffffffffffffffffffffffffffff1681565b60006001905090565b6115d16134af565b6115db3383612af0565b15156115e657600080fd5b600d828154811015156115f557fe5b906000526020600020906006020160c06040519081016040529081600082018054600181600116156101000203166002900480601f0160208091040260200160405190810160405280929190818152602001828054600181600116156101000203166002900480156116a85780601f1061167d576101008083540402835291602001916116a8565b820191906000526020600020905b81548152906001019060200180831161168b57829003601f168201915b5050505050815260200160018201548152602001600282015481526020016003820154815260200160048201805480602002602001604051908101604052809291908181526020016000905b828210156117665783829060005260206000200180548060200260200160405190810160405280929190818152602001828054801561175257602002820191906000526020600020905b81548152602001906001019080831161173e575b5050505050815260200190600101906116f4565b5050505081526020016005820160009054906101000a900460ff16151515158152505090506117953383612cc4565b8060a001511561184e57601860009054906101000a900473ffffffffffffffffffffffffffffffffffffffff1673ffffffffffffffffffffffffffffffffffffffff1663e1162569336000806040518463ffffffff167c010000000000000000000000000000000000000000000000000000000002815260040161181b93929190613e15565b600060405180830381600087803b15801561183557600080fd5b505af1158015611849573d6000803e3d6000fd5b505050505b61185a33600084612b5c565b600d8281548110151561186957fe5b90600052602060002090600602016000808201600061188891906134e8565b6001820160009055600282016000905560038201600090556004820160006118b09190613530565b6005820160006101000a81549060ff021916905550503373ffffffffffffffffffffffffffffffffffffffff167f46c93111dd8c7b802311d4e633f37f328d3ab5596290965602e99706395af7d68360405161190c91906140ec565b60405180910390a25050565b6000600f600083815260200190815260200160002060009054906101000a900473ffffffffffffffffffffffffffffffffffffffff169050600073ffffffffffffffffffffffffffffffffffffffff168173ffffffffffffffffffffffffffffffffffffffff161415151561198c57600080fd5b919050565b6004816004811015156119a057fe5b016000915090505481565b6000601060008373ffffffffffffffffffffffffffffffffffffffff1673ffffffffffffffffffffffffffffffffffffffff168152602001908152602001600020549050919050565b6000600d80549050905090565b601660009054906101000a900473ffffffffffffffffffffffffffffffffffffffff1673ffffffffffffffffffffffffffffffffffffffff163373ffffffffffffffffffffffffffffffffffffffff16141515611a5d57600080fd5b600088111515611a6c57600080fd5b600087111515611a7b57600080fd5b8486101515611a8957600080fd5b600e610120604051908101604052808b81526020018a8152602001898152602001888152602001878152602001868152602001858152602001848152602001831515815250908060018154018082558091505090600182039060005260206000209060090201600090919290919091506000820151816000019080519060200190611b159291906133cf565b506020820151816001015560408201518160020155606082015181600301556080820151816004015560a0820151816005015560c0820151816006015560e0820151816007019080519060200190611b6e92919061344f565b506101008201518160080160006101000a81548160ff0219169083151502179055505050503373ffffffffffffffffffffffffffffffffffffffff167f83cad539a63dfacc76ed806a560c9185476564e1bc096303070f87c9223a915c8a8a8a8a8a8a8a8a8a604051611be999989796959493929190613f72565b60405180910390a2505050505050505050565b6000600e80549050905090565b601660009054906101000a900473ffffffffffffffffffffffffffffffffffffffff1673ffffffffffffffffffffffffffffffffffffffff163373ffffffffffffffffffffffffffffffffffffffff16141515611c6557600080fd5b80601660006101000a81548173ffffffffffffffffffffffffffffffffffffffff021916908373ffffffffffffffffffffffffffffffffffffffff1602179055508073ffffffffffffffffffffffffffffffffffffffff16601660009054906101000a900473ffffffffffffffffffffffffffffffffffffffff1673ffffffffffffffffffffffffffffffffffffffff167fcf9b665e0639e0b81a8db37b60ac7ddf45aeb1b484e11adeb7dff4bf4a3a625860405160405180910390a350565b6060600060606000806000611d39876119ab565b94506000851415611d7c576000604051908082528060200260200182016040528015611d745781602001602082028038833980820191505090505b509550611e68565b84604051908082528060200260200182016040528015611dab5781602001602082028038833980820191505090505b509350611db6610a86565b925060009150600190505b8281111515611e64578673ffffffffffffffffffffffffffffffffffffffff16600f600083815260200190815260200160002060009054906101000a900473ffffffffffffffffffffffffffffffffffffffff1673ffffffffffffffffffffffffffffffffffffffff161415611e5757808483815181101515611e4057fe5b906020019060200201818152505081806001019250505b8080600101915050611dc1565b8395505b5050505050919050565b6060600080600060606000611e856134af565b600d88815481101515611e9457fe5b906000526020600020906006020160c06040519081016040529081600082018054600181600116156101000203166002900480601f016020809104026020016040519081016040528092919081815260200182805460018160011615610100020316600290048015611f475780601f10611f1c57610100808354040283529160200191611f47565b820191906000526020600020905b815481529060010190602001808311611f2a57829003601f168201915b5050505050815260200160018201548152602001600282015481526020016003820154815260200160048201805480602002602001604051908101604052809291908181526020016000905b8282101561200557838290600052602060002001805480602002602001604051908101604052809291908181526020018280548015611ff157602002820191906000526020600020905b815481526020019060010190808311611fdd575b505050505081526020019060010190611f93565b5050505081526020016005820160009054906101000a900460ff1615151515815250509050806000015181602001518260400151836060015184608001518560a001518595508191509650965096509650965096505091939550919395565b600080601660009054906101000a900473ffffffffffffffffffffffffffffffffffffffff1673ffffffffffffffffffffffffffffffffffffffff163373ffffffffffffffffffffffffffffffffffffffff161415156120c357600080fd5b600e805490509150600090505b8181101561217f57600e818154811015156120e757fe5b90600052602060002090600902016000808201600061210691906134e8565b6001820160009055600282016000905560038201600090556004820160009055600582016000905560068201600090556007820160006121469190613530565b6008820160006101000a81549060ff02191690555050600e8054809190600190036121719190613551565b5080806001019150506120d0565b5050565b600e8181548110151561219257fe5b9060005260206000209060090201600091509050806000018054600181600116156101000203166002900480601f01602080910402602001604051908101604052809291908181526020018280546001816001161561010002031660029004801561223e5780601f106122135761010080835404028352916020019161223e565b820191906000526020600020905b81548152906001019060200180831161222157829003601f168201915b5050505050908060010154908060020154908060030154908060040154908060050154908060060154908060080160009054906101000a900460ff16905088565b6000601660009054906101000a900473ffffffffffffffffffffffffffffffffffffffff1673ffffffffffffffffffffffffffffffffffffffff163373ffffffffffffffffffffffffffffffffffffffff161415156122dd57600080fd5b600073ffffffffffffffffffffffffffffffffffffffff168273ffffffffffffffffffffffffffffffffffffffff161415151561231957600080fd5b81601260006101000a81548173ffffffffffffffffffffffffffffffffffffffff021916908373ffffffffffffffffffffffffffffffffffffffff160217905550601260009054906101000a900473ffffffffffffffffffffffffffffffffffffffff1690508073ffffffffffffffffffffffffffffffffffffffff16635461c5f96040518163ffffffff167c0100000000000000000000000000000000000000000000000000000000028152600401602060405180830381600087803b1580156123e357600080fd5b505af11580156123f7573d6000803e3d6000fd5b505050506040513d601f19601f8201168201806040525061241b91908101906139b8565b151561242657600080fd5b80601760006101000a81548173ffffffffffffffffffffffffffffffffffffffff021916908373ffffffffffffffffffffffffffffffffffffffff1602179055508173ffffffffffffffffffffffffffffffffffffffff16601660009054906101000a900473ffffffffffffffffffffffffffffffffffffffff1673ffffffffffffffffffffffffffffffffffffffff167f075c423fa08481d6748b1ef2f69989b6b41ab80837686fc8dd5c2492d88d7b9660405160405180910390a35050565b6000816004811015156124f657fe5b016000915090505481565b6000601660009054906101000a900473ffffffffffffffffffffffffffffffffffffffff1673ffffffffffffffffffffffffffffffffffffffff163373ffffffffffffffffffffffffffffffffffffffff1614151561255f57600080fd5b600073ffffffffffffffffffffffffffffffffffffffff168273ffffffffffffffffffffffffffffffffffffffff161415151561259b57600080fd5b81601160006101000a81548173ffffffffffffffffffffffffffffffffffffffff021916908373ffffffffffffffffffffffffffffffffffffffff160217905550601160009054906101000a900473ffffffffffffffffffffffffffffffffffffffff1690508073ffffffffffffffffffffffffffffffffffffffff1663b1e4f01f6040518163ffffffff167c0100000000000000000000000000000000000000000000000000000000028152600401602060405180830381600087803b15801561266557600080fd5b505af1158015612679573d6000803e3d6000fd5b505050506040513d601f19601f8201168201806040525061269d91908101906139b8565b15156126a857600080fd5b80601960006101000a81548173ffffffffffffffffffffffffffffffffffffffff021916908373ffffffffffffffffffffffffffffffffffffffff1602179055508173ffffffffffffffffffffffffffffffffffffffff16601660009054906101000a900473ffffffffffffffffffffffffffffffffffffffff1673ffffffffffffffffffffffffffffffffffffffff167f397cd66e5762b28b138e6e8193ac3a549da9b184f1f187178be7c5b382c316d160405160405180910390a35050565b606060008060008060008060606000612780613380565b600e8b81548110151561278f57fe5b90600052602060002090600902016101206040519081016040529081600082018054600181600116156101000203166002900480601f0160208091040260200160405190810160405280929190818152602001828054600181600116156101000203166002900480156128435780601f1061281857610100808354040283529160200191612843565b820191906000526020600020905b81548152906001019060200180831161282657829003601f168201915b5050505050815260200160018201548152602001600282015481526020016003820154815260200160048201548152602001600582015481526020016006820154815260200160078201805480602002602001604051908101604052809291908181526020016000905b8282101561291f5783829060005260206000200180548060200260200160405190810160405280929190818152602001828054801561290b57602002820191906000526020600020905b8154815260200190600101908083116128f7575b5050505050815260200190600101906128ad565b5050505081526020016008820160009054906101000a900460ff1615151515815250509050806000015181602001518260400151836060015184608001518560a001518660c001518760e00151886101000151889850819150995099509950995099509950995099509950509193959799909294969850565b601660009054906101000a900473ffffffffffffffffffffffffffffffffffffffff1673ffffffffffffffffffffffffffffffffffffffff163373ffffffffffffffffffffffffffffffffffffffff161415156129f457600080fd5b600073ffffffffffffffffffffffffffffffffffffffff168173ffffffffffffffffffffffffffffffffffffffff1614151515612a3057600080fd5b80601460006101000a81548173ffffffffffffffffffffffffffffffffffffffff021916908373ffffffffffffffffffffffffffffffffffffffff1602179055508073ffffffffffffffffffffffffffffffffffffffff16601660009054906101000a900473ffffffffffffffffffffffffffffffffffffffff1673ffffffffffffffffffffffffffffffffffffffff167f8353f2ec2d93e5b3f4e1e9f3fa7ce3c8e5ec8bfd6c0fc95f39f6ed23033e7bc660405160405180910390a350565b60008273ffffffffffffffffffffffffffffffffffffffff16600f600084815260200190815260200160002060009054906101000a900473ffffffffffffffffffffffffffffffffffffffff1673ffffffffffffffffffffffffffffffffffffffff1614905092915050565b601060008373ffffffffffffffffffffffffffffffffffffffff1673ffffffffffffffffffffffffffffffffffffffff1681526020019081526020016000206000815480929190600101919050555081600f600083815260200190815260200160002060006101000a81548173ffffffffffffffffffffffffffffffffffffffff021916908373ffffffffffffffffffffffffffffffffffffffff160217905550600073ffffffffffffffffffffffffffffffffffffffff168373ffffffffffffffffffffffffffffffffffffffff16141515612c8457601060008473ffffffffffffffffffffffffffffffffffffffff1673ffffffffffffffffffffffffffffffffffffffff16815260200190815260200160002060008154809291906001900391905055505b7f5fa5f8538fe52864231df4d67901199394269477d8d71a12e1418af8a1c9f18a838383604051612cb793929190613dde565b60405180910390a1505050565b612ccc6134af565b6000806000600d85815481101515612ce057fe5b906000526020600020906006020160c06040519081016040529081600082018054600181600116156101000203166002900480601f016020809104026020016040519081016040528092919081815260200182805460018160011615610100020316600290048015612d935780601f10612d6857610100808354040283529160200191612d93565b820191906000526020600020905b815481529060010190602001808311612d7657829003601f168201915b5050505050815260200160018201548152602001600282015481526020016003820154815260200160048201805480602002602001604051908101604052809291908181526020016000905b82821015612e5157838290600052602060002001805480602002602001604051908101604052809291908181526020018280548015612e3d57602002820191906000526020600020905b815481526020019060010190808311612e29575b505050505081526020019060010190612ddf565b5050505081526020016005820160009054906101000a900460ff1615151515815250509350600092506000915060009050600090505b836080015151811015612f8457612eb981856080015183815181101515612eaa57fe5b90602001906020020151612f8c565b80935081945050508215612f7757601760009054906101000a900473ffffffffffffffffffffffffffffffffffffffff1673ffffffffffffffffffffffffffffffffffffffff16637d4cb74e87846040518363ffffffff167c0100000000000000000000000000000000000000000000000000000000028152600401612f40929190613e4c565b600060405180830381600087803b158015612f5a57600080fd5b505af1158015612f6e573d6000803e3d6000fd5b50505050600092505b8080600101915050612e87565b505050505050565b6000806000612f99613583565b612fa16135a6565b60008060008060008042448e6040516020018084815260200183815260200182815260200193505050506040516020818303038152906040526040518082805190602001908083835b60208310151561300f5780518252602082019150602081019050602083039250612fea565b6001836020036101000a03801982511681845116808217855250505050505090500191505060405180910390206001900498506103e88981151561304f57fe5b06985060a06040519081016040528060001515151581526020016000151515158152602001600015151515815260200160001515151581526020016000151515158152509750600095506000945060009350600092506000915060009050600860006005811015156130bd57fe5b01548910156130cf5760009450613157565b600860016005811015156130df57fe5b01548910156130f15760019450613156565b6008600260058110151561310157fe5b01548910156131135760029450613155565b6008600360058110151561312357fe5b01548910156131355760039450613154565b6008600460058110151561314557fe5b015489101561315357600494505b5b5b5b5b600095505b8b5186101561330757601760009054906101000a900473ffffffffffffffffffffffffffffffffffffffff1673ffffffffffffffffffffffffffffffffffffffff1663019d90528d888151811015156131b157fe5b906020019060200201516040518263ffffffff167c01000000000000000000000000000000000000000000000000000000000281526004016131f391906140ec565b600060405180830381600087803b15801561320d57600080fd5b505af1158015613221573d6000803e3d6000fd5b505050506040513d6000823e3d601f19601f8201168201806040525061324a91908101906139e1565b9091925050809350819450505060008311156132fa578482141561328b578b8681518110151561327657fe5b90602001906020020151935060019050613307565b60001515888360058110151561329d57fe5b6020020151151514156132f957600188836005811015156132ba57fe5b6020020190151590811515815250508b868151811015156132d757fe5b9060200190602002015187836005811015156132ef57fe5b6020020181815250505b5b858060010196505061315c565b80151561336a57600095505b60058610156133695760011515888760058110151561332e57fe5b60200201511515141561335c57859450868660058110151561334c57fe5b6020020151935060019050613369565b8580600101965050613313565b5b80849a509a505050505050505050509250929050565b6101206040519081016040528060608152602001600081526020016000815260200160008152602001600081526020016000815260200160008152602001606081526020016000151581525090565b828054600181600116156101000203166002900490600052602060002090601f016020900481019282601f1061341057805160ff191683800117855561343e565b8280016001018555821561343e579182015b8281111561343d578251825591602001919060010190613422565b5b50905061344b91906135c9565b5090565b82805482825590600052602060002090810192821561349e579160200282015b8281111561349d57825182908051906020019061348d9291906135ee565b509160200191906001019061346f565b5b5090506134ab919061363b565b5090565b60c06040519081016040528060608152602001600081526020016000815260200160008152602001606081526020016000151581525090565b50805460018160011615610100020316600290046000825580601f1061350e575061352d565b601f01602090049060005260206000209081019061352c91906135c9565b5b50565b508054600082559060005260206000209081019061354e919061363b565b50565b81548183558181111561357e5760090281600902836000526020600020918201910161357d9190613667565b5b505050565b60a060405190810160405280600590602082028038833980820191505090505090565b60a060405190810160405280600590602082028038833980820191505090505090565b6135eb91905b808211156135e75760008160009055506001016135cf565b5090565b90565b82805482825590600052602060002090810192821561362a579160200282015b8281111561362957825182559160200191906001019061360e565b5b50905061363791906135c9565b5090565b61366491905b80821115613660576000818161365791906136ea565b50600101613641565b5090565b90565b6136e791905b808211156136e3576000808201600061368691906134e8565b6001820160009055600282016000905560038201600090556004820160009055600582016000905560068201600090556007820160006136c69190613530565b6008820160006101000a81549060ff02191690555060090161366d565b5090565b90565b508054600082559060005260206000209081019061370891906135c9565b50565b600061371782356142a2565b905092915050565b600061372b82516142a2565b905092915050565b600082601f830112151561374657600080fd5b81356137596137548261416b565b61413e565b9150818183526020840193506020810190508360005b8381101561379f578135860161378588826137a9565b84526020840193506020830192505060018101905061376f565b5050505092915050565b600082601f83011215156137bc57600080fd5b81356137cf6137ca82614193565b61413e565b915081818352602084019350602081019050838560208402820111156137f457600080fd5b60005b83811015613824578161380a8882613902565b8452602084019350602083019250506001810190506137f7565b5050505092915050565b600061383a82356142c2565b905092915050565b600061384e82516142c2565b905092915050565b600082601f830112151561386957600080fd5b813561387c613877826141bb565b61413e565b9150808252602083016020830185838301111561389857600080fd5b6138a3838284614320565b50505092915050565b600082601f83011215156138bf57600080fd5b81516138d26138cd826141bb565b61413e565b915080825260208301602083018583830111156138ee57600080fd5b6138f983828461432f565b50505092915050565b600061390e82356142ce565b905092915050565b600061392282516142ce565b905092915050565b60006020828403121561393c57600080fd5b600061394a8482850161370b565b91505092915050565b60006020828403121561396557600080fd5b60006139738482850161371f565b91505092915050565b6000806040838503121561398f57600080fd5b600061399d8582860161370b565b92505060206139ae85828601613902565b9150509250929050565b6000602082840312156139ca57600080fd5b60006139d884828501613842565b91505092915050565b600080600080608085870312156139f757600080fd5b600085015167ffffffffffffffff811115613a1157600080fd5b613a1d878288016138ac565b9450506020613a2e87828801613916565b9350506040613a3f87828801613916565b9250506060613a5087828801613916565b91505092959194509250565b60008060008060008060008060006101208a8c031215613a7b57600080fd5b60008a013567ffffffffffffffff811115613a9557600080fd5b613aa18c828d01613856565b9950506020613ab28c828d01613902565b9850506040613ac38c828d01613902565b9750506060613ad48c828d01613902565b9650506080613ae58c828d01613902565b95505060a0613af68c828d01613902565b94505060c0613b078c828d01613902565b93505060e08a013567ffffffffffffffff811115613b2457600080fd5b613b308c828d01613733565b925050610100613b428c828d0161382e565b9150509295985092959850929598565b600060208284031215613b6457600080fd5b6000613b7284828501613902565b91505092915050565b600080600060608486031215613b9057600080fd5b6000613b9e86828701613902565b9350506020613baf8682870161370b565b9250506040613bc08682870161382e565b9150509250925092565b613bd38161426c565b82525050565b6000613be48261420e565b80845260208401935083602082028501613bfd856141e7565b60005b84811015613c36578383038852613c18838351613ca2565b9250613c2382614245565b9150602088019750600181019050613c00565b508196508694505050505092915050565b6000613c5282614224565b808452602084019350613c6483614201565b60005b82811015613c9657613c7a868351613db4565b613c838261425f565b9150602086019550600181019050613c67565b50849250505092915050565b6000613cad82614219565b808452602084019350613cbf836141f4565b60005b82811015613cf157613cd5868351613db4565b613cde82614252565b9150602086019550600181019050613cc2565b50849250505092915050565b613d068161428c565b82525050565b613d15816142d8565b82525050565b613d24816142ea565b82525050565b613d33816142fc565b82525050565b613d428161430e565b82525050565b6000613d538261423a565b808452613d6781602086016020860161432f565b613d7081614362565b602085010191505092915050565b6000613d898261422f565b808452613d9d81602086016020860161432f565b613da681614362565b602085010191505092915050565b613dbd81614298565b82525050565b6000602082019050613dd86000830184613bca565b92915050565b6000606082019050613df36000830186613bca565b613e006020830185613bca565b613e0d6040830184613db4565b949350505050565b6000606082019050613e2a6000830186613bca565b613e376020830185613d39565b613e446040830184613d39565b949350505050565b6000604082019050613e616000830185613bca565b613e6e6020830184613db4565b9392505050565b60006020820190508181036000830152613e8f8184613c47565b905092915050565b6000602082019050613eac6000830184613cfd565b92915050565b6000602082019050613ec76000830184613d0c565b92915050565b6000602082019050613ee26000830184613d1b565b92915050565b6000602082019050613efd6000830184613d2a565b92915050565b600060c0820190508181036000830152613f1d8189613d48565b9050613f2c6020830188613db4565b613f396040830187613db4565b613f466060830186613db4565b8181036080830152613f588185613bd9565b9050613f6760a0830184613cfd565b979650505050505050565b6000610120820190508181036000830152613f8d818c613d48565b9050613f9c602083018b613db4565b613fa9604083018a613db4565b613fb66060830189613db4565b613fc36080830188613db4565b613fd060a0830187613db4565b613fdd60c0830186613db4565b81810360e0830152613fef8185613bd9565b9050613fff610100830184613cfd565b9a9950505050505050505050565b600060a08201905081810360008301526140278188613d7e565b90506140366020830187613db4565b6140436040830186613db4565b6140506060830185613db4565b61405d6080830184613cfd565b9695505050505050565b6000610100820190508181036000830152614082818b613d7e565b9050614091602083018a613db4565b61409e6040830189613db4565b6140ab6060830188613db4565b6140b86080830187613db4565b6140c560a0830186613db4565b6140d260c0830185613db4565b6140df60e0830184613cfd565b9998505050505050505050565b60006020820190506141016000830184613db4565b92915050565b600060608201905061411c6000830186613db4565b6141296020830185613bca565b6141366040830184613cfd565b949350505050565b6000604051905081810181811067ffffffffffffffff8211171561416157600080fd5b8060405250919050565b600067ffffffffffffffff82111561418257600080fd5b602082029050602081019050919050565b600067ffffffffffffffff8211156141aa57600080fd5b602082029050602081019050919050565b600067ffffffffffffffff8211156141d257600080fd5b601f19601f8301169050602081019050919050565b6000602082019050919050565b6000602082019050919050565b6000602082019050919050565b600081519050919050565b600081519050919050565b600081519050919050565b600081519050919050565b600081519050919050565b6000602082019050919050565b6000602082019050919050565b6000602082019050919050565b600073ffffffffffffffffffffffffffffffffffffffff82169050919050565b60008115159050919050565b6000819050919050565b600073ffffffffffffffffffffffffffffffffffffffff82169050919050565b60008115159050919050565b6000819050919050565b60006142e38261426c565b9050919050565b60006142f58261426c565b9050919050565b60006143078261426c565b9050919050565b600061431982614298565b9050919050565b82818337600083830152505050565b60005b8381101561434d578082015181840152602081019050614332565b8381111561435c576000848401525b50505050565b6000601f19601f83011690509190505600a265627a7a72305820436176fba7a7c1767b4d8d56588335f8adf3f52eefdeb536af418575c4fadeb06c6578706572696d656e74616cf50037",
  "source": "pragma solidity ^0.4.25;\npragma experimental ABIEncoderV2;\n\nimport \"./PZHeroCore.sol\";\nimport \"./PZItemCore.sol\";\nimport \"./PZEggCore.sol\";\n\ncontract PZChest\n{\n    uint private constant       PZ_ITEM_GEAR = 0;\n    uint private constant       PZ_ITEM_EMOTE = 1;\n\n    uint private constant       PZ_ITEM_COMMON = 0;\n    uint private constant       PZ_ITEM_UNCOMMON = 1;\n    uint private constant       PZ_ITEM_RARE = 2;\n    uint private constant       PZ_ITEM_EPIC = 3;\n    uint private constant       PZ_ITEM_LEGENDARY = 4;\n\n    uint private constant       PZ_ITEM_CHANCE_COMMON = 440;\n    uint private constant       PZ_ITEM_CHANCE_UNCOMMON = 740;\n    uint private constant       PZ_ITEM_CHANCE_RARE = 955;\n    uint private constant       PZ_ITEM_CHANCE_EPIC = 995;\n    uint private constant       PZ_ITEM_CHANCE_LEGENDARY = 1000;\n\n    uint private constant       PZ_ZA_NORMAL_DOWN_LIMIT = 10000;\n    uint private constant       PZ_ZA_NORMAL_UP_LIMIT = 25000;\n    uint private constant       PZ_ZA_RARE_DOWN_LIMIT = 5000;\n    uint private constant       PZ_ZA_RARE_UP_LIMIT = 10000;\n    uint private constant       PZ_ZA_EPIC_DOWN_LIMIT = 5000;\n    uint private constant       PZ_ZA_EPIC_UP_LIMIT = 10000;\n    uint private constant       PZ_ZA_LEGENDARY_DOWN_LIMIT = 7000;\n    uint private constant       PZ_ZA_LEGENDARY_UP_LIMIT = 20000;\n    uint private constant       PZ_TOKEN_TRX_PROPOTION = 1;\n    uint private constant       PZ_TOKEN_ID = 1000382;\n\n    struct Chest {\n        string      name;\n        uint        price;\n        uint        zaCoin;\n        uint        chance;\n        uint[][]    slot;\n        bool        eggFlag;\n    }\n\n    struct ChestGroup {\n        string      name;\n        uint        quantity;\n        uint        price;\n        uint        startDate;\n        uint        endDate;\n        uint        zaCoin;\n        uint        chance;\n        uint[][]    slot;\n        bool        eggFlag;\n    }\n\n    event CreateChestGroup(\n            address indexed _admin,\n            string _name,\n            uint _quantity,\n            uint _price,\n            uint _startDate,\n            uint _endDate,\n            uint _zaCoin,\n            uint _chance,\n            uint[][] _slot,\n            bool _eggFlag);\n\n    event SetHeroCoreAddress(address indexed _admin, address indexed _newHeroCore);\n    event SetItemCoreAddress(address indexed _admin, address indexed _newItemCore);\n    event SetPoolAddress(address indexed _admin, address indexed _newPool);\n    event ChangeAdmin(address indexed _admin, address indexed _newAdmin);\n    event OpenChest(address indexed _buyer, uint _chestId);\n    event BuyChest(address indexed _buyer, uint _chestGroupId, address _referrer, bool bTrxPurchase);\n    event BurnChest(uint burnQuantity, uint id);\n    event CreateChest(uint quantity, uint supply);\n    event GiftChest(address indexed sender, address indexed _to, uint _chestId);\n\n    uint[4] public                          pzZAUpperLimit;\n    uint[4] public                          pzZADownLimit;\n\n    uint[5] private                         itemChance;\n    Chest[] public                          chests;\n    ChestGroup[] public                     chestGroups;\n    mapping(uint => address) public         chestIndexToOwner;\n    mapping(address => uint) public         ownershipChestCount;\n\n    address private                         addrHeroCore;\n    address private                         addrItemCore;\n    address private                         addrEggCore;\n    address private                         addrPool;\n    address private                         addrEVO;\n    address private                         addrAdmin;\n    // address private                         addrToken;\n\n    PZItemCore public                       contractItemCore;\n    PZEggCore public                        contractEggCore;\n    PZHeroCore public                       contractHeroCore;\n    // PZToken public                          contractToken;\n//    PZPool public                           contractPool;\n\n    event ChestTransfer(address from, address to, uint256 chestId);\n    event ChestCreated(uint itmeType, uint quantity);\n\n    /**\n    * Constructor\n    *\n    * @param _heroCore                      address of hero contract\n    * @param _itemCore                      address of item contract\n    * @param _eggCore                       address of egg contract\n    * @param _pool                          address of pool contract\n    *\n    */\n\n    constructor(address _heroCore, address _itemCore, address _eggCore, address _pool) public\n    {\n        require(_heroCore != address(0));\n        require(_itemCore != address(0));\n        require(_eggCore != address(0));\n        require(_pool != address(0));\n\n        addrAdmin = msg.sender;\n        addrHeroCore = _heroCore;\n        addrItemCore = _itemCore;\n        addrEggCore = _eggCore;\n        addrPool = _pool;\n\n        contractItemCore = PZItemCore(addrItemCore);\n        contractHeroCore = PZHeroCore(addrHeroCore);\n        contractEggCore = PZEggCore(addrEggCore);\n        // contractToken = PZToken(addrToken);\n\n        itemChance[PZ_ITEM_COMMON] = PZ_ITEM_CHANCE_COMMON;\n        itemChance[PZ_ITEM_UNCOMMON] = PZ_ITEM_CHANCE_UNCOMMON;\n        itemChance[PZ_ITEM_RARE] = PZ_ITEM_CHANCE_RARE;\n        itemChance[PZ_ITEM_EPIC] = PZ_ITEM_CHANCE_EPIC;\n        itemChance[PZ_ITEM_LEGENDARY] = PZ_ITEM_CHANCE_LEGENDARY;\n\n        pzZAUpperLimit[PZ_ITEM_COMMON] = PZ_ZA_NORMAL_UP_LIMIT;\n        pzZAUpperLimit[PZ_ITEM_UNCOMMON] = PZ_ZA_RARE_UP_LIMIT;\n        pzZAUpperLimit[PZ_ITEM_RARE] = PZ_ZA_EPIC_UP_LIMIT;\n        pzZAUpperLimit[PZ_ITEM_EPIC] = PZ_ZA_LEGENDARY_UP_LIMIT;\n\n        pzZADownLimit[PZ_ITEM_COMMON] = PZ_ZA_NORMAL_DOWN_LIMIT;\n        pzZADownLimit[PZ_ITEM_UNCOMMON] = PZ_ZA_RARE_DOWN_LIMIT;\n        pzZADownLimit[PZ_ITEM_RARE] = PZ_ZA_EPIC_DOWN_LIMIT;\n        pzZADownLimit[PZ_ITEM_EPIC] = PZ_ZA_LEGENDARY_DOWN_LIMIT;\n//        contractPool = PZPool(addrPool);\n    }\n\n    modifier onlyAdmin()\n    {\n        require(msg.sender == addrAdmin);\n        _;\n    }\n\n    /**\n    * Set the Address of Hero contract\n    *\n    * @param _heroCore                   new address of hero contract\n    *\n    */\n    function setHeroCoreAddress(address _heroCore) public onlyAdmin\n    {\n        require(_heroCore != address(0x0));\n\n        addrHeroCore = _heroCore;\n        PZHeroCore candidateContract = PZHeroCore(addrHeroCore);\n\n        require(candidateContract.isHeroContract());\n        contractHeroCore = candidateContract;\n        emit SetHeroCoreAddress(addrAdmin, _heroCore);\n    }\n\n    /**\n    * Set the Address of Item contract\n    *\n    * @param _itemCore                   new address of item contract\n    *\n    */\n    function setItemCoreAddress(address _itemCore) public onlyAdmin\n    {\n        require(_itemCore != address(0x0));\n\n        addrItemCore = _itemCore;\n\n        PZItemCore candidateContract = PZItemCore(addrItemCore);\n        require(candidateContract.isItemContract());\n\n        contractItemCore = candidateContract;\n        emit SetItemCoreAddress(addrAdmin, _itemCore);\n    }\n\n    /**\n    * Set the Address of Pool\n    *\n    * @param _pool                   new address of pool\n    *\n    */\n    function setPoolAddress(address _pool) public onlyAdmin\n    {\n        require(_pool != address(0x0));\n\n        addrPool = _pool;\n        emit SetPoolAddress(addrAdmin, _pool);\n    }\n\n    /**\n    * Set the Address of Admin\n    *\n    * @param _addrAdmin                   new address of Admin\n    *\n    */\n    function changeAdmin(address _addrAdmin) public onlyAdmin\n    {\n        addrAdmin = _addrAdmin;\n        emit ChangeAdmin(addrAdmin, _addrAdmin);\n    }\n\n    /**\n    * Create Chest Group that is the Meta Information for creating Chest NFT\n    *\n    * @param _name                          name of the chest\n    * @param _quantity                      quantity of the chest\n    * @param _price                         price of the chest\n    * @param _startDate                     start Date of Sale for the chest\n    * @param _endDate                       end Date of Sale for the chest\n    * @param _zaCoin                        zaCoin amount //not sure\n    * @param _chance                        chance  //not sure\n    * @param _slot                          item slots of the chest\n    *\n    */\n    function createChestGroup(\n            string _name,\n            uint _quantity,\n            uint _price,\n            uint _startDate,\n            uint _endDate,\n            uint _zaCoin,\n            uint _chance,\n            uint[][] _slot,\n            bool _eggFlag)\n        public\n        onlyAdmin\n    {\n        require(_quantity > 0);\n        require(_price > 0);\n        require(_startDate < _endDate);\n\n        chestGroups.push(ChestGroup(_name, _quantity, _price, _startDate, _endDate, _zaCoin, _chance, _slot, _eggFlag));\n        emit CreateChestGroup(msg.sender, _name, _quantity, _price, _startDate, _endDate, _zaCoin, _chance, _slot, _eggFlag);\n    }\n\n    function _generateRandomZA(uint _rarity) private view returns (uint)\n    {\n        uint rand = uint(keccak256(abi.encodePacked(block.timestamp)));\n        uint diff = pzZAUpperLimit[_rarity] - pzZADownLimit[_rarity];\n        uint result = rand % diff + pzZADownLimit[_rarity];\n        return result;\n    }\n\n    /**\n    * Get ID of item group for the item slot of the chest to open\n    *\n    * @param num                                num for random generation\n    * @param itemSlot                           items arry for the slot\n    *\n    * @return bFindItem                         flag if the available item is found\n    * @return itemGroupId                       Id of Itemgroup\n    *\n    */\n    function _getItemGroupIdFromSlot(uint num, uint[] itemSlot)\n        private\n        view\n        returns(bool, uint256)\n    {\n        uint rand = uint(keccak256(abi.encodePacked(block.timestamp, block.difficulty, num)));\n        rand = rand % 1000;\n        bool[5] memory rarityFlag = [false, false, false, false, false];\n        uint[5] memory rarityItemGroupId;\n\n        uint index = 0;\n\n        uint itemRarity = 0;\n        uint itemGroupId = 0;\n\n        uint _slotQuantity = 0;\n        uint _slotRarity = 0;\n        bool bFindItem = false;\n        // uint\n\n        if (rand < itemChance[PZ_ITEM_COMMON]) {\n            itemRarity = PZ_ITEM_COMMON;\n        } else if (rand < itemChance[PZ_ITEM_UNCOMMON]) {\n            itemRarity = PZ_ITEM_UNCOMMON;\n        } else if (rand < itemChance[PZ_ITEM_RARE]) {\n            itemRarity = PZ_ITEM_RARE;\n        } else if (rand < itemChance[PZ_ITEM_EPIC]) {\n            itemRarity = PZ_ITEM_EPIC;\n        } else if (rand < itemChance[PZ_ITEM_LEGENDARY]) {\n            itemRarity = PZ_ITEM_LEGENDARY;\n        }\n\n        for(index = 0; index < itemSlot.length; index ++) {\n            (,_slotQuantity, _slotRarity,) = contractItemCore.getItemGroup(itemSlot[index]);\n            if (_slotQuantity > 0) {\n                if (_slotRarity == itemRarity) {\n                    itemGroupId = itemSlot[index];\n                    bFindItem = true;\n                    break;\n                } else {\n                    if (rarityFlag[_slotRarity] == false) {\n                        rarityFlag[_slotRarity] = true;\n                        rarityItemGroupId[_slotRarity] = itemSlot[index];\n                    }\n                }\n            }\n        }\n\n        if( !bFindItem ) {\n            for (index = 0; index < 5; index ++) {\n                if (rarityFlag[index] == true) {\n                    itemRarity = index;\n                    itemGroupId = rarityItemGroupId[index];\n                    bFindItem = true;\n                    break;\n                }\n            }\n        }\n\n        return (bFindItem, itemGroupId);\n    }\n\n    /**\n    * Open item Slots to create Item NFT for buy chest\n    *\n    * @param buyer                          address of Buyer\n    * @param _chestId                       chest Id to buy\n    *\n    */\n    function _openItemSlots(address buyer, uint _chestId) internal\n    {\n        Chest memory chest = chests[_chestId];\n\n        bool bFindItemGroupId = false;\n        uint itemGroupId = 0;\n        uint index = 0;\n        // uint[] memory itemSlot = chest.slot;\n        for (index = 0; index < chest.slot.length; index ++) {\n            (bFindItemGroupId, itemGroupId) = _getItemGroupIdFromSlot(index, chest.slot[index]);\n            if (bFindItemGroupId) {\n                contractItemCore.createItemToBuyer(buyer, itemGroupId);\n                bFindItemGroupId = false;\n            }\n        }\n    }\n\n    /**\n    * Gift Chest to other users\n    *\n    * @param _to                            address of receiver\n    * @param _chestId                       chest Id to gift\n    *\n    */\n    function giftChest(address _to, uint _chestId) public\n    {\n        require(_owns(msg.sender, _chestId));\n        require(_to != address(0x0));\n        _transfer(msg.sender, _to, _chestId);\n        emit GiftChest(msg.sender, _to, _chestId);\n    }\n    \n    /**\n    * Open Chest\n    *\n    * @param _chestId                       chest Id to Open\n    *\n    */\n    function openChest(uint _chestId) public\n    {\n        require(_owns(msg.sender, _chestId));\n\n        Chest memory chest = chests[_chestId];\n\n        //Open Item Slot to create Item and send to Buyer\n        _openItemSlots(msg.sender, _chestId);\n\n        // chests[_chestId].zaCoin = _generateRandomZA();\n\n        //Breed Egg\n        if (chest.eggFlag)\n            contractEggCore.createEggToOwner(msg.sender, 0, 0);\n\n        //Implementation\n        _transfer(msg.sender, address(0x0), _chestId);\n        delete chests[_chestId];\n\n        emit OpenChest(msg.sender, _chestId);\n    }\n\n    /**\n    * Burn chests\n    *\n    *\n    */\n    function burnChests() public onlyAdmin\n    {\n        uint supply = chestGroups.length;\n\n        for (uint index = 0; index < supply; index ++) {\n            delete chestGroups[index];\n            chestGroups.length--;\n        }\n        // emit BurnChest();\n    }\n\n    /**\n    * Buy Chest\n    *\n    * @param _chestGroupId                          chest Group Id to buy\n    * @param _referrer                              address of referrer\n    * @param bTrxPurchase                           flag whether the purchase is by TRX or TRC10 token\n    *\n    */\n    function buyChest(uint _chestGroupId, address _referrer, bool bTrxPurchase) public payable\n    {\n        // require((block.number >= chests[_chestId].startDate) && (block.number <= chests[_chestId].endDate));\n\n        //Implementation\n        ChestGroup memory _chestGroup = chestGroups[_chestGroupId];\n        require(_chestGroup.quantity > 0);\n        uint256 newChestId = 0;\n\n        if (bTrxPurchase) {\n            if (msg.value == _chestGroup.price) {\n                if (_referrer != address(0x0)) {\n                    _referrer.transfer(msg.value / 10);\n                    addrPool.transfer(msg.value / 10);\n                    addrAdmin.transfer(msg.value - msg.value / 10 * 2);\n                    // addrAdmin.transfer(msg.value);\n                }\n                newChestId = chests.push(Chest(_chestGroup.name, _chestGroup.price, _chestGroup.zaCoin, _chestGroup.chance, _chestGroup.slot, _chestGroup.eggFlag)) - 1;\n                chestGroups[_chestGroupId].quantity = chestGroups[_chestGroupId].quantity - 1;\n                _transfer(0, msg.sender, newChestId);\n                emit BuyChest(msg.sender, _chestGroupId, _referrer, bTrxPurchase);\n            }\n        } else {\n            // uint256 _tokenBalance = contractToken.getTokenBalance(msg.sender, PZ_TOKEN_ID);\n            // uint256 _valueInToken = _chestGroup.price * PZ_TOKEN_TRX_PROPOTION;\n            if (msg.tokenvalue == _chestGroup.price * PZ_TOKEN_TRX_PROPOTION) {\n                if (_referrer != address(0x0)) {\n                    _referrer.transferToken(msg.tokenvalue / 10, msg.tokenid);\n                    addrPool.transferToken(msg.tokenvalue / 10, msg.tokenid);\n                    addrAdmin.transferToken(msg.tokenvalue - msg.tokenvalue / 10 * 2, msg.tokenid);\n\n                    // addrAdmin.transferToken(msg.tokenvalue, msg.tokenid);\n                    // contractToken.transferToken(_referrer, _valueInToken / 10, PZ_TOKEN_ID);\n                    // contractToken.transferToken(addrPool, _valueInToken / 10, PZ_TOKEN_ID);\n                    // contractToken.transferToken(addrAdmin, _valueInToken - _valueInToken / 10 * 2, PZ_TOKEN_ID);\n                }\n                newChestId = chests.push(Chest(_chestGroup.name, _chestGroup.price, _chestGroup.zaCoin, _chestGroup.chance, _chestGroup.slot, _chestGroup.eggFlag)) - 1;\n                chestGroups[_chestGroupId].quantity = chestGroups[_chestGroupId].quantity - 1;\n                _transfer(0, msg.sender, newChestId);\n                emit BuyChest(msg.sender, _chestGroupId, _referrer, bTrxPurchase);\n            }\n        }\n    }\n\n    /**\n    * Get quantity of Chest NFT\n    *\n    *\n    */\n    function getChestsQuantity() external view returns(uint)\n    {\n        return chests.length;\n    }\n\n    /**\n    * Get Chest NFT\n    *\n    * @return name                      chest name\n    * @return price                     chest price\n    * @return zaCoin                    chest zaCoin\n    * @return chance                    chest chance\n    * @return slot                      chest slot\n    *\n    */\n    function getChestById(uint _id) external view returns(string name, uint price,uint zaCoin, uint chance, uint[][] slot, bool eggFlag)\n    {\n        Chest memory chest = chests[_id];\n        return (chest.name, chest.price, chest.zaCoin, chest.chance, chest.slot, chest.eggFlag);\n    }\n\n    /**\n    * Get quantity of chest group\n    *\n    *\n    */\n    function getChestGroupSupply() external view returns(uint256)\n    {\n        return chestGroups.length;\n    }\n\n    /**\n    * Get Chest Group Info\n    *\n    * @return name                      chest name\n    * @return quantity                  chest quantity\n    * @return startDate                 start Date of chest sale\n    * @return endDate                   end Date of chest sale\n    * @return price                     chest price\n    * @return zaCoin                    chest zaCoin\n    * @return chance                    chest chance\n    * @return slot                      chest slot\n    *\n    */\n    function getChestGroupById(uint _chestGroupId)\n        external\n        view\n        returns(string name, uint quantity, uint price, uint startDate, uint endDate, uint zaCoin, uint chance, uint[][] slot, bool eggFlag)\n    {\n        ChestGroup memory _chestGroup = chestGroups[_chestGroupId];\n        return(_chestGroup.name,\n                _chestGroup.quantity,\n                _chestGroup.price, _chestGroup.startDate,\n                _chestGroup.endDate, _chestGroup.zaCoin, _chestGroup.chance, _chestGroup.slot, _chestGroup.eggFlag);\n    }\n\n    /**\n    * Transfer Chest NFT\n    *\n    * @param _from                              address of sender\n    * @param _to                                address of receiver\n    * @param _chestId                           chest Id to transfer\n    *\n    */\n    function _transfer(address _from, address _to, uint256 _chestId) internal\n    {\n        ownershipChestCount[_to]++;\n        chestIndexToOwner[_chestId] = _to;\n        if (_from != address(0)) {\n            ownershipChestCount[_from]--;\n            // delete itemIndexToApproved[_chestId];\n        }\n\n        emit ChestTransfer(_from, _to, _chestId);\n    }\n\n    /**\n    * Check if the claimer owns item\n    *\n    * @param _claimant                  address of claimer\n    * @param _itemId                    item id to claim\n    *\n    */\n    function _owns(address _claimant, uint256 _itemId) internal view returns (bool) {\n        return chestIndexToOwner[_itemId] == _claimant;\n    }\n\n    /**\n    * Get Owner address of Chest Id\n    *\n    * @param _chestId                   Chest Id to Check\n    *\n    * @return owner                     address of owner\n    *\n    */\n    function ownerOf(uint256 _chestId)\n        external\n        view\n        returns (address owner)\n    {\n        owner = chestIndexToOwner[_chestId];\n\n        require(owner != address(0));\n    }\n\n    /**\n    * Get count of chest NFT belongs to owner\n    *\n    * @param _owner                     address of owner\n    *\n    * @return count                     count of chest NFT\n    *\n    */\n    function balanceOf(address _owner) public view returns (uint256 count) {\n        return ownershipChestCount[_owner];\n    }\n\n    /**\n    * Total count of chest NFT\n    *\n    */\n    function totalSupply() public view returns (uint) {\n        return chests.length - 1;\n    }\n\n    /**\n    * Get chest array of given address\n    *\n    * @return ownerChests                   chests array\n    *\n    */\n    function chestsOfOwner(address _owner) external view returns(uint256[] ownerChests) {\n        uint256 chestCount = balanceOf(_owner);\n\n        if (chestCount == 0) {\n            // Return an empty array\n            return new uint256[](0);\n        } else {\n            uint256[] memory result = new uint256[](chestCount);\n            uint256 totalChests = totalSupply();\n            uint256 resultIndex = 0;\n\n            uint256 chestId;\n\n            for (chestId = 1; chestId <= totalChests; chestId++) {\n                if (chestIndexToOwner[chestId] == _owner) {\n                    result[resultIndex] = chestId;\n                    resultIndex++;\n                }\n            }\n\n            return result;\n        }\n    }\n\n    /**\n    * Check function of Chest contract\n    *\n    */\n    function chestTest() external view returns (address){\n        return contractHeroCore.heroTest();\n    }\n\n    /**\n    * Check function as if this is the Chest contract\n    *\n    */\n    function isChestContract() external pure returns (bool) {\n        return true;\n    }\n}\n",
  "sourcePath": "/Volumes/Backup/workspace/Dave(Tron_NFT)/pizzaHero/contracts/PZChest.sol",
  "compiler": {
    "name": "solc",
    "version": "0.4.25+commit.69a1e720.Emscripten.clang"
  },
  "schemaVersion": "2.0.1",
  "updatedAt": "2020-01-04T03:21:47.650Z"
}