{
  "contractName": "PZEggOwnership",
  "abi": [
    {
      "constant": true,
      "inputs": [],
      "name": "name",
      "outputs": [
        {
          "name": "",
          "type": "string"
        }
      ],
      "payable": false,
      "stateMutability": "view",
      "type": "function"
    },
    {
      "constant": true,
      "inputs": [
        {
          "name": "",
          "type": "uint256"
        }
      ],
      "name": "eggIndexToOwner",
      "outputs": [
        {
          "name": "",
          "type": "address"
        }
      ],
      "payable": false,
      "stateMutability": "view",
      "type": "function"
    },
    {
      "constant": true,
      "inputs": [],
      "name": "addrHero",
      "outputs": [
        {
          "name": "",
          "type": "address"
        }
      ],
      "payable": false,
      "stateMutability": "view",
      "type": "function"
    },
    {
      "constant": true,
      "inputs": [],
      "name": "addrChest",
      "outputs": [
        {
          "name": "",
          "type": "address"
        }
      ],
      "payable": false,
      "stateMutability": "view",
      "type": "function"
    },
    {
      "constant": true,
      "inputs": [
        {
          "name": "",
          "type": "uint256"
        }
      ],
      "name": "eggIndexToApproved",
      "outputs": [
        {
          "name": "",
          "type": "address"
        }
      ],
      "payable": false,
      "stateMutability": "view",
      "type": "function"
    },
    {
      "constant": true,
      "inputs": [],
      "name": "symbol",
      "outputs": [
        {
          "name": "",
          "type": "string"
        }
      ],
      "payable": false,
      "stateMutability": "view",
      "type": "function"
    },
    {
      "constant": true,
      "inputs": [
        {
          "name": "",
          "type": "uint256"
        }
      ],
      "name": "eggs",
      "outputs": [
        {
          "name": "date",
          "type": "uint256"
        },
        {
          "name": "price",
          "type": "uint256"
        },
        {
          "name": "tokenId",
          "type": "uint256"
        },
        {
          "name": "tokenPrice",
          "type": "uint256"
        },
        {
          "name": "matronId",
          "type": "uint256"
        },
        {
          "name": "sireId",
          "type": "uint256"
        }
      ],
      "payable": false,
      "stateMutability": "view",
      "type": "function"
    },
    {
      "constant": true,
      "inputs": [],
      "name": "addrAdmin",
      "outputs": [
        {
          "name": "",
          "type": "address"
        }
      ],
      "payable": false,
      "stateMutability": "view",
      "type": "function"
    },
    {
      "constant": true,
      "inputs": [
        {
          "name": "",
          "type": "address"
        }
      ],
      "name": "ownershipEggCount",
      "outputs": [
        {
          "name": "",
          "type": "uint256"
        }
      ],
      "payable": false,
      "stateMutability": "view",
      "type": "function"
    },
    {
      "constant": true,
      "inputs": [],
      "name": "trc721Metadata",
      "outputs": [
        {
          "name": "",
          "type": "address"
        }
      ],
      "payable": false,
      "stateMutability": "view",
      "type": "function"
    },
    {
      "anonymous": false,
      "inputs": [
        {
          "indexed": false,
          "name": "from",
          "type": "address"
        },
        {
          "indexed": false,
          "name": "to",
          "type": "address"
        },
        {
          "indexed": false,
          "name": "tokenId",
          "type": "uint256"
        }
      ],
      "name": "Transfer",
      "type": "event"
    },
    {
      "anonymous": false,
      "inputs": [
        {
          "indexed": false,
          "name": "owner",
          "type": "address"
        },
        {
          "indexed": false,
          "name": "approved",
          "type": "address"
        },
        {
          "indexed": false,
          "name": "tokenId",
          "type": "uint256"
        }
      ],
      "name": "Approval",
      "type": "event"
    },
    {
      "anonymous": false,
      "inputs": [
        {
          "indexed": false,
          "name": "itmeType",
          "type": "uint256"
        },
        {
          "indexed": false,
          "name": "quantity",
          "type": "uint256"
        }
      ],
      "name": "EggsCreated",
      "type": "event"
    },
    {
      "constant": true,
      "inputs": [
        {
          "name": "_interfaceID",
          "type": "bytes4"
        }
      ],
      "name": "supportsInterface",
      "outputs": [
        {
          "name": "",
          "type": "bool"
        }
      ],
      "payable": false,
      "stateMutability": "view",
      "type": "function"
    },
    {
      "constant": false,
      "inputs": [
        {
          "name": "_contractAddress",
          "type": "address"
        }
      ],
      "name": "setMetadataAddress",
      "outputs": [],
      "payable": false,
      "stateMutability": "nonpayable",
      "type": "function"
    },
    {
      "constant": true,
      "inputs": [
        {
          "name": "_owner",
          "type": "address"
        }
      ],
      "name": "balanceOf",
      "outputs": [
        {
          "name": "count",
          "type": "uint256"
        }
      ],
      "payable": false,
      "stateMutability": "view",
      "type": "function"
    },
    {
      "constant": false,
      "inputs": [
        {
          "name": "_to",
          "type": "address"
        },
        {
          "name": "_eggId",
          "type": "uint256"
        }
      ],
      "name": "transfer",
      "outputs": [],
      "payable": false,
      "stateMutability": "nonpayable",
      "type": "function"
    },
    {
      "constant": false,
      "inputs": [
        {
          "name": "_to",
          "type": "address"
        },
        {
          "name": "_eggId",
          "type": "uint256"
        }
      ],
      "name": "approve",
      "outputs": [],
      "payable": false,
      "stateMutability": "nonpayable",
      "type": "function"
    },
    {
      "constant": false,
      "inputs": [
        {
          "name": "_from",
          "type": "address"
        },
        {
          "name": "_to",
          "type": "address"
        },
        {
          "name": "_eggId",
          "type": "uint256"
        }
      ],
      "name": "transferFrom",
      "outputs": [],
      "payable": false,
      "stateMutability": "nonpayable",
      "type": "function"
    },
    {
      "constant": true,
      "inputs": [],
      "name": "totalSupply",
      "outputs": [
        {
          "name": "",
          "type": "uint256"
        }
      ],
      "payable": false,
      "stateMutability": "view",
      "type": "function"
    },
    {
      "constant": true,
      "inputs": [
        {
          "name": "_eggId",
          "type": "uint256"
        }
      ],
      "name": "ownerOf",
      "outputs": [
        {
          "name": "owner",
          "type": "address"
        }
      ],
      "payable": false,
      "stateMutability": "view",
      "type": "function"
    },
    {
      "constant": true,
      "inputs": [
        {
          "name": "_owner",
          "type": "address"
        }
      ],
      "name": "eggsOfOwner",
      "outputs": [
        {
          "name": "ownerEggs",
          "type": "uint256[]"
        }
      ],
      "payable": false,
      "stateMutability": "view",
      "type": "function"
    }
  ],
  "bytecode": "0x6080604052336000806101000a81548173ffffffffffffffffffffffffffffffffffffffff021916908373ffffffffffffffffffffffffffffffffffffffff16021790555061174a806100536000396000f300608060405260043610610107576000357c0100000000000000000000000000000000000000000000000000000000900463ffffffff16806301ffc9a71461010c57806306fdde031461018a578063095ea7b31461023457806318160ddd1461029b5780631d9279ea146102e057806323b872dd146103675780632bc9f293146103ee5780636352211e1461045f57806370a08231146104e657806376c0b367146105575780638ef30b81146105c857806395d89b411461064f578063a9059cbb146106f9578063bb654efa14610760578063bfae2f0e146107de578063d26cadc91461084f578063e17b25af146108c0578063f15f93881461091d578063fce253541461098e575b600080fd5b34801561011857600080fd5b50d3801561012557600080fd5b50d2801561013257600080fd5b5061017060048036038101908080357bffffffffffffffffffffffffffffffffffffffffffffffffffffffff19169060200190929190505050610a40565b604051808215151515815260200191505060405180910390f35b34801561019657600080fd5b50d380156101a357600080fd5b50d280156101b057600080fd5b506101b9610d51565b6040518080602001828103825283818151815260200191508051906020019080838360005b838110156101f95780820151818401526020810190506101de565b50505050905090810190601f1680156102265780820380516001836020036101000a031916815260200191505b509250505060405180910390f35b34801561024057600080fd5b50d3801561024d57600080fd5b50d2801561025a57600080fd5b50610299600480360381019080803573ffffffffffffffffffffffffffffffffffffffff16906020019092919080359060200190929190505050610d8a565b005b3480156102a757600080fd5b50d380156102b457600080fd5b50d280156102c157600080fd5b506102ca610e4c565b6040518082815260200191505060405180910390f35b3480156102ec57600080fd5b50d380156102f957600080fd5b50d2801561030657600080fd5b5061032560048036038101908080359060200190929190505050610e5b565b604051808273ffffffffffffffffffffffffffffffffffffffff1673ffffffffffffffffffffffffffffffffffffffff16815260200191505060405180910390f35b34801561037357600080fd5b50d3801561038057600080fd5b50d2801561038d57600080fd5b506103ec600480360381019080803573ffffffffffffffffffffffffffffffffffffffff169060200190929190803573ffffffffffffffffffffffffffffffffffffffff16906020019092919080359060200190929190505050610e8e565b005b3480156103fa57600080fd5b50d3801561040757600080fd5b50d2801561041457600080fd5b5061041d610f3f565b604051808273ffffffffffffffffffffffffffffffffffffffff1673ffffffffffffffffffffffffffffffffffffffff16815260200191505060405180910390f35b34801561046b57600080fd5b50d3801561047857600080fd5b50d2801561048557600080fd5b506104a460048036038101908080359060200190929190505050610f65565b604051808273ffffffffffffffffffffffffffffffffffffffff1673ffffffffffffffffffffffffffffffffffffffff16815260200191505060405180910390f35b3480156104f257600080fd5b50d380156104ff57600080fd5b50d2801561050c57600080fd5b50610541600480360381019080803573ffffffffffffffffffffffffffffffffffffffff169060200190929190505050610fde565b6040518082815260200191505060405180910390f35b34801561056357600080fd5b50d3801561057057600080fd5b50d2801561057d57600080fd5b50610586611027565b604051808273ffffffffffffffffffffffffffffffffffffffff1673ffffffffffffffffffffffffffffffffffffffff16815260200191505060405180910390f35b3480156105d457600080fd5b50d380156105e157600080fd5b50d280156105ee57600080fd5b5061060d6004803603810190808035906020019092919050505061104d565b604051808273ffffffffffffffffffffffffffffffffffffffff1673ffffffffffffffffffffffffffffffffffffffff16815260200191505060405180910390f35b34801561065b57600080fd5b50d3801561066857600080fd5b50d2801561067557600080fd5b5061067e611080565b6040518080602001828103825283818151815260200191508051906020019080838360005b838110156106be5780820151818401526020810190506106a3565b50505050905090810190601f1680156106eb5780820380516001836020036101000a031916815260200191505b509250505060405180910390f35b34801561070557600080fd5b50d3801561071257600080fd5b50d2801561071f57600080fd5b5061075e600480360381019080803573ffffffffffffffffffffffffffffffffffffffff169060200190929190803590602001909291905050506110b9565b005b34801561076c57600080fd5b50d3801561077957600080fd5b50d2801561078657600080fd5b506107a560048036038101908080359060200190929190505050611154565b60405180878152602001868152602001858152602001848152602001838152602001828152602001965050505050505060405180910390f35b3480156107ea57600080fd5b50d380156107f757600080fd5b50d2801561080457600080fd5b5061080d61119f565b604051808273ffffffffffffffffffffffffffffffffffffffff1673ffffffffffffffffffffffffffffffffffffffff16815260200191505060405180910390f35b34801561085b57600080fd5b50d3801561086857600080fd5b50d2801561087557600080fd5b506108aa600480360381019080803573ffffffffffffffffffffffffffffffffffffffff1690602001909291905050506111c4565b6040518082815260200191505060405180910390f35b3480156108cc57600080fd5b50d380156108d957600080fd5b50d280156108e657600080fd5b5061091b600480360381019080803573ffffffffffffffffffffffffffffffffffffffff1690602001909291905050506111dc565b005b34801561092957600080fd5b50d3801561093657600080fd5b50d2801561094357600080fd5b5061094c61127b565b604051808273ffffffffffffffffffffffffffffffffffffffff1673ffffffffffffffffffffffffffffffffffffffff16815260200191505060405180910390f35b34801561099a57600080fd5b50d380156109a757600080fd5b50d280156109b457600080fd5b506109e9600480360381019080803573ffffffffffffffffffffffffffffffffffffffff1690602001909291905050506112a1565b6040518080602001828103825283818151815260200191508051906020019060200280838360005b83811015610a2c578082015181840152602081019050610a11565b505050509050019250505060405180910390f35b600060405180807f737570706f727473496e74657266616365286279746573342900000000000000815250601901905060405180910390207bffffffffffffffffffffffffffffffffffffffffffffffffffffffff1916827bffffffffffffffffffffffffffffffffffffffffffffffffffffffff19161480610d4a575060405180807f746f6b656e4d657461646174612875696e743235362c737472696e6729000000815250601d019050604051809103902060405180807f656767734f664f776e65722861646472657373290000000000000000000000008152506014019050604051809103902060405180807f7472616e7366657246726f6d28616464726573732c616464726573732c75696e81526020017f74323536290000000000000000000000000000000000000000000000000000008152506025019050604051809103902060405180807f7472616e7366657228616464726573732c75696e7432353629000000000000008152506019019050604051809103902060405180807f617070726f766528616464726573732c75696e743235362900000000000000008152506018019050604051809103902060405180807f6f776e65724f662875696e7432353629000000000000000000000000000000008152506010019050604051809103902060405180807f62616c616e63654f6628616464726573732900000000000000000000000000008152506012019050604051809103902060405180807f746f74616c537570706c79282900000000000000000000000000000000000000815250600d019050604051809103902060405180807f73796d626f6c28290000000000000000000000000000000000000000000000008152506008019050604051809103902060405180807f6e616d6528290000000000000000000000000000000000000000000000000000815250600601905060405180910390201818181818181818187bffffffffffffffffffffffffffffffffffffffffffffffffffffffff1916827bffffffffffffffffffffffffffffffffffffffffffffffffffffffff1916145b9050919050565b6040805190810160405280600681526020017f505a65676773000000000000000000000000000000000000000000000000000081525081565b610d9433826113ee565b1515610d9f57600080fd5b610da9818361145a565b7f8c5be1e5ebec7d5bd14f71427d1e84f3dd0314c0f7b2291e5b200ac8c7c3b925338383604051808473ffffffffffffffffffffffffffffffffffffffff1673ffffffffffffffffffffffffffffffffffffffff1681526020018373ffffffffffffffffffffffffffffffffffffffff1673ffffffffffffffffffffffffffffffffffffffff168152602001828152602001935050505060405180910390a15050565b60006001808054905003905090565b60046020528060005260406000206000915054906101000a900473ffffffffffffffffffffffffffffffffffffffff1681565b600073ffffffffffffffffffffffffffffffffffffffff168273ffffffffffffffffffffffffffffffffffffffff1614151515610eca57600080fd5b3073ffffffffffffffffffffffffffffffffffffffff168273ffffffffffffffffffffffffffffffffffffffff1614151515610f0557600080fd5b610f0f33826114b0565b1515610f1a57600080fd5b610f2483826113ee565b1515610f2f57600080fd5b610f3a83838361151c565b505050565b600360009054906101000a900473ffffffffffffffffffffffffffffffffffffffff1681565b60006004600083815260200190815260200160002060009054906101000a900473ffffffffffffffffffffffffffffffffffffffff169050600073ffffffffffffffffffffffffffffffffffffffff168173ffffffffffffffffffffffffffffffffffffffff1614151515610fd957600080fd5b919050565b6000600560008373ffffffffffffffffffffffffffffffffffffffff1673ffffffffffffffffffffffffffffffffffffffff168152602001908152602001600020549050919050565b600260009054906101000a900473ffffffffffffffffffffffffffffffffffffffff1681565b60066020528060005260406000206000915054906101000a900473ffffffffffffffffffffffffffffffffffffffff1681565b6040805190810160405280600281526020017f504500000000000000000000000000000000000000000000000000000000000081525081565b600073ffffffffffffffffffffffffffffffffffffffff168273ffffffffffffffffffffffffffffffffffffffff16141515156110f557600080fd5b3073ffffffffffffffffffffffffffffffffffffffff168273ffffffffffffffffffffffffffffffffffffffff161415151561113057600080fd5b61113a33826113ee565b151561114557600080fd5b61115033838361151c565b5050565b60018181548110151561116357fe5b90600052602060002090600602016000915090508060000154908060010154908060020154908060030154908060040154908060050154905086565b6000809054906101000a900473ffffffffffffffffffffffffffffffffffffffff1681565b60056020528060005260406000206000915090505481565b6000809054906101000a900473ffffffffffffffffffffffffffffffffffffffff1673ffffffffffffffffffffffffffffffffffffffff163373ffffffffffffffffffffffffffffffffffffffff1614151561123757600080fd5b80600760006101000a81548173ffffffffffffffffffffffffffffffffffffffff021916908373ffffffffffffffffffffffffffffffffffffffff16021790555050565b600760009054906101000a900473ffffffffffffffffffffffffffffffffffffffff1681565b60606000606060008060006112b587610fde565b945060008514156112f85760006040519080825280602002602001820160405280156112f05781602001602082028038833980820191505090505b5095506113e4565b846040519080825280602002602001820160405280156113275781602001602082028038833980820191505090505b509350611332610e4c565b925060009150600190505b82811115156113e0578673ffffffffffffffffffffffffffffffffffffffff166004600083815260200190815260200160002060009054906101000a900473ffffffffffffffffffffffffffffffffffffffff1673ffffffffffffffffffffffffffffffffffffffff1614156113d3578084838151811015156113bc57fe5b906020019060200201818152505081806001019250505b808060010191505061133d565b8395505b5050505050919050565b60008273ffffffffffffffffffffffffffffffffffffffff166004600084815260200190815260200160002060009054906101000a900473ffffffffffffffffffffffffffffffffffffffff1673ffffffffffffffffffffffffffffffffffffffff1614905092915050565b806006600084815260200190815260200160002060006101000a81548173ffffffffffffffffffffffffffffffffffffffff021916908373ffffffffffffffffffffffffffffffffffffffff1602179055505050565b60008273ffffffffffffffffffffffffffffffffffffffff166006600084815260200190815260200160002060009054906101000a900473ffffffffffffffffffffffffffffffffffffffff1673ffffffffffffffffffffffffffffffffffffffff1614905092915050565b600560008373ffffffffffffffffffffffffffffffffffffffff1673ffffffffffffffffffffffffffffffffffffffff16815260200190815260200160002060008154809291906001019190505550816004600083815260200190815260200160002060006101000a81548173ffffffffffffffffffffffffffffffffffffffff021916908373ffffffffffffffffffffffffffffffffffffffff160217905550600073ffffffffffffffffffffffffffffffffffffffff168373ffffffffffffffffffffffffffffffffffffffff1614151561167a57600560008473ffffffffffffffffffffffffffffffffffffffff1673ffffffffffffffffffffffffffffffffffffffff16815260200190815260200160002060008154809291906001900391905055506006600082815260200190815260200160002060006101000a81549073ffffffffffffffffffffffffffffffffffffffff02191690555b7fddf252ad1be2c89b69c2b068fc378daa952ba7f163c4a11628f55a4df523b3ef838383604051808473ffffffffffffffffffffffffffffffffffffffff1673ffffffffffffffffffffffffffffffffffffffff1681526020018373ffffffffffffffffffffffffffffffffffffffff1673ffffffffffffffffffffffffffffffffffffffff168152602001828152602001935050505060405180910390a15050505600a165627a7a72305820df34d0f9e4573afb4fd32b58c77fadfaed0d6bfb6a95569759a0d0fd95c703090029",
  "source": "pragma solidity ^0.4.25;\n\nimport \"./PZEggBase.sol\";\nimport \"./TRC721.sol\";\nimport \"./TRC721Metadata.sol\";\n\ncontract PZEggOwnership is PZEggBase, TRC721\n{\n    string public constant name = \"PZeggs\";\n    string public constant symbol = \"PE\";\n\n    TRC721Metadata public trc721Metadata;\n\n    bytes4 constant InterfaceSignature_TRC165 =\n        bytes4(keccak256('supportsInterface(bytes4)'));\n\n    bytes4 constant InterfaceSignature_TRC721 =\n        bytes4(keccak256('name()')) ^\n        bytes4(keccak256('symbol()')) ^\n        bytes4(keccak256('totalSupply()')) ^\n        bytes4(keccak256('balanceOf(address)')) ^\n        bytes4(keccak256('ownerOf(uint256)')) ^\n        bytes4(keccak256('approve(address,uint256)')) ^\n        bytes4(keccak256('transfer(address,uint256)')) ^\n        bytes4(keccak256('transferFrom(address,address,uint256)')) ^\n        bytes4(keccak256('eggsOfOwner(address)')) ^\n        bytes4(keccak256('tokenMetadata(uint256,string)'));\n\n    function supportsInterface(bytes4 _interfaceID) external view returns (bool)\n    {\n        return ((_interfaceID == InterfaceSignature_TRC165) || (_interfaceID == InterfaceSignature_TRC721));\n    }\n\n    /**\n    * Set Meta Data Address of TRC721\n    * @param _contractAddress                      Address of TRC721\n    *\n     */\n    function setMetadataAddress(address _contractAddress) public onlyAdmin {\n        trc721Metadata = TRC721Metadata(_contractAddress);\n    }\n\n    /**\n    * Check if the claimant owns Egg\n    * @param _claimant                  Address of Claimer\n    * @param _eggId                     Egg Id\n    *\n    * @return result                    The boolean result if claimant owns given Egg\n    *\n     */\n    function _owns(address _claimant, uint256 _eggId) internal view returns (bool) {\n        return eggIndexToOwner[_eggId] == _claimant;\n    }\n\n    /**\n    * Check if egg is approved for Claimant\n    * @param _claimant                  Address of Claimer\n    * @param _eggId                     Egg Id\n    *\n    * @return result                    The boolean result if claimant is approved for given Egg\n    *\n     */\n    function _approvedFor(address _claimant, uint256 _eggId) internal view returns (bool) {\n        return eggIndexToApproved[_eggId] == _claimant;\n    }\n\n    /**\n    * Approve Egg for for Claimant\n    * @param _approved                  Address of approved\n    * @param _eggId                     Egg Id\n    *\n     */\n    function _approve(uint256 _eggId, address _approved) internal {\n        eggIndexToApproved[_eggId] = _approved;\n    }\n\n    /**\n    * Get Balance of Owner\n    * @return count                     Count of Eggs owned by Owner\n    *\n     */\n    function balanceOf(address _owner) public view returns (uint256 count) {\n        return ownershipEggCount[_owner];\n    }\n\n    /**\n    * Transfer Egg\n    * @param _to                            Address of receiver\n    * @param _eggId                         Egg Id to be transferred\n    *\n     */\n    function transfer(\n        address _to,\n        uint256 _eggId\n    )\n        external\n    {\n        // Safety check to prevent against an unexpected 0x0 default.\n        require(_to != address(0x0));\n        require(_to != address(this));\n\n        require(_owns(msg.sender, _eggId));\n\n        _transfer(msg.sender, _to, _eggId);\n    }\n\n    /**\n    * Approve Egg for for Claimant\n    * @param _to                        Address to be approved by Egg\n    * @param _eggId                     Egg Id\n    *\n     */\n    function approve(\n        address _to,\n        uint256 _eggId\n    )\n        external\n    {\n        // Only an owner can grant transfer approval.\n        require(_owns(msg.sender, _eggId));\n\n        // Register the approval (replacing any previous approval).\n        _approve(_eggId, _to);\n\n        // Emit approval event.\n        emit Approval(msg.sender, _to, _eggId);\n    }\n\n    /**\n    * Transfer Egg\n    * @param _from                          Address of transfer\n    * @param _to                            Address of receiver\n    * @param _eggId                         Egg Id to be transferred\n    *\n     */\n    function transferFrom(\n        address _from,\n        address _to,\n        uint256 _eggId\n    )\n        external\n    {\n        require(_to != address(0));\n\n        require(_to != address(this));\n\n        require(_approvedFor(msg.sender, _eggId));\n        require(_owns(_from, _eggId));\n\n        _transfer(_from, _to, _eggId);\n    }\n\n    /**\n    * Get Total Supply\n    * @return count                     Total Supply of Eggs\n    *\n     */\n    function totalSupply() public view returns (uint) {\n        return eggs.length - 1;\n    }\n\n    /**\n    * Get Owner of Given Egg\n    * @param _eggId                         Egg Id\n    * @return owner                         Owner's address of Egg id\n    *\n     */\n    function ownerOf(uint256 _eggId)\n        public\n        view\n        returns (address owner)\n    {\n        owner = eggIndexToOwner[_eggId];\n\n        require(owner != address(0x0));\n    }\n\n    /**\n    * Get Eggs of Owner\n    * @param _owner                         Owner's address of Egg id\n    *\n    * @return ownerEggs                     Owner's Eggs\n    *\n     */\n    function eggsOfOwner(address _owner) public view returns(uint256[] ownerEggs) {\n        uint256 eggCount = balanceOf(_owner);\n\n        if (eggCount == 0) {\n            // Return an empty array\n            return new uint256[](0);\n        } else {\n            uint256[] memory result = new uint256[](eggCount);\n            uint256 totaleggs = totalSupply();\n            uint256 resultIndex = 0;\n\n            uint256 eggId;\n\n            for (eggId = 1; eggId <= totaleggs; eggId++) {\n                if (eggIndexToOwner[eggId] == _owner) {\n                    result[resultIndex] = eggId;\n                    resultIndex++;\n                }\n            }\n\n            return result;\n        }\n    }\n\n    function _memcpy(uint _dest, uint _src, uint _len) private pure {\n        // Copy word-length chunks while possible\n        for(; _len >= 32; _len -= 32) {\n            assembly {\n                mstore(_dest, mload(_src))\n            }\n            _dest += 32;\n            _src += 32;\n        }\n\n        // Copy remaining bytes\n        uint256 mask = 256 ** (32 - _len) - 1;\n        assembly {\n            let srcpart := and(mload(_src), not(mask))\n            let destpart := and(mload(_dest), mask)\n            mstore(_dest, or(destpart, srcpart))\n        }\n    }\n\n    function _toString(bytes32[4] _rawBytes, uint256 _stringLength) private pure returns (string) {\n        string memory outputString = new string(_stringLength);\n        uint256 outputPtr;\n        uint256 bytesPtr;\n\n        assembly {\n            outputPtr := add(outputString, 32)\n            bytesPtr := _rawBytes\n        }\n\n        _memcpy(outputPtr, bytesPtr, _stringLength);\n\n        return outputString;\n    }\n}\n",
  "sourcePath": "/Volumes/Backup/workspace/Dave(Tron_NFT)/pizzaHero/contracts/PZEggOwnership.sol",
  "compiler": {
    "name": "solc",
    "version": "0.4.25+commit.69a1e720.Emscripten.clang"
  },
  "schemaVersion": "2.0.1",
  "updatedAt": "2020-01-15T17:21:03.492Z"
}