{
  "contractName": "PZEggCore",
  "abi": [
    {
      "constant": true,
      "inputs": [
        {
          "name": "_interfaceID",
          "type": "bytes4"
        }
      ],
      "name": "supportsInterface",
      "outputs": [
        {
          "name": "",
          "type": "bool"
        }
      ],
      "payable": false,
      "stateMutability": "view",
      "type": "function"
    },
    {
      "constant": true,
      "inputs": [],
      "name": "name",
      "outputs": [
        {
          "name": "",
          "type": "string"
        }
      ],
      "payable": false,
      "stateMutability": "view",
      "type": "function"
    },
    {
      "constant": false,
      "inputs": [
        {
          "name": "_to",
          "type": "address"
        },
        {
          "name": "_eggId",
          "type": "uint256"
        }
      ],
      "name": "approve",
      "outputs": [],
      "payable": false,
      "stateMutability": "nonpayable",
      "type": "function"
    },
    {
      "constant": true,
      "inputs": [],
      "name": "totalSupply",
      "outputs": [
        {
          "name": "",
          "type": "uint256"
        }
      ],
      "payable": false,
      "stateMutability": "view",
      "type": "function"
    },
    {
      "constant": true,
      "inputs": [
        {
          "name": "",
          "type": "uint256"
        }
      ],
      "name": "eggIndexToOwner",
      "outputs": [
        {
          "name": "",
          "type": "address"
        }
      ],
      "payable": false,
      "stateMutability": "view",
      "type": "function"
    },
    {
      "constant": true,
      "inputs": [
        {
          "name": "_eggId",
          "type": "uint256"
        }
      ],
      "name": "getEggAuctionByEggId",
      "outputs": [
        {
          "name": "seller",
          "type": "address"
        },
        {
          "name": "price",
          "type": "uint256"
        },
        {
          "name": "eggId",
          "type": "uint256"
        }
      ],
      "payable": false,
      "stateMutability": "view",
      "type": "function"
    },
    {
      "constant": false,
      "inputs": [
        {
          "name": "_from",
          "type": "address"
        },
        {
          "name": "_to",
          "type": "address"
        },
        {
          "name": "_eggId",
          "type": "uint256"
        }
      ],
      "name": "transferFrom",
      "outputs": [],
      "payable": false,
      "stateMutability": "nonpayable",
      "type": "function"
    },
    {
      "constant": true,
      "inputs": [],
      "name": "addrHero",
      "outputs": [
        {
          "name": "",
          "type": "address"
        }
      ],
      "payable": false,
      "stateMutability": "view",
      "type": "function"
    },
    {
      "constant": true,
      "inputs": [],
      "name": "getEggAuctionCount",
      "outputs": [
        {
          "name": "",
          "type": "uint256"
        }
      ],
      "payable": false,
      "stateMutability": "view",
      "type": "function"
    },
    {
      "constant": true,
      "inputs": [],
      "name": "contractGeneScience",
      "outputs": [
        {
          "name": "",
          "type": "address"
        }
      ],
      "payable": false,
      "stateMutability": "view",
      "type": "function"
    },
    {
      "constant": true,
      "inputs": [],
      "name": "contractHeroCore",
      "outputs": [
        {
          "name": "",
          "type": "address"
        }
      ],
      "payable": false,
      "stateMutability": "view",
      "type": "function"
    },
    {
      "constant": true,
      "inputs": [
        {
          "name": "_eggId",
          "type": "uint256"
        }
      ],
      "name": "ownerOf",
      "outputs": [
        {
          "name": "owner",
          "type": "address"
        }
      ],
      "payable": false,
      "stateMutability": "view",
      "type": "function"
    },
    {
      "constant": false,
      "inputs": [
        {
          "name": "_eggId",
          "type": "uint256"
        }
      ],
      "name": "bidAuction",
      "outputs": [],
      "payable": true,
      "stateMutability": "payable",
      "type": "function"
    },
    {
      "constant": true,
      "inputs": [
        {
          "name": "_owner",
          "type": "address"
        }
      ],
      "name": "balanceOf",
      "outputs": [
        {
          "name": "count",
          "type": "uint256"
        }
      ],
      "payable": false,
      "stateMutability": "view",
      "type": "function"
    },
    {
      "constant": false,
      "inputs": [
        {
          "name": "_price",
          "type": "uint256"
        },
        {
          "name": "_eggId",
          "type": "uint256"
        }
      ],
      "name": "addAuction",
      "outputs": [],
      "payable": false,
      "stateMutability": "nonpayable",
      "type": "function"
    },
    {
      "constant": true,
      "inputs": [],
      "name": "addrChest",
      "outputs": [
        {
          "name": "",
          "type": "address"
        }
      ],
      "payable": false,
      "stateMutability": "view",
      "type": "function"
    },
    {
      "constant": true,
      "inputs": [
        {
          "name": "",
          "type": "uint256"
        }
      ],
      "name": "eggIndexToApproved",
      "outputs": [
        {
          "name": "",
          "type": "address"
        }
      ],
      "payable": false,
      "stateMutability": "view",
      "type": "function"
    },
    {
      "constant": true,
      "inputs": [],
      "name": "symbol",
      "outputs": [
        {
          "name": "",
          "type": "string"
        }
      ],
      "payable": false,
      "stateMutability": "view",
      "type": "function"
    },
    {
      "constant": false,
      "inputs": [
        {
          "name": "_eggId",
          "type": "uint256"
        }
      ],
      "name": "cancelAuction",
      "outputs": [],
      "payable": false,
      "stateMutability": "nonpayable",
      "type": "function"
    },
    {
      "constant": false,
      "inputs": [
        {
          "name": "_to",
          "type": "address"
        },
        {
          "name": "_eggId",
          "type": "uint256"
        }
      ],
      "name": "transfer",
      "outputs": [],
      "payable": false,
      "stateMutability": "nonpayable",
      "type": "function"
    },
    {
      "constant": true,
      "inputs": [
        {
          "name": "",
          "type": "uint256"
        }
      ],
      "name": "eggs",
      "outputs": [
        {
          "name": "date",
          "type": "uint256"
        },
        {
          "name": "price",
          "type": "uint256"
        },
        {
          "name": "tokenId",
          "type": "uint256"
        },
        {
          "name": "tokenPrice",
          "type": "uint256"
        },
        {
          "name": "matronId",
          "type": "uint256"
        },
        {
          "name": "sireId",
          "type": "uint256"
        }
      ],
      "payable": false,
      "stateMutability": "view",
      "type": "function"
    },
    {
      "constant": true,
      "inputs": [],
      "name": "addrAdmin",
      "outputs": [
        {
          "name": "",
          "type": "address"
        }
      ],
      "payable": false,
      "stateMutability": "view",
      "type": "function"
    },
    {
      "constant": true,
      "inputs": [],
      "name": "getEggIdsOnSale",
      "outputs": [
        {
          "name": "",
          "type": "uint256[]"
        }
      ],
      "payable": false,
      "stateMutability": "view",
      "type": "function"
    },
    {
      "constant": true,
      "inputs": [
        {
          "name": "",
          "type": "address"
        }
      ],
      "name": "ownershipEggCount",
      "outputs": [
        {
          "name": "",
          "type": "uint256"
        }
      ],
      "payable": false,
      "stateMutability": "view",
      "type": "function"
    },
    {
      "constant": true,
      "inputs": [
        {
          "name": "_auctionId",
          "type": "uint256"
        }
      ],
      "name": "getEggAuction",
      "outputs": [
        {
          "name": "seller",
          "type": "address"
        },
        {
          "name": "price",
          "type": "uint256"
        },
        {
          "name": "eggId",
          "type": "uint256"
        }
      ],
      "payable": false,
      "stateMutability": "view",
      "type": "function"
    },
    {
      "constant": true,
      "inputs": [
        {
          "name": "",
          "type": "uint256"
        }
      ],
      "name": "eggAuctions",
      "outputs": [
        {
          "name": "seller",
          "type": "address"
        },
        {
          "name": "startingPrice",
          "type": "uint256"
        },
        {
          "name": "eggId",
          "type": "uint256"
        }
      ],
      "payable": false,
      "stateMutability": "view",
      "type": "function"
    },
    {
      "constant": false,
      "inputs": [
        {
          "name": "_contractAddress",
          "type": "address"
        }
      ],
      "name": "setMetadataAddress",
      "outputs": [],
      "payable": false,
      "stateMutability": "nonpayable",
      "type": "function"
    },
    {
      "constant": true,
      "inputs": [],
      "name": "trc721Metadata",
      "outputs": [
        {
          "name": "",
          "type": "address"
        }
      ],
      "payable": false,
      "stateMutability": "view",
      "type": "function"
    },
    {
      "constant": true,
      "inputs": [
        {
          "name": "_owner",
          "type": "address"
        }
      ],
      "name": "eggsOfOwner",
      "outputs": [
        {
          "name": "ownerEggs",
          "type": "uint256[]"
        }
      ],
      "payable": false,
      "stateMutability": "view",
      "type": "function"
    },
    {
      "inputs": [
        {
          "name": "_addrGeneScience",
          "type": "address"
        }
      ],
      "payable": false,
      "stateMutability": "nonpayable",
      "type": "constructor"
    },
    {
      "anonymous": false,
      "inputs": [
        {
          "indexed": false,
          "name": "from",
          "type": "address"
        },
        {
          "indexed": false,
          "name": "to",
          "type": "address"
        },
        {
          "indexed": false,
          "name": "tokenId",
          "type": "uint256"
        }
      ],
      "name": "Transfer",
      "type": "event"
    },
    {
      "anonymous": false,
      "inputs": [
        {
          "indexed": false,
          "name": "owner",
          "type": "address"
        },
        {
          "indexed": false,
          "name": "approved",
          "type": "address"
        },
        {
          "indexed": false,
          "name": "tokenId",
          "type": "uint256"
        }
      ],
      "name": "Approval",
      "type": "event"
    },
    {
      "anonymous": false,
      "inputs": [
        {
          "indexed": false,
          "name": "itmeType",
          "type": "uint256"
        },
        {
          "indexed": false,
          "name": "quantity",
          "type": "uint256"
        }
      ],
      "name": "EggsCreated",
      "type": "event"
    },
    {
      "constant": false,
      "inputs": [
        {
          "name": "_addrChest",
          "type": "address"
        }
      ],
      "name": "setChestAddr",
      "outputs": [],
      "payable": false,
      "stateMutability": "nonpayable",
      "type": "function"
    },
    {
      "constant": false,
      "inputs": [
        {
          "name": "_addrHero",
          "type": "address"
        }
      ],
      "name": "setHeroAddr",
      "outputs": [],
      "payable": false,
      "stateMutability": "nonpayable",
      "type": "function"
    },
    {
      "constant": true,
      "inputs": [],
      "name": "eggTest",
      "outputs": [
        {
          "name": "",
          "type": "address"
        }
      ],
      "payable": false,
      "stateMutability": "view",
      "type": "function"
    },
    {
      "constant": true,
      "inputs": [],
      "name": "isEggContract",
      "outputs": [
        {
          "name": "",
          "type": "bool"
        }
      ],
      "payable": false,
      "stateMutability": "pure",
      "type": "function"
    },
    {
      "constant": false,
      "inputs": [
        {
          "name": "_eggOwner",
          "type": "address"
        },
        {
          "name": "_date",
          "type": "uint256"
        },
        {
          "name": "_price",
          "type": "uint256"
        },
        {
          "name": "_tokenId",
          "type": "uint256"
        },
        {
          "name": "_tokenPrice",
          "type": "uint256"
        },
        {
          "name": "_matronId",
          "type": "uint256"
        },
        {
          "name": "_sireId",
          "type": "uint256"
        }
      ],
      "name": "createEggToOwner",
      "outputs": [],
      "payable": false,
      "stateMutability": "nonpayable",
      "type": "function"
    },
    {
      "constant": true,
      "inputs": [
        {
          "name": "_eggId",
          "type": "uint256"
        }
      ],
      "name": "getEgg",
      "outputs": [
        {
          "name": "date",
          "type": "uint256"
        },
        {
          "name": "price",
          "type": "uint256"
        },
        {
          "name": "tokenId",
          "type": "uint256"
        },
        {
          "name": "tokenPrice",
          "type": "uint256"
        },
        {
          "name": "matronId",
          "type": "uint256"
        },
        {
          "name": "sireId",
          "type": "uint256"
        }
      ],
      "payable": false,
      "stateMutability": "view",
      "type": "function"
    },
    {
      "constant": false,
      "inputs": [
        {
          "name": "_to",
          "type": "address"
        },
        {
          "name": "_eggId",
          "type": "uint256"
        }
      ],
      "name": "giftEgg",
      "outputs": [],
      "payable": false,
      "stateMutability": "nonpayable",
      "type": "function"
    },
    {
      "constant": false,
      "inputs": [
        {
          "name": "_eggId",
          "type": "uint256"
        }
      ],
      "name": "giveBirth",
      "outputs": [],
      "payable": false,
      "stateMutability": "nonpayable",
      "type": "function"
    }
  ],
  "bytecode": "0x60806040523480156200001157600080fd5b50d380156200001f57600080fd5b50d280156200002d57600080fd5b50604051602080620033df833981018060405281019080805190602001909291905050506000336000806101000a81548173ffffffffffffffffffffffffffffffffffffffff021916908373ffffffffffffffffffffffffffffffffffffffff1602179055508190508073ffffffffffffffffffffffffffffffffffffffff166354c15b826040518163ffffffff167c0100000000000000000000000000000000000000000000000000000000028152600401602060405180830381600087803b158015620000fb57600080fd5b505af115801562000110573d6000803e3d6000fd5b505050506040513d60208110156200012757600080fd5b810190808051906020019092919050505015156200014457600080fd5b80600a60006101000a81548173ffffffffffffffffffffffffffffffffffffffff021916908373ffffffffffffffffffffffffffffffffffffffff160217905550505061324880620001976000396000f3006080604052600436106101cd576000357c0100000000000000000000000000000000000000000000000000000000900463ffffffff16806301ffc9a7146101d257806306fdde0314610250578063095ea7b3146102fa57806318160ddd146103615780631d9279ea146103a657806321a4531a1461042d57806323b872dd146104c257806324c89b33146105495780632bc9f293146105ba5780633768c9941461062b5780633ba864fe1461067057806352270c47146106e157806353b4e8fa1461073e5780636173a5d4146107af5780636352211e1461080c57806364a7d7c71461089357806370a08231146108b357806373187d271461092457806376c0b3671461097557806383fc8c5b146109e657806388c2a0bf14610a4d5780638ef30b8114610a9457806395d89b4114610b1b57806396b5a75514610bc557806399b2af4714610c0c5780639f5010e014610c55578063a9059cbb14610cee578063bb654efa14610d55578063bfae2f0e14610dd3578063d0fbb24114610e44578063d26cadc914610eca578063d5350ca314610f3b578063d94569b314610fd0578063e17b25af14611065578063f15f9388146110c2578063fce2535414611133578063feb40f7e146111e5575b600080fd5b3480156101de57600080fd5b50d380156101eb57600080fd5b50d280156101f857600080fd5b5061023660048036038101908080357bffffffffffffffffffffffffffffffffffffffffffffffffffffffff19169060200190929190505050611263565b604051808215151515815260200191505060405180910390f35b34801561025c57600080fd5b50d3801561026957600080fd5b50d2801561027657600080fd5b5061027f611574565b6040518080602001828103825283818151815260200191508051906020019080838360005b838110156102bf5780820151818401526020810190506102a4565b50505050905090810190601f1680156102ec5780820380516001836020036101000a031916815260200191505b509250505060405180910390f35b34801561030657600080fd5b50d3801561031357600080fd5b50d2801561032057600080fd5b5061035f600480360381019080803573ffffffffffffffffffffffffffffffffffffffff169060200190929190803590602001909291905050506115ad565b005b34801561036d57600080fd5b50d3801561037a57600080fd5b50d2801561038757600080fd5b5061039061166f565b6040518082815260200191505060405180910390f35b3480156103b257600080fd5b50d380156103bf57600080fd5b50d280156103cc57600080fd5b506103eb6004803603810190808035906020019092919050505061167e565b604051808273ffffffffffffffffffffffffffffffffffffffff1673ffffffffffffffffffffffffffffffffffffffff16815260200191505060405180910390f35b34801561043957600080fd5b50d3801561044657600080fd5b50d2801561045357600080fd5b50610472600480360381019080803590602001909291905050506116b1565b604051808473ffffffffffffffffffffffffffffffffffffffff1673ffffffffffffffffffffffffffffffffffffffff168152602001838152602001828152602001935050505060405180910390f35b3480156104ce57600080fd5b50d380156104db57600080fd5b50d280156104e857600080fd5b50610547600480360381019080803573ffffffffffffffffffffffffffffffffffffffff169060200190929190803573ffffffffffffffffffffffffffffffffffffffff16906020019092919080359060200190929190505050611766565b005b34801561055557600080fd5b50d3801561056257600080fd5b50d2801561056f57600080fd5b50610578611817565b604051808273ffffffffffffffffffffffffffffffffffffffff1673ffffffffffffffffffffffffffffffffffffffff16815260200191505060405180910390f35b3480156105c657600080fd5b50d380156105d357600080fd5b50d280156105e057600080fd5b506105e9611841565b604051808273ffffffffffffffffffffffffffffffffffffffff1673ffffffffffffffffffffffffffffffffffffffff16815260200191505060405180910390f35b34801561063757600080fd5b50d3801561064457600080fd5b50d2801561065157600080fd5b5061065a611867565b6040518082815260200191505060405180910390f35b34801561067c57600080fd5b50d3801561068957600080fd5b50d2801561069657600080fd5b5061069f611874565b604051808273ffffffffffffffffffffffffffffffffffffffff1673ffffffffffffffffffffffffffffffffffffffff16815260200191505060405180910390f35b3480156106ed57600080fd5b50d380156106fa57600080fd5b50d2801561070757600080fd5b5061073c600480360381019080803573ffffffffffffffffffffffffffffffffffffffff16906020019092919050505061189a565b005b34801561074a57600080fd5b50d3801561075757600080fd5b50d2801561076457600080fd5b5061076d6119d8565b604051808273ffffffffffffffffffffffffffffffffffffffff1673ffffffffffffffffffffffffffffffffffffffff16815260200191505060405180910390f35b3480156107bb57600080fd5b50d380156107c857600080fd5b50d280156107d557600080fd5b5061080a600480360381019080803573ffffffffffffffffffffffffffffffffffffffff1690602001909291905050506119fe565b005b34801561081857600080fd5b50d3801561082557600080fd5b50d2801561083257600080fd5b5061085160048036038101908080359060200190929190505050611ad9565b604051808273ffffffffffffffffffffffffffffffffffffffff1673ffffffffffffffffffffffffffffffffffffffff16815260200191505060405180910390f35b6108b160048036038101908080359060200190929190505050611b52565b005b3480156108bf57600080fd5b50d380156108cc57600080fd5b50d280156108d957600080fd5b5061090e600480360381019080803573ffffffffffffffffffffffffffffffffffffffff169060200190929190505050611c85565b6040518082815260200191505060405180910390f35b34801561093057600080fd5b50d3801561093d57600080fd5b50d2801561094a57600080fd5b506109736004803603810190808035906020019092919080359060200190929190505050611cce565b005b34801561098157600080fd5b50d3801561098e57600080fd5b50d2801561099b57600080fd5b506109a4611db0565b604051808273ffffffffffffffffffffffffffffffffffffffff1673ffffffffffffffffffffffffffffffffffffffff16815260200191505060405180910390f35b3480156109f257600080fd5b50d380156109ff57600080fd5b50d28015610a0c57600080fd5b50610a4b600480360381019080803573ffffffffffffffffffffffffffffffffffffffff16906020019092919080359060200190929190505050611dd6565b005b348015610a5957600080fd5b50d38015610a6657600080fd5b50d28015610a7357600080fd5b50610a9260048036038101908080359060200190929190505050611e36565b005b348015610aa057600080fd5b50d38015610aad57600080fd5b50d28015610aba57600080fd5b50610ad9600480360381019080803590602001909291905050506125d4565b604051808273ffffffffffffffffffffffffffffffffffffffff1673ffffffffffffffffffffffffffffffffffffffff16815260200191505060405180910390f35b348015610b2757600080fd5b50d38015610b3457600080fd5b50d28015610b4157600080fd5b50610b4a612607565b6040518080602001828103825283818151815260200191508051906020019080838360005b83811015610b8a578082015181840152602081019050610b6f565b50505050905090810190601f168015610bb75780820380516001836020036101000a031916815260200191505b509250505060405180910390f35b348015610bd157600080fd5b50d38015610bde57600080fd5b50d28015610beb57600080fd5b50610c0a60048036038101908080359060200190929190505050612640565b005b348015610c1857600080fd5b50d38015610c2557600080fd5b50d28015610c3257600080fd5b50610c3b61273e565b604051808215151515815260200191505060405180910390f35b348015610c6157600080fd5b50d38015610c6e57600080fd5b50d28015610c7b57600080fd5b50610cec600480360381019080803573ffffffffffffffffffffffffffffffffffffffff169060200190929190803590602001909291908035906020019092919080359060200190929190803590602001909291908035906020019092919080359060200190929190505050612747565b005b348015610cfa57600080fd5b50d38015610d0757600080fd5b50d28015610d1457600080fd5b50610d53600480360381019080803573ffffffffffffffffffffffffffffffffffffffff1690602001909291908035906020019092919050505061283b565b005b348015610d6157600080fd5b50d38015610d6e57600080fd5b50d28015610d7b57600080fd5b50610d9a600480360381019080803590602001909291905050506128d6565b60405180878152602001868152602001858152602001848152602001838152602001828152602001965050505050505060405180910390f35b348015610ddf57600080fd5b50d38015610dec57600080fd5b50d28015610df957600080fd5b50610e02612921565b604051808273ffffffffffffffffffffffffffffffffffffffff1673ffffffffffffffffffffffffffffffffffffffff16815260200191505060405180910390f35b348015610e5057600080fd5b50d38015610e5d57600080fd5b50d28015610e6a57600080fd5b50610e73612946565b6040518080602001828103825283818151815260200191508051906020019060200280838360005b83811015610eb6578082015181840152602081019050610e9b565b505050509050019250505060405180910390f35b348015610ed657600080fd5b50d38015610ee357600080fd5b50d28015610ef057600080fd5b50610f25600480360381019080803573ffffffffffffffffffffffffffffffffffffffff169060200190929190505050612956565b6040518082815260200191505060405180910390f35b348015610f4757600080fd5b50d38015610f5457600080fd5b50d28015610f6157600080fd5b50610f806004803603810190808035906020019092919050505061296e565b604051808473ffffffffffffffffffffffffffffffffffffffff1673ffffffffffffffffffffffffffffffffffffffff168152602001838152602001828152602001935050505060405180910390f35b348015610fdc57600080fd5b50d38015610fe957600080fd5b50d28015610ff657600080fd5b5061101560048036038101908080359060200190929190505050612a2d565b604051808473ffffffffffffffffffffffffffffffffffffffff1673ffffffffffffffffffffffffffffffffffffffff168152602001838152602001828152602001935050505060405180910390f35b34801561107157600080fd5b50d3801561107e57600080fd5b50d2801561108b57600080fd5b506110c0600480360381019080803573ffffffffffffffffffffffffffffffffffffffff169060200190929190505050612a86565b005b3480156110ce57600080fd5b50d380156110db57600080fd5b50d280156110e857600080fd5b506110f1612b25565b604051808273ffffffffffffffffffffffffffffffffffffffff1673ffffffffffffffffffffffffffffffffffffffff16815260200191505060405180910390f35b34801561113f57600080fd5b50d3801561114c57600080fd5b50d2801561115957600080fd5b5061118e600480360381019080803573ffffffffffffffffffffffffffffffffffffffff169060200190929190505050612b4b565b6040518080602001828103825283818151815260200191508051906020019060200280838360005b838110156111d15780820151818401526020810190506111b6565b505050509050019250505060405180910390f35b3480156111f157600080fd5b50d380156111fe57600080fd5b50d2801561120b57600080fd5b5061122a60048036038101908080359060200190929190505050612c98565b60405180878152602001868152602001858152602001848152602001838152602001828152602001965050505050505060405180910390f35b600060405180807f737570706f727473496e74657266616365286279746573342900000000000000815250601901905060405180910390207bffffffffffffffffffffffffffffffffffffffffffffffffffffffff1916827bffffffffffffffffffffffffffffffffffffffffffffffffffffffff1916148061156d575060405180807f746f6b656e4d657461646174612875696e743235362c737472696e6729000000815250601d019050604051809103902060405180807f656767734f664f776e65722861646472657373290000000000000000000000008152506014019050604051809103902060405180807f7472616e7366657246726f6d28616464726573732c616464726573732c75696e81526020017f74323536290000000000000000000000000000000000000000000000000000008152506025019050604051809103902060405180807f7472616e7366657228616464726573732c75696e7432353629000000000000008152506019019050604051809103902060405180807f617070726f766528616464726573732c75696e743235362900000000000000008152506018019050604051809103902060405180807f6f776e65724f662875696e7432353629000000000000000000000000000000008152506010019050604051809103902060405180807f62616c616e63654f6628616464726573732900000000000000000000000000008152506012019050604051809103902060405180807f746f74616c537570706c79282900000000000000000000000000000000000000815250600d019050604051809103902060405180807f73796d626f6c28290000000000000000000000000000000000000000000000008152506008019050604051809103902060405180807f6e616d6528290000000000000000000000000000000000000000000000000000815250600601905060405180910390201818181818181818187bffffffffffffffffffffffffffffffffffffffffffffffffffffffff1916827bffffffffffffffffffffffffffffffffffffffffffffffffffffffff1916145b9050919050565b6040805190810160405280600681526020017f505a65676773000000000000000000000000000000000000000000000000000081525081565b6115b73382612d44565b15156115c257600080fd5b6115cc8183612db0565b7f8c5be1e5ebec7d5bd14f71427d1e84f3dd0314c0f7b2291e5b200ac8c7c3b925338383604051808473ffffffffffffffffffffffffffffffffffffffff1673ffffffffffffffffffffffffffffffffffffffff1681526020018373ffffffffffffffffffffffffffffffffffffffff1673ffffffffffffffffffffffffffffffffffffffff168152602001828152602001935050505060405180910390a15050565b60006001808054905003905090565b60046020528060005260406000206000915054906101000a900473ffffffffffffffffffffffffffffffffffffffff1681565b60008060006116be6131ad565b60086000868152602001908152602001600020606060405190810160405290816000820160009054906101000a900473ffffffffffffffffffffffffffffffffffffffff1673ffffffffffffffffffffffffffffffffffffffff1673ffffffffffffffffffffffffffffffffffffffff168152602001600182015481526020016002820154815250509050806000015181602001518260400151935093509350509193909250565b600073ffffffffffffffffffffffffffffffffffffffff168273ffffffffffffffffffffffffffffffffffffffff16141515156117a257600080fd5b3073ffffffffffffffffffffffffffffffffffffffff168273ffffffffffffffffffffffffffffffffffffffff16141515156117dd57600080fd5b6117e73382612e06565b15156117f257600080fd5b6117fc8382612d44565b151561180757600080fd5b611812838383612e72565b505050565b6000600260009054906101000a900473ffffffffffffffffffffffffffffffffffffffff16905090565b600360009054906101000a900473ffffffffffffffffffffffffffffffffffffffff1681565b6000600980549050905090565b600a60009054906101000a900473ffffffffffffffffffffffffffffffffffffffff1681565b6000809054906101000a900473ffffffffffffffffffffffffffffffffffffffff1673ffffffffffffffffffffffffffffffffffffffff163373ffffffffffffffffffffffffffffffffffffffff161415156118f557600080fd5b600073ffffffffffffffffffffffffffffffffffffffff168173ffffffffffffffffffffffffffffffffffffffff161415151561193157600080fd5b80600360006101000a81548173ffffffffffffffffffffffffffffffffffffffff021916908373ffffffffffffffffffffffffffffffffffffffff160217905550600360009054906101000a900473ffffffffffffffffffffffffffffffffffffffff16600b60006101000a81548173ffffffffffffffffffffffffffffffffffffffff021916908373ffffffffffffffffffffffffffffffffffffffff16021790555050565b600b60009054906101000a900473ffffffffffffffffffffffffffffffffffffffff1681565b6000809054906101000a900473ffffffffffffffffffffffffffffffffffffffff1673ffffffffffffffffffffffffffffffffffffffff163373ffffffffffffffffffffffffffffffffffffffff16141515611a5957600080fd5b600073ffffffffffffffffffffffffffffffffffffffff168173ffffffffffffffffffffffffffffffffffffffff1614151515611a9557600080fd5b80600260006101000a81548173ffffffffffffffffffffffffffffffffffffffff021916908373ffffffffffffffffffffffffffffffffffffffff16021790555050565b60006004600083815260200190815260200160002060009054906101000a900473ffffffffffffffffffffffffffffffffffffffff169050600073ffffffffffffffffffffffffffffffffffffffff168173ffffffffffffffffffffffffffffffffffffffff1614151515611b4d57600080fd5b919050565b611b5a6131ad565b611b643083612d44565b1515611b6f57600080fd5b60086000838152602001908152602001600020606060405190810160405290816000820160009054906101000a900473ffffffffffffffffffffffffffffffffffffffff1673ffffffffffffffffffffffffffffffffffffffff1673ffffffffffffffffffffffffffffffffffffffff168152602001600182015481526020016002820154815250509050611c043383612d44565b151515611c1057600080fd5b348160200151141515611c2257600080fd5b611c2b82613074565b611c36303384612e72565b806000015173ffffffffffffffffffffffffffffffffffffffff166108fc349081150290604051600060405180830381858888f19350505050158015611c80573d6000803e3d6000fd5b505050565b6000600560008373ffffffffffffffffffffffffffffffffffffffff1673ffffffffffffffffffffffffffffffffffffffff168152602001908152602001600020549050919050565b611cd66131ad565b600083111515611ce557600080fd5b611cef3383612d44565b1515611cfa57600080fd5b6060604051908101604052803373ffffffffffffffffffffffffffffffffffffffff168152602001848152602001838152509050611d39333084612e72565b806008600084815260200190815260200160002060008201518160000160006101000a81548173ffffffffffffffffffffffffffffffffffffffff021916908373ffffffffffffffffffffffffffffffffffffffff1602179055506020820151816001015560408201518160020155905050505050565b600260009054906101000a900473ffffffffffffffffffffffffffffffffffffffff1681565b611de03382612d44565b1515611deb57600080fd5b600073ffffffffffffffffffffffffffffffffffffffff168273ffffffffffffffffffffffffffffffffffffffff1614151515611e2757600080fd5b611e32338383612e72565b5050565b611e3e6131e5565b6000806000806000806000611e53338a612d44565b1515611e5e57600080fd5b600189815481101515611e6d57fe5b906000526020600020906006020160c06040519081016040529081600082015481526020016001820154815260200160028201548152602001600382015481526020016004820154815260200160058201548152505097506000965060009550600094506000935060009250600091506000905060008860800151148015611ef9575060008860a00151145b15611fca5760009150600a60009054906101000a900473ffffffffffffffffffffffffffffffffffffffff1673ffffffffffffffffffffffffffffffffffffffff16635ddef9dd6040518163ffffffff167c0100000000000000000000000000000000000000000000000000000000028152600401602060405180830381600087803b158015611f8857600080fd5b505af1158015611f9c573d6000803e3d6000fd5b505050506040513d6020811015611fb257600080fd5b8101908080519060200190929190505050905061240f565b600b60009054906101000a900473ffffffffffffffffffffffffffffffffffffffff1673ffffffffffffffffffffffffffffffffffffffff166321d8011189608001516040518263ffffffff167c0100000000000000000000000000000000000000000000000000000000028152600401808281526020019150506101a060405180830381600087803b15801561206057600080fd5b505af1158015612074573d6000803e3d6000fd5b505050506040513d6101a081101561208b57600080fd5b8101908080519060200190929190805190602001909291908051906020019092919080519060200190929190805190602001909291908051906020019092919080519060200190929190805190602001909291908051906020019092919080519060200190929190805190602001909291908051906020019092919080519060200190929190505050909192939495969798999a9b50909192939495969798999a509091929394959697989950909192939495969798509091929394959650909192939450909192935090919250905050809850819750829950505050600b60009054906101000a900473ffffffffffffffffffffffffffffffffffffffff1673ffffffffffffffffffffffffffffffffffffffff166321d801118960a001516040518263ffffffff167c0100000000000000000000000000000000000000000000000000000000028152600401808281526020019150506101a060405180830381600087803b1580156121fe57600080fd5b505af1158015612212573d6000803e3d6000fd5b505050506040513d6101a081101561222957600080fd5b8101908080519060200190929190805190602001909291908051906020019092919080519060200190929190805190602001909291908051906020019092919080519060200190929190805190602001909291908051906020019092919080519060200190929190805190602001909291908051906020019092919080519060200190929190505050909192939495969798999a9b50909192939495969798999a5090919293949596979899509091929394959697985090919293949596509091929394955090919293945090919293509091925090505080945081955050508591508561ffff168361ffff161115612320578291505b600182019150600a60009054906101000a900473ffffffffffffffffffffffffffffffffffffffff1673ffffffffffffffffffffffffffffffffffffffff16630d9f5aed8886886040518463ffffffff167c0100000000000000000000000000000000000000000000000000000000028152600401808481526020018381526020018267ffffffffffffffff1681526020019350505050602060405180830381600087803b1580156123d157600080fd5b505af11580156123e5573d6000803e3d6000fd5b505050506040513d60208110156123fb57600080fd5b810190808051906020019092919050505090505b61241b3360008b612e72565b60018981548110151561242a57fe5b9060005260206000209060060201600080820160009055600182016000905560028201600090556003820160009055600482016000905560058201600090555050600b60009054906101000a900473ffffffffffffffffffffffffffffffffffffffff1673ffffffffffffffffffffffffffffffffffffffff1663e32170ae428a602001518b604001518c606001518d608001518e60a0015189896000336040518b63ffffffff167c0100000000000000000000000000000000000000000000000000000000028152600401808b81526020018a81526020018981526020018881526020018781526020018681526020018561ffff1681526020018481526020018361ffff1681526020018273ffffffffffffffffffffffffffffffffffffffff1673ffffffffffffffffffffffffffffffffffffffff1681526020019a5050505050505050505050602060405180830381600087803b15801561258d57600080fd5b505af11580156125a1573d6000803e3d6000fd5b505050506040513d60208110156125b757600080fd5b810190808051906020019092919050505050505050505050505050565b60066020528060005260406000206000915054906101000a900473ffffffffffffffffffffffffffffffffffffffff1681565b6040805190810160405280600281526020017f504500000000000000000000000000000000000000000000000000000000000081525081565b6126486131ad565b6126523083612d44565b151561265d57600080fd5b60086000838152602001908152602001600020606060405190810160405290816000820160009054906101000a900473ffffffffffffffffffffffffffffffffffffffff1673ffffffffffffffffffffffffffffffffffffffff1673ffffffffffffffffffffffffffffffffffffffff168152602001600182015481526020016002820154815250509050806000015173ffffffffffffffffffffffffffffffffffffffff163373ffffffffffffffffffffffffffffffffffffffff1614151561272657600080fd5b61272f82613074565b61273a303384612e72565b5050565b60006001905090565b600260009054906101000a900473ffffffffffffffffffffffffffffffffffffffff1673ffffffffffffffffffffffffffffffffffffffff163373ffffffffffffffffffffffffffffffffffffffff1614806127f05750600360009054906101000a900473ffffffffffffffffffffffffffffffffffffffff1673ffffffffffffffffffffffffffffffffffffffff163373ffffffffffffffffffffffffffffffffffffffff16145b15156127fb57600080fd5b8163ffffffff168214151561280f57600080fd5b8063ffffffff168114151561282357600080fd5b612832878787878787876130c4565b50505050505050565b600073ffffffffffffffffffffffffffffffffffffffff168273ffffffffffffffffffffffffffffffffffffffff161415151561287757600080fd5b3073ffffffffffffffffffffffffffffffffffffffff168273ffffffffffffffffffffffffffffffffffffffff16141515156128b257600080fd5b6128bc3382612d44565b15156128c757600080fd5b6128d2338383612e72565b5050565b6001818154811015156128e557fe5b90600052602060002090600602016000915090508060000154908060010154908060020154908060030154908060040154908060050154905086565b6000809054906101000a900473ffffffffffffffffffffffffffffffffffffffff1681565b606061295130612b4b565b905090565b60056020528060005260406000206000915090505481565b600080600061297b6131ad565b60098581548110151561298a57fe5b9060005260206000209060030201606060405190810160405290816000820160009054906101000a900473ffffffffffffffffffffffffffffffffffffffff1673ffffffffffffffffffffffffffffffffffffffff1673ffffffffffffffffffffffffffffffffffffffff168152602001600182015481526020016002820154815250509050806000015181602001518260400151935093509350509193909250565b600981815481101515612a3c57fe5b90600052602060002090600302016000915090508060000160009054906101000a900473ffffffffffffffffffffffffffffffffffffffff16908060010154908060020154905083565b6000809054906101000a900473ffffffffffffffffffffffffffffffffffffffff1673ffffffffffffffffffffffffffffffffffffffff163373ffffffffffffffffffffffffffffffffffffffff16141515612ae157600080fd5b80600760006101000a81548173ffffffffffffffffffffffffffffffffffffffff021916908373ffffffffffffffffffffffffffffffffffffffff16021790555050565b600760009054906101000a900473ffffffffffffffffffffffffffffffffffffffff1681565b6060600060606000806000612b5f87611c85565b94506000851415612ba2576000604051908082528060200260200182016040528015612b9a5781602001602082028038833980820191505090505b509550612c8e565b84604051908082528060200260200182016040528015612bd15781602001602082028038833980820191505090505b509350612bdc61166f565b925060009150600190505b8281111515612c8a578673ffffffffffffffffffffffffffffffffffffffff166004600083815260200190815260200160002060009054906101000a900473ffffffffffffffffffffffffffffffffffffffff1673ffffffffffffffffffffffffffffffffffffffff161415612c7d57808483815181101515612c6657fe5b906020019060200201818152505081806001019250505b8080600101915050612be7565b8395505b5050505050919050565b600080600080600080612ca96131e5565b600188815481101515612cb857fe5b906000526020600020906006020160c0604051908101604052908160008201548152602001600182015481526020016002820154815260200160038201548152602001600482015481526020016005820154815250509050806000015181602001518260400151836060015184608001518560a001519650965096509650965096505091939550919395565b60008273ffffffffffffffffffffffffffffffffffffffff166004600084815260200190815260200160002060009054906101000a900473ffffffffffffffffffffffffffffffffffffffff1673ffffffffffffffffffffffffffffffffffffffff1614905092915050565b806006600084815260200190815260200160002060006101000a81548173ffffffffffffffffffffffffffffffffffffffff021916908373ffffffffffffffffffffffffffffffffffffffff1602179055505050565b60008273ffffffffffffffffffffffffffffffffffffffff166006600084815260200190815260200160002060009054906101000a900473ffffffffffffffffffffffffffffffffffffffff1673ffffffffffffffffffffffffffffffffffffffff1614905092915050565b600560008373ffffffffffffffffffffffffffffffffffffffff1673ffffffffffffffffffffffffffffffffffffffff16815260200190815260200160002060008154809291906001019190505550816004600083815260200190815260200160002060006101000a81548173ffffffffffffffffffffffffffffffffffffffff021916908373ffffffffffffffffffffffffffffffffffffffff160217905550600073ffffffffffffffffffffffffffffffffffffffff168373ffffffffffffffffffffffffffffffffffffffff16141515612fd057600560008473ffffffffffffffffffffffffffffffffffffffff1673ffffffffffffffffffffffffffffffffffffffff16815260200190815260200160002060008154809291906001900391905055506006600082815260200190815260200160002060006101000a81549073ffffffffffffffffffffffffffffffffffffffff02191690555b7fddf252ad1be2c89b69c2b068fc378daa952ba7f163c4a11628f55a4df523b3ef838383604051808473ffffffffffffffffffffffffffffffffffffffff1673ffffffffffffffffffffffffffffffffffffffff1681526020018373ffffffffffffffffffffffffffffffffffffffff1673ffffffffffffffffffffffffffffffffffffffff168152602001828152602001935050505060405180910390a1505050565b60086000828152602001908152602001600020600080820160006101000a81549073ffffffffffffffffffffffffffffffffffffffff021916905560018201600090556002820160009055505050565b6130cc6131e5565b60008363ffffffff16841415156130e257600080fd5b8263ffffffff16831415156130f657600080fd5b60c0604051908101604052808981526020018881526020018781526020018681526020018581526020018481525091506001808390806001815401808255809150509060018203906000526020600020906006020160009091929091909150600082015181600001556020820151816001015560408201518160020155606082015181600301556080820151816004015560a0820151816005015550500390506131a260008a83612e72565b505050505050505050565b606060405190810160405280600073ffffffffffffffffffffffffffffffffffffffff16815260200160008152602001600081525090565b60c06040519081016040528060008152602001600081526020016000815260200160008152602001600081526020016000815250905600a165627a7a723058205916da363592e594917e8ee9d6ee83f36381b53742e4bf553d2c950363d0d8770029",
  "source": "pragma solidity ^0.4.25;\n\nimport \"./PZEggMarketplace.sol\";\nimport \"./PZHeroCore.sol\";\nimport \"./PZGeneScienceInterface.sol\";\n\ncontract PZEggCore is PZEggMarketplace\n{\n\n    PZGeneScienceInterface public           contractGeneScience;\n    PZHeroCore public                       contractHeroCore;\n\n    /**\n    * Constructor\n    * @param _addrGeneScience               Address of GeneScience contract\n    *\n     */\n    constructor(address _addrGeneScience) public\n    {\n        // require(_addrItemCore != address(0x0));\n        // addrItemCore = _addrItemCore;\n\n        // addrGeneScience = _addrGeneScience;\n        PZGeneScienceInterface candidateContract = PZGeneScienceInterface(_addrGeneScience);\n\n        require(candidateContract.isGeneScience());\n\n        // Set the new contract address\n        contractGeneScience = candidateContract;\n    }\n\n    /**\n    * Set Chest Address\n    * @param _addrChest                      Address of Chest contract\n    *\n     */\n    function setChestAddr(address _addrChest) public onlyAdmin\n    {\n        require(_addrChest != address(0x0));\n        addrChest = _addrChest; \n\n    }\n\n    /**\n    * Set Hero Address\n    * @param _addrHero                      Address of Hero contract\n    *\n     */\n    function setHeroAddr(address _addrHero) public onlyAdmin\n    {\n        require(_addrHero != address(0x0));\n        addrHero = _addrHero;\n        contractHeroCore = PZHeroCore(addrHero);\n    }\n\n    /**\n    * Test function\n    *\n     */\n    function eggTest() external view returns (address){\n        return addrChest;\n    }\n\n    /**\n    * Check function as if this is the Egg contract\n    *\n     */\n    function isEggContract() public pure returns (bool) {\n        return true;\n    }\n\n    /**\n    * Create Egg and transfer to Owner\n    * @param _eggOwner                      Address of Egg Owner\n    * @param _matronId                      Matron ID of new Egg\n    * @param _sireId                        Sire ID of new Egg\n    *\n     */\n    function createEggToOwner(address _eggOwner, uint _date, uint _price, uint _tokenId, uint _tokenPrice, uint256 _matronId, uint256 _sireId) public {\n        require((msg.sender == addrChest) || (msg.sender == addrHero));\n\n        require(_matronId == uint256(uint32(_matronId)));\n        require(_sireId == uint256(uint32(_sireId)));\n\n        _createEgg(_eggOwner, _date, _price, _tokenId, _tokenPrice, _matronId, _sireId);\n    }\n\n    /**\n    * Get Information of an Egg\n    * @param _eggId                      Egg Id\n    *\n    * @return matronId                   Matron ID\n    * @return sireId                     Sire ID\n    *\n     */\n    function getEgg(uint _eggId) public view returns(uint date, uint price, uint tokenId, uint tokenPrice, uint256 matronId, uint256 sireId)\n    {\n        Egg memory _egg = eggs[_eggId];\n        return(_egg.date, _egg.price, _egg.tokenId, _egg.tokenPrice, _egg.matronId, _egg.sireId);\n    }\n\n    /**\n    * Gift Egg to other users\n    *\n    * @param _to                            address of receiver\n    * @param _eggId                         Egg Id to gift\n    *\n    */\n    function giftEgg(address _to, uint256 _eggId) public\n    {\n        require(_owns(msg.sender, _eggId));\n        require(_to != address(0x0));\n        _transfer(msg.sender, _to, _eggId);\n    }\n\n    /**\n    * Birth the Egg to create new Hero\n    *\n    * @param _eggId                         Egg Id to gift\n    *\n    */\n    function giveBirth(uint256 _eggId) public\n    {\n        require(_owns(msg.sender, _eggId));\n        Egg memory _egg = eggs[_eggId];\n\n        uint256 matronGene = 0;\n        uint16  matronGeneration = 0;\n        uint64 cooldownEndBlock = 0;\n\n        uint256 sireGene = 0;\n        uint16  sireGeneration = 0;\n\n        uint16 childGeneration = 0;\n        uint256 childGenes = 0;\n\n        if ((_egg.matronId == 0) && (_egg.sireId == 0)) {\n            childGeneration = 0;\n            childGenes = contractGeneScience.generateGene0();\n        } else {\n            (,,,,matronGene,,cooldownEndBlock,,,,matronGeneration,,) = contractHeroCore.getHero(_egg.matronId);\n            (,,,,sireGene,,,,,,sireGeneration,,) = contractHeroCore.getHero(_egg.sireId);\n\n            childGeneration = matronGeneration;\n            if (sireGeneration > matronGeneration) {\n                childGeneration = sireGeneration;\n            }\n            childGeneration = childGeneration + 1;\n            childGenes = contractGeneScience.mixGenes(matronGene, sireGene, cooldownEndBlock);\n        }\n\n        _transfer(msg.sender, address(0), _eggId);\n        delete eggs[_eggId];\n        contractHeroCore.createHero(now, _egg.price, _egg.tokenId, _egg.tokenPrice, _egg.matronId, _egg.sireId, childGeneration, childGenes, 0, msg.sender);\n    }\n}\n",
  "sourcePath": "/Volumes/Backup/workspace/Dave(Tron_NFT)/pizzaHero/contracts/PZEggCore.sol",
  "compiler": {
    "name": "solc",
    "version": "0.4.25+commit.69a1e720.Emscripten.clang"
  },
  "schemaVersion": "2.0.1",
  "updatedAt": "2020-01-20T04:54:37.578Z"
}