{
  "contractName": "PZEggBase",
  "abi": [
    {
      "constant": true,
      "inputs": [
        {
          "name": "",
          "type": "uint256"
        }
      ],
      "name": "eggIndexToOwner",
      "outputs": [
        {
          "name": "",
          "type": "address"
        }
      ],
      "payable": false,
      "stateMutability": "view",
      "type": "function"
    },
    {
      "constant": true,
      "inputs": [],
      "name": "addrHero",
      "outputs": [
        {
          "name": "",
          "type": "address"
        }
      ],
      "payable": false,
      "stateMutability": "view",
      "type": "function"
    },
    {
      "constant": true,
      "inputs": [],
      "name": "addrChest",
      "outputs": [
        {
          "name": "",
          "type": "address"
        }
      ],
      "payable": false,
      "stateMutability": "view",
      "type": "function"
    },
    {
      "constant": true,
      "inputs": [
        {
          "name": "",
          "type": "uint256"
        }
      ],
      "name": "eggIndexToApproved",
      "outputs": [
        {
          "name": "",
          "type": "address"
        }
      ],
      "payable": false,
      "stateMutability": "view",
      "type": "function"
    },
    {
      "constant": true,
      "inputs": [
        {
          "name": "",
          "type": "uint256"
        }
      ],
      "name": "eggs",
      "outputs": [
        {
          "name": "date",
          "type": "uint256"
        },
        {
          "name": "price",
          "type": "uint256"
        },
        {
          "name": "tokenId",
          "type": "uint256"
        },
        {
          "name": "tokenPrice",
          "type": "uint256"
        },
        {
          "name": "matronId",
          "type": "uint256"
        },
        {
          "name": "sireId",
          "type": "uint256"
        }
      ],
      "payable": false,
      "stateMutability": "view",
      "type": "function"
    },
    {
      "constant": true,
      "inputs": [],
      "name": "addrAdmin",
      "outputs": [
        {
          "name": "",
          "type": "address"
        }
      ],
      "payable": false,
      "stateMutability": "view",
      "type": "function"
    },
    {
      "constant": true,
      "inputs": [
        {
          "name": "",
          "type": "address"
        }
      ],
      "name": "ownershipEggCount",
      "outputs": [
        {
          "name": "",
          "type": "uint256"
        }
      ],
      "payable": false,
      "stateMutability": "view",
      "type": "function"
    },
    {
      "inputs": [],
      "payable": false,
      "stateMutability": "nonpayable",
      "type": "constructor"
    },
    {
      "anonymous": false,
      "inputs": [
        {
          "indexed": false,
          "name": "from",
          "type": "address"
        },
        {
          "indexed": false,
          "name": "to",
          "type": "address"
        },
        {
          "indexed": false,
          "name": "eggId",
          "type": "uint256"
        }
      ],
      "name": "Transfer",
      "type": "event"
    },
    {
      "anonymous": false,
      "inputs": [
        {
          "indexed": false,
          "name": "itmeType",
          "type": "uint256"
        },
        {
          "indexed": false,
          "name": "quantity",
          "type": "uint256"
        }
      ],
      "name": "EggsCreated",
      "type": "event"
    }
  ],
  "bytecode": "0x608060405234801561001057600080fd5b50d3801561001d57600080fd5b50d2801561002a57600080fd5b50336000806101000a81548173ffffffffffffffffffffffffffffffffffffffff021916908373ffffffffffffffffffffffffffffffffffffffff1602179055506104968061007a6000396000f3fe608060405234801561001057600080fd5b50d3801561001d57600080fd5b50d2801561002a57600080fd5b50600436106100b4576000357c0100000000000000000000000000000000000000000000000000000000900480638ef30b81116100925780638ef30b81146101bb578063bb654efa14610229578063bfae2f0e1461028e578063d26cadc9146102d8576100b4565b80631d9279ea146100b95780632bc9f2931461012757806376c0b36714610171575b600080fd5b6100e5600480360360208110156100cf57600080fd5b8101908080359060200190929190505050610330565b604051808273ffffffffffffffffffffffffffffffffffffffff1673ffffffffffffffffffffffffffffffffffffffff16815260200191505060405180910390f35b61012f610363565b604051808273ffffffffffffffffffffffffffffffffffffffff1673ffffffffffffffffffffffffffffffffffffffff16815260200191505060405180910390f35b610179610389565b604051808273ffffffffffffffffffffffffffffffffffffffff1673ffffffffffffffffffffffffffffffffffffffff16815260200191505060405180910390f35b6101e7600480360360208110156101d157600080fd5b81019080803590602001909291905050506103af565b604051808273ffffffffffffffffffffffffffffffffffffffff1673ffffffffffffffffffffffffffffffffffffffff16815260200191505060405180910390f35b6102556004803603602081101561023f57600080fd5b81019080803590602001909291905050506103e2565b60405180878152602001868152602001858152602001848152602001838152602001828152602001965050505050505060405180910390f35b61029661042d565b604051808273ffffffffffffffffffffffffffffffffffffffff1673ffffffffffffffffffffffffffffffffffffffff16815260200191505060405180910390f35b61031a600480360360208110156102ee57600080fd5b81019080803573ffffffffffffffffffffffffffffffffffffffff169060200190929190505050610452565b6040518082815260200191505060405180910390f35b60046020528060005260406000206000915054906101000a900473ffffffffffffffffffffffffffffffffffffffff1681565b600360009054906101000a900473ffffffffffffffffffffffffffffffffffffffff1681565b600260009054906101000a900473ffffffffffffffffffffffffffffffffffffffff1681565b60066020528060005260406000206000915054906101000a900473ffffffffffffffffffffffffffffffffffffffff1681565b6001818154811015156103f157fe5b90600052602060002090600602016000915090508060000154908060010154908060020154908060030154908060040154908060050154905086565b6000809054906101000a900473ffffffffffffffffffffffffffffffffffffffff1681565b6005602052806000526040600020600091509050548156fea165627a7a72305820053a4bf21d83585b7244b4aba65d4dacf10d772d52c321f3fffb59b52a6ac8850029",
  "source": "pragma solidity ^0.5.0;\n\ncontract PZEggBase\n{\n    struct Egg {\n        uint        date;\n        uint        price;\n        uint        tokenId;\n        uint        tokenPrice;\n        uint256 matronId;\n        uint256 sireId;\n    }\n\n    address payable public                          addrAdmin;\n\n    Egg[]   public                          eggs;\n\n    address public                          addrChest;\n    address public                          addrHero;\n\n    mapping (uint256 => address) public     eggIndexToOwner;\n    mapping (address => uint256) public     ownershipEggCount;\n    mapping (uint256 => address) public     eggIndexToApproved;\n\n    event Transfer(address from, address to, uint256 eggId);\n    event EggsCreated(uint itmeType, uint quantity);\n\n    /**\n    * Constructor\n    *\n     */\n    constructor() public\n    {\n        addrAdmin = msg.sender;\n    }\n\n    /**\n    * Modifier for Admin Only\n    *\n     */\n    modifier onlyAdmin()\n    {\n        require(msg.sender == addrAdmin);\n        _;\n    }\n\n    /**\n    * Create Egg NFT\n    * @param _eggOwner                      Address of new Egg's Owner\n    * @param _matronId                      Matron ID of new Egg\n    * @param _sireId                        Sire ID of new Egg\n    *\n     */\n    function _createEgg(address _eggOwner, uint date, uint price, uint tokenId, uint tokenPrice, uint256 _matronId, uint256 _sireId) internal\n    {\n        require(_matronId == uint256(uint32(_matronId)));\n        require(_sireId == uint256(uint32(_sireId)));\n\n        Egg memory _egg = Egg(date, price, tokenId, tokenPrice, _matronId, _sireId);\n\n        uint256 newEggId = eggs.push(_egg) - 1;\n        _transfer(address(0), _eggOwner, newEggId);\n    }\n\n    /**\n    * Transfer Egg\n    * @param _from                          Address of transfer\n    * @param _to                            Address of receiver\n    * @param _eggId                         Egg Id to be transferred\n    *\n     */\n    function _transfer(address _from, address _to, uint256 _eggId) internal\n    {\n        ownershipEggCount[_to]++;\n        eggIndexToOwner[_eggId] = _to;\n        if (_from != address(0)) {\n            ownershipEggCount[_from]--;\n            delete eggIndexToApproved[_eggId];\n        }\n        \n        emit Transfer(_from, _to, _eggId);\n    }\n}\n",
  "sourcePath": "/home/ubuntu/dev/Boby/pizzaHero/contracts/PZEggBase.sol",
  "compiler": {
    "name": "solc",
    "version": "0.5.4+commit.d15a3125.mod.Emscripten.clang"
  },
  "schemaVersion": "2.0.1",
  "updatedAt": "2021-03-24T05:12:23.502Z"
}