{
  "contractName": "PZEggBase",
  "abi": [
    {
      "constant": true,
      "inputs": [
        {
          "name": "",
          "type": "uint256"
        }
      ],
      "name": "eggIndexToOwner",
      "outputs": [
        {
          "name": "",
          "type": "address"
        }
      ],
      "payable": false,
      "stateMutability": "view",
      "type": "function"
    },
    {
      "constant": true,
      "inputs": [],
      "name": "addrHero",
      "outputs": [
        {
          "name": "",
          "type": "address"
        }
      ],
      "payable": false,
      "stateMutability": "view",
      "type": "function"
    },
    {
      "constant": true,
      "inputs": [],
      "name": "addrChest",
      "outputs": [
        {
          "name": "",
          "type": "address"
        }
      ],
      "payable": false,
      "stateMutability": "view",
      "type": "function"
    },
    {
      "constant": true,
      "inputs": [
        {
          "name": "",
          "type": "uint256"
        }
      ],
      "name": "eggIndexToApproved",
      "outputs": [
        {
          "name": "",
          "type": "address"
        }
      ],
      "payable": false,
      "stateMutability": "view",
      "type": "function"
    },
    {
      "constant": true,
      "inputs": [
        {
          "name": "",
          "type": "uint256"
        }
      ],
      "name": "eggs",
      "outputs": [
        {
          "name": "date",
          "type": "uint256"
        },
        {
          "name": "price",
          "type": "uint256"
        },
        {
          "name": "tokenId",
          "type": "uint256"
        },
        {
          "name": "tokenPrice",
          "type": "uint256"
        },
        {
          "name": "matronId",
          "type": "uint256"
        },
        {
          "name": "sireId",
          "type": "uint256"
        }
      ],
      "payable": false,
      "stateMutability": "view",
      "type": "function"
    },
    {
      "constant": true,
      "inputs": [],
      "name": "addrAdmin",
      "outputs": [
        {
          "name": "",
          "type": "address"
        }
      ],
      "payable": false,
      "stateMutability": "view",
      "type": "function"
    },
    {
      "constant": true,
      "inputs": [
        {
          "name": "",
          "type": "address"
        }
      ],
      "name": "ownershipEggCount",
      "outputs": [
        {
          "name": "",
          "type": "uint256"
        }
      ],
      "payable": false,
      "stateMutability": "view",
      "type": "function"
    },
    {
      "inputs": [],
      "payable": false,
      "stateMutability": "nonpayable",
      "type": "constructor"
    },
    {
      "anonymous": false,
      "inputs": [
        {
          "indexed": false,
          "name": "from",
          "type": "address"
        },
        {
          "indexed": false,
          "name": "to",
          "type": "address"
        },
        {
          "indexed": false,
          "name": "eggId",
          "type": "uint256"
        }
      ],
      "name": "Transfer",
      "type": "event"
    },
    {
      "anonymous": false,
      "inputs": [
        {
          "indexed": false,
          "name": "itmeType",
          "type": "uint256"
        },
        {
          "indexed": false,
          "name": "quantity",
          "type": "uint256"
        }
      ],
      "name": "EggsCreated",
      "type": "event"
    }
  ],
  "bytecode": "0x608060405234801561001057600080fd5b50d3801561001d57600080fd5b50d2801561002a57600080fd5b50336000806101000a81548173ffffffffffffffffffffffffffffffffffffffff021916908373ffffffffffffffffffffffffffffffffffffffff16021790555061053e8061007a6000396000f300608060405260043610610083576000357c0100000000000000000000000000000000000000000000000000000000900463ffffffff1680631d9279ea146100885780632bc9f2931461010f57806376c0b367146101805780638ef30b81146101f1578063bb654efa14610278578063bfae2f0e146102f6578063d26cadc914610367575b600080fd5b34801561009457600080fd5b50d380156100a157600080fd5b50d280156100ae57600080fd5b506100cd600480360381019080803590602001909291905050506103d8565b604051808273ffffffffffffffffffffffffffffffffffffffff1673ffffffffffffffffffffffffffffffffffffffff16815260200191505060405180910390f35b34801561011b57600080fd5b50d3801561012857600080fd5b50d2801561013557600080fd5b5061013e61040b565b604051808273ffffffffffffffffffffffffffffffffffffffff1673ffffffffffffffffffffffffffffffffffffffff16815260200191505060405180910390f35b34801561018c57600080fd5b50d3801561019957600080fd5b50d280156101a657600080fd5b506101af610431565b604051808273ffffffffffffffffffffffffffffffffffffffff1673ffffffffffffffffffffffffffffffffffffffff16815260200191505060405180910390f35b3480156101fd57600080fd5b50d3801561020a57600080fd5b50d2801561021757600080fd5b5061023660048036038101908080359060200190929190505050610457565b604051808273ffffffffffffffffffffffffffffffffffffffff1673ffffffffffffffffffffffffffffffffffffffff16815260200191505060405180910390f35b34801561028457600080fd5b50d3801561029157600080fd5b50d2801561029e57600080fd5b506102bd6004803603810190808035906020019092919050505061048a565b60405180878152602001868152602001858152602001848152602001838152602001828152602001965050505050505060405180910390f35b34801561030257600080fd5b50d3801561030f57600080fd5b50d2801561031c57600080fd5b506103256104d5565b604051808273ffffffffffffffffffffffffffffffffffffffff1673ffffffffffffffffffffffffffffffffffffffff16815260200191505060405180910390f35b34801561037357600080fd5b50d3801561038057600080fd5b50d2801561038d57600080fd5b506103c2600480360381019080803573ffffffffffffffffffffffffffffffffffffffff1690602001909291905050506104fa565b6040518082815260200191505060405180910390f35b60046020528060005260406000206000915054906101000a900473ffffffffffffffffffffffffffffffffffffffff1681565b600360009054906101000a900473ffffffffffffffffffffffffffffffffffffffff1681565b600260009054906101000a900473ffffffffffffffffffffffffffffffffffffffff1681565b60066020528060005260406000206000915054906101000a900473ffffffffffffffffffffffffffffffffffffffff1681565b60018181548110151561049957fe5b90600052602060002090600602016000915090508060000154908060010154908060020154908060030154908060040154908060050154905086565b6000809054906101000a900473ffffffffffffffffffffffffffffffffffffffff1681565b600560205280600052604060002060009150905054815600a165627a7a723058205b2a419e500ff50d1def22028a5397b14207e07b48c4dae3385bec83c80536620029",
  "source": "pragma solidity ^0.4.25;\n\ncontract PZEggBase\n{\n    struct Egg {\n        uint        date;\n        uint        price;\n        uint        tokenId;\n        uint        tokenPrice;\n        uint256 matronId;\n        uint256 sireId;\n    }\n\n    address public                          addrAdmin;\n\n    Egg[]   public                          eggs;\n\n    address public                          addrChest;\n    address public                          addrHero;\n\n    mapping (uint256 => address) public     eggIndexToOwner;\n    mapping (address => uint256) public     ownershipEggCount;\n    mapping (uint256 => address) public     eggIndexToApproved;\n\n    event Transfer(address from, address to, uint256 eggId);\n    event EggsCreated(uint itmeType, uint quantity);\n\n    /**\n    * Constructor\n    *\n     */\n    constructor() public\n    {\n        addrAdmin = msg.sender;\n    }\n\n    /**\n    * Modifier for Admin Only\n    *\n     */\n    modifier onlyAdmin()\n    {\n        require(msg.sender == addrAdmin);\n        _;\n    }\n\n    /**\n    * Create Egg NFT\n    * @param _eggOwner                      Address of new Egg's Owner\n    * @param _matronId                      Matron ID of new Egg\n    * @param _sireId                        Sire ID of new Egg\n    *\n     */\n    function _createEgg(address _eggOwner, uint date, uint price, uint tokenId, uint tokenPrice, uint256 _matronId, uint256 _sireId) internal\n    {\n        require(_matronId == uint256(uint32(_matronId)));\n        require(_sireId == uint256(uint32(_sireId)));\n\n        Egg memory _egg = Egg(date, price, tokenId, tokenPrice, _matronId, _sireId);\n\n        uint256 newEggId = eggs.push(_egg) - 1;\n        _transfer(0, _eggOwner, newEggId);\n    }\n\n    /**\n    * Transfer Egg\n    * @param _from                          Address of transfer\n    * @param _to                            Address of receiver\n    * @param _eggId                         Egg Id to be transferred\n    *\n     */\n    function _transfer(address _from, address _to, uint256 _eggId) internal\n    {\n        ownershipEggCount[_to]++;\n        eggIndexToOwner[_eggId] = _to;\n        if (_from != address(0)) {\n            ownershipEggCount[_from]--;\n            delete eggIndexToApproved[_eggId];\n        }\n        \n        emit Transfer(_from, _to, _eggId);\n    }\n}\n",
  "sourcePath": "/Volumes/Backup/workspace/Dave(Tron_NFT)/pizzaHero/contracts/PZEggBase.sol",
  "compiler": {
    "name": "solc",
    "version": "0.4.25+commit.69a1e720.Emscripten.clang"
  },
  "schemaVersion": "2.0.1",
  "updatedAt": "2020-01-15T17:21:03.447Z"
}