{
  "contractName": "PZEggCore",
  "abi": [
    {
      "constant": true,
      "inputs": [
        {
          "name": "_interfaceID",
          "type": "bytes4"
        }
      ],
      "name": "supportsInterface",
      "outputs": [
        {
          "name": "",
          "type": "bool"
        }
      ],
      "payable": false,
      "stateMutability": "view",
      "type": "function"
    },
    {
      "constant": true,
      "inputs": [],
      "name": "name",
      "outputs": [
        {
          "name": "",
          "type": "string"
        }
      ],
      "payable": false,
      "stateMutability": "view",
      "type": "function"
    },
    {
      "constant": false,
      "inputs": [
        {
          "name": "_to",
          "type": "address"
        },
        {
          "name": "_eggId",
          "type": "uint256"
        }
      ],
      "name": "approve",
      "outputs": [],
      "payable": false,
      "stateMutability": "nonpayable",
      "type": "function"
    },
    {
      "constant": true,
      "inputs": [],
      "name": "totalSupply",
      "outputs": [
        {
          "name": "",
          "type": "uint256"
        }
      ],
      "payable": false,
      "stateMutability": "view",
      "type": "function"
    },
    {
      "constant": true,
      "inputs": [
        {
          "name": "",
          "type": "uint256"
        }
      ],
      "name": "eggIndexToOwner",
      "outputs": [
        {
          "name": "",
          "type": "address"
        }
      ],
      "payable": false,
      "stateMutability": "view",
      "type": "function"
    },
    {
      "constant": true,
      "inputs": [
        {
          "name": "_eggId",
          "type": "uint256"
        }
      ],
      "name": "getEggAuctionByEggId",
      "outputs": [
        {
          "name": "seller",
          "type": "address"
        },
        {
          "name": "price",
          "type": "uint256"
        },
        {
          "name": "eggId",
          "type": "uint256"
        }
      ],
      "payable": false,
      "stateMutability": "view",
      "type": "function"
    },
    {
      "constant": false,
      "inputs": [
        {
          "name": "_from",
          "type": "address"
        },
        {
          "name": "_to",
          "type": "address"
        },
        {
          "name": "_eggId",
          "type": "uint256"
        }
      ],
      "name": "transferFrom",
      "outputs": [],
      "payable": false,
      "stateMutability": "nonpayable",
      "type": "function"
    },
    {
      "constant": true,
      "inputs": [],
      "name": "addrHero",
      "outputs": [
        {
          "name": "",
          "type": "address"
        }
      ],
      "payable": false,
      "stateMutability": "view",
      "type": "function"
    },
    {
      "constant": true,
      "inputs": [],
      "name": "getEggAuctionCount",
      "outputs": [
        {
          "name": "",
          "type": "uint256"
        }
      ],
      "payable": false,
      "stateMutability": "view",
      "type": "function"
    },
    {
      "constant": true,
      "inputs": [],
      "name": "contractGeneScience",
      "outputs": [
        {
          "name": "",
          "type": "address"
        }
      ],
      "payable": false,
      "stateMutability": "view",
      "type": "function"
    },
    {
      "constant": true,
      "inputs": [],
      "name": "contractHeroCore",
      "outputs": [
        {
          "name": "",
          "type": "address"
        }
      ],
      "payable": false,
      "stateMutability": "view",
      "type": "function"
    },
    {
      "constant": true,
      "inputs": [
        {
          "name": "_eggId",
          "type": "uint256"
        }
      ],
      "name": "ownerOf",
      "outputs": [
        {
          "name": "owner",
          "type": "address"
        }
      ],
      "payable": false,
      "stateMutability": "view",
      "type": "function"
    },
    {
      "constant": false,
      "inputs": [
        {
          "name": "_eggId",
          "type": "uint256"
        }
      ],
      "name": "bidAuction",
      "outputs": [],
      "payable": true,
      "stateMutability": "payable",
      "type": "function"
    },
    {
      "constant": true,
      "inputs": [
        {
          "name": "_owner",
          "type": "address"
        }
      ],
      "name": "balanceOf",
      "outputs": [
        {
          "name": "count",
          "type": "uint256"
        }
      ],
      "payable": false,
      "stateMutability": "view",
      "type": "function"
    },
    {
      "constant": false,
      "inputs": [
        {
          "name": "_price",
          "type": "uint256"
        },
        {
          "name": "_eggId",
          "type": "uint256"
        }
      ],
      "name": "addAuction",
      "outputs": [],
      "payable": false,
      "stateMutability": "nonpayable",
      "type": "function"
    },
    {
      "constant": true,
      "inputs": [],
      "name": "addrChest",
      "outputs": [
        {
          "name": "",
          "type": "address"
        }
      ],
      "payable": false,
      "stateMutability": "view",
      "type": "function"
    },
    {
      "constant": true,
      "inputs": [
        {
          "name": "",
          "type": "uint256"
        }
      ],
      "name": "eggIndexToApproved",
      "outputs": [
        {
          "name": "",
          "type": "address"
        }
      ],
      "payable": false,
      "stateMutability": "view",
      "type": "function"
    },
    {
      "constant": true,
      "inputs": [],
      "name": "symbol",
      "outputs": [
        {
          "name": "",
          "type": "string"
        }
      ],
      "payable": false,
      "stateMutability": "view",
      "type": "function"
    },
    {
      "constant": false,
      "inputs": [
        {
          "name": "_eggId",
          "type": "uint256"
        }
      ],
      "name": "cancelAuction",
      "outputs": [],
      "payable": false,
      "stateMutability": "nonpayable",
      "type": "function"
    },
    {
      "constant": false,
      "inputs": [
        {
          "name": "_to",
          "type": "address"
        },
        {
          "name": "_eggId",
          "type": "uint256"
        }
      ],
      "name": "transfer",
      "outputs": [],
      "payable": false,
      "stateMutability": "nonpayable",
      "type": "function"
    },
    {
      "constant": true,
      "inputs": [
        {
          "name": "",
          "type": "uint256"
        }
      ],
      "name": "eggs",
      "outputs": [
        {
          "name": "date",
          "type": "uint256"
        },
        {
          "name": "price",
          "type": "uint256"
        },
        {
          "name": "tokenId",
          "type": "uint256"
        },
        {
          "name": "tokenPrice",
          "type": "uint256"
        },
        {
          "name": "matronId",
          "type": "uint256"
        },
        {
          "name": "sireId",
          "type": "uint256"
        }
      ],
      "payable": false,
      "stateMutability": "view",
      "type": "function"
    },
    {
      "constant": true,
      "inputs": [],
      "name": "addrAdmin",
      "outputs": [
        {
          "name": "",
          "type": "address"
        }
      ],
      "payable": false,
      "stateMutability": "view",
      "type": "function"
    },
    {
      "constant": true,
      "inputs": [],
      "name": "getEggIdsOnSale",
      "outputs": [
        {
          "name": "",
          "type": "uint256[]"
        }
      ],
      "payable": false,
      "stateMutability": "view",
      "type": "function"
    },
    {
      "constant": true,
      "inputs": [
        {
          "name": "",
          "type": "address"
        }
      ],
      "name": "ownershipEggCount",
      "outputs": [
        {
          "name": "",
          "type": "uint256"
        }
      ],
      "payable": false,
      "stateMutability": "view",
      "type": "function"
    },
    {
      "constant": true,
      "inputs": [
        {
          "name": "_auctionId",
          "type": "uint256"
        }
      ],
      "name": "getEggAuction",
      "outputs": [
        {
          "name": "seller",
          "type": "address"
        },
        {
          "name": "price",
          "type": "uint256"
        },
        {
          "name": "eggId",
          "type": "uint256"
        }
      ],
      "payable": false,
      "stateMutability": "view",
      "type": "function"
    },
    {
      "constant": true,
      "inputs": [
        {
          "name": "",
          "type": "uint256"
        }
      ],
      "name": "eggAuctions",
      "outputs": [
        {
          "name": "seller",
          "type": "address"
        },
        {
          "name": "startingPrice",
          "type": "uint256"
        },
        {
          "name": "eggId",
          "type": "uint256"
        }
      ],
      "payable": false,
      "stateMutability": "view",
      "type": "function"
    },
    {
      "constant": false,
      "inputs": [
        {
          "name": "_contractAddress",
          "type": "address"
        }
      ],
      "name": "setMetadataAddress",
      "outputs": [],
      "payable": false,
      "stateMutability": "nonpayable",
      "type": "function"
    },
    {
      "constant": true,
      "inputs": [],
      "name": "trc721Metadata",
      "outputs": [
        {
          "name": "",
          "type": "address"
        }
      ],
      "payable": false,
      "stateMutability": "view",
      "type": "function"
    },
    {
      "constant": true,
      "inputs": [
        {
          "name": "_owner",
          "type": "address"
        }
      ],
      "name": "eggsOfOwner",
      "outputs": [
        {
          "name": "ownerEggs",
          "type": "uint256[]"
        }
      ],
      "payable": false,
      "stateMutability": "view",
      "type": "function"
    },
    {
      "inputs": [
        {
          "name": "_addrGeneScience",
          "type": "address"
        }
      ],
      "payable": false,
      "stateMutability": "nonpayable",
      "type": "constructor"
    },
    {
      "anonymous": false,
      "inputs": [
        {
          "indexed": false,
          "name": "from",
          "type": "address"
        },
        {
          "indexed": false,
          "name": "to",
          "type": "address"
        },
        {
          "indexed": false,
          "name": "tokenId",
          "type": "uint256"
        }
      ],
      "name": "Transfer",
      "type": "event"
    },
    {
      "anonymous": false,
      "inputs": [
        {
          "indexed": false,
          "name": "owner",
          "type": "address"
        },
        {
          "indexed": false,
          "name": "approved",
          "type": "address"
        },
        {
          "indexed": false,
          "name": "tokenId",
          "type": "uint256"
        }
      ],
      "name": "Approval",
      "type": "event"
    },
    {
      "anonymous": false,
      "inputs": [
        {
          "indexed": false,
          "name": "itmeType",
          "type": "uint256"
        },
        {
          "indexed": false,
          "name": "quantity",
          "type": "uint256"
        }
      ],
      "name": "EggsCreated",
      "type": "event"
    },
    {
      "constant": false,
      "inputs": [
        {
          "name": "_addrChest",
          "type": "address"
        }
      ],
      "name": "setChestAddr",
      "outputs": [],
      "payable": false,
      "stateMutability": "nonpayable",
      "type": "function"
    },
    {
      "constant": false,
      "inputs": [
        {
          "name": "_addrHero",
          "type": "address"
        }
      ],
      "name": "setHeroAddr",
      "outputs": [],
      "payable": false,
      "stateMutability": "nonpayable",
      "type": "function"
    },
    {
      "constant": true,
      "inputs": [],
      "name": "eggTest",
      "outputs": [
        {
          "name": "",
          "type": "address"
        }
      ],
      "payable": false,
      "stateMutability": "view",
      "type": "function"
    },
    {
      "constant": true,
      "inputs": [],
      "name": "isEggContract",
      "outputs": [
        {
          "name": "",
          "type": "bool"
        }
      ],
      "payable": false,
      "stateMutability": "pure",
      "type": "function"
    },
    {
      "constant": false,
      "inputs": [
        {
          "name": "_eggOwner",
          "type": "address"
        },
        {
          "name": "_date",
          "type": "uint256"
        },
        {
          "name": "_price",
          "type": "uint256"
        },
        {
          "name": "_tokenId",
          "type": "uint256"
        },
        {
          "name": "_tokenPrice",
          "type": "uint256"
        },
        {
          "name": "_matronId",
          "type": "uint256"
        },
        {
          "name": "_sireId",
          "type": "uint256"
        }
      ],
      "name": "createEggToOwner",
      "outputs": [],
      "payable": false,
      "stateMutability": "nonpayable",
      "type": "function"
    },
    {
      "constant": true,
      "inputs": [
        {
          "name": "_eggId",
          "type": "uint256"
        }
      ],
      "name": "getEgg",
      "outputs": [
        {
          "name": "date",
          "type": "uint256"
        },
        {
          "name": "price",
          "type": "uint256"
        },
        {
          "name": "tokenId",
          "type": "uint256"
        },
        {
          "name": "tokenPrice",
          "type": "uint256"
        },
        {
          "name": "matronId",
          "type": "uint256"
        },
        {
          "name": "sireId",
          "type": "uint256"
        }
      ],
      "payable": false,
      "stateMutability": "view",
      "type": "function"
    },
    {
      "constant": false,
      "inputs": [
        {
          "name": "_to",
          "type": "address"
        },
        {
          "name": "_eggId",
          "type": "uint256"
        }
      ],
      "name": "giftEgg",
      "outputs": [],
      "payable": false,
      "stateMutability": "nonpayable",
      "type": "function"
    },
    {
      "constant": false,
      "inputs": [
        {
          "name": "_eggId",
          "type": "uint256"
        }
      ],
      "name": "giveBirth",
      "outputs": [],
      "payable": false,
      "stateMutability": "nonpayable",
      "type": "function"
    }
  ],
  "bytecode": "0x60806040523480156200001157600080fd5b50d380156200001f57600080fd5b50d280156200002d57600080fd5b5060405160208062003587833981018060405260208110156200004f57600080fd5b8101908080519060200190929190505050336000806101000a81548173ffffffffffffffffffffffffffffffffffffffff021916908373ffffffffffffffffffffffffffffffffffffffff16021790555060008190508073ffffffffffffffffffffffffffffffffffffffff166354c15b826040518163ffffffff167c010000000000000000000000000000000000000000000000000000000002815260040160206040518083038186803b1580156200010857600080fd5b505afa1580156200011d573d6000803e3d6000fd5b505050506040513d60208110156200013457600080fd5b810190808051906020019092919050505015156200015157600080fd5b80600a60006101000a81548173ffffffffffffffffffffffffffffffffffffffff021916908373ffffffffffffffffffffffffffffffffffffffff16021790555050506133e380620001a46000396000f3fe608060405260043610610237576000357c01000000000000000000000000000000000000000000000000000000009004806376c0b36711610140578063bb654efa116100c8578063d94569b31161008c578063d94569b314611152578063e17b25af146111f5578063f15f938814611260578063fce25354146112d1578063feb40f7e1461139157610237565b8063bb654efa14610ead578063bfae2f0e14610f39578063d0fbb24114610faa578063d26cadc914611030578063d5350ca3146110af57610237565b806395d89b411161010f57806395d89b4114610c4957806396b5a75514610cf357806399b2af4714610d485780639f5010e014610d91578063a9059cbb14610e3857610237565b806376c0b36714610a7957806383fc8c5b14610aea57806388c2a0bf14610b5f5780638ef30b8114610bb457610237565b80633768c994116101c35780636173a5d4116101925780636173a5d41461086d5780636352211e146108d857806364a7d7c71461096d57806370a082311461099b57806373187d2714610a1a57610237565b80633768c994146106db5780633ba864fe1461072057806352270c471461079157806353b4e8fa146107fc57610237565b80631d9279ea1161020a5780631d9279ea1461042c57806321a4531a146104c157806323b872dd1461056457806324c89b33146105f95780632bc9f2931461066a57610237565b806301ffc9a71461023c57806306fdde03146102c8578063095ea7b31461037257806318160ddd146103e7575b600080fd5b34801561024857600080fd5b50d3801561025557600080fd5b50d2801561026257600080fd5b506102ae6004803603602081101561027957600080fd5b8101908080357bffffffffffffffffffffffffffffffffffffffffffffffffffffffff1916906020019092919050505061141d565b604051808215151515815260200191505060405180910390f35b3480156102d457600080fd5b50d380156102e157600080fd5b50d280156102ee57600080fd5b506102f76116eb565b6040518080602001828103825283818151815260200191508051906020019080838360005b8381101561033757808201518184015260208101905061031c565b50505050905090810190601f1680156103645780820380516001836020036101000a031916815260200191505b509250505060405180910390f35b34801561037e57600080fd5b50d3801561038b57600080fd5b50d2801561039857600080fd5b506103e5600480360360408110156103af57600080fd5b81019080803573ffffffffffffffffffffffffffffffffffffffff16906020019092919080359060200190929190505050611724565b005b3480156103f357600080fd5b50d3801561040057600080fd5b50d2801561040d57600080fd5b506104166117e6565b6040518082815260200191505060405180910390f35b34801561043857600080fd5b50d3801561044557600080fd5b50d2801561045257600080fd5b5061047f6004803603602081101561046957600080fd5b81019080803590602001909291905050506117f5565b604051808273ffffffffffffffffffffffffffffffffffffffff1673ffffffffffffffffffffffffffffffffffffffff16815260200191505060405180910390f35b3480156104cd57600080fd5b50d380156104da57600080fd5b50d280156104e757600080fd5b50610514600480360360208110156104fe57600080fd5b8101908080359060200190929190505050611828565b604051808473ffffffffffffffffffffffffffffffffffffffff1673ffffffffffffffffffffffffffffffffffffffff168152602001838152602001828152602001935050505060405180910390f35b34801561057057600080fd5b50d3801561057d57600080fd5b50d2801561058a57600080fd5b506105f7600480360360608110156105a157600080fd5b81019080803573ffffffffffffffffffffffffffffffffffffffff169060200190929190803573ffffffffffffffffffffffffffffffffffffffff169060200190929190803590602001909291905050506118e0565b005b34801561060557600080fd5b50d3801561061257600080fd5b50d2801561061f57600080fd5b50610628611991565b604051808273ffffffffffffffffffffffffffffffffffffffff1673ffffffffffffffffffffffffffffffffffffffff16815260200191505060405180910390f35b34801561067657600080fd5b50d3801561068357600080fd5b50d2801561069057600080fd5b506106996119bb565b604051808273ffffffffffffffffffffffffffffffffffffffff1673ffffffffffffffffffffffffffffffffffffffff16815260200191505060405180910390f35b3480156106e757600080fd5b50d380156106f457600080fd5b50d2801561070157600080fd5b5061070a6119e1565b6040518082815260200191505060405180910390f35b34801561072c57600080fd5b50d3801561073957600080fd5b50d2801561074657600080fd5b5061074f6119ee565b604051808273ffffffffffffffffffffffffffffffffffffffff1673ffffffffffffffffffffffffffffffffffffffff16815260200191505060405180910390f35b34801561079d57600080fd5b50d380156107aa57600080fd5b50d280156107b757600080fd5b506107fa600480360360208110156107ce57600080fd5b81019080803573ffffffffffffffffffffffffffffffffffffffff169060200190929190505050611a14565b005b34801561080857600080fd5b50d3801561081557600080fd5b50d2801561082257600080fd5b5061082b611b52565b604051808273ffffffffffffffffffffffffffffffffffffffff1673ffffffffffffffffffffffffffffffffffffffff16815260200191505060405180910390f35b34801561087957600080fd5b50d3801561088657600080fd5b50d2801561089357600080fd5b506108d6600480360360208110156108aa57600080fd5b81019080803573ffffffffffffffffffffffffffffffffffffffff169060200190929190505050611b78565b005b3480156108e457600080fd5b50d380156108f157600080fd5b50d280156108fe57600080fd5b5061092b6004803603602081101561091557600080fd5b8101908080359060200190929190505050611c53565b604051808273ffffffffffffffffffffffffffffffffffffffff1673ffffffffffffffffffffffffffffffffffffffff16815260200191505060405180910390f35b6109996004803603602081101561098357600080fd5b8101908080359060200190929190505050611ccc565b005b3480156109a757600080fd5b50d380156109b457600080fd5b50d280156109c157600080fd5b50610a04600480360360208110156109d857600080fd5b81019080803573ffffffffffffffffffffffffffffffffffffffff169060200190929190505050611dff565b6040518082815260200191505060405180910390f35b348015610a2657600080fd5b50d38015610a3357600080fd5b50d28015610a4057600080fd5b50610a7760048036036040811015610a5757600080fd5b810190808035906020019092919080359060200190929190505050611e48565b005b348015610a8557600080fd5b50d38015610a9257600080fd5b50d28015610a9f57600080fd5b50610aa8611f2a565b604051808273ffffffffffffffffffffffffffffffffffffffff1673ffffffffffffffffffffffffffffffffffffffff16815260200191505060405180910390f35b348015610af657600080fd5b50d38015610b0357600080fd5b50d28015610b1057600080fd5b50610b5d60048036036040811015610b2757600080fd5b81019080803573ffffffffffffffffffffffffffffffffffffffff16906020019092919080359060200190929190505050611f50565b005b348015610b6b57600080fd5b50d38015610b7857600080fd5b50d28015610b8557600080fd5b50610bb260048036036020811015610b9c57600080fd5b8101908080359060200190929190505050611fb0565b005b348015610bc057600080fd5b50d38015610bcd57600080fd5b50d28015610bda57600080fd5b50610c0760048036036020811015610bf157600080fd5b8101908080359060200190929190505050612746565b604051808273ffffffffffffffffffffffffffffffffffffffff1673ffffffffffffffffffffffffffffffffffffffff16815260200191505060405180910390f35b348015610c5557600080fd5b50d38015610c6257600080fd5b50d28015610c6f57600080fd5b50610c78612779565b6040518080602001828103825283818151815260200191508051906020019080838360005b83811015610cb8578082015181840152602081019050610c9d565b50505050905090810190601f168015610ce55780820380516001836020036101000a031916815260200191505b509250505060405180910390f35b348015610cff57600080fd5b50d38015610d0c57600080fd5b50d28015610d1957600080fd5b50610d4660048036036020811015610d3057600080fd5b81019080803590602001909291905050506127b2565b005b348015610d5457600080fd5b50d38015610d6157600080fd5b50d28015610d6e57600080fd5b50610d776128b0565b604051808215151515815260200191505060405180910390f35b348015610d9d57600080fd5b50d38015610daa57600080fd5b50d28015610db757600080fd5b50610e36600480360360e0811015610dce57600080fd5b81019080803573ffffffffffffffffffffffffffffffffffffffff1690602001909291908035906020019092919080359060200190929190803590602001909291908035906020019092919080359060200190929190803590602001909291905050506128b9565b005b348015610e4457600080fd5b50d38015610e5157600080fd5b50d28015610e5e57600080fd5b50610eab60048036036040811015610e7557600080fd5b81019080803573ffffffffffffffffffffffffffffffffffffffff169060200190929190803590602001909291905050506129ad565b005b348015610eb957600080fd5b50d38015610ec657600080fd5b50d28015610ed357600080fd5b50610f0060048036036020811015610eea57600080fd5b8101908080359060200190929190505050612a48565b60405180878152602001868152602001858152602001848152602001838152602001828152602001965050505050505060405180910390f35b348015610f4557600080fd5b50d38015610f5257600080fd5b50d28015610f5f57600080fd5b50610f68612a93565b604051808273ffffffffffffffffffffffffffffffffffffffff1673ffffffffffffffffffffffffffffffffffffffff16815260200191505060405180910390f35b348015610fb657600080fd5b50d38015610fc357600080fd5b50d28015610fd057600080fd5b50610fd9612ab8565b6040518080602001828103825283818151815260200191508051906020019060200280838360005b8381101561101c578082015181840152602081019050611001565b505050509050019250505060405180910390f35b34801561103c57600080fd5b50d3801561104957600080fd5b50d2801561105657600080fd5b506110996004803603602081101561106d57600080fd5b81019080803573ffffffffffffffffffffffffffffffffffffffff169060200190929190505050612ac8565b6040518082815260200191505060405180910390f35b3480156110bb57600080fd5b50d380156110c857600080fd5b50d280156110d557600080fd5b50611102600480360360208110156110ec57600080fd5b8101908080359060200190929190505050612ae0565b604051808473ffffffffffffffffffffffffffffffffffffffff1673ffffffffffffffffffffffffffffffffffffffff168152602001838152602001828152602001935050505060405180910390f35b34801561115e57600080fd5b50d3801561116b57600080fd5b50d2801561117857600080fd5b506111a56004803603602081101561118f57600080fd5b8101908080359060200190929190505050612ba2565b604051808473ffffffffffffffffffffffffffffffffffffffff1673ffffffffffffffffffffffffffffffffffffffff168152602001838152602001828152602001935050505060405180910390f35b34801561120157600080fd5b50d3801561120e57600080fd5b50d2801561121b57600080fd5b5061125e6004803603602081101561123257600080fd5b81019080803573ffffffffffffffffffffffffffffffffffffffff169060200190929190505050612bfb565b005b34801561126c57600080fd5b50d3801561127957600080fd5b50d2801561128657600080fd5b5061128f612c9a565b604051808273ffffffffffffffffffffffffffffffffffffffff1673ffffffffffffffffffffffffffffffffffffffff16815260200191505060405180910390f35b3480156112dd57600080fd5b50d380156112ea57600080fd5b50d280156112f757600080fd5b5061133a6004803603602081101561130e57600080fd5b81019080803573ffffffffffffffffffffffffffffffffffffffff169060200190929190505050612cc0565b6040518080602001828103825283818151815260200191508051906020019060200280838360005b8381101561137d578082015181840152602081019050611362565b505050509050019250505060405180910390f35b34801561139d57600080fd5b50d380156113aa57600080fd5b50d280156113b757600080fd5b506113e4600480360360208110156113ce57600080fd5b8101908080359060200190929190505050612e0e565b60405180878152602001868152602001858152602001848152602001838152602001828152602001965050505050505060405180910390f35b600060405180807f737570706f727473496e74657266616365286279746573342900000000000000815250601901905060405180910390207bffffffffffffffffffffffffffffffffffffffffffffffffffffffff1916827bffffffffffffffffffffffffffffffffffffffffffffffffffffffff191614806116e4575060405180807f746f6b656e4d657461646174612875696e743235362c737472696e6729000000815250601d019050604051809103902060405180807f656767734f664f776e6572286164647265737329000000000000000000000000815250601401905060405180910390206040518080613393602591396025019050604051809103902060405180807f7472616e7366657228616464726573732c75696e7432353629000000000000008152506019019050604051809103902060405180807f617070726f766528616464726573732c75696e743235362900000000000000008152506018019050604051809103902060405180807f6f776e65724f662875696e7432353629000000000000000000000000000000008152506010019050604051809103902060405180807f62616c616e63654f6628616464726573732900000000000000000000000000008152506012019050604051809103902060405180807f746f74616c537570706c79282900000000000000000000000000000000000000815250600d019050604051809103902060405180807f73796d626f6c28290000000000000000000000000000000000000000000000008152506008019050604051809103902060405180807f6e616d6528290000000000000000000000000000000000000000000000000000815250600601905060405180910390201818181818181818187bffffffffffffffffffffffffffffffffffffffffffffffffffffffff1916827bffffffffffffffffffffffffffffffffffffffffffffffffffffffff1916145b9050919050565b6040805190810160405280600681526020017f505a65676773000000000000000000000000000000000000000000000000000081525081565b61172e3382612eba565b151561173957600080fd5b6117438183612f26565b7f8c5be1e5ebec7d5bd14f71427d1e84f3dd0314c0f7b2291e5b200ac8c7c3b925338383604051808473ffffffffffffffffffffffffffffffffffffffff1673ffffffffffffffffffffffffffffffffffffffff1681526020018373ffffffffffffffffffffffffffffffffffffffff1673ffffffffffffffffffffffffffffffffffffffff168152602001828152602001935050505060405180910390a15050565b60006001808054905003905090565b60046020528060005260406000206000915054906101000a900473ffffffffffffffffffffffffffffffffffffffff1681565b6000806000611835613323565b60086000868152602001908152602001600020606060405190810160405290816000820160009054906101000a900473ffffffffffffffffffffffffffffffffffffffff1673ffffffffffffffffffffffffffffffffffffffff1673ffffffffffffffffffffffffffffffffffffffff168152602001600182015481526020016002820154815250509050806000015181602001518260400151829250935093509350509193909250565b600073ffffffffffffffffffffffffffffffffffffffff168273ffffffffffffffffffffffffffffffffffffffff161415151561191c57600080fd5b3073ffffffffffffffffffffffffffffffffffffffff168273ffffffffffffffffffffffffffffffffffffffff161415151561195757600080fd5b6119613382612f7c565b151561196c57600080fd5b6119768382612eba565b151561198157600080fd5b61198c838383612fe8565b505050565b6000600260009054906101000a900473ffffffffffffffffffffffffffffffffffffffff16905090565b600360009054906101000a900473ffffffffffffffffffffffffffffffffffffffff1681565b6000600980549050905090565b600a60009054906101000a900473ffffffffffffffffffffffffffffffffffffffff1681565b6000809054906101000a900473ffffffffffffffffffffffffffffffffffffffff1673ffffffffffffffffffffffffffffffffffffffff163373ffffffffffffffffffffffffffffffffffffffff16141515611a6f57600080fd5b600073ffffffffffffffffffffffffffffffffffffffff168173ffffffffffffffffffffffffffffffffffffffff1614151515611aab57600080fd5b80600360006101000a81548173ffffffffffffffffffffffffffffffffffffffff021916908373ffffffffffffffffffffffffffffffffffffffff160217905550600360009054906101000a900473ffffffffffffffffffffffffffffffffffffffff16600b60006101000a81548173ffffffffffffffffffffffffffffffffffffffff021916908373ffffffffffffffffffffffffffffffffffffffff16021790555050565b600b60009054906101000a900473ffffffffffffffffffffffffffffffffffffffff1681565b6000809054906101000a900473ffffffffffffffffffffffffffffffffffffffff1673ffffffffffffffffffffffffffffffffffffffff163373ffffffffffffffffffffffffffffffffffffffff16141515611bd357600080fd5b600073ffffffffffffffffffffffffffffffffffffffff168173ffffffffffffffffffffffffffffffffffffffff1614151515611c0f57600080fd5b80600260006101000a81548173ffffffffffffffffffffffffffffffffffffffff021916908373ffffffffffffffffffffffffffffffffffffffff16021790555050565b60006004600083815260200190815260200160002060009054906101000a900473ffffffffffffffffffffffffffffffffffffffff169050600073ffffffffffffffffffffffffffffffffffffffff168173ffffffffffffffffffffffffffffffffffffffff1614151515611cc757600080fd5b919050565b611cd63082612eba565b1515611ce157600080fd5b611ce9613323565b60086000838152602001908152602001600020606060405190810160405290816000820160009054906101000a900473ffffffffffffffffffffffffffffffffffffffff1673ffffffffffffffffffffffffffffffffffffffff1673ffffffffffffffffffffffffffffffffffffffff168152602001600182015481526020016002820154815250509050611d7e3383612eba565b151515611d8a57600080fd5b348160200151141515611d9c57600080fd5b611da5826131ea565b611db0303384612fe8565b806000015173ffffffffffffffffffffffffffffffffffffffff166108fc349081150290604051600060405180830381858888f19350505050158015611dfa573d6000803e3d6000fd5b505050565b6000600560008373ffffffffffffffffffffffffffffffffffffffff1673ffffffffffffffffffffffffffffffffffffffff168152602001908152602001600020549050919050565b600082111515611e5757600080fd5b611e613382612eba565b1515611e6c57600080fd5b611e74613323565b6060604051908101604052803373ffffffffffffffffffffffffffffffffffffffff168152602001848152602001838152509050611eb3333084612fe8565b806008600084815260200190815260200160002060008201518160000160006101000a81548173ffffffffffffffffffffffffffffffffffffffff021916908373ffffffffffffffffffffffffffffffffffffffff1602179055506020820151816001015560408201518160020155905050505050565b600260009054906101000a900473ffffffffffffffffffffffffffffffffffffffff1681565b611f5a3382612eba565b1515611f6557600080fd5b600073ffffffffffffffffffffffffffffffffffffffff168273ffffffffffffffffffffffffffffffffffffffff1614151515611fa157600080fd5b611fac338383612fe8565b5050565b611fba3382612eba565b1515611fc557600080fd5b611fcd61335b565b600182815481101515611fdc57fe5b906000526020600020906006020160c060405190810160405290816000820154815260200160018201548152602001600282015481526020016003820154815260200160048201548152602001600582015481525050905060008090506000809050600080905060008090506000809050600080905060008090506000886080015114801561206f575060008860a00151145b156121405760009150600a60009054906101000a900473ffffffffffffffffffffffffffffffffffffffff1673ffffffffffffffffffffffffffffffffffffffff16635ddef9dd6040518163ffffffff167c0100000000000000000000000000000000000000000000000000000000028152600401602060405180830381600087803b1580156120fe57600080fd5b505af1158015612112573d6000803e3d6000fd5b505050506040513d602081101561212857600080fd5b81019080805190602001909291905050509050612581565b600b60009054906101000a900473ffffffffffffffffffffffffffffffffffffffff1673ffffffffffffffffffffffffffffffffffffffff166321d8011189608001516040518263ffffffff167c0100000000000000000000000000000000000000000000000000000000028152600401808281526020019150506101a06040518083038186803b1580156121d457600080fd5b505afa1580156121e8573d6000803e3d6000fd5b505050506040513d6101a08110156121ff57600080fd5b8101908080519060200190929190805190602001909291908051906020019092919080519060200190929190805190602001909291908051906020019092919080519060200190929190805190602001909291908051906020019092919080519060200190929190805190602001909291908051906020019092919080519060200190929190505050909192939495969798999a9b50909192939495969798999a509091929394959697989950909192939495969798509091929394959650909192939450909192935090919250905050809850819750829950505050600b60009054906101000a900473ffffffffffffffffffffffffffffffffffffffff1673ffffffffffffffffffffffffffffffffffffffff166321d801118960a001516040518263ffffffff167c0100000000000000000000000000000000000000000000000000000000028152600401808281526020019150506101a06040518083038186803b15801561237057600080fd5b505afa158015612384573d6000803e3d6000fd5b505050506040513d6101a081101561239b57600080fd5b8101908080519060200190929190805190602001909291908051906020019092919080519060200190929190805190602001909291908051906020019092919080519060200190929190805190602001909291908051906020019092919080519060200190929190805190602001909291908051906020019092919080519060200190929190505050909192939495969798999a9b50909192939495969798999a5090919293949596979899509091929394959697985090919293949596509091929394955090919293945090919293509091925090505080945081955050508591508561ffff168361ffff161115612492578291505b600182019150600a60009054906101000a900473ffffffffffffffffffffffffffffffffffffffff1673ffffffffffffffffffffffffffffffffffffffff16630d9f5aed8886886040518463ffffffff167c0100000000000000000000000000000000000000000000000000000000028152600401808481526020018381526020018267ffffffffffffffff1681526020019350505050602060405180830381600087803b15801561254357600080fd5b505af1158015612557573d6000803e3d6000fd5b505050506040513d602081101561256d57600080fd5b810190808051906020019092919050505090505b61258d3360008b612fe8565b60018981548110151561259c57fe5b9060005260206000209060060201600080820160009055600182016000905560028201600090556003820160009055600482016000905560058201600090555050600b60009054906101000a900473ffffffffffffffffffffffffffffffffffffffff1673ffffffffffffffffffffffffffffffffffffffff1663e32170ae428a602001518b604001518c606001518d608001518e60a0015189896000336040518b63ffffffff167c0100000000000000000000000000000000000000000000000000000000028152600401808b81526020018a81526020018981526020018881526020018781526020018681526020018561ffff1681526020018481526020018361ffff1681526020018273ffffffffffffffffffffffffffffffffffffffff1673ffffffffffffffffffffffffffffffffffffffff1681526020019a5050505050505050505050602060405180830381600087803b1580156126ff57600080fd5b505af1158015612713573d6000803e3d6000fd5b505050506040513d602081101561272957600080fd5b810190808051906020019092919050505050505050505050505050565b60066020528060005260406000206000915054906101000a900473ffffffffffffffffffffffffffffffffffffffff1681565b6040805190810160405280600281526020017f504500000000000000000000000000000000000000000000000000000000000081525081565b6127bc3082612eba565b15156127c757600080fd5b6127cf613323565b60086000838152602001908152602001600020606060405190810160405290816000820160009054906101000a900473ffffffffffffffffffffffffffffffffffffffff1673ffffffffffffffffffffffffffffffffffffffff1673ffffffffffffffffffffffffffffffffffffffff168152602001600182015481526020016002820154815250509050806000015173ffffffffffffffffffffffffffffffffffffffff163373ffffffffffffffffffffffffffffffffffffffff1614151561289857600080fd5b6128a1826131ea565b6128ac303384612fe8565b5050565b60006001905090565b600260009054906101000a900473ffffffffffffffffffffffffffffffffffffffff1673ffffffffffffffffffffffffffffffffffffffff163373ffffffffffffffffffffffffffffffffffffffff1614806129625750600360009054906101000a900473ffffffffffffffffffffffffffffffffffffffff1673ffffffffffffffffffffffffffffffffffffffff163373ffffffffffffffffffffffffffffffffffffffff16145b151561296d57600080fd5b8163ffffffff168214151561298157600080fd5b8063ffffffff168114151561299557600080fd5b6129a48787878787878761323a565b50505050505050565b600073ffffffffffffffffffffffffffffffffffffffff168273ffffffffffffffffffffffffffffffffffffffff16141515156129e957600080fd5b3073ffffffffffffffffffffffffffffffffffffffff168273ffffffffffffffffffffffffffffffffffffffff1614151515612a2457600080fd5b612a2e3382612eba565b1515612a3957600080fd5b612a44338383612fe8565b5050565b600181815481101515612a5757fe5b90600052602060002090600602016000915090508060000154908060010154908060020154908060030154908060040154908060050154905086565b6000809054906101000a900473ffffffffffffffffffffffffffffffffffffffff1681565b6060612ac330612cc0565b905090565b60056020528060005260406000206000915090505481565b6000806000612aed613323565b600985815481101515612afc57fe5b9060005260206000209060030201606060405190810160405290816000820160009054906101000a900473ffffffffffffffffffffffffffffffffffffffff1673ffffffffffffffffffffffffffffffffffffffff1673ffffffffffffffffffffffffffffffffffffffff168152602001600182015481526020016002820154815250509050806000015181602001518260400151829250935093509350509193909250565b600981815481101515612bb157fe5b90600052602060002090600302016000915090508060000160009054906101000a900473ffffffffffffffffffffffffffffffffffffffff16908060010154908060020154905083565b6000809054906101000a900473ffffffffffffffffffffffffffffffffffffffff1673ffffffffffffffffffffffffffffffffffffffff163373ffffffffffffffffffffffffffffffffffffffff16141515612c5657600080fd5b80600760006101000a81548173ffffffffffffffffffffffffffffffffffffffff021916908373ffffffffffffffffffffffffffffffffffffffff16021790555050565b600760009054906101000a900473ffffffffffffffffffffffffffffffffffffffff1681565b60606000612ccd83611dff565b90506000811415612d11576000604051908082528060200260200182016040528015612d085781602001602082028038833980820191505090505b50915050612e09565b606081604051908082528060200260200182016040528015612d425781602001602082028038833980820191505090505b5090506000612d4f6117e6565b905060008090506000600190505b8281111515612e00578673ffffffffffffffffffffffffffffffffffffffff166004600083815260200190815260200160002060009054906101000a900473ffffffffffffffffffffffffffffffffffffffff1673ffffffffffffffffffffffffffffffffffffffff161415612df357808483815181101515612ddc57fe5b906020019060200201818152505081806001019250505b8080600101915050612d5d565b83955050505050505b919050565b600080600080600080612e1f61335b565b600188815481101515612e2e57fe5b906000526020600020906006020160c0604051908101604052908160008201548152602001600182015481526020016002820154815260200160038201548152602001600482015481526020016005820154815250509050806000015181602001518260400151836060015184608001518560a001519650965096509650965096505091939550919395565b60008273ffffffffffffffffffffffffffffffffffffffff166004600084815260200190815260200160002060009054906101000a900473ffffffffffffffffffffffffffffffffffffffff1673ffffffffffffffffffffffffffffffffffffffff1614905092915050565b806006600084815260200190815260200160002060006101000a81548173ffffffffffffffffffffffffffffffffffffffff021916908373ffffffffffffffffffffffffffffffffffffffff1602179055505050565b60008273ffffffffffffffffffffffffffffffffffffffff166006600084815260200190815260200160002060009054906101000a900473ffffffffffffffffffffffffffffffffffffffff1673ffffffffffffffffffffffffffffffffffffffff1614905092915050565b600560008373ffffffffffffffffffffffffffffffffffffffff1673ffffffffffffffffffffffffffffffffffffffff16815260200190815260200160002060008154809291906001019190505550816004600083815260200190815260200160002060006101000a81548173ffffffffffffffffffffffffffffffffffffffff021916908373ffffffffffffffffffffffffffffffffffffffff160217905550600073ffffffffffffffffffffffffffffffffffffffff168373ffffffffffffffffffffffffffffffffffffffff1614151561314657600560008473ffffffffffffffffffffffffffffffffffffffff1673ffffffffffffffffffffffffffffffffffffffff16815260200190815260200160002060008154809291906001900391905055506006600082815260200190815260200160002060006101000a81549073ffffffffffffffffffffffffffffffffffffffff02191690555b7fddf252ad1be2c89b69c2b068fc378daa952ba7f163c4a11628f55a4df523b3ef838383604051808473ffffffffffffffffffffffffffffffffffffffff1673ffffffffffffffffffffffffffffffffffffffff1681526020018373ffffffffffffffffffffffffffffffffffffffff1673ffffffffffffffffffffffffffffffffffffffff168152602001828152602001935050505060405180910390a1505050565b60086000828152602001908152602001600020600080820160006101000a81549073ffffffffffffffffffffffffffffffffffffffff021916905560018201600090556002820160009055505050565b8163ffffffff168214151561324e57600080fd5b8063ffffffff168114151561326257600080fd5b61326a61335b565b60c06040519081016040528088815260200187815260200186815260200185815260200184815260200183815250905060006001808390806001815401808255809150509060018203906000526020600020906006020160009091929091909150600082015181600001556020820151816001015560408201518160020155606082015181600301556080820151816004015560a08201518160050155505003905061331860008a83612fe8565b505050505050505050565b606060405190810160405280600073ffffffffffffffffffffffffffffffffffffffff16815260200160008152602001600081525090565b60c060405190810160405280600081526020016000815260200160008152602001600081526020016000815260200160008152509056fe7472616e7366657246726f6d28616464726573732c616464726573732c75696e7432353629a165627a7a723058207d84b317a4cff80c0e9f966bd1fce1a013b0c3c78d3c1b38e4d135ae9f7ba52c0029",
  "source": "pragma solidity ^0.5.0;\n\nimport \"./PZEggMarketplace.sol\";\nimport \"./PZHeroCore.sol\";\nimport \"./PZGeneScienceInterface.sol\";\n\ncontract PZEggCore is PZEggMarketplace\n{\n\n    PZGeneScienceInterface public           contractGeneScience;\n    PZHeroCore public                       contractHeroCore;\n\n    /**\n    * Constructor\n    * @param _addrGeneScience               Address of GeneScience contract\n    *\n     */\n    constructor(address _addrGeneScience) public\n    {\n        // require(_addrItemCore != address(0x0));\n        // addrItemCore = _addrItemCore;\n\n        // addrGeneScience = _addrGeneScience;\n        PZGeneScienceInterface candidateContract = PZGeneScienceInterface(_addrGeneScience);\n\n        require(candidateContract.isGeneScience());\n\n        // Set the new contract address\n        contractGeneScience = candidateContract;\n    }\n\n    /**\n    * Set Chest Address\n    * @param _addrChest                      Address of Chest contract\n    *\n     */\n    function setChestAddr(address _addrChest) public onlyAdmin\n    {\n        require(_addrChest != address(0x0));\n        addrChest = _addrChest; \n\n    }\n\n    /**\n    * Set Hero Address\n    * @param _addrHero                      Address of Hero contract\n    *\n     */\n    function setHeroAddr(address _addrHero) public onlyAdmin\n    {\n        require(_addrHero != address(0x0));\n        addrHero = _addrHero;\n        contractHeroCore = PZHeroCore(addrHero);\n    }\n\n    /**\n    * Test function\n    *\n     */\n    function eggTest() external view returns (address){\n        return addrChest;\n    }\n\n    /**\n    * Check function as if this is the Egg contract\n    *\n     */\n    function isEggContract() public pure returns (bool) {\n        return true;\n    }\n\n    /**\n    * Create Egg and transfer to Owner\n    * @param _eggOwner                      Address of Egg Owner\n    * @param _matronId                      Matron ID of new Egg\n    * @param _sireId                        Sire ID of new Egg\n    *\n     */\n    function createEggToOwner(address _eggOwner, uint _date, uint _price, uint _tokenId, uint _tokenPrice, uint256 _matronId, uint256 _sireId) public {\n        require((msg.sender == addrChest) || (msg.sender == addrHero));\n\n        require(_matronId == uint256(uint32(_matronId)));\n        require(_sireId == uint256(uint32(_sireId)));\n\n        _createEgg(_eggOwner, _date, _price, _tokenId, _tokenPrice, _matronId, _sireId);\n    }\n\n    /**\n    * Get Information of an Egg\n    * @param _eggId                      Egg Id\n    *\n    * @return matronId                   Matron ID\n    * @return sireId                     Sire ID\n    *\n     */\n    function getEgg(uint _eggId) public view returns(uint date, uint price, uint tokenId, uint tokenPrice, uint256 matronId, uint256 sireId)\n    {\n        Egg memory _egg = eggs[_eggId];\n        return(_egg.date, _egg.price, _egg.tokenId, _egg.tokenPrice, _egg.matronId, _egg.sireId);\n    }\n\n    /**\n    * Gift Egg to other users\n    *\n    * @param _to                            address of receiver\n    * @param _eggId                         Egg Id to gift\n    *\n    */\n    function giftEgg(address _to, uint256 _eggId) public\n    {\n        require(_owns(msg.sender, _eggId));\n        require(_to != address(0x0));\n        _transfer(msg.sender, _to, _eggId);\n    }\n\n    /**\n    * Birth the Egg to create new Hero\n    *\n    * @param _eggId                         Egg Id to gift\n    *\n    */\n    function giveBirth(uint256 _eggId) public\n    {\n        require(_owns(msg.sender, _eggId));\n        Egg memory _egg = eggs[_eggId];\n\n        uint256 matronGene = 0;\n        uint16  matronGeneration = 0;\n        uint64 cooldownEndBlock = 0;\n\n        uint256 sireGene = 0;\n        uint16  sireGeneration = 0;\n\n        uint16 childGeneration = 0;\n        uint256 childGenes = 0;\n\n        if ((_egg.matronId == 0) && (_egg.sireId == 0)) {\n            childGeneration = 0;\n            childGenes = contractGeneScience.generateGene0();\n        } else {\n            (,,,,matronGene,,cooldownEndBlock,,,,matronGeneration,,) = contractHeroCore.getHero(_egg.matronId);\n            (,,,,sireGene,,,,,,sireGeneration,,) = contractHeroCore.getHero(_egg.sireId);\n\n            childGeneration = matronGeneration;\n            if (sireGeneration > matronGeneration) {\n                childGeneration = sireGeneration;\n            }\n            childGeneration = childGeneration + 1;\n            childGenes = contractGeneScience.mixGenes(matronGene, sireGene, cooldownEndBlock);\n        }\n\n        _transfer(msg.sender, address(0), _eggId);\n        delete eggs[_eggId];\n        contractHeroCore.createHero(now, _egg.price, _egg.tokenId, _egg.tokenPrice, _egg.matronId, _egg.sireId, childGeneration, childGenes, 0, msg.sender);\n    }\n}\n",
  "sourcePath": "/home/ubuntu/dev/Boby/pizzaHero/contracts/PZEggCore.sol",
  "compiler": {
    "name": "solc",
    "version": "0.5.4+commit.d15a3125.mod.Emscripten.clang"
  },
  "schemaVersion": "2.0.1",
  "updatedAt": "2021-03-24T05:15:11.584Z"
}