{
  "contractName": "PZEggCore",
  "abi": [
    {
      "constant": true,
      "inputs": [
        {
          "name": "_interfaceID",
          "type": "bytes4"
        }
      ],
      "name": "supportsInterface",
      "outputs": [
        {
          "name": "",
          "type": "bool"
        }
      ],
      "payable": false,
      "stateMutability": "view",
      "type": "function"
    },
    {
      "constant": true,
      "inputs": [],
      "name": "name",
      "outputs": [
        {
          "name": "",
          "type": "string"
        }
      ],
      "payable": false,
      "stateMutability": "view",
      "type": "function"
    },
    {
      "constant": false,
      "inputs": [
        {
          "name": "_to",
          "type": "address"
        },
        {
          "name": "_eggId",
          "type": "uint256"
        }
      ],
      "name": "approve",
      "outputs": [],
      "payable": false,
      "stateMutability": "nonpayable",
      "type": "function"
    },
    {
      "constant": true,
      "inputs": [],
      "name": "totalSupply",
      "outputs": [
        {
          "name": "",
          "type": "uint256"
        }
      ],
      "payable": false,
      "stateMutability": "view",
      "type": "function"
    },
    {
      "constant": true,
      "inputs": [
        {
          "name": "",
          "type": "uint256"
        }
      ],
      "name": "eggIndexToOwner",
      "outputs": [
        {
          "name": "",
          "type": "address"
        }
      ],
      "payable": false,
      "stateMutability": "view",
      "type": "function"
    },
    {
      "constant": true,
      "inputs": [
        {
          "name": "_eggId",
          "type": "uint256"
        }
      ],
      "name": "getEggAuctionByEggId",
      "outputs": [
        {
          "name": "seller",
          "type": "address"
        },
        {
          "name": "price",
          "type": "uint256"
        },
        {
          "name": "eggId",
          "type": "uint256"
        }
      ],
      "payable": false,
      "stateMutability": "view",
      "type": "function"
    },
    {
      "constant": false,
      "inputs": [
        {
          "name": "_from",
          "type": "address"
        },
        {
          "name": "_to",
          "type": "address"
        },
        {
          "name": "_eggId",
          "type": "uint256"
        }
      ],
      "name": "transferFrom",
      "outputs": [],
      "payable": false,
      "stateMutability": "nonpayable",
      "type": "function"
    },
    {
      "constant": true,
      "inputs": [],
      "name": "addrHero",
      "outputs": [
        {
          "name": "",
          "type": "address"
        }
      ],
      "payable": false,
      "stateMutability": "view",
      "type": "function"
    },
    {
      "constant": true,
      "inputs": [],
      "name": "getEggAuctionCount",
      "outputs": [
        {
          "name": "",
          "type": "uint256"
        }
      ],
      "payable": false,
      "stateMutability": "view",
      "type": "function"
    },
    {
      "constant": true,
      "inputs": [],
      "name": "contractGeneScience",
      "outputs": [
        {
          "name": "",
          "type": "address"
        }
      ],
      "payable": false,
      "stateMutability": "view",
      "type": "function"
    },
    {
      "constant": true,
      "inputs": [],
      "name": "contractHeroCore",
      "outputs": [
        {
          "name": "",
          "type": "address"
        }
      ],
      "payable": false,
      "stateMutability": "view",
      "type": "function"
    },
    {
      "constant": true,
      "inputs": [
        {
          "name": "_eggId",
          "type": "uint256"
        }
      ],
      "name": "ownerOf",
      "outputs": [
        {
          "name": "owner",
          "type": "address"
        }
      ],
      "payable": false,
      "stateMutability": "view",
      "type": "function"
    },
    {
      "constant": false,
      "inputs": [
        {
          "name": "_eggId",
          "type": "uint256"
        }
      ],
      "name": "bidAuction",
      "outputs": [],
      "payable": true,
      "stateMutability": "payable",
      "type": "function"
    },
    {
      "constant": true,
      "inputs": [
        {
          "name": "_owner",
          "type": "address"
        }
      ],
      "name": "balanceOf",
      "outputs": [
        {
          "name": "count",
          "type": "uint256"
        }
      ],
      "payable": false,
      "stateMutability": "view",
      "type": "function"
    },
    {
      "constant": false,
      "inputs": [
        {
          "name": "_price",
          "type": "uint256"
        },
        {
          "name": "_eggId",
          "type": "uint256"
        }
      ],
      "name": "addAuction",
      "outputs": [],
      "payable": false,
      "stateMutability": "nonpayable",
      "type": "function"
    },
    {
      "constant": true,
      "inputs": [],
      "name": "addrChest",
      "outputs": [
        {
          "name": "",
          "type": "address"
        }
      ],
      "payable": false,
      "stateMutability": "view",
      "type": "function"
    },
    {
      "constant": true,
      "inputs": [
        {
          "name": "",
          "type": "uint256"
        }
      ],
      "name": "eggIndexToApproved",
      "outputs": [
        {
          "name": "",
          "type": "address"
        }
      ],
      "payable": false,
      "stateMutability": "view",
      "type": "function"
    },
    {
      "constant": true,
      "inputs": [],
      "name": "symbol",
      "outputs": [
        {
          "name": "",
          "type": "string"
        }
      ],
      "payable": false,
      "stateMutability": "view",
      "type": "function"
    },
    {
      "constant": false,
      "inputs": [
        {
          "name": "_eggId",
          "type": "uint256"
        }
      ],
      "name": "cancelAuction",
      "outputs": [],
      "payable": false,
      "stateMutability": "nonpayable",
      "type": "function"
    },
    {
      "constant": false,
      "inputs": [
        {
          "name": "_to",
          "type": "address"
        },
        {
          "name": "_eggId",
          "type": "uint256"
        }
      ],
      "name": "transfer",
      "outputs": [],
      "payable": false,
      "stateMutability": "nonpayable",
      "type": "function"
    },
    {
      "constant": true,
      "inputs": [
        {
          "name": "",
          "type": "uint256"
        }
      ],
      "name": "eggs",
      "outputs": [
        {
          "name": "matronId",
          "type": "uint256"
        },
        {
          "name": "sireId",
          "type": "uint256"
        }
      ],
      "payable": false,
      "stateMutability": "view",
      "type": "function"
    },
    {
      "constant": true,
      "inputs": [],
      "name": "addrAdmin",
      "outputs": [
        {
          "name": "",
          "type": "address"
        }
      ],
      "payable": false,
      "stateMutability": "view",
      "type": "function"
    },
    {
      "constant": true,
      "inputs": [],
      "name": "getEggIdsOnSale",
      "outputs": [
        {
          "name": "",
          "type": "uint256[]"
        }
      ],
      "payable": false,
      "stateMutability": "view",
      "type": "function"
    },
    {
      "constant": true,
      "inputs": [
        {
          "name": "",
          "type": "address"
        }
      ],
      "name": "ownershipEggCount",
      "outputs": [
        {
          "name": "",
          "type": "uint256"
        }
      ],
      "payable": false,
      "stateMutability": "view",
      "type": "function"
    },
    {
      "constant": true,
      "inputs": [
        {
          "name": "_auctionId",
          "type": "uint256"
        }
      ],
      "name": "getEggAuction",
      "outputs": [
        {
          "name": "seller",
          "type": "address"
        },
        {
          "name": "price",
          "type": "uint256"
        },
        {
          "name": "eggId",
          "type": "uint256"
        }
      ],
      "payable": false,
      "stateMutability": "view",
      "type": "function"
    },
    {
      "constant": true,
      "inputs": [
        {
          "name": "",
          "type": "uint256"
        }
      ],
      "name": "eggAuctions",
      "outputs": [
        {
          "name": "seller",
          "type": "address"
        },
        {
          "name": "startingPrice",
          "type": "uint256"
        },
        {
          "name": "eggId",
          "type": "uint256"
        }
      ],
      "payable": false,
      "stateMutability": "view",
      "type": "function"
    },
    {
      "constant": false,
      "inputs": [
        {
          "name": "_contractAddress",
          "type": "address"
        }
      ],
      "name": "setMetadataAddress",
      "outputs": [],
      "payable": false,
      "stateMutability": "nonpayable",
      "type": "function"
    },
    {
      "constant": true,
      "inputs": [],
      "name": "trc721Metadata",
      "outputs": [
        {
          "name": "",
          "type": "address"
        }
      ],
      "payable": false,
      "stateMutability": "view",
      "type": "function"
    },
    {
      "constant": true,
      "inputs": [
        {
          "name": "_owner",
          "type": "address"
        }
      ],
      "name": "eggsOfOwner",
      "outputs": [
        {
          "name": "ownerEggs",
          "type": "uint256[]"
        }
      ],
      "payable": false,
      "stateMutability": "view",
      "type": "function"
    },
    {
      "inputs": [
        {
          "name": "_addrGeneScience",
          "type": "address"
        }
      ],
      "payable": false,
      "stateMutability": "nonpayable",
      "type": "constructor"
    },
    {
      "anonymous": false,
      "inputs": [
        {
          "indexed": false,
          "name": "from",
          "type": "address"
        },
        {
          "indexed": false,
          "name": "to",
          "type": "address"
        },
        {
          "indexed": false,
          "name": "tokenId",
          "type": "uint256"
        }
      ],
      "name": "Transfer",
      "type": "event"
    },
    {
      "anonymous": false,
      "inputs": [
        {
          "indexed": false,
          "name": "owner",
          "type": "address"
        },
        {
          "indexed": false,
          "name": "approved",
          "type": "address"
        },
        {
          "indexed": false,
          "name": "tokenId",
          "type": "uint256"
        }
      ],
      "name": "Approval",
      "type": "event"
    },
    {
      "anonymous": false,
      "inputs": [
        {
          "indexed": false,
          "name": "itmeType",
          "type": "uint256"
        },
        {
          "indexed": false,
          "name": "quantity",
          "type": "uint256"
        }
      ],
      "name": "EggsCreated",
      "type": "event"
    },
    {
      "constant": false,
      "inputs": [
        {
          "name": "_addrChest",
          "type": "address"
        }
      ],
      "name": "setChestAddr",
      "outputs": [],
      "payable": false,
      "stateMutability": "nonpayable",
      "type": "function"
    },
    {
      "constant": false,
      "inputs": [
        {
          "name": "_addrHero",
          "type": "address"
        }
      ],
      "name": "setHeroAddr",
      "outputs": [],
      "payable": false,
      "stateMutability": "nonpayable",
      "type": "function"
    },
    {
      "constant": true,
      "inputs": [],
      "name": "eggTest",
      "outputs": [
        {
          "name": "",
          "type": "address"
        }
      ],
      "payable": false,
      "stateMutability": "view",
      "type": "function"
    },
    {
      "constant": true,
      "inputs": [],
      "name": "isEggContract",
      "outputs": [
        {
          "name": "",
          "type": "bool"
        }
      ],
      "payable": false,
      "stateMutability": "pure",
      "type": "function"
    },
    {
      "constant": false,
      "inputs": [
        {
          "name": "_eggOwner",
          "type": "address"
        },
        {
          "name": "_matronId",
          "type": "uint256"
        },
        {
          "name": "_sireId",
          "type": "uint256"
        }
      ],
      "name": "createEggToOwner",
      "outputs": [],
      "payable": false,
      "stateMutability": "nonpayable",
      "type": "function"
    },
    {
      "constant": true,
      "inputs": [
        {
          "name": "_eggId",
          "type": "uint256"
        }
      ],
      "name": "getEgg",
      "outputs": [
        {
          "name": "matronId",
          "type": "uint256"
        },
        {
          "name": "sireId",
          "type": "uint256"
        }
      ],
      "payable": false,
      "stateMutability": "view",
      "type": "function"
    },
    {
      "constant": false,
      "inputs": [
        {
          "name": "_eggOwner",
          "type": "address"
        },
        {
          "name": "_matronId",
          "type": "uint256"
        },
        {
          "name": "_sireId",
          "type": "uint256"
        }
      ],
      "name": "createEggToOwnerForTest",
      "outputs": [],
      "payable": false,
      "stateMutability": "nonpayable",
      "type": "function"
    },
    {
      "constant": false,
      "inputs": [
        {
          "name": "_to",
          "type": "address"
        },
        {
          "name": "_eggId",
          "type": "uint256"
        }
      ],
      "name": "giftEgg",
      "outputs": [],
      "payable": false,
      "stateMutability": "nonpayable",
      "type": "function"
    },
    {
      "constant": false,
      "inputs": [
        {
          "name": "_eggId",
          "type": "uint256"
        }
      ],
      "name": "giveBirth",
      "outputs": [],
      "payable": false,
      "stateMutability": "nonpayable",
      "type": "function"
    }
  ],
  "bytecode": "0x60806040523480156200001157600080fd5b50d380156200001f57600080fd5b50d280156200002d57600080fd5b5060405160208062003219833981018060405281019080805190602001909291905050506000336000806101000a81548173ffffffffffffffffffffffffffffffffffffffff021916908373ffffffffffffffffffffffffffffffffffffffff1602179055508190508073ffffffffffffffffffffffffffffffffffffffff166354c15b826040518163ffffffff167c0100000000000000000000000000000000000000000000000000000000028152600401602060405180830381600087803b158015620000fb57600080fd5b505af115801562000110573d6000803e3d6000fd5b505050506040513d60208110156200012757600080fd5b810190808051906020019092919050505015156200014457600080fd5b80600a60006101000a81548173ffffffffffffffffffffffffffffffffffffffff021916908373ffffffffffffffffffffffffffffffffffffffff160217905550505061308280620001976000396000f3006080604052600436106101d8576000357c0100000000000000000000000000000000000000000000000000000000900463ffffffff16806301ffc9a7146101dd57806306fdde031461025b578063095ea7b31461030557806318160ddd1461036c5780631d9279ea146103b157806321a4531a1461043857806323b872dd146104cd57806324c89b33146105545780632bc9f293146105c55780633768c994146106365780633ba864fe1461067b57806352270c47146106ec57806353b4e8fa146107495780636173a5d4146107ba5780636352211e1461081757806364a7d7c71461089e57806370a08231146108be57806373187d271461092f57806376c0b3671461098057806383fc8c5b146109f157806388c2a0bf14610a585780638ef30b8114610a9f57806395d89b4114610b2657806396b5a75514610bd057806399b2af4714610c17578063a9059cbb14610c60578063bb654efa14610cc7578063bfae2f0e14610d29578063d0fbb24114610d9a578063d26cadc914610e20578063d413ce7c14610e91578063d5350ca314610f02578063d94569b314610f97578063e11625691461102c578063e17b25af1461109d578063f15f9388146110fa578063fce253541461116b578063feb40f7e1461121d575b600080fd5b3480156101e957600080fd5b50d380156101f657600080fd5b50d2801561020357600080fd5b5061024160048036038101908080357bffffffffffffffffffffffffffffffffffffffffffffffffffffffff1916906020019092919050505061127f565b604051808215151515815260200191505060405180910390f35b34801561026757600080fd5b50d3801561027457600080fd5b50d2801561028157600080fd5b5061028a611590565b6040518080602001828103825283818151815260200191508051906020019080838360005b838110156102ca5780820151818401526020810190506102af565b50505050905090810190601f1680156102f75780820380516001836020036101000a031916815260200191505b509250505060405180910390f35b34801561031157600080fd5b50d3801561031e57600080fd5b50d2801561032b57600080fd5b5061036a600480360381019080803573ffffffffffffffffffffffffffffffffffffffff169060200190929190803590602001909291905050506115c9565b005b34801561037857600080fd5b50d3801561038557600080fd5b50d2801561039257600080fd5b5061039b61168b565b6040518082815260200191505060405180910390f35b3480156103bd57600080fd5b50d380156103ca57600080fd5b50d280156103d757600080fd5b506103f66004803603810190808035906020019092919050505061169a565b604051808273ffffffffffffffffffffffffffffffffffffffff1673ffffffffffffffffffffffffffffffffffffffff16815260200191505060405180910390f35b34801561044457600080fd5b50d3801561045157600080fd5b50d2801561045e57600080fd5b5061047d600480360381019080803590602001909291905050506116cd565b604051808473ffffffffffffffffffffffffffffffffffffffff1673ffffffffffffffffffffffffffffffffffffffff168152602001838152602001828152602001935050505060405180910390f35b3480156104d957600080fd5b50d380156104e657600080fd5b50d280156104f357600080fd5b50610552600480360381019080803573ffffffffffffffffffffffffffffffffffffffff169060200190929190803573ffffffffffffffffffffffffffffffffffffffff16906020019092919080359060200190929190505050611782565b005b34801561056057600080fd5b50d3801561056d57600080fd5b50d2801561057a57600080fd5b50610583611833565b604051808273ffffffffffffffffffffffffffffffffffffffff1673ffffffffffffffffffffffffffffffffffffffff16815260200191505060405180910390f35b3480156105d157600080fd5b50d380156105de57600080fd5b50d280156105eb57600080fd5b506105f461185d565b604051808273ffffffffffffffffffffffffffffffffffffffff1673ffffffffffffffffffffffffffffffffffffffff16815260200191505060405180910390f35b34801561064257600080fd5b50d3801561064f57600080fd5b50d2801561065c57600080fd5b50610665611883565b6040518082815260200191505060405180910390f35b34801561068757600080fd5b50d3801561069457600080fd5b50d280156106a157600080fd5b506106aa611890565b604051808273ffffffffffffffffffffffffffffffffffffffff1673ffffffffffffffffffffffffffffffffffffffff16815260200191505060405180910390f35b3480156106f857600080fd5b50d3801561070557600080fd5b50d2801561071257600080fd5b50610747600480360381019080803573ffffffffffffffffffffffffffffffffffffffff1690602001909291905050506118b6565b005b34801561075557600080fd5b50d3801561076257600080fd5b50d2801561076f57600080fd5b506107786119f4565b604051808273ffffffffffffffffffffffffffffffffffffffff1673ffffffffffffffffffffffffffffffffffffffff16815260200191505060405180910390f35b3480156107c657600080fd5b50d380156107d357600080fd5b50d280156107e057600080fd5b50610815600480360381019080803573ffffffffffffffffffffffffffffffffffffffff169060200190929190505050611a1a565b005b34801561082357600080fd5b50d3801561083057600080fd5b50d2801561083d57600080fd5b5061085c60048036038101908080359060200190929190505050611af5565b604051808273ffffffffffffffffffffffffffffffffffffffff1673ffffffffffffffffffffffffffffffffffffffff16815260200191505060405180910390f35b6108bc60048036038101908080359060200190929190505050611b6e565b005b3480156108ca57600080fd5b50d380156108d757600080fd5b50d280156108e457600080fd5b50610919600480360381019080803573ffffffffffffffffffffffffffffffffffffffff169060200190929190505050611ca1565b6040518082815260200191505060405180910390f35b34801561093b57600080fd5b50d3801561094857600080fd5b50d2801561095557600080fd5b5061097e6004803603810190808035906020019092919080359060200190929190505050611cea565b005b34801561098c57600080fd5b50d3801561099957600080fd5b50d280156109a657600080fd5b506109af611dcc565b604051808273ffffffffffffffffffffffffffffffffffffffff1673ffffffffffffffffffffffffffffffffffffffff16815260200191505060405180910390f35b3480156109fd57600080fd5b50d38015610a0a57600080fd5b50d28015610a1757600080fd5b50610a56600480360381019080803573ffffffffffffffffffffffffffffffffffffffff16906020019092919080359060200190929190505050611df2565b005b348015610a6457600080fd5b50d38015610a7157600080fd5b50d28015610a7e57600080fd5b50610a9d60048036038101908080359060200190929190505050611e52565b005b348015610aab57600080fd5b50d38015610ab857600080fd5b50d28015610ac557600080fd5b50610ae4600480360381019080803590602001909291905050506124cf565b604051808273ffffffffffffffffffffffffffffffffffffffff1673ffffffffffffffffffffffffffffffffffffffff16815260200191505060405180910390f35b348015610b3257600080fd5b50d38015610b3f57600080fd5b50d28015610b4c57600080fd5b50610b55612502565b6040518080602001828103825283818151815260200191508051906020019080838360005b83811015610b95578082015181840152602081019050610b7a565b50505050905090810190601f168015610bc25780820380516001836020036101000a031916815260200191505b509250505060405180910390f35b348015610bdc57600080fd5b50d38015610be957600080fd5b50d28015610bf657600080fd5b50610c156004803603810190808035906020019092919050505061253b565b005b348015610c2357600080fd5b50d38015610c3057600080fd5b50d28015610c3d57600080fd5b50610c46612639565b604051808215151515815260200191505060405180910390f35b348015610c6c57600080fd5b50d38015610c7957600080fd5b50d28015610c8657600080fd5b50610cc5600480360381019080803573ffffffffffffffffffffffffffffffffffffffff16906020019092919080359060200190929190505050612642565b005b348015610cd357600080fd5b50d38015610ce057600080fd5b50d28015610ced57600080fd5b50610d0c600480360381019080803590602001909291905050506126dd565b604051808381526020018281526020019250505060405180910390f35b348015610d3557600080fd5b50d38015610d4257600080fd5b50d28015610d4f57600080fd5b50610d58612710565b604051808273ffffffffffffffffffffffffffffffffffffffff1673ffffffffffffffffffffffffffffffffffffffff16815260200191505060405180910390f35b348015610da657600080fd5b50d38015610db357600080fd5b50d28015610dc057600080fd5b50610dc9612735565b6040518080602001828103825283818151815260200191508051906020019060200280838360005b83811015610e0c578082015181840152602081019050610df1565b505050509050019250505060405180910390f35b348015610e2c57600080fd5b50d38015610e3957600080fd5b50d28015610e4657600080fd5b50610e7b600480360381019080803573ffffffffffffffffffffffffffffffffffffffff169060200190929190505050612745565b6040518082815260200191505060405180910390f35b348015610e9d57600080fd5b50d38015610eaa57600080fd5b50d28015610eb757600080fd5b50610f00600480360381019080803573ffffffffffffffffffffffffffffffffffffffff169060200190929190803590602001909291908035906020019092919050505061275d565b005b348015610f0e57600080fd5b50d38015610f1b57600080fd5b50d28015610f2857600080fd5b50610f476004803603810190808035906020019092919050505061276d565b604051808473ffffffffffffffffffffffffffffffffffffffff1673ffffffffffffffffffffffffffffffffffffffff168152602001838152602001828152602001935050505060405180910390f35b348015610fa357600080fd5b50d38015610fb057600080fd5b50d28015610fbd57600080fd5b50610fdc6004803603810190808035906020019092919050505061282c565b604051808473ffffffffffffffffffffffffffffffffffffffff1673ffffffffffffffffffffffffffffffffffffffff168152602001838152602001828152602001935050505060405180910390f35b34801561103857600080fd5b50d3801561104557600080fd5b50d2801561105257600080fd5b5061109b600480360381019080803573ffffffffffffffffffffffffffffffffffffffff1690602001909291908035906020019092919080359060200190929190505050612885565b005b3480156110a957600080fd5b50d380156110b657600080fd5b50d280156110c357600080fd5b506110f8600480360381019080803573ffffffffffffffffffffffffffffffffffffffff169060200190929190505050612971565b005b34801561110657600080fd5b50d3801561111357600080fd5b50d2801561112057600080fd5b50611129612a10565b604051808273ffffffffffffffffffffffffffffffffffffffff1673ffffffffffffffffffffffffffffffffffffffff16815260200191505060405180910390f35b34801561117757600080fd5b50d3801561118457600080fd5b50d2801561119157600080fd5b506111c6600480360381019080803573ffffffffffffffffffffffffffffffffffffffff169060200190929190505050612a36565b6040518080602001828103825283818151815260200191508051906020019060200280838360005b838110156112095780820151818401526020810190506111ee565b505050509050019250505060405180910390f35b34801561122957600080fd5b50d3801561123657600080fd5b50d2801561124357600080fd5b5061126260048036038101908080359060200190929190505050612b83565b604051808381526020018281526020019250505060405180910390f35b600060405180807f737570706f727473496e74657266616365286279746573342900000000000000815250601901905060405180910390207bffffffffffffffffffffffffffffffffffffffffffffffffffffffff1916827bffffffffffffffffffffffffffffffffffffffffffffffffffffffff19161480611589575060405180807f746f6b656e4d657461646174612875696e743235362c737472696e6729000000815250601d019050604051809103902060405180807f656767734f664f776e65722861646472657373290000000000000000000000008152506014019050604051809103902060405180807f7472616e7366657246726f6d28616464726573732c616464726573732c75696e81526020017f74323536290000000000000000000000000000000000000000000000000000008152506025019050604051809103902060405180807f7472616e7366657228616464726573732c75696e7432353629000000000000008152506019019050604051809103902060405180807f617070726f766528616464726573732c75696e743235362900000000000000008152506018019050604051809103902060405180807f6f776e65724f662875696e7432353629000000000000000000000000000000008152506010019050604051809103902060405180807f62616c616e63654f6628616464726573732900000000000000000000000000008152506012019050604051809103902060405180807f746f74616c537570706c79282900000000000000000000000000000000000000815250600d019050604051809103902060405180807f73796d626f6c28290000000000000000000000000000000000000000000000008152506008019050604051809103902060405180807f6e616d6528290000000000000000000000000000000000000000000000000000815250600601905060405180910390201818181818181818187bffffffffffffffffffffffffffffffffffffffffffffffffffffffff1916827bffffffffffffffffffffffffffffffffffffffffffffffffffffffff1916145b9050919050565b6040805190810160405280600681526020017f505a65676773000000000000000000000000000000000000000000000000000081525081565b6115d33382612be0565b15156115de57600080fd5b6115e88183612c4c565b7f8c5be1e5ebec7d5bd14f71427d1e84f3dd0314c0f7b2291e5b200ac8c7c3b925338383604051808473ffffffffffffffffffffffffffffffffffffffff1673ffffffffffffffffffffffffffffffffffffffff1681526020018373ffffffffffffffffffffffffffffffffffffffff1673ffffffffffffffffffffffffffffffffffffffff168152602001828152602001935050505060405180910390a15050565b60006001808054905003905090565b60046020528060005260406000206000915054906101000a900473ffffffffffffffffffffffffffffffffffffffff1681565b60008060006116da613004565b60086000868152602001908152602001600020606060405190810160405290816000820160009054906101000a900473ffffffffffffffffffffffffffffffffffffffff1673ffffffffffffffffffffffffffffffffffffffff1673ffffffffffffffffffffffffffffffffffffffff168152602001600182015481526020016002820154815250509050806000015181602001518260400151935093509350509193909250565b600073ffffffffffffffffffffffffffffffffffffffff168273ffffffffffffffffffffffffffffffffffffffff16141515156117be57600080fd5b3073ffffffffffffffffffffffffffffffffffffffff168273ffffffffffffffffffffffffffffffffffffffff16141515156117f957600080fd5b6118033382612ca2565b151561180e57600080fd5b6118188382612be0565b151561182357600080fd5b61182e838383612d0e565b505050565b6000600260009054906101000a900473ffffffffffffffffffffffffffffffffffffffff16905090565b600360009054906101000a900473ffffffffffffffffffffffffffffffffffffffff1681565b6000600980549050905090565b600a60009054906101000a900473ffffffffffffffffffffffffffffffffffffffff1681565b6000809054906101000a900473ffffffffffffffffffffffffffffffffffffffff1673ffffffffffffffffffffffffffffffffffffffff163373ffffffffffffffffffffffffffffffffffffffff1614151561191157600080fd5b600073ffffffffffffffffffffffffffffffffffffffff168173ffffffffffffffffffffffffffffffffffffffff161415151561194d57600080fd5b80600360006101000a81548173ffffffffffffffffffffffffffffffffffffffff021916908373ffffffffffffffffffffffffffffffffffffffff160217905550600360009054906101000a900473ffffffffffffffffffffffffffffffffffffffff16600b60006101000a81548173ffffffffffffffffffffffffffffffffffffffff021916908373ffffffffffffffffffffffffffffffffffffffff16021790555050565b600b60009054906101000a900473ffffffffffffffffffffffffffffffffffffffff1681565b6000809054906101000a900473ffffffffffffffffffffffffffffffffffffffff1673ffffffffffffffffffffffffffffffffffffffff163373ffffffffffffffffffffffffffffffffffffffff16141515611a7557600080fd5b600073ffffffffffffffffffffffffffffffffffffffff168173ffffffffffffffffffffffffffffffffffffffff1614151515611ab157600080fd5b80600260006101000a81548173ffffffffffffffffffffffffffffffffffffffff021916908373ffffffffffffffffffffffffffffffffffffffff16021790555050565b60006004600083815260200190815260200160002060009054906101000a900473ffffffffffffffffffffffffffffffffffffffff169050600073ffffffffffffffffffffffffffffffffffffffff168173ffffffffffffffffffffffffffffffffffffffff1614151515611b6957600080fd5b919050565b611b76613004565b611b803083612be0565b1515611b8b57600080fd5b60086000838152602001908152602001600020606060405190810160405290816000820160009054906101000a900473ffffffffffffffffffffffffffffffffffffffff1673ffffffffffffffffffffffffffffffffffffffff1673ffffffffffffffffffffffffffffffffffffffff168152602001600182015481526020016002820154815250509050611c203383612be0565b151515611c2c57600080fd5b348160200151141515611c3e57600080fd5b611c4782612f10565b611c52303384612d0e565b806000015173ffffffffffffffffffffffffffffffffffffffff166108fc349081150290604051600060405180830381858888f19350505050158015611c9c573d6000803e3d6000fd5b505050565b6000600560008373ffffffffffffffffffffffffffffffffffffffff1673ffffffffffffffffffffffffffffffffffffffff168152602001908152602001600020549050919050565b611cf2613004565b600083111515611d0157600080fd5b611d0b3383612be0565b1515611d1657600080fd5b6060604051908101604052803373ffffffffffffffffffffffffffffffffffffffff168152602001848152602001838152509050611d55333084612d0e565b806008600084815260200190815260200160002060008201518160000160006101000a81548173ffffffffffffffffffffffffffffffffffffffff021916908373ffffffffffffffffffffffffffffffffffffffff1602179055506020820151816001015560408201518160020155905050505050565b600260009054906101000a900473ffffffffffffffffffffffffffffffffffffffff1681565b611dfc3382612be0565b1515611e0757600080fd5b600073ffffffffffffffffffffffffffffffffffffffff168273ffffffffffffffffffffffffffffffffffffffff1614151515611e4357600080fd5b611e4e338383612d0e565b5050565b611e5a61303c565b6000806000806000806000611e6f338a612be0565b1515611e7a57600080fd5b600189815481101515611e8957fe5b90600052602060002090600202016040805190810160405290816000820154815260200160018201548152505097506000965060009550600094506000935060009250600091506000905060008860000151148015611eec575060008860200151145b15611fbd5760009150600a60009054906101000a900473ffffffffffffffffffffffffffffffffffffffff1673ffffffffffffffffffffffffffffffffffffffff16635ddef9dd6040518163ffffffff167c0100000000000000000000000000000000000000000000000000000000028152600401602060405180830381600087803b158015611f7b57600080fd5b505af1158015611f8f573d6000803e3d6000fd5b505050506040513d6020811015611fa557600080fd5b81019080805190602001909291905050509050612356565b600b60009054906101000a900473ffffffffffffffffffffffffffffffffffffffff1673ffffffffffffffffffffffffffffffffffffffff166321d8011189600001516040518263ffffffff167c01000000000000000000000000000000000000000000000000000000000281526004018082815260200191505061012060405180830381600087803b15801561205357600080fd5b505af1158015612067573d6000803e3d6000fd5b505050506040513d61012081101561207e57600080fd5b810190808051906020019092919080519060200190929190805190602001909291908051906020019092919080519060200190929190805190602001909291908051906020019092919080519060200190929190805190602001909291905050509091929394959650909192939450909192935090919250905050809850819750829950505050600b60009054906101000a900473ffffffffffffffffffffffffffffffffffffffff1673ffffffffffffffffffffffffffffffffffffffff166321d8011189602001516040518263ffffffff167c01000000000000000000000000000000000000000000000000000000000281526004018082815260200191505061012060405180830381600087803b15801561219b57600080fd5b505af11580156121af573d6000803e3d6000fd5b505050506040513d6101208110156121c657600080fd5b8101908080519060200190929190805190602001909291908051906020019092919080519060200190929190805190602001909291908051906020019092919080519060200190929190805190602001909291908051906020019092919050505090919293949596509091929394955090919293945090919293509091925090505080945081955050508591508561ffff168361ffff161115612267578291505b600182019150600a60009054906101000a900473ffffffffffffffffffffffffffffffffffffffff1673ffffffffffffffffffffffffffffffffffffffff16630d9f5aed8886886040518463ffffffff167c0100000000000000000000000000000000000000000000000000000000028152600401808481526020018381526020018267ffffffffffffffff1681526020019350505050602060405180830381600087803b15801561231857600080fd5b505af115801561232c573d6000803e3d6000fd5b505050506040513d602081101561234257600080fd5b810190808051906020019092919050505090505b6123623360008b612d0e565b60018981548110151561237157fe5b906000526020600020906002020160008082016000905560018201600090555050600b60009054906101000a900473ffffffffffffffffffffffffffffffffffffffff1673ffffffffffffffffffffffffffffffffffffffff16634395134389600001518a6020015185856000336040518763ffffffff167c0100000000000000000000000000000000000000000000000000000000028152600401808781526020018681526020018561ffff1681526020018481526020018361ffff1681526020018273ffffffffffffffffffffffffffffffffffffffff1673ffffffffffffffffffffffffffffffffffffffff1681526020019650505050505050602060405180830381600087803b15801561248857600080fd5b505af115801561249c573d6000803e3d6000fd5b505050506040513d60208110156124b257600080fd5b810190808051906020019092919050505050505050505050505050565b60066020528060005260406000206000915054906101000a900473ffffffffffffffffffffffffffffffffffffffff1681565b6040805190810160405280600281526020017f504500000000000000000000000000000000000000000000000000000000000081525081565b612543613004565b61254d3083612be0565b151561255857600080fd5b60086000838152602001908152602001600020606060405190810160405290816000820160009054906101000a900473ffffffffffffffffffffffffffffffffffffffff1673ffffffffffffffffffffffffffffffffffffffff1673ffffffffffffffffffffffffffffffffffffffff168152602001600182015481526020016002820154815250509050806000015173ffffffffffffffffffffffffffffffffffffffff163373ffffffffffffffffffffffffffffffffffffffff1614151561262157600080fd5b61262a82612f10565b612635303384612d0e565b5050565b60006001905090565b600073ffffffffffffffffffffffffffffffffffffffff168273ffffffffffffffffffffffffffffffffffffffff161415151561267e57600080fd5b3073ffffffffffffffffffffffffffffffffffffffff168273ffffffffffffffffffffffffffffffffffffffff16141515156126b957600080fd5b6126c33382612be0565b15156126ce57600080fd5b6126d9338383612d0e565b5050565b6001818154811015156126ec57fe5b90600052602060002090600202016000915090508060000154908060010154905082565b6000809054906101000a900473ffffffffffffffffffffffffffffffffffffffff1681565b606061274030612a36565b905090565b60056020528060005260406000206000915090505481565b612768838383612f60565b505050565b600080600061277a613004565b60098581548110151561278957fe5b9060005260206000209060030201606060405190810160405290816000820160009054906101000a900473ffffffffffffffffffffffffffffffffffffffff1673ffffffffffffffffffffffffffffffffffffffff1673ffffffffffffffffffffffffffffffffffffffff168152602001600182015481526020016002820154815250509050806000015181602001518260400151935093509350509193909250565b60098181548110151561283b57fe5b90600052602060002090600302016000915090508060000160009054906101000a900473ffffffffffffffffffffffffffffffffffffffff16908060010154908060020154905083565b600260009054906101000a900473ffffffffffffffffffffffffffffffffffffffff1673ffffffffffffffffffffffffffffffffffffffff163373ffffffffffffffffffffffffffffffffffffffff16148061292e5750600360009054906101000a900473ffffffffffffffffffffffffffffffffffffffff1673ffffffffffffffffffffffffffffffffffffffff163373ffffffffffffffffffffffffffffffffffffffff16145b151561293957600080fd5b8163ffffffff168214151561294d57600080fd5b8063ffffffff168114151561296157600080fd5b61296c838383612f60565b505050565b6000809054906101000a900473ffffffffffffffffffffffffffffffffffffffff1673ffffffffffffffffffffffffffffffffffffffff163373ffffffffffffffffffffffffffffffffffffffff161415156129cc57600080fd5b80600760006101000a81548173ffffffffffffffffffffffffffffffffffffffff021916908373ffffffffffffffffffffffffffffffffffffffff16021790555050565b600760009054906101000a900473ffffffffffffffffffffffffffffffffffffffff1681565b6060600060606000806000612a4a87611ca1565b94506000851415612a8d576000604051908082528060200260200182016040528015612a855781602001602082028038833980820191505090505b509550612b79565b84604051908082528060200260200182016040528015612abc5781602001602082028038833980820191505090505b509350612ac761168b565b925060009150600190505b8281111515612b75578673ffffffffffffffffffffffffffffffffffffffff166004600083815260200190815260200160002060009054906101000a900473ffffffffffffffffffffffffffffffffffffffff1673ffffffffffffffffffffffffffffffffffffffff161415612b6857808483815181101515612b5157fe5b906020019060200201818152505081806001019250505b8080600101915050612ad2565b8395505b5050505050919050565b600080612b8e61303c565b600184815481101515612b9d57fe5b9060005260206000209060020201604080519081016040529081600082015481526020016001820154815250509050806000015181602001519250925050915091565b60008273ffffffffffffffffffffffffffffffffffffffff166004600084815260200190815260200160002060009054906101000a900473ffffffffffffffffffffffffffffffffffffffff1673ffffffffffffffffffffffffffffffffffffffff1614905092915050565b806006600084815260200190815260200160002060006101000a81548173ffffffffffffffffffffffffffffffffffffffff021916908373ffffffffffffffffffffffffffffffffffffffff1602179055505050565b60008273ffffffffffffffffffffffffffffffffffffffff166006600084815260200190815260200160002060009054906101000a900473ffffffffffffffffffffffffffffffffffffffff1673ffffffffffffffffffffffffffffffffffffffff1614905092915050565b600560008373ffffffffffffffffffffffffffffffffffffffff1673ffffffffffffffffffffffffffffffffffffffff16815260200190815260200160002060008154809291906001019190505550816004600083815260200190815260200160002060006101000a81548173ffffffffffffffffffffffffffffffffffffffff021916908373ffffffffffffffffffffffffffffffffffffffff160217905550600073ffffffffffffffffffffffffffffffffffffffff168373ffffffffffffffffffffffffffffffffffffffff16141515612e6c57600560008473ffffffffffffffffffffffffffffffffffffffff1673ffffffffffffffffffffffffffffffffffffffff16815260200190815260200160002060008154809291906001900391905055506006600082815260200190815260200160002060006101000a81549073ffffffffffffffffffffffffffffffffffffffff02191690555b7fddf252ad1be2c89b69c2b068fc378daa952ba7f163c4a11628f55a4df523b3ef838383604051808473ffffffffffffffffffffffffffffffffffffffff1673ffffffffffffffffffffffffffffffffffffffff1681526020018373ffffffffffffffffffffffffffffffffffffffff1673ffffffffffffffffffffffffffffffffffffffff168152602001828152602001935050505060405180910390a1505050565b60086000828152602001908152602001600020600080820160006101000a81549073ffffffffffffffffffffffffffffffffffffffff021916905560018201600090556002820160009055505050565b612f6861303c565b60008363ffffffff1684141515612f7e57600080fd5b8263ffffffff1683141515612f9257600080fd5b6040805190810160405280858152602001848152509150600180839080600181540180825580915050906001820390600052602060002090600202016000909192909190915060008201518160000155602082015181600101555050039050612ffd60008683612d0e565b5050505050565b606060405190810160405280600073ffffffffffffffffffffffffffffffffffffffff16815260200160008152602001600081525090565b6040805190810160405280600081526020016000815250905600a165627a7a723058201202d97925927b4304aa4867dca4a62453d67f8c5ea742005f29e49156b4dc6a0029",
  "source": "pragma solidity ^0.4.25;\n\nimport \"./PZEggMarketplace.sol\";\nimport \"./PZHeroCore.sol\";\nimport \"./PZGeneScienceInterface.sol\";\n\ncontract PZEggCore is PZEggMarketplace\n{\n\n    PZGeneScienceInterface public           contractGeneScience;\n    PZHeroCore public                       contractHeroCore;\n\n    /**\n    * Constructor\n    * @param _addrGeneScience               Address of GeneScience contract\n    *\n     */\n    constructor(address _addrGeneScience) public\n    {\n        // require(_addrItemCore != address(0x0));\n        // addrItemCore = _addrItemCore;\n\n        // addrGeneScience = _addrGeneScience;\n        PZGeneScienceInterface candidateContract = PZGeneScienceInterface(_addrGeneScience);\n\n        require(candidateContract.isGeneScience());\n\n        // Set the new contract address\n        contractGeneScience = candidateContract;\n    }\n\n    /**\n    * Set Chest Address\n    * @param _addrChest                      Address of Chest contract\n    *\n     */\n    function setChestAddr(address _addrChest) public onlyAdmin\n    {\n        require(_addrChest != address(0x0));\n        addrChest = _addrChest; \n\n    }\n\n    /**\n    * Set Hero Address\n    * @param _addrHero                      Address of Hero contract\n    *\n     */\n    function setHeroAddr(address _addrHero) public onlyAdmin\n    {\n        require(_addrHero != address(0x0));\n        addrHero = _addrHero;\n        contractHeroCore = PZHeroCore(addrHero);\n    }\n\n    /**\n    * Test function\n    *\n     */\n    function eggTest() external view returns (address){\n        return addrChest;\n    }\n\n    /**\n    * Check function as if this is the Egg contract\n    *\n     */\n    function isEggContract() public pure returns (bool) {\n        return true;\n    }\n\n    /**\n    * Create Egg and transfer to Owner\n    * @param _eggOwner                      Address of Egg Owner\n    * @param _matronId                      Matron ID of new Egg\n    * @param _sireId                        Sire ID of new Egg\n    *\n     */\n    function createEggToOwner(address _eggOwner, uint256 _matronId, uint256 _sireId) public {\n        require((msg.sender == addrChest) || (msg.sender == addrHero));\n\n        require(_matronId == uint256(uint32(_matronId)));\n        require(_sireId == uint256(uint32(_sireId)));\n\n        _createEgg(_eggOwner, _matronId, _sireId);\n    }\n\n    /**\n    * Get Information of an Egg\n    * @param _eggId                      Egg Id\n    *\n    * @return matronId                   Matron ID\n    * @return sireId                     Sire ID\n    *\n     */\n    function getEgg(uint _eggId) public view returns(uint256 matronId, uint256 sireId)\n    {\n        Egg memory _egg = eggs[_eggId];\n        return(_egg.matronId, _egg.sireId);\n    }\n\n    /**\n    * Test function for Egg Creation\n    *\n     */\n    function createEggToOwnerForTest(address _eggOwner, uint256 _matronId, uint256 _sireId) public {\n\n        _createEgg(_eggOwner, _matronId, _sireId);\n    }\n\n    /**\n    * Gift Egg to other users\n    *\n    * @param _to                            address of receiver\n    * @param _eggId                         Egg Id to gift\n    *\n    */\n    function giftEgg(address _to, uint256 _eggId) public\n    {\n        require(_owns(msg.sender, _eggId));\n        require(_to != address(0x0));\n        _transfer(msg.sender, _to, _eggId);\n    }\n\n    /**\n    * Birth the Egg to create new Hero\n    *\n    * @param _eggId                         Egg Id to gift\n    *\n    */\n    function giveBirth(uint256 _eggId) public\n    {\n        require(_owns(msg.sender, _eggId));\n        Egg memory _egg = eggs[_eggId];\n\n        uint256 matronGene = 0;\n        uint16  matronGeneration = 0;\n        uint64 cooldownEndBlock = 0;\n\n        uint256 sireGene = 0;\n        uint16  sireGeneration = 0;\n\n        uint16 childGeneration = 0;\n        uint256 childGenes = 0;\n\n        if ((_egg.matronId == 0) && (_egg.sireId == 0)) {\n            childGeneration = 0;\n            childGenes = contractGeneScience.generateGene0();\n        } else {\n            (matronGene,,cooldownEndBlock,,,,matronGeneration,,) = contractHeroCore.getHero(_egg.matronId);\n            (sireGene,,,,,,sireGeneration,,) = contractHeroCore.getHero(_egg.sireId);\n\n            childGeneration = matronGeneration;\n            if (sireGeneration > matronGeneration) {\n                childGeneration = sireGeneration;\n            }\n            childGeneration = childGeneration + 1;\n            childGenes = contractGeneScience.mixGenes(matronGene, sireGene, cooldownEndBlock);\n        }\n\n        _transfer(msg.sender, address(0), _eggId);\n        delete eggs[_eggId];\n        contractHeroCore.createHero(_egg.matronId, _egg.sireId, childGeneration, childGenes, 0, msg.sender);\n    }\n}\n",
  "sourcePath": "/Volumes/Backup/workspace/Dave(Tron_NFT)/pizzaHero/contracts/PZEggCore.sol",
  "compiler": {
    "name": "solc",
    "version": "0.4.25+commit.69a1e720.Emscripten.clang"
  },
  "schemaVersion": "2.0.1",
  "updatedAt": "2020-01-04T03:21:47.616Z"
}