{
  "contractName": "PZEggMarketplace",
  "abi": [
    {
      "constant": true,
      "inputs": [
        {
          "name": "_interfaceID",
          "type": "bytes4"
        }
      ],
      "name": "supportsInterface",
      "outputs": [
        {
          "name": "",
          "type": "bool"
        }
      ],
      "payable": false,
      "stateMutability": "view",
      "type": "function"
    },
    {
      "constant": true,
      "inputs": [],
      "name": "name",
      "outputs": [
        {
          "name": "",
          "type": "string"
        }
      ],
      "payable": false,
      "stateMutability": "view",
      "type": "function"
    },
    {
      "constant": false,
      "inputs": [
        {
          "name": "_to",
          "type": "address"
        },
        {
          "name": "_eggId",
          "type": "uint256"
        }
      ],
      "name": "approve",
      "outputs": [],
      "payable": false,
      "stateMutability": "nonpayable",
      "type": "function"
    },
    {
      "constant": true,
      "inputs": [],
      "name": "totalSupply",
      "outputs": [
        {
          "name": "",
          "type": "uint256"
        }
      ],
      "payable": false,
      "stateMutability": "view",
      "type": "function"
    },
    {
      "constant": true,
      "inputs": [
        {
          "name": "",
          "type": "uint256"
        }
      ],
      "name": "eggIndexToOwner",
      "outputs": [
        {
          "name": "",
          "type": "address"
        }
      ],
      "payable": false,
      "stateMutability": "view",
      "type": "function"
    },
    {
      "constant": false,
      "inputs": [
        {
          "name": "_from",
          "type": "address"
        },
        {
          "name": "_to",
          "type": "address"
        },
        {
          "name": "_eggId",
          "type": "uint256"
        }
      ],
      "name": "transferFrom",
      "outputs": [],
      "payable": false,
      "stateMutability": "nonpayable",
      "type": "function"
    },
    {
      "constant": true,
      "inputs": [],
      "name": "addrHero",
      "outputs": [
        {
          "name": "",
          "type": "address"
        }
      ],
      "payable": false,
      "stateMutability": "view",
      "type": "function"
    },
    {
      "constant": true,
      "inputs": [
        {
          "name": "_eggId",
          "type": "uint256"
        }
      ],
      "name": "ownerOf",
      "outputs": [
        {
          "name": "owner",
          "type": "address"
        }
      ],
      "payable": false,
      "stateMutability": "view",
      "type": "function"
    },
    {
      "constant": true,
      "inputs": [
        {
          "name": "_owner",
          "type": "address"
        }
      ],
      "name": "balanceOf",
      "outputs": [
        {
          "name": "count",
          "type": "uint256"
        }
      ],
      "payable": false,
      "stateMutability": "view",
      "type": "function"
    },
    {
      "constant": true,
      "inputs": [],
      "name": "addrChest",
      "outputs": [
        {
          "name": "",
          "type": "address"
        }
      ],
      "payable": false,
      "stateMutability": "view",
      "type": "function"
    },
    {
      "constant": true,
      "inputs": [
        {
          "name": "",
          "type": "uint256"
        }
      ],
      "name": "eggIndexToApproved",
      "outputs": [
        {
          "name": "",
          "type": "address"
        }
      ],
      "payable": false,
      "stateMutability": "view",
      "type": "function"
    },
    {
      "constant": true,
      "inputs": [],
      "name": "symbol",
      "outputs": [
        {
          "name": "",
          "type": "string"
        }
      ],
      "payable": false,
      "stateMutability": "view",
      "type": "function"
    },
    {
      "constant": false,
      "inputs": [
        {
          "name": "_to",
          "type": "address"
        },
        {
          "name": "_eggId",
          "type": "uint256"
        }
      ],
      "name": "transfer",
      "outputs": [],
      "payable": false,
      "stateMutability": "nonpayable",
      "type": "function"
    },
    {
      "constant": true,
      "inputs": [
        {
          "name": "",
          "type": "uint256"
        }
      ],
      "name": "eggs",
      "outputs": [
        {
          "name": "date",
          "type": "uint256"
        },
        {
          "name": "price",
          "type": "uint256"
        },
        {
          "name": "tokenId",
          "type": "uint256"
        },
        {
          "name": "tokenPrice",
          "type": "uint256"
        },
        {
          "name": "matronId",
          "type": "uint256"
        },
        {
          "name": "sireId",
          "type": "uint256"
        }
      ],
      "payable": false,
      "stateMutability": "view",
      "type": "function"
    },
    {
      "constant": true,
      "inputs": [],
      "name": "addrAdmin",
      "outputs": [
        {
          "name": "",
          "type": "address"
        }
      ],
      "payable": false,
      "stateMutability": "view",
      "type": "function"
    },
    {
      "constant": true,
      "inputs": [
        {
          "name": "",
          "type": "address"
        }
      ],
      "name": "ownershipEggCount",
      "outputs": [
        {
          "name": "",
          "type": "uint256"
        }
      ],
      "payable": false,
      "stateMutability": "view",
      "type": "function"
    },
    {
      "constant": true,
      "inputs": [
        {
          "name": "",
          "type": "uint256"
        }
      ],
      "name": "eggAuctions",
      "outputs": [
        {
          "name": "seller",
          "type": "address"
        },
        {
          "name": "startingPrice",
          "type": "uint256"
        },
        {
          "name": "eggId",
          "type": "uint256"
        }
      ],
      "payable": false,
      "stateMutability": "view",
      "type": "function"
    },
    {
      "constant": false,
      "inputs": [
        {
          "name": "_contractAddress",
          "type": "address"
        }
      ],
      "name": "setMetadataAddress",
      "outputs": [],
      "payable": false,
      "stateMutability": "nonpayable",
      "type": "function"
    },
    {
      "constant": true,
      "inputs": [],
      "name": "trc721Metadata",
      "outputs": [
        {
          "name": "",
          "type": "address"
        }
      ],
      "payable": false,
      "stateMutability": "view",
      "type": "function"
    },
    {
      "constant": true,
      "inputs": [
        {
          "name": "_owner",
          "type": "address"
        }
      ],
      "name": "eggsOfOwner",
      "outputs": [
        {
          "name": "ownerEggs",
          "type": "uint256[]"
        }
      ],
      "payable": false,
      "stateMutability": "view",
      "type": "function"
    },
    {
      "inputs": [],
      "payable": false,
      "stateMutability": "nonpayable",
      "type": "constructor"
    },
    {
      "anonymous": false,
      "inputs": [
        {
          "indexed": false,
          "name": "from",
          "type": "address"
        },
        {
          "indexed": false,
          "name": "to",
          "type": "address"
        },
        {
          "indexed": false,
          "name": "tokenId",
          "type": "uint256"
        }
      ],
      "name": "Transfer",
      "type": "event"
    },
    {
      "anonymous": false,
      "inputs": [
        {
          "indexed": false,
          "name": "owner",
          "type": "address"
        },
        {
          "indexed": false,
          "name": "approved",
          "type": "address"
        },
        {
          "indexed": false,
          "name": "tokenId",
          "type": "uint256"
        }
      ],
      "name": "Approval",
      "type": "event"
    },
    {
      "anonymous": false,
      "inputs": [
        {
          "indexed": false,
          "name": "itmeType",
          "type": "uint256"
        },
        {
          "indexed": false,
          "name": "quantity",
          "type": "uint256"
        }
      ],
      "name": "EggsCreated",
      "type": "event"
    },
    {
      "constant": true,
      "inputs": [],
      "name": "getEggIdsOnSale",
      "outputs": [
        {
          "name": "",
          "type": "uint256[]"
        }
      ],
      "payable": false,
      "stateMutability": "view",
      "type": "function"
    },
    {
      "constant": false,
      "inputs": [
        {
          "name": "_price",
          "type": "uint256"
        },
        {
          "name": "_eggId",
          "type": "uint256"
        }
      ],
      "name": "addAuction",
      "outputs": [],
      "payable": false,
      "stateMutability": "nonpayable",
      "type": "function"
    },
    {
      "constant": true,
      "inputs": [
        {
          "name": "_eggId",
          "type": "uint256"
        }
      ],
      "name": "getEggAuctionByEggId",
      "outputs": [
        {
          "name": "seller",
          "type": "address"
        },
        {
          "name": "price",
          "type": "uint256"
        },
        {
          "name": "eggId",
          "type": "uint256"
        }
      ],
      "payable": false,
      "stateMutability": "view",
      "type": "function"
    },
    {
      "constant": true,
      "inputs": [],
      "name": "getEggAuctionCount",
      "outputs": [
        {
          "name": "",
          "type": "uint256"
        }
      ],
      "payable": false,
      "stateMutability": "view",
      "type": "function"
    },
    {
      "constant": true,
      "inputs": [
        {
          "name": "_auctionId",
          "type": "uint256"
        }
      ],
      "name": "getEggAuction",
      "outputs": [
        {
          "name": "seller",
          "type": "address"
        },
        {
          "name": "price",
          "type": "uint256"
        },
        {
          "name": "eggId",
          "type": "uint256"
        }
      ],
      "payable": false,
      "stateMutability": "view",
      "type": "function"
    },
    {
      "constant": false,
      "inputs": [
        {
          "name": "_eggId",
          "type": "uint256"
        }
      ],
      "name": "bidAuction",
      "outputs": [],
      "payable": true,
      "stateMutability": "payable",
      "type": "function"
    },
    {
      "constant": false,
      "inputs": [
        {
          "name": "_eggId",
          "type": "uint256"
        }
      ],
      "name": "cancelAuction",
      "outputs": [],
      "payable": false,
      "stateMutability": "nonpayable",
      "type": "function"
    }
  ],
  "bytecode": "0x608060405234801561001057600080fd5b50d3801561001d57600080fd5b50d2801561002a57600080fd5b50336000806101000a81548173ffffffffffffffffffffffffffffffffffffffff021916908373ffffffffffffffffffffffffffffffffffffffff1602179055506120698061007a6000396000f30060806040526004361061015f576000357c0100000000000000000000000000000000000000000000000000000000900463ffffffff16806301ffc9a71461016457806306fdde03146101e2578063095ea7b31461028c57806318160ddd146102f35780631d9279ea1461033857806321a4531a146103bf57806323b872dd146104545780632bc9f293146104db5780633768c9941461054c5780636352211e1461059157806364a7d7c71461061857806370a082311461063857806373187d27146106a957806376c0b367146106fa5780638ef30b811461076b57806395d89b41146107f257806396b5a7551461089c578063a9059cbb146108e3578063bb654efa1461094a578063bfae2f0e146109c8578063d0fbb24114610a39578063d26cadc914610abf578063d5350ca314610b30578063d94569b314610bc5578063e17b25af14610c5a578063f15f938814610cb7578063fce2535414610d28575b600080fd5b34801561017057600080fd5b50d3801561017d57600080fd5b50d2801561018a57600080fd5b506101c860048036038101908080357bffffffffffffffffffffffffffffffffffffffffffffffffffffffff19169060200190929190505050610dda565b604051808215151515815260200191505060405180910390f35b3480156101ee57600080fd5b50d380156101fb57600080fd5b50d2801561020857600080fd5b506102116110eb565b6040518080602001828103825283818151815260200191508051906020019080838360005b83811015610251578082015181840152602081019050610236565b50505050905090810190601f16801561027e5780820380516001836020036101000a031916815260200191505b509250505060405180910390f35b34801561029857600080fd5b50d380156102a557600080fd5b50d280156102b257600080fd5b506102f1600480360381019080803573ffffffffffffffffffffffffffffffffffffffff16906020019092919080359060200190929190505050611124565b005b3480156102ff57600080fd5b50d3801561030c57600080fd5b50d2801561031957600080fd5b506103226111e6565b6040518082815260200191505060405180910390f35b34801561034457600080fd5b50d3801561035157600080fd5b50d2801561035e57600080fd5b5061037d600480360381019080803590602001909291905050506111f5565b604051808273ffffffffffffffffffffffffffffffffffffffff1673ffffffffffffffffffffffffffffffffffffffff16815260200191505060405180910390f35b3480156103cb57600080fd5b50d380156103d857600080fd5b50d280156103e557600080fd5b5061040460048036038101908080359060200190929190505050611228565b604051808473ffffffffffffffffffffffffffffffffffffffff1673ffffffffffffffffffffffffffffffffffffffff168152602001838152602001828152602001935050505060405180910390f35b34801561046057600080fd5b50d3801561046d57600080fd5b50d2801561047a57600080fd5b506104d9600480360381019080803573ffffffffffffffffffffffffffffffffffffffff169060200190929190803573ffffffffffffffffffffffffffffffffffffffff169060200190929190803590602001909291905050506112dd565b005b3480156104e757600080fd5b50d380156104f457600080fd5b50d2801561050157600080fd5b5061050a61138e565b604051808273ffffffffffffffffffffffffffffffffffffffff1673ffffffffffffffffffffffffffffffffffffffff16815260200191505060405180910390f35b34801561055857600080fd5b50d3801561056557600080fd5b50d2801561057257600080fd5b5061057b6113b4565b6040518082815260200191505060405180910390f35b34801561059d57600080fd5b50d380156105aa57600080fd5b50d280156105b757600080fd5b506105d6600480360381019080803590602001909291905050506113c1565b604051808273ffffffffffffffffffffffffffffffffffffffff1673ffffffffffffffffffffffffffffffffffffffff16815260200191505060405180910390f35b6106366004803603810190808035906020019092919050505061143a565b005b34801561064457600080fd5b50d3801561065157600080fd5b50d2801561065e57600080fd5b50610693600480360381019080803573ffffffffffffffffffffffffffffffffffffffff16906020019092919050505061156d565b6040518082815260200191505060405180910390f35b3480156106b557600080fd5b50d380156106c257600080fd5b50d280156106cf57600080fd5b506106f860048036038101908080359060200190929190803590602001909291905050506115b6565b005b34801561070657600080fd5b50d3801561071357600080fd5b50d2801561072057600080fd5b50610729611698565b604051808273ffffffffffffffffffffffffffffffffffffffff1673ffffffffffffffffffffffffffffffffffffffff16815260200191505060405180910390f35b34801561077757600080fd5b50d3801561078457600080fd5b50d2801561079157600080fd5b506107b0600480360381019080803590602001909291905050506116be565b604051808273ffffffffffffffffffffffffffffffffffffffff1673ffffffffffffffffffffffffffffffffffffffff16815260200191505060405180910390f35b3480156107fe57600080fd5b50d3801561080b57600080fd5b50d2801561081857600080fd5b506108216116f1565b6040518080602001828103825283818151815260200191508051906020019080838360005b83811015610861578082015181840152602081019050610846565b50505050905090810190601f16801561088e5780820380516001836020036101000a031916815260200191505b509250505060405180910390f35b3480156108a857600080fd5b50d380156108b557600080fd5b50d280156108c257600080fd5b506108e16004803603810190808035906020019092919050505061172a565b005b3480156108ef57600080fd5b50d380156108fc57600080fd5b50d2801561090957600080fd5b50610948600480360381019080803573ffffffffffffffffffffffffffffffffffffffff16906020019092919080359060200190929190505050611828565b005b34801561095657600080fd5b50d3801561096357600080fd5b50d2801561097057600080fd5b5061098f600480360381019080803590602001909291905050506118c3565b60405180878152602001868152602001858152602001848152602001838152602001828152602001965050505050505060405180910390f35b3480156109d457600080fd5b50d380156109e157600080fd5b50d280156109ee57600080fd5b506109f761190e565b604051808273ffffffffffffffffffffffffffffffffffffffff1673ffffffffffffffffffffffffffffffffffffffff16815260200191505060405180910390f35b348015610a4557600080fd5b50d38015610a5257600080fd5b50d28015610a5f57600080fd5b50610a68611933565b6040518080602001828103825283818151815260200191508051906020019060200280838360005b83811015610aab578082015181840152602081019050610a90565b505050509050019250505060405180910390f35b348015610acb57600080fd5b50d38015610ad857600080fd5b50d28015610ae557600080fd5b50610b1a600480360381019080803573ffffffffffffffffffffffffffffffffffffffff169060200190929190505050611943565b6040518082815260200191505060405180910390f35b348015610b3c57600080fd5b50d38015610b4957600080fd5b50d28015610b5657600080fd5b50610b756004803603810190808035906020019092919050505061195b565b604051808473ffffffffffffffffffffffffffffffffffffffff1673ffffffffffffffffffffffffffffffffffffffff168152602001838152602001828152602001935050505060405180910390f35b348015610bd157600080fd5b50d38015610bde57600080fd5b50d28015610beb57600080fd5b50610c0a60048036038101908080359060200190929190505050611a1a565b604051808473ffffffffffffffffffffffffffffffffffffffff1673ffffffffffffffffffffffffffffffffffffffff168152602001838152602001828152602001935050505060405180910390f35b348015610c6657600080fd5b50d38015610c7357600080fd5b50d28015610c8057600080fd5b50610cb5600480360381019080803573ffffffffffffffffffffffffffffffffffffffff169060200190929190505050611a73565b005b348015610cc357600080fd5b50d38015610cd057600080fd5b50d28015610cdd57600080fd5b50610ce6611b12565b604051808273ffffffffffffffffffffffffffffffffffffffff1673ffffffffffffffffffffffffffffffffffffffff16815260200191505060405180910390f35b348015610d3457600080fd5b50d38015610d4157600080fd5b50d28015610d4e57600080fd5b50610d83600480360381019080803573ffffffffffffffffffffffffffffffffffffffff169060200190929190505050611b38565b6040518080602001828103825283818151815260200191508051906020019060200280838360005b83811015610dc6578082015181840152602081019050610dab565b505050509050019250505060405180910390f35b600060405180807f737570706f727473496e74657266616365286279746573342900000000000000815250601901905060405180910390207bffffffffffffffffffffffffffffffffffffffffffffffffffffffff1916827bffffffffffffffffffffffffffffffffffffffffffffffffffffffff191614806110e4575060405180807f746f6b656e4d657461646174612875696e743235362c737472696e6729000000815250601d019050604051809103902060405180807f656767734f664f776e65722861646472657373290000000000000000000000008152506014019050604051809103902060405180807f7472616e7366657246726f6d28616464726573732c616464726573732c75696e81526020017f74323536290000000000000000000000000000000000000000000000000000008152506025019050604051809103902060405180807f7472616e7366657228616464726573732c75696e7432353629000000000000008152506019019050604051809103902060405180807f617070726f766528616464726573732c75696e743235362900000000000000008152506018019050604051809103902060405180807f6f776e65724f662875696e7432353629000000000000000000000000000000008152506010019050604051809103902060405180807f62616c616e63654f6628616464726573732900000000000000000000000000008152506012019050604051809103902060405180807f746f74616c537570706c79282900000000000000000000000000000000000000815250600d019050604051809103902060405180807f73796d626f6c28290000000000000000000000000000000000000000000000008152506008019050604051809103902060405180807f6e616d6528290000000000000000000000000000000000000000000000000000815250600601905060405180910390201818181818181818187bffffffffffffffffffffffffffffffffffffffffffffffffffffffff1916827bffffffffffffffffffffffffffffffffffffffffffffffffffffffff1916145b9050919050565b6040805190810160405280600681526020017f505a65676773000000000000000000000000000000000000000000000000000081525081565b61112e3382611c85565b151561113957600080fd5b6111438183611cf1565b7f8c5be1e5ebec7d5bd14f71427d1e84f3dd0314c0f7b2291e5b200ac8c7c3b925338383604051808473ffffffffffffffffffffffffffffffffffffffff1673ffffffffffffffffffffffffffffffffffffffff1681526020018373ffffffffffffffffffffffffffffffffffffffff1673ffffffffffffffffffffffffffffffffffffffff168152602001828152602001935050505060405180910390a15050565b60006001808054905003905090565b60046020528060005260406000206000915054906101000a900473ffffffffffffffffffffffffffffffffffffffff1681565b6000806000611235612005565b60086000868152602001908152602001600020606060405190810160405290816000820160009054906101000a900473ffffffffffffffffffffffffffffffffffffffff1673ffffffffffffffffffffffffffffffffffffffff1673ffffffffffffffffffffffffffffffffffffffff168152602001600182015481526020016002820154815250509050806000015181602001518260400151935093509350509193909250565b600073ffffffffffffffffffffffffffffffffffffffff168273ffffffffffffffffffffffffffffffffffffffff161415151561131957600080fd5b3073ffffffffffffffffffffffffffffffffffffffff168273ffffffffffffffffffffffffffffffffffffffff161415151561135457600080fd5b61135e3382611d47565b151561136957600080fd5b6113738382611c85565b151561137e57600080fd5b611389838383611db3565b505050565b600360009054906101000a900473ffffffffffffffffffffffffffffffffffffffff1681565b6000600980549050905090565b60006004600083815260200190815260200160002060009054906101000a900473ffffffffffffffffffffffffffffffffffffffff169050600073ffffffffffffffffffffffffffffffffffffffff168173ffffffffffffffffffffffffffffffffffffffff161415151561143557600080fd5b919050565b611442612005565b61144c3083611c85565b151561145757600080fd5b60086000838152602001908152602001600020606060405190810160405290816000820160009054906101000a900473ffffffffffffffffffffffffffffffffffffffff1673ffffffffffffffffffffffffffffffffffffffff1673ffffffffffffffffffffffffffffffffffffffff1681526020016001820154815260200160028201548152505090506114ec3383611c85565b1515156114f857600080fd5b34816020015114151561150a57600080fd5b61151382611fb5565b61151e303384611db3565b806000015173ffffffffffffffffffffffffffffffffffffffff166108fc349081150290604051600060405180830381858888f19350505050158015611568573d6000803e3d6000fd5b505050565b6000600560008373ffffffffffffffffffffffffffffffffffffffff1673ffffffffffffffffffffffffffffffffffffffff168152602001908152602001600020549050919050565b6115be612005565b6000831115156115cd57600080fd5b6115d73383611c85565b15156115e257600080fd5b6060604051908101604052803373ffffffffffffffffffffffffffffffffffffffff168152602001848152602001838152509050611621333084611db3565b806008600084815260200190815260200160002060008201518160000160006101000a81548173ffffffffffffffffffffffffffffffffffffffff021916908373ffffffffffffffffffffffffffffffffffffffff1602179055506020820151816001015560408201518160020155905050505050565b600260009054906101000a900473ffffffffffffffffffffffffffffffffffffffff1681565b60066020528060005260406000206000915054906101000a900473ffffffffffffffffffffffffffffffffffffffff1681565b6040805190810160405280600281526020017f504500000000000000000000000000000000000000000000000000000000000081525081565b611732612005565b61173c3083611c85565b151561174757600080fd5b60086000838152602001908152602001600020606060405190810160405290816000820160009054906101000a900473ffffffffffffffffffffffffffffffffffffffff1673ffffffffffffffffffffffffffffffffffffffff1673ffffffffffffffffffffffffffffffffffffffff168152602001600182015481526020016002820154815250509050806000015173ffffffffffffffffffffffffffffffffffffffff163373ffffffffffffffffffffffffffffffffffffffff1614151561181057600080fd5b61181982611fb5565b611824303384611db3565b5050565b600073ffffffffffffffffffffffffffffffffffffffff168273ffffffffffffffffffffffffffffffffffffffff161415151561186457600080fd5b3073ffffffffffffffffffffffffffffffffffffffff168273ffffffffffffffffffffffffffffffffffffffff161415151561189f57600080fd5b6118a93382611c85565b15156118b457600080fd5b6118bf338383611db3565b5050565b6001818154811015156118d257fe5b90600052602060002090600602016000915090508060000154908060010154908060020154908060030154908060040154908060050154905086565b6000809054906101000a900473ffffffffffffffffffffffffffffffffffffffff1681565b606061193e30611b38565b905090565b60056020528060005260406000206000915090505481565b6000806000611968612005565b60098581548110151561197757fe5b9060005260206000209060030201606060405190810160405290816000820160009054906101000a900473ffffffffffffffffffffffffffffffffffffffff1673ffffffffffffffffffffffffffffffffffffffff1673ffffffffffffffffffffffffffffffffffffffff168152602001600182015481526020016002820154815250509050806000015181602001518260400151935093509350509193909250565b600981815481101515611a2957fe5b90600052602060002090600302016000915090508060000160009054906101000a900473ffffffffffffffffffffffffffffffffffffffff16908060010154908060020154905083565b6000809054906101000a900473ffffffffffffffffffffffffffffffffffffffff1673ffffffffffffffffffffffffffffffffffffffff163373ffffffffffffffffffffffffffffffffffffffff16141515611ace57600080fd5b80600760006101000a81548173ffffffffffffffffffffffffffffffffffffffff021916908373ffffffffffffffffffffffffffffffffffffffff16021790555050565b600760009054906101000a900473ffffffffffffffffffffffffffffffffffffffff1681565b6060600060606000806000611b4c8761156d565b94506000851415611b8f576000604051908082528060200260200182016040528015611b875781602001602082028038833980820191505090505b509550611c7b565b84604051908082528060200260200182016040528015611bbe5781602001602082028038833980820191505090505b509350611bc96111e6565b925060009150600190505b8281111515611c77578673ffffffffffffffffffffffffffffffffffffffff166004600083815260200190815260200160002060009054906101000a900473ffffffffffffffffffffffffffffffffffffffff1673ffffffffffffffffffffffffffffffffffffffff161415611c6a57808483815181101515611c5357fe5b906020019060200201818152505081806001019250505b8080600101915050611bd4565b8395505b5050505050919050565b60008273ffffffffffffffffffffffffffffffffffffffff166004600084815260200190815260200160002060009054906101000a900473ffffffffffffffffffffffffffffffffffffffff1673ffffffffffffffffffffffffffffffffffffffff1614905092915050565b806006600084815260200190815260200160002060006101000a81548173ffffffffffffffffffffffffffffffffffffffff021916908373ffffffffffffffffffffffffffffffffffffffff1602179055505050565b60008273ffffffffffffffffffffffffffffffffffffffff166006600084815260200190815260200160002060009054906101000a900473ffffffffffffffffffffffffffffffffffffffff1673ffffffffffffffffffffffffffffffffffffffff1614905092915050565b600560008373ffffffffffffffffffffffffffffffffffffffff1673ffffffffffffffffffffffffffffffffffffffff16815260200190815260200160002060008154809291906001019190505550816004600083815260200190815260200160002060006101000a81548173ffffffffffffffffffffffffffffffffffffffff021916908373ffffffffffffffffffffffffffffffffffffffff160217905550600073ffffffffffffffffffffffffffffffffffffffff168373ffffffffffffffffffffffffffffffffffffffff16141515611f1157600560008473ffffffffffffffffffffffffffffffffffffffff1673ffffffffffffffffffffffffffffffffffffffff16815260200190815260200160002060008154809291906001900391905055506006600082815260200190815260200160002060006101000a81549073ffffffffffffffffffffffffffffffffffffffff02191690555b7fddf252ad1be2c89b69c2b068fc378daa952ba7f163c4a11628f55a4df523b3ef838383604051808473ffffffffffffffffffffffffffffffffffffffff1673ffffffffffffffffffffffffffffffffffffffff1681526020018373ffffffffffffffffffffffffffffffffffffffff1673ffffffffffffffffffffffffffffffffffffffff168152602001828152602001935050505060405180910390a1505050565b60086000828152602001908152602001600020600080820160006101000a81549073ffffffffffffffffffffffffffffffffffffffff021916905560018201600090556002820160009055505050565b606060405190810160405280600073ffffffffffffffffffffffffffffffffffffffff168152602001600081526020016000815250905600a165627a7a72305820d9a698018f69807dbd40b8e977fa23835a5ab1b39676ef20103a38c8073ac0090029",
  "source": "pragma solidity ^0.4.25;\n\nimport \"./PZEggOwnership.sol\";\n\ncontract PZEggMarketplace is PZEggOwnership\n{\n    struct EggAuction {\n        address seller;\n        uint256 startingPrice;\n        uint256 eggId;\n        // uint256 endingPrice;\n        // uint64  duration;\n        // uint64  startedAt;\n    }\n\n    mapping (uint256 => EggAuction) eggIdToAuction;\n    EggAuction[] public       eggAuctions;\n\n    /**\n    * Constructor\n    *\n     */\n    constructor() public\n    {\n\n    }\n\n    /**\n    * Get Ids of Eggs on the Marketplace Sale\n    *\n    * @return eggsOfOwner               Eggs of Owner\n    *\n     */\n    function getEggIdsOnSale() external view returns(uint256[])\n    {\n        return eggsOfOwner(this);\n    }\n\n    /**\n    * Place an Egg to Aunction on marketplace\n    *\n    * @param _price                 Price to Sell\n    * @param _eggId                 Egg Id\n    *\n     */\n    function addAuction(uint _price, uint _eggId) external\n    {\n        require(_price > 0);\n        require(_owns(msg.sender, _eggId));\n\n        EggAuction memory _auction = EggAuction(msg.sender, _price, _eggId);\n\n        _transfer(msg.sender, this, _eggId);\n        eggIdToAuction[_eggId] = _auction;\n    }\n\n    /**\n    * Get Information of Auction By Egg ID\n    *\n    * @param _eggId                 Egg Id\n    *\n    * @return seller                Seller's Address\n    * @return price                 Price\n    * @return eggId                 Egg Id\n    *\n     */\n    function getEggAuctionByEggId(uint256 _eggId) external view returns(address seller, uint256 price, uint256 eggId)\n    {\n        EggAuction memory _auction = eggIdToAuction[_eggId];\n        return(_auction.seller, _auction.startingPrice, _auction.eggId);\n    }\n\n    /**\n    * Get Count of Auction Sale\n    *\n    * @return count                Count of Auction Sale\n    *\n     */\n    function getEggAuctionCount() external view returns(uint256)\n    {\n        return eggAuctions.length;\n    }\n\n    /**\n    * Get Information of Auction By Auction ID\n    *\n    * @param _auctionId             Auction Id\n    *\n    * @return seller                Seller's Address\n    * @return price                 Price\n    * @return eggId                 Egg Id\n    *\n     */\n    function getEggAuction(uint256 _auctionId) external view returns(address seller, uint256 price, uint256 eggId)\n    {\n        EggAuction memory _auction = eggAuctions[_auctionId];\n        return(_auction.seller, _auction.startingPrice, _auction.eggId);\n    }\n\n    /**\n    * Remove Auction By Egg ID\n    *\n    * @param _eggId                 Egg ID\n    *\n     */\n    function _removeAuction(uint256 _eggId) internal {\n        delete eggIdToAuction[_eggId];\n    }\n\n    /**\n    * Bid on Auction Sale\n    *\n    * @param _eggId                 Egg ID\n    *\n     */\n    function bidAuction(uint256 _eggId) external payable\n    {\n        require(_owns(address(this), _eggId));\n        EggAuction memory _auction = eggIdToAuction[_eggId];\n        require(!_owns(msg.sender, _eggId));\n        require(_auction.startingPrice == msg.value);\n\n        _removeAuction(_eggId);\n        _transfer(this, msg.sender, _eggId);\n        _auction.seller.transfer(msg.value);\n    }\n\n    /**\n    * Cancel Auction By Egg ID\n    *\n    * @param _eggId                 Egg ID\n    *\n     */\n    function cancelAuction(uint256 _eggId) external\n    {\n        require(_owns(address(this), _eggId));\n        EggAuction memory _auction = eggIdToAuction[_eggId];\n        require(msg.sender == _auction.seller);\n\n        _removeAuction(_eggId);\n        _transfer(this, msg.sender, _eggId);\n    }\n}",
  "sourcePath": "/Volumes/Backup/workspace/Dave(Tron_NFT)/pizzaHero/contracts/PZEggMarketplace.sol",
  "compiler": {
    "name": "solc",
    "version": "0.4.25+commit.69a1e720.Emscripten.clang"
  },
  "schemaVersion": "2.0.1",
  "updatedAt": "2020-01-15T17:21:03.458Z"
}