{
  "contractName": "PZGeneScience",
  "abi": [
    {
      "constant": true,
      "inputs": [],
      "name": "isGeneScience",
      "outputs": [
        {
          "name": "",
          "type": "bool"
        }
      ],
      "payable": false,
      "stateMutability": "view",
      "type": "function"
    },
    {
      "inputs": [],
      "payable": false,
      "stateMutability": "nonpayable",
      "type": "constructor"
    },
    {
      "constant": true,
      "inputs": [
        {
          "name": "_genes",
          "type": "uint256"
        }
      ],
      "name": "decode",
      "outputs": [
        {
          "name": "",
          "type": "uint8[]"
        }
      ],
      "payable": false,
      "stateMutability": "pure",
      "type": "function"
    },
    {
      "constant": true,
      "inputs": [
        {
          "name": "_traits",
          "type": "uint8[]"
        }
      ],
      "name": "encode",
      "outputs": [
        {
          "name": "_genes",
          "type": "uint256"
        }
      ],
      "payable": false,
      "stateMutability": "pure",
      "type": "function"
    },
    {
      "constant": true,
      "inputs": [
        {
          "name": "_genes",
          "type": "uint256"
        }
      ],
      "name": "expressingTraits",
      "outputs": [
        {
          "name": "",
          "type": "uint8[14]"
        }
      ],
      "payable": false,
      "stateMutability": "pure",
      "type": "function"
    },
    {
      "constant": true,
      "inputs": [],
      "name": "generateGene0",
      "outputs": [
        {
          "name": "",
          "type": "uint256"
        }
      ],
      "payable": false,
      "stateMutability": "view",
      "type": "function"
    },
    {
      "constant": true,
      "inputs": [],
      "name": "generateTraits",
      "outputs": [
        {
          "name": "",
          "type": "uint8[]"
        }
      ],
      "payable": false,
      "stateMutability": "view",
      "type": "function"
    },
    {
      "constant": true,
      "inputs": [
        {
          "name": "_genes1",
          "type": "uint256"
        },
        {
          "name": "_genes2",
          "type": "uint256"
        },
        {
          "name": "_targetBlock",
          "type": "uint256"
        }
      ],
      "name": "mixGenes",
      "outputs": [
        {
          "name": "",
          "type": "uint256"
        }
      ],
      "payable": false,
      "stateMutability": "view",
      "type": "function"
    },
    {
      "constant": true,
      "inputs": [],
      "name": "geneTest",
      "outputs": [
        {
          "name": "",
          "type": "string"
        }
      ],
      "payable": false,
      "stateMutability": "pure",
      "type": "function"
    }
  ],
  "bytecode": "0x608060405260016000806101000a81548160ff02191690831515021790555034801561002a57600080fd5b50d3801561003757600080fd5b50d2801561004457600080fd5b5060016002908060018154018082558091505090600182039060005260206000209060209182820401919006909192909190916101000a81548160ff021916908360ff1602179055505060016004908060018154018082558091505090600182039060005260206000209060209182820401919006909192909190916101000a81548160ff021916908360ff1602179055505060016006908060018154018082558091505090600182039060005260206000209060209182820401919006909192909190916101000a81548160ff021916908360ff1602179055505060016006908060018154018082558091505090600182039060005260206000209060209182820401919006909192909190916101000a81548160ff021916908360ff1602179055505060016004908060018154018082558091505090600182039060005260206000209060209182820401919006909192909190916101000a81548160ff021916908360ff1602179055505060016004908060018154018082558091505090600182039060005260206000209060209182820401919006909192909190916101000a81548160ff021916908360ff1602179055505060016004908060018154018082558091505090600182039060005260206000209060209182820401919006909192909190916101000a81548160ff021916908360ff16021790555050600180908060018154018082558091505090600182039060005260206000209060209182820401919006909192909190916101000a81548160ff021916908360ff16021790555050600180908060018154018082558091505090600182039060005260206000209060209182820401919006909192909190916101000a81548160ff021916908360ff1602179055505060016008908060018154018082558091505090600182039060005260206000209060209182820401919006909192909190916101000a81548160ff021916908360ff1602179055505060016006908060018154018082558091505090600182039060005260206000209060209182820401919006909192909190916101000a81548160ff021916908360ff1602179055505060016008908060018154018082558091505090600182039060005260206000209060209182820401919006909192909190916101000a81548160ff021916908360ff1602179055505060016006908060018154018082558091505090600182039060005260206000209060209182820401919006909192909190916101000a81548160ff021916908360ff1602179055505060016008908060018154018082558091505090600182039060005260206000209060209182820401919006909192909190916101000a81548160ff021916908360ff16021790555050600280908060018154018082558091505090600182039060005260206000209060209182820401919006909192909190916101000a81548160ff021916908360ff1602179055505060026006908060018154018082558091505090600182039060005260206000209060209182820401919006909192909190916101000a81548160ff021916908360ff1602179055505060026009908060018154018082558091505090600182039060005260206000209060209182820401919006909192909190916101000a81548160ff021916908360ff1602179055505060026009908060018154018082558091505090600182039060005260206000209060209182820401919006909192909190916101000a81548160ff021916908360ff1602179055505060026006908060018154018082558091505090600182039060005260206000209060209182820401919006909192909190916101000a81548160ff021916908360ff1602179055505060026006908060018154018082558091505090600182039060005260206000209060209182820401919006909192909190916101000a81548160ff021916908360ff1602179055505060026006908060018154018082558091505090600182039060005260206000209060209182820401919006909192909190916101000a81548160ff021916908360ff1602179055505060026001908060018154018082558091505090600182039060005260206000209060209182820401919006909192909190916101000a81548160ff021916908360ff1602179055505060026001908060018154018082558091505090600182039060005260206000209060209182820401919006909192909190916101000a81548160ff021916908360ff160217905550506002600c908060018154018082558091505090600182039060005260206000209060209182820401919006909192909190916101000a81548160ff021916908360ff1602179055505060026009908060018154018082558091505090600182039060005260206000209060209182820401919006909192909190916101000a81548160ff021916908360ff160217905550506002600c908060018154018082558091505090600182039060005260206000209060209182820401919006909192909190916101000a81548160ff021916908360ff1602179055505060026009908060018154018082558091505090600182039060005260206000209060209182820401919006909192909190916101000a81548160ff021916908360ff160217905550506002600c908060018154018082558091505090600182039060005260206000209060209182820401919006909192909190916101000a81548160ff021916908360ff16021790555050610d198061084d6000396000f3fe608060405234801561001057600080fd5b50d3801561001d57600080fd5b50d2801561002a57600080fd5b50600436106100bf576000357c01000000000000000000000000000000000000000000000000000000009004806354c15b821161009257806354c15b82146102c85780635ddef9dd146102ea57806361a769001461030857806377a74a201461038b576100bf565b80630b6c8f6b146100c45780630d9f5aed146101235780631597ee441461017957806338dc1a1c14610245575b600080fd5b6100cc6103f5565b6040518080602001828103825283818151815260200191508051906020019060200280838360005b8381101561010f5780820151818401526020810190506100f4565b505050509050019250505060405180910390f35b6101636004803603606081101561013957600080fd5b81019080803590602001909291908035906020019092919080359060200190929190505050610537565b6040518082815260200191505060405180910390f35b61022f6004803603602081101561018f57600080fd5b81019080803590602001906401000000008111156101ac57600080fd5b8201836020820111156101be57600080fd5b803590602001918460208302840111640100000000831117156101e057600080fd5b919080806020026020016040519081016040528093929190818152602001838360200280828437600081840152601f19601f820116905080830192505050505050509192919290505050610979565b6040518082815260200191505060405180910390f35b61024d6109de565b6040518080602001828103825283818151815260200191508051906020019080838360005b8381101561028d578082015181840152602081019050610272565b50505050905090810190601f1680156102ba5780820380516001836020036101000a031916815260200191505b509250505060405180910390f35b6102d0610a1b565b604051808215151515815260200191505060405180910390f35b6102f2610a2d565b6040518082815260200191505060405180910390f35b6103346004803603602081101561031e57600080fd5b8101908080359060200190929190505050610a83565b6040518080602001828103825283818151815260200191508051906020019060200280838360005b8381101561037757808201518184015260208101905061035c565b505050509050019250505060405180910390f35b6103b7600480360360208110156103a157600080fd5b8101908080359060200190929190505050610b19565b6040518082600e60200280838360005b838110156103e25780820151818401526020810190506103c7565b5050505090500191505060405180910390f35b6060806004600e0260ff1660405190808252806020026020018201604052801561042e5781602001602082028038833980820191505090505b5090506000809050424460405160200180838152602001828152602001925050506040516020818303038152906040528051906020012060019004905061047481610a83565b915060008090505b6004600e0260ff168160ff16101561052e57600160048260ff1681151561049f57fe5b0460ff168154811015156104af57fe5b90600052602060002090602091828204019190069054906101000a900460ff1660ff16838260ff168151811015156104e357fe5b9060200190602002015160ff168115156104f957fe5b06838260ff1681518110151561050b57fe5b9060200190602002019060ff16908160ff1681525050808060010191505061047c565b50819250505090565b6000808240600190049050600081141561058f5760ff83167fffffffffffffffffffffffffffffffffffffffffffffffffffffffffffffff004316019250438310151561058657610100830392505b82406001900490505b808585856040516020018085815260200184815260200183815260200182815260200194505050505060405160208183030381529060405280519060200120600190049050600080905060606105e487610a83565b905060606105f187610a83565b905060606004600e0260ff1660405190808252806020026020018201604052801561062b5781602001602082028038833980820191505090505b50905060008060008090505b600e60ff168110156107b857600080600391505b6001821015156107a95781600484020194506106698a60028b610b7e565b905060028901985060008114156106fc57878581518110151561068857fe5b90602001906020020151935087600186038151811015156106a557fe5b9060200190602002015188868151811015156106bd57fe5b9060200190602002019060ff16908160ff16815250508388600187038151811015156106e557fe5b9060200190602002019060ff16908160ff16815250505b6107088a60028b610b7e565b9050600289019850600081141561079b57868581518110151561072757fe5b906020019060200201519350866001860381518110151561074457fe5b90602001906020020151878681518110151561075c57fe5b9060200190602002019060ff16908160ff168152505083876001870381518110151561078457fe5b9060200190602002019060ff16908160ff16815250505b81806001900392505061064b565b50508080600101915050610637565b50600091505b6004600e0260ff168210156109605760008090506000806004858115156107e157fe5b061480156108295750600186858151811015156107fa57fe5b906020019060200201511660ff166001888681518110151561081857fe5b906020019060200201511660ff1614155b1561087f5761083a8960038a610b7e565b905060038801975061087c84888681518110151561085457fe5b90602001906020020151888781518110151561086c57fe5b9060200190602002015184610ba8565b91505b60008260ff1611156108b55781858581518110151561089a57fe5b9060200190602002019060ff16908160ff1681525050610951565b6108c18960018a610b7e565b905060018801975060008114156109135786848151811015156108e057fe5b9060200190602002015185858151811015156108f857fe5b9060200190602002019060ff16908160ff1681525050610950565b858481518110151561092157fe5b90602001906020020151858581518110151561093957fe5b9060200190602002019060ff16908160ff16815250505b5b505081806001019250506107be565b61096983610979565b9750505050505050509392505050565b600080905060008090505b6004600e0260ff168110156109d5576005829060020a029150828160016004600e020360ff16038151811015156109b757fe5b9060200190602002015160ff16821791508080600101915050610984565b50809050919050565b60606040805190810160405280600981526020017f47656e6520546573740000000000000000000000000000000000000000000000815250905090565b6000809054906101000a900460ff1681565b600060606004600e0260ff16604051908082528060200260200182016040528015610a675781602001602082028038833980820191505090505b509050610a726103f5565b9050610a7d81610979565b91505090565b6060806004600e0260ff16604051908082528060200260200182016040528015610abc5781602001602082028038833980820191505090505b50905060008090505b6004600e0260ff16811015610b0f57610ade8482610cb1565b8282815181101515610aec57fe5b9060200190602002019060ff16908160ff16815250508080600101915050610ac5565b8192505050919050565b610b21610cc9565b610b29610cc9565b60008090505b600e60ff16811015610b7457610b488460048302610cb1565b8282600e81101515610b5657fe5b602002019060ff16908160ff16815250508080600101915050610b2f565b5080915050919050565b6000808260018560020a039060020a02905082818616908060020a82049150509150509392505050565b6000809050600084905060008490506000600488811515610bc557fe5b0490508160ff168360ff161115610bdd578691508592505b600183830360ff16148015610c045750600060028460ff16811515610bfe57fe5b0660ff16145b15610ca3576000600282815481101515610c1a57fe5b90600052602060002090602091828204019190069054906101000a900460ff1660ff168460ff161015610c505760019050610c55565b600090505b8086111515610ca157600182815481101515610c6d57fe5b90600052602060002090602091828204019190069054906101000a900460ff1660028560ff16811515610c9c57fe5b040194505b505b839350505050949350505050565b6000610cc1836005808502610b7e565b905092915050565b6101c060405190810160405280600e9060208202803883398082019150509050509056fea165627a7a72305820dac29d221344a5a3c153d4a60e633f1e87882fc42580308f0f6319fbafa6b3110029",
  "source": "pragma solidity ^0.5.0;\n\ncontract PZGeneScience {\n    bool public isGeneScience = true;\n\n    uint256 internal constant maskLast8Bits = uint256(0xff);\n    uint256 internal constant maskFirst248Bits = uint256(~0xff);\n\n    uint8 internal constant TRAIT_COUNT = 14;\n\n    uint8 internal constant BASETRAIT_GENDER_COUNT = 2;\n    uint8 internal constant BASETRAIT_BODY_COUNT = 4;\n    uint8 internal constant BASETRAIT_EYE_COUNT = 6;\n    uint8 internal constant BASETRAIT_MOUTH_COUNT = 6;\n    uint8 internal constant BASETRAIT_EAR_COUNT = 4;\n    uint8 internal constant BASETRAIT_TAIL_COUNT = 4;\n    uint8 internal constant BASETRAIT_PATTERN_COUNT = 4;  \n    uint8 internal constant BASETRAIT_UNUSED1_COUNT = 1;\n    uint8 internal constant BASETRAIT_UNUSED2_COUNT = 1;\n    uint8 internal constant BASETRAIT_PRIMARYCOLOR_COUNT = 8;\n    uint8 internal constant BASETRAIT_ACCENTCOLOR_COUNT = 6;\n    uint8 internal constant BASETRAIT_PATTERNCOLOR_COUNT = 8;\n    uint8 internal constant BASETRAIT_HAIRCOLOR_COUNT = 6;\n    uint8 internal constant BASETRAIT_EYECOLOR_COUNT = 8;\n    \n    \n    uint8 internal constant RAIT_GENDER_COUNT = 2;\n    uint8 internal constant TRAIT_BODY_COUNT = 6;\n    uint8 internal constant TRAIT_EYE_COUNT = 9;\n    uint8 internal constant TRAIT_MOUTH_COUNT = 9;\n    uint8 internal constant TRAIT_EAR_COUNT = 6;\n    uint8 internal constant TRAIT_TAIL_COUNT = 6;\n    uint8 internal constant TRAIT_PATTERN_COUNT = 6;\n    uint8 internal constant TRAIT_UNUSED1_COUNT = 1;\n    uint8 internal constant TRAIT_UNUSED2_COUNT = 1;\n    uint8 internal constant TRAIT_PRIMARYCOLOR_COUNT = 12;\n    uint8 internal constant TRAIT_ACCENTCOLOR_COUNT = 9;\n    uint8 internal constant TRAIT_PATTERNCOLOR_COUNT = 12;\n    uint8 internal constant TRAIT_HAIRCOLOR_COUNT = 9;\n    uint8 internal constant TRAIT_EYECOLOR_COUNT = 12;\n\n    uint8[] internal baseTraitCount;\n    uint8[] internal traitCount;\n\n    constructor() public {\n        baseTraitCount.push(BASETRAIT_GENDER_COUNT);\n        baseTraitCount.push(BASETRAIT_BODY_COUNT);\n        baseTraitCount.push(BASETRAIT_EYE_COUNT);\n        baseTraitCount.push(BASETRAIT_MOUTH_COUNT);\n        baseTraitCount.push(BASETRAIT_EAR_COUNT);\n        baseTraitCount.push(BASETRAIT_TAIL_COUNT);\n        baseTraitCount.push(BASETRAIT_PATTERN_COUNT);\n        baseTraitCount.push(BASETRAIT_UNUSED1_COUNT);\n        baseTraitCount.push(BASETRAIT_UNUSED2_COUNT);\n        baseTraitCount.push(BASETRAIT_PRIMARYCOLOR_COUNT);\n        baseTraitCount.push(BASETRAIT_ACCENTCOLOR_COUNT);\n        baseTraitCount.push(BASETRAIT_PATTERNCOLOR_COUNT);\n        baseTraitCount.push(BASETRAIT_HAIRCOLOR_COUNT);\n        baseTraitCount.push(BASETRAIT_EYECOLOR_COUNT);\n\n        traitCount.push(RAIT_GENDER_COUNT);\n        traitCount.push(TRAIT_BODY_COUNT);\n        traitCount.push(TRAIT_EYE_COUNT);\n        traitCount.push(TRAIT_MOUTH_COUNT);\n        traitCount.push(TRAIT_EAR_COUNT);\n        traitCount.push(TRAIT_TAIL_COUNT);\n        traitCount.push(TRAIT_PATTERN_COUNT);\n        traitCount.push(TRAIT_UNUSED1_COUNT);\n        traitCount.push(TRAIT_UNUSED2_COUNT);\n        traitCount.push(TRAIT_PRIMARYCOLOR_COUNT);\n        traitCount.push(TRAIT_ACCENTCOLOR_COUNT);\n        traitCount.push(TRAIT_PATTERNCOLOR_COUNT);\n        traitCount.push(TRAIT_HAIRCOLOR_COUNT);\n        traitCount.push(TRAIT_EYECOLOR_COUNT);\n    }\n\n    /**\n    * Generate Traits for Mutation of Gene\n    * @param traitPos                   Position of Trait\n    * @param trait1                     First trait to be mixed\n    * @param trait2                     Second trait to be Mixed\n    * @param rand                       Rand number for mixing\n    *\n    * @return ascension                 Mixed Trait for mutation\n    *\n     */\n    function _ascend(uint256 traitPos, uint8 trait1, uint8 trait2, uint256 rand) internal view returns(uint8 ascension) {\n        ascension = 0;\n\n        uint8 smallT = trait1;\n        uint8 bigT = trait2;\n        uint256 traitIndex = traitPos / 4;\n\n        if (smallT > bigT) {\n            bigT = trait1;\n            smallT = trait2;\n        }\n\n        if ((bigT - smallT == 1) && smallT % 2 == 0) {\n            uint256 maxRand;\n            if (smallT < traitCount[traitIndex]) maxRand = 1;\n            else maxRand = 0;\n\n            if (rand <= maxRand ) {\n                ascension = (smallT / 2) + baseTraitCount[traitIndex];\n            }\n        }\n        return ascension;\n    }\n\n    /**\n    * Slice the Number\n    * @param _n                         number to be Sliced\n    * @param _nbits                     count of bits to be Sliced\n    * @param _offset                    offset\n    *\n    * @return result                    sliced number\n    *\n     */\n    function _sliceNumber(uint256 _n, uint256 _nbits, uint256 _offset) private pure returns (uint256) {\n        uint256 mask = uint256((2**_nbits) - 1) << _offset;\n        return uint256((_n & mask) >> _offset);\n    }\n\n    /**\n    * Get 5 Bits of number\n    * @param _input                    input number\n    * @param _slot                     slot\n    *\n    * @return result                   5 bits of number\n    *\n     */\n    function _get5Bits(uint256 _input, uint256 _slot) internal pure returns(uint8) {\n        return uint8(_sliceNumber(_input, uint256(5), _slot * 5));\n    }\n\n    /**\n    * Decode Traits from Gene\n    * @param _genes                    Gene\n    *\n    * @return traits                   Traits array from Gene\n    *\n     */\n    function decode(uint256 _genes) public pure returns(uint8[] memory) {\n        uint8[] memory traits = new uint8[](TRAIT_COUNT * 4);\n        uint256 i;\n        for(i = 0; i < TRAIT_COUNT * 4; i++) {\n            traits[i] = _get5Bits(_genes, i);\n        }\n        return traits;\n    }\n\n    /**\n    * Encode Gene from Traits array\n    * @param _traits                   Traits array\n    *\n    * @return _genes                   Gene from Traits array\n    *\n     */\n    function encode(uint8[] memory _traits) public pure returns (uint256 _genes) {\n        _genes = 0;\n        for(uint256 i = 0; i < TRAIT_COUNT * 4; i++) {\n            _genes = _genes << 5;\n            _genes = _genes | _traits[TRAIT_COUNT * 4 - 1 - i];\n        }\n        return _genes;\n    }\n\n    /**\n    * Get expressing Traits from Gene\n    * @param _genes                     Gene\n    *\n    * @return express                   Expressing Traits array from Gene\n    *\n     */\n    function expressingTraits(uint256 _genes) public pure returns(uint8[TRAIT_COUNT] memory) {\n        uint8[TRAIT_COUNT] memory express;\n        for(uint256 i = 0; i < TRAIT_COUNT; i++) {\n            express[i] = _get5Bits(_genes, i * 4);\n        }\n        return express;\n    }\n\n    /**\n    * Generate 0 Generation Gene\n    *\n    * @return gene                   Gene\n    *\n     */\n    function generateGene0() public view returns(uint256)\n    {   \n        uint8[] memory traits = new uint8[](TRAIT_COUNT * 4);\n        traits = generateTraits();\n        return encode(traits);\n\n        // rand = uint256(keccak256(block.timestamp, block.difficulty));\n        // return rand;\n    }\n\n    /**\n    * Generates Random Traits\n    *\n    * @return traits                   Random Traits array\n    *\n     */\n    function generateTraits() public view returns(uint8[] memory)\n    {   \n        uint8[] memory traits = new uint8[](TRAIT_COUNT * 4);\n        uint256 rand = 0;\n        rand = uint256(keccak256(abi.encodePacked(block.timestamp, block.difficulty)));\n        traits = decode(rand);\n        for(uint8 i = 0; i < TRAIT_COUNT * 4; i++) {\n            traits[i] = traits[i] % baseTraitCount[i/4];\n            // traits[i] = uint8(rand);\n        }\n\n        return traits;\n    }\n\n    /**\n    * Mix Gene from two Genes\n    * @param _genes1                     Gene 1\n    * @param _genes2                     Gene 2\n    * @param _targetBlock                Target Block for random generation\n    *\n    * @return gene                       Mixed Gene\n    *\n     */\n    function mixGenes(uint256 _genes1, uint256 _genes2, uint256 _targetBlock) public view returns (uint256) {\n\n        //For test\n        // require(block.number > _targetBlock);\n\n        uint256 randomN = uint256(blockhash(_targetBlock));\n\n        if (randomN == 0) {\n            _targetBlock = (block.number & maskFirst248Bits) + (_targetBlock & maskLast8Bits);\n\n            if (_targetBlock >= block.number) _targetBlock -= 256;\n\n            randomN = uint256(blockhash(_targetBlock));\n        }\n\n        randomN = uint256(keccak256(abi.encodePacked(randomN, _genes1, _genes2, _targetBlock)));\n        uint256 randomIndex = 0;\n\n        uint8[] memory genes1Array = decode(_genes1);\n        uint8[] memory genes2Array = decode(_genes2);\n        uint8[] memory babyArray = new uint8[](TRAIT_COUNT * 4);\n        uint256 traitPos;\n        uint8 swap;\n        for(uint256 i = 0; i < TRAIT_COUNT; i++) {\n            uint256 j;\n            uint256 rand;\n            for(j = 3; j >= 1; j--) {\n                traitPos = (i * 4) + j;\n\n                rand = _sliceNumber(randomN, 2, randomIndex);\n                randomIndex += 2;\n\n                if (rand == 0) {\n                    swap = genes1Array[traitPos];\n                    genes1Array[traitPos] = genes1Array[traitPos - 1];\n                    genes1Array[traitPos - 1] = swap;\n\n                }\n\n                rand = _sliceNumber(randomN, 2, randomIndex); \n                randomIndex += 2;\n\n                if (rand == 0) {\n                    swap = genes2Array[traitPos];\n                    genes2Array[traitPos] = genes2Array[traitPos - 1];\n                    genes2Array[traitPos - 1] = swap;\n                }\n            }\n\n        }\n        for(traitPos = 0; traitPos < TRAIT_COUNT * 4; traitPos++) {\n\n            uint8 ascendedTrait = 0;\n            uint256 rand;\n            if ((traitPos % 4 == 0) && (genes1Array[traitPos] & 1) != (genes2Array[traitPos] & 1)) {\n                rand = _sliceNumber(randomN, 3, randomIndex);\n                randomIndex += 3;\n\n                ascendedTrait = _ascend(traitPos, genes1Array[traitPos], genes2Array[traitPos], rand);\n            }\n\n            if (ascendedTrait > 0) {\n                babyArray[traitPos] = uint8(ascendedTrait);\n            } else {\n                rand = _sliceNumber(randomN, 1, randomIndex);\n                randomIndex += 1;\n\n                if (rand == 0) {\n                    babyArray[traitPos] = uint8(genes1Array[traitPos]);\n                } else {\n                    babyArray[traitPos] = uint8(genes2Array[traitPos]);\n                }\n            }\n        }\n\n        return encode(babyArray);\n    }\n\n    /**\n    * Check function of GeneScience contract\n    *\n    */\n    function geneTest() public pure returns(string memory) {\n        return \"Gene Test\";\n    }\n}",
  "sourcePath": "/home/ubuntu/dev/Boby/pizzaHero/contracts/PZGeneScience.sol",
  "compiler": {
    "name": "solc",
    "version": "0.5.4+commit.d15a3125.mod.Emscripten.clang"
  },
  "schemaVersion": "2.0.1",
  "updatedAt": "2021-03-24T05:15:11.596Z"
}