{
  "contractName": "PZGeneScience",
  "abi": [
    {
      "constant": true,
      "inputs": [],
      "name": "isGeneScience",
      "outputs": [
        {
          "name": "",
          "type": "bool"
        }
      ],
      "payable": false,
      "stateMutability": "view",
      "type": "function"
    },
    {
      "inputs": [],
      "payable": false,
      "stateMutability": "nonpayable",
      "type": "constructor"
    },
    {
      "constant": true,
      "inputs": [
        {
          "name": "_genes",
          "type": "uint256"
        }
      ],
      "name": "decode",
      "outputs": [
        {
          "name": "",
          "type": "uint8[]"
        }
      ],
      "payable": false,
      "stateMutability": "pure",
      "type": "function"
    },
    {
      "constant": true,
      "inputs": [
        {
          "name": "_traits",
          "type": "uint8[]"
        }
      ],
      "name": "encode",
      "outputs": [
        {
          "name": "_genes",
          "type": "uint256"
        }
      ],
      "payable": false,
      "stateMutability": "pure",
      "type": "function"
    },
    {
      "constant": true,
      "inputs": [
        {
          "name": "_genes",
          "type": "uint256"
        }
      ],
      "name": "expressingTraits",
      "outputs": [
        {
          "name": "",
          "type": "uint8[14]"
        }
      ],
      "payable": false,
      "stateMutability": "pure",
      "type": "function"
    },
    {
      "constant": true,
      "inputs": [],
      "name": "generateGene0",
      "outputs": [
        {
          "name": "",
          "type": "uint256"
        }
      ],
      "payable": false,
      "stateMutability": "view",
      "type": "function"
    },
    {
      "constant": true,
      "inputs": [],
      "name": "generateTraits",
      "outputs": [
        {
          "name": "",
          "type": "uint8[]"
        }
      ],
      "payable": false,
      "stateMutability": "view",
      "type": "function"
    },
    {
      "constant": true,
      "inputs": [
        {
          "name": "_genes1",
          "type": "uint256"
        },
        {
          "name": "_genes2",
          "type": "uint256"
        },
        {
          "name": "_targetBlock",
          "type": "uint256"
        }
      ],
      "name": "mixGenes",
      "outputs": [
        {
          "name": "",
          "type": "uint256"
        }
      ],
      "payable": false,
      "stateMutability": "view",
      "type": "function"
    },
    {
      "constant": true,
      "inputs": [],
      "name": "geneTest",
      "outputs": [
        {
          "name": "",
          "type": "string"
        }
      ],
      "payable": false,
      "stateMutability": "pure",
      "type": "function"
    }
  ],
  "bytecode": "0x608060405260016000806101000a81548160ff02191690831515021790555034801561002a57600080fd5b50d3801561003757600080fd5b50d2801561004457600080fd5b5060016002908060018154018082558091505090600182039060005260206000209060209182820401919006909192909190916101000a81548160ff021916908360ff1602179055505060016004908060018154018082558091505090600182039060005260206000209060209182820401919006909192909190916101000a81548160ff021916908360ff1602179055505060016006908060018154018082558091505090600182039060005260206000209060209182820401919006909192909190916101000a81548160ff021916908360ff1602179055505060016006908060018154018082558091505090600182039060005260206000209060209182820401919006909192909190916101000a81548160ff021916908360ff1602179055505060016004908060018154018082558091505090600182039060005260206000209060209182820401919006909192909190916101000a81548160ff021916908360ff1602179055505060016004908060018154018082558091505090600182039060005260206000209060209182820401919006909192909190916101000a81548160ff021916908360ff1602179055505060016004908060018154018082558091505090600182039060005260206000209060209182820401919006909192909190916101000a81548160ff021916908360ff16021790555050600180908060018154018082558091505090600182039060005260206000209060209182820401919006909192909190916101000a81548160ff021916908360ff16021790555050600180908060018154018082558091505090600182039060005260206000209060209182820401919006909192909190916101000a81548160ff021916908360ff1602179055505060016008908060018154018082558091505090600182039060005260206000209060209182820401919006909192909190916101000a81548160ff021916908360ff1602179055505060016006908060018154018082558091505090600182039060005260206000209060209182820401919006909192909190916101000a81548160ff021916908360ff1602179055505060016008908060018154018082558091505090600182039060005260206000209060209182820401919006909192909190916101000a81548160ff021916908360ff1602179055505060016006908060018154018082558091505090600182039060005260206000209060209182820401919006909192909190916101000a81548160ff021916908360ff1602179055505060016008908060018154018082558091505090600182039060005260206000209060209182820401919006909192909190916101000a81548160ff021916908360ff16021790555050600280908060018154018082558091505090600182039060005260206000209060209182820401919006909192909190916101000a81548160ff021916908360ff1602179055505060026006908060018154018082558091505090600182039060005260206000209060209182820401919006909192909190916101000a81548160ff021916908360ff1602179055505060026009908060018154018082558091505090600182039060005260206000209060209182820401919006909192909190916101000a81548160ff021916908360ff1602179055505060026009908060018154018082558091505090600182039060005260206000209060209182820401919006909192909190916101000a81548160ff021916908360ff1602179055505060026006908060018154018082558091505090600182039060005260206000209060209182820401919006909192909190916101000a81548160ff021916908360ff1602179055505060026006908060018154018082558091505090600182039060005260206000209060209182820401919006909192909190916101000a81548160ff021916908360ff1602179055505060026006908060018154018082558091505090600182039060005260206000209060209182820401919006909192909190916101000a81548160ff021916908360ff1602179055505060026001908060018154018082558091505090600182039060005260206000209060209182820401919006909192909190916101000a81548160ff021916908360ff1602179055505060026001908060018154018082558091505090600182039060005260206000209060209182820401919006909192909190916101000a81548160ff021916908360ff160217905550506002600c908060018154018082558091505090600182039060005260206000209060209182820401919006909192909190916101000a81548160ff021916908360ff1602179055505060026009908060018154018082558091505090600182039060005260206000209060209182820401919006909192909190916101000a81548160ff021916908360ff160217905550506002600c908060018154018082558091505090600182039060005260206000209060209182820401919006909192909190916101000a81548160ff021916908360ff1602179055505060026009908060018154018082558091505090600182039060005260206000209060209182820401919006909192909190916101000a81548160ff021916908360ff160217905550506002600c908060018154018082558091505090600182039060005260206000209060209182820401919006909192909190916101000a81548160ff021916908360ff16021790555050610e498061084d6000396000f30060806040526004361061008e576000357c0100000000000000000000000000000000000000000000000000000000900463ffffffff1680630b6c8f6b146100935780630d9f5aed146101195780631597ee441461018857806338dc1a1c1461021c57806354c15b82146102c65780635ddef9dd1461030f57806361a769001461035457806377a74a20146103f0575b600080fd5b34801561009f57600080fd5b50d380156100ac57600080fd5b50d280156100b957600080fd5b506100c2610473565b6040518080602001828103825283818151815260200191508051906020019060200280838360005b838110156101055780820151818401526020810190506100ea565b505050509050019250505060405180910390f35b34801561012557600080fd5b50d3801561013257600080fd5b50d2801561013f57600080fd5b50610172600480360381019080803590602001909291908035906020019092919080359060200190929190505050610611565b6040518082815260200191505060405180910390f35b34801561019457600080fd5b50d380156101a157600080fd5b50d280156101ae57600080fd5b5061020660048036038101908080359060200190820180359060200190808060200260200160405190810160405280939291908181526020018383602002808284378201915050505050509192919290505050610aad565b6040518082815260200191505060405180910390f35b34801561022857600080fd5b50d3801561023557600080fd5b50d2801561024257600080fd5b5061024b610b13565b6040518080602001828103825283818151815260200191508051906020019080838360005b8381101561028b578082015181840152602081019050610270565b50505050905090810190601f1680156102b85780820380516001836020036101000a031916815260200191505b509250505060405180910390f35b3480156102d257600080fd5b50d380156102df57600080fd5b50d280156102ec57600080fd5b506102f5610b50565b604051808215151515815260200191505060405180910390f35b34801561031b57600080fd5b50d3801561032857600080fd5b50d2801561033557600080fd5b5061033e610b62565b6040518082815260200191505060405180910390f35b34801561036057600080fd5b50d3801561036d57600080fd5b50d2801561037a57600080fd5b5061039960048036038101908080359060200190929190505050610bb8565b6040518080602001828103825283818151815260200191508051906020019060200280838360005b838110156103dc5780820151818401526020810190506103c1565b505050509050019250505060405180910390f35b3480156103fc57600080fd5b50d3801561040957600080fd5b50d2801561041657600080fd5b5061043560048036038101908080359060200190929190505050610c4f565b6040518082600e60200280838360005b83811015610460578082015181840152602081019050610445565b5050505090500191505060405180910390f35b6060806000806004600e0260ff166040519080825280602002602001820160405280156104af5781602001602082028038833980820191505090505b50925060009150424460405160200180838152602001828152602001925050506040516020818303038152906040526040518082805190602001908083835b60208310151561051357805182526020820191506020810190506020830392506104ee565b6001836020036101000a038019825116818451168082178552505050505050905001915050604051809103902060019004915061054f82610bb8565b9250600090505b6004600e0260ff168160ff16101561060857600160048260ff1681151561057957fe5b0460ff1681548110151561058957fe5b90600052602060002090602091828204019190069054906101000a900460ff1660ff16838260ff168151811015156105bd57fe5b9060200190602002015160ff168115156105d357fe5b06838260ff168151811015156105e557fe5b9060200190602002019060ff16908160ff16815250508080600101915050610556565b82935050505090565b600080600060608060606000806000806000808c40600190049a5060008b14156106795760ff8d167fffffffffffffffffffffffffffffffffffffffffffffffffffffffffffffff004316019c50438d101515610670576101008d039c505b8c40600190049a505b8a8f8f8f604051602001808581526020018481526020018381526020018281526020019450505050506040516020818303038152906040526040518082805190602001908083835b6020831015156106e657805182526020820191506020810190506020830392506106c1565b6001836020036101000a0380198251168184511680821785525050505050509050019150506040518091039020600190049a50600099506107268f610bb8565b98506107318e610bb8565b97506004600e0260ff166040519080825280602002602001820160405280156107695781602001602082028038833980820191505090505b509650600093505b600e60ff168410156108ed57600392505b6001831015156108e05782600485020195506107a08b60028c610cb4565b915060028a01995060008214156108335788868151811015156107bf57fe5b90602001906020020151945088600187038151811015156107dc57fe5b9060200190602002015189878151811015156107f457fe5b9060200190602002019060ff16908160ff168152505084896001880381518110151561081c57fe5b9060200190602002019060ff16908160ff16815250505b61083f8b60028c610cb4565b915060028a01995060008214156108d257878681518110151561085e57fe5b906020019060200201519450876001870381518110151561087b57fe5b90602001906020020151888781518110151561089357fe5b9060200190602002019060ff16908160ff16815250508488600188038151811015156108bb57fe5b9060200190602002019060ff16908160ff16815250505b828060019003935050610782565b8380600101945050610771565b600095505b6004600e0260ff16861015610a905760009050600060048781151561091357fe5b0614801561095b57506001888781518110151561092c57fe5b906020019060200201511660ff1660018a8881518110151561094a57fe5b906020019060200201511660ff1614155b156109b15761096c8b60038c610cb4565b915060038a0199506109ae868a8881518110151561098657fe5b906020019060200201518a8981518110151561099e57fe5b9060200190602002015185610cda565b90505b60008160ff1611156109e7578087878151811015156109cc57fe5b9060200190602002019060ff16908160ff1681525050610a83565b6109f38b60018c610cb4565b915060018a0199506000821415610a45578886815181101515610a1257fe5b906020019060200201518787815181101515610a2a57fe5b9060200190602002019060ff16908160ff1681525050610a82565b8786815181101515610a5357fe5b906020019060200201518787815181101515610a6b57fe5b9060200190602002019060ff16908160ff16815250505b5b85806001019650506108f2565b610a9987610aad565b9b5050505050505050505050509392505050565b60008060009150600090505b6004600e0260ff16811015610b0a576005829060020a029150828160016004600e020360ff1603815181101515610aec57fe5b9060200190602002015160ff16821791508080600101915050610ab9565b81915050919050565b60606040805190810160405280600981526020017f47656e6520546573740000000000000000000000000000000000000000000000815250905090565b6000809054906101000a900460ff1681565b600060606004600e0260ff16604051908082528060200260200182016040528015610b9c5781602001602082028038833980820191505090505b509050610ba7610473565b9050610bb281610aad565b91505090565b60608060006004600e0260ff16604051908082528060200260200182016040528015610bf35781602001602082028038833980820191505090505b509150600090505b6004600e0260ff16811015610c4557610c148482610de1565b8282815181101515610c2257fe5b9060200190602002019060ff16908160ff16815250508080600101915050610bfb565b8192505050919050565b610c57610df9565b610c5f610df9565b60008090505b600e60ff16811015610caa57610c7e8460048302610de1565b8282600e81101515610c8c57fe5b602002019060ff16908160ff16815250508080600101915050610c65565b8192505050919050565b6000808260018560020a039060020a029050828186169060020a90049150509392505050565b6000806000806000809450879350869250600489811515610cf757fe5b0491508260ff168460ff161115610d0f578792508693505b600184840360ff16148015610d365750600060028560ff16811515610d3057fe5b0660ff16145b15610dd257600282815481101515610d4a57fe5b90600052602060002090602091828204019190069054906101000a900460ff1660ff168460ff161015610d805760019050610d85565b600090505b8086111515610dd157600182815481101515610d9d57fe5b90600052602060002090602091828204019190069054906101000a900460ff1660028560ff16811515610dcc57fe5b040194505b5b84945050505050949350505050565b6000610df1836005808502610cb4565b905092915050565b6101c060405190810160405280600e906020820280388339808201915050905050905600a165627a7a7230582065497c600c5227dc35e75e1a5238caa4d08435eb069acf451af8e7d66793e3d60029",
  "source": "pragma solidity ^0.4.25;\n\ncontract PZGeneScience {\n    bool public isGeneScience = true;\n\n    uint256 internal constant maskLast8Bits = uint256(0xff);\n    uint256 internal constant maskFirst248Bits = uint256(~0xff);\n\n    uint8 internal constant TRAIT_COUNT = 14;\n\n    uint8 internal constant BASETRAIT_GENDER_COUNT = 2;\n    uint8 internal constant BASETRAIT_BODY_COUNT = 4;\n    uint8 internal constant BASETRAIT_EYE_COUNT = 6;\n    uint8 internal constant BASETRAIT_MOUTH_COUNT = 6;\n    uint8 internal constant BASETRAIT_EAR_COUNT = 4;\n    uint8 internal constant BASETRAIT_TAIL_COUNT = 4;\n    uint8 internal constant BASETRAIT_PATTERN_COUNT = 4;  \n    uint8 internal constant BASETRAIT_UNUSED1_COUNT = 1;\n    uint8 internal constant BASETRAIT_UNUSED2_COUNT = 1;\n    uint8 internal constant BASETRAIT_PRIMARYCOLOR_COUNT = 8;\n    uint8 internal constant BASETRAIT_ACCENTCOLOR_COUNT = 6;\n    uint8 internal constant BASETRAIT_PATTERNCOLOR_COUNT = 8;\n    uint8 internal constant BASETRAIT_HAIRCOLOR_COUNT = 6;\n    uint8 internal constant BASETRAIT_EYECOLOR_COUNT = 8;\n    \n    \n    uint8 internal constant RAIT_GENDER_COUNT = 2;\n    uint8 internal constant TRAIT_BODY_COUNT = 6;\n    uint8 internal constant TRAIT_EYE_COUNT = 9;\n    uint8 internal constant TRAIT_MOUTH_COUNT = 9;\n    uint8 internal constant TRAIT_EAR_COUNT = 6;\n    uint8 internal constant TRAIT_TAIL_COUNT = 6;\n    uint8 internal constant TRAIT_PATTERN_COUNT = 6;\n    uint8 internal constant TRAIT_UNUSED1_COUNT = 1;\n    uint8 internal constant TRAIT_UNUSED2_COUNT = 1;\n    uint8 internal constant TRAIT_PRIMARYCOLOR_COUNT = 12;\n    uint8 internal constant TRAIT_ACCENTCOLOR_COUNT = 9;\n    uint8 internal constant TRAIT_PATTERNCOLOR_COUNT = 12;\n    uint8 internal constant TRAIT_HAIRCOLOR_COUNT = 9;\n    uint8 internal constant TRAIT_EYECOLOR_COUNT = 12;\n\n    uint8[] internal baseTraitCount;\n    uint8[] internal traitCount;\n\n    constructor() public {\n        baseTraitCount.push(BASETRAIT_GENDER_COUNT);\n        baseTraitCount.push(BASETRAIT_BODY_COUNT);\n        baseTraitCount.push(BASETRAIT_EYE_COUNT);\n        baseTraitCount.push(BASETRAIT_MOUTH_COUNT);\n        baseTraitCount.push(BASETRAIT_EAR_COUNT);\n        baseTraitCount.push(BASETRAIT_TAIL_COUNT);\n        baseTraitCount.push(BASETRAIT_PATTERN_COUNT);\n        baseTraitCount.push(BASETRAIT_UNUSED1_COUNT);\n        baseTraitCount.push(BASETRAIT_UNUSED2_COUNT);\n        baseTraitCount.push(BASETRAIT_PRIMARYCOLOR_COUNT);\n        baseTraitCount.push(BASETRAIT_ACCENTCOLOR_COUNT);\n        baseTraitCount.push(BASETRAIT_PATTERNCOLOR_COUNT);\n        baseTraitCount.push(BASETRAIT_HAIRCOLOR_COUNT);\n        baseTraitCount.push(BASETRAIT_EYECOLOR_COUNT);\n\n        traitCount.push(RAIT_GENDER_COUNT);\n        traitCount.push(TRAIT_BODY_COUNT);\n        traitCount.push(TRAIT_EYE_COUNT);\n        traitCount.push(TRAIT_MOUTH_COUNT);\n        traitCount.push(TRAIT_EAR_COUNT);\n        traitCount.push(TRAIT_TAIL_COUNT);\n        traitCount.push(TRAIT_PATTERN_COUNT);\n        traitCount.push(TRAIT_UNUSED1_COUNT);\n        traitCount.push(TRAIT_UNUSED2_COUNT);\n        traitCount.push(TRAIT_PRIMARYCOLOR_COUNT);\n        traitCount.push(TRAIT_ACCENTCOLOR_COUNT);\n        traitCount.push(TRAIT_PATTERNCOLOR_COUNT);\n        traitCount.push(TRAIT_HAIRCOLOR_COUNT);\n        traitCount.push(TRAIT_EYECOLOR_COUNT);\n    }\n\n    /**\n    * Generate Traits for Mutation of Gene\n    * @param traitPos                   Position of Trait\n    * @param trait1                     First trait to be mixed\n    * @param trait2                     Second trait to be Mixed\n    * @param rand                       Rand number for mixing\n    *\n    * @return ascension                 Mixed Trait for mutation\n    *\n     */\n    function _ascend(uint256 traitPos, uint8 trait1, uint8 trait2, uint256 rand) internal view returns(uint8 ascension) {\n        ascension = 0;\n\n        uint8 smallT = trait1;\n        uint8 bigT = trait2;\n        uint256 traitIndex = traitPos / 4;\n\n        if (smallT > bigT) {\n            bigT = trait1;\n            smallT = trait2;\n        }\n\n        if ((bigT - smallT == 1) && smallT % 2 == 0) {\n            uint256 maxRand;\n            if (smallT < traitCount[traitIndex]) maxRand = 1;\n            else maxRand = 0;\n\n            if (rand <= maxRand ) {\n                ascension = (smallT / 2) + baseTraitCount[traitIndex];\n            }\n        }\n        return ascension;\n    }\n\n    /**\n    * Slice the Number\n    * @param _n                         number to be Sliced\n    * @param _nbits                     count of bits to be Sliced\n    * @param _offset                    offset\n    *\n    * @return result                    sliced number\n    *\n     */\n    function _sliceNumber(uint256 _n, uint256 _nbits, uint256 _offset) private pure returns (uint256) {\n        uint256 mask = uint256((2**_nbits) - 1) << _offset;\n        return uint256((_n & mask) >> _offset);\n    }\n\n    /**\n    * Get 5 Bits of number\n    * @param _input                    input number\n    * @param _slot                     slot\n    *\n    * @return result                   5 bits of number\n    *\n     */\n    function _get5Bits(uint256 _input, uint256 _slot) internal pure returns(uint8) {\n        return uint8(_sliceNumber(_input, uint256(5), _slot * 5));\n    }\n\n    /**\n    * Decode Traits from Gene\n    * @param _genes                    Gene\n    *\n    * @return traits                   Traits array from Gene\n    *\n     */\n    function decode(uint256 _genes) public pure returns(uint8[]) {\n        uint8[] memory traits = new uint8[](TRAIT_COUNT * 4);\n        uint256 i;\n        for(i = 0; i < TRAIT_COUNT * 4; i++) {\n            traits[i] = _get5Bits(_genes, i);\n        }\n        return traits;\n    }\n\n    /**\n    * Encode Gene from Traits array\n    * @param _traits                   Traits array\n    *\n    * @return _genes                   Gene from Traits array\n    *\n     */\n    function encode(uint8[] _traits) public pure returns (uint256 _genes) {\n        _genes = 0;\n        for(uint256 i = 0; i < TRAIT_COUNT * 4; i++) {\n            _genes = _genes << 5;\n            _genes = _genes | _traits[TRAIT_COUNT * 4 - 1 - i];\n        }\n        return _genes;\n    }\n\n    /**\n    * Get expressing Traits from Gene\n    * @param _genes                     Gene\n    *\n    * @return express                   Expressing Traits array from Gene\n    *\n     */\n    function expressingTraits(uint256 _genes) public pure returns(uint8[TRAIT_COUNT]) {\n        uint8[TRAIT_COUNT] memory express;\n        for(uint256 i = 0; i < TRAIT_COUNT; i++) {\n            express[i] = _get5Bits(_genes, i * 4);\n        }\n        return express;\n    }\n\n    /**\n    * Generate 0 Generation Gene\n    *\n    * @return gene                   Gene\n    *\n     */\n    function generateGene0() public view returns(uint256)\n    {   \n        uint8[] memory traits = new uint8[](TRAIT_COUNT * 4);\n        traits = generateTraits();\n        return encode(traits);\n\n        // rand = uint256(keccak256(block.timestamp, block.difficulty));\n        // return rand;\n    }\n\n    /**\n    * Generates Random Traits\n    *\n    * @return traits                   Random Traits array\n    *\n     */\n    function generateTraits() public view returns(uint8[])\n    {   \n        uint8[] memory traits = new uint8[](TRAIT_COUNT * 4);\n        uint256 rand = 0;\n        rand = uint256(keccak256(abi.encodePacked(block.timestamp, block.difficulty)));\n        traits = decode(rand);\n        for(uint8 i = 0; i < TRAIT_COUNT * 4; i++) {\n            traits[i] = traits[i] % baseTraitCount[i/4];\n            // traits[i] = uint8(rand);\n        }\n\n        return traits;\n    }\n\n    /**\n    * Mix Gene from two Genes\n    * @param _genes1                     Gene 1\n    * @param _genes2                     Gene 2\n    * @param _targetBlock                Target Block for random generation\n    *\n    * @return gene                       Mixed Gene\n    *\n     */\n    function mixGenes(uint256 _genes1, uint256 _genes2, uint256 _targetBlock) public view returns (uint256) {\n\n        //For test\n        // require(block.number > _targetBlock);\n\n        uint256 randomN = uint256(blockhash(_targetBlock));\n\n        if (randomN == 0) {\n            _targetBlock = (block.number & maskFirst248Bits) + (_targetBlock & maskLast8Bits);\n\n            if (_targetBlock >= block.number) _targetBlock -= 256;\n\n            randomN = uint256(blockhash(_targetBlock));\n        }\n\n        randomN = uint256(keccak256(abi.encodePacked(randomN, _genes1, _genes2, _targetBlock)));\n        uint256 randomIndex = 0;\n\n        uint8[] memory genes1Array = decode(_genes1);\n        uint8[] memory genes2Array = decode(_genes2);\n        uint8[] memory babyArray = new uint8[](TRAIT_COUNT * 4);\n        uint256 traitPos;\n        uint8 swap;\n        for(uint256 i = 0; i < TRAIT_COUNT; i++) {\n            uint256 j;\n            uint256 rand;\n            for(j = 3; j >= 1; j--) {\n                traitPos = (i * 4) + j;\n\n                rand = _sliceNumber(randomN, 2, randomIndex);\n                randomIndex += 2;\n\n                if (rand == 0) {\n                    swap = genes1Array[traitPos];\n                    genes1Array[traitPos] = genes1Array[traitPos - 1];\n                    genes1Array[traitPos - 1] = swap;\n\n                }\n\n                rand = _sliceNumber(randomN, 2, randomIndex); \n                randomIndex += 2;\n\n                if (rand == 0) {\n                    swap = genes2Array[traitPos];\n                    genes2Array[traitPos] = genes2Array[traitPos - 1];\n                    genes2Array[traitPos - 1] = swap;\n                }\n            }\n\n        }\n        for(traitPos = 0; traitPos < TRAIT_COUNT * 4; traitPos++) {\n\n            uint8 ascendedTrait = 0;\n\n            if ((traitPos % 4 == 0) && (genes1Array[traitPos] & 1) != (genes2Array[traitPos] & 1)) {\n                rand = _sliceNumber(randomN, 3, randomIndex);\n                randomIndex += 3;\n\n                ascendedTrait = _ascend(traitPos, genes1Array[traitPos], genes2Array[traitPos], rand);\n            }\n\n            if (ascendedTrait > 0) {\n                babyArray[traitPos] = uint8(ascendedTrait);\n            } else {\n                rand = _sliceNumber(randomN, 1, randomIndex);\n                randomIndex += 1;\n\n                if (rand == 0) {\n                    babyArray[traitPos] = uint8(genes1Array[traitPos]);\n                } else {\n                    babyArray[traitPos] = uint8(genes2Array[traitPos]);\n                }\n            }\n        }\n\n        return encode(babyArray);\n    }\n\n    /**\n    * Check function of GeneScience contract\n    *\n    */\n    function geneTest() public pure returns(string) {\n        return \"Gene Test\";\n    }\n}",
  "sourcePath": "/Volumes/Backup/workspace/Dave(Tron_NFT)/pizzaHero/contracts/PZGeneScience.sol",
  "compiler": {
    "name": "solc",
    "version": "0.4.25+commit.69a1e720.Emscripten.clang"
  },
  "schemaVersion": "2.0.1",
  "updatedAt": "2020-01-15T17:55:13.427Z"
}