{
  "contractName": "PZHeroOwnership",
  "abi": [
    {
      "constant": true,
      "inputs": [],
      "name": "name",
      "outputs": [
        {
          "name": "",
          "type": "string"
        }
      ],
      "payable": false,
      "stateMutability": "view",
      "type": "function"
    },
    {
      "constant": true,
      "inputs": [],
      "name": "addrItemCore",
      "outputs": [
        {
          "name": "",
          "type": "address"
        }
      ],
      "payable": false,
      "stateMutability": "view",
      "type": "function"
    },
    {
      "constant": false,
      "inputs": [
        {
          "name": "_matronId",
          "type": "uint256"
        },
        {
          "name": "_sireId",
          "type": "uint256"
        },
        {
          "name": "_generation",
          "type": "uint256"
        },
        {
          "name": "_genes",
          "type": "uint256"
        },
        {
          "name": "_level",
          "type": "uint16"
        },
        {
          "name": "_owner",
          "type": "address"
        }
      ],
      "name": "createHero",
      "outputs": [
        {
          "name": "",
          "type": "uint256"
        }
      ],
      "payable": false,
      "stateMutability": "nonpayable",
      "type": "function"
    },
    {
      "constant": true,
      "inputs": [
        {
          "name": "",
          "type": "uint256"
        }
      ],
      "name": "sireAllowedToAddress",
      "outputs": [
        {
          "name": "",
          "type": "address"
        }
      ],
      "payable": false,
      "stateMutability": "view",
      "type": "function"
    },
    {
      "constant": true,
      "inputs": [],
      "name": "addrChest",
      "outputs": [
        {
          "name": "",
          "type": "address"
        }
      ],
      "payable": false,
      "stateMutability": "view",
      "type": "function"
    },
    {
      "constant": true,
      "inputs": [],
      "name": "secondsPerBlock",
      "outputs": [
        {
          "name": "",
          "type": "uint256"
        }
      ],
      "payable": false,
      "stateMutability": "view",
      "type": "function"
    },
    {
      "constant": true,
      "inputs": [],
      "name": "symbol",
      "outputs": [
        {
          "name": "",
          "type": "string"
        }
      ],
      "payable": false,
      "stateMutability": "view",
      "type": "function"
    },
    {
      "constant": true,
      "inputs": [
        {
          "name": "",
          "type": "address"
        }
      ],
      "name": "ownershipHeroCount",
      "outputs": [
        {
          "name": "",
          "type": "uint256"
        }
      ],
      "payable": false,
      "stateMutability": "view",
      "type": "function"
    },
    {
      "constant": true,
      "inputs": [
        {
          "name": "",
          "type": "uint256"
        }
      ],
      "name": "cooldowns",
      "outputs": [
        {
          "name": "",
          "type": "uint32"
        }
      ],
      "payable": false,
      "stateMutability": "view",
      "type": "function"
    },
    {
      "constant": true,
      "inputs": [
        {
          "name": "",
          "type": "uint256"
        }
      ],
      "name": "heroes",
      "outputs": [
        {
          "name": "genes",
          "type": "uint256"
        },
        {
          "name": "birthTime",
          "type": "uint64"
        },
        {
          "name": "cooldownEndBlock",
          "type": "uint64"
        },
        {
          "name": "matronId",
          "type": "uint32"
        },
        {
          "name": "sireId",
          "type": "uint32"
        },
        {
          "name": "siringWithId",
          "type": "uint32"
        },
        {
          "name": "cooldownIndex",
          "type": "uint16"
        },
        {
          "name": "generation",
          "type": "uint16"
        },
        {
          "name": "level",
          "type": "uint16"
        }
      ],
      "payable": false,
      "stateMutability": "view",
      "type": "function"
    },
    {
      "constant": true,
      "inputs": [
        {
          "name": "",
          "type": "uint256"
        }
      ],
      "name": "heroIndexToOwner",
      "outputs": [
        {
          "name": "",
          "type": "address"
        }
      ],
      "payable": false,
      "stateMutability": "view",
      "type": "function"
    },
    {
      "constant": true,
      "inputs": [],
      "name": "addrAdmin",
      "outputs": [
        {
          "name": "",
          "type": "address"
        }
      ],
      "payable": false,
      "stateMutability": "view",
      "type": "function"
    },
    {
      "constant": false,
      "inputs": [
        {
          "name": "_addrItem",
          "type": "address"
        }
      ],
      "name": "setItemCoreAddress",
      "outputs": [],
      "payable": false,
      "stateMutability": "nonpayable",
      "type": "function"
    },
    {
      "constant": true,
      "inputs": [
        {
          "name": "",
          "type": "uint256"
        }
      ],
      "name": "heroIndexToApproved",
      "outputs": [
        {
          "name": "",
          "type": "address"
        }
      ],
      "payable": false,
      "stateMutability": "view",
      "type": "function"
    },
    {
      "constant": true,
      "inputs": [],
      "name": "trc721Metadata",
      "outputs": [
        {
          "name": "",
          "type": "address"
        }
      ],
      "payable": false,
      "stateMutability": "view",
      "type": "function"
    },
    {
      "constant": false,
      "inputs": [
        {
          "name": "_addrChest",
          "type": "address"
        }
      ],
      "name": "setChestAddress",
      "outputs": [],
      "payable": false,
      "stateMutability": "nonpayable",
      "type": "function"
    },
    {
      "anonymous": false,
      "inputs": [
        {
          "indexed": false,
          "name": "from",
          "type": "address"
        },
        {
          "indexed": false,
          "name": "to",
          "type": "address"
        },
        {
          "indexed": false,
          "name": "tokenId",
          "type": "uint256"
        }
      ],
      "name": "Transfer",
      "type": "event"
    },
    {
      "anonymous": false,
      "inputs": [
        {
          "indexed": false,
          "name": "owner",
          "type": "address"
        },
        {
          "indexed": false,
          "name": "approved",
          "type": "address"
        },
        {
          "indexed": false,
          "name": "tokenId",
          "type": "uint256"
        }
      ],
      "name": "Approval",
      "type": "event"
    },
    {
      "anonymous": false,
      "inputs": [
        {
          "indexed": false,
          "name": "owner",
          "type": "address"
        },
        {
          "indexed": false,
          "name": "kittyId",
          "type": "uint256"
        },
        {
          "indexed": false,
          "name": "matronId",
          "type": "uint256"
        },
        {
          "indexed": false,
          "name": "sireId",
          "type": "uint256"
        },
        {
          "indexed": false,
          "name": "genes",
          "type": "uint256"
        },
        {
          "indexed": false,
          "name": "level",
          "type": "uint16"
        }
      ],
      "name": "Birth",
      "type": "event"
    },
    {
      "constant": true,
      "inputs": [
        {
          "name": "_interfaceID",
          "type": "bytes4"
        }
      ],
      "name": "supportsInterface",
      "outputs": [
        {
          "name": "",
          "type": "bool"
        }
      ],
      "payable": false,
      "stateMutability": "view",
      "type": "function"
    },
    {
      "constant": false,
      "inputs": [
        {
          "name": "_contractAddress",
          "type": "address"
        }
      ],
      "name": "setMetadataAddress",
      "outputs": [],
      "payable": false,
      "stateMutability": "nonpayable",
      "type": "function"
    },
    {
      "constant": true,
      "inputs": [
        {
          "name": "_owner",
          "type": "address"
        }
      ],
      "name": "balanceOf",
      "outputs": [
        {
          "name": "count",
          "type": "uint256"
        }
      ],
      "payable": false,
      "stateMutability": "view",
      "type": "function"
    },
    {
      "constant": false,
      "inputs": [
        {
          "name": "_to",
          "type": "address"
        },
        {
          "name": "_heroId",
          "type": "uint256"
        }
      ],
      "name": "transfer",
      "outputs": [],
      "payable": false,
      "stateMutability": "nonpayable",
      "type": "function"
    },
    {
      "constant": false,
      "inputs": [
        {
          "name": "_to",
          "type": "address"
        },
        {
          "name": "_heroId",
          "type": "uint256"
        }
      ],
      "name": "approve",
      "outputs": [],
      "payable": false,
      "stateMutability": "nonpayable",
      "type": "function"
    },
    {
      "constant": false,
      "inputs": [
        {
          "name": "_from",
          "type": "address"
        },
        {
          "name": "_to",
          "type": "address"
        },
        {
          "name": "_heroId",
          "type": "uint256"
        }
      ],
      "name": "transferFrom",
      "outputs": [],
      "payable": false,
      "stateMutability": "nonpayable",
      "type": "function"
    },
    {
      "constant": true,
      "inputs": [],
      "name": "totalSupply",
      "outputs": [
        {
          "name": "",
          "type": "uint256"
        }
      ],
      "payable": false,
      "stateMutability": "view",
      "type": "function"
    },
    {
      "constant": true,
      "inputs": [
        {
          "name": "_heroId",
          "type": "uint256"
        }
      ],
      "name": "ownerOf",
      "outputs": [
        {
          "name": "owner",
          "type": "address"
        }
      ],
      "payable": false,
      "stateMutability": "view",
      "type": "function"
    },
    {
      "constant": true,
      "inputs": [
        {
          "name": "_owner",
          "type": "address"
        }
      ],
      "name": "heroesOfOwner",
      "outputs": [
        {
          "name": "ownerHeroes",
          "type": "uint256[]"
        }
      ],
      "payable": false,
      "stateMutability": "view",
      "type": "function"
    }
  ],
  "bytecode": "0x60806040526101c060405190810160405280603c63ffffffff1663ffffffff168152602001607863ffffffff1663ffffffff16815260200161012c63ffffffff1663ffffffff16815260200161025863ffffffff1663ffffffff16815260200161070863ffffffff1663ffffffff168152602001610e1063ffffffff1663ffffffff168152602001611c2063ffffffff1663ffffffff16815260200161384063ffffffff1663ffffffff16815260200161708063ffffffff1663ffffffff16815260200161e10063ffffffff1663ffffffff1681526020016201518063ffffffff1663ffffffff1681526020016202a30063ffffffff1663ffffffff1681526020016205460063ffffffff1663ffffffff16815260200162093a8063ffffffff1663ffffffff16815250600090600e6200013b92919062000188565b50600f60025533600360006101000a81548173ffffffffffffffffffffffffffffffffffffffff021916908373ffffffffffffffffffffffffffffffffffffffff16021790555062000268565b82600e6007016008900481019282156200021f5791602002820160005b83821115620001eb57835183826101000a81548163ffffffff021916908363ffffffff1602179055509260200192600401602081600301049283019260010302620001a5565b80156200021d5782816101000a81549063ffffffff0219169055600401602081600301049283019260010302620001eb565b505b5090506200022e919062000232565b5090565b6200026591905b808211156200026157600081816101000a81549063ffffffff02191690555060010162000239565b5090565b90565b6120c880620002786000396000f300608060405260043610610149576000357c0100000000000000000000000000000000000000000000000000000000900463ffffffff16806301ffc9a71461014e57806306fdde03146101cc578063095ea7b31461027657806318160ddd146102dd57806323b872dd146103225780632f6db1ee146103a9578063439513431461041a57806346116e6f146104c15780636352211e1461054857806370a08231146105cf57806376c0b367146106405780637a7d4937146106b157806395d89b41146106f6578063989555f8146107a05780639ca7722d146108525780639d6fac6f146108c3578063a8d4a03b1461092a578063a9059cbb14610a21578063aa54beac14610a88578063bfae2f0e14610b0f578063cb0e2c5a14610b80578063de3e305f14610bdd578063e17b25af14610c64578063f15f938814610cc1578063f794ac1f14610d32575b600080fd5b34801561015a57600080fd5b50d3801561016757600080fd5b50d2801561017457600080fd5b506101b260048036038101908080357bffffffffffffffffffffffffffffffffffffffffffffffffffffffff19169060200190929190505050610d8f565b604051808215151515815260200191505060405180910390f35b3480156101d857600080fd5b50d380156101e557600080fd5b50d280156101f257600080fd5b506101fb6110a0565b6040518080602001828103825283818151815260200191508051906020019080838360005b8381101561023b578082015181840152602081019050610220565b50505050905090810190601f1680156102685780820380516001836020036101000a031916815260200191505b509250505060405180910390f35b34801561028257600080fd5b50d3801561028f57600080fd5b50d2801561029c57600080fd5b506102db600480360381019080803573ffffffffffffffffffffffffffffffffffffffff169060200190929190803590602001909291905050506110d9565b005b3480156102e957600080fd5b50d380156102f657600080fd5b50d2801561030357600080fd5b5061030c61119b565b6040518082815260200191505060405180910390f35b34801561032e57600080fd5b50d3801561033b57600080fd5b50d2801561034857600080fd5b506103a7600480360381019080803573ffffffffffffffffffffffffffffffffffffffff169060200190929190803573ffffffffffffffffffffffffffffffffffffffff169060200190929190803590602001909291905050506111ab565b005b3480156103b557600080fd5b50d380156103c257600080fd5b50d280156103cf57600080fd5b506103d861125c565b604051808273ffffffffffffffffffffffffffffffffffffffff1673ffffffffffffffffffffffffffffffffffffffff16815260200191505060405180910390f35b34801561042657600080fd5b50d3801561043357600080fd5b50d2801561044057600080fd5b506104ab60048036038101908080359060200190929190803590602001909291908035906020019092919080359060200190929190803561ffff169060200190929190803573ffffffffffffffffffffffffffffffffffffffff169060200190929190505050611282565b6040518082815260200191505060405180910390f35b3480156104cd57600080fd5b50d380156104da57600080fd5b50d280156104e757600080fd5b50610506600480360381019080803590602001909291905050506115bd565b604051808273ffffffffffffffffffffffffffffffffffffffff1673ffffffffffffffffffffffffffffffffffffffff16815260200191505060405180910390f35b34801561055457600080fd5b50d3801561056157600080fd5b50d2801561056e57600080fd5b5061058d600480360381019080803590602001909291905050506115f0565b604051808273ffffffffffffffffffffffffffffffffffffffff1673ffffffffffffffffffffffffffffffffffffffff16815260200191505060405180910390f35b3480156105db57600080fd5b50d380156105e857600080fd5b50d280156105f557600080fd5b5061062a600480360381019080803573ffffffffffffffffffffffffffffffffffffffff169060200190929190505050611669565b6040518082815260200191505060405180910390f35b34801561064c57600080fd5b50d3801561065957600080fd5b50d2801561066657600080fd5b5061066f6116b2565b604051808273ffffffffffffffffffffffffffffffffffffffff1673ffffffffffffffffffffffffffffffffffffffff16815260200191505060405180910390f35b3480156106bd57600080fd5b50d380156106ca57600080fd5b50d280156106d757600080fd5b506106e06116d8565b6040518082815260200191505060405180910390f35b34801561070257600080fd5b50d3801561070f57600080fd5b50d2801561071c57600080fd5b506107256116de565b6040518080602001828103825283818151815260200191508051906020019080838360005b8381101561076557808201518184015260208101905061074a565b50505050905090810190601f1680156107925780820380516001836020036101000a031916815260200191505b509250505060405180910390f35b3480156107ac57600080fd5b50d380156107b957600080fd5b50d280156107c657600080fd5b506107fb600480360381019080803573ffffffffffffffffffffffffffffffffffffffff169060200190929190505050611717565b6040518080602001828103825283818151815260200191508051906020019060200280838360005b8381101561083e578082015181840152602081019050610823565b505050509050019250505060405180910390f35b34801561085e57600080fd5b50d3801561086b57600080fd5b50d2801561087857600080fd5b506108ad600480360381019080803573ffffffffffffffffffffffffffffffffffffffff169060200190929190505050611864565b6040518082815260200191505060405180910390f35b3480156108cf57600080fd5b50d380156108dc57600080fd5b50d280156108e957600080fd5b506109086004803603810190808035906020019092919050505061187c565b604051808263ffffffff1663ffffffff16815260200191505060405180910390f35b34801561093657600080fd5b50d3801561094357600080fd5b50d2801561095057600080fd5b5061096f600480360381019080803590602001909291905050506118ab565b604051808a81526020018967ffffffffffffffff1667ffffffffffffffff1681526020018867ffffffffffffffff1667ffffffffffffffff1681526020018763ffffffff1663ffffffff1681526020018663ffffffff1663ffffffff1681526020018563ffffffff1663ffffffff1681526020018461ffff1661ffff1681526020018361ffff1661ffff1681526020018261ffff1661ffff168152602001995050505050505050505060405180910390f35b348015610a2d57600080fd5b50d38015610a3a57600080fd5b50d28015610a4757600080fd5b50610a86600480360381019080803573ffffffffffffffffffffffffffffffffffffffff1690602001909291908035906020019092919050505061198a565b005b348015610a9457600080fd5b50d38015610aa157600080fd5b50d28015610aae57600080fd5b50610acd60048036038101908080359060200190929190505050611a25565b604051808273ffffffffffffffffffffffffffffffffffffffff1673ffffffffffffffffffffffffffffffffffffffff16815260200191505060405180910390f35b348015610b1b57600080fd5b50d38015610b2857600080fd5b50d28015610b3557600080fd5b50610b3e611a58565b604051808273ffffffffffffffffffffffffffffffffffffffff1673ffffffffffffffffffffffffffffffffffffffff16815260200191505060405180910390f35b348015610b8c57600080fd5b50d38015610b9957600080fd5b50d28015610ba657600080fd5b50610bdb600480360381019080803573ffffffffffffffffffffffffffffffffffffffff169060200190929190505050611a7e565b005b348015610be957600080fd5b50d38015610bf657600080fd5b50d28015610c0357600080fd5b50610c2260048036038101908080359060200190929190505050611b1e565b604051808273ffffffffffffffffffffffffffffffffffffffff1673ffffffffffffffffffffffffffffffffffffffff16815260200191505060405180910390f35b348015610c7057600080fd5b50d38015610c7d57600080fd5b50d28015610c8a57600080fd5b50610cbf600480360381019080803573ffffffffffffffffffffffffffffffffffffffff169060200190929190505050611b51565b005b348015610ccd57600080fd5b50d38015610cda57600080fd5b50d28015610ce757600080fd5b50610cf0611bf1565b604051808273ffffffffffffffffffffffffffffffffffffffff1673ffffffffffffffffffffffffffffffffffffffff16815260200191505060405180910390f35b348015610d3e57600080fd5b50d38015610d4b57600080fd5b50d28015610d5857600080fd5b50610d8d600480360381019080803573ffffffffffffffffffffffffffffffffffffffff169060200190929190505050611c17565b005b600060405180807f737570706f727473496e74657266616365286279746573342900000000000000815250601901905060405180910390207bffffffffffffffffffffffffffffffffffffffffffffffffffffffff1916827bffffffffffffffffffffffffffffffffffffffffffffffffffffffff19161480611099575060405180807f746f6b656e4d657461646174612875696e743235362c737472696e6729000000815250601d019050604051809103902060405180807f6865726f65734f664f776e6572286164647265737329000000000000000000008152506016019050604051809103902060405180807f7472616e7366657246726f6d28616464726573732c616464726573732c75696e81526020017f74323536290000000000000000000000000000000000000000000000000000008152506025019050604051809103902060405180807f7472616e7366657228616464726573732c75696e7432353629000000000000008152506019019050604051809103902060405180807f617070726f766528616464726573732c75696e743235362900000000000000008152506018019050604051809103902060405180807f6f776e65724f662875696e7432353629000000000000000000000000000000008152506010019050604051809103902060405180807f62616c616e63654f6628616464726573732900000000000000000000000000008152506012019050604051809103902060405180807f746f74616c537570706c79282900000000000000000000000000000000000000815250600d019050604051809103902060405180807f73796d626f6c28290000000000000000000000000000000000000000000000008152506008019050604051809103902060405180807f6e616d6528290000000000000000000000000000000000000000000000000000815250600601905060405180910390201818181818181818187bffffffffffffffffffffffffffffffffffffffffffffffffffffffff1916827bffffffffffffffffffffffffffffffffffffffffffffffffffffffff1916145b9050919050565b6040805190810160405280600881526020017f505a4865726f657300000000000000000000000000000000000000000000000081525081565b6110e33382611cb7565b15156110ee57600080fd5b6110f88183611d23565b7f8c5be1e5ebec7d5bd14f71427d1e84f3dd0314c0f7b2291e5b200ac8c7c3b925338383604051808473ffffffffffffffffffffffffffffffffffffffff1673ffffffffffffffffffffffffffffffffffffffff1681526020018373ffffffffffffffffffffffffffffffffffffffff1673ffffffffffffffffffffffffffffffffffffffff168152602001828152602001935050505060405180910390a15050565b6000600160068054905003905090565b600073ffffffffffffffffffffffffffffffffffffffff168273ffffffffffffffffffffffffffffffffffffffff16141515156111e757600080fd5b3073ffffffffffffffffffffffffffffffffffffffff168273ffffffffffffffffffffffffffffffffffffffff161415151561122257600080fd5b61122c3382611d79565b151561123757600080fd5b6112418382611cb7565b151561124c57600080fd5b611257838383611de5565b505050565b600560009054906101000a900473ffffffffffffffffffffffffffffffffffffffff1681565b60008061128d61201d565b60008963ffffffff168a1415156112a357600080fd5b8863ffffffff16891415156112b757600080fd5b8761ffff16881415156112c957600080fd5b6002888115156112d557fe5b049250600d8361ffff1611156112ea57600d92505b610120604051908101604052808881526020014267ffffffffffffffff168152602001600067ffffffffffffffff1681526020018b63ffffffff1681526020018a63ffffffff168152602001600063ffffffff1681526020018461ffff1681526020018961ffff1681526020018761ffff1681525091506001600683908060018154018082558091505090600182039060005260206000209060030201600090919290919091506000820151816000015560208201518160010160006101000a81548167ffffffffffffffff021916908367ffffffffffffffff16021790555060408201518160010160086101000a81548167ffffffffffffffff021916908367ffffffffffffffff16021790555060608201518160010160106101000a81548163ffffffff021916908363ffffffff16021790555060808201518160010160146101000a81548163ffffffff021916908363ffffffff16021790555060a08201518160010160186101000a81548163ffffffff021916908363ffffffff16021790555060c082015181600101601c6101000a81548161ffff021916908361ffff16021790555060e082015181600101601e6101000a81548161ffff021916908361ffff1602179055506101008201518160020160006101000a81548161ffff021916908361ffff16021790555050500390508063ffffffff16811415156114f157600080fd5b7f6bdb6252e3aabe7c79b1e94c2d24f9cbed550af06f37098cc8e28e34c6140c668582846060015163ffffffff16856080015163ffffffff168660000151876101000151604051808773ffffffffffffffffffffffffffffffffffffffff1673ffffffffffffffffffffffffffffffffffffffff1681526020018681526020018581526020018481526020018381526020018261ffff1661ffff168152602001965050505050505060405180910390a16115ad60008683611de5565b8093505050509695505050505050565b600a6020528060005260406000206000915054906101000a900473ffffffffffffffffffffffffffffffffffffffff1681565b60006007600083815260200190815260200160002060009054906101000a900473ffffffffffffffffffffffffffffffffffffffff169050600073ffffffffffffffffffffffffffffffffffffffff168173ffffffffffffffffffffffffffffffffffffffff161415151561166457600080fd5b919050565b6000600860008373ffffffffffffffffffffffffffffffffffffffff1673ffffffffffffffffffffffffffffffffffffffff168152602001908152602001600020549050919050565b600460009054906101000a900473ffffffffffffffffffffffffffffffffffffffff1681565b60025481565b6040805190810160405280600281526020017f504800000000000000000000000000000000000000000000000000000000000081525081565b606060006060600080600061172b87611669565b9450600085141561176e5760006040519080825280602002602001820160405280156117665781602001602082028038833980820191505090505b50955061185a565b8460405190808252806020026020018201604052801561179d5781602001602082028038833980820191505090505b5093506117a861119b565b925060009150600190505b8281111515611856578673ffffffffffffffffffffffffffffffffffffffff166007600083815260200190815260200160002060009054906101000a900473ffffffffffffffffffffffffffffffffffffffff1673ffffffffffffffffffffffffffffffffffffffff1614156118495780848381518110151561183257fe5b906020019060200201818152505081806001019250505b80806001019150506117b3565b8395505b5050505050919050565b60086020528060005260406000206000915090505481565b600081600e8110151561188b57fe5b60089182820401919006600402915054906101000a900463ffffffff1681565b6006818154811015156118ba57fe5b90600052602060002090600302016000915090508060000154908060010160009054906101000a900467ffffffffffffffff16908060010160089054906101000a900467ffffffffffffffff16908060010160109054906101000a900463ffffffff16908060010160149054906101000a900463ffffffff16908060010160189054906101000a900463ffffffff169080600101601c9054906101000a900461ffff169080600101601e9054906101000a900461ffff16908060020160009054906101000a900461ffff16905089565b600073ffffffffffffffffffffffffffffffffffffffff168273ffffffffffffffffffffffffffffffffffffffff16141515156119c657600080fd5b3073ffffffffffffffffffffffffffffffffffffffff168273ffffffffffffffffffffffffffffffffffffffff1614151515611a0157600080fd5b611a0b3382611cb7565b1515611a1657600080fd5b611a21338383611de5565b5050565b60076020528060005260406000206000915054906101000a900473ffffffffffffffffffffffffffffffffffffffff1681565b600360009054906101000a900473ffffffffffffffffffffffffffffffffffffffff1681565b600360009054906101000a900473ffffffffffffffffffffffffffffffffffffffff1673ffffffffffffffffffffffffffffffffffffffff163373ffffffffffffffffffffffffffffffffffffffff16141515611ada57600080fd5b80600560006101000a81548173ffffffffffffffffffffffffffffffffffffffff021916908373ffffffffffffffffffffffffffffffffffffffff16021790555050565b60096020528060005260406000206000915054906101000a900473ffffffffffffffffffffffffffffffffffffffff1681565b600360009054906101000a900473ffffffffffffffffffffffffffffffffffffffff1673ffffffffffffffffffffffffffffffffffffffff163373ffffffffffffffffffffffffffffffffffffffff16141515611bad57600080fd5b80600b60006101000a81548173ffffffffffffffffffffffffffffffffffffffff021916908373ffffffffffffffffffffffffffffffffffffffff16021790555050565b600b60009054906101000a900473ffffffffffffffffffffffffffffffffffffffff1681565b600360009054906101000a900473ffffffffffffffffffffffffffffffffffffffff1673ffffffffffffffffffffffffffffffffffffffff163373ffffffffffffffffffffffffffffffffffffffff16141515611c7357600080fd5b80600460006101000a81548173ffffffffffffffffffffffffffffffffffffffff021916908373ffffffffffffffffffffffffffffffffffffffff16021790555050565b60008273ffffffffffffffffffffffffffffffffffffffff166007600084815260200190815260200160002060009054906101000a900473ffffffffffffffffffffffffffffffffffffffff1673ffffffffffffffffffffffffffffffffffffffff1614905092915050565b806009600084815260200190815260200160002060006101000a81548173ffffffffffffffffffffffffffffffffffffffff021916908373ffffffffffffffffffffffffffffffffffffffff1602179055505050565b60008273ffffffffffffffffffffffffffffffffffffffff166009600084815260200190815260200160002060009054906101000a900473ffffffffffffffffffffffffffffffffffffffff1673ffffffffffffffffffffffffffffffffffffffff1614905092915050565b600860008373ffffffffffffffffffffffffffffffffffffffff1673ffffffffffffffffffffffffffffffffffffffff16815260200190815260200160002060008154809291906001019190505550816007600083815260200190815260200160002060006101000a81548173ffffffffffffffffffffffffffffffffffffffff021916908373ffffffffffffffffffffffffffffffffffffffff160217905550600073ffffffffffffffffffffffffffffffffffffffff168373ffffffffffffffffffffffffffffffffffffffff16141515611f7957600860008473ffffffffffffffffffffffffffffffffffffffff1673ffffffffffffffffffffffffffffffffffffffff1681526020019081526020016000206000815480929190600190039190505550600a600082815260200190815260200160002060006101000a81549073ffffffffffffffffffffffffffffffffffffffff02191690556009600082815260200190815260200160002060006101000a81549073ffffffffffffffffffffffffffffffffffffffff02191690555b7fddf252ad1be2c89b69c2b068fc378daa952ba7f163c4a11628f55a4df523b3ef838383604051808473ffffffffffffffffffffffffffffffffffffffff1673ffffffffffffffffffffffffffffffffffffffff1681526020018373ffffffffffffffffffffffffffffffffffffffff1673ffffffffffffffffffffffffffffffffffffffff168152602001828152602001935050505060405180910390a1505050565b6101206040519081016040528060008152602001600067ffffffffffffffff168152602001600067ffffffffffffffff168152602001600063ffffffff168152602001600063ffffffff168152602001600063ffffffff168152602001600061ffff168152602001600061ffff168152602001600061ffff16815250905600a165627a7a723058203b8c5cd5fc98db90196a6b6a190e8329b06d56f680c73aded00c254525e68d9f0029",
  "source": "pragma solidity ^0.4.25;\n\nimport \"./PZHeroBase.sol\";\nimport \"./TRC721.sol\";\nimport \"./TRC721Metadata.sol\";\n\ncontract PZHeroOwnership is PZHeroBase, TRC721\n{\n    string public constant name = \"PZHeroes\";\n    string public constant symbol = \"PH\";\n\n    // The contract that will return kitty metadata\n    TRC721Metadata public trc721Metadata;\n\n    bytes4 constant InterfaceSignature_TRC165 =\n        bytes4(keccak256('supportsInterface(bytes4)'));\n\n    bytes4 constant InterfaceSignature_TRC721 =\n        bytes4(keccak256('name()')) ^\n        bytes4(keccak256('symbol()')) ^\n        bytes4(keccak256('totalSupply()')) ^\n        bytes4(keccak256('balanceOf(address)')) ^\n        bytes4(keccak256('ownerOf(uint256)')) ^\n        bytes4(keccak256('approve(address,uint256)')) ^\n        bytes4(keccak256('transfer(address,uint256)')) ^\n        bytes4(keccak256('transferFrom(address,address,uint256)')) ^\n        bytes4(keccak256('heroesOfOwner(address)')) ^\n        bytes4(keccak256('tokenMetadata(uint256,string)'));\n\n    function supportsInterface(bytes4 _interfaceID) external view returns (bool)\n    {\n        return ((_interfaceID == InterfaceSignature_TRC165) || (_interfaceID == InterfaceSignature_TRC721));\n    }\n\n    /**\n    * Set Meta Data Address of TRC721\n    * @param _contractAddress                      Address of TRC721\n    *\n     */\n    function setMetadataAddress(address _contractAddress) external onlyAdmin {\n        trc721Metadata = TRC721Metadata(_contractAddress);\n    }\n\n    /**\n    * Check if the claimant owns Hero\n    * @param _claimant                  Address of Claimer\n    * @param _heroId                    Hero Id\n    *\n    * @return result                    The boolean result if claimant owns given Hero\n    *\n     */\n    function _owns(address _claimant, uint256 _heroId) internal view returns (bool) {\n        return heroIndexToOwner[_heroId] == _claimant;\n    }\n\n    /**\n    * Check if Hero is approved for Claimant\n    * @param _claimant                  Address of Claimer\n    * @param _heroId                    Hero Id\n    *\n    * @return result                    The boolean result if claimant is approved for given Hero\n    *\n     */\n    function _approvedFor(address _claimant, uint256 _heroId) internal view returns (bool) {\n        return heroIndexToApproved[_heroId] == _claimant;\n    }\n\n    /**\n    * Approve Hero for for Claimant\n    * @param _approved                  Address of approved\n    * @param _heroId                     Hero Id\n    *\n     */\n    function _approve(uint256 _heroId, address _approved) internal {\n        heroIndexToApproved[_heroId] = _approved;\n    }\n\n    /**\n    * Get Balance of Owner\n    * @return count                     Count of Heroes owned by Owner\n    *\n     */\n    function balanceOf(address _owner) public view returns (uint256 count) {\n        return ownershipHeroCount[_owner];\n    }\n\n    /**\n    * Transfer Hero\n    * @param _to                            Address of receiver\n    * @param _heroId                        Hero Id to be transferred\n    *\n     */\n    function transfer(\n        address _to,\n        uint256 _heroId\n    )\n        external\n    {\n        // Safety check to prevent against an unexpected 0x0 default.\n        require(_to != address(0));\n        require(_to != address(this));\n\n        require(_owns(msg.sender, _heroId));\n\n        _transfer(msg.sender, _to, _heroId);\n    }\n\n    /**\n    * Approve Hero for for Claimant\n    * @param _to                            Address to be approved by Hero\n    * @param _heroId                        Hero Id\n    *\n     */\n    function approve(\n        address _to,\n        uint256 _heroId\n    )\n        external\n    {\n        // Only an owner can grant transfer approval.\n        require(_owns(msg.sender, _heroId));\n\n        // Register the approval (replacing any previous approval).\n        _approve(_heroId, _to);\n\n        // Emit approval event.\n        emit Approval(msg.sender, _to, _heroId);\n    }\n\n    /**\n    * Transfer Hero\n    * @param _from                          Address of transfer\n    * @param _to                            Address of receiver\n    * @param _heroId                        Hero Id to be transferred\n    *\n     */\n    function transferFrom(\n        address _from,\n        address _to,\n        uint256 _heroId\n    )\n        external\n    {\n        require(_to != address(0));\n\n        require(_to != address(this));\n\n        require(_approvedFor(msg.sender, _heroId));\n        require(_owns(_from, _heroId));\n\n        _transfer(_from, _to, _heroId);\n    }\n\n    /**\n    * Get Total Supply\n    * @return count                     Total Supply of Heroes\n    *\n     */\n    function totalSupply() public view returns (uint) {\n        return heroes.length - 1;\n    }\n\n    /**\n    * Get Owner of Given Hero\n    * @param _heroId                        Hero Id\n    * @return owner                         Owner's address of Hero id\n    *\n     */\n    function ownerOf(uint256 _heroId)\n        public\n        view\n        returns (address owner)\n    {\n        owner = heroIndexToOwner[_heroId];\n\n        require(owner != address(0));\n    }\n\n    /**\n    * Get Heroes of Owner\n    * @param _owner                         Owner's address\n    *\n    * @return ownerHeroes                   Owner's Heroes\n    *\n     */\n    function heroesOfOwner(address _owner) public view returns(uint256[] ownerHeroes) {\n        uint256 heroCount = balanceOf(_owner);\n\n        if (heroCount == 0) {\n            // Return an empty array\n            return new uint256[](0);\n        } else {\n            uint256[] memory result = new uint256[](heroCount);\n            uint256 totalHeroes = totalSupply();\n            uint256 resultIndex = 0;\n\n            uint256 heroId;\n\n            for (heroId = 1; heroId <= totalHeroes; heroId++) {\n                if (heroIndexToOwner[heroId] == _owner) {\n                    result[resultIndex] = heroId;\n                    resultIndex++;\n                }\n            }\n\n            return result;\n        }\n    }\n\n    function _memcpy(uint _dest, uint _src, uint _len) private pure {\n        // Copy word-length chunks while possible\n        for(; _len >= 32; _len -= 32) {\n            assembly {\n                mstore(_dest, mload(_src))\n            }\n            _dest += 32;\n            _src += 32;\n        }\n\n        // Copy remaining bytes\n        uint256 mask = 256 ** (32 - _len) - 1;\n        assembly {\n            let srcpart := and(mload(_src), not(mask))\n            let destpart := and(mload(_dest), mask)\n            mstore(_dest, or(destpart, srcpart))\n        }\n    }\n\n    function _toString(bytes32[4] _rawBytes, uint256 _stringLength) private pure returns (string) {\n        string memory outputString = new string(_stringLength);\n        uint256 outputPtr;\n        uint256 bytesPtr;\n\n        assembly {\n            outputPtr := add(outputString, 32)\n            bytesPtr := _rawBytes\n        }\n\n        _memcpy(outputPtr, bytesPtr, _stringLength);\n\n        return outputString;\n    }\n}\n",
  "sourcePath": "/Volumes/Backup/workspace/Dave(Tron_NFT)/pizzaHero/contracts/PZHeroOwnership.sol",
  "compiler": {
    "name": "solc",
    "version": "0.4.25+commit.69a1e720.Emscripten.clang"
  },
  "schemaVersion": "2.0.1",
  "updatedAt": "2020-01-04T03:21:09.543Z"
}