{
  "contractName": "PZHeroMarketplace",
  "abi": [
    {
      "constant": false,
      "inputs": [
        {
          "name": "_matronId",
          "type": "uint256"
        },
        {
          "name": "_sireId",
          "type": "uint256"
        }
      ],
      "name": "breedWithOwns",
      "outputs": [],
      "payable": true,
      "stateMutability": "payable",
      "type": "function"
    },
    {
      "constant": true,
      "inputs": [
        {
          "name": "_interfaceID",
          "type": "bytes4"
        }
      ],
      "name": "supportsInterface",
      "outputs": [
        {
          "name": "",
          "type": "bool"
        }
      ],
      "payable": false,
      "stateMutability": "view",
      "type": "function"
    },
    {
      "constant": true,
      "inputs": [],
      "name": "name",
      "outputs": [
        {
          "name": "",
          "type": "string"
        }
      ],
      "payable": false,
      "stateMutability": "view",
      "type": "function"
    },
    {
      "constant": false,
      "inputs": [
        {
          "name": "_to",
          "type": "address"
        },
        {
          "name": "_heroId",
          "type": "uint256"
        }
      ],
      "name": "approve",
      "outputs": [],
      "payable": false,
      "stateMutability": "nonpayable",
      "type": "function"
    },
    {
      "constant": false,
      "inputs": [
        {
          "name": "_addrGeneScience",
          "type": "address"
        }
      ],
      "name": "setGeneScienceAddr",
      "outputs": [],
      "payable": false,
      "stateMutability": "nonpayable",
      "type": "function"
    },
    {
      "constant": true,
      "inputs": [],
      "name": "totalSupply",
      "outputs": [
        {
          "name": "",
          "type": "uint256"
        }
      ],
      "payable": false,
      "stateMutability": "view",
      "type": "function"
    },
    {
      "constant": true,
      "inputs": [
        {
          "name": "",
          "type": "uint256"
        }
      ],
      "name": "heroAuctions",
      "outputs": [
        {
          "name": "seller",
          "type": "address"
        },
        {
          "name": "startingPrice",
          "type": "uint256"
        },
        {
          "name": "heroId",
          "type": "uint256"
        },
        {
          "name": "auctionType",
          "type": "uint8"
        }
      ],
      "payable": false,
      "stateMutability": "view",
      "type": "function"
    },
    {
      "constant": false,
      "inputs": [
        {
          "name": "_from",
          "type": "address"
        },
        {
          "name": "_to",
          "type": "address"
        },
        {
          "name": "_heroId",
          "type": "uint256"
        }
      ],
      "name": "transferFrom",
      "outputs": [],
      "payable": false,
      "stateMutability": "nonpayable",
      "type": "function"
    },
    {
      "constant": true,
      "inputs": [],
      "name": "addrItemCore",
      "outputs": [
        {
          "name": "",
          "type": "address"
        }
      ],
      "payable": false,
      "stateMutability": "view",
      "type": "function"
    },
    {
      "constant": true,
      "inputs": [],
      "name": "contractGeneScience",
      "outputs": [
        {
          "name": "",
          "type": "address"
        }
      ],
      "payable": false,
      "stateMutability": "view",
      "type": "function"
    },
    {
      "constant": false,
      "inputs": [
        {
          "name": "_matronId",
          "type": "uint256"
        },
        {
          "name": "_sireId",
          "type": "uint256"
        },
        {
          "name": "_generation",
          "type": "uint256"
        },
        {
          "name": "_genes",
          "type": "uint256"
        },
        {
          "name": "_level",
          "type": "uint16"
        },
        {
          "name": "_owner",
          "type": "address"
        }
      ],
      "name": "createHero",
      "outputs": [
        {
          "name": "",
          "type": "uint256"
        }
      ],
      "payable": false,
      "stateMutability": "nonpayable",
      "type": "function"
    },
    {
      "constant": true,
      "inputs": [],
      "name": "contractEggCore",
      "outputs": [
        {
          "name": "",
          "type": "address"
        }
      ],
      "payable": false,
      "stateMutability": "view",
      "type": "function"
    },
    {
      "constant": true,
      "inputs": [
        {
          "name": "",
          "type": "uint256"
        }
      ],
      "name": "sireAllowedToAddress",
      "outputs": [
        {
          "name": "",
          "type": "address"
        }
      ],
      "payable": false,
      "stateMutability": "view",
      "type": "function"
    },
    {
      "constant": true,
      "inputs": [
        {
          "name": "_matronId",
          "type": "uint256"
        },
        {
          "name": "_sireId",
          "type": "uint256"
        }
      ],
      "name": "canBreedWith",
      "outputs": [
        {
          "name": "",
          "type": "bool"
        }
      ],
      "payable": false,
      "stateMutability": "view",
      "type": "function"
    },
    {
      "constant": false,
      "inputs": [
        {
          "name": "_addr",
          "type": "address"
        },
        {
          "name": "_sireId",
          "type": "uint256"
        }
      ],
      "name": "approveSiring",
      "outputs": [],
      "payable": false,
      "stateMutability": "nonpayable",
      "type": "function"
    },
    {
      "constant": true,
      "inputs": [],
      "name": "addrGeneScience",
      "outputs": [
        {
          "name": "",
          "type": "address"
        }
      ],
      "payable": false,
      "stateMutability": "view",
      "type": "function"
    },
    {
      "constant": true,
      "inputs": [
        {
          "name": "_heroId",
          "type": "uint256"
        }
      ],
      "name": "ownerOf",
      "outputs": [
        {
          "name": "owner",
          "type": "address"
        }
      ],
      "payable": false,
      "stateMutability": "view",
      "type": "function"
    },
    {
      "constant": true,
      "inputs": [
        {
          "name": "_owner",
          "type": "address"
        }
      ],
      "name": "balanceOf",
      "outputs": [
        {
          "name": "count",
          "type": "uint256"
        }
      ],
      "payable": false,
      "stateMutability": "view",
      "type": "function"
    },
    {
      "constant": true,
      "inputs": [],
      "name": "addrChest",
      "outputs": [
        {
          "name": "",
          "type": "address"
        }
      ],
      "payable": false,
      "stateMutability": "view",
      "type": "function"
    },
    {
      "constant": true,
      "inputs": [],
      "name": "secondsPerBlock",
      "outputs": [
        {
          "name": "",
          "type": "uint256"
        }
      ],
      "payable": false,
      "stateMutability": "view",
      "type": "function"
    },
    {
      "constant": false,
      "inputs": [
        {
          "name": "_matronId",
          "type": "uint256"
        },
        {
          "name": "_sireId",
          "type": "uint256"
        }
      ],
      "name": "breedWithOwned",
      "outputs": [],
      "payable": true,
      "stateMutability": "payable",
      "type": "function"
    },
    {
      "constant": true,
      "inputs": [],
      "name": "addrEggCore",
      "outputs": [
        {
          "name": "",
          "type": "address"
        }
      ],
      "payable": false,
      "stateMutability": "view",
      "type": "function"
    },
    {
      "constant": true,
      "inputs": [],
      "name": "symbol",
      "outputs": [
        {
          "name": "",
          "type": "string"
        }
      ],
      "payable": false,
      "stateMutability": "view",
      "type": "function"
    },
    {
      "constant": true,
      "inputs": [
        {
          "name": "_owner",
          "type": "address"
        }
      ],
      "name": "heroesOfOwner",
      "outputs": [
        {
          "name": "ownerHeroes",
          "type": "uint256[]"
        }
      ],
      "payable": false,
      "stateMutability": "view",
      "type": "function"
    },
    {
      "constant": true,
      "inputs": [
        {
          "name": "",
          "type": "address"
        }
      ],
      "name": "ownershipHeroCount",
      "outputs": [
        {
          "name": "",
          "type": "uint256"
        }
      ],
      "payable": false,
      "stateMutability": "view",
      "type": "function"
    },
    {
      "constant": true,
      "inputs": [
        {
          "name": "",
          "type": "uint256"
        }
      ],
      "name": "cooldowns",
      "outputs": [
        {
          "name": "",
          "type": "uint32"
        }
      ],
      "payable": false,
      "stateMutability": "view",
      "type": "function"
    },
    {
      "constant": true,
      "inputs": [
        {
          "name": "",
          "type": "uint256"
        }
      ],
      "name": "heroes",
      "outputs": [
        {
          "name": "genes",
          "type": "uint256"
        },
        {
          "name": "birthTime",
          "type": "uint64"
        },
        {
          "name": "cooldownEndBlock",
          "type": "uint64"
        },
        {
          "name": "matronId",
          "type": "uint32"
        },
        {
          "name": "sireId",
          "type": "uint32"
        },
        {
          "name": "siringWithId",
          "type": "uint32"
        },
        {
          "name": "cooldownIndex",
          "type": "uint16"
        },
        {
          "name": "generation",
          "type": "uint16"
        },
        {
          "name": "level",
          "type": "uint16"
        }
      ],
      "payable": false,
      "stateMutability": "view",
      "type": "function"
    },
    {
      "constant": false,
      "inputs": [
        {
          "name": "_to",
          "type": "address"
        },
        {
          "name": "_heroId",
          "type": "uint256"
        }
      ],
      "name": "transfer",
      "outputs": [],
      "payable": false,
      "stateMutability": "nonpayable",
      "type": "function"
    },
    {
      "constant": true,
      "inputs": [
        {
          "name": "",
          "type": "uint256"
        }
      ],
      "name": "heroIndexToOwner",
      "outputs": [
        {
          "name": "",
          "type": "address"
        }
      ],
      "payable": false,
      "stateMutability": "view",
      "type": "function"
    },
    {
      "constant": true,
      "inputs": [],
      "name": "autoBirthFee",
      "outputs": [
        {
          "name": "",
          "type": "uint256"
        }
      ],
      "payable": false,
      "stateMutability": "view",
      "type": "function"
    },
    {
      "constant": true,
      "inputs": [],
      "name": "breedTest",
      "outputs": [
        {
          "name": "",
          "type": "string"
        }
      ],
      "payable": false,
      "stateMutability": "pure",
      "type": "function"
    },
    {
      "constant": true,
      "inputs": [],
      "name": "addrAdmin",
      "outputs": [
        {
          "name": "",
          "type": "address"
        }
      ],
      "payable": false,
      "stateMutability": "view",
      "type": "function"
    },
    {
      "constant": false,
      "inputs": [
        {
          "name": "_addrItem",
          "type": "address"
        }
      ],
      "name": "setItemCoreAddress",
      "outputs": [],
      "payable": false,
      "stateMutability": "nonpayable",
      "type": "function"
    },
    {
      "constant": true,
      "inputs": [
        {
          "name": "_heroId",
          "type": "uint256"
        }
      ],
      "name": "isReadyToBreed",
      "outputs": [
        {
          "name": "",
          "type": "bool"
        }
      ],
      "payable": false,
      "stateMutability": "view",
      "type": "function"
    },
    {
      "constant": true,
      "inputs": [
        {
          "name": "",
          "type": "uint256"
        }
      ],
      "name": "heroIndexToApproved",
      "outputs": [
        {
          "name": "",
          "type": "address"
        }
      ],
      "payable": false,
      "stateMutability": "view",
      "type": "function"
    },
    {
      "constant": false,
      "inputs": [
        {
          "name": "_contractAddress",
          "type": "address"
        }
      ],
      "name": "setMetadataAddress",
      "outputs": [],
      "payable": false,
      "stateMutability": "nonpayable",
      "type": "function"
    },
    {
      "constant": true,
      "inputs": [],
      "name": "trc721Metadata",
      "outputs": [
        {
          "name": "",
          "type": "address"
        }
      ],
      "payable": false,
      "stateMutability": "view",
      "type": "function"
    },
    {
      "constant": false,
      "inputs": [
        {
          "name": "_addrChest",
          "type": "address"
        }
      ],
      "name": "setChestAddress",
      "outputs": [],
      "payable": false,
      "stateMutability": "nonpayable",
      "type": "function"
    },
    {
      "inputs": [],
      "payable": false,
      "stateMutability": "nonpayable",
      "type": "constructor"
    },
    {
      "anonymous": false,
      "inputs": [
        {
          "indexed": false,
          "name": "owner",
          "type": "address"
        },
        {
          "indexed": false,
          "name": "matronId",
          "type": "uint256"
        },
        {
          "indexed": false,
          "name": "sireId",
          "type": "uint256"
        },
        {
          "indexed": false,
          "name": "cooldownEndBlock",
          "type": "uint256"
        }
      ],
      "name": "Pregnant",
      "type": "event"
    },
    {
      "anonymous": false,
      "inputs": [
        {
          "indexed": false,
          "name": "from",
          "type": "address"
        },
        {
          "indexed": false,
          "name": "to",
          "type": "address"
        },
        {
          "indexed": false,
          "name": "tokenId",
          "type": "uint256"
        }
      ],
      "name": "Transfer",
      "type": "event"
    },
    {
      "anonymous": false,
      "inputs": [
        {
          "indexed": false,
          "name": "owner",
          "type": "address"
        },
        {
          "indexed": false,
          "name": "approved",
          "type": "address"
        },
        {
          "indexed": false,
          "name": "tokenId",
          "type": "uint256"
        }
      ],
      "name": "Approval",
      "type": "event"
    },
    {
      "anonymous": false,
      "inputs": [
        {
          "indexed": false,
          "name": "owner",
          "type": "address"
        },
        {
          "indexed": false,
          "name": "kittyId",
          "type": "uint256"
        },
        {
          "indexed": false,
          "name": "matronId",
          "type": "uint256"
        },
        {
          "indexed": false,
          "name": "sireId",
          "type": "uint256"
        },
        {
          "indexed": false,
          "name": "genes",
          "type": "uint256"
        },
        {
          "indexed": false,
          "name": "level",
          "type": "uint16"
        }
      ],
      "name": "Birth",
      "type": "event"
    },
    {
      "constant": true,
      "inputs": [],
      "name": "getHeroIdsOnSale",
      "outputs": [
        {
          "name": "",
          "type": "uint256[]"
        }
      ],
      "payable": false,
      "stateMutability": "view",
      "type": "function"
    },
    {
      "constant": false,
      "inputs": [
        {
          "name": "_price",
          "type": "uint256"
        },
        {
          "name": "_heroId",
          "type": "uint256"
        },
        {
          "name": "_auctionType",
          "type": "uint8"
        }
      ],
      "name": "addAuction",
      "outputs": [],
      "payable": false,
      "stateMutability": "nonpayable",
      "type": "function"
    },
    {
      "constant": true,
      "inputs": [
        {
          "name": "_heroId",
          "type": "uint256"
        }
      ],
      "name": "getHeroAuctionByheroId",
      "outputs": [
        {
          "name": "seller",
          "type": "address"
        },
        {
          "name": "price",
          "type": "uint256"
        },
        {
          "name": "heroId",
          "type": "uint256"
        },
        {
          "name": "auctionType",
          "type": "uint8"
        }
      ],
      "payable": false,
      "stateMutability": "view",
      "type": "function"
    },
    {
      "constant": true,
      "inputs": [],
      "name": "getHeroAuctionCount",
      "outputs": [
        {
          "name": "",
          "type": "uint256"
        }
      ],
      "payable": false,
      "stateMutability": "view",
      "type": "function"
    },
    {
      "constant": false,
      "inputs": [
        {
          "name": "_heroId",
          "type": "uint256"
        }
      ],
      "name": "bidAuction",
      "outputs": [],
      "payable": true,
      "stateMutability": "payable",
      "type": "function"
    },
    {
      "constant": false,
      "inputs": [
        {
          "name": "_heroId",
          "type": "uint256"
        },
        {
          "name": "_sireId",
          "type": "uint256"
        }
      ],
      "name": "bidSire",
      "outputs": [],
      "payable": true,
      "stateMutability": "payable",
      "type": "function"
    },
    {
      "constant": false,
      "inputs": [
        {
          "name": "_heroId",
          "type": "uint256"
        }
      ],
      "name": "cancelAuction",
      "outputs": [],
      "payable": false,
      "stateMutability": "nonpayable",
      "type": "function"
    }
  ],
  "bytecode": "0x60806040526101c060405190810160405280603c63ffffffff1663ffffffff168152602001607863ffffffff1663ffffffff16815260200161012c63ffffffff1663ffffffff16815260200161025863ffffffff1663ffffffff16815260200161070863ffffffff1663ffffffff168152602001610e1063ffffffff1663ffffffff168152602001611c2063ffffffff1663ffffffff16815260200161384063ffffffff1663ffffffff16815260200161708063ffffffff1663ffffffff16815260200161e10063ffffffff1663ffffffff1681526020016201518063ffffffff1663ffffffff1681526020016202a30063ffffffff1663ffffffff1681526020016205460063ffffffff1663ffffffff16815260200162093a8063ffffffff1663ffffffff16815250600090600e6200013b929190620001b9565b50600f60025562989680600c553480156200015557600080fd5b50d380156200016357600080fd5b50d280156200017157600080fd5b5033600360006101000a81548173ffffffffffffffffffffffffffffffffffffffff021916908373ffffffffffffffffffffffffffffffffffffffff16021790555062000299565b82600e600701600890048101928215620002505791602002820160005b838211156200021c57835183826101000a81548163ffffffff021916908363ffffffff1602179055509260200192600401602081600301049283019260010302620001d6565b80156200024e5782816101000a81549063ffffffff02191690556004016020816003010492830192600103026200021c565b505b5090506200025f919062000263565b5090565b6200029691905b808211156200029257600081816101000a81549063ffffffff0219169055506001016200026a565b5090565b90565b613ca980620002a96000396000f300608060405260043610610225576000357c0100000000000000000000000000000000000000000000000000000000900463ffffffff1680630153b8ee1461022a57806301ffc9a71461025457806306fdde03146102d2578063095ea7b31461037c578063119c4d63146103e357806318160ddd1461044057806318ad28511461048557806323b872dd1461052757806325d36762146105ae5780632f6db1ee146106345780633ba864fe146106a557806343951343146107165780634558f4c8146107bd57806346116e6f1461082e57806346d22c70146108b55780634dfff04f1461091e57806357cea4fd146109855780636352211e146109f657806364a7d7c714610a7d57806368f2911014610a9d57806370a0823114610afb57806376c0b36714610b6c5780637a7d493714610bdd5780638a8fb54a14610c225780638ca22e1314610c4c57806395d89b4114610cbd57806396b5a75514610d67578063989555f814610dae578063994d953814610e605780639ca7722d14610f025780639d6fac6f14610f73578063a8d4a03b14610fda578063a9059cbb146110d1578063aa54beac14611138578063b0c35c05146111bf578063be9873d214611204578063bfae2f0e146112ae578063c492a1d41461131f578063cb0e2c5a14611364578063d3e6f49f146113c1578063de3e305f14611420578063e17b25af146114a7578063f15f938814611504578063f175408b14611575578063f794ac1f1461159f575b600080fd5b61025260048036038101908080359060200190929190803590602001909291905050506115fc565b005b34801561026057600080fd5b50d3801561026d57600080fd5b50d2801561027a57600080fd5b506102b860048036038101908080357bffffffffffffffffffffffffffffffffffffffffffffffffffffffff19169060200190929190505050611634565b604051808215151515815260200191505060405180910390f35b3480156102de57600080fd5b50d380156102eb57600080fd5b50d280156102f857600080fd5b50610301611945565b6040518080602001828103825283818151815260200191508051906020019080838360005b83811015610341578082015181840152602081019050610326565b50505050905090810190601f16801561036e5780820380516001836020036101000a031916815260200191505b509250505060405180910390f35b34801561038857600080fd5b50d3801561039557600080fd5b50d280156103a257600080fd5b506103e1600480360381019080803573ffffffffffffffffffffffffffffffffffffffff1690602001909291908035906020019092919050505061197e565b005b3480156103ef57600080fd5b50d380156103fc57600080fd5b50d2801561040957600080fd5b5061043e600480360381019080803573ffffffffffffffffffffffffffffffffffffffff169060200190929190505050611a40565b005b34801561044c57600080fd5b50d3801561045957600080fd5b50d2801561046657600080fd5b5061046f611bd1565b6040518082815260200191505060405180910390f35b34801561049157600080fd5b50d3801561049e57600080fd5b50d280156104ab57600080fd5b506104ca60048036038101908080359060200190929190505050611be1565b604051808573ffffffffffffffffffffffffffffffffffffffff1673ffffffffffffffffffffffffffffffffffffffff1681526020018481526020018381526020018260ff1660ff16815260200194505050505060405180910390f35b34801561053357600080fd5b50d3801561054057600080fd5b50d2801561054d57600080fd5b506105ac600480360381019080803573ffffffffffffffffffffffffffffffffffffffff169060200190929190803573ffffffffffffffffffffffffffffffffffffffff16906020019092919080359060200190929190505050611c4d565b005b3480156105ba57600080fd5b50d380156105c757600080fd5b50d280156105d457600080fd5b506105dd611cfe565b6040518080602001828103825283818151815260200191508051906020019060200280838360005b83811015610620578082015181840152602081019050610605565b505050509050019250505060405180910390f35b34801561064057600080fd5b50d3801561064d57600080fd5b50d2801561065a57600080fd5b50610663611d0e565b604051808273ffffffffffffffffffffffffffffffffffffffff1673ffffffffffffffffffffffffffffffffffffffff16815260200191505060405180910390f35b3480156106b157600080fd5b50d380156106be57600080fd5b50d280156106cb57600080fd5b506106d4611d34565b604051808273ffffffffffffffffffffffffffffffffffffffff1673ffffffffffffffffffffffffffffffffffffffff16815260200191505060405180910390f35b34801561072257600080fd5b50d3801561072f57600080fd5b50d2801561073c57600080fd5b506107a760048036038101908080359060200190929190803590602001909291908035906020019092919080359060200190929190803561ffff169060200190929190803573ffffffffffffffffffffffffffffffffffffffff169060200190929190505050611d5a565b6040518082815260200191505060405180910390f35b3480156107c957600080fd5b50d380156107d657600080fd5b50d280156107e357600080fd5b506107ec612095565b604051808273ffffffffffffffffffffffffffffffffffffffff1673ffffffffffffffffffffffffffffffffffffffff16815260200191505060405180910390f35b34801561083a57600080fd5b50d3801561084757600080fd5b50d2801561085457600080fd5b50610873600480360381019080803590602001909291905050506120bb565b604051808273ffffffffffffffffffffffffffffffffffffffff1673ffffffffffffffffffffffffffffffffffffffff16815260200191505060405180910390f35b3480156108c157600080fd5b50d380156108ce57600080fd5b50d280156108db57600080fd5b5061090460048036038101908080359060200190929190803590602001909291905050506120ee565b604051808215151515815260200191505060405180910390f35b34801561092a57600080fd5b50d3801561093757600080fd5b50d2801561094457600080fd5b50610983600480360381019080803573ffffffffffffffffffffffffffffffffffffffff16906020019092919080359060200190929190505050612176565b005b34801561099157600080fd5b50d3801561099e57600080fd5b50d280156109ab57600080fd5b506109b46121e1565b604051808273ffffffffffffffffffffffffffffffffffffffff1673ffffffffffffffffffffffffffffffffffffffff16815260200191505060405180910390f35b348015610a0257600080fd5b50d38015610a0f57600080fd5b50d28015610a1c57600080fd5b50610a3b60048036038101908080359060200190929190505050612207565b604051808273ffffffffffffffffffffffffffffffffffffffff1673ffffffffffffffffffffffffffffffffffffffff16815260200191505060405180910390f35b610a9b60048036038101908080359060200190929190505050612280565b005b348015610aa957600080fd5b50d38015610ab657600080fd5b50d28015610ac357600080fd5b50610af96004803603810190808035906020019092919080359060200190929190803560ff1690602001909291905050506123e9565b005b348015610b0757600080fd5b50d38015610b1457600080fd5b50d28015610b2157600080fd5b50610b56600480360381019080803573ffffffffffffffffffffffffffffffffffffffff1690602001909291905050506124f6565b6040518082815260200191505060405180910390f35b348015610b7857600080fd5b50d38015610b8557600080fd5b50d28015610b9257600080fd5b50610b9b61253f565b604051808273ffffffffffffffffffffffffffffffffffffffff1673ffffffffffffffffffffffffffffffffffffffff16815260200191505060405180910390f35b348015610be957600080fd5b50d38015610bf657600080fd5b50d28015610c0357600080fd5b50610c0c612565565b6040518082815260200191505060405180910390f35b610c4a600480360381019080803590602001909291908035906020019092919050505061256b565b005b348015610c5857600080fd5b50d38015610c6557600080fd5b50d28015610c7257600080fd5b50610c7b6125b4565b604051808273ffffffffffffffffffffffffffffffffffffffff1673ffffffffffffffffffffffffffffffffffffffff16815260200191505060405180910390f35b348015610cc957600080fd5b50d38015610cd657600080fd5b50d28015610ce357600080fd5b50610cec6125da565b6040518080602001828103825283818151815260200191508051906020019080838360005b83811015610d2c578082015181840152602081019050610d11565b50505050905090810190601f168015610d595780820380516001836020036101000a031916815260200191505b509250505060405180910390f35b348015610d7357600080fd5b50d38015610d8057600080fd5b50d28015610d8d57600080fd5b50610dac60048036038101908080359060200190929190505050612613565b005b348015610dba57600080fd5b50d38015610dc757600080fd5b50d28015610dd457600080fd5b50610e09600480360381019080803573ffffffffffffffffffffffffffffffffffffffff16906020019092919050505061272e565b6040518080602001828103825283818151815260200191508051906020019060200280838360005b83811015610e4c578082015181840152602081019050610e31565b505050509050019250505060405180910390f35b348015610e6c57600080fd5b50d38015610e7957600080fd5b50d28015610e8657600080fd5b50610ea56004803603810190808035906020019092919050505061287b565b604051808573ffffffffffffffffffffffffffffffffffffffff1673ffffffffffffffffffffffffffffffffffffffff1681526020018481526020018381526020018260ff1660ff16815260200194505050505060405180910390f35b348015610f0e57600080fd5b50d38015610f1b57600080fd5b50d28015610f2857600080fd5b50610f5d600480360381019080803573ffffffffffffffffffffffffffffffffffffffff169060200190929190505050612955565b6040518082815260200191505060405180910390f35b348015610f7f57600080fd5b50d38015610f8c57600080fd5b50d28015610f9957600080fd5b50610fb86004803603810190808035906020019092919050505061296d565b604051808263ffffffff1663ffffffff16815260200191505060405180910390f35b348015610fe657600080fd5b50d38015610ff357600080fd5b50d2801561100057600080fd5b5061101f6004803603810190808035906020019092919050505061299c565b604051808a81526020018967ffffffffffffffff1667ffffffffffffffff1681526020018867ffffffffffffffff1667ffffffffffffffff1681526020018763ffffffff1663ffffffff1681526020018663ffffffff1663ffffffff1681526020018563ffffffff1663ffffffff1681526020018461ffff1661ffff1681526020018361ffff1661ffff1681526020018261ffff1661ffff168152602001995050505050505050505060405180910390f35b3480156110dd57600080fd5b50d380156110ea57600080fd5b50d280156110f757600080fd5b50611136600480360381019080803573ffffffffffffffffffffffffffffffffffffffff16906020019092919080359060200190929190505050612a7b565b005b34801561114457600080fd5b50d3801561115157600080fd5b50d2801561115e57600080fd5b5061117d60048036038101908080359060200190929190505050612b16565b604051808273ffffffffffffffffffffffffffffffffffffffff1673ffffffffffffffffffffffffffffffffffffffff16815260200191505060405180910390f35b3480156111cb57600080fd5b50d380156111d857600080fd5b50d280156111e557600080fd5b506111ee612b49565b6040518082815260200191505060405180910390f35b34801561121057600080fd5b50d3801561121d57600080fd5b50d2801561122a57600080fd5b50611233612b4f565b6040518080602001828103825283818151815260200191508051906020019080838360005b83811015611273578082015181840152602081019050611258565b50505050905090810190601f1680156112a05780820380516001836020036101000a031916815260200191505b509250505060405180910390f35b3480156112ba57600080fd5b50d380156112c757600080fd5b50d280156112d457600080fd5b506112dd612b8c565b604051808273ffffffffffffffffffffffffffffffffffffffff1673ffffffffffffffffffffffffffffffffffffffff16815260200191505060405180910390f35b34801561132b57600080fd5b50d3801561133857600080fd5b50d2801561134557600080fd5b5061134e612bb2565b6040518082815260200191505060405180910390f35b34801561137057600080fd5b50d3801561137d57600080fd5b50d2801561138a57600080fd5b506113bf600480360381019080803573ffffffffffffffffffffffffffffffffffffffff169060200190929190505050612bbf565b005b3480156113cd57600080fd5b50d380156113da57600080fd5b50d280156113e757600080fd5b5061140660048036038101908080359060200190929190505050612c5f565b604051808215151515815260200191505060405180910390f35b34801561142c57600080fd5b50d3801561143957600080fd5b50d2801561144657600080fd5b5061146560048036038101908080359060200190929190505050612dee565b604051808273ffffffffffffffffffffffffffffffffffffffff1673ffffffffffffffffffffffffffffffffffffffff16815260200191505060405180910390f35b3480156114b357600080fd5b50d380156114c057600080fd5b50d280156114cd57600080fd5b50611502600480360381019080803573ffffffffffffffffffffffffffffffffffffffff169060200190929190505050612e21565b005b34801561151057600080fd5b50d3801561151d57600080fd5b50d2801561152a57600080fd5b50611533612ec1565b604051808273ffffffffffffffffffffffffffffffffffffffff1673ffffffffffffffffffffffffffffffffffffffff16815260200191505060405180910390f35b61159d6004803603810190808035906020019092919080359060200190929190505050612ee7565b005b3480156115ab57600080fd5b50d380156115b857600080fd5b50d280156115c557600080fd5b506115fa600480360381019080803573ffffffffffffffffffffffffffffffffffffffff16906020019092919050505061305f565b005b61160633836130ff565b151561161157600080fd5b61161b33826130ff565b151561162657600080fd5b611630828261316b565b5050565b600060405180807f737570706f727473496e74657266616365286279746573342900000000000000815250601901905060405180910390207bffffffffffffffffffffffffffffffffffffffffffffffffffffffff1916827bffffffffffffffffffffffffffffffffffffffffffffffffffffffff1916148061193e575060405180807f746f6b656e4d657461646174612875696e743235362c737472696e6729000000815250601d019050604051809103902060405180807f6865726f65734f664f776e6572286164647265737329000000000000000000008152506016019050604051809103902060405180807f7472616e7366657246726f6d28616464726573732c616464726573732c75696e81526020017f74323536290000000000000000000000000000000000000000000000000000008152506025019050604051809103902060405180807f7472616e7366657228616464726573732c75696e7432353629000000000000008152506019019050604051809103902060405180807f617070726f766528616464726573732c75696e743235362900000000000000008152506018019050604051809103902060405180807f6f776e65724f662875696e7432353629000000000000000000000000000000008152506010019050604051809103902060405180807f62616c616e63654f6628616464726573732900000000000000000000000000008152506012019050604051809103902060405180807f746f74616c537570706c79282900000000000000000000000000000000000000815250600d019050604051809103902060405180807f73796d626f6c28290000000000000000000000000000000000000000000000008152506008019050604051809103902060405180807f6e616d6528290000000000000000000000000000000000000000000000000000815250600601905060405180910390201818181818181818187bffffffffffffffffffffffffffffffffffffffffffffffffffffffff1916827bffffffffffffffffffffffffffffffffffffffffffffffffffffffff1916145b9050919050565b6040805190810160405280600881526020017f505a4865726f657300000000000000000000000000000000000000000000000081525081565b61198833826130ff565b151561199357600080fd5b61199d818361343b565b7f8c5be1e5ebec7d5bd14f71427d1e84f3dd0314c0f7b2291e5b200ac8c7c3b925338383604051808473ffffffffffffffffffffffffffffffffffffffff1673ffffffffffffffffffffffffffffffffffffffff1681526020018373ffffffffffffffffffffffffffffffffffffffff1673ffffffffffffffffffffffffffffffffffffffff168152602001828152602001935050505060405180910390a15050565b6000600360009054906101000a900473ffffffffffffffffffffffffffffffffffffffff1673ffffffffffffffffffffffffffffffffffffffff163373ffffffffffffffffffffffffffffffffffffffff16141515611a9e57600080fd5b81600e60006101000a81548173ffffffffffffffffffffffffffffffffffffffff021916908373ffffffffffffffffffffffffffffffffffffffff1602179055508190508073ffffffffffffffffffffffffffffffffffffffff166354c15b826040518163ffffffff167c0100000000000000000000000000000000000000000000000000000000028152600401602060405180830381600087803b158015611b4657600080fd5b505af1158015611b5a573d6000803e3d6000fd5b505050506040513d6020811015611b7057600080fd5b81019080805190602001909291905050501515611b8c57600080fd5b80600d60006101000a81548173ffffffffffffffffffffffffffffffffffffffff021916908373ffffffffffffffffffffffffffffffffffffffff1602179055505050565b6000600160068054905003905090565b601281815481101515611bf057fe5b90600052602060002090600402016000915090508060000160009054906101000a900473ffffffffffffffffffffffffffffffffffffffff16908060010154908060020154908060030160009054906101000a900460ff16905084565b600073ffffffffffffffffffffffffffffffffffffffff168273ffffffffffffffffffffffffffffffffffffffff1614151515611c8957600080fd5b3073ffffffffffffffffffffffffffffffffffffffff168273ffffffffffffffffffffffffffffffffffffffff1614151515611cc457600080fd5b611cce3382613491565b1515611cd957600080fd5b611ce383826130ff565b1515611cee57600080fd5b611cf98383836134fd565b505050565b6060611d093061272e565b905090565b600560009054906101000a900473ffffffffffffffffffffffffffffffffffffffff1681565b600d60009054906101000a900473ffffffffffffffffffffffffffffffffffffffff1681565b600080611d65613bbc565b60008963ffffffff168a141515611d7b57600080fd5b8863ffffffff1689141515611d8f57600080fd5b8761ffff1688141515611da157600080fd5b600288811515611dad57fe5b049250600d8361ffff161115611dc257600d92505b610120604051908101604052808881526020014267ffffffffffffffff168152602001600067ffffffffffffffff1681526020018b63ffffffff1681526020018a63ffffffff168152602001600063ffffffff1681526020018461ffff1681526020018961ffff1681526020018761ffff1681525091506001600683908060018154018082558091505090600182039060005260206000209060030201600090919290919091506000820151816000015560208201518160010160006101000a81548167ffffffffffffffff021916908367ffffffffffffffff16021790555060408201518160010160086101000a81548167ffffffffffffffff021916908367ffffffffffffffff16021790555060608201518160010160106101000a81548163ffffffff021916908363ffffffff16021790555060808201518160010160146101000a81548163ffffffff021916908363ffffffff16021790555060a08201518160010160186101000a81548163ffffffff021916908363ffffffff16021790555060c082015181600101601c6101000a81548161ffff021916908361ffff16021790555060e082015181600101601e6101000a81548161ffff021916908361ffff1602179055506101008201518160020160006101000a81548161ffff021916908361ffff16021790555050500390508063ffffffff1681141515611fc957600080fd5b7f6bdb6252e3aabe7c79b1e94c2d24f9cbed550af06f37098cc8e28e34c6140c668582846060015163ffffffff16856080015163ffffffff168660000151876101000151604051808773ffffffffffffffffffffffffffffffffffffffff1673ffffffffffffffffffffffffffffffffffffffff1681526020018681526020018581526020018481526020018381526020018261ffff1661ffff168152602001965050505050505060405180910390a1612085600086836134fd565b8093505050509695505050505050565b600f60009054906101000a900473ffffffffffffffffffffffffffffffffffffffff1681565b600a6020528060005260406000206000915054906101000a900473ffffffffffffffffffffffffffffffffffffffff1681565b6000806000808511151561210157600080fd5b60008411151561211057600080fd5b60068581548110151561211f57fe5b9060005260206000209060030201915060068481548110151561213e57fe5b9060005260206000209060030201905061215a82868387613735565b801561216c575061216b848661394a565b5b9250505092915050565b61218033826130ff565b151561218b57600080fd5b81600a600083815260200190815260200160002060006101000a81548173ffffffffffffffffffffffffffffffffffffffff021916908373ffffffffffffffffffffffffffffffffffffffff1602179055505050565b600e60009054906101000a900473ffffffffffffffffffffffffffffffffffffffff1681565b60006007600083815260200190815260200160002060009054906101000a900473ffffffffffffffffffffffffffffffffffffffff169050600073ffffffffffffffffffffffffffffffffffffffff168173ffffffffffffffffffffffffffffffffffffffff161415151561227b57600080fd5b919050565b612288613c3b565b61229230836130ff565b151561229d57600080fd5b60116000838152602001908152602001600020608060405190810160405290816000820160009054906101000a900473ffffffffffffffffffffffffffffffffffffffff1673ffffffffffffffffffffffffffffffffffffffff1673ffffffffffffffffffffffffffffffffffffffff16815260200160018201548152602001600282015481526020016003820160009054906101000a900460ff1660ff1660ff1681525050905061234f33836130ff565b15151561235b57600080fd5b34816020015114151561236d57600080fd5b600060ff16816060015160ff1614151561238657600080fd5b61238f82613a5d565b61239a3033846134fd565b806000015173ffffffffffffffffffffffffffffffffffffffff166108fc349081150290604051600060405180830381858888f193505050501580156123e4573d6000803e3d6000fd5b505050565b6123f1613c3b565b6123fb33846130ff565b151561240657600080fd5b60008411151561241557600080fd5b6080604051908101604052803373ffffffffffffffffffffffffffffffffffffffff1681526020018581526020018481526020018360ff16815250905061245d3330856134fd565b806011600085815260200190815260200160002060008201518160000160006101000a81548173ffffffffffffffffffffffffffffffffffffffff021916908373ffffffffffffffffffffffffffffffffffffffff160217905550602082015181600101556040820151816002015560608201518160030160006101000a81548160ff021916908360ff16021790555090505050505050565b6000600860008373ffffffffffffffffffffffffffffffffffffffff1673ffffffffffffffffffffffffffffffffffffffff168152602001908152602001600020549050919050565b600460009054906101000a900473ffffffffffffffffffffffffffffffffffffffff1681565b60025481565b600c54341015151561257c57600080fd5b61258633836130ff565b151561259157600080fd5b61259b33826130ff565b15156125a657600080fd5b6125b0828261316b565b5050565b601060009054906101000a900473ffffffffffffffffffffffffffffffffffffffff1681565b6040805190810160405280600281526020017f504800000000000000000000000000000000000000000000000000000000000081525081565b61261b613c3b565b61262530836130ff565b151561263057600080fd5b60116000838152602001908152602001600020608060405190810160405290816000820160009054906101000a900473ffffffffffffffffffffffffffffffffffffffff1673ffffffffffffffffffffffffffffffffffffffff1673ffffffffffffffffffffffffffffffffffffffff16815260200160018201548152602001600282015481526020016003820160009054906101000a900460ff1660ff1660ff16815250509050806000015173ffffffffffffffffffffffffffffffffffffffff163373ffffffffffffffffffffffffffffffffffffffff1614151561271657600080fd5b61271f82613a5d565b61272a3033846134fd565b5050565b6060600060606000806000612742876124f6565b9450600085141561278557600060405190808252806020026020018201604052801561277d5781602001602082028038833980820191505090505b509550612871565b846040519080825280602002602001820160405280156127b45781602001602082028038833980820191505090505b5093506127bf611bd1565b925060009150600190505b828111151561286d578673ffffffffffffffffffffffffffffffffffffffff166007600083815260200190815260200160002060009054906101000a900473ffffffffffffffffffffffffffffffffffffffff1673ffffffffffffffffffffffffffffffffffffffff1614156128605780848381518110151561284957fe5b906020019060200201818152505081806001019250505b80806001019150506127ca565b8395505b5050505050919050565b600080600080612889613c3b565b60116000878152602001908152602001600020608060405190810160405290816000820160009054906101000a900473ffffffffffffffffffffffffffffffffffffffff1673ffffffffffffffffffffffffffffffffffffffff1673ffffffffffffffffffffffffffffffffffffffff16815260200160018201548152602001600282015481526020016003820160009054906101000a900460ff1660ff1660ff1681525050905080600001518160200151826040015183606001519450945094509450509193509193565b60086020528060005260406000206000915090505481565b600081600e8110151561297c57fe5b60089182820401919006600402915054906101000a900463ffffffff1681565b6006818154811015156129ab57fe5b90600052602060002090600302016000915090508060000154908060010160009054906101000a900467ffffffffffffffff16908060010160089054906101000a900467ffffffffffffffff16908060010160109054906101000a900463ffffffff16908060010160149054906101000a900463ffffffff16908060010160189054906101000a900463ffffffff169080600101601c9054906101000a900461ffff169080600101601e9054906101000a900461ffff16908060020160009054906101000a900461ffff16905089565b600073ffffffffffffffffffffffffffffffffffffffff168273ffffffffffffffffffffffffffffffffffffffff1614151515612ab757600080fd5b3073ffffffffffffffffffffffffffffffffffffffff168273ffffffffffffffffffffffffffffffffffffffff1614151515612af257600080fd5b612afc33826130ff565b1515612b0757600080fd5b612b123383836134fd565b5050565b60076020528060005260406000206000915054906101000a900473ffffffffffffffffffffffffffffffffffffffff1681565b600c5481565b60606040805190810160405280600a81526020017f4272656564205465737400000000000000000000000000000000000000000000815250905090565b600360009054906101000a900473ffffffffffffffffffffffffffffffffffffffff1681565b6000601280549050905090565b600360009054906101000a900473ffffffffffffffffffffffffffffffffffffffff1673ffffffffffffffffffffffffffffffffffffffff163373ffffffffffffffffffffffffffffffffffffffff16141515612c1b57600080fd5b80600560006101000a81548173ffffffffffffffffffffffffffffffffffffffff021916908373ffffffffffffffffffffffffffffffffffffffff16021790555050565b600080600083111515612c7157600080fd5b600683815481101515612c8057fe5b90600052602060002090600302019050612de6816101206040519081016040529081600082015481526020016001820160009054906101000a900467ffffffffffffffff1667ffffffffffffffff1667ffffffffffffffff1681526020016001820160089054906101000a900467ffffffffffffffff1667ffffffffffffffff1667ffffffffffffffff1681526020016001820160109054906101000a900463ffffffff1663ffffffff1663ffffffff1681526020016001820160149054906101000a900463ffffffff1663ffffffff1663ffffffff1681526020016001820160189054906101000a900463ffffffff1663ffffffff1663ffffffff16815260200160018201601c9054906101000a900461ffff1661ffff1661ffff16815260200160018201601e9054906101000a900461ffff1661ffff1661ffff1681526020016002820160009054906101000a900461ffff1661ffff1661ffff1681525050613ac1565b915050919050565b60096020528060005260406000206000915054906101000a900473ffffffffffffffffffffffffffffffffffffffff1681565b600360009054906101000a900473ffffffffffffffffffffffffffffffffffffffff1673ffffffffffffffffffffffffffffffffffffffff163373ffffffffffffffffffffffffffffffffffffffff16141515612e7d57600080fd5b80600b60006101000a81548173ffffffffffffffffffffffffffffffffffffffff021916908373ffffffffffffffffffffffffffffffffffffffff16021790555050565b600b60009054906101000a900473ffffffffffffffffffffffffffffffffffffffff1681565b612eef613c3b565b612ef930846130ff565b1515612f0457600080fd5b60116000848152602001908152602001600020608060405190810160405290816000820160009054906101000a900473ffffffffffffffffffffffffffffffffffffffff1673ffffffffffffffffffffffffffffffffffffffff1673ffffffffffffffffffffffffffffffffffffffff16815260200160018201548152602001600282015481526020016003820160009054906101000a900460ff1660ff1660ff16815250509050612fb633846130ff565b151515612fc257600080fd5b348160200151141515612fd457600080fd5b600160ff16816060015160ff16141515612fed57600080fd5b612ff683613a5d565b613005308260000151856134fd565b61300f838361316b565b806000015173ffffffffffffffffffffffffffffffffffffffff166108fc349081150290604051600060405180830381858888f19350505050158015613059573d6000803e3d6000fd5b50505050565b600360009054906101000a900473ffffffffffffffffffffffffffffffffffffffff1673ffffffffffffffffffffffffffffffffffffffff163373ffffffffffffffffffffffffffffffffffffffff161415156130bb57600080fd5b80600460006101000a81548173ffffffffffffffffffffffffffffffffffffffff021916908373ffffffffffffffffffffffffffffffffffffffff16021790555050565b60008273ffffffffffffffffffffffffffffffffffffffff166007600084815260200190815260200160002060009054906101000a900473ffffffffffffffffffffffffffffffffffffffff1673ffffffffffffffffffffffffffffffffffffffff1614905092915050565b60008060068381548110151561317d57fe5b9060005260206000209060030201915060068481548110151561319c57fe5b90600052602060002090600302019050828160010160186101000a81548163ffffffff021916908363ffffffff1602179055506131d882613ae6565b6131e181613ae6565b600a600085815260200190815260200160002060006101000a81549073ffffffffffffffffffffffffffffffffffffffff0219169055600a600084815260200190815260200160002060006101000a81549073ffffffffffffffffffffffffffffffffffffffff0219169055600f60009054906101000a900473ffffffffffffffffffffffffffffffffffffffff1673ffffffffffffffffffffffffffffffffffffffff1663e11625696007600087815260200190815260200160002060009054906101000a900473ffffffffffffffffffffffffffffffffffffffff1686866040518463ffffffff167c0100000000000000000000000000000000000000000000000000000000028152600401808473ffffffffffffffffffffffffffffffffffffffff1673ffffffffffffffffffffffffffffffffffffffff1681526020018381526020018281526020019350505050600060405180830381600087803b15801561334d57600080fd5b505af1158015613361573d6000803e3d6000fd5b505050507f241ea03ca20251805084d27d4440371c34a0b85ff108f6bb5611248f73818b806007600086815260200190815260200160002060009054906101000a900473ffffffffffffffffffffffffffffffffffffffff1685858460010160089054906101000a900467ffffffffffffffff16604051808573ffffffffffffffffffffffffffffffffffffffff1673ffffffffffffffffffffffffffffffffffffffff1681526020018481526020018381526020018267ffffffffffffffff16815260200194505050505060405180910390a150505050565b806009600084815260200190815260200160002060006101000a81548173ffffffffffffffffffffffffffffffffffffffff021916908373ffffffffffffffffffffffffffffffffffffffff1602179055505050565b60008273ffffffffffffffffffffffffffffffffffffffff166009600084815260200190815260200160002060009054906101000a900473ffffffffffffffffffffffffffffffffffffffff1673ffffffffffffffffffffffffffffffffffffffff1614905092915050565b600860008373ffffffffffffffffffffffffffffffffffffffff1673ffffffffffffffffffffffffffffffffffffffff16815260200190815260200160002060008154809291906001019190505550816007600083815260200190815260200160002060006101000a81548173ffffffffffffffffffffffffffffffffffffffff021916908373ffffffffffffffffffffffffffffffffffffffff160217905550600073ffffffffffffffffffffffffffffffffffffffff168373ffffffffffffffffffffffffffffffffffffffff1614151561369157600860008473ffffffffffffffffffffffffffffffffffffffff1673ffffffffffffffffffffffffffffffffffffffff1681526020019081526020016000206000815480929190600190039190505550600a600082815260200190815260200160002060006101000a81549073ffffffffffffffffffffffffffffffffffffffff02191690556009600082815260200190815260200160002060006101000a81549073ffffffffffffffffffffffffffffffffffffffff02191690555b7fddf252ad1be2c89b69c2b068fc378daa952ba7f163c4a11628f55a4df523b3ef838383604051808473ffffffffffffffffffffffffffffffffffffffff1673ffffffffffffffffffffffffffffffffffffffff1681526020018373ffffffffffffffffffffffffffffffffffffffff1673ffffffffffffffffffffffffffffffffffffffff168152602001828152602001935050505060405180910390a1505050565b6000818414156137485760009050613942565b818560010160109054906101000a900463ffffffff1663ffffffff1614806137895750818560010160149054906101000a900463ffffffff1663ffffffff16145b156137975760009050613942565b838360010160109054906101000a900463ffffffff1663ffffffff1614806137d85750838360010160149054906101000a900463ffffffff1663ffffffff16145b156137e65760009050613942565b60008360010160109054906101000a900463ffffffff1663ffffffff161480613829575060008560010160109054906101000a900463ffffffff1663ffffffff16145b156138375760019050613942565b8460010160109054906101000a900463ffffffff1663ffffffff168360010160109054906101000a900463ffffffff1663ffffffff1614806138ac57508460010160149054906101000a900463ffffffff1663ffffffff168360010160109054906101000a900463ffffffff1663ffffffff16145b156138ba5760009050613942565b8460010160109054906101000a900463ffffffff1663ffffffff168360010160149054906101000a900463ffffffff1663ffffffff16148061392f57508460010160149054906101000a900463ffffffff1663ffffffff168360010160149054906101000a900463ffffffff1663ffffffff16145b1561393d5760009050613942565b600190505b949350505050565b60008060006007600085815260200190815260200160002060009054906101000a900473ffffffffffffffffffffffffffffffffffffffff1691506007600086815260200190815260200160002060009054906101000a900473ffffffffffffffffffffffffffffffffffffffff1690508073ffffffffffffffffffffffffffffffffffffffff168273ffffffffffffffffffffffffffffffffffffffff161480613a5357508173ffffffffffffffffffffffffffffffffffffffff16600a600087815260200190815260200160002060009054906101000a900473ffffffffffffffffffffffffffffffffffffffff1673ffffffffffffffffffffffffffffffffffffffff16145b9250505092915050565b60116000828152602001908152602001600020600080820160006101000a81549073ffffffffffffffffffffffffffffffffffffffff0219169055600182016000905560028201600090556003820160006101000a81549060ff0219169055505050565b60004367ffffffffffffffff16826040015167ffffffffffffffff1611159050919050565b43600254600083600101601c9054906101000a900461ffff1661ffff16600e81101515613b0f57fe5b600891828204019190066004029054906101000a900463ffffffff1663ffffffff16811515613b3a57fe5b04018160010160086101000a81548167ffffffffffffffff021916908367ffffffffffffffff160217905550600d81600101601c9054906101000a900461ffff1661ffff161015613bb957600181600101601c8282829054906101000a900461ffff160192506101000a81548161ffff021916908361ffff1602179055505b50565b6101206040519081016040528060008152602001600067ffffffffffffffff168152602001600067ffffffffffffffff168152602001600063ffffffff168152602001600063ffffffff168152602001600063ffffffff168152602001600061ffff168152602001600061ffff168152602001600061ffff1681525090565b608060405190810160405280600073ffffffffffffffffffffffffffffffffffffffff1681526020016000815260200160008152602001600060ff16815250905600a165627a7a723058207765f15db2492302706c5bf7ad1376e5e33eacf09c7f7b4d8dfb0a5ac12fb0580029",
  "source": "pragma solidity ^0.4.25;\n\nimport \"./PZHeroBreeding.sol\";\n\ncontract PZHeroMarketplace is PZHeroBreeding\n{\n    uint8 private constant       PZ_HERO_AUCTION_SALE = 0;\n    uint8 private constant       PZ_HERO_AUCTION_SIRE = 1;\n\n    struct HeroAuction {\n        address seller;\n        uint256 startingPrice;\n        uint256 heroId;\n        uint8   auctionType;\n        // uint256 endingPrice;\n        // uint64  duration;\n        // uint64  startedAt;\n    }\n\n    mapping (uint256 => HeroAuction) heroIdToAuction;\n    HeroAuction[] public       heroAuctions;\n\n    /**\n    * Constructor\n    *\n     */\n    constructor() public\n    {\n \n    }\n\n    /**\n    * Get Ids of Heroes on the Marketplace Sale\n    *\n    * @return heroesOfOwner               Heroes of Owner\n    *\n     */\n    function getHeroIdsOnSale() public view returns(uint256[])\n    {\n        return heroesOfOwner(this);\n    }\n\n    /**\n    * Place an Hero to Aunction on marketplace\n    *\n    * @param _price                 Price to Sell\n    * @param _heroId                Hero Id\n    * @param _auctionType           Auction type; sale or sire\n    *\n     */\n    function addAuction(uint _price, uint _heroId, uint8 _auctionType) public\n    {\n        require(_owns(msg.sender, _heroId));\n        require(_price > 0);\n\n        HeroAuction memory _auction = HeroAuction(msg.sender, _price, _heroId, _auctionType);\n\n        // uint256 newAuctionId = HeroAuctions.push(_auction) - 1;\n        _transfer(msg.sender, this, _heroId);\n        heroIdToAuction[_heroId] = _auction;\n    }\n\n    /**\n    * Get Information of Auction By Hero ID\n    *\n    * @param _heroId                 Hero Id\n    *\n    * @return seller                Seller's Address\n    * @return price                 Price\n    * @return heroId                Hero Id\n    * @return auctionType           Auction Type\n    *\n     */\n    function getHeroAuctionByheroId(uint256 _heroId)\n        public\n        view\n        returns(address seller, uint256 price, uint256 heroId, uint8 auctionType)\n    {\n        HeroAuction memory _auction = heroIdToAuction[_heroId];\n        return(_auction.seller, _auction.startingPrice, _auction.heroId, _auction.auctionType);\n    }\n\n    /**\n    * Get Count of Auction Sale\n    *\n    * @return count                Count of Auction Sale\n    *\n     */\n    function getHeroAuctionCount() external view returns(uint256)\n    {\n        return heroAuctions.length;\n    }\n\n    /**\n    * Remove Auction By Hero ID\n    *\n    * @param _heroId                 Hero ID\n    *\n     */\n    function _removeAuction(uint256 _heroId) internal {\n        delete heroIdToAuction[_heroId];\n    }\n\n    /**\n    * Bid on Auction Sale\n    *\n    * @param _heroId                 Hero ID\n    *\n     */\n    function bidAuction(uint256 _heroId) external payable\n    {\n        require(_owns(address(this), _heroId));\n        HeroAuction memory _auction = heroIdToAuction[_heroId];\n        require(!_owns(msg.sender, _heroId));\n        require(_auction.startingPrice == msg.value);\n        require(_auction.auctionType == PZ_HERO_AUCTION_SALE);\n\n        _removeAuction(_heroId);\n        _transfer(this, msg.sender, _heroId);\n        _auction.seller.transfer(msg.value);\n    }\n\n    /**\n    * Bid on Auction Sire\n    *\n    * @param _heroId                 Hero ID\n    * @param _sireId                 Sire ID\n    *\n     */\n    function bidSire(uint256 _heroId, uint256 _sireId) external payable\n    {\n        require(_owns(address(this), _heroId));\n        HeroAuction memory _auction = heroIdToAuction[_heroId];\n        require(!_owns(msg.sender, _heroId));\n        require(_auction.startingPrice == msg.value);\n        require(_auction.auctionType == PZ_HERO_AUCTION_SIRE);\n\n        _removeAuction(_heroId);\n        _transfer(this, _auction.seller, _heroId);\n        _breedWith(_heroId, _sireId);\n        _auction.seller.transfer(msg.value);\n    }\n\n    /**\n    * Cancel Auction By Hero ID\n    *\n    * @param _heroId                 Hero ID\n    *\n     */\n    function cancelAuction(uint256 _heroId) external\n    {\n        require(_owns(address(this), _heroId));\n        HeroAuction memory _auction = heroIdToAuction[_heroId];\n        require(msg.sender == _auction.seller);\n\n        _removeAuction(_heroId);\n        _transfer(this, msg.sender, _heroId);\n    }\n}",
  "sourcePath": "/Volumes/Backup/workspace/Dave(Tron_NFT)/pizzaHero/contracts/PZHeroMarketplace.sol",
  "compiler": {
    "name": "solc",
    "version": "0.4.25+commit.69a1e720.Emscripten.clang"
  },
  "schemaVersion": "2.0.1",
  "updatedAt": "2020-01-09T11:58:49.593Z"
}