{
  "contractName": "PZHeroBase",
  "abi": [
    {
      "constant": true,
      "inputs": [],
      "name": "addrItemCore",
      "outputs": [
        {
          "name": "",
          "type": "address"
        }
      ],
      "payable": false,
      "stateMutability": "view",
      "type": "function"
    },
    {
      "constant": true,
      "inputs": [
        {
          "name": "",
          "type": "uint256"
        }
      ],
      "name": "sireAllowedToAddress",
      "outputs": [
        {
          "name": "",
          "type": "address"
        }
      ],
      "payable": false,
      "stateMutability": "view",
      "type": "function"
    },
    {
      "constant": true,
      "inputs": [],
      "name": "addrChest",
      "outputs": [
        {
          "name": "",
          "type": "address"
        }
      ],
      "payable": false,
      "stateMutability": "view",
      "type": "function"
    },
    {
      "constant": true,
      "inputs": [],
      "name": "secondsPerBlock",
      "outputs": [
        {
          "name": "",
          "type": "uint256"
        }
      ],
      "payable": false,
      "stateMutability": "view",
      "type": "function"
    },
    {
      "constant": true,
      "inputs": [
        {
          "name": "",
          "type": "address"
        }
      ],
      "name": "ownershipHeroCount",
      "outputs": [
        {
          "name": "",
          "type": "uint256"
        }
      ],
      "payable": false,
      "stateMutability": "view",
      "type": "function"
    },
    {
      "constant": true,
      "inputs": [
        {
          "name": "",
          "type": "uint256"
        }
      ],
      "name": "cooldowns",
      "outputs": [
        {
          "name": "",
          "type": "uint32"
        }
      ],
      "payable": false,
      "stateMutability": "view",
      "type": "function"
    },
    {
      "constant": true,
      "inputs": [
        {
          "name": "",
          "type": "uint256"
        }
      ],
      "name": "heroes",
      "outputs": [
        {
          "name": "date",
          "type": "uint256"
        },
        {
          "name": "price",
          "type": "uint256"
        },
        {
          "name": "tokenId",
          "type": "uint256"
        },
        {
          "name": "tokenPrice",
          "type": "uint256"
        },
        {
          "name": "genes",
          "type": "uint256"
        },
        {
          "name": "birthTime",
          "type": "uint64"
        },
        {
          "name": "cooldownEndBlock",
          "type": "uint64"
        },
        {
          "name": "matronId",
          "type": "uint32"
        },
        {
          "name": "sireId",
          "type": "uint32"
        },
        {
          "name": "siringWithId",
          "type": "uint32"
        },
        {
          "name": "cooldownIndex",
          "type": "uint16"
        },
        {
          "name": "generation",
          "type": "uint16"
        },
        {
          "name": "level",
          "type": "uint16"
        }
      ],
      "payable": false,
      "stateMutability": "view",
      "type": "function"
    },
    {
      "constant": true,
      "inputs": [
        {
          "name": "",
          "type": "uint256"
        }
      ],
      "name": "heroIndexToOwner",
      "outputs": [
        {
          "name": "",
          "type": "address"
        }
      ],
      "payable": false,
      "stateMutability": "view",
      "type": "function"
    },
    {
      "constant": true,
      "inputs": [],
      "name": "addrAdmin",
      "outputs": [
        {
          "name": "",
          "type": "address"
        }
      ],
      "payable": false,
      "stateMutability": "view",
      "type": "function"
    },
    {
      "constant": true,
      "inputs": [
        {
          "name": "",
          "type": "uint256"
        }
      ],
      "name": "heroIndexToApproved",
      "outputs": [
        {
          "name": "",
          "type": "address"
        }
      ],
      "payable": false,
      "stateMutability": "view",
      "type": "function"
    },
    {
      "inputs": [],
      "payable": false,
      "stateMutability": "nonpayable",
      "type": "constructor"
    },
    {
      "anonymous": false,
      "inputs": [
        {
          "indexed": false,
          "name": "from",
          "type": "address"
        },
        {
          "indexed": false,
          "name": "to",
          "type": "address"
        },
        {
          "indexed": false,
          "name": "itemId",
          "type": "uint256"
        }
      ],
      "name": "Transfer",
      "type": "event"
    },
    {
      "anonymous": false,
      "inputs": [
        {
          "indexed": false,
          "name": "owner",
          "type": "address"
        },
        {
          "indexed": false,
          "name": "kittyId",
          "type": "uint256"
        },
        {
          "indexed": false,
          "name": "matronId",
          "type": "uint256"
        },
        {
          "indexed": false,
          "name": "sireId",
          "type": "uint256"
        },
        {
          "indexed": false,
          "name": "genes",
          "type": "uint256"
        },
        {
          "indexed": false,
          "name": "level",
          "type": "uint16"
        }
      ],
      "name": "Birth",
      "type": "event"
    },
    {
      "constant": false,
      "inputs": [
        {
          "name": "_addrChest",
          "type": "address"
        }
      ],
      "name": "setChestAddress",
      "outputs": [],
      "payable": false,
      "stateMutability": "nonpayable",
      "type": "function"
    },
    {
      "constant": false,
      "inputs": [
        {
          "name": "_addrItem",
          "type": "address"
        }
      ],
      "name": "setItemCoreAddress",
      "outputs": [],
      "payable": false,
      "stateMutability": "nonpayable",
      "type": "function"
    },
    {
      "constant": false,
      "inputs": [
        {
          "name": "_date",
          "type": "uint256"
        },
        {
          "name": "_price",
          "type": "uint256"
        },
        {
          "name": "_tokenId",
          "type": "uint256"
        },
        {
          "name": "_tokenPrice",
          "type": "uint256"
        },
        {
          "name": "_matronId",
          "type": "uint256"
        },
        {
          "name": "_sireId",
          "type": "uint256"
        },
        {
          "name": "_generation",
          "type": "uint256"
        },
        {
          "name": "_genes",
          "type": "uint256"
        },
        {
          "name": "_level",
          "type": "uint16"
        },
        {
          "name": "_owner",
          "type": "address"
        }
      ],
      "name": "createHero",
      "outputs": [
        {
          "name": "",
          "type": "uint256"
        }
      ],
      "payable": false,
      "stateMutability": "nonpayable",
      "type": "function"
    }
  ],
  "bytecode": "0x60806040526101c060405190810160405280603c63ffffffff1663ffffffff168152602001607863ffffffff1663ffffffff16815260200161012c63ffffffff1663ffffffff16815260200161025863ffffffff1663ffffffff16815260200161070863ffffffff1663ffffffff168152602001610e1063ffffffff1663ffffffff168152602001611c2063ffffffff1663ffffffff16815260200161384063ffffffff1663ffffffff16815260200161708063ffffffff1663ffffffff16815260200161e10063ffffffff1663ffffffff1681526020016201518063ffffffff1663ffffffff1681526020016202a30063ffffffff1663ffffffff1681526020016205460063ffffffff1663ffffffff16815260200162093a8063ffffffff1663ffffffff16815250600090600e6200013b929190620001b2565b50600f6002553480156200014e57600080fd5b50d380156200015c57600080fd5b50d280156200016a57600080fd5b5033600360006101000a81548173ffffffffffffffffffffffffffffffffffffffff021916908373ffffffffffffffffffffffffffffffffffffffff16021790555062000292565b82600e600701600890048101928215620002495791602002820160005b838211156200021557835183826101000a81548163ffffffff021916908363ffffffff1602179055509260200192600401602081600301049283019260010302620001cf565b8015620002475782816101000a81549063ffffffff021916905560040160208160030104928301926001030262000215565b505b5090506200025891906200025c565b5090565b6200028f91905b808211156200028b57600081816101000a81549063ffffffff02191690555060010162000263565b5090565b90565b61104380620002a26000396000f3fe608060405234801561001057600080fd5b50d3801561001d57600080fd5b50d2801561002a57600080fd5b5060043610610106576000357c010000000000000000000000000000000000000000000000000000000090048063a8d4a03b116100c3578063cb0e2c5a1161009d578063cb0e2c5a14610483578063de3e305f146104c7578063e32170ae14610535578063f794ac1f146105ec57610106565b8063a8d4a03b146102d1578063aa54beac146103cb578063bfae2f0e1461043957610106565b80632f6db1ee1461010b57806346116e6f1461015557806376c0b367146101c35780637a7d49371461020d5780639ca7722d1461022b5780639d6fac6f14610283575b600080fd5b610113610630565b604051808273ffffffffffffffffffffffffffffffffffffffff1673ffffffffffffffffffffffffffffffffffffffff16815260200191505060405180910390f35b6101816004803603602081101561016b57600080fd5b8101908080359060200190929190505050610656565b604051808273ffffffffffffffffffffffffffffffffffffffff1673ffffffffffffffffffffffffffffffffffffffff16815260200191505060405180910390f35b6101cb610689565b604051808273ffffffffffffffffffffffffffffffffffffffff1673ffffffffffffffffffffffffffffffffffffffff16815260200191505060405180910390f35b6102156106af565b6040518082815260200191505060405180910390f35b61026d6004803603602081101561024157600080fd5b81019080803573ffffffffffffffffffffffffffffffffffffffff1690602001909291905050506106b5565b6040518082815260200191505060405180910390f35b6102af6004803603602081101561029957600080fd5b81019080803590602001909291905050506106cd565b604051808263ffffffff1663ffffffff16815260200191505060405180910390f35b6102fd600480360360208110156102e757600080fd5b81019080803590602001909291905050506106fc565b604051808e81526020018d81526020018c81526020018b81526020018a81526020018967ffffffffffffffff1667ffffffffffffffff1681526020018867ffffffffffffffff1667ffffffffffffffff1681526020018763ffffffff1663ffffffff1681526020018663ffffffff1663ffffffff1681526020018563ffffffff1663ffffffff1681526020018461ffff1661ffff1681526020018361ffff1661ffff1681526020018261ffff1661ffff1681526020019d505050505050505050505050505060405180910390f35b6103f7600480360360208110156103e157600080fd5b81019080803590602001909291905050506107f3565b604051808273ffffffffffffffffffffffffffffffffffffffff1673ffffffffffffffffffffffffffffffffffffffff16815260200191505060405180910390f35b610441610826565b604051808273ffffffffffffffffffffffffffffffffffffffff1673ffffffffffffffffffffffffffffffffffffffff16815260200191505060405180910390f35b6104c56004803603602081101561049957600080fd5b81019080803573ffffffffffffffffffffffffffffffffffffffff16906020019092919050505061084c565b005b6104f3600480360360208110156104dd57600080fd5b81019080803590602001909291905050506108ec565b604051808273ffffffffffffffffffffffffffffffffffffffff1673ffffffffffffffffffffffffffffffffffffffff16815260200191505060405180910390f35b6105d6600480360361014081101561054c57600080fd5b810190808035906020019092919080359060200190929190803590602001909291908035906020019092919080359060200190929190803590602001909291908035906020019092919080359060200190929190803561ffff169060200190929190803573ffffffffffffffffffffffffffffffffffffffff16906020019092919050505061091f565b6040518082815260200191505060405180910390f35b61062e6004803603602081101561060257600080fd5b81019080803573ffffffffffffffffffffffffffffffffffffffff169060200190929190505050610ca4565b005b600560009054906101000a900473ffffffffffffffffffffffffffffffffffffffff1681565b600a6020528060005260406000206000915054906101000a900473ffffffffffffffffffffffffffffffffffffffff1681565b600460009054906101000a900473ffffffffffffffffffffffffffffffffffffffff1681565b60025481565b60086020528060005260406000206000915090505481565b600081600e811015156106dc57fe5b60089182820401919006600402915054906101000a900463ffffffff1681565b60068181548110151561070b57fe5b90600052602060002090600702016000915090508060000154908060010154908060020154908060030154908060040154908060050160009054906101000a900467ffffffffffffffff16908060050160089054906101000a900467ffffffffffffffff16908060050160109054906101000a900463ffffffff16908060050160149054906101000a900463ffffffff16908060050160189054906101000a900463ffffffff169080600501601c9054906101000a900461ffff169080600501601e9054906101000a900461ffff16908060060160009054906101000a900461ffff1690508d565b60076020528060005260406000206000915054906101000a900473ffffffffffffffffffffffffffffffffffffffff1681565b600360009054906101000a900473ffffffffffffffffffffffffffffffffffffffff1681565b600360009054906101000a900473ffffffffffffffffffffffffffffffffffffffff1673ffffffffffffffffffffffffffffffffffffffff163373ffffffffffffffffffffffffffffffffffffffff161415156108a857600080fd5b80600560006101000a81548173ffffffffffffffffffffffffffffffffffffffff021916908373ffffffffffffffffffffffffffffffffffffffff16021790555050565b60096020528060005260406000206000915054906101000a900473ffffffffffffffffffffffffffffffffffffffff1681565b60008663ffffffff168714151561093557600080fd5b8563ffffffff168614151561094957600080fd5b8461ffff168514151561095b57600080fd5b600060028681151561096957fe5b049050600d8161ffff16111561097e57600d90505b610986610f7c565b6101a0604051908101604052808e81526020018d81526020018c81526020018b81526020018781526020014267ffffffffffffffff168152602001600067ffffffffffffffff1681526020018a63ffffffff1681526020018963ffffffff168152602001600063ffffffff1681526020018361ffff1681526020018861ffff1681526020018661ffff1681525090506000600160068390806001815401808255809150509060018203906000526020600020906007020160009091929091909150600082015181600001556020820151816001015560408201518160020155606082015181600301556080820151816004015560a08201518160050160006101000a81548167ffffffffffffffff021916908367ffffffffffffffff16021790555060c08201518160050160086101000a81548167ffffffffffffffff021916908367ffffffffffffffff16021790555060e08201518160050160106101000a81548163ffffffff021916908363ffffffff1602179055506101008201518160050160146101000a81548163ffffffff021916908363ffffffff1602179055506101208201518160050160186101000a81548163ffffffff021916908363ffffffff16021790555061014082015181600501601c6101000a81548161ffff021916908361ffff16021790555061016082015181600501601e6101000a81548161ffff021916908361ffff1602179055506101808201518160060160006101000a81548161ffff021916908361ffff16021790555050500390508063ffffffff1681141515610bd357600080fd5b7f6bdb6252e3aabe7c79b1e94c2d24f9cbed550af06f37098cc8e28e34c6140c6685828460e0015163ffffffff1685610100015163ffffffff168660800151876101800151604051808773ffffffffffffffffffffffffffffffffffffffff1673ffffffffffffffffffffffffffffffffffffffff1681526020018681526020018581526020018481526020018381526020018261ffff1661ffff168152602001965050505050505060405180910390a1610c9060008683610d44565b8093505050509a9950505050505050505050565b600360009054906101000a900473ffffffffffffffffffffffffffffffffffffffff1673ffffffffffffffffffffffffffffffffffffffff163373ffffffffffffffffffffffffffffffffffffffff16141515610d0057600080fd5b80600460006101000a81548173ffffffffffffffffffffffffffffffffffffffff021916908373ffffffffffffffffffffffffffffffffffffffff16021790555050565b600860008373ffffffffffffffffffffffffffffffffffffffff1673ffffffffffffffffffffffffffffffffffffffff16815260200190815260200160002060008154809291906001019190505550816007600083815260200190815260200160002060006101000a81548173ffffffffffffffffffffffffffffffffffffffff021916908373ffffffffffffffffffffffffffffffffffffffff160217905550600073ffffffffffffffffffffffffffffffffffffffff168373ffffffffffffffffffffffffffffffffffffffff16141515610ed857600860008473ffffffffffffffffffffffffffffffffffffffff1673ffffffffffffffffffffffffffffffffffffffff1681526020019081526020016000206000815480929190600190039190505550600a600082815260200190815260200160002060006101000a81549073ffffffffffffffffffffffffffffffffffffffff02191690556009600082815260200190815260200160002060006101000a81549073ffffffffffffffffffffffffffffffffffffffff02191690555b7fddf252ad1be2c89b69c2b068fc378daa952ba7f163c4a11628f55a4df523b3ef838383604051808473ffffffffffffffffffffffffffffffffffffffff1673ffffffffffffffffffffffffffffffffffffffff1681526020018373ffffffffffffffffffffffffffffffffffffffff1673ffffffffffffffffffffffffffffffffffffffff168152602001828152602001935050505060405180910390a1505050565b6101a0604051908101604052806000815260200160008152602001600081526020016000815260200160008152602001600067ffffffffffffffff168152602001600067ffffffffffffffff168152602001600063ffffffff168152602001600063ffffffff168152602001600063ffffffff168152602001600061ffff168152602001600061ffff168152602001600061ffff168152509056fea165627a7a7230582064902946ce4421c5448546c95757260b86fcf048ad2500d7518fee56a88007070029",
  "source": "pragma solidity ^0.5.0;\n\ncontract PZHeroBase\n{\n    struct Hero {\n        uint date;\n        uint price;\n        uint tokenId;\n        uint tokenPrice;\n        uint256 genes;\n\n        uint64 birthTime;\n\n        uint64 cooldownEndBlock;\n\n        uint32 matronId;\n        uint32 sireId;\n\n        uint32 siringWithId;\n\n        uint16 cooldownIndex;\n        uint16 generation;\n        uint16 level;\n    }\n\n    uint32[14] public cooldowns = [\n        uint32(1 minutes),\n        uint32(2 minutes),\n        uint32(5 minutes),\n        uint32(10 minutes),\n        uint32(30 minutes),\n        uint32(1 hours),\n        uint32(2 hours),\n        uint32(4 hours),\n        uint32(8 hours),\n        uint32(16 hours),\n        uint32(1 days),\n        uint32(2 days),\n        uint32(4 days),\n        uint32(7 days)\n    ];\n\n    uint8 internal constant TRAIT_COUNT = 14;\n\n    uint256 public                          secondsPerBlock = 15;\n    address payable public                          addrAdmin;\n\n    address public                          addrChest;\n    address public                          addrItemCore;\n\n    Hero[]  public                          heroes;\n    mapping (uint256 => address) public     heroIndexToOwner;\n    mapping (address => uint256) public     ownershipHeroCount;\n    mapping (uint256 => address) public     heroIndexToApproved;\n    mapping (uint256 => address) public     sireAllowedToAddress;\n\n    event Transfer(address from, address to, uint256 itemId);\n    event Birth(address owner, uint256 kittyId, uint256 matronId, uint256 sireId, uint256 genes, uint16 level);\n\n    /**\n    * Constructor\n    *\n     */\n    constructor() public\n    {\n        addrAdmin = msg.sender;\n    }\n\n    /**\n    * Modifier for Admin Only\n    *\n     */\n    modifier onlyAdmin()\n    {\n        require(msg.sender == addrAdmin);\n        _;\n    }\n\n    /**\n    * Set Chest Address\n    * @param _addrChest                      Address of Chest contract\n    *\n     */\n    function setChestAddress(address _addrChest) external onlyAdmin\n    {\n        addrChest = _addrChest;\n    }\n\n    /**\n    * Set Item _addrItem\n    * @param _addrItem                      Address of Item contract\n    *\n     */\n    function setItemCoreAddress(address _addrItem) external onlyAdmin\n    {\n        addrItemCore = _addrItem;\n    }\n\n    /**\n    * Create Hero NFT\n    * @param _matronId                      Matron ID of new Hero\n    * @param _sireId                        Sire ID of new Hero\n    * @param _generation                    Generation of new Hero\n    * @param _genes                         Gene of new Hero\n    * @param _level                         Level of new Hero\n    * @param _owner                         Owner of new Hero\n    *\n     */\n    function createHero(\n        uint _date,\n        uint _price,\n        uint _tokenId,\n        uint _tokenPrice,\n        uint256 _matronId,\n        uint256 _sireId,\n        uint256 _generation,\n        uint256 _genes,\n        uint16  _level,\n        address _owner\n    )\n        public\n        returns (uint)\n    {\n        require(_matronId == uint256(uint32(_matronId)));\n        require(_sireId == uint256(uint32(_sireId)));\n        require(_generation == uint256(uint16(_generation)));\n\n        uint16 cooldownIndex = uint16(_generation / 2);\n        if (cooldownIndex > 13) {\n            cooldownIndex = 13;\n        }\n\n        Hero memory _hero = Hero({\n            date: _date,\n            price: _price,\n            tokenId: _tokenId,\n            tokenPrice: _tokenPrice,\n            genes: _genes,\n            birthTime: uint64(now),\n            cooldownEndBlock: 0,\n            matronId: uint32(_matronId),\n            sireId: uint32(_sireId),\n            siringWithId: 0,\n            cooldownIndex: cooldownIndex,\n            generation: uint16(_generation),\n            level: uint16(_level)\n        });\n        uint256 newHeroId = heroes.push(_hero) - 1;\n\n        require(newHeroId == uint256(uint32(newHeroId)));\n\n        // emit the birth event\n        emit Birth(\n            _owner,\n            newHeroId,\n            uint256(_hero.matronId),\n            uint256(_hero.sireId),\n            _hero.genes,\n            _hero.level\n        );\n\n        _transfer(address(0), _owner, newHeroId);\n\n        return newHeroId;\n    }\n\n    /**\n    * Transfer Hero NFT\n    * @param _from                          Address of transfer\n    * @param _to                            Address of receiver\n    * @param _heroId                        Hero Id to be transferred\n    *\n     */\n    function _transfer(address _from, address _to, uint256 _heroId) internal {\n        ownershipHeroCount[_to]++;\n        heroIndexToOwner[_heroId] = _to;\n        if (_from != address(0x0)) {\n            ownershipHeroCount[_from]--;\n            delete sireAllowedToAddress[_heroId];\n            delete heroIndexToApproved[_heroId];\n        }\n\n        emit Transfer(_from, _to, _heroId);\n    }\n}\n",
  "sourcePath": "/home/ubuntu/dev/Boby/pizzaHero/contracts/PZHeroBase.sol",
  "compiler": {
    "name": "solc",
    "version": "0.5.4+commit.d15a3125.mod.Emscripten.clang"
  },
  "schemaVersion": "2.0.1",
  "updatedAt": "2021-03-24T05:12:23.518Z"
}