{
  "contractName": "PZHeroCore",
  "abi": [
    {
      "constant": false,
      "inputs": [
        {
          "name": "_matronId",
          "type": "uint256"
        },
        {
          "name": "_sireId",
          "type": "uint256"
        }
      ],
      "name": "breedWithOwns",
      "outputs": [],
      "payable": true,
      "stateMutability": "payable",
      "type": "function"
    },
    {
      "constant": true,
      "inputs": [
        {
          "name": "_interfaceID",
          "type": "bytes4"
        }
      ],
      "name": "supportsInterface",
      "outputs": [
        {
          "name": "",
          "type": "bool"
        }
      ],
      "payable": false,
      "stateMutability": "view",
      "type": "function"
    },
    {
      "constant": true,
      "inputs": [],
      "name": "name",
      "outputs": [
        {
          "name": "",
          "type": "string"
        }
      ],
      "payable": false,
      "stateMutability": "view",
      "type": "function"
    },
    {
      "constant": false,
      "inputs": [
        {
          "name": "_to",
          "type": "address"
        },
        {
          "name": "_heroId",
          "type": "uint256"
        }
      ],
      "name": "approve",
      "outputs": [],
      "payable": false,
      "stateMutability": "nonpayable",
      "type": "function"
    },
    {
      "constant": false,
      "inputs": [
        {
          "name": "_addrGeneScience",
          "type": "address"
        }
      ],
      "name": "setGeneScienceAddr",
      "outputs": [],
      "payable": false,
      "stateMutability": "nonpayable",
      "type": "function"
    },
    {
      "constant": true,
      "inputs": [],
      "name": "totalSupply",
      "outputs": [
        {
          "name": "",
          "type": "uint256"
        }
      ],
      "payable": false,
      "stateMutability": "view",
      "type": "function"
    },
    {
      "constant": true,
      "inputs": [
        {
          "name": "",
          "type": "uint256"
        }
      ],
      "name": "heroAuctions",
      "outputs": [
        {
          "name": "seller",
          "type": "address"
        },
        {
          "name": "startingPrice",
          "type": "uint256"
        },
        {
          "name": "heroId",
          "type": "uint256"
        },
        {
          "name": "auctionType",
          "type": "uint8"
        }
      ],
      "payable": false,
      "stateMutability": "view",
      "type": "function"
    },
    {
      "constant": false,
      "inputs": [
        {
          "name": "_from",
          "type": "address"
        },
        {
          "name": "_to",
          "type": "address"
        },
        {
          "name": "_heroId",
          "type": "uint256"
        }
      ],
      "name": "transferFrom",
      "outputs": [],
      "payable": false,
      "stateMutability": "nonpayable",
      "type": "function"
    },
    {
      "constant": true,
      "inputs": [],
      "name": "getHeroIdsOnSale",
      "outputs": [
        {
          "name": "",
          "type": "uint256[]"
        }
      ],
      "payable": false,
      "stateMutability": "view",
      "type": "function"
    },
    {
      "constant": true,
      "inputs": [],
      "name": "addrItemCore",
      "outputs": [
        {
          "name": "",
          "type": "address"
        }
      ],
      "payable": false,
      "stateMutability": "view",
      "type": "function"
    },
    {
      "constant": true,
      "inputs": [],
      "name": "contractGeneScience",
      "outputs": [
        {
          "name": "",
          "type": "address"
        }
      ],
      "payable": false,
      "stateMutability": "view",
      "type": "function"
    },
    {
      "constant": false,
      "inputs": [
        {
          "name": "_matronId",
          "type": "uint256"
        },
        {
          "name": "_sireId",
          "type": "uint256"
        },
        {
          "name": "_generation",
          "type": "uint256"
        },
        {
          "name": "_genes",
          "type": "uint256"
        },
        {
          "name": "_level",
          "type": "uint16"
        },
        {
          "name": "_owner",
          "type": "address"
        }
      ],
      "name": "createHero",
      "outputs": [
        {
          "name": "",
          "type": "uint256"
        }
      ],
      "payable": false,
      "stateMutability": "nonpayable",
      "type": "function"
    },
    {
      "constant": true,
      "inputs": [],
      "name": "contractEggCore",
      "outputs": [
        {
          "name": "",
          "type": "address"
        }
      ],
      "payable": false,
      "stateMutability": "view",
      "type": "function"
    },
    {
      "constant": true,
      "inputs": [
        {
          "name": "",
          "type": "uint256"
        }
      ],
      "name": "sireAllowedToAddress",
      "outputs": [
        {
          "name": "",
          "type": "address"
        }
      ],
      "payable": false,
      "stateMutability": "view",
      "type": "function"
    },
    {
      "constant": true,
      "inputs": [
        {
          "name": "_matronId",
          "type": "uint256"
        },
        {
          "name": "_sireId",
          "type": "uint256"
        }
      ],
      "name": "canBreedWith",
      "outputs": [
        {
          "name": "",
          "type": "bool"
        }
      ],
      "payable": false,
      "stateMutability": "view",
      "type": "function"
    },
    {
      "constant": false,
      "inputs": [
        {
          "name": "_addr",
          "type": "address"
        },
        {
          "name": "_sireId",
          "type": "uint256"
        }
      ],
      "name": "approveSiring",
      "outputs": [],
      "payable": false,
      "stateMutability": "nonpayable",
      "type": "function"
    },
    {
      "constant": true,
      "inputs": [],
      "name": "addrGeneScience",
      "outputs": [
        {
          "name": "",
          "type": "address"
        }
      ],
      "payable": false,
      "stateMutability": "view",
      "type": "function"
    },
    {
      "constant": true,
      "inputs": [
        {
          "name": "_heroId",
          "type": "uint256"
        }
      ],
      "name": "ownerOf",
      "outputs": [
        {
          "name": "owner",
          "type": "address"
        }
      ],
      "payable": false,
      "stateMutability": "view",
      "type": "function"
    },
    {
      "constant": false,
      "inputs": [
        {
          "name": "_heroId",
          "type": "uint256"
        }
      ],
      "name": "bidAuction",
      "outputs": [],
      "payable": true,
      "stateMutability": "payable",
      "type": "function"
    },
    {
      "constant": false,
      "inputs": [
        {
          "name": "_price",
          "type": "uint256"
        },
        {
          "name": "_heroId",
          "type": "uint256"
        },
        {
          "name": "_auctionType",
          "type": "uint8"
        }
      ],
      "name": "addAuction",
      "outputs": [],
      "payable": false,
      "stateMutability": "nonpayable",
      "type": "function"
    },
    {
      "constant": true,
      "inputs": [
        {
          "name": "_owner",
          "type": "address"
        }
      ],
      "name": "balanceOf",
      "outputs": [
        {
          "name": "count",
          "type": "uint256"
        }
      ],
      "payable": false,
      "stateMutability": "view",
      "type": "function"
    },
    {
      "constant": true,
      "inputs": [],
      "name": "addrChest",
      "outputs": [
        {
          "name": "",
          "type": "address"
        }
      ],
      "payable": false,
      "stateMutability": "view",
      "type": "function"
    },
    {
      "constant": true,
      "inputs": [],
      "name": "secondsPerBlock",
      "outputs": [
        {
          "name": "",
          "type": "uint256"
        }
      ],
      "payable": false,
      "stateMutability": "view",
      "type": "function"
    },
    {
      "constant": false,
      "inputs": [
        {
          "name": "_matronId",
          "type": "uint256"
        },
        {
          "name": "_sireId",
          "type": "uint256"
        }
      ],
      "name": "breedWithOwned",
      "outputs": [],
      "payable": true,
      "stateMutability": "payable",
      "type": "function"
    },
    {
      "constant": true,
      "inputs": [],
      "name": "addrEggCore",
      "outputs": [
        {
          "name": "",
          "type": "address"
        }
      ],
      "payable": false,
      "stateMutability": "view",
      "type": "function"
    },
    {
      "constant": true,
      "inputs": [],
      "name": "symbol",
      "outputs": [
        {
          "name": "",
          "type": "string"
        }
      ],
      "payable": false,
      "stateMutability": "view",
      "type": "function"
    },
    {
      "constant": false,
      "inputs": [
        {
          "name": "_heroId",
          "type": "uint256"
        }
      ],
      "name": "cancelAuction",
      "outputs": [],
      "payable": false,
      "stateMutability": "nonpayable",
      "type": "function"
    },
    {
      "constant": true,
      "inputs": [
        {
          "name": "_owner",
          "type": "address"
        }
      ],
      "name": "heroesOfOwner",
      "outputs": [
        {
          "name": "ownerHeroes",
          "type": "uint256[]"
        }
      ],
      "payable": false,
      "stateMutability": "view",
      "type": "function"
    },
    {
      "constant": true,
      "inputs": [
        {
          "name": "_heroId",
          "type": "uint256"
        }
      ],
      "name": "getHeroAuctionByheroId",
      "outputs": [
        {
          "name": "seller",
          "type": "address"
        },
        {
          "name": "price",
          "type": "uint256"
        },
        {
          "name": "heroId",
          "type": "uint256"
        },
        {
          "name": "auctionType",
          "type": "uint8"
        }
      ],
      "payable": false,
      "stateMutability": "view",
      "type": "function"
    },
    {
      "constant": true,
      "inputs": [
        {
          "name": "",
          "type": "address"
        }
      ],
      "name": "ownershipHeroCount",
      "outputs": [
        {
          "name": "",
          "type": "uint256"
        }
      ],
      "payable": false,
      "stateMutability": "view",
      "type": "function"
    },
    {
      "constant": true,
      "inputs": [
        {
          "name": "",
          "type": "uint256"
        }
      ],
      "name": "cooldowns",
      "outputs": [
        {
          "name": "",
          "type": "uint32"
        }
      ],
      "payable": false,
      "stateMutability": "view",
      "type": "function"
    },
    {
      "constant": true,
      "inputs": [
        {
          "name": "",
          "type": "uint256"
        }
      ],
      "name": "heroes",
      "outputs": [
        {
          "name": "genes",
          "type": "uint256"
        },
        {
          "name": "birthTime",
          "type": "uint64"
        },
        {
          "name": "cooldownEndBlock",
          "type": "uint64"
        },
        {
          "name": "matronId",
          "type": "uint32"
        },
        {
          "name": "sireId",
          "type": "uint32"
        },
        {
          "name": "siringWithId",
          "type": "uint32"
        },
        {
          "name": "cooldownIndex",
          "type": "uint16"
        },
        {
          "name": "generation",
          "type": "uint16"
        },
        {
          "name": "level",
          "type": "uint16"
        }
      ],
      "payable": false,
      "stateMutability": "view",
      "type": "function"
    },
    {
      "constant": false,
      "inputs": [
        {
          "name": "_to",
          "type": "address"
        },
        {
          "name": "_heroId",
          "type": "uint256"
        }
      ],
      "name": "transfer",
      "outputs": [],
      "payable": false,
      "stateMutability": "nonpayable",
      "type": "function"
    },
    {
      "constant": true,
      "inputs": [
        {
          "name": "",
          "type": "uint256"
        }
      ],
      "name": "heroIndexToOwner",
      "outputs": [
        {
          "name": "",
          "type": "address"
        }
      ],
      "payable": false,
      "stateMutability": "view",
      "type": "function"
    },
    {
      "constant": true,
      "inputs": [],
      "name": "autoBirthFee",
      "outputs": [
        {
          "name": "",
          "type": "uint256"
        }
      ],
      "payable": false,
      "stateMutability": "view",
      "type": "function"
    },
    {
      "constant": true,
      "inputs": [],
      "name": "breedTest",
      "outputs": [
        {
          "name": "",
          "type": "string"
        }
      ],
      "payable": false,
      "stateMutability": "pure",
      "type": "function"
    },
    {
      "constant": true,
      "inputs": [],
      "name": "addrAdmin",
      "outputs": [
        {
          "name": "",
          "type": "address"
        }
      ],
      "payable": false,
      "stateMutability": "view",
      "type": "function"
    },
    {
      "constant": true,
      "inputs": [],
      "name": "getHeroAuctionCount",
      "outputs": [
        {
          "name": "",
          "type": "uint256"
        }
      ],
      "payable": false,
      "stateMutability": "view",
      "type": "function"
    },
    {
      "constant": false,
      "inputs": [
        {
          "name": "_addrItem",
          "type": "address"
        }
      ],
      "name": "setItemCoreAddress",
      "outputs": [],
      "payable": false,
      "stateMutability": "nonpayable",
      "type": "function"
    },
    {
      "constant": true,
      "inputs": [
        {
          "name": "_heroId",
          "type": "uint256"
        }
      ],
      "name": "isReadyToBreed",
      "outputs": [
        {
          "name": "",
          "type": "bool"
        }
      ],
      "payable": false,
      "stateMutability": "view",
      "type": "function"
    },
    {
      "constant": true,
      "inputs": [
        {
          "name": "",
          "type": "uint256"
        }
      ],
      "name": "heroIndexToApproved",
      "outputs": [
        {
          "name": "",
          "type": "address"
        }
      ],
      "payable": false,
      "stateMutability": "view",
      "type": "function"
    },
    {
      "constant": false,
      "inputs": [
        {
          "name": "_contractAddress",
          "type": "address"
        }
      ],
      "name": "setMetadataAddress",
      "outputs": [],
      "payable": false,
      "stateMutability": "nonpayable",
      "type": "function"
    },
    {
      "constant": true,
      "inputs": [],
      "name": "trc721Metadata",
      "outputs": [
        {
          "name": "",
          "type": "address"
        }
      ],
      "payable": false,
      "stateMutability": "view",
      "type": "function"
    },
    {
      "constant": false,
      "inputs": [
        {
          "name": "_heroId",
          "type": "uint256"
        },
        {
          "name": "_sireId",
          "type": "uint256"
        }
      ],
      "name": "bidSire",
      "outputs": [],
      "payable": true,
      "stateMutability": "payable",
      "type": "function"
    },
    {
      "constant": false,
      "inputs": [
        {
          "name": "_addrChest",
          "type": "address"
        }
      ],
      "name": "setChestAddress",
      "outputs": [],
      "payable": false,
      "stateMutability": "nonpayable",
      "type": "function"
    },
    {
      "inputs": [
        {
          "name": "_addrItemCore",
          "type": "address"
        },
        {
          "name": "_addrEggCore",
          "type": "address"
        },
        {
          "name": "_addrGeneScience",
          "type": "address"
        }
      ],
      "payable": false,
      "stateMutability": "nonpayable",
      "type": "constructor"
    },
    {
      "anonymous": false,
      "inputs": [
        {
          "indexed": false,
          "name": "owner",
          "type": "address"
        },
        {
          "indexed": false,
          "name": "matronId",
          "type": "uint256"
        },
        {
          "indexed": false,
          "name": "sireId",
          "type": "uint256"
        },
        {
          "indexed": false,
          "name": "cooldownEndBlock",
          "type": "uint256"
        }
      ],
      "name": "Pregnant",
      "type": "event"
    },
    {
      "anonymous": false,
      "inputs": [
        {
          "indexed": false,
          "name": "from",
          "type": "address"
        },
        {
          "indexed": false,
          "name": "to",
          "type": "address"
        },
        {
          "indexed": false,
          "name": "tokenId",
          "type": "uint256"
        }
      ],
      "name": "Transfer",
      "type": "event"
    },
    {
      "anonymous": false,
      "inputs": [
        {
          "indexed": false,
          "name": "owner",
          "type": "address"
        },
        {
          "indexed": false,
          "name": "approved",
          "type": "address"
        },
        {
          "indexed": false,
          "name": "tokenId",
          "type": "uint256"
        }
      ],
      "name": "Approval",
      "type": "event"
    },
    {
      "anonymous": false,
      "inputs": [
        {
          "indexed": false,
          "name": "owner",
          "type": "address"
        },
        {
          "indexed": false,
          "name": "kittyId",
          "type": "uint256"
        },
        {
          "indexed": false,
          "name": "matronId",
          "type": "uint256"
        },
        {
          "indexed": false,
          "name": "sireId",
          "type": "uint256"
        },
        {
          "indexed": false,
          "name": "genes",
          "type": "uint256"
        },
        {
          "indexed": false,
          "name": "level",
          "type": "uint16"
        }
      ],
      "name": "Birth",
      "type": "event"
    },
    {
      "constant": false,
      "inputs": [
        {
          "name": "_to",
          "type": "address"
        },
        {
          "name": "_heroId",
          "type": "uint256"
        }
      ],
      "name": "giftHero",
      "outputs": [],
      "payable": false,
      "stateMutability": "nonpayable",
      "type": "function"
    },
    {
      "constant": true,
      "inputs": [
        {
          "name": "_heroId",
          "type": "uint256"
        }
      ],
      "name": "getHero",
      "outputs": [
        {
          "name": "genes",
          "type": "uint256"
        },
        {
          "name": "birthTime",
          "type": "uint64"
        },
        {
          "name": "cooldownEndBlock",
          "type": "uint64"
        },
        {
          "name": "matronId",
          "type": "uint32"
        },
        {
          "name": "sireId",
          "type": "uint32"
        },
        {
          "name": "siringWithId",
          "type": "uint32"
        },
        {
          "name": "cooldownIndex",
          "type": "uint16"
        },
        {
          "name": "generation",
          "type": "uint16"
        },
        {
          "name": "level",
          "type": "uint16"
        }
      ],
      "payable": false,
      "stateMutability": "view",
      "type": "function"
    },
    {
      "constant": true,
      "inputs": [
        {
          "name": "_heroId",
          "type": "uint256"
        }
      ],
      "name": "getHeroTraits",
      "outputs": [
        {
          "name": "",
          "type": "uint8[]"
        }
      ],
      "payable": false,
      "stateMutability": "view",
      "type": "function"
    },
    {
      "constant": true,
      "inputs": [
        {
          "name": "_heroId",
          "type": "uint256"
        }
      ],
      "name": "getHeroAppearance",
      "outputs": [
        {
          "name": "",
          "type": "uint8[14]"
        }
      ],
      "payable": false,
      "stateMutability": "view",
      "type": "function"
    },
    {
      "constant": true,
      "inputs": [],
      "name": "heroTest",
      "outputs": [
        {
          "name": "",
          "type": "address"
        }
      ],
      "payable": false,
      "stateMutability": "view",
      "type": "function"
    },
    {
      "constant": true,
      "inputs": [],
      "name": "isHeroContract",
      "outputs": [
        {
          "name": "",
          "type": "bool"
        }
      ],
      "payable": false,
      "stateMutability": "pure",
      "type": "function"
    }
  ],
  "bytecode": "0x60806040526101c060405190810160405280603c63ffffffff1663ffffffff168152602001607863ffffffff1663ffffffff16815260200161012c63ffffffff1663ffffffff16815260200161025863ffffffff1663ffffffff16815260200161070863ffffffff1663ffffffff168152602001610e1063ffffffff1663ffffffff168152602001611c2063ffffffff1663ffffffff16815260200161384063ffffffff1663ffffffff16815260200161708063ffffffff1663ffffffff16815260200161e10063ffffffff1663ffffffff1681526020016201518063ffffffff1663ffffffff1681526020016202a30063ffffffff1663ffffffff1681526020016205460063ffffffff1663ffffffff16815260200162093a8063ffffffff1663ffffffff16815250600090600e6200013b929190620004dc565b50600f60025562989680600c553480156200015557600080fd5b50d380156200016357600080fd5b50d280156200017157600080fd5b5060405160608062004d7583398101806040528101908080519060200190929190805190602001909291908051906020019092919050505060008033600360006101000a81548173ffffffffffffffffffffffffffffffffffffffff021916908373ffffffffffffffffffffffffffffffffffffffff160217905550600073ffffffffffffffffffffffffffffffffffffffff168573ffffffffffffffffffffffffffffffffffffffff16141515156200022a57600080fd5b84600560006101000a81548173ffffffffffffffffffffffffffffffffffffffff021916908373ffffffffffffffffffffffffffffffffffffffff16021790555082600e60006101000a81548173ffffffffffffffffffffffffffffffffffffffff021916908373ffffffffffffffffffffffffffffffffffffffff1602179055508291508173ffffffffffffffffffffffffffffffffffffffff166354c15b826040518163ffffffff167c0100000000000000000000000000000000000000000000000000000000028152600401602060405180830381600087803b1580156200031457600080fd5b505af115801562000329573d6000803e3d6000fd5b505050506040513d60208110156200034057600080fd5b810190808051906020019092919050505015156200035d57600080fd5b81600d60006101000a81548173ffffffffffffffffffffffffffffffffffffffff021916908373ffffffffffffffffffffffffffffffffffffffff16021790555083601060006101000a81548173ffffffffffffffffffffffffffffffffffffffff021916908373ffffffffffffffffffffffffffffffffffffffff1602179055508390508073ffffffffffffffffffffffffffffffffffffffff166399b2af476040518163ffffffff167c0100000000000000000000000000000000000000000000000000000000028152600401602060405180830381600087803b1580156200044757600080fd5b505af11580156200045c573d6000803e3d6000fd5b505050506040513d60208110156200047357600080fd5b810190808051906020019092919050505015156200049057600080fd5b80600f60006101000a81548173ffffffffffffffffffffffffffffffffffffffff021916908373ffffffffffffffffffffffffffffffffffffffff1602179055505050505050620005bc565b82600e600701600890048101928215620005735791602002820160005b838211156200053f57835183826101000a81548163ffffffff021916908363ffffffff1602179055509260200192600401602081600301049283019260010302620004f9565b8015620005715782816101000a81549063ffffffff02191690556004016020816003010492830192600103026200053f565b505b50905062000582919062000586565b5090565b620005b991905b80821115620005b557600081816101000a81549063ffffffff0219169055506001016200058d565b5090565b90565b6147a980620005cc6000396000f300608060405260043610610267576000357c0100000000000000000000000000000000000000000000000000000000900463ffffffff1680630153b8ee1461026c57806301ffc9a71461029657806306fdde0314610314578063095ea7b3146103be578063119c4d631461042557806318160ddd1461048257806318ad2851146104c757806321d801111461056957806323b872dd1461066057806325d36762146106e75780632f6db1ee1461076d5780632fda277f146107de5780633ba864fe1461087a57806343951343146108eb5780634558f4c81461099257806346116e6f14610a0357806346d22c7014610a8a5780634dfff04f14610af3578063526a3cf514610b5a57806357cea4fd14610bc15780636352211e14610c3257806364a7d7c714610cb957806368f2911014610cd957806370a0823114610d3757806376c0b36714610da8578063796c3cb314610e195780637a7d493714610e9c5780638a8fb54a14610ee15780638ca22e1314610f0b57806395d89b4114610f7c57806396b5a75514611026578063989555f81461106d578063994d95381461111f5780639ca7722d146111c15780639d6fac6f14611232578063a8d4a03b14611299578063a9059cbb14611390578063aa54beac146113f7578063b0c35c051461147e578063b1e4f01f146114c3578063bc82b93b1461150c578063be9873d21461157d578063bfae2f0e14611627578063c492a1d414611698578063cb0e2c5a146116dd578063d3e6f49f1461173a578063de3e305f14611799578063e17b25af14611820578063f15f93881461187d578063f175408b146118ee578063f794ac1f14611918575b600080fd5b6102946004803603810190808035906020019092919080359060200190929190505050611975565b005b3480156102a257600080fd5b50d380156102af57600080fd5b50d280156102bc57600080fd5b506102fa60048036038101908080357bffffffffffffffffffffffffffffffffffffffffffffffffffffffff191690602001909291905050506119ad565b604051808215151515815260200191505060405180910390f35b34801561032057600080fd5b50d3801561032d57600080fd5b50d2801561033a57600080fd5b50610343611cbe565b6040518080602001828103825283818151815260200191508051906020019080838360005b83811015610383578082015181840152602081019050610368565b50505050905090810190601f1680156103b05780820380516001836020036101000a031916815260200191505b509250505060405180910390f35b3480156103ca57600080fd5b50d380156103d757600080fd5b50d280156103e457600080fd5b50610423600480360381019080803573ffffffffffffffffffffffffffffffffffffffff16906020019092919080359060200190929190505050611cf7565b005b34801561043157600080fd5b50d3801561043e57600080fd5b50d2801561044b57600080fd5b50610480600480360381019080803573ffffffffffffffffffffffffffffffffffffffff169060200190929190505050611db9565b005b34801561048e57600080fd5b50d3801561049b57600080fd5b50d280156104a857600080fd5b506104b1611f4a565b6040518082815260200191505060405180910390f35b3480156104d357600080fd5b50d380156104e057600080fd5b50d280156104ed57600080fd5b5061050c60048036038101908080359060200190929190505050611f5a565b604051808573ffffffffffffffffffffffffffffffffffffffff1673ffffffffffffffffffffffffffffffffffffffff1681526020018481526020018381526020018260ff1660ff16815260200194505050505060405180910390f35b34801561057557600080fd5b50d3801561058257600080fd5b50d2801561058f57600080fd5b506105ae60048036038101908080359060200190929190505050611fc6565b604051808a81526020018967ffffffffffffffff1667ffffffffffffffff1681526020018867ffffffffffffffff1667ffffffffffffffff1681526020018763ffffffff1663ffffffff1681526020018663ffffffff1663ffffffff1681526020018563ffffffff1663ffffffff1681526020018461ffff1661ffff1681526020018361ffff1661ffff1681526020018261ffff1661ffff168152602001995050505050505050505060405180910390f35b34801561066c57600080fd5b50d3801561067957600080fd5b50d2801561068657600080fd5b506106e5600480360381019080803573ffffffffffffffffffffffffffffffffffffffff169060200190929190803573ffffffffffffffffffffffffffffffffffffffff16906020019092919080359060200190929190505050612196565b005b3480156106f357600080fd5b50d3801561070057600080fd5b50d2801561070d57600080fd5b50610716612247565b6040518080602001828103825283818151815260200191508051906020019060200280838360005b8381101561075957808201518184015260208101905061073e565b505050509050019250505060405180910390f35b34801561077957600080fd5b50d3801561078657600080fd5b50d2801561079357600080fd5b5061079c612257565b604051808273ffffffffffffffffffffffffffffffffffffffff1673ffffffffffffffffffffffffffffffffffffffff16815260200191505060405180910390f35b3480156107ea57600080fd5b50d380156107f757600080fd5b50d2801561080457600080fd5b506108236004803603810190808035906020019092919050505061227d565b6040518080602001828103825283818151815260200191508051906020019060200280838360005b8381101561086657808201518184015260208101905061084b565b505050509050019250505060405180910390f35b34801561088657600080fd5b50d3801561089357600080fd5b50d280156108a057600080fd5b506108a9612521565b604051808273ffffffffffffffffffffffffffffffffffffffff1673ffffffffffffffffffffffffffffffffffffffff16815260200191505060405180910390f35b3480156108f757600080fd5b50d3801561090457600080fd5b50d2801561091157600080fd5b5061097c60048036038101908080359060200190929190803590602001909291908035906020019092919080359060200190929190803561ffff169060200190929190803573ffffffffffffffffffffffffffffffffffffffff169060200190929190505050612547565b6040518082815260200191505060405180910390f35b34801561099e57600080fd5b50d380156109ab57600080fd5b50d280156109b857600080fd5b506109c1612882565b604051808273ffffffffffffffffffffffffffffffffffffffff1673ffffffffffffffffffffffffffffffffffffffff16815260200191505060405180910390f35b348015610a0f57600080fd5b50d38015610a1c57600080fd5b50d28015610a2957600080fd5b50610a48600480360381019080803590602001909291905050506128a8565b604051808273ffffffffffffffffffffffffffffffffffffffff1673ffffffffffffffffffffffffffffffffffffffff16815260200191505060405180910390f35b348015610a9657600080fd5b50d38015610aa357600080fd5b50d28015610ab057600080fd5b50610ad960048036038101908080359060200190929190803590602001909291905050506128db565b604051808215151515815260200191505060405180910390f35b348015610aff57600080fd5b50d38015610b0c57600080fd5b50d28015610b1957600080fd5b50610b58600480360381019080803573ffffffffffffffffffffffffffffffffffffffff16906020019092919080359060200190929190505050612963565b005b348015610b6657600080fd5b50d38015610b7357600080fd5b50d28015610b8057600080fd5b50610bbf600480360381019080803573ffffffffffffffffffffffffffffffffffffffff169060200190929190803590602001909291905050506129ce565b005b348015610bcd57600080fd5b50d38015610bda57600080fd5b50d28015610be757600080fd5b50610bf0612a2e565b604051808273ffffffffffffffffffffffffffffffffffffffff1673ffffffffffffffffffffffffffffffffffffffff16815260200191505060405180910390f35b348015610c3e57600080fd5b50d38015610c4b57600080fd5b50d28015610c5857600080fd5b50610c7760048036038101908080359060200190929190505050612a54565b604051808273ffffffffffffffffffffffffffffffffffffffff1673ffffffffffffffffffffffffffffffffffffffff16815260200191505060405180910390f35b610cd760048036038101908080359060200190929190505050612acd565b005b348015610ce557600080fd5b50d38015610cf257600080fd5b50d28015610cff57600080fd5b50610d356004803603810190808035906020019092919080359060200190929190803560ff169060200190929190505050612c36565b005b348015610d4357600080fd5b50d38015610d5057600080fd5b50d28015610d5d57600080fd5b50610d92600480360381019080803573ffffffffffffffffffffffffffffffffffffffff169060200190929190505050612d43565b6040518082815260200191505060405180910390f35b348015610db457600080fd5b50d38015610dc157600080fd5b50d28015610dce57600080fd5b50610dd7612d8c565b604051808273ffffffffffffffffffffffffffffffffffffffff1673ffffffffffffffffffffffffffffffffffffffff16815260200191505060405180910390f35b348015610e2557600080fd5b50d38015610e3257600080fd5b50d28015610e3f57600080fd5b50610e5e60048036038101908080359060200190929190505050612db2565b6040518082600e60200280838360005b83811015610e89578082015181840152602081019050610e6e565b5050505090500191505060405180910390f35b348015610ea857600080fd5b50d38015610eb557600080fd5b50d28015610ec257600080fd5b50610ecb61300e565b6040518082815260200191505060405180910390f35b610f096004803603810190808035906020019092919080359060200190929190505050613014565b005b348015610f1757600080fd5b50d38015610f2457600080fd5b50d28015610f3157600080fd5b50610f3a61305d565b604051808273ffffffffffffffffffffffffffffffffffffffff1673ffffffffffffffffffffffffffffffffffffffff16815260200191505060405180910390f35b348015610f8857600080fd5b50d38015610f9557600080fd5b50d28015610fa257600080fd5b50610fab613083565b6040518080602001828103825283818151815260200191508051906020019080838360005b83811015610feb578082015181840152602081019050610fd0565b50505050905090810190601f1680156110185780820380516001836020036101000a031916815260200191505b509250505060405180910390f35b34801561103257600080fd5b50d3801561103f57600080fd5b50d2801561104c57600080fd5b5061106b600480360381019080803590602001909291905050506130bc565b005b34801561107957600080fd5b50d3801561108657600080fd5b50d2801561109357600080fd5b506110c8600480360381019080803573ffffffffffffffffffffffffffffffffffffffff1690602001909291905050506131d7565b6040518080602001828103825283818151815260200191508051906020019060200280838360005b8381101561110b5780820151818401526020810190506110f0565b505050509050019250505060405180910390f35b34801561112b57600080fd5b50d3801561113857600080fd5b50d2801561114557600080fd5b5061116460048036038101908080359060200190929190505050613324565b604051808573ffffffffffffffffffffffffffffffffffffffff1673ffffffffffffffffffffffffffffffffffffffff1681526020018481526020018381526020018260ff1660ff16815260200194505050505060405180910390f35b3480156111cd57600080fd5b50d380156111da57600080fd5b50d280156111e757600080fd5b5061121c600480360381019080803573ffffffffffffffffffffffffffffffffffffffff1690602001909291905050506133fe565b6040518082815260200191505060405180910390f35b34801561123e57600080fd5b50d3801561124b57600080fd5b50d2801561125857600080fd5b5061127760048036038101908080359060200190929190505050613416565b604051808263ffffffff1663ffffffff16815260200191505060405180910390f35b3480156112a557600080fd5b50d380156112b257600080fd5b50d280156112bf57600080fd5b506112de60048036038101908080359060200190929190505050613445565b604051808a81526020018967ffffffffffffffff1667ffffffffffffffff1681526020018867ffffffffffffffff1667ffffffffffffffff1681526020018763ffffffff1663ffffffff1681526020018663ffffffff1663ffffffff1681526020018563ffffffff1663ffffffff1681526020018461ffff1661ffff1681526020018361ffff1661ffff1681526020018261ffff1661ffff168152602001995050505050505050505060405180910390f35b34801561139c57600080fd5b50d380156113a957600080fd5b50d280156113b657600080fd5b506113f5600480360381019080803573ffffffffffffffffffffffffffffffffffffffff16906020019092919080359060200190929190505050613524565b005b34801561140357600080fd5b50d3801561141057600080fd5b50d2801561141d57600080fd5b5061143c600480360381019080803590602001909291905050506135bf565b604051808273ffffffffffffffffffffffffffffffffffffffff1673ffffffffffffffffffffffffffffffffffffffff16815260200191505060405180910390f35b34801561148a57600080fd5b50d3801561149757600080fd5b50d280156114a457600080fd5b506114ad6135f2565b6040518082815260200191505060405180910390f35b3480156114cf57600080fd5b50d380156114dc57600080fd5b50d280156114e957600080fd5b506114f26135f8565b604051808215151515815260200191505060405180910390f35b34801561151857600080fd5b50d3801561152557600080fd5b50d2801561153257600080fd5b5061153b613601565b604051808273ffffffffffffffffffffffffffffffffffffffff1673ffffffffffffffffffffffffffffffffffffffff16815260200191505060405180910390f35b34801561158957600080fd5b50d3801561159657600080fd5b50d280156115a357600080fd5b506115ac61362b565b6040518080602001828103825283818151815260200191508051906020019080838360005b838110156115ec5780820151818401526020810190506115d1565b50505050905090810190601f1680156116195780820380516001836020036101000a031916815260200191505b509250505060405180910390f35b34801561163357600080fd5b50d3801561164057600080fd5b50d2801561164d57600080fd5b50611656613668565b604051808273ffffffffffffffffffffffffffffffffffffffff1673ffffffffffffffffffffffffffffffffffffffff16815260200191505060405180910390f35b3480156116a457600080fd5b50d380156116b157600080fd5b50d280156116be57600080fd5b506116c761368e565b6040518082815260200191505060405180910390f35b3480156116e957600080fd5b50d380156116f657600080fd5b50d2801561170357600080fd5b50611738600480360381019080803573ffffffffffffffffffffffffffffffffffffffff16906020019092919050505061369b565b005b34801561174657600080fd5b50d3801561175357600080fd5b50d2801561176057600080fd5b5061177f6004803603810190808035906020019092919050505061373b565b604051808215151515815260200191505060405180910390f35b3480156117a557600080fd5b50d380156117b257600080fd5b50d280156117bf57600080fd5b506117de600480360381019080803590602001909291905050506138ca565b604051808273ffffffffffffffffffffffffffffffffffffffff1673ffffffffffffffffffffffffffffffffffffffff16815260200191505060405180910390f35b34801561182c57600080fd5b50d3801561183957600080fd5b50d2801561184657600080fd5b5061187b600480360381019080803573ffffffffffffffffffffffffffffffffffffffff1690602001909291905050506138fd565b005b34801561188957600080fd5b50d3801561189657600080fd5b50d280156118a357600080fd5b506118ac61399d565b604051808273ffffffffffffffffffffffffffffffffffffffff1673ffffffffffffffffffffffffffffffffffffffff16815260200191505060405180910390f35b61191660048036038101908080359060200190929190803590602001909291905050506139c3565b005b34801561192457600080fd5b50d3801561193157600080fd5b50d2801561193e57600080fd5b50611973600480360381019080803573ffffffffffffffffffffffffffffffffffffffff169060200190929190505050613b3b565b005b61197f3383613bdb565b151561198a57600080fd5b6119943382613bdb565b151561199f57600080fd5b6119a98282613c47565b5050565b600060405180807f737570706f727473496e74657266616365286279746573342900000000000000815250601901905060405180910390207bffffffffffffffffffffffffffffffffffffffffffffffffffffffff1916827bffffffffffffffffffffffffffffffffffffffffffffffffffffffff19161480611cb7575060405180807f746f6b656e4d657461646174612875696e743235362c737472696e6729000000815250601d019050604051809103902060405180807f6865726f65734f664f776e6572286164647265737329000000000000000000008152506016019050604051809103902060405180807f7472616e7366657246726f6d28616464726573732c616464726573732c75696e81526020017f74323536290000000000000000000000000000000000000000000000000000008152506025019050604051809103902060405180807f7472616e7366657228616464726573732c75696e7432353629000000000000008152506019019050604051809103902060405180807f617070726f766528616464726573732c75696e743235362900000000000000008152506018019050604051809103902060405180807f6f776e65724f662875696e7432353629000000000000000000000000000000008152506010019050604051809103902060405180807f62616c616e63654f6628616464726573732900000000000000000000000000008152506012019050604051809103902060405180807f746f74616c537570706c79282900000000000000000000000000000000000000815250600d019050604051809103902060405180807f73796d626f6c28290000000000000000000000000000000000000000000000008152506008019050604051809103902060405180807f6e616d6528290000000000000000000000000000000000000000000000000000815250600601905060405180910390201818181818181818187bffffffffffffffffffffffffffffffffffffffffffffffffffffffff1916827bffffffffffffffffffffffffffffffffffffffffffffffffffffffff1916145b9050919050565b6040805190810160405280600881526020017f505a4865726f657300000000000000000000000000000000000000000000000081525081565b611d013382613bdb565b1515611d0c57600080fd5b611d168183613f17565b7f8c5be1e5ebec7d5bd14f71427d1e84f3dd0314c0f7b2291e5b200ac8c7c3b925338383604051808473ffffffffffffffffffffffffffffffffffffffff1673ffffffffffffffffffffffffffffffffffffffff1681526020018373ffffffffffffffffffffffffffffffffffffffff1673ffffffffffffffffffffffffffffffffffffffff168152602001828152602001935050505060405180910390a15050565b6000600360009054906101000a900473ffffffffffffffffffffffffffffffffffffffff1673ffffffffffffffffffffffffffffffffffffffff163373ffffffffffffffffffffffffffffffffffffffff16141515611e1757600080fd5b81600e60006101000a81548173ffffffffffffffffffffffffffffffffffffffff021916908373ffffffffffffffffffffffffffffffffffffffff1602179055508190508073ffffffffffffffffffffffffffffffffffffffff166354c15b826040518163ffffffff167c0100000000000000000000000000000000000000000000000000000000028152600401602060405180830381600087803b158015611ebf57600080fd5b505af1158015611ed3573d6000803e3d6000fd5b505050506040513d6020811015611ee957600080fd5b81019080805190602001909291905050501515611f0557600080fd5b80600d60006101000a81548173ffffffffffffffffffffffffffffffffffffffff021916908373ffffffffffffffffffffffffffffffffffffffff1602179055505050565b6000600160068054905003905090565b601281815481101515611f6957fe5b90600052602060002090600402016000915090508060000160009054906101000a900473ffffffffffffffffffffffffffffffffffffffff16908060010154908060020154908060030160009054906101000a900460ff16905084565b6000806000806000806000806000611fdc614698565b60068b815481101515611feb57fe5b90600052602060002090600302016101206040519081016040529081600082015481526020016001820160009054906101000a900467ffffffffffffffff1667ffffffffffffffff1667ffffffffffffffff1681526020016001820160089054906101000a900467ffffffffffffffff1667ffffffffffffffff1667ffffffffffffffff1681526020016001820160109054906101000a900463ffffffff1663ffffffff1663ffffffff1681526020016001820160149054906101000a900463ffffffff1663ffffffff1663ffffffff1681526020016001820160189054906101000a900463ffffffff1663ffffffff1663ffffffff16815260200160018201601c9054906101000a900461ffff1661ffff1661ffff16815260200160018201601e9054906101000a900461ffff1661ffff1661ffff1681526020016002820160009054906101000a900461ffff1661ffff1661ffff16815250509050806000015181602001518260400151836060015184608001518560a001518660c001518760e00151886101000151995099509950995099509950995099509950509193959799909294969850565b600073ffffffffffffffffffffffffffffffffffffffff168273ffffffffffffffffffffffffffffffffffffffff16141515156121d257600080fd5b3073ffffffffffffffffffffffffffffffffffffffff168273ffffffffffffffffffffffffffffffffffffffff161415151561220d57600080fd5b6122173382613f6d565b151561222257600080fd5b61222c8382613bdb565b151561223757600080fd5b612242838383613fd9565b505050565b6060612252306131d7565b905090565b600560009054906101000a900473ffffffffffffffffffffffffffffffffffffffff1681565b6060612287614698565b60068381548110151561229657fe5b90600052602060002090600302016101206040519081016040529081600082015481526020016001820160009054906101000a900467ffffffffffffffff1667ffffffffffffffff1667ffffffffffffffff1681526020016001820160089054906101000a900467ffffffffffffffff1667ffffffffffffffff1667ffffffffffffffff1681526020016001820160109054906101000a900463ffffffff1663ffffffff1663ffffffff1681526020016001820160149054906101000a900463ffffffff1663ffffffff1663ffffffff1681526020016001820160189054906101000a900463ffffffff1663ffffffff1663ffffffff16815260200160018201601c9054906101000a900461ffff1661ffff1661ffff16815260200160018201601e9054906101000a900461ffff1661ffff1661ffff1681526020016002820160009054906101000a900461ffff1661ffff1661ffff16815250509050600d60009054906101000a900473ffffffffffffffffffffffffffffffffffffffff1673ffffffffffffffffffffffffffffffffffffffff166361a7690082600001516040518263ffffffff167c010000000000000000000000000000000000000000000000000000000002815260040180828152602001915050600060405180830381600087803b15801561248857600080fd5b505af115801561249c573d6000803e3d6000fd5b505050506040513d6000823e3d601f19601f8201168201806040525060208110156124c657600080fd5b8101908080516401000000008111156124de57600080fd5b828101905060208101848111156124f457600080fd5b815185602082028301116401000000008211171561251157600080fd5b5050929190505050915050919050565b600d60009054906101000a900473ffffffffffffffffffffffffffffffffffffffff1681565b600080612552614698565b60008963ffffffff168a14151561256857600080fd5b8863ffffffff168914151561257c57600080fd5b8761ffff168814151561258e57600080fd5b60028881151561259a57fe5b049250600d8361ffff1611156125af57600d92505b610120604051908101604052808881526020014267ffffffffffffffff168152602001600067ffffffffffffffff1681526020018b63ffffffff1681526020018a63ffffffff168152602001600063ffffffff1681526020018461ffff1681526020018961ffff1681526020018761ffff1681525091506001600683908060018154018082558091505090600182039060005260206000209060030201600090919290919091506000820151816000015560208201518160010160006101000a81548167ffffffffffffffff021916908367ffffffffffffffff16021790555060408201518160010160086101000a81548167ffffffffffffffff021916908367ffffffffffffffff16021790555060608201518160010160106101000a81548163ffffffff021916908363ffffffff16021790555060808201518160010160146101000a81548163ffffffff021916908363ffffffff16021790555060a08201518160010160186101000a81548163ffffffff021916908363ffffffff16021790555060c082015181600101601c6101000a81548161ffff021916908361ffff16021790555060e082015181600101601e6101000a81548161ffff021916908361ffff1602179055506101008201518160020160006101000a81548161ffff021916908361ffff16021790555050500390508063ffffffff16811415156127b657600080fd5b7f6bdb6252e3aabe7c79b1e94c2d24f9cbed550af06f37098cc8e28e34c6140c668582846060015163ffffffff16856080015163ffffffff168660000151876101000151604051808773ffffffffffffffffffffffffffffffffffffffff1673ffffffffffffffffffffffffffffffffffffffff1681526020018681526020018581526020018481526020018381526020018261ffff1661ffff168152602001965050505050505060405180910390a161287260008683613fd9565b8093505050509695505050505050565b600f60009054906101000a900473ffffffffffffffffffffffffffffffffffffffff1681565b600a6020528060005260406000206000915054906101000a900473ffffffffffffffffffffffffffffffffffffffff1681565b600080600080851115156128ee57600080fd5b6000841115156128fd57600080fd5b60068581548110151561290c57fe5b9060005260206000209060030201915060068481548110151561292b57fe5b9060005260206000209060030201905061294782868387614211565b801561295957506129588486614426565b5b9250505092915050565b61296d3382613bdb565b151561297857600080fd5b81600a600083815260200190815260200160002060006101000a81548173ffffffffffffffffffffffffffffffffffffffff021916908373ffffffffffffffffffffffffffffffffffffffff1602179055505050565b6129d83382613bdb565b15156129e357600080fd5b600073ffffffffffffffffffffffffffffffffffffffff168273ffffffffffffffffffffffffffffffffffffffff1614151515612a1f57600080fd5b612a2a338383613fd9565b5050565b600e60009054906101000a900473ffffffffffffffffffffffffffffffffffffffff1681565b60006007600083815260200190815260200160002060009054906101000a900473ffffffffffffffffffffffffffffffffffffffff169050600073ffffffffffffffffffffffffffffffffffffffff168173ffffffffffffffffffffffffffffffffffffffff1614151515612ac857600080fd5b919050565b612ad5614717565b612adf3083613bdb565b1515612aea57600080fd5b60116000838152602001908152602001600020608060405190810160405290816000820160009054906101000a900473ffffffffffffffffffffffffffffffffffffffff1673ffffffffffffffffffffffffffffffffffffffff1673ffffffffffffffffffffffffffffffffffffffff16815260200160018201548152602001600282015481526020016003820160009054906101000a900460ff1660ff1660ff16815250509050612b9c3383613bdb565b151515612ba857600080fd5b348160200151141515612bba57600080fd5b600060ff16816060015160ff16141515612bd357600080fd5b612bdc82614539565b612be7303384613fd9565b806000015173ffffffffffffffffffffffffffffffffffffffff166108fc349081150290604051600060405180830381858888f19350505050158015612c31573d6000803e3d6000fd5b505050565b612c3e614717565b612c483384613bdb565b1515612c5357600080fd5b600084111515612c6257600080fd5b6080604051908101604052803373ffffffffffffffffffffffffffffffffffffffff1681526020018581526020018481526020018360ff168152509050612caa333085613fd9565b806011600085815260200190815260200160002060008201518160000160006101000a81548173ffffffffffffffffffffffffffffffffffffffff021916908373ffffffffffffffffffffffffffffffffffffffff160217905550602082015181600101556040820151816002015560608201518160030160006101000a81548160ff021916908360ff16021790555090505050505050565b6000600860008373ffffffffffffffffffffffffffffffffffffffff1673ffffffffffffffffffffffffffffffffffffffff168152602001908152602001600020549050919050565b600460009054906101000a900473ffffffffffffffffffffffffffffffffffffffff1681565b612dba614759565b612dc2614698565b600683815481101515612dd157fe5b90600052602060002090600302016101206040519081016040529081600082015481526020016001820160009054906101000a900467ffffffffffffffff1667ffffffffffffffff1667ffffffffffffffff1681526020016001820160089054906101000a900467ffffffffffffffff1667ffffffffffffffff1667ffffffffffffffff1681526020016001820160109054906101000a900463ffffffff1663ffffffff1663ffffffff1681526020016001820160149054906101000a900463ffffffff1663ffffffff1663ffffffff1681526020016001820160189054906101000a900463ffffffff1663ffffffff1663ffffffff16815260200160018201601c9054906101000a900461ffff1661ffff1661ffff16815260200160018201601e9054906101000a900461ffff1661ffff1661ffff1681526020016002820160009054906101000a900461ffff1661ffff1661ffff16815250509050600d60009054906101000a900473ffffffffffffffffffffffffffffffffffffffff1673ffffffffffffffffffffffffffffffffffffffff166377a74a2082600001516040518263ffffffff167c0100000000000000000000000000000000000000000000000000000000028152600401808281526020019150506101c060405180830381600087803b158015612fc457600080fd5b505af1158015612fd8573d6000803e3d6000fd5b505050506040513d601f19601f820116820180604052506101c0811015612ffe57600080fd5b8101908091905050915050919050565b60025481565b600c54341015151561302557600080fd5b61302f3383613bdb565b151561303a57600080fd5b6130443382613bdb565b151561304f57600080fd5b6130598282613c47565b5050565b601060009054906101000a900473ffffffffffffffffffffffffffffffffffffffff1681565b6040805190810160405280600281526020017f504800000000000000000000000000000000000000000000000000000000000081525081565b6130c4614717565b6130ce3083613bdb565b15156130d957600080fd5b60116000838152602001908152602001600020608060405190810160405290816000820160009054906101000a900473ffffffffffffffffffffffffffffffffffffffff1673ffffffffffffffffffffffffffffffffffffffff1673ffffffffffffffffffffffffffffffffffffffff16815260200160018201548152602001600282015481526020016003820160009054906101000a900460ff1660ff1660ff16815250509050806000015173ffffffffffffffffffffffffffffffffffffffff163373ffffffffffffffffffffffffffffffffffffffff161415156131bf57600080fd5b6131c882614539565b6131d3303384613fd9565b5050565b60606000606060008060006131eb87612d43565b9450600085141561322e5760006040519080825280602002602001820160405280156132265781602001602082028038833980820191505090505b50955061331a565b8460405190808252806020026020018201604052801561325d5781602001602082028038833980820191505090505b509350613268611f4a565b925060009150600190505b8281111515613316578673ffffffffffffffffffffffffffffffffffffffff166007600083815260200190815260200160002060009054906101000a900473ffffffffffffffffffffffffffffffffffffffff1673ffffffffffffffffffffffffffffffffffffffff161415613309578084838151811015156132f257fe5b906020019060200201818152505081806001019250505b8080600101915050613273565b8395505b5050505050919050565b600080600080613332614717565b60116000878152602001908152602001600020608060405190810160405290816000820160009054906101000a900473ffffffffffffffffffffffffffffffffffffffff1673ffffffffffffffffffffffffffffffffffffffff1673ffffffffffffffffffffffffffffffffffffffff16815260200160018201548152602001600282015481526020016003820160009054906101000a900460ff1660ff1660ff1681525050905080600001518160200151826040015183606001519450945094509450509193509193565b60086020528060005260406000206000915090505481565b600081600e8110151561342557fe5b60089182820401919006600402915054906101000a900463ffffffff1681565b60068181548110151561345457fe5b90600052602060002090600302016000915090508060000154908060010160009054906101000a900467ffffffffffffffff16908060010160089054906101000a900467ffffffffffffffff16908060010160109054906101000a900463ffffffff16908060010160149054906101000a900463ffffffff16908060010160189054906101000a900463ffffffff169080600101601c9054906101000a900461ffff169080600101601e9054906101000a900461ffff16908060020160009054906101000a900461ffff16905089565b600073ffffffffffffffffffffffffffffffffffffffff168273ffffffffffffffffffffffffffffffffffffffff161415151561356057600080fd5b3073ffffffffffffffffffffffffffffffffffffffff168273ffffffffffffffffffffffffffffffffffffffff161415151561359b57600080fd5b6135a53382613bdb565b15156135b057600080fd5b6135bb338383613fd9565b5050565b60076020528060005260406000206000915054906101000a900473ffffffffffffffffffffffffffffffffffffffff1681565b600c5481565b60006001905090565b6000600460009054906101000a900473ffffffffffffffffffffffffffffffffffffffff16905090565b60606040805190810160405280600a81526020017f4272656564205465737400000000000000000000000000000000000000000000815250905090565b600360009054906101000a900473ffffffffffffffffffffffffffffffffffffffff1681565b6000601280549050905090565b600360009054906101000a900473ffffffffffffffffffffffffffffffffffffffff1673ffffffffffffffffffffffffffffffffffffffff163373ffffffffffffffffffffffffffffffffffffffff161415156136f757600080fd5b80600560006101000a81548173ffffffffffffffffffffffffffffffffffffffff021916908373ffffffffffffffffffffffffffffffffffffffff16021790555050565b60008060008311151561374d57600080fd5b60068381548110151561375c57fe5b906000526020600020906003020190506138c2816101206040519081016040529081600082015481526020016001820160009054906101000a900467ffffffffffffffff1667ffffffffffffffff1667ffffffffffffffff1681526020016001820160089054906101000a900467ffffffffffffffff1667ffffffffffffffff1667ffffffffffffffff1681526020016001820160109054906101000a900463ffffffff1663ffffffff1663ffffffff1681526020016001820160149054906101000a900463ffffffff1663ffffffff1663ffffffff1681526020016001820160189054906101000a900463ffffffff1663ffffffff1663ffffffff16815260200160018201601c9054906101000a900461ffff1661ffff1661ffff16815260200160018201601e9054906101000a900461ffff1661ffff1661ffff1681526020016002820160009054906101000a900461ffff1661ffff1661ffff168152505061459d565b915050919050565b60096020528060005260406000206000915054906101000a900473ffffffffffffffffffffffffffffffffffffffff1681565b600360009054906101000a900473ffffffffffffffffffffffffffffffffffffffff1673ffffffffffffffffffffffffffffffffffffffff163373ffffffffffffffffffffffffffffffffffffffff1614151561395957600080fd5b80600b60006101000a81548173ffffffffffffffffffffffffffffffffffffffff021916908373ffffffffffffffffffffffffffffffffffffffff16021790555050565b600b60009054906101000a900473ffffffffffffffffffffffffffffffffffffffff1681565b6139cb614717565b6139d53084613bdb565b15156139e057600080fd5b60116000848152602001908152602001600020608060405190810160405290816000820160009054906101000a900473ffffffffffffffffffffffffffffffffffffffff1673ffffffffffffffffffffffffffffffffffffffff1673ffffffffffffffffffffffffffffffffffffffff16815260200160018201548152602001600282015481526020016003820160009054906101000a900460ff1660ff1660ff16815250509050613a923384613bdb565b151515613a9e57600080fd5b348160200151141515613ab057600080fd5b600160ff16816060015160ff16141515613ac957600080fd5b613ad283614539565b613ae130826000015185613fd9565b613aeb8383613c47565b806000015173ffffffffffffffffffffffffffffffffffffffff166108fc349081150290604051600060405180830381858888f19350505050158015613b35573d6000803e3d6000fd5b50505050565b600360009054906101000a900473ffffffffffffffffffffffffffffffffffffffff1673ffffffffffffffffffffffffffffffffffffffff163373ffffffffffffffffffffffffffffffffffffffff16141515613b9757600080fd5b80600460006101000a81548173ffffffffffffffffffffffffffffffffffffffff021916908373ffffffffffffffffffffffffffffffffffffffff16021790555050565b60008273ffffffffffffffffffffffffffffffffffffffff166007600084815260200190815260200160002060009054906101000a900473ffffffffffffffffffffffffffffffffffffffff1673ffffffffffffffffffffffffffffffffffffffff1614905092915050565b600080600683815481101515613c5957fe5b90600052602060002090600302019150600684815481101515613c7857fe5b90600052602060002090600302019050828160010160186101000a81548163ffffffff021916908363ffffffff160217905550613cb4826145c2565b613cbd816145c2565b600a600085815260200190815260200160002060006101000a81549073ffffffffffffffffffffffffffffffffffffffff0219169055600a600084815260200190815260200160002060006101000a81549073ffffffffffffffffffffffffffffffffffffffff0219169055600f60009054906101000a900473ffffffffffffffffffffffffffffffffffffffff1673ffffffffffffffffffffffffffffffffffffffff1663e11625696007600087815260200190815260200160002060009054906101000a900473ffffffffffffffffffffffffffffffffffffffff1686866040518463ffffffff167c0100000000000000000000000000000000000000000000000000000000028152600401808473ffffffffffffffffffffffffffffffffffffffff1673ffffffffffffffffffffffffffffffffffffffff1681526020018381526020018281526020019350505050600060405180830381600087803b158015613e2957600080fd5b505af1158015613e3d573d6000803e3d6000fd5b505050507f241ea03ca20251805084d27d4440371c34a0b85ff108f6bb5611248f73818b806007600086815260200190815260200160002060009054906101000a900473ffffffffffffffffffffffffffffffffffffffff1685858460010160089054906101000a900467ffffffffffffffff16604051808573ffffffffffffffffffffffffffffffffffffffff1673ffffffffffffffffffffffffffffffffffffffff1681526020018481526020018381526020018267ffffffffffffffff16815260200194505050505060405180910390a150505050565b806009600084815260200190815260200160002060006101000a81548173ffffffffffffffffffffffffffffffffffffffff021916908373ffffffffffffffffffffffffffffffffffffffff1602179055505050565b60008273ffffffffffffffffffffffffffffffffffffffff166009600084815260200190815260200160002060009054906101000a900473ffffffffffffffffffffffffffffffffffffffff1673ffffffffffffffffffffffffffffffffffffffff1614905092915050565b600860008373ffffffffffffffffffffffffffffffffffffffff1673ffffffffffffffffffffffffffffffffffffffff16815260200190815260200160002060008154809291906001019190505550816007600083815260200190815260200160002060006101000a81548173ffffffffffffffffffffffffffffffffffffffff021916908373ffffffffffffffffffffffffffffffffffffffff160217905550600073ffffffffffffffffffffffffffffffffffffffff168373ffffffffffffffffffffffffffffffffffffffff1614151561416d57600860008473ffffffffffffffffffffffffffffffffffffffff1673ffffffffffffffffffffffffffffffffffffffff1681526020019081526020016000206000815480929190600190039190505550600a600082815260200190815260200160002060006101000a81549073ffffffffffffffffffffffffffffffffffffffff02191690556009600082815260200190815260200160002060006101000a81549073ffffffffffffffffffffffffffffffffffffffff02191690555b7fddf252ad1be2c89b69c2b068fc378daa952ba7f163c4a11628f55a4df523b3ef838383604051808473ffffffffffffffffffffffffffffffffffffffff1673ffffffffffffffffffffffffffffffffffffffff1681526020018373ffffffffffffffffffffffffffffffffffffffff1673ffffffffffffffffffffffffffffffffffffffff168152602001828152602001935050505060405180910390a1505050565b600081841415614224576000905061441e565b818560010160109054906101000a900463ffffffff1663ffffffff1614806142655750818560010160149054906101000a900463ffffffff1663ffffffff16145b15614273576000905061441e565b838360010160109054906101000a900463ffffffff1663ffffffff1614806142b45750838360010160149054906101000a900463ffffffff1663ffffffff16145b156142c2576000905061441e565b60008360010160109054906101000a900463ffffffff1663ffffffff161480614305575060008560010160109054906101000a900463ffffffff1663ffffffff16145b15614313576001905061441e565b8460010160109054906101000a900463ffffffff1663ffffffff168360010160109054906101000a900463ffffffff1663ffffffff16148061438857508460010160149054906101000a900463ffffffff1663ffffffff168360010160109054906101000a900463ffffffff1663ffffffff16145b15614396576000905061441e565b8460010160109054906101000a900463ffffffff1663ffffffff168360010160149054906101000a900463ffffffff1663ffffffff16148061440b57508460010160149054906101000a900463ffffffff1663ffffffff168360010160149054906101000a900463ffffffff1663ffffffff16145b15614419576000905061441e565b600190505b949350505050565b60008060006007600085815260200190815260200160002060009054906101000a900473ffffffffffffffffffffffffffffffffffffffff1691506007600086815260200190815260200160002060009054906101000a900473ffffffffffffffffffffffffffffffffffffffff1690508073ffffffffffffffffffffffffffffffffffffffff168273ffffffffffffffffffffffffffffffffffffffff16148061452f57508173ffffffffffffffffffffffffffffffffffffffff16600a600087815260200190815260200160002060009054906101000a900473ffffffffffffffffffffffffffffffffffffffff1673ffffffffffffffffffffffffffffffffffffffff16145b9250505092915050565b60116000828152602001908152602001600020600080820160006101000a81549073ffffffffffffffffffffffffffffffffffffffff0219169055600182016000905560028201600090556003820160006101000a81549060ff0219169055505050565b60004367ffffffffffffffff16826040015167ffffffffffffffff1611159050919050565b43600254600083600101601c9054906101000a900461ffff1661ffff16600e811015156145eb57fe5b600891828204019190066004029054906101000a900463ffffffff1663ffffffff1681151561461657fe5b04018160010160086101000a81548167ffffffffffffffff021916908367ffffffffffffffff160217905550600d81600101601c9054906101000a900461ffff1661ffff16101561469557600181600101601c8282829054906101000a900461ffff160192506101000a81548161ffff021916908361ffff1602179055505b50565b6101206040519081016040528060008152602001600067ffffffffffffffff168152602001600067ffffffffffffffff168152602001600063ffffffff168152602001600063ffffffff168152602001600063ffffffff168152602001600061ffff168152602001600061ffff168152602001600061ffff1681525090565b608060405190810160405280600073ffffffffffffffffffffffffffffffffffffffff1681526020016000815260200160008152602001600060ff1681525090565b6101c060405190810160405280600e906020820280388339808201915050905050905600a165627a7a72305820ec4105214af5253fdfe74f8782b064ce62c88627a2ca2904533b2e76959577920029",
  "source": "pragma solidity ^0.4.25;\n\nimport \"./PZHeroFactory.sol\";\n\ncontract PZHeroCore is PZHeroFactory\n{\n    /**\n    * Constructor\n    * @param _addrItemCore                  Address of Item Contract\n    * @param _addrEggCore                   Address of Egg Contract\n    * @param _addrGeneScience               Address of GeneScience contract\n    *\n     */\n    constructor(address _addrItemCore, address _addrEggCore, address _addrGeneScience) public\n    {\n        require(_addrItemCore != address(0x0));\n        addrItemCore = _addrItemCore;\n\n        addrGeneScience = _addrGeneScience;\n        PZGeneScienceInterface candidateContract = PZGeneScienceInterface(_addrGeneScience);\n\n        require(candidateContract.isGeneScience());\n\n        // Set the new contract address\n        contractGeneScience = candidateContract;\n\n        addrEggCore = _addrEggCore;\n        PZEggCore candidateEggContract = PZEggCore(_addrEggCore);\n\n        require(candidateEggContract.isEggContract());\n\n        // Set the new contract address\n        contractEggCore = candidateEggContract;\n    }\n\n    /**\n    * Gift Hero to other users\n    *\n    * @param _to                            address of receiver\n    * @param _heroId                        Hero Id to gift\n    *\n    */    \n    function giftHero(address _to, uint256 _heroId) external\n    {\n        require(_owns(msg.sender, _heroId));\n        require(_to != address(0x0));\n        _transfer(msg.sender, _to, _heroId);\n    }\n\n    /**\n    * Get Information of an Hero\n    * @param _heroId                        Hero ID\n    *\n    * @return genes                         Genes\n    * @return birthTime                     BirthTime\n    * @return cooldownEndBlock              Cooldown Time\n    * @return matronId                      MatronID\n    * @return sireId                        Sire ID\n    * @return siringWithId                  Sire ID breeded with\n    * @return cooldownIndex                 Cooldown Index\n    * @return generation                    Generation\n    * @return level                         Level\n    *\n     */\n    function getHero(uint _heroId)\n        public\n        view\n        returns(\n            uint256 genes,\n            uint64 birthTime,\n            uint64 cooldownEndBlock,\n            uint32 matronId,\n            uint32 sireId,\n            uint32 siringWithId,\n            uint16 cooldownIndex,\n            uint16 generation,\n            uint16 level)\n    {\n        Hero memory _hero = heroes[_heroId];\n        return (_hero.genes,\n            _hero.birthTime,\n            _hero.cooldownEndBlock,\n            _hero.matronId, _hero.sireId,\n            _hero.siringWithId, _hero.cooldownIndex, _hero.generation, _hero.level);\n    }\n\n    /**\n    * Get Traits of Hero\n    * @param _heroId                      Hero Id\n    *\n    * @return traits\n    *\n     */\n    function getHeroTraits(uint _heroId) public view returns(uint8[]) {\n        Hero memory _hero = heroes[_heroId];\n        return contractGeneScience.decode(_hero.genes);\n    }\n\n    /**\n    * Get Appearance of Hero\n    * @param _heroId                      Hero Id\n    *\n    *\n     */\n    function getHeroAppearance(uint _heroId) public view returns(uint8[14]){\n        Hero memory _hero = heroes[_heroId];\n        return contractGeneScience.expressingTraits(_hero.genes);\n    }\n\n    function heroTest() external view returns (address){\n        return addrChest;\n    }\n\n    function isHeroContract() public pure returns (bool) {\n        return true;\n    }\n}\n",
  "sourcePath": "/Volumes/Backup/workspace/Dave(Tron_NFT)/pizzaHero/contracts/PZHeroCore.sol",
  "compiler": {
    "name": "solc",
    "version": "0.4.25+commit.69a1e720.Emscripten.clang"
  },
  "schemaVersion": "2.0.1",
  "updatedAt": "2020-01-04T03:21:47.608Z"
}