{
  "contractName": "PZHeroBreeding",
  "abi": [
    {
      "constant": true,
      "inputs": [
        {
          "name": "_interfaceID",
          "type": "bytes4"
        }
      ],
      "name": "supportsInterface",
      "outputs": [
        {
          "name": "",
          "type": "bool"
        }
      ],
      "payable": false,
      "stateMutability": "view",
      "type": "function"
    },
    {
      "constant": true,
      "inputs": [],
      "name": "name",
      "outputs": [
        {
          "name": "",
          "type": "string"
        }
      ],
      "payable": false,
      "stateMutability": "view",
      "type": "function"
    },
    {
      "constant": false,
      "inputs": [
        {
          "name": "_to",
          "type": "address"
        },
        {
          "name": "_heroId",
          "type": "uint256"
        }
      ],
      "name": "approve",
      "outputs": [],
      "payable": false,
      "stateMutability": "nonpayable",
      "type": "function"
    },
    {
      "constant": true,
      "inputs": [],
      "name": "totalSupply",
      "outputs": [
        {
          "name": "",
          "type": "uint256"
        }
      ],
      "payable": false,
      "stateMutability": "view",
      "type": "function"
    },
    {
      "constant": false,
      "inputs": [
        {
          "name": "_from",
          "type": "address"
        },
        {
          "name": "_to",
          "type": "address"
        },
        {
          "name": "_heroId",
          "type": "uint256"
        }
      ],
      "name": "transferFrom",
      "outputs": [],
      "payable": false,
      "stateMutability": "nonpayable",
      "type": "function"
    },
    {
      "constant": true,
      "inputs": [],
      "name": "addrItemCore",
      "outputs": [
        {
          "name": "",
          "type": "address"
        }
      ],
      "payable": false,
      "stateMutability": "view",
      "type": "function"
    },
    {
      "constant": true,
      "inputs": [],
      "name": "contractGeneScience",
      "outputs": [
        {
          "name": "",
          "type": "address"
        }
      ],
      "payable": false,
      "stateMutability": "view",
      "type": "function"
    },
    {
      "constant": true,
      "inputs": [],
      "name": "contractEggCore",
      "outputs": [
        {
          "name": "",
          "type": "address"
        }
      ],
      "payable": false,
      "stateMutability": "view",
      "type": "function"
    },
    {
      "constant": true,
      "inputs": [
        {
          "name": "",
          "type": "uint256"
        }
      ],
      "name": "sireAllowedToAddress",
      "outputs": [
        {
          "name": "",
          "type": "address"
        }
      ],
      "payable": false,
      "stateMutability": "view",
      "type": "function"
    },
    {
      "constant": true,
      "inputs": [],
      "name": "addrGeneScience",
      "outputs": [
        {
          "name": "",
          "type": "address"
        }
      ],
      "payable": false,
      "stateMutability": "view",
      "type": "function"
    },
    {
      "constant": true,
      "inputs": [
        {
          "name": "_heroId",
          "type": "uint256"
        }
      ],
      "name": "ownerOf",
      "outputs": [
        {
          "name": "owner",
          "type": "address"
        }
      ],
      "payable": false,
      "stateMutability": "view",
      "type": "function"
    },
    {
      "constant": true,
      "inputs": [
        {
          "name": "_owner",
          "type": "address"
        }
      ],
      "name": "balanceOf",
      "outputs": [
        {
          "name": "count",
          "type": "uint256"
        }
      ],
      "payable": false,
      "stateMutability": "view",
      "type": "function"
    },
    {
      "constant": true,
      "inputs": [],
      "name": "addrChest",
      "outputs": [
        {
          "name": "",
          "type": "address"
        }
      ],
      "payable": false,
      "stateMutability": "view",
      "type": "function"
    },
    {
      "constant": true,
      "inputs": [],
      "name": "secondsPerBlock",
      "outputs": [
        {
          "name": "",
          "type": "uint256"
        }
      ],
      "payable": false,
      "stateMutability": "view",
      "type": "function"
    },
    {
      "constant": true,
      "inputs": [],
      "name": "addrEggCore",
      "outputs": [
        {
          "name": "",
          "type": "address"
        }
      ],
      "payable": false,
      "stateMutability": "view",
      "type": "function"
    },
    {
      "constant": true,
      "inputs": [],
      "name": "symbol",
      "outputs": [
        {
          "name": "",
          "type": "string"
        }
      ],
      "payable": false,
      "stateMutability": "view",
      "type": "function"
    },
    {
      "constant": true,
      "inputs": [
        {
          "name": "_owner",
          "type": "address"
        }
      ],
      "name": "heroesOfOwner",
      "outputs": [
        {
          "name": "ownerHeroes",
          "type": "uint256[]"
        }
      ],
      "payable": false,
      "stateMutability": "view",
      "type": "function"
    },
    {
      "constant": true,
      "inputs": [
        {
          "name": "",
          "type": "address"
        }
      ],
      "name": "ownershipHeroCount",
      "outputs": [
        {
          "name": "",
          "type": "uint256"
        }
      ],
      "payable": false,
      "stateMutability": "view",
      "type": "function"
    },
    {
      "constant": true,
      "inputs": [
        {
          "name": "",
          "type": "uint256"
        }
      ],
      "name": "cooldowns",
      "outputs": [
        {
          "name": "",
          "type": "uint32"
        }
      ],
      "payable": false,
      "stateMutability": "view",
      "type": "function"
    },
    {
      "constant": true,
      "inputs": [
        {
          "name": "",
          "type": "uint256"
        }
      ],
      "name": "heroes",
      "outputs": [
        {
          "name": "date",
          "type": "uint256"
        },
        {
          "name": "price",
          "type": "uint256"
        },
        {
          "name": "tokenId",
          "type": "uint256"
        },
        {
          "name": "tokenPrice",
          "type": "uint256"
        },
        {
          "name": "genes",
          "type": "uint256"
        },
        {
          "name": "birthTime",
          "type": "uint64"
        },
        {
          "name": "cooldownEndBlock",
          "type": "uint64"
        },
        {
          "name": "matronId",
          "type": "uint32"
        },
        {
          "name": "sireId",
          "type": "uint32"
        },
        {
          "name": "siringWithId",
          "type": "uint32"
        },
        {
          "name": "cooldownIndex",
          "type": "uint16"
        },
        {
          "name": "generation",
          "type": "uint16"
        },
        {
          "name": "level",
          "type": "uint16"
        }
      ],
      "payable": false,
      "stateMutability": "view",
      "type": "function"
    },
    {
      "constant": false,
      "inputs": [
        {
          "name": "_to",
          "type": "address"
        },
        {
          "name": "_heroId",
          "type": "uint256"
        }
      ],
      "name": "transfer",
      "outputs": [],
      "payable": false,
      "stateMutability": "nonpayable",
      "type": "function"
    },
    {
      "constant": true,
      "inputs": [
        {
          "name": "",
          "type": "uint256"
        }
      ],
      "name": "heroIndexToOwner",
      "outputs": [
        {
          "name": "",
          "type": "address"
        }
      ],
      "payable": false,
      "stateMutability": "view",
      "type": "function"
    },
    {
      "constant": true,
      "inputs": [],
      "name": "autoBirthFee",
      "outputs": [
        {
          "name": "",
          "type": "uint256"
        }
      ],
      "payable": false,
      "stateMutability": "view",
      "type": "function"
    },
    {
      "constant": true,
      "inputs": [],
      "name": "addrAdmin",
      "outputs": [
        {
          "name": "",
          "type": "address"
        }
      ],
      "payable": false,
      "stateMutability": "view",
      "type": "function"
    },
    {
      "constant": false,
      "inputs": [
        {
          "name": "_addrItem",
          "type": "address"
        }
      ],
      "name": "setItemCoreAddress",
      "outputs": [],
      "payable": false,
      "stateMutability": "nonpayable",
      "type": "function"
    },
    {
      "constant": true,
      "inputs": [
        {
          "name": "",
          "type": "uint256"
        }
      ],
      "name": "heroIndexToApproved",
      "outputs": [
        {
          "name": "",
          "type": "address"
        }
      ],
      "payable": false,
      "stateMutability": "view",
      "type": "function"
    },
    {
      "constant": false,
      "inputs": [
        {
          "name": "_contractAddress",
          "type": "address"
        }
      ],
      "name": "setMetadataAddress",
      "outputs": [],
      "payable": false,
      "stateMutability": "nonpayable",
      "type": "function"
    },
    {
      "constant": false,
      "inputs": [
        {
          "name": "_date",
          "type": "uint256"
        },
        {
          "name": "_price",
          "type": "uint256"
        },
        {
          "name": "_tokenId",
          "type": "uint256"
        },
        {
          "name": "_tokenPrice",
          "type": "uint256"
        },
        {
          "name": "_matronId",
          "type": "uint256"
        },
        {
          "name": "_sireId",
          "type": "uint256"
        },
        {
          "name": "_generation",
          "type": "uint256"
        },
        {
          "name": "_genes",
          "type": "uint256"
        },
        {
          "name": "_level",
          "type": "uint16"
        },
        {
          "name": "_owner",
          "type": "address"
        }
      ],
      "name": "createHero",
      "outputs": [
        {
          "name": "",
          "type": "uint256"
        }
      ],
      "payable": false,
      "stateMutability": "nonpayable",
      "type": "function"
    },
    {
      "constant": true,
      "inputs": [],
      "name": "trc721Metadata",
      "outputs": [
        {
          "name": "",
          "type": "address"
        }
      ],
      "payable": false,
      "stateMutability": "view",
      "type": "function"
    },
    {
      "constant": false,
      "inputs": [
        {
          "name": "_addrChest",
          "type": "address"
        }
      ],
      "name": "setChestAddress",
      "outputs": [],
      "payable": false,
      "stateMutability": "nonpayable",
      "type": "function"
    },
    {
      "anonymous": false,
      "inputs": [
        {
          "indexed": false,
          "name": "owner",
          "type": "address"
        },
        {
          "indexed": false,
          "name": "matronId",
          "type": "uint256"
        },
        {
          "indexed": false,
          "name": "sireId",
          "type": "uint256"
        },
        {
          "indexed": false,
          "name": "cooldownEndBlock",
          "type": "uint256"
        }
      ],
      "name": "Pregnant",
      "type": "event"
    },
    {
      "anonymous": false,
      "inputs": [
        {
          "indexed": false,
          "name": "from",
          "type": "address"
        },
        {
          "indexed": false,
          "name": "to",
          "type": "address"
        },
        {
          "indexed": false,
          "name": "tokenId",
          "type": "uint256"
        }
      ],
      "name": "Transfer",
      "type": "event"
    },
    {
      "anonymous": false,
      "inputs": [
        {
          "indexed": false,
          "name": "owner",
          "type": "address"
        },
        {
          "indexed": false,
          "name": "approved",
          "type": "address"
        },
        {
          "indexed": false,
          "name": "tokenId",
          "type": "uint256"
        }
      ],
      "name": "Approval",
      "type": "event"
    },
    {
      "anonymous": false,
      "inputs": [
        {
          "indexed": false,
          "name": "owner",
          "type": "address"
        },
        {
          "indexed": false,
          "name": "kittyId",
          "type": "uint256"
        },
        {
          "indexed": false,
          "name": "matronId",
          "type": "uint256"
        },
        {
          "indexed": false,
          "name": "sireId",
          "type": "uint256"
        },
        {
          "indexed": false,
          "name": "genes",
          "type": "uint256"
        },
        {
          "indexed": false,
          "name": "level",
          "type": "uint16"
        }
      ],
      "name": "Birth",
      "type": "event"
    },
    {
      "constant": false,
      "inputs": [
        {
          "name": "_addrGeneScience",
          "type": "address"
        }
      ],
      "name": "setGeneScienceAddr",
      "outputs": [],
      "payable": false,
      "stateMutability": "nonpayable",
      "type": "function"
    },
    {
      "constant": false,
      "inputs": [
        {
          "name": "_addr",
          "type": "address"
        },
        {
          "name": "_sireId",
          "type": "uint256"
        }
      ],
      "name": "approveSiring",
      "outputs": [],
      "payable": false,
      "stateMutability": "nonpayable",
      "type": "function"
    },
    {
      "constant": true,
      "inputs": [
        {
          "name": "_heroId",
          "type": "uint256"
        }
      ],
      "name": "isReadyToBreed",
      "outputs": [
        {
          "name": "",
          "type": "bool"
        }
      ],
      "payable": false,
      "stateMutability": "view",
      "type": "function"
    },
    {
      "constant": true,
      "inputs": [
        {
          "name": "_matronId",
          "type": "uint256"
        },
        {
          "name": "_sireId",
          "type": "uint256"
        }
      ],
      "name": "canBreedWith",
      "outputs": [
        {
          "name": "",
          "type": "bool"
        }
      ],
      "payable": false,
      "stateMutability": "view",
      "type": "function"
    },
    {
      "constant": false,
      "inputs": [
        {
          "name": "_matronId",
          "type": "uint256"
        },
        {
          "name": "_sireId",
          "type": "uint256"
        }
      ],
      "name": "breedWithOwns",
      "outputs": [],
      "payable": true,
      "stateMutability": "payable",
      "type": "function"
    },
    {
      "constant": false,
      "inputs": [
        {
          "name": "_matronId",
          "type": "uint256"
        },
        {
          "name": "_sireId",
          "type": "uint256"
        }
      ],
      "name": "breedWithOwned",
      "outputs": [],
      "payable": true,
      "stateMutability": "payable",
      "type": "function"
    },
    {
      "constant": true,
      "inputs": [],
      "name": "breedTest",
      "outputs": [
        {
          "name": "",
          "type": "string"
        }
      ],
      "payable": false,
      "stateMutability": "pure",
      "type": "function"
    }
  ],
  "bytecode": "0x60806040526101c060405190810160405280603c63ffffffff1663ffffffff168152602001607863ffffffff1663ffffffff16815260200161012c63ffffffff1663ffffffff16815260200161025863ffffffff1663ffffffff16815260200161070863ffffffff1663ffffffff168152602001610e1063ffffffff1663ffffffff168152602001611c2063ffffffff1663ffffffff16815260200161384063ffffffff1663ffffffff16815260200161708063ffffffff1663ffffffff16815260200161e10063ffffffff1663ffffffff1681526020016201518063ffffffff1663ffffffff1681526020016202a30063ffffffff1663ffffffff1681526020016205460063ffffffff1663ffffffff16815260200162093a8063ffffffff1663ffffffff16815250600090600e6200013b9291906200018f565b50600f60025562989680600c5533600360006101000a81548173ffffffffffffffffffffffffffffffffffffffff021916908373ffffffffffffffffffffffffffffffffffffffff1602179055506200026f565b82600e600701600890048101928215620002265791602002820160005b83821115620001f257835183826101000a81548163ffffffff021916908363ffffffff1602179055509260200192600401602081600301049283019260010302620001ac565b8015620002245782816101000a81549063ffffffff0219169055600401602081600301049283019260010302620001f2565b505b50905062000235919062000239565b5090565b6200026c91905b808211156200026857600081816101000a81549063ffffffff02191690555060010162000240565b5090565b90565b613356806200027f6000396000f3006080604052600436106101cd576000357c0100000000000000000000000000000000000000000000000000000000900463ffffffff1680630153b8ee146101d257806301ffc9a7146101fc57806306fdde031461027a578063095ea7b314610324578063119c4d631461038b57806318160ddd146103e857806323b872dd1461042d5780632f6db1ee146104b45780633ba864fe146105255780634558f4c81461059657806346116e6f1461060757806346d22c701461068e5780634dfff04f146106f757806357cea4fd1461075e5780636352211e146107cf57806370a082311461085657806376c0b367146108c75780637a7d4937146109385780638a8fb54a1461097d5780638ca22e13146109a757806395d89b4114610a18578063989555f814610ac25780639ca7722d14610b745780639d6fac6f14610be5578063a8d4a03b14610c4c578063a9059cbb14610d5f578063aa54beac14610dc6578063b0c35c0514610e4d578063be9873d214610e92578063bfae2f0e14610f3c578063cb0e2c5a14610fad578063d3e6f49f1461100a578063de3e305f14611069578063e17b25af146110f0578063e32170ae1461114d578063f15f93881461121c578063f794ac1f1461128d575b600080fd5b6101fa60048036038101908080359060200190929190803590602001909291905050506112ea565b005b34801561020857600080fd5b50d3801561021557600080fd5b50d2801561022257600080fd5b5061026060048036038101908080357bffffffffffffffffffffffffffffffffffffffffffffffffffffffff19169060200190929190505050611322565b604051808215151515815260200191505060405180910390f35b34801561028657600080fd5b50d3801561029357600080fd5b50d280156102a057600080fd5b506102a9611633565b6040518080602001828103825283818151815260200191508051906020019080838360005b838110156102e95780820151818401526020810190506102ce565b50505050905090810190601f1680156103165780820380516001836020036101000a031916815260200191505b509250505060405180910390f35b34801561033057600080fd5b50d3801561033d57600080fd5b50d2801561034a57600080fd5b50610389600480360381019080803573ffffffffffffffffffffffffffffffffffffffff1690602001909291908035906020019092919050505061166c565b005b34801561039757600080fd5b50d380156103a457600080fd5b50d280156103b157600080fd5b506103e6600480360381019080803573ffffffffffffffffffffffffffffffffffffffff16906020019092919050505061172e565b005b3480156103f457600080fd5b50d3801561040157600080fd5b50d2801561040e57600080fd5b506104176118bf565b6040518082815260200191505060405180910390f35b34801561043957600080fd5b50d3801561044657600080fd5b50d2801561045357600080fd5b506104b2600480360381019080803573ffffffffffffffffffffffffffffffffffffffff169060200190929190803573ffffffffffffffffffffffffffffffffffffffff169060200190929190803590602001909291905050506118cf565b005b3480156104c057600080fd5b50d380156104cd57600080fd5b50d280156104da57600080fd5b506104e3611980565b604051808273ffffffffffffffffffffffffffffffffffffffff1673ffffffffffffffffffffffffffffffffffffffff16815260200191505060405180910390f35b34801561053157600080fd5b50d3801561053e57600080fd5b50d2801561054b57600080fd5b506105546119a6565b604051808273ffffffffffffffffffffffffffffffffffffffff1673ffffffffffffffffffffffffffffffffffffffff16815260200191505060405180910390f35b3480156105a257600080fd5b50d380156105af57600080fd5b50d280156105bc57600080fd5b506105c56119cc565b604051808273ffffffffffffffffffffffffffffffffffffffff1673ffffffffffffffffffffffffffffffffffffffff16815260200191505060405180910390f35b34801561061357600080fd5b50d3801561062057600080fd5b50d2801561062d57600080fd5b5061064c600480360381019080803590602001909291905050506119f2565b604051808273ffffffffffffffffffffffffffffffffffffffff1673ffffffffffffffffffffffffffffffffffffffff16815260200191505060405180910390f35b34801561069a57600080fd5b50d380156106a757600080fd5b50d280156106b457600080fd5b506106dd6004803603810190808035906020019092919080359060200190929190505050611a25565b604051808215151515815260200191505060405180910390f35b34801561070357600080fd5b50d3801561071057600080fd5b50d2801561071d57600080fd5b5061075c600480360381019080803573ffffffffffffffffffffffffffffffffffffffff16906020019092919080359060200190929190505050611aad565b005b34801561076a57600080fd5b50d3801561077757600080fd5b50d2801561078457600080fd5b5061078d611b18565b604051808273ffffffffffffffffffffffffffffffffffffffff1673ffffffffffffffffffffffffffffffffffffffff16815260200191505060405180910390f35b3480156107db57600080fd5b50d380156107e857600080fd5b50d280156107f557600080fd5b5061081460048036038101908080359060200190929190505050611b3e565b604051808273ffffffffffffffffffffffffffffffffffffffff1673ffffffffffffffffffffffffffffffffffffffff16815260200191505060405180910390f35b34801561086257600080fd5b50d3801561086f57600080fd5b50d2801561087c57600080fd5b506108b1600480360381019080803573ffffffffffffffffffffffffffffffffffffffff169060200190929190505050611bb7565b6040518082815260200191505060405180910390f35b3480156108d357600080fd5b50d380156108e057600080fd5b50d280156108ed57600080fd5b506108f6611c00565b604051808273ffffffffffffffffffffffffffffffffffffffff1673ffffffffffffffffffffffffffffffffffffffff16815260200191505060405180910390f35b34801561094457600080fd5b50d3801561095157600080fd5b50d2801561095e57600080fd5b50610967611c26565b6040518082815260200191505060405180910390f35b6109a56004803603810190808035906020019092919080359060200190929190505050611c2c565b005b3480156109b357600080fd5b50d380156109c057600080fd5b50d280156109cd57600080fd5b506109d6611c75565b604051808273ffffffffffffffffffffffffffffffffffffffff1673ffffffffffffffffffffffffffffffffffffffff16815260200191505060405180910390f35b348015610a2457600080fd5b50d38015610a3157600080fd5b50d28015610a3e57600080fd5b50610a47611c9b565b6040518080602001828103825283818151815260200191508051906020019080838360005b83811015610a87578082015181840152602081019050610a6c565b50505050905090810190601f168015610ab45780820380516001836020036101000a031916815260200191505b509250505060405180910390f35b348015610ace57600080fd5b50d38015610adb57600080fd5b50d28015610ae857600080fd5b50610b1d600480360381019080803573ffffffffffffffffffffffffffffffffffffffff169060200190929190505050611cd4565b6040518080602001828103825283818151815260200191508051906020019060200280838360005b83811015610b60578082015181840152602081019050610b45565b505050509050019250505060405180910390f35b348015610b8057600080fd5b50d38015610b8d57600080fd5b50d28015610b9a57600080fd5b50610bcf600480360381019080803573ffffffffffffffffffffffffffffffffffffffff169060200190929190505050611e21565b6040518082815260200191505060405180910390f35b348015610bf157600080fd5b50d38015610bfe57600080fd5b50d28015610c0b57600080fd5b50610c2a60048036038101908080359060200190929190505050611e39565b604051808263ffffffff1663ffffffff16815260200191505060405180910390f35b348015610c5857600080fd5b50d38015610c6557600080fd5b50d28015610c7257600080fd5b50610c9160048036038101908080359060200190929190505050611e68565b604051808e81526020018d81526020018c81526020018b81526020018a81526020018967ffffffffffffffff1667ffffffffffffffff1681526020018867ffffffffffffffff1667ffffffffffffffff1681526020018763ffffffff1663ffffffff1681526020018663ffffffff1663ffffffff1681526020018563ffffffff1663ffffffff1681526020018461ffff1661ffff1681526020018361ffff1661ffff1681526020018261ffff1661ffff1681526020019d505050505050505050505050505060405180910390f35b348015610d6b57600080fd5b50d38015610d7857600080fd5b50d28015610d8557600080fd5b50610dc4600480360381019080803573ffffffffffffffffffffffffffffffffffffffff16906020019092919080359060200190929190505050611f5f565b005b348015610dd257600080fd5b50d38015610ddf57600080fd5b50d28015610dec57600080fd5b50610e0b60048036038101908080359060200190929190505050611ffa565b604051808273ffffffffffffffffffffffffffffffffffffffff1673ffffffffffffffffffffffffffffffffffffffff16815260200191505060405180910390f35b348015610e5957600080fd5b50d38015610e6657600080fd5b50d28015610e7357600080fd5b50610e7c61202d565b6040518082815260200191505060405180910390f35b348015610e9e57600080fd5b50d38015610eab57600080fd5b50d28015610eb857600080fd5b50610ec1612033565b6040518080602001828103825283818151815260200191508051906020019080838360005b83811015610f01578082015181840152602081019050610ee6565b50505050905090810190601f168015610f2e5780820380516001836020036101000a031916815260200191505b509250505060405180910390f35b348015610f4857600080fd5b50d38015610f5557600080fd5b50d28015610f6257600080fd5b50610f6b612070565b604051808273ffffffffffffffffffffffffffffffffffffffff1673ffffffffffffffffffffffffffffffffffffffff16815260200191505060405180910390f35b348015610fb957600080fd5b50d38015610fc657600080fd5b50d28015610fd357600080fd5b50611008600480360381019080803573ffffffffffffffffffffffffffffffffffffffff169060200190929190505050612096565b005b34801561101657600080fd5b50d3801561102357600080fd5b50d2801561103057600080fd5b5061104f60048036038101908080359060200190929190505050612136565b604051808215151515815260200191505060405180910390f35b34801561107557600080fd5b50d3801561108257600080fd5b50d2801561108f57600080fd5b506110ae600480360381019080803590602001909291905050506122ed565b604051808273ffffffffffffffffffffffffffffffffffffffff1673ffffffffffffffffffffffffffffffffffffffff16815260200191505060405180910390f35b3480156110fc57600080fd5b50d3801561110957600080fd5b50d2801561111657600080fd5b5061114b600480360381019080803573ffffffffffffffffffffffffffffffffffffffff169060200190929190505050612320565b005b34801561115957600080fd5b50d3801561116657600080fd5b50d2801561117357600080fd5b506112066004803603810190808035906020019092919080359060200190929190803590602001909291908035906020019092919080359060200190929190803590602001909291908035906020019092919080359060200190929190803561ffff169060200190929190803573ffffffffffffffffffffffffffffffffffffffff1690602001909291905050506123c0565b6040518082815260200191505060405180910390f35b34801561122857600080fd5b50d3801561123557600080fd5b50d2801561124257600080fd5b5061124b612744565b604051808273ffffffffffffffffffffffffffffffffffffffff1673ffffffffffffffffffffffffffffffffffffffff16815260200191505060405180910390f35b34801561129957600080fd5b50d380156112a657600080fd5b50d280156112b357600080fd5b506112e8600480360381019080803573ffffffffffffffffffffffffffffffffffffffff16906020019092919050505061276a565b005b6112f4338361280a565b15156112ff57600080fd5b611309338261280a565b151561131457600080fd5b61131e8282612876565b5050565b600060405180807f737570706f727473496e74657266616365286279746573342900000000000000815250601901905060405180910390207bffffffffffffffffffffffffffffffffffffffffffffffffffffffff1916827bffffffffffffffffffffffffffffffffffffffffffffffffffffffff1916148061162c575060405180807f746f6b656e4d657461646174612875696e743235362c737472696e6729000000815250601d019050604051809103902060405180807f6865726f65734f664f776e6572286164647265737329000000000000000000008152506016019050604051809103902060405180807f7472616e7366657246726f6d28616464726573732c616464726573732c75696e81526020017f74323536290000000000000000000000000000000000000000000000000000008152506025019050604051809103902060405180807f7472616e7366657228616464726573732c75696e7432353629000000000000008152506019019050604051809103902060405180807f617070726f766528616464726573732c75696e743235362900000000000000008152506018019050604051809103902060405180807f6f776e65724f662875696e7432353629000000000000000000000000000000008152506010019050604051809103902060405180807f62616c616e63654f6628616464726573732900000000000000000000000000008152506012019050604051809103902060405180807f746f74616c537570706c79282900000000000000000000000000000000000000815250600d019050604051809103902060405180807f73796d626f6c28290000000000000000000000000000000000000000000000008152506008019050604051809103902060405180807f6e616d6528290000000000000000000000000000000000000000000000000000815250600601905060405180910390201818181818181818187bffffffffffffffffffffffffffffffffffffffffffffffffffffffff1916827bffffffffffffffffffffffffffffffffffffffffffffffffffffffff1916145b9050919050565b6040805190810160405280600881526020017f505a4865726f657300000000000000000000000000000000000000000000000081525081565b611676338261280a565b151561168157600080fd5b61168b8183612b72565b7f8c5be1e5ebec7d5bd14f71427d1e84f3dd0314c0f7b2291e5b200ac8c7c3b925338383604051808473ffffffffffffffffffffffffffffffffffffffff1673ffffffffffffffffffffffffffffffffffffffff1681526020018373ffffffffffffffffffffffffffffffffffffffff1673ffffffffffffffffffffffffffffffffffffffff168152602001828152602001935050505060405180910390a15050565b6000600360009054906101000a900473ffffffffffffffffffffffffffffffffffffffff1673ffffffffffffffffffffffffffffffffffffffff163373ffffffffffffffffffffffffffffffffffffffff1614151561178c57600080fd5b81600e60006101000a81548173ffffffffffffffffffffffffffffffffffffffff021916908373ffffffffffffffffffffffffffffffffffffffff1602179055508190508073ffffffffffffffffffffffffffffffffffffffff166354c15b826040518163ffffffff167c0100000000000000000000000000000000000000000000000000000000028152600401602060405180830381600087803b15801561183457600080fd5b505af1158015611848573d6000803e3d6000fd5b505050506040513d602081101561185e57600080fd5b8101908080519060200190929190505050151561187a57600080fd5b80600d60006101000a81548173ffffffffffffffffffffffffffffffffffffffff021916908373ffffffffffffffffffffffffffffffffffffffff1602179055505050565b6000600160068054905003905090565b600073ffffffffffffffffffffffffffffffffffffffff168273ffffffffffffffffffffffffffffffffffffffff161415151561190b57600080fd5b3073ffffffffffffffffffffffffffffffffffffffff168273ffffffffffffffffffffffffffffffffffffffff161415151561194657600080fd5b6119503382612bc8565b151561195b57600080fd5b611965838261280a565b151561197057600080fd5b61197b838383612c34565b505050565b600560009054906101000a900473ffffffffffffffffffffffffffffffffffffffff1681565b600d60009054906101000a900473ffffffffffffffffffffffffffffffffffffffff1681565b600f60009054906101000a900473ffffffffffffffffffffffffffffffffffffffff1681565b600a6020528060005260406000206000915054906101000a900473ffffffffffffffffffffffffffffffffffffffff1681565b60008060008085111515611a3857600080fd5b600084111515611a4757600080fd5b600685815481101515611a5657fe5b90600052602060002090600702019150600684815481101515611a7557fe5b90600052602060002090600702019050611a9182868387612e6c565b8015611aa35750611aa28486613081565b5b9250505092915050565b611ab7338261280a565b1515611ac257600080fd5b81600a600083815260200190815260200160002060006101000a81548173ffffffffffffffffffffffffffffffffffffffff021916908373ffffffffffffffffffffffffffffffffffffffff1602179055505050565b600e60009054906101000a900473ffffffffffffffffffffffffffffffffffffffff1681565b60006007600083815260200190815260200160002060009054906101000a900473ffffffffffffffffffffffffffffffffffffffff169050600073ffffffffffffffffffffffffffffffffffffffff168173ffffffffffffffffffffffffffffffffffffffff1614151515611bb257600080fd5b919050565b6000600860008373ffffffffffffffffffffffffffffffffffffffff1673ffffffffffffffffffffffffffffffffffffffff168152602001908152602001600020549050919050565b600460009054906101000a900473ffffffffffffffffffffffffffffffffffffffff1681565b60025481565b600c543410151515611c3d57600080fd5b611c47338361280a565b1515611c5257600080fd5b611c5c338261280a565b1515611c6757600080fd5b611c718282612876565b5050565b601060009054906101000a900473ffffffffffffffffffffffffffffffffffffffff1681565b6040805190810160405280600281526020017f504800000000000000000000000000000000000000000000000000000000000081525081565b6060600060606000806000611ce887611bb7565b94506000851415611d2b576000604051908082528060200260200182016040528015611d235781602001602082028038833980820191505090505b509550611e17565b84604051908082528060200260200182016040528015611d5a5781602001602082028038833980820191505090505b509350611d656118bf565b925060009150600190505b8281111515611e13578673ffffffffffffffffffffffffffffffffffffffff166007600083815260200190815260200160002060009054906101000a900473ffffffffffffffffffffffffffffffffffffffff1673ffffffffffffffffffffffffffffffffffffffff161415611e0657808483815181101515611def57fe5b906020019060200201818152505081806001019250505b8080600101915050611d70565b8395505b5050505050919050565b60086020528060005260406000206000915090505481565b600081600e81101515611e4857fe5b60089182820401919006600402915054906101000a900463ffffffff1681565b600681815481101515611e7757fe5b90600052602060002090600702016000915090508060000154908060010154908060020154908060030154908060040154908060050160009054906101000a900467ffffffffffffffff16908060050160089054906101000a900467ffffffffffffffff16908060050160109054906101000a900463ffffffff16908060050160149054906101000a900463ffffffff16908060050160189054906101000a900463ffffffff169080600501601c9054906101000a900461ffff169080600501601e9054906101000a900461ffff16908060060160009054906101000a900461ffff1690508d565b600073ffffffffffffffffffffffffffffffffffffffff168273ffffffffffffffffffffffffffffffffffffffff1614151515611f9b57600080fd5b3073ffffffffffffffffffffffffffffffffffffffff168273ffffffffffffffffffffffffffffffffffffffff1614151515611fd657600080fd5b611fe0338261280a565b1515611feb57600080fd5b611ff6338383612c34565b5050565b60076020528060005260406000206000915054906101000a900473ffffffffffffffffffffffffffffffffffffffff1681565b600c5481565b60606040805190810160405280600a81526020017f4272656564205465737400000000000000000000000000000000000000000000815250905090565b600360009054906101000a900473ffffffffffffffffffffffffffffffffffffffff1681565b600360009054906101000a900473ffffffffffffffffffffffffffffffffffffffff1673ffffffffffffffffffffffffffffffffffffffff163373ffffffffffffffffffffffffffffffffffffffff161415156120f257600080fd5b80600560006101000a81548173ffffffffffffffffffffffffffffffffffffffff021916908373ffffffffffffffffffffffffffffffffffffffff16021790555050565b60008060008311151561214857600080fd5b60068381548110151561215757fe5b906000526020600020906007020190506122e5816101a0604051908101604052908160008201548152602001600182015481526020016002820154815260200160038201548152602001600482015481526020016005820160009054906101000a900467ffffffffffffffff1667ffffffffffffffff1667ffffffffffffffff1681526020016005820160089054906101000a900467ffffffffffffffff1667ffffffffffffffff1667ffffffffffffffff1681526020016005820160109054906101000a900463ffffffff1663ffffffff1663ffffffff1681526020016005820160149054906101000a900463ffffffff1663ffffffff1663ffffffff1681526020016005820160189054906101000a900463ffffffff1663ffffffff1663ffffffff16815260200160058201601c9054906101000a900461ffff1661ffff1661ffff16815260200160058201601e9054906101000a900461ffff1661ffff1661ffff1681526020016006820160009054906101000a900461ffff1661ffff1661ffff1681525050613194565b915050919050565b60096020528060005260406000206000915054906101000a900473ffffffffffffffffffffffffffffffffffffffff1681565b600360009054906101000a900473ffffffffffffffffffffffffffffffffffffffff1673ffffffffffffffffffffffffffffffffffffffff163373ffffffffffffffffffffffffffffffffffffffff1614151561237c57600080fd5b80600b60006101000a81548173ffffffffffffffffffffffffffffffffffffffff021916908373ffffffffffffffffffffffffffffffffffffffff16021790555050565b6000806123cb61328f565b60008963ffffffff168a1415156123e157600080fd5b8863ffffffff16891415156123f557600080fd5b8761ffff168814151561240757600080fd5b60028881151561241357fe5b049250600d8361ffff16111561242857600d92505b6101a0604051908101604052808f81526020018e81526020018d81526020018c81526020018881526020014267ffffffffffffffff168152602001600067ffffffffffffffff1681526020018b63ffffffff1681526020018a63ffffffff168152602001600063ffffffff1681526020018461ffff1681526020018961ffff1681526020018761ffff168152509150600160068390806001815401808255809150509060018203906000526020600020906007020160009091929091909150600082015181600001556020820151816001015560408201518160020155606082015181600301556080820151816004015560a08201518160050160006101000a81548167ffffffffffffffff021916908367ffffffffffffffff16021790555060c08201518160050160086101000a81548167ffffffffffffffff021916908367ffffffffffffffff16021790555060e08201518160050160106101000a81548163ffffffff021916908363ffffffff1602179055506101008201518160050160146101000a81548163ffffffff021916908363ffffffff1602179055506101208201518160050160186101000a81548163ffffffff021916908363ffffffff16021790555061014082015181600501601c6101000a81548161ffff021916908361ffff16021790555061016082015181600501601e6101000a81548161ffff021916908361ffff1602179055506101808201518160060160006101000a81548161ffff021916908361ffff16021790555050500390508063ffffffff168114151561267357600080fd5b7f6bdb6252e3aabe7c79b1e94c2d24f9cbed550af06f37098cc8e28e34c6140c6685828460e0015163ffffffff1685610100015163ffffffff168660800151876101800151604051808773ffffffffffffffffffffffffffffffffffffffff1673ffffffffffffffffffffffffffffffffffffffff1681526020018681526020018581526020018481526020018381526020018261ffff1661ffff168152602001965050505050505060405180910390a161273060008683612c34565b8093505050509a9950505050505050505050565b600b60009054906101000a900473ffffffffffffffffffffffffffffffffffffffff1681565b600360009054906101000a900473ffffffffffffffffffffffffffffffffffffffff1673ffffffffffffffffffffffffffffffffffffffff163373ffffffffffffffffffffffffffffffffffffffff161415156127c657600080fd5b80600460006101000a81548173ffffffffffffffffffffffffffffffffffffffff021916908373ffffffffffffffffffffffffffffffffffffffff16021790555050565b60008273ffffffffffffffffffffffffffffffffffffffff166007600084815260200190815260200160002060009054906101000a900473ffffffffffffffffffffffffffffffffffffffff1673ffffffffffffffffffffffffffffffffffffffff1614905092915050565b60008060068381548110151561288857fe5b906000526020600020906007020191506006848154811015156128a757fe5b90600052602060002090600702019050828160050160186101000a81548163ffffffff021916908363ffffffff1602179055506128e3826131b9565b6128ec816131b9565b600a600085815260200190815260200160002060006101000a81549073ffffffffffffffffffffffffffffffffffffffff0219169055600a600084815260200190815260200160002060006101000a81549073ffffffffffffffffffffffffffffffffffffffff0219169055600f60009054906101000a900473ffffffffffffffffffffffffffffffffffffffff1673ffffffffffffffffffffffffffffffffffffffff16639f5010e06007600087815260200190815260200160002060009054906101000a900473ffffffffffffffffffffffffffffffffffffffff16428560010154866002015487600301548a8a6040518863ffffffff167c0100000000000000000000000000000000000000000000000000000000028152600401808873ffffffffffffffffffffffffffffffffffffffff1673ffffffffffffffffffffffffffffffffffffffff168152602001878152602001868152602001858152602001848152602001838152602001828152602001975050505050505050600060405180830381600087803b158015612a8457600080fd5b505af1158015612a98573d6000803e3d6000fd5b505050507f241ea03ca20251805084d27d4440371c34a0b85ff108f6bb5611248f73818b806007600086815260200190815260200160002060009054906101000a900473ffffffffffffffffffffffffffffffffffffffff1685858460050160089054906101000a900467ffffffffffffffff16604051808573ffffffffffffffffffffffffffffffffffffffff1673ffffffffffffffffffffffffffffffffffffffff1681526020018481526020018381526020018267ffffffffffffffff16815260200194505050505060405180910390a150505050565b806009600084815260200190815260200160002060006101000a81548173ffffffffffffffffffffffffffffffffffffffff021916908373ffffffffffffffffffffffffffffffffffffffff1602179055505050565b60008273ffffffffffffffffffffffffffffffffffffffff166009600084815260200190815260200160002060009054906101000a900473ffffffffffffffffffffffffffffffffffffffff1673ffffffffffffffffffffffffffffffffffffffff1614905092915050565b600860008373ffffffffffffffffffffffffffffffffffffffff1673ffffffffffffffffffffffffffffffffffffffff16815260200190815260200160002060008154809291906001019190505550816007600083815260200190815260200160002060006101000a81548173ffffffffffffffffffffffffffffffffffffffff021916908373ffffffffffffffffffffffffffffffffffffffff160217905550600073ffffffffffffffffffffffffffffffffffffffff168373ffffffffffffffffffffffffffffffffffffffff16141515612dc857600860008473ffffffffffffffffffffffffffffffffffffffff1673ffffffffffffffffffffffffffffffffffffffff1681526020019081526020016000206000815480929190600190039190505550600a600082815260200190815260200160002060006101000a81549073ffffffffffffffffffffffffffffffffffffffff02191690556009600082815260200190815260200160002060006101000a81549073ffffffffffffffffffffffffffffffffffffffff02191690555b7fddf252ad1be2c89b69c2b068fc378daa952ba7f163c4a11628f55a4df523b3ef838383604051808473ffffffffffffffffffffffffffffffffffffffff1673ffffffffffffffffffffffffffffffffffffffff1681526020018373ffffffffffffffffffffffffffffffffffffffff1673ffffffffffffffffffffffffffffffffffffffff168152602001828152602001935050505060405180910390a1505050565b600081841415612e7f5760009050613079565b818560050160109054906101000a900463ffffffff1663ffffffff161480612ec05750818560050160149054906101000a900463ffffffff1663ffffffff16145b15612ece5760009050613079565b838360050160109054906101000a900463ffffffff1663ffffffff161480612f0f5750838360050160149054906101000a900463ffffffff1663ffffffff16145b15612f1d5760009050613079565b60008360050160109054906101000a900463ffffffff1663ffffffff161480612f60575060008560050160109054906101000a900463ffffffff1663ffffffff16145b15612f6e5760019050613079565b8460050160109054906101000a900463ffffffff1663ffffffff168360050160109054906101000a900463ffffffff1663ffffffff161480612fe357508460050160149054906101000a900463ffffffff1663ffffffff168360050160109054906101000a900463ffffffff1663ffffffff16145b15612ff15760009050613079565b8460050160109054906101000a900463ffffffff1663ffffffff168360050160149054906101000a900463ffffffff1663ffffffff16148061306657508460050160149054906101000a900463ffffffff1663ffffffff168360050160149054906101000a900463ffffffff1663ffffffff16145b156130745760009050613079565b600190505b949350505050565b60008060006007600085815260200190815260200160002060009054906101000a900473ffffffffffffffffffffffffffffffffffffffff1691506007600086815260200190815260200160002060009054906101000a900473ffffffffffffffffffffffffffffffffffffffff1690508073ffffffffffffffffffffffffffffffffffffffff168273ffffffffffffffffffffffffffffffffffffffff16148061318a57508173ffffffffffffffffffffffffffffffffffffffff16600a600087815260200190815260200160002060009054906101000a900473ffffffffffffffffffffffffffffffffffffffff1673ffffffffffffffffffffffffffffffffffffffff16145b9250505092915050565b60004367ffffffffffffffff168260c0015167ffffffffffffffff1611159050919050565b43600254600083600501601c9054906101000a900461ffff1661ffff16600e811015156131e257fe5b600891828204019190066004029054906101000a900463ffffffff1663ffffffff1681151561320d57fe5b04018160050160086101000a81548167ffffffffffffffff021916908367ffffffffffffffff160217905550600d81600501601c9054906101000a900461ffff1661ffff16101561328c57600181600501601c8282829054906101000a900461ffff160192506101000a81548161ffff021916908361ffff1602179055505b50565b6101a0604051908101604052806000815260200160008152602001600081526020016000815260200160008152602001600067ffffffffffffffff168152602001600067ffffffffffffffff168152602001600063ffffffff168152602001600063ffffffff168152602001600063ffffffff168152602001600061ffff168152602001600061ffff168152602001600061ffff16815250905600a165627a7a72305820d9f7fcb7f62964e6ce4bd166438627646b9ee95def29dcc45a47d403acf1d3670029",
  "source": "pragma solidity ^0.4.25;\n\nimport \"./PZHeroOwnership.sol\";\nimport \"./PZGeneScienceInterface.sol\";\nimport \"./PZEggCore.sol\";\n\ncontract PZHeroBreeding is PZHeroOwnership\n{\n    event Pregnant(address owner, uint256 matronId, uint256 sireId, uint256 cooldownEndBlock);\n\n    uint256 public autoBirthFee = 10 trx ;\n\n    // uint256 public pregnantHeroes;\n\n    PZGeneScienceInterface public           contractGeneScience;\n    address public                          addrGeneScience;\n\n    PZEggCore public                        contractEggCore;\n    address public                          addrEggCore;\n\n    /**\n    * Set Address of GeneScience Contract\n    * @param _addrGeneScience                      Address of Gene Science Contract\n    *\n     */\n    function setGeneScienceAddr(address _addrGeneScience) public onlyAdmin\n    {\n        addrGeneScience = _addrGeneScience;\n        PZGeneScienceInterface candidateContract = PZGeneScienceInterface(_addrGeneScience);\n\n        require(candidateContract.isGeneScience());\n\n        // Set the new contract address\n        contractGeneScience = candidateContract;\n    }\n\n    /**\n    * Check if the Hero is Ready to Breed\n    * @param _hero                              Hero NFT\n    *\n    * @return result                            Return bool typed result\n    *\n     */\n    function _isReadyToBreed(Hero _hero) internal view returns (bool) {\n        // return (_hero.siringWithId == 0) && (_hero.cooldownEndBlock <= uint64(block.number));\n\n        return (_hero.cooldownEndBlock <= uint64(block.number));\n    }\n\n    /**\n    * Check if sire and matron are permitted to breed\n    * @param _sireId                              Id of Sire Hero\n    * @param _matronId                            Id of Matron Hero\n    *\n    * @return result                            Return bool typed result\n    *\n     */\n    function _isSiringPermitted(uint256 _sireId, uint256 _matronId) internal view returns (bool) {\n        address matronOwner = heroIndexToOwner[_matronId];\n        address sireOwner = heroIndexToOwner[_sireId];\n\n        return (matronOwner == sireOwner || sireAllowedToAddress[_sireId] == matronOwner);\n    }\n\n    /**\n    * Trigger the cooldown of Hero\n    * @param _hero                                   Hero NFT\n    *\n     */\n    function _triggerCooldown(Hero storage _hero) internal {\n        _hero.cooldownEndBlock = uint64((cooldowns[_hero.cooldownIndex]/secondsPerBlock) + block.number);\n\n        if (_hero.cooldownIndex < 13) {\n            _hero.cooldownIndex += 1;\n        }\n    }\n\n    function approveSiring(address _addr, uint256 _sireId)\n        external\n    {\n        require(_owns(msg.sender, _sireId));\n        sireAllowedToAddress[_sireId] = _addr;\n    }\n\n    /**\n    * Check if the Hero is Ready to Breed\n    * @param _heroId                                   HeroId\n    *\n    * @return result                                    Return Result\n    *\n     */\n    function isReadyToBreed(uint256 _heroId)\n        public\n        view\n        returns (bool)\n    {\n        require(_heroId > 0);\n        Hero storage hero = heroes[_heroId];\n        return _isReadyToBreed(hero);\n    }\n\n    function _isValidMatingPair(\n        Hero storage _matron,\n        uint256 _matronId,\n        Hero storage _sire,\n        uint256 _sireId\n    )\n        private\n        view\n        returns(bool)\n    {\n        if (_matronId == _sireId) {\n            return false;\n        }\n\n        if (_matron.matronId == _sireId || _matron.sireId == _sireId) {\n            return false;\n        }\n        if (_sire.matronId == _matronId || _sire.sireId == _matronId) {\n            return false;\n        }\n\n        if (_sire.matronId == 0 || _matron.matronId == 0) {\n            return true;\n        }\n\n        if (_sire.matronId == _matron.matronId || _sire.matronId == _matron.sireId) {\n            return false;\n        }\n        if (_sire.sireId == _matron.matronId || _sire.sireId == _matron.sireId) {\n            return false;\n        }\n\n        return true;\n    }\n\n    function _canBreedWithViaAuction(uint256 _matronId, uint256 _sireId)\n        internal\n        view\n        returns (bool)\n    {\n        Hero storage matron = heroes[_matronId];\n        Hero storage sire = heroes[_sireId];\n        return _isValidMatingPair(matron, _matronId, sire, _sireId);\n    }\n\n    function canBreedWith(uint256 _matronId, uint256 _sireId)\n        external\n        view\n        returns(bool)\n    {\n        require(_matronId > 0);\n        require(_sireId > 0);\n        Hero storage matron = heroes[_matronId];\n        Hero storage sire = heroes[_sireId];\n        return _isValidMatingPair(matron, _matronId, sire, _sireId) &&\n            _isSiringPermitted(_sireId, _matronId);\n    }\n\n    /**\n    * Breed Matron and Sire\n    * @param _matronId                                   ID of Matron Hero\n    * @param _sireId                                     ID of Sire Hero\n    *\n     */\n    function _breedWith(uint256 _matronId, uint256 _sireId) internal {\n        Hero storage sire = heroes[_sireId];\n        Hero storage matron = heroes[_matronId];\n\n        matron.siringWithId = uint32(_sireId);\n\n        _triggerCooldown(sire);\n        _triggerCooldown(matron);\n\n        delete sireAllowedToAddress[_matronId];\n        delete sireAllowedToAddress[_sireId];\n\n        // pregnantHeroes++;\n\n        contractEggCore.createEggToOwner(heroIndexToOwner[_matronId], now, sire.price, sire.tokenId, sire.tokenPrice, _matronId, _sireId);\n\n        emit Pregnant(heroIndexToOwner[_matronId], _matronId, _sireId, matron.cooldownEndBlock);\n    }\n\n    /**\n    * Breed Matron and Sire owend by One User\n    * @param _matronId                                   ID of Matron Hero\n    * @param _sireId                                     ID of Sire Hero\n    *\n     */\n    \n    function breedWithOwns(uint256 _matronId, uint256 _sireId)\n        external\n        payable\n    {\n        require(_owns(msg.sender, _matronId));\n        require(_owns(msg.sender, _sireId));\n        _breedWith(_matronId, _sireId);\n    }\n\n    /**\n    * Breed Matron and Sire Owned By One User\n    * @param _matronId                                   ID of Matron Hero\n    * @param _sireId                                     ID of Sire Hero\n    *\n     */\n    function breedWithOwned(uint256 _matronId, uint256 _sireId)\n        external\n        payable\n        // whenNotPaused\n    {\n        require(msg.value >= autoBirthFee);\n\n        require(_owns(msg.sender, _matronId));\n        require(_owns(msg.sender, _sireId));\n\n        // require(_isSiringPermitted(_sireId, _matronId));\n        // Hero storage matron = heroes[_matronId];\n\n        // require(_isReadyToBreed(matron));\n\n        // Hero storage sire = heroes[_sireId];\n\n        // require(_isReadyToBreed(sire));\n\n        // require(_isValidMatingPair(\n        //     matron,\n        //     _matronId,\n        //     sire,\n        //     _sireId\n        // ));\n\n        _breedWith(_matronId, _sireId);\n    }\n\n    function breedTest() public pure returns(string)\n    {\n        return \"Breed Test\";\n    }\n}",
  "sourcePath": "/Volumes/Backup/workspace/Dave(Tron_NFT)/pizzaHero/contracts/PZHeroBreeding.sol",
  "compiler": {
    "name": "solc",
    "version": "0.4.25+commit.69a1e720.Emscripten.clang"
  },
  "schemaVersion": "2.0.1",
  "updatedAt": "2020-01-15T17:21:03.518Z"
}