{
  "contractName": "PZHeroCore",
  "abi": [
    {
      "constant": false,
      "inputs": [
        {
          "name": "_matronId",
          "type": "uint256"
        },
        {
          "name": "_sireId",
          "type": "uint256"
        }
      ],
      "name": "breedWithOwns",
      "outputs": [],
      "payable": true,
      "stateMutability": "payable",
      "type": "function"
    },
    {
      "constant": true,
      "inputs": [
        {
          "name": "_interfaceID",
          "type": "bytes4"
        }
      ],
      "name": "supportsInterface",
      "outputs": [
        {
          "name": "",
          "type": "bool"
        }
      ],
      "payable": false,
      "stateMutability": "view",
      "type": "function"
    },
    {
      "constant": true,
      "inputs": [],
      "name": "name",
      "outputs": [
        {
          "name": "",
          "type": "string"
        }
      ],
      "payable": false,
      "stateMutability": "view",
      "type": "function"
    },
    {
      "constant": false,
      "inputs": [
        {
          "name": "_to",
          "type": "address"
        },
        {
          "name": "_heroId",
          "type": "uint256"
        }
      ],
      "name": "approve",
      "outputs": [],
      "payable": false,
      "stateMutability": "nonpayable",
      "type": "function"
    },
    {
      "constant": false,
      "inputs": [
        {
          "name": "_addrGeneScience",
          "type": "address"
        }
      ],
      "name": "setGeneScienceAddr",
      "outputs": [],
      "payable": false,
      "stateMutability": "nonpayable",
      "type": "function"
    },
    {
      "constant": true,
      "inputs": [],
      "name": "totalSupply",
      "outputs": [
        {
          "name": "",
          "type": "uint256"
        }
      ],
      "payable": false,
      "stateMutability": "view",
      "type": "function"
    },
    {
      "constant": true,
      "inputs": [
        {
          "name": "",
          "type": "uint256"
        }
      ],
      "name": "heroAuctions",
      "outputs": [
        {
          "name": "seller",
          "type": "address"
        },
        {
          "name": "startingPrice",
          "type": "uint256"
        },
        {
          "name": "heroId",
          "type": "uint256"
        },
        {
          "name": "auctionType",
          "type": "uint8"
        }
      ],
      "payable": false,
      "stateMutability": "view",
      "type": "function"
    },
    {
      "constant": false,
      "inputs": [
        {
          "name": "_from",
          "type": "address"
        },
        {
          "name": "_to",
          "type": "address"
        },
        {
          "name": "_heroId",
          "type": "uint256"
        }
      ],
      "name": "transferFrom",
      "outputs": [],
      "payable": false,
      "stateMutability": "nonpayable",
      "type": "function"
    },
    {
      "constant": true,
      "inputs": [],
      "name": "getHeroIdsOnSale",
      "outputs": [
        {
          "name": "",
          "type": "uint256[]"
        }
      ],
      "payable": false,
      "stateMutability": "view",
      "type": "function"
    },
    {
      "constant": true,
      "inputs": [],
      "name": "addrItemCore",
      "outputs": [
        {
          "name": "",
          "type": "address"
        }
      ],
      "payable": false,
      "stateMutability": "view",
      "type": "function"
    },
    {
      "constant": true,
      "inputs": [],
      "name": "contractGeneScience",
      "outputs": [
        {
          "name": "",
          "type": "address"
        }
      ],
      "payable": false,
      "stateMutability": "view",
      "type": "function"
    },
    {
      "constant": true,
      "inputs": [],
      "name": "contractEggCore",
      "outputs": [
        {
          "name": "",
          "type": "address"
        }
      ],
      "payable": false,
      "stateMutability": "view",
      "type": "function"
    },
    {
      "constant": true,
      "inputs": [
        {
          "name": "",
          "type": "uint256"
        }
      ],
      "name": "sireAllowedToAddress",
      "outputs": [
        {
          "name": "",
          "type": "address"
        }
      ],
      "payable": false,
      "stateMutability": "view",
      "type": "function"
    },
    {
      "constant": true,
      "inputs": [
        {
          "name": "_matronId",
          "type": "uint256"
        },
        {
          "name": "_sireId",
          "type": "uint256"
        }
      ],
      "name": "canBreedWith",
      "outputs": [
        {
          "name": "",
          "type": "bool"
        }
      ],
      "payable": false,
      "stateMutability": "view",
      "type": "function"
    },
    {
      "constant": false,
      "inputs": [
        {
          "name": "_addr",
          "type": "address"
        },
        {
          "name": "_sireId",
          "type": "uint256"
        }
      ],
      "name": "approveSiring",
      "outputs": [],
      "payable": false,
      "stateMutability": "nonpayable",
      "type": "function"
    },
    {
      "constant": true,
      "inputs": [],
      "name": "addrGeneScience",
      "outputs": [
        {
          "name": "",
          "type": "address"
        }
      ],
      "payable": false,
      "stateMutability": "view",
      "type": "function"
    },
    {
      "constant": true,
      "inputs": [
        {
          "name": "_heroId",
          "type": "uint256"
        }
      ],
      "name": "ownerOf",
      "outputs": [
        {
          "name": "owner",
          "type": "address"
        }
      ],
      "payable": false,
      "stateMutability": "view",
      "type": "function"
    },
    {
      "constant": false,
      "inputs": [
        {
          "name": "_heroId",
          "type": "uint256"
        }
      ],
      "name": "bidAuction",
      "outputs": [],
      "payable": true,
      "stateMutability": "payable",
      "type": "function"
    },
    {
      "constant": false,
      "inputs": [
        {
          "name": "_price",
          "type": "uint256"
        },
        {
          "name": "_heroId",
          "type": "uint256"
        },
        {
          "name": "_auctionType",
          "type": "uint8"
        }
      ],
      "name": "addAuction",
      "outputs": [],
      "payable": false,
      "stateMutability": "nonpayable",
      "type": "function"
    },
    {
      "constant": true,
      "inputs": [
        {
          "name": "_owner",
          "type": "address"
        }
      ],
      "name": "balanceOf",
      "outputs": [
        {
          "name": "count",
          "type": "uint256"
        }
      ],
      "payable": false,
      "stateMutability": "view",
      "type": "function"
    },
    {
      "constant": true,
      "inputs": [],
      "name": "addrChest",
      "outputs": [
        {
          "name": "",
          "type": "address"
        }
      ],
      "payable": false,
      "stateMutability": "view",
      "type": "function"
    },
    {
      "constant": true,
      "inputs": [],
      "name": "secondsPerBlock",
      "outputs": [
        {
          "name": "",
          "type": "uint256"
        }
      ],
      "payable": false,
      "stateMutability": "view",
      "type": "function"
    },
    {
      "constant": false,
      "inputs": [
        {
          "name": "_matronId",
          "type": "uint256"
        },
        {
          "name": "_sireId",
          "type": "uint256"
        }
      ],
      "name": "breedWithOwned",
      "outputs": [],
      "payable": true,
      "stateMutability": "payable",
      "type": "function"
    },
    {
      "constant": true,
      "inputs": [],
      "name": "addrEggCore",
      "outputs": [
        {
          "name": "",
          "type": "address"
        }
      ],
      "payable": false,
      "stateMutability": "view",
      "type": "function"
    },
    {
      "constant": true,
      "inputs": [],
      "name": "symbol",
      "outputs": [
        {
          "name": "",
          "type": "string"
        }
      ],
      "payable": false,
      "stateMutability": "view",
      "type": "function"
    },
    {
      "constant": false,
      "inputs": [
        {
          "name": "_heroId",
          "type": "uint256"
        }
      ],
      "name": "cancelAuction",
      "outputs": [],
      "payable": false,
      "stateMutability": "nonpayable",
      "type": "function"
    },
    {
      "constant": true,
      "inputs": [
        {
          "name": "_owner",
          "type": "address"
        }
      ],
      "name": "heroesOfOwner",
      "outputs": [
        {
          "name": "ownerHeroes",
          "type": "uint256[]"
        }
      ],
      "payable": false,
      "stateMutability": "view",
      "type": "function"
    },
    {
      "constant": true,
      "inputs": [
        {
          "name": "_heroId",
          "type": "uint256"
        }
      ],
      "name": "getHeroAuctionByheroId",
      "outputs": [
        {
          "name": "seller",
          "type": "address"
        },
        {
          "name": "price",
          "type": "uint256"
        },
        {
          "name": "heroId",
          "type": "uint256"
        },
        {
          "name": "auctionType",
          "type": "uint8"
        }
      ],
      "payable": false,
      "stateMutability": "view",
      "type": "function"
    },
    {
      "constant": true,
      "inputs": [
        {
          "name": "",
          "type": "address"
        }
      ],
      "name": "ownershipHeroCount",
      "outputs": [
        {
          "name": "",
          "type": "uint256"
        }
      ],
      "payable": false,
      "stateMutability": "view",
      "type": "function"
    },
    {
      "constant": true,
      "inputs": [
        {
          "name": "",
          "type": "uint256"
        }
      ],
      "name": "cooldowns",
      "outputs": [
        {
          "name": "",
          "type": "uint32"
        }
      ],
      "payable": false,
      "stateMutability": "view",
      "type": "function"
    },
    {
      "constant": true,
      "inputs": [
        {
          "name": "",
          "type": "uint256"
        }
      ],
      "name": "heroes",
      "outputs": [
        {
          "name": "date",
          "type": "uint256"
        },
        {
          "name": "price",
          "type": "uint256"
        },
        {
          "name": "tokenId",
          "type": "uint256"
        },
        {
          "name": "tokenPrice",
          "type": "uint256"
        },
        {
          "name": "genes",
          "type": "uint256"
        },
        {
          "name": "birthTime",
          "type": "uint64"
        },
        {
          "name": "cooldownEndBlock",
          "type": "uint64"
        },
        {
          "name": "matronId",
          "type": "uint32"
        },
        {
          "name": "sireId",
          "type": "uint32"
        },
        {
          "name": "siringWithId",
          "type": "uint32"
        },
        {
          "name": "cooldownIndex",
          "type": "uint16"
        },
        {
          "name": "generation",
          "type": "uint16"
        },
        {
          "name": "level",
          "type": "uint16"
        }
      ],
      "payable": false,
      "stateMutability": "view",
      "type": "function"
    },
    {
      "constant": false,
      "inputs": [
        {
          "name": "_to",
          "type": "address"
        },
        {
          "name": "_heroId",
          "type": "uint256"
        }
      ],
      "name": "transfer",
      "outputs": [],
      "payable": false,
      "stateMutability": "nonpayable",
      "type": "function"
    },
    {
      "constant": true,
      "inputs": [
        {
          "name": "",
          "type": "uint256"
        }
      ],
      "name": "heroIndexToOwner",
      "outputs": [
        {
          "name": "",
          "type": "address"
        }
      ],
      "payable": false,
      "stateMutability": "view",
      "type": "function"
    },
    {
      "constant": true,
      "inputs": [],
      "name": "autoBirthFee",
      "outputs": [
        {
          "name": "",
          "type": "uint256"
        }
      ],
      "payable": false,
      "stateMutability": "view",
      "type": "function"
    },
    {
      "constant": true,
      "inputs": [],
      "name": "breedTest",
      "outputs": [
        {
          "name": "",
          "type": "string"
        }
      ],
      "payable": false,
      "stateMutability": "pure",
      "type": "function"
    },
    {
      "constant": true,
      "inputs": [],
      "name": "addrAdmin",
      "outputs": [
        {
          "name": "",
          "type": "address"
        }
      ],
      "payable": false,
      "stateMutability": "view",
      "type": "function"
    },
    {
      "constant": true,
      "inputs": [],
      "name": "getHeroAuctionCount",
      "outputs": [
        {
          "name": "",
          "type": "uint256"
        }
      ],
      "payable": false,
      "stateMutability": "view",
      "type": "function"
    },
    {
      "constant": false,
      "inputs": [
        {
          "name": "_addrItem",
          "type": "address"
        }
      ],
      "name": "setItemCoreAddress",
      "outputs": [],
      "payable": false,
      "stateMutability": "nonpayable",
      "type": "function"
    },
    {
      "constant": true,
      "inputs": [
        {
          "name": "_heroId",
          "type": "uint256"
        }
      ],
      "name": "isReadyToBreed",
      "outputs": [
        {
          "name": "",
          "type": "bool"
        }
      ],
      "payable": false,
      "stateMutability": "view",
      "type": "function"
    },
    {
      "constant": true,
      "inputs": [
        {
          "name": "",
          "type": "uint256"
        }
      ],
      "name": "heroIndexToApproved",
      "outputs": [
        {
          "name": "",
          "type": "address"
        }
      ],
      "payable": false,
      "stateMutability": "view",
      "type": "function"
    },
    {
      "constant": false,
      "inputs": [
        {
          "name": "_contractAddress",
          "type": "address"
        }
      ],
      "name": "setMetadataAddress",
      "outputs": [],
      "payable": false,
      "stateMutability": "nonpayable",
      "type": "function"
    },
    {
      "constant": false,
      "inputs": [
        {
          "name": "_date",
          "type": "uint256"
        },
        {
          "name": "_price",
          "type": "uint256"
        },
        {
          "name": "_tokenId",
          "type": "uint256"
        },
        {
          "name": "_tokenPrice",
          "type": "uint256"
        },
        {
          "name": "_matronId",
          "type": "uint256"
        },
        {
          "name": "_sireId",
          "type": "uint256"
        },
        {
          "name": "_generation",
          "type": "uint256"
        },
        {
          "name": "_genes",
          "type": "uint256"
        },
        {
          "name": "_level",
          "type": "uint16"
        },
        {
          "name": "_owner",
          "type": "address"
        }
      ],
      "name": "createHero",
      "outputs": [
        {
          "name": "",
          "type": "uint256"
        }
      ],
      "payable": false,
      "stateMutability": "nonpayable",
      "type": "function"
    },
    {
      "constant": true,
      "inputs": [],
      "name": "trc721Metadata",
      "outputs": [
        {
          "name": "",
          "type": "address"
        }
      ],
      "payable": false,
      "stateMutability": "view",
      "type": "function"
    },
    {
      "constant": false,
      "inputs": [
        {
          "name": "_heroId",
          "type": "uint256"
        },
        {
          "name": "_sireId",
          "type": "uint256"
        }
      ],
      "name": "bidSire",
      "outputs": [],
      "payable": true,
      "stateMutability": "payable",
      "type": "function"
    },
    {
      "constant": false,
      "inputs": [
        {
          "name": "_addrChest",
          "type": "address"
        }
      ],
      "name": "setChestAddress",
      "outputs": [],
      "payable": false,
      "stateMutability": "nonpayable",
      "type": "function"
    },
    {
      "inputs": [
        {
          "name": "_addrItemCore",
          "type": "address"
        },
        {
          "name": "_addrEggCore",
          "type": "address"
        },
        {
          "name": "_addrGeneScience",
          "type": "address"
        }
      ],
      "payable": false,
      "stateMutability": "nonpayable",
      "type": "constructor"
    },
    {
      "anonymous": false,
      "inputs": [
        {
          "indexed": false,
          "name": "owner",
          "type": "address"
        },
        {
          "indexed": false,
          "name": "matronId",
          "type": "uint256"
        },
        {
          "indexed": false,
          "name": "sireId",
          "type": "uint256"
        },
        {
          "indexed": false,
          "name": "cooldownEndBlock",
          "type": "uint256"
        }
      ],
      "name": "Pregnant",
      "type": "event"
    },
    {
      "anonymous": false,
      "inputs": [
        {
          "indexed": false,
          "name": "from",
          "type": "address"
        },
        {
          "indexed": false,
          "name": "to",
          "type": "address"
        },
        {
          "indexed": false,
          "name": "tokenId",
          "type": "uint256"
        }
      ],
      "name": "Transfer",
      "type": "event"
    },
    {
      "anonymous": false,
      "inputs": [
        {
          "indexed": false,
          "name": "owner",
          "type": "address"
        },
        {
          "indexed": false,
          "name": "approved",
          "type": "address"
        },
        {
          "indexed": false,
          "name": "tokenId",
          "type": "uint256"
        }
      ],
      "name": "Approval",
      "type": "event"
    },
    {
      "anonymous": false,
      "inputs": [
        {
          "indexed": false,
          "name": "owner",
          "type": "address"
        },
        {
          "indexed": false,
          "name": "kittyId",
          "type": "uint256"
        },
        {
          "indexed": false,
          "name": "matronId",
          "type": "uint256"
        },
        {
          "indexed": false,
          "name": "sireId",
          "type": "uint256"
        },
        {
          "indexed": false,
          "name": "genes",
          "type": "uint256"
        },
        {
          "indexed": false,
          "name": "level",
          "type": "uint16"
        }
      ],
      "name": "Birth",
      "type": "event"
    },
    {
      "constant": false,
      "inputs": [
        {
          "name": "_to",
          "type": "address"
        },
        {
          "name": "_heroId",
          "type": "uint256"
        }
      ],
      "name": "giftHero",
      "outputs": [],
      "payable": false,
      "stateMutability": "nonpayable",
      "type": "function"
    },
    {
      "constant": true,
      "inputs": [
        {
          "name": "_heroId",
          "type": "uint256"
        }
      ],
      "name": "getHero",
      "outputs": [
        {
          "name": "date",
          "type": "uint256"
        },
        {
          "name": "price",
          "type": "uint256"
        },
        {
          "name": "tokenId",
          "type": "uint256"
        },
        {
          "name": "tokenPrice",
          "type": "uint256"
        },
        {
          "name": "genes",
          "type": "uint256"
        },
        {
          "name": "birthTime",
          "type": "uint64"
        },
        {
          "name": "cooldownEndBlock",
          "type": "uint64"
        },
        {
          "name": "matronId",
          "type": "uint32"
        },
        {
          "name": "sireId",
          "type": "uint32"
        },
        {
          "name": "siringWithId",
          "type": "uint32"
        },
        {
          "name": "cooldownIndex",
          "type": "uint16"
        },
        {
          "name": "generation",
          "type": "uint16"
        },
        {
          "name": "level",
          "type": "uint16"
        }
      ],
      "payable": false,
      "stateMutability": "view",
      "type": "function"
    },
    {
      "constant": true,
      "inputs": [
        {
          "name": "_heroId",
          "type": "uint256"
        }
      ],
      "name": "getHeroTraits",
      "outputs": [
        {
          "name": "",
          "type": "uint8[]"
        }
      ],
      "payable": false,
      "stateMutability": "view",
      "type": "function"
    },
    {
      "constant": true,
      "inputs": [
        {
          "name": "_heroId",
          "type": "uint256"
        }
      ],
      "name": "getHeroAppearance",
      "outputs": [
        {
          "name": "",
          "type": "uint8[14]"
        }
      ],
      "payable": false,
      "stateMutability": "view",
      "type": "function"
    },
    {
      "constant": true,
      "inputs": [],
      "name": "heroTest",
      "outputs": [
        {
          "name": "",
          "type": "address"
        }
      ],
      "payable": false,
      "stateMutability": "view",
      "type": "function"
    },
    {
      "constant": true,
      "inputs": [],
      "name": "isHeroContract",
      "outputs": [
        {
          "name": "",
          "type": "bool"
        }
      ],
      "payable": false,
      "stateMutability": "pure",
      "type": "function"
    }
  ],
  "bytecode": "0x60806040526101c060405190810160405280603c63ffffffff1663ffffffff168152602001607863ffffffff1663ffffffff16815260200161012c63ffffffff1663ffffffff16815260200161025863ffffffff1663ffffffff16815260200161070863ffffffff1663ffffffff168152602001610e1063ffffffff1663ffffffff168152602001611c2063ffffffff1663ffffffff16815260200161384063ffffffff1663ffffffff16815260200161708063ffffffff1663ffffffff16815260200161e10063ffffffff1663ffffffff1681526020016201518063ffffffff1663ffffffff1681526020016202a30063ffffffff1663ffffffff1681526020016205460063ffffffff1663ffffffff16815260200162093a8063ffffffff1663ffffffff16815250600090600e6200013b929190620004dc565b50600f60025562989680600c553480156200015557600080fd5b50d380156200016357600080fd5b50d280156200017157600080fd5b5060405160608062004f4883398101806040528101908080519060200190929190805190602001909291908051906020019092919050505060008033600360006101000a81548173ffffffffffffffffffffffffffffffffffffffff021916908373ffffffffffffffffffffffffffffffffffffffff160217905550600073ffffffffffffffffffffffffffffffffffffffff168573ffffffffffffffffffffffffffffffffffffffff16141515156200022a57600080fd5b84600560006101000a81548173ffffffffffffffffffffffffffffffffffffffff021916908373ffffffffffffffffffffffffffffffffffffffff16021790555082600e60006101000a81548173ffffffffffffffffffffffffffffffffffffffff021916908373ffffffffffffffffffffffffffffffffffffffff1602179055508291508173ffffffffffffffffffffffffffffffffffffffff166354c15b826040518163ffffffff167c0100000000000000000000000000000000000000000000000000000000028152600401602060405180830381600087803b1580156200031457600080fd5b505af115801562000329573d6000803e3d6000fd5b505050506040513d60208110156200034057600080fd5b810190808051906020019092919050505015156200035d57600080fd5b81600d60006101000a81548173ffffffffffffffffffffffffffffffffffffffff021916908373ffffffffffffffffffffffffffffffffffffffff16021790555083601060006101000a81548173ffffffffffffffffffffffffffffffffffffffff021916908373ffffffffffffffffffffffffffffffffffffffff1602179055508390508073ffffffffffffffffffffffffffffffffffffffff166399b2af476040518163ffffffff167c0100000000000000000000000000000000000000000000000000000000028152600401602060405180830381600087803b1580156200044757600080fd5b505af11580156200045c573d6000803e3d6000fd5b505050506040513d60208110156200047357600080fd5b810190808051906020019092919050505015156200049057600080fd5b80600f60006101000a81548173ffffffffffffffffffffffffffffffffffffffff021916908373ffffffffffffffffffffffffffffffffffffffff1602179055505050505050620005bc565b82600e600701600890048101928215620005735791602002820160005b838211156200053f57835183826101000a81548163ffffffff021916908363ffffffff1602179055509260200192600401602081600301049283019260010302620004f9565b8015620005715782816101000a81549063ffffffff02191690556004016020816003010492830192600103026200053f565b505b50905062000582919062000586565b5090565b620005b991905b80821115620005b557600081816101000a81549063ffffffff0219169055506001016200058d565b5090565b90565b61497c80620005cc6000396000f300608060405260043610610267576000357c0100000000000000000000000000000000000000000000000000000000900463ffffffff1680630153b8ee1461026c57806301ffc9a71461029657806306fdde0314610314578063095ea7b3146103be578063119c4d631461042557806318160ddd1461048257806318ad2851146104c757806321d801111461056957806323b872dd1461067c57806325d36762146107035780632f6db1ee146107895780632fda277f146107fa5780633ba864fe146108965780634558f4c81461090757806346116e6f1461097857806346d22c70146109ff5780634dfff04f14610a68578063526a3cf514610acf57806357cea4fd14610b365780636352211e14610ba757806364a7d7c714610c2e57806368f2911014610c4e57806370a0823114610cac57806376c0b36714610d1d578063796c3cb314610d8e5780637a7d493714610e115780638a8fb54a14610e565780638ca22e1314610e8057806395d89b4114610ef157806396b5a75514610f9b578063989555f814610fe2578063994d9538146110945780639ca7722d146111365780639d6fac6f146111a7578063a8d4a03b1461120e578063a9059cbb14611321578063aa54beac14611388578063b0c35c051461140f578063b1e4f01f14611454578063bc82b93b1461149d578063be9873d21461150e578063bfae2f0e146115b8578063c492a1d414611629578063cb0e2c5a1461166e578063d3e6f49f146116cb578063de3e305f1461172a578063e17b25af146117b1578063e32170ae1461180e578063f15f9388146118dd578063f175408b1461194e578063f794ac1f14611978575b600080fd5b61029460048036038101908080359060200190929190803590602001909291905050506119d5565b005b3480156102a257600080fd5b50d380156102af57600080fd5b50d280156102bc57600080fd5b506102fa60048036038101908080357bffffffffffffffffffffffffffffffffffffffffffffffffffffffff19169060200190929190505050611a0d565b604051808215151515815260200191505060405180910390f35b34801561032057600080fd5b50d3801561032d57600080fd5b50d2801561033a57600080fd5b50610343611d1e565b6040518080602001828103825283818151815260200191508051906020019080838360005b83811015610383578082015181840152602081019050610368565b50505050905090810190601f1680156103b05780820380516001836020036101000a031916815260200191505b509250505060405180910390f35b3480156103ca57600080fd5b50d380156103d757600080fd5b50d280156103e457600080fd5b50610423600480360381019080803573ffffffffffffffffffffffffffffffffffffffff16906020019092919080359060200190929190505050611d57565b005b34801561043157600080fd5b50d3801561043e57600080fd5b50d2801561044b57600080fd5b50610480600480360381019080803573ffffffffffffffffffffffffffffffffffffffff169060200190929190505050611e19565b005b34801561048e57600080fd5b50d3801561049b57600080fd5b50d280156104a857600080fd5b506104b1611faa565b6040518082815260200191505060405180910390f35b3480156104d357600080fd5b50d380156104e057600080fd5b50d280156104ed57600080fd5b5061050c60048036038101908080359060200190929190505050611fba565b604051808573ffffffffffffffffffffffffffffffffffffffff1673ffffffffffffffffffffffffffffffffffffffff1681526020018481526020018381526020018260ff1660ff16815260200194505050505060405180910390f35b34801561057557600080fd5b50d3801561058257600080fd5b50d2801561058f57600080fd5b506105ae60048036038101908080359060200190929190505050612026565b604051808e81526020018d81526020018c81526020018b81526020018a81526020018967ffffffffffffffff1667ffffffffffffffff1681526020018867ffffffffffffffff1667ffffffffffffffff1681526020018763ffffffff1663ffffffff1681526020018663ffffffff1663ffffffff1681526020018563ffffffff1663ffffffff1681526020018461ffff1661ffff1681526020018361ffff1661ffff1681526020018261ffff1661ffff1681526020019d505050505050505050505050505060405180910390f35b34801561068857600080fd5b50d3801561069557600080fd5b50d280156106a257600080fd5b50610701600480360381019080803573ffffffffffffffffffffffffffffffffffffffff169060200190929190803573ffffffffffffffffffffffffffffffffffffffff16906020019092919080359060200190929190505050612248565b005b34801561070f57600080fd5b50d3801561071c57600080fd5b50d2801561072957600080fd5b506107326122f9565b6040518080602001828103825283818151815260200191508051906020019060200280838360005b8381101561077557808201518184015260208101905061075a565b505050509050019250505060405180910390f35b34801561079557600080fd5b50d380156107a257600080fd5b50d280156107af57600080fd5b506107b8612309565b604051808273ffffffffffffffffffffffffffffffffffffffff1673ffffffffffffffffffffffffffffffffffffffff16815260200191505060405180910390f35b34801561080657600080fd5b50d3801561081357600080fd5b50d2801561082057600080fd5b5061083f6004803603810190808035906020019092919050505061232f565b6040518080602001828103825283818151815260200191508051906020019060200280838360005b83811015610882578082015181840152602081019050610867565b505050509050019250505060405180910390f35b3480156108a257600080fd5b50d380156108af57600080fd5b50d280156108bc57600080fd5b506108c56125fb565b604051808273ffffffffffffffffffffffffffffffffffffffff1673ffffffffffffffffffffffffffffffffffffffff16815260200191505060405180910390f35b34801561091357600080fd5b50d3801561092057600080fd5b50d2801561092d57600080fd5b50610936612621565b604051808273ffffffffffffffffffffffffffffffffffffffff1673ffffffffffffffffffffffffffffffffffffffff16815260200191505060405180910390f35b34801561098457600080fd5b50d3801561099157600080fd5b50d2801561099e57600080fd5b506109bd60048036038101908080359060200190929190505050612647565b604051808273ffffffffffffffffffffffffffffffffffffffff1673ffffffffffffffffffffffffffffffffffffffff16815260200191505060405180910390f35b348015610a0b57600080fd5b50d38015610a1857600080fd5b50d28015610a2557600080fd5b50610a4e600480360381019080803590602001909291908035906020019092919050505061267a565b604051808215151515815260200191505060405180910390f35b348015610a7457600080fd5b50d38015610a8157600080fd5b50d28015610a8e57600080fd5b50610acd600480360381019080803573ffffffffffffffffffffffffffffffffffffffff16906020019092919080359060200190929190505050612702565b005b348015610adb57600080fd5b50d38015610ae857600080fd5b50d28015610af557600080fd5b50610b34600480360381019080803573ffffffffffffffffffffffffffffffffffffffff1690602001909291908035906020019092919050505061276d565b005b348015610b4257600080fd5b50d38015610b4f57600080fd5b50d28015610b5c57600080fd5b50610b656127cd565b604051808273ffffffffffffffffffffffffffffffffffffffff1673ffffffffffffffffffffffffffffffffffffffff16815260200191505060405180910390f35b348015610bb357600080fd5b50d38015610bc057600080fd5b50d28015610bcd57600080fd5b50610bec600480360381019080803590602001909291905050506127f3565b604051808273ffffffffffffffffffffffffffffffffffffffff1673ffffffffffffffffffffffffffffffffffffffff16815260200191505060405180910390f35b610c4c6004803603810190808035906020019092919050505061286c565b005b348015610c5a57600080fd5b50d38015610c6757600080fd5b50d28015610c7457600080fd5b50610caa6004803603810190808035906020019092919080359060200190929190803560ff1690602001909291905050506129d5565b005b348015610cb857600080fd5b50d38015610cc557600080fd5b50d28015610cd257600080fd5b50610d07600480360381019080803573ffffffffffffffffffffffffffffffffffffffff169060200190929190505050612ae2565b6040518082815260200191505060405180910390f35b348015610d2957600080fd5b50d38015610d3657600080fd5b50d28015610d4357600080fd5b50610d4c612b2b565b604051808273ffffffffffffffffffffffffffffffffffffffff1673ffffffffffffffffffffffffffffffffffffffff16815260200191505060405180910390f35b348015610d9a57600080fd5b50d38015610da757600080fd5b50d28015610db457600080fd5b50610dd360048036038101908080359060200190929190505050612b51565b6040518082600e60200280838360005b83811015610dfe578082015181840152602081019050610de3565b5050505090500191505060405180910390f35b348015610e1d57600080fd5b50d38015610e2a57600080fd5b50d28015610e3757600080fd5b50610e40612dd5565b6040518082815260200191505060405180910390f35b610e7e6004803603810190808035906020019092919080359060200190929190505050612ddb565b005b348015610e8c57600080fd5b50d38015610e9957600080fd5b50d28015610ea657600080fd5b50610eaf612e24565b604051808273ffffffffffffffffffffffffffffffffffffffff1673ffffffffffffffffffffffffffffffffffffffff16815260200191505060405180910390f35b348015610efd57600080fd5b50d38015610f0a57600080fd5b50d28015610f1757600080fd5b50610f20612e4a565b6040518080602001828103825283818151815260200191508051906020019080838360005b83811015610f60578082015181840152602081019050610f45565b50505050905090810190601f168015610f8d5780820380516001836020036101000a031916815260200191505b509250505060405180910390f35b348015610fa757600080fd5b50d38015610fb457600080fd5b50d28015610fc157600080fd5b50610fe060048036038101908080359060200190929190505050612e83565b005b348015610fee57600080fd5b50d38015610ffb57600080fd5b50d2801561100857600080fd5b5061103d600480360381019080803573ffffffffffffffffffffffffffffffffffffffff169060200190929190505050612f9e565b6040518080602001828103825283818151815260200191508051906020019060200280838360005b83811015611080578082015181840152602081019050611065565b505050509050019250505060405180910390f35b3480156110a057600080fd5b50d380156110ad57600080fd5b50d280156110ba57600080fd5b506110d9600480360381019080803590602001909291905050506130eb565b604051808573ffffffffffffffffffffffffffffffffffffffff1673ffffffffffffffffffffffffffffffffffffffff1681526020018481526020018381526020018260ff1660ff16815260200194505050505060405180910390f35b34801561114257600080fd5b50d3801561114f57600080fd5b50d2801561115c57600080fd5b50611191600480360381019080803573ffffffffffffffffffffffffffffffffffffffff1690602001909291905050506131c5565b6040518082815260200191505060405180910390f35b3480156111b357600080fd5b50d380156111c057600080fd5b50d280156111cd57600080fd5b506111ec600480360381019080803590602001909291905050506131dd565b604051808263ffffffff1663ffffffff16815260200191505060405180910390f35b34801561121a57600080fd5b50d3801561122757600080fd5b50d2801561123457600080fd5b506112536004803603810190808035906020019092919050505061320c565b604051808e81526020018d81526020018c81526020018b81526020018a81526020018967ffffffffffffffff1667ffffffffffffffff1681526020018867ffffffffffffffff1667ffffffffffffffff1681526020018763ffffffff1663ffffffff1681526020018663ffffffff1663ffffffff1681526020018563ffffffff1663ffffffff1681526020018461ffff1661ffff1681526020018361ffff1661ffff1681526020018261ffff1661ffff1681526020019d505050505050505050505050505060405180910390f35b34801561132d57600080fd5b50d3801561133a57600080fd5b50d2801561134757600080fd5b50611386600480360381019080803573ffffffffffffffffffffffffffffffffffffffff16906020019092919080359060200190929190505050613303565b005b34801561139457600080fd5b50d380156113a157600080fd5b50d280156113ae57600080fd5b506113cd6004803603810190808035906020019092919050505061339e565b604051808273ffffffffffffffffffffffffffffffffffffffff1673ffffffffffffffffffffffffffffffffffffffff16815260200191505060405180910390f35b34801561141b57600080fd5b50d3801561142857600080fd5b50d2801561143557600080fd5b5061143e6133d1565b6040518082815260200191505060405180910390f35b34801561146057600080fd5b50d3801561146d57600080fd5b50d2801561147a57600080fd5b506114836133d7565b604051808215151515815260200191505060405180910390f35b3480156114a957600080fd5b50d380156114b657600080fd5b50d280156114c357600080fd5b506114cc6133e0565b604051808273ffffffffffffffffffffffffffffffffffffffff1673ffffffffffffffffffffffffffffffffffffffff16815260200191505060405180910390f35b34801561151a57600080fd5b50d3801561152757600080fd5b50d2801561153457600080fd5b5061153d61340a565b6040518080602001828103825283818151815260200191508051906020019080838360005b8381101561157d578082015181840152602081019050611562565b50505050905090810190601f1680156115aa5780820380516001836020036101000a031916815260200191505b509250505060405180910390f35b3480156115c457600080fd5b50d380156115d157600080fd5b50d280156115de57600080fd5b506115e7613447565b604051808273ffffffffffffffffffffffffffffffffffffffff1673ffffffffffffffffffffffffffffffffffffffff16815260200191505060405180910390f35b34801561163557600080fd5b50d3801561164257600080fd5b50d2801561164f57600080fd5b5061165861346d565b6040518082815260200191505060405180910390f35b34801561167a57600080fd5b50d3801561168757600080fd5b50d2801561169457600080fd5b506116c9600480360381019080803573ffffffffffffffffffffffffffffffffffffffff16906020019092919050505061347a565b005b3480156116d757600080fd5b50d380156116e457600080fd5b50d280156116f157600080fd5b506117106004803603810190808035906020019092919050505061351a565b604051808215151515815260200191505060405180910390f35b34801561173657600080fd5b50d3801561174357600080fd5b50d2801561175057600080fd5b5061176f600480360381019080803590602001909291905050506136d1565b604051808273ffffffffffffffffffffffffffffffffffffffff1673ffffffffffffffffffffffffffffffffffffffff16815260200191505060405180910390f35b3480156117bd57600080fd5b50d380156117ca57600080fd5b50d280156117d757600080fd5b5061180c600480360381019080803573ffffffffffffffffffffffffffffffffffffffff169060200190929190505050613704565b005b34801561181a57600080fd5b50d3801561182757600080fd5b50d2801561183457600080fd5b506118c76004803603810190808035906020019092919080359060200190929190803590602001909291908035906020019092919080359060200190929190803590602001909291908035906020019092919080359060200190929190803561ffff169060200190929190803573ffffffffffffffffffffffffffffffffffffffff1690602001909291905050506137a4565b6040518082815260200191505060405180910390f35b3480156118e957600080fd5b50d380156118f657600080fd5b50d2801561190357600080fd5b5061190c613b28565b604051808273ffffffffffffffffffffffffffffffffffffffff1673ffffffffffffffffffffffffffffffffffffffff16815260200191505060405180910390f35b6119766004803603810190808035906020019092919080359060200190929190505050613b4e565b005b34801561198457600080fd5b50d3801561199157600080fd5b50d2801561199e57600080fd5b506119d3600480360381019080803573ffffffffffffffffffffffffffffffffffffffff169060200190929190505050613cc6565b005b6119df3383613d66565b15156119ea57600080fd5b6119f43382613d66565b15156119ff57600080fd5b611a098282613dd2565b5050565b600060405180807f737570706f727473496e74657266616365286279746573342900000000000000815250601901905060405180910390207bffffffffffffffffffffffffffffffffffffffffffffffffffffffff1916827bffffffffffffffffffffffffffffffffffffffffffffffffffffffff19161480611d17575060405180807f746f6b656e4d657461646174612875696e743235362c737472696e6729000000815250601d019050604051809103902060405180807f6865726f65734f664f776e6572286164647265737329000000000000000000008152506016019050604051809103902060405180807f7472616e7366657246726f6d28616464726573732c616464726573732c75696e81526020017f74323536290000000000000000000000000000000000000000000000000000008152506025019050604051809103902060405180807f7472616e7366657228616464726573732c75696e7432353629000000000000008152506019019050604051809103902060405180807f617070726f766528616464726573732c75696e743235362900000000000000008152506018019050604051809103902060405180807f6f776e65724f662875696e7432353629000000000000000000000000000000008152506010019050604051809103902060405180807f62616c616e63654f6628616464726573732900000000000000000000000000008152506012019050604051809103902060405180807f746f74616c537570706c79282900000000000000000000000000000000000000815250600d019050604051809103902060405180807f73796d626f6c28290000000000000000000000000000000000000000000000008152506008019050604051809103902060405180807f6e616d6528290000000000000000000000000000000000000000000000000000815250600601905060405180910390201818181818181818187bffffffffffffffffffffffffffffffffffffffffffffffffffffffff1916827bffffffffffffffffffffffffffffffffffffffffffffffffffffffff1916145b9050919050565b6040805190810160405280600881526020017f505a4865726f657300000000000000000000000000000000000000000000000081525081565b611d613382613d66565b1515611d6c57600080fd5b611d7681836140ce565b7f8c5be1e5ebec7d5bd14f71427d1e84f3dd0314c0f7b2291e5b200ac8c7c3b925338383604051808473ffffffffffffffffffffffffffffffffffffffff1673ffffffffffffffffffffffffffffffffffffffff1681526020018373ffffffffffffffffffffffffffffffffffffffff1673ffffffffffffffffffffffffffffffffffffffff168152602001828152602001935050505060405180910390a15050565b6000600360009054906101000a900473ffffffffffffffffffffffffffffffffffffffff1673ffffffffffffffffffffffffffffffffffffffff163373ffffffffffffffffffffffffffffffffffffffff16141515611e7757600080fd5b81600e60006101000a81548173ffffffffffffffffffffffffffffffffffffffff021916908373ffffffffffffffffffffffffffffffffffffffff1602179055508190508073ffffffffffffffffffffffffffffffffffffffff166354c15b826040518163ffffffff167c0100000000000000000000000000000000000000000000000000000000028152600401602060405180830381600087803b158015611f1f57600080fd5b505af1158015611f33573d6000803e3d6000fd5b505050506040513d6020811015611f4957600080fd5b81019080805190602001909291905050501515611f6557600080fd5b80600d60006101000a81548173ffffffffffffffffffffffffffffffffffffffff021916908373ffffffffffffffffffffffffffffffffffffffff1602179055505050565b6000600160068054905003905090565b601281815481101515611fc957fe5b90600052602060002090600402016000915090508060000160009054906101000a900473ffffffffffffffffffffffffffffffffffffffff16908060010154908060020154908060030160009054906101000a900460ff16905084565b600080600080600080600080600080600080600061204261484f565b60068f81548110151561205157fe5b90600052602060002090600702016101a0604051908101604052908160008201548152602001600182015481526020016002820154815260200160038201548152602001600482015481526020016005820160009054906101000a900467ffffffffffffffff1667ffffffffffffffff1667ffffffffffffffff1681526020016005820160089054906101000a900467ffffffffffffffff1667ffffffffffffffff1667ffffffffffffffff1681526020016005820160109054906101000a900463ffffffff1663ffffffff1663ffffffff1681526020016005820160149054906101000a900463ffffffff1663ffffffff1663ffffffff1681526020016005820160189054906101000a900463ffffffff1663ffffffff1663ffffffff16815260200160058201601c9054906101000a900461ffff1661ffff1661ffff16815260200160058201601e9054906101000a900461ffff1661ffff1661ffff1681526020016006820160009054906101000a900461ffff1661ffff1661ffff16815250509050806000015181602001518260400151836060015184608001518560a001518660c001518760e001518861010001518961012001518a61014001518b61016001518c61018001519d509d509d509d509d509d509d509d509d509d509d509d509d505091939597999b9d90929496989a9c50565b600073ffffffffffffffffffffffffffffffffffffffff168273ffffffffffffffffffffffffffffffffffffffff161415151561228457600080fd5b3073ffffffffffffffffffffffffffffffffffffffff168273ffffffffffffffffffffffffffffffffffffffff16141515156122bf57600080fd5b6122c93382614124565b15156122d457600080fd5b6122de8382613d66565b15156122e957600080fd5b6122f4838383614190565b505050565b606061230430612f9e565b905090565b600560009054906101000a900473ffffffffffffffffffffffffffffffffffffffff1681565b606061233961484f565b60068381548110151561234857fe5b90600052602060002090600702016101a0604051908101604052908160008201548152602001600182015481526020016002820154815260200160038201548152602001600482015481526020016005820160009054906101000a900467ffffffffffffffff1667ffffffffffffffff1667ffffffffffffffff1681526020016005820160089054906101000a900467ffffffffffffffff1667ffffffffffffffff1667ffffffffffffffff1681526020016005820160109054906101000a900463ffffffff1663ffffffff1663ffffffff1681526020016005820160149054906101000a900463ffffffff1663ffffffff1663ffffffff1681526020016005820160189054906101000a900463ffffffff1663ffffffff1663ffffffff16815260200160058201601c9054906101000a900461ffff1661ffff1661ffff16815260200160058201601e9054906101000a900461ffff1661ffff1661ffff1681526020016006820160009054906101000a900461ffff1661ffff1661ffff16815250509050600d60009054906101000a900473ffffffffffffffffffffffffffffffffffffffff1673ffffffffffffffffffffffffffffffffffffffff166361a7690082608001516040518263ffffffff167c010000000000000000000000000000000000000000000000000000000002815260040180828152602001915050600060405180830381600087803b15801561256257600080fd5b505af1158015612576573d6000803e3d6000fd5b505050506040513d6000823e3d601f19601f8201168201806040525060208110156125a057600080fd5b8101908080516401000000008111156125b857600080fd5b828101905060208101848111156125ce57600080fd5b81518560208202830111640100000000821117156125eb57600080fd5b5050929190505050915050919050565b600d60009054906101000a900473ffffffffffffffffffffffffffffffffffffffff1681565b600f60009054906101000a900473ffffffffffffffffffffffffffffffffffffffff1681565b600a6020528060005260406000206000915054906101000a900473ffffffffffffffffffffffffffffffffffffffff1681565b6000806000808511151561268d57600080fd5b60008411151561269c57600080fd5b6006858154811015156126ab57fe5b906000526020600020906007020191506006848154811015156126ca57fe5b906000526020600020906007020190506126e6828683876143c8565b80156126f857506126f784866145dd565b5b9250505092915050565b61270c3382613d66565b151561271757600080fd5b81600a600083815260200190815260200160002060006101000a81548173ffffffffffffffffffffffffffffffffffffffff021916908373ffffffffffffffffffffffffffffffffffffffff1602179055505050565b6127773382613d66565b151561278257600080fd5b600073ffffffffffffffffffffffffffffffffffffffff168273ffffffffffffffffffffffffffffffffffffffff16141515156127be57600080fd5b6127c9338383614190565b5050565b600e60009054906101000a900473ffffffffffffffffffffffffffffffffffffffff1681565b60006007600083815260200190815260200160002060009054906101000a900473ffffffffffffffffffffffffffffffffffffffff169050600073ffffffffffffffffffffffffffffffffffffffff168173ffffffffffffffffffffffffffffffffffffffff161415151561286757600080fd5b919050565b6128746148ea565b61287e3083613d66565b151561288957600080fd5b60116000838152602001908152602001600020608060405190810160405290816000820160009054906101000a900473ffffffffffffffffffffffffffffffffffffffff1673ffffffffffffffffffffffffffffffffffffffff1673ffffffffffffffffffffffffffffffffffffffff16815260200160018201548152602001600282015481526020016003820160009054906101000a900460ff1660ff1660ff1681525050905061293b3383613d66565b15151561294757600080fd5b34816020015114151561295957600080fd5b600060ff16816060015160ff1614151561297257600080fd5b61297b826146f0565b612986303384614190565b806000015173ffffffffffffffffffffffffffffffffffffffff166108fc349081150290604051600060405180830381858888f193505050501580156129d0573d6000803e3d6000fd5b505050565b6129dd6148ea565b6129e73384613d66565b15156129f257600080fd5b600084111515612a0157600080fd5b6080604051908101604052803373ffffffffffffffffffffffffffffffffffffffff1681526020018581526020018481526020018360ff168152509050612a49333085614190565b806011600085815260200190815260200160002060008201518160000160006101000a81548173ffffffffffffffffffffffffffffffffffffffff021916908373ffffffffffffffffffffffffffffffffffffffff160217905550602082015181600101556040820151816002015560608201518160030160006101000a81548160ff021916908360ff16021790555090505050505050565b6000600860008373ffffffffffffffffffffffffffffffffffffffff1673ffffffffffffffffffffffffffffffffffffffff168152602001908152602001600020549050919050565b600460009054906101000a900473ffffffffffffffffffffffffffffffffffffffff1681565b612b5961492c565b612b6161484f565b600683815481101515612b7057fe5b90600052602060002090600702016101a0604051908101604052908160008201548152602001600182015481526020016002820154815260200160038201548152602001600482015481526020016005820160009054906101000a900467ffffffffffffffff1667ffffffffffffffff1667ffffffffffffffff1681526020016005820160089054906101000a900467ffffffffffffffff1667ffffffffffffffff1667ffffffffffffffff1681526020016005820160109054906101000a900463ffffffff1663ffffffff1663ffffffff1681526020016005820160149054906101000a900463ffffffff1663ffffffff1663ffffffff1681526020016005820160189054906101000a900463ffffffff1663ffffffff1663ffffffff16815260200160058201601c9054906101000a900461ffff1661ffff1661ffff16815260200160058201601e9054906101000a900461ffff1661ffff1661ffff1681526020016006820160009054906101000a900461ffff1661ffff1661ffff16815250509050600d60009054906101000a900473ffffffffffffffffffffffffffffffffffffffff1673ffffffffffffffffffffffffffffffffffffffff166377a74a2082608001516040518263ffffffff167c0100000000000000000000000000000000000000000000000000000000028152600401808281526020019150506101c060405180830381600087803b158015612d8b57600080fd5b505af1158015612d9f573d6000803e3d6000fd5b505050506040513d601f19601f820116820180604052506101c0811015612dc557600080fd5b8101908091905050915050919050565b60025481565b600c543410151515612dec57600080fd5b612df63383613d66565b1515612e0157600080fd5b612e0b3382613d66565b1515612e1657600080fd5b612e208282613dd2565b5050565b601060009054906101000a900473ffffffffffffffffffffffffffffffffffffffff1681565b6040805190810160405280600281526020017f504800000000000000000000000000000000000000000000000000000000000081525081565b612e8b6148ea565b612e953083613d66565b1515612ea057600080fd5b60116000838152602001908152602001600020608060405190810160405290816000820160009054906101000a900473ffffffffffffffffffffffffffffffffffffffff1673ffffffffffffffffffffffffffffffffffffffff1673ffffffffffffffffffffffffffffffffffffffff16815260200160018201548152602001600282015481526020016003820160009054906101000a900460ff1660ff1660ff16815250509050806000015173ffffffffffffffffffffffffffffffffffffffff163373ffffffffffffffffffffffffffffffffffffffff16141515612f8657600080fd5b612f8f826146f0565b612f9a303384614190565b5050565b6060600060606000806000612fb287612ae2565b94506000851415612ff5576000604051908082528060200260200182016040528015612fed5781602001602082028038833980820191505090505b5095506130e1565b846040519080825280602002602001820160405280156130245781602001602082028038833980820191505090505b50935061302f611faa565b925060009150600190505b82811115156130dd578673ffffffffffffffffffffffffffffffffffffffff166007600083815260200190815260200160002060009054906101000a900473ffffffffffffffffffffffffffffffffffffffff1673ffffffffffffffffffffffffffffffffffffffff1614156130d0578084838151811015156130b957fe5b906020019060200201818152505081806001019250505b808060010191505061303a565b8395505b5050505050919050565b6000806000806130f96148ea565b60116000878152602001908152602001600020608060405190810160405290816000820160009054906101000a900473ffffffffffffffffffffffffffffffffffffffff1673ffffffffffffffffffffffffffffffffffffffff1673ffffffffffffffffffffffffffffffffffffffff16815260200160018201548152602001600282015481526020016003820160009054906101000a900460ff1660ff1660ff1681525050905080600001518160200151826040015183606001519450945094509450509193509193565b60086020528060005260406000206000915090505481565b600081600e811015156131ec57fe5b60089182820401919006600402915054906101000a900463ffffffff1681565b60068181548110151561321b57fe5b90600052602060002090600702016000915090508060000154908060010154908060020154908060030154908060040154908060050160009054906101000a900467ffffffffffffffff16908060050160089054906101000a900467ffffffffffffffff16908060050160109054906101000a900463ffffffff16908060050160149054906101000a900463ffffffff16908060050160189054906101000a900463ffffffff169080600501601c9054906101000a900461ffff169080600501601e9054906101000a900461ffff16908060060160009054906101000a900461ffff1690508d565b600073ffffffffffffffffffffffffffffffffffffffff168273ffffffffffffffffffffffffffffffffffffffff161415151561333f57600080fd5b3073ffffffffffffffffffffffffffffffffffffffff168273ffffffffffffffffffffffffffffffffffffffff161415151561337a57600080fd5b6133843382613d66565b151561338f57600080fd5b61339a338383614190565b5050565b60076020528060005260406000206000915054906101000a900473ffffffffffffffffffffffffffffffffffffffff1681565b600c5481565b60006001905090565b6000600460009054906101000a900473ffffffffffffffffffffffffffffffffffffffff16905090565b60606040805190810160405280600a81526020017f4272656564205465737400000000000000000000000000000000000000000000815250905090565b600360009054906101000a900473ffffffffffffffffffffffffffffffffffffffff1681565b6000601280549050905090565b600360009054906101000a900473ffffffffffffffffffffffffffffffffffffffff1673ffffffffffffffffffffffffffffffffffffffff163373ffffffffffffffffffffffffffffffffffffffff161415156134d657600080fd5b80600560006101000a81548173ffffffffffffffffffffffffffffffffffffffff021916908373ffffffffffffffffffffffffffffffffffffffff16021790555050565b60008060008311151561352c57600080fd5b60068381548110151561353b57fe5b906000526020600020906007020190506136c9816101a0604051908101604052908160008201548152602001600182015481526020016002820154815260200160038201548152602001600482015481526020016005820160009054906101000a900467ffffffffffffffff1667ffffffffffffffff1667ffffffffffffffff1681526020016005820160089054906101000a900467ffffffffffffffff1667ffffffffffffffff1667ffffffffffffffff1681526020016005820160109054906101000a900463ffffffff1663ffffffff1663ffffffff1681526020016005820160149054906101000a900463ffffffff1663ffffffff1663ffffffff1681526020016005820160189054906101000a900463ffffffff1663ffffffff1663ffffffff16815260200160058201601c9054906101000a900461ffff1661ffff1661ffff16815260200160058201601e9054906101000a900461ffff1661ffff1661ffff1681526020016006820160009054906101000a900461ffff1661ffff1661ffff1681525050614754565b915050919050565b60096020528060005260406000206000915054906101000a900473ffffffffffffffffffffffffffffffffffffffff1681565b600360009054906101000a900473ffffffffffffffffffffffffffffffffffffffff1673ffffffffffffffffffffffffffffffffffffffff163373ffffffffffffffffffffffffffffffffffffffff1614151561376057600080fd5b80600b60006101000a81548173ffffffffffffffffffffffffffffffffffffffff021916908373ffffffffffffffffffffffffffffffffffffffff16021790555050565b6000806137af61484f565b60008963ffffffff168a1415156137c557600080fd5b8863ffffffff16891415156137d957600080fd5b8761ffff16881415156137eb57600080fd5b6002888115156137f757fe5b049250600d8361ffff16111561380c57600d92505b6101a0604051908101604052808f81526020018e81526020018d81526020018c81526020018881526020014267ffffffffffffffff168152602001600067ffffffffffffffff1681526020018b63ffffffff1681526020018a63ffffffff168152602001600063ffffffff1681526020018461ffff1681526020018961ffff1681526020018761ffff168152509150600160068390806001815401808255809150509060018203906000526020600020906007020160009091929091909150600082015181600001556020820151816001015560408201518160020155606082015181600301556080820151816004015560a08201518160050160006101000a81548167ffffffffffffffff021916908367ffffffffffffffff16021790555060c08201518160050160086101000a81548167ffffffffffffffff021916908367ffffffffffffffff16021790555060e08201518160050160106101000a81548163ffffffff021916908363ffffffff1602179055506101008201518160050160146101000a81548163ffffffff021916908363ffffffff1602179055506101208201518160050160186101000a81548163ffffffff021916908363ffffffff16021790555061014082015181600501601c6101000a81548161ffff021916908361ffff16021790555061016082015181600501601e6101000a81548161ffff021916908361ffff1602179055506101808201518160060160006101000a81548161ffff021916908361ffff16021790555050500390508063ffffffff1681141515613a5757600080fd5b7f6bdb6252e3aabe7c79b1e94c2d24f9cbed550af06f37098cc8e28e34c6140c6685828460e0015163ffffffff1685610100015163ffffffff168660800151876101800151604051808773ffffffffffffffffffffffffffffffffffffffff1673ffffffffffffffffffffffffffffffffffffffff1681526020018681526020018581526020018481526020018381526020018261ffff1661ffff168152602001965050505050505060405180910390a1613b1460008683614190565b8093505050509a9950505050505050505050565b600b60009054906101000a900473ffffffffffffffffffffffffffffffffffffffff1681565b613b566148ea565b613b603084613d66565b1515613b6b57600080fd5b60116000848152602001908152602001600020608060405190810160405290816000820160009054906101000a900473ffffffffffffffffffffffffffffffffffffffff1673ffffffffffffffffffffffffffffffffffffffff1673ffffffffffffffffffffffffffffffffffffffff16815260200160018201548152602001600282015481526020016003820160009054906101000a900460ff1660ff1660ff16815250509050613c1d3384613d66565b151515613c2957600080fd5b348160200151141515613c3b57600080fd5b600160ff16816060015160ff16141515613c5457600080fd5b613c5d836146f0565b613c6c30826000015185614190565b613c768383613dd2565b806000015173ffffffffffffffffffffffffffffffffffffffff166108fc349081150290604051600060405180830381858888f19350505050158015613cc0573d6000803e3d6000fd5b50505050565b600360009054906101000a900473ffffffffffffffffffffffffffffffffffffffff1673ffffffffffffffffffffffffffffffffffffffff163373ffffffffffffffffffffffffffffffffffffffff16141515613d2257600080fd5b80600460006101000a81548173ffffffffffffffffffffffffffffffffffffffff021916908373ffffffffffffffffffffffffffffffffffffffff16021790555050565b60008273ffffffffffffffffffffffffffffffffffffffff166007600084815260200190815260200160002060009054906101000a900473ffffffffffffffffffffffffffffffffffffffff1673ffffffffffffffffffffffffffffffffffffffff1614905092915050565b600080600683815481101515613de457fe5b90600052602060002090600702019150600684815481101515613e0357fe5b90600052602060002090600702019050828160050160186101000a81548163ffffffff021916908363ffffffff160217905550613e3f82614779565b613e4881614779565b600a600085815260200190815260200160002060006101000a81549073ffffffffffffffffffffffffffffffffffffffff0219169055600a600084815260200190815260200160002060006101000a81549073ffffffffffffffffffffffffffffffffffffffff0219169055600f60009054906101000a900473ffffffffffffffffffffffffffffffffffffffff1673ffffffffffffffffffffffffffffffffffffffff16639f5010e06007600087815260200190815260200160002060009054906101000a900473ffffffffffffffffffffffffffffffffffffffff16428560010154866002015487600301548a8a6040518863ffffffff167c0100000000000000000000000000000000000000000000000000000000028152600401808873ffffffffffffffffffffffffffffffffffffffff1673ffffffffffffffffffffffffffffffffffffffff168152602001878152602001868152602001858152602001848152602001838152602001828152602001975050505050505050600060405180830381600087803b158015613fe057600080fd5b505af1158015613ff4573d6000803e3d6000fd5b505050507f241ea03ca20251805084d27d4440371c34a0b85ff108f6bb5611248f73818b806007600086815260200190815260200160002060009054906101000a900473ffffffffffffffffffffffffffffffffffffffff1685858460050160089054906101000a900467ffffffffffffffff16604051808573ffffffffffffffffffffffffffffffffffffffff1673ffffffffffffffffffffffffffffffffffffffff1681526020018481526020018381526020018267ffffffffffffffff16815260200194505050505060405180910390a150505050565b806009600084815260200190815260200160002060006101000a81548173ffffffffffffffffffffffffffffffffffffffff021916908373ffffffffffffffffffffffffffffffffffffffff1602179055505050565b60008273ffffffffffffffffffffffffffffffffffffffff166009600084815260200190815260200160002060009054906101000a900473ffffffffffffffffffffffffffffffffffffffff1673ffffffffffffffffffffffffffffffffffffffff1614905092915050565b600860008373ffffffffffffffffffffffffffffffffffffffff1673ffffffffffffffffffffffffffffffffffffffff16815260200190815260200160002060008154809291906001019190505550816007600083815260200190815260200160002060006101000a81548173ffffffffffffffffffffffffffffffffffffffff021916908373ffffffffffffffffffffffffffffffffffffffff160217905550600073ffffffffffffffffffffffffffffffffffffffff168373ffffffffffffffffffffffffffffffffffffffff1614151561432457600860008473ffffffffffffffffffffffffffffffffffffffff1673ffffffffffffffffffffffffffffffffffffffff1681526020019081526020016000206000815480929190600190039190505550600a600082815260200190815260200160002060006101000a81549073ffffffffffffffffffffffffffffffffffffffff02191690556009600082815260200190815260200160002060006101000a81549073ffffffffffffffffffffffffffffffffffffffff02191690555b7fddf252ad1be2c89b69c2b068fc378daa952ba7f163c4a11628f55a4df523b3ef838383604051808473ffffffffffffffffffffffffffffffffffffffff1673ffffffffffffffffffffffffffffffffffffffff1681526020018373ffffffffffffffffffffffffffffffffffffffff1673ffffffffffffffffffffffffffffffffffffffff168152602001828152602001935050505060405180910390a1505050565b6000818414156143db57600090506145d5565b818560050160109054906101000a900463ffffffff1663ffffffff16148061441c5750818560050160149054906101000a900463ffffffff1663ffffffff16145b1561442a57600090506145d5565b838360050160109054906101000a900463ffffffff1663ffffffff16148061446b5750838360050160149054906101000a900463ffffffff1663ffffffff16145b1561447957600090506145d5565b60008360050160109054906101000a900463ffffffff1663ffffffff1614806144bc575060008560050160109054906101000a900463ffffffff1663ffffffff16145b156144ca57600190506145d5565b8460050160109054906101000a900463ffffffff1663ffffffff168360050160109054906101000a900463ffffffff1663ffffffff16148061453f57508460050160149054906101000a900463ffffffff1663ffffffff168360050160109054906101000a900463ffffffff1663ffffffff16145b1561454d57600090506145d5565b8460050160109054906101000a900463ffffffff1663ffffffff168360050160149054906101000a900463ffffffff1663ffffffff1614806145c257508460050160149054906101000a900463ffffffff1663ffffffff168360050160149054906101000a900463ffffffff1663ffffffff16145b156145d057600090506145d5565b600190505b949350505050565b60008060006007600085815260200190815260200160002060009054906101000a900473ffffffffffffffffffffffffffffffffffffffff1691506007600086815260200190815260200160002060009054906101000a900473ffffffffffffffffffffffffffffffffffffffff1690508073ffffffffffffffffffffffffffffffffffffffff168273ffffffffffffffffffffffffffffffffffffffff1614806146e657508173ffffffffffffffffffffffffffffffffffffffff16600a600087815260200190815260200160002060009054906101000a900473ffffffffffffffffffffffffffffffffffffffff1673ffffffffffffffffffffffffffffffffffffffff16145b9250505092915050565b60116000828152602001908152602001600020600080820160006101000a81549073ffffffffffffffffffffffffffffffffffffffff0219169055600182016000905560028201600090556003820160006101000a81549060ff0219169055505050565b60004367ffffffffffffffff168260c0015167ffffffffffffffff1611159050919050565b43600254600083600501601c9054906101000a900461ffff1661ffff16600e811015156147a257fe5b600891828204019190066004029054906101000a900463ffffffff1663ffffffff168115156147cd57fe5b04018160050160086101000a81548167ffffffffffffffff021916908367ffffffffffffffff160217905550600d81600501601c9054906101000a900461ffff1661ffff16101561484c57600181600501601c8282829054906101000a900461ffff160192506101000a81548161ffff021916908361ffff1602179055505b50565b6101a0604051908101604052806000815260200160008152602001600081526020016000815260200160008152602001600067ffffffffffffffff168152602001600067ffffffffffffffff168152602001600063ffffffff168152602001600063ffffffff168152602001600063ffffffff168152602001600061ffff168152602001600061ffff168152602001600061ffff1681525090565b608060405190810160405280600073ffffffffffffffffffffffffffffffffffffffff1681526020016000815260200160008152602001600060ff1681525090565b6101c060405190810160405280600e906020820280388339808201915050905050905600a165627a7a72305820f280f11b7d562ab1e5665d6129b806ea2793cec6dba327e8df0a4b194b1ccf0e0029",
  "source": "pragma solidity ^0.4.25;\n\nimport \"./PZHeroFactory.sol\";\n\ncontract PZHeroCore is PZHeroFactory\n{\n    /**\n    * Constructor\n    * @param _addrItemCore                  Address of Item Contract\n    * @param _addrEggCore                   Address of Egg Contract\n    * @param _addrGeneScience               Address of GeneScience contract\n    *\n     */\n    constructor(address _addrItemCore, address _addrEggCore, address _addrGeneScience) public\n    {\n        require(_addrItemCore != address(0x0));\n        addrItemCore = _addrItemCore;\n\n        addrGeneScience = _addrGeneScience;\n        PZGeneScienceInterface candidateContract = PZGeneScienceInterface(_addrGeneScience);\n\n        require(candidateContract.isGeneScience());\n\n        // Set the new contract address\n        contractGeneScience = candidateContract;\n\n        addrEggCore = _addrEggCore;\n        PZEggCore candidateEggContract = PZEggCore(_addrEggCore);\n\n        require(candidateEggContract.isEggContract());\n\n        // Set the new contract address\n        contractEggCore = candidateEggContract;\n    }\n\n    /**\n    * Gift Hero to other users\n    *\n    * @param _to                            address of receiver\n    * @param _heroId                        Hero Id to gift\n    *\n    */    \n    function giftHero(address _to, uint256 _heroId) external\n    {\n        require(_owns(msg.sender, _heroId));\n        require(_to != address(0x0));\n        _transfer(msg.sender, _to, _heroId);\n    }\n\n    /**\n    * Get Information of an Hero\n    * @param _heroId                        Hero ID\n    *\n    * @return genes                         Genes\n    * @return birthTime                     BirthTime\n    * @return cooldownEndBlock              Cooldown Time\n    * @return matronId                      MatronID\n    * @return sireId                        Sire ID\n    * @return siringWithId                  Sire ID breeded with\n    * @return cooldownIndex                 Cooldown Index\n    * @return generation                    Generation\n    * @return level                         Level\n    *\n     */\n    function getHero(uint _heroId)\n        public\n        view\n        returns(\n            uint date,\n            uint price,\n            uint tokenId,\n            uint tokenPrice,\n            uint256 genes,\n            uint64 birthTime,\n            uint64 cooldownEndBlock,\n            uint32 matronId,\n            uint32 sireId,\n            uint32 siringWithId,\n            uint16 cooldownIndex,\n            uint16 generation,\n            uint16 level)\n    {\n        Hero memory _hero = heroes[_heroId];\n        return (_hero.date, _hero.price, _hero.tokenId, _hero.tokenPrice, _hero.genes,\n            _hero.birthTime,\n            _hero.cooldownEndBlock,\n            _hero.matronId, _hero.sireId,\n            _hero.siringWithId, _hero.cooldownIndex, _hero.generation, _hero.level);\n    }\n\n    /**\n    * Get Traits of Hero\n    * @param _heroId                      Hero Id\n    *\n    * @return traits\n    *\n     */\n    function getHeroTraits(uint _heroId) public view returns(uint8[]) {\n        Hero memory _hero = heroes[_heroId];\n        return contractGeneScience.decode(_hero.genes);\n    }\n\n    /**\n    * Get Appearance of Hero\n    * @param _heroId                      Hero Id\n    *\n    *\n     */\n    function getHeroAppearance(uint _heroId) public view returns(uint8[14]){\n        Hero memory _hero = heroes[_heroId];\n        return contractGeneScience.expressingTraits(_hero.genes);\n    }\n\n    function heroTest() external view returns (address){\n        return addrChest;\n    }\n\n    function isHeroContract() public pure returns (bool) {\n        return true;\n    }\n}\n",
  "sourcePath": "/Volumes/Backup/workspace/Dave(Tron_NFT)/pizzaHero/contracts/PZHeroCore.sol",
  "compiler": {
    "name": "solc",
    "version": "0.4.25+commit.69a1e720.Emscripten.clang"
  },
  "schemaVersion": "2.0.1",
  "updatedAt": "2020-01-20T04:54:37.550Z"
}