{
  "contractName": "PZHeroCore",
  "abi": [
    {
      "constant": false,
      "inputs": [
        {
          "name": "_matronId",
          "type": "uint256"
        },
        {
          "name": "_sireId",
          "type": "uint256"
        }
      ],
      "name": "breedWithOwns",
      "outputs": [],
      "payable": true,
      "stateMutability": "payable",
      "type": "function"
    },
    {
      "constant": true,
      "inputs": [
        {
          "name": "_interfaceID",
          "type": "bytes4"
        }
      ],
      "name": "supportsInterface",
      "outputs": [
        {
          "name": "",
          "type": "bool"
        }
      ],
      "payable": false,
      "stateMutability": "view",
      "type": "function"
    },
    {
      "constant": true,
      "inputs": [],
      "name": "name",
      "outputs": [
        {
          "name": "",
          "type": "string"
        }
      ],
      "payable": false,
      "stateMutability": "view",
      "type": "function"
    },
    {
      "constant": false,
      "inputs": [
        {
          "name": "_to",
          "type": "address"
        },
        {
          "name": "_heroId",
          "type": "uint256"
        }
      ],
      "name": "approve",
      "outputs": [],
      "payable": false,
      "stateMutability": "nonpayable",
      "type": "function"
    },
    {
      "constant": false,
      "inputs": [
        {
          "name": "_addrGeneScience",
          "type": "address"
        }
      ],
      "name": "setGeneScienceAddr",
      "outputs": [],
      "payable": false,
      "stateMutability": "nonpayable",
      "type": "function"
    },
    {
      "constant": true,
      "inputs": [],
      "name": "totalSupply",
      "outputs": [
        {
          "name": "",
          "type": "uint256"
        }
      ],
      "payable": false,
      "stateMutability": "view",
      "type": "function"
    },
    {
      "constant": true,
      "inputs": [
        {
          "name": "",
          "type": "uint256"
        }
      ],
      "name": "heroAuctions",
      "outputs": [
        {
          "name": "seller",
          "type": "address"
        },
        {
          "name": "startingPrice",
          "type": "uint256"
        },
        {
          "name": "heroId",
          "type": "uint256"
        },
        {
          "name": "auctionType",
          "type": "uint8"
        }
      ],
      "payable": false,
      "stateMutability": "view",
      "type": "function"
    },
    {
      "constant": false,
      "inputs": [
        {
          "name": "_from",
          "type": "address"
        },
        {
          "name": "_to",
          "type": "address"
        },
        {
          "name": "_heroId",
          "type": "uint256"
        }
      ],
      "name": "transferFrom",
      "outputs": [],
      "payable": false,
      "stateMutability": "nonpayable",
      "type": "function"
    },
    {
      "constant": true,
      "inputs": [],
      "name": "getHeroIdsOnSale",
      "outputs": [
        {
          "name": "",
          "type": "uint256[]"
        }
      ],
      "payable": false,
      "stateMutability": "view",
      "type": "function"
    },
    {
      "constant": true,
      "inputs": [],
      "name": "addrItemCore",
      "outputs": [
        {
          "name": "",
          "type": "address"
        }
      ],
      "payable": false,
      "stateMutability": "view",
      "type": "function"
    },
    {
      "constant": true,
      "inputs": [],
      "name": "contractGeneScience",
      "outputs": [
        {
          "name": "",
          "type": "address"
        }
      ],
      "payable": false,
      "stateMutability": "view",
      "type": "function"
    },
    {
      "constant": true,
      "inputs": [],
      "name": "contractEggCore",
      "outputs": [
        {
          "name": "",
          "type": "address"
        }
      ],
      "payable": false,
      "stateMutability": "view",
      "type": "function"
    },
    {
      "constant": true,
      "inputs": [
        {
          "name": "",
          "type": "uint256"
        }
      ],
      "name": "sireAllowedToAddress",
      "outputs": [
        {
          "name": "",
          "type": "address"
        }
      ],
      "payable": false,
      "stateMutability": "view",
      "type": "function"
    },
    {
      "constant": true,
      "inputs": [
        {
          "name": "_matronId",
          "type": "uint256"
        },
        {
          "name": "_sireId",
          "type": "uint256"
        }
      ],
      "name": "canBreedWith",
      "outputs": [
        {
          "name": "",
          "type": "bool"
        }
      ],
      "payable": false,
      "stateMutability": "view",
      "type": "function"
    },
    {
      "constant": false,
      "inputs": [
        {
          "name": "_addr",
          "type": "address"
        },
        {
          "name": "_sireId",
          "type": "uint256"
        }
      ],
      "name": "approveSiring",
      "outputs": [],
      "payable": false,
      "stateMutability": "nonpayable",
      "type": "function"
    },
    {
      "constant": true,
      "inputs": [],
      "name": "addrGeneScience",
      "outputs": [
        {
          "name": "",
          "type": "address"
        }
      ],
      "payable": false,
      "stateMutability": "view",
      "type": "function"
    },
    {
      "constant": true,
      "inputs": [
        {
          "name": "_heroId",
          "type": "uint256"
        }
      ],
      "name": "ownerOf",
      "outputs": [
        {
          "name": "owner",
          "type": "address"
        }
      ],
      "payable": false,
      "stateMutability": "view",
      "type": "function"
    },
    {
      "constant": false,
      "inputs": [
        {
          "name": "_heroId",
          "type": "uint256"
        }
      ],
      "name": "bidAuction",
      "outputs": [],
      "payable": true,
      "stateMutability": "payable",
      "type": "function"
    },
    {
      "constant": false,
      "inputs": [
        {
          "name": "_price",
          "type": "uint256"
        },
        {
          "name": "_heroId",
          "type": "uint256"
        },
        {
          "name": "_auctionType",
          "type": "uint8"
        }
      ],
      "name": "addAuction",
      "outputs": [],
      "payable": false,
      "stateMutability": "nonpayable",
      "type": "function"
    },
    {
      "constant": true,
      "inputs": [
        {
          "name": "_owner",
          "type": "address"
        }
      ],
      "name": "balanceOf",
      "outputs": [
        {
          "name": "count",
          "type": "uint256"
        }
      ],
      "payable": false,
      "stateMutability": "view",
      "type": "function"
    },
    {
      "constant": true,
      "inputs": [],
      "name": "addrChest",
      "outputs": [
        {
          "name": "",
          "type": "address"
        }
      ],
      "payable": false,
      "stateMutability": "view",
      "type": "function"
    },
    {
      "constant": true,
      "inputs": [],
      "name": "secondsPerBlock",
      "outputs": [
        {
          "name": "",
          "type": "uint256"
        }
      ],
      "payable": false,
      "stateMutability": "view",
      "type": "function"
    },
    {
      "constant": false,
      "inputs": [
        {
          "name": "_matronId",
          "type": "uint256"
        },
        {
          "name": "_sireId",
          "type": "uint256"
        }
      ],
      "name": "breedWithOwned",
      "outputs": [],
      "payable": true,
      "stateMutability": "payable",
      "type": "function"
    },
    {
      "constant": true,
      "inputs": [],
      "name": "addrEggCore",
      "outputs": [
        {
          "name": "",
          "type": "address"
        }
      ],
      "payable": false,
      "stateMutability": "view",
      "type": "function"
    },
    {
      "constant": true,
      "inputs": [],
      "name": "symbol",
      "outputs": [
        {
          "name": "",
          "type": "string"
        }
      ],
      "payable": false,
      "stateMutability": "view",
      "type": "function"
    },
    {
      "constant": false,
      "inputs": [
        {
          "name": "_heroId",
          "type": "uint256"
        }
      ],
      "name": "cancelAuction",
      "outputs": [],
      "payable": false,
      "stateMutability": "nonpayable",
      "type": "function"
    },
    {
      "constant": true,
      "inputs": [
        {
          "name": "_owner",
          "type": "address"
        }
      ],
      "name": "heroesOfOwner",
      "outputs": [
        {
          "name": "ownerHeroes",
          "type": "uint256[]"
        }
      ],
      "payable": false,
      "stateMutability": "view",
      "type": "function"
    },
    {
      "constant": true,
      "inputs": [
        {
          "name": "_heroId",
          "type": "uint256"
        }
      ],
      "name": "getHeroAuctionByheroId",
      "outputs": [
        {
          "name": "seller",
          "type": "address"
        },
        {
          "name": "price",
          "type": "uint256"
        },
        {
          "name": "heroId",
          "type": "uint256"
        },
        {
          "name": "auctionType",
          "type": "uint8"
        }
      ],
      "payable": false,
      "stateMutability": "view",
      "type": "function"
    },
    {
      "constant": true,
      "inputs": [
        {
          "name": "",
          "type": "address"
        }
      ],
      "name": "ownershipHeroCount",
      "outputs": [
        {
          "name": "",
          "type": "uint256"
        }
      ],
      "payable": false,
      "stateMutability": "view",
      "type": "function"
    },
    {
      "constant": true,
      "inputs": [
        {
          "name": "",
          "type": "uint256"
        }
      ],
      "name": "cooldowns",
      "outputs": [
        {
          "name": "",
          "type": "uint32"
        }
      ],
      "payable": false,
      "stateMutability": "view",
      "type": "function"
    },
    {
      "constant": true,
      "inputs": [
        {
          "name": "",
          "type": "uint256"
        }
      ],
      "name": "heroes",
      "outputs": [
        {
          "name": "date",
          "type": "uint256"
        },
        {
          "name": "price",
          "type": "uint256"
        },
        {
          "name": "tokenId",
          "type": "uint256"
        },
        {
          "name": "tokenPrice",
          "type": "uint256"
        },
        {
          "name": "genes",
          "type": "uint256"
        },
        {
          "name": "birthTime",
          "type": "uint64"
        },
        {
          "name": "cooldownEndBlock",
          "type": "uint64"
        },
        {
          "name": "matronId",
          "type": "uint32"
        },
        {
          "name": "sireId",
          "type": "uint32"
        },
        {
          "name": "siringWithId",
          "type": "uint32"
        },
        {
          "name": "cooldownIndex",
          "type": "uint16"
        },
        {
          "name": "generation",
          "type": "uint16"
        },
        {
          "name": "level",
          "type": "uint16"
        }
      ],
      "payable": false,
      "stateMutability": "view",
      "type": "function"
    },
    {
      "constant": false,
      "inputs": [
        {
          "name": "_to",
          "type": "address"
        },
        {
          "name": "_heroId",
          "type": "uint256"
        }
      ],
      "name": "transfer",
      "outputs": [],
      "payable": false,
      "stateMutability": "nonpayable",
      "type": "function"
    },
    {
      "constant": true,
      "inputs": [
        {
          "name": "",
          "type": "uint256"
        }
      ],
      "name": "heroIndexToOwner",
      "outputs": [
        {
          "name": "",
          "type": "address"
        }
      ],
      "payable": false,
      "stateMutability": "view",
      "type": "function"
    },
    {
      "constant": true,
      "inputs": [],
      "name": "autoBirthFee",
      "outputs": [
        {
          "name": "",
          "type": "uint256"
        }
      ],
      "payable": false,
      "stateMutability": "view",
      "type": "function"
    },
    {
      "constant": true,
      "inputs": [],
      "name": "breedTest",
      "outputs": [
        {
          "name": "",
          "type": "string"
        }
      ],
      "payable": false,
      "stateMutability": "pure",
      "type": "function"
    },
    {
      "constant": true,
      "inputs": [],
      "name": "addrAdmin",
      "outputs": [
        {
          "name": "",
          "type": "address"
        }
      ],
      "payable": false,
      "stateMutability": "view",
      "type": "function"
    },
    {
      "constant": true,
      "inputs": [],
      "name": "getHeroAuctionCount",
      "outputs": [
        {
          "name": "",
          "type": "uint256"
        }
      ],
      "payable": false,
      "stateMutability": "view",
      "type": "function"
    },
    {
      "constant": false,
      "inputs": [
        {
          "name": "_addrItem",
          "type": "address"
        }
      ],
      "name": "setItemCoreAddress",
      "outputs": [],
      "payable": false,
      "stateMutability": "nonpayable",
      "type": "function"
    },
    {
      "constant": true,
      "inputs": [
        {
          "name": "_heroId",
          "type": "uint256"
        }
      ],
      "name": "isReadyToBreed",
      "outputs": [
        {
          "name": "",
          "type": "bool"
        }
      ],
      "payable": false,
      "stateMutability": "view",
      "type": "function"
    },
    {
      "constant": true,
      "inputs": [
        {
          "name": "",
          "type": "uint256"
        }
      ],
      "name": "heroIndexToApproved",
      "outputs": [
        {
          "name": "",
          "type": "address"
        }
      ],
      "payable": false,
      "stateMutability": "view",
      "type": "function"
    },
    {
      "constant": false,
      "inputs": [
        {
          "name": "_contractAddress",
          "type": "address"
        }
      ],
      "name": "setMetadataAddress",
      "outputs": [],
      "payable": false,
      "stateMutability": "nonpayable",
      "type": "function"
    },
    {
      "constant": false,
      "inputs": [
        {
          "name": "_date",
          "type": "uint256"
        },
        {
          "name": "_price",
          "type": "uint256"
        },
        {
          "name": "_tokenId",
          "type": "uint256"
        },
        {
          "name": "_tokenPrice",
          "type": "uint256"
        },
        {
          "name": "_matronId",
          "type": "uint256"
        },
        {
          "name": "_sireId",
          "type": "uint256"
        },
        {
          "name": "_generation",
          "type": "uint256"
        },
        {
          "name": "_genes",
          "type": "uint256"
        },
        {
          "name": "_level",
          "type": "uint16"
        },
        {
          "name": "_owner",
          "type": "address"
        }
      ],
      "name": "createHero",
      "outputs": [
        {
          "name": "",
          "type": "uint256"
        }
      ],
      "payable": false,
      "stateMutability": "nonpayable",
      "type": "function"
    },
    {
      "constant": true,
      "inputs": [],
      "name": "trc721Metadata",
      "outputs": [
        {
          "name": "",
          "type": "address"
        }
      ],
      "payable": false,
      "stateMutability": "view",
      "type": "function"
    },
    {
      "constant": false,
      "inputs": [
        {
          "name": "_heroId",
          "type": "uint256"
        },
        {
          "name": "_sireId",
          "type": "uint256"
        }
      ],
      "name": "bidSire",
      "outputs": [],
      "payable": true,
      "stateMutability": "payable",
      "type": "function"
    },
    {
      "constant": false,
      "inputs": [
        {
          "name": "_addrChest",
          "type": "address"
        }
      ],
      "name": "setChestAddress",
      "outputs": [],
      "payable": false,
      "stateMutability": "nonpayable",
      "type": "function"
    },
    {
      "inputs": [
        {
          "name": "_addrItemCore",
          "type": "address"
        },
        {
          "name": "_addrEggCore",
          "type": "address"
        },
        {
          "name": "_addrGeneScience",
          "type": "address"
        }
      ],
      "payable": false,
      "stateMutability": "nonpayable",
      "type": "constructor"
    },
    {
      "anonymous": false,
      "inputs": [
        {
          "indexed": false,
          "name": "owner",
          "type": "address"
        },
        {
          "indexed": false,
          "name": "matronId",
          "type": "uint256"
        },
        {
          "indexed": false,
          "name": "sireId",
          "type": "uint256"
        },
        {
          "indexed": false,
          "name": "cooldownEndBlock",
          "type": "uint256"
        }
      ],
      "name": "Pregnant",
      "type": "event"
    },
    {
      "anonymous": false,
      "inputs": [
        {
          "indexed": false,
          "name": "from",
          "type": "address"
        },
        {
          "indexed": false,
          "name": "to",
          "type": "address"
        },
        {
          "indexed": false,
          "name": "tokenId",
          "type": "uint256"
        }
      ],
      "name": "Transfer",
      "type": "event"
    },
    {
      "anonymous": false,
      "inputs": [
        {
          "indexed": false,
          "name": "owner",
          "type": "address"
        },
        {
          "indexed": false,
          "name": "approved",
          "type": "address"
        },
        {
          "indexed": false,
          "name": "tokenId",
          "type": "uint256"
        }
      ],
      "name": "Approval",
      "type": "event"
    },
    {
      "anonymous": false,
      "inputs": [
        {
          "indexed": false,
          "name": "owner",
          "type": "address"
        },
        {
          "indexed": false,
          "name": "kittyId",
          "type": "uint256"
        },
        {
          "indexed": false,
          "name": "matronId",
          "type": "uint256"
        },
        {
          "indexed": false,
          "name": "sireId",
          "type": "uint256"
        },
        {
          "indexed": false,
          "name": "genes",
          "type": "uint256"
        },
        {
          "indexed": false,
          "name": "level",
          "type": "uint16"
        }
      ],
      "name": "Birth",
      "type": "event"
    },
    {
      "constant": false,
      "inputs": [
        {
          "name": "_to",
          "type": "address"
        },
        {
          "name": "_heroId",
          "type": "uint256"
        }
      ],
      "name": "giftHero",
      "outputs": [],
      "payable": false,
      "stateMutability": "nonpayable",
      "type": "function"
    },
    {
      "constant": true,
      "inputs": [
        {
          "name": "_heroId",
          "type": "uint256"
        }
      ],
      "name": "getHero",
      "outputs": [
        {
          "name": "date",
          "type": "uint256"
        },
        {
          "name": "price",
          "type": "uint256"
        },
        {
          "name": "tokenId",
          "type": "uint256"
        },
        {
          "name": "tokenPrice",
          "type": "uint256"
        },
        {
          "name": "genes",
          "type": "uint256"
        },
        {
          "name": "birthTime",
          "type": "uint64"
        },
        {
          "name": "cooldownEndBlock",
          "type": "uint64"
        },
        {
          "name": "matronId",
          "type": "uint32"
        },
        {
          "name": "sireId",
          "type": "uint32"
        },
        {
          "name": "siringWithId",
          "type": "uint32"
        },
        {
          "name": "cooldownIndex",
          "type": "uint16"
        },
        {
          "name": "generation",
          "type": "uint16"
        },
        {
          "name": "level",
          "type": "uint16"
        }
      ],
      "payable": false,
      "stateMutability": "view",
      "type": "function"
    },
    {
      "constant": true,
      "inputs": [
        {
          "name": "_heroId",
          "type": "uint256"
        }
      ],
      "name": "getHeroTraits",
      "outputs": [
        {
          "name": "",
          "type": "uint8[]"
        }
      ],
      "payable": false,
      "stateMutability": "view",
      "type": "function"
    },
    {
      "constant": true,
      "inputs": [
        {
          "name": "_heroId",
          "type": "uint256"
        }
      ],
      "name": "getHeroAppearance",
      "outputs": [
        {
          "name": "",
          "type": "uint8[14]"
        }
      ],
      "payable": false,
      "stateMutability": "view",
      "type": "function"
    },
    {
      "constant": true,
      "inputs": [],
      "name": "heroTest",
      "outputs": [
        {
          "name": "",
          "type": "address"
        }
      ],
      "payable": false,
      "stateMutability": "view",
      "type": "function"
    },
    {
      "constant": true,
      "inputs": [],
      "name": "isHeroContract",
      "outputs": [
        {
          "name": "",
          "type": "bool"
        }
      ],
      "payable": false,
      "stateMutability": "pure",
      "type": "function"
    }
  ],
  "bytecode": "0x60806040526101c060405190810160405280603c63ffffffff1663ffffffff168152602001607863ffffffff1663ffffffff16815260200161012c63ffffffff1663ffffffff16815260200161025863ffffffff1663ffffffff16815260200161070863ffffffff1663ffffffff168152602001610e1063ffffffff1663ffffffff168152602001611c2063ffffffff1663ffffffff16815260200161384063ffffffff1663ffffffff16815260200161708063ffffffff1663ffffffff16815260200161e10063ffffffff1663ffffffff1681526020016201518063ffffffff1663ffffffff1681526020016202a30063ffffffff1663ffffffff1681526020016205460063ffffffff1663ffffffff16815260200162093a8063ffffffff1663ffffffff16815250600090600e6200013b929190620004e8565b50600f60025562989680600c553480156200015557600080fd5b50d380156200016357600080fd5b50d280156200017157600080fd5b50604051606080620051a0833981018060405260608110156200019357600080fd5b8101908080519060200190929190805190602001909291908051906020019092919050505033600360006101000a81548173ffffffffffffffffffffffffffffffffffffffff021916908373ffffffffffffffffffffffffffffffffffffffff160217905550600073ffffffffffffffffffffffffffffffffffffffff168373ffffffffffffffffffffffffffffffffffffffff16141515156200023657600080fd5b82600560006101000a81548173ffffffffffffffffffffffffffffffffffffffff021916908373ffffffffffffffffffffffffffffffffffffffff16021790555080600e60006101000a81548173ffffffffffffffffffffffffffffffffffffffff021916908373ffffffffffffffffffffffffffffffffffffffff16021790555060008190508073ffffffffffffffffffffffffffffffffffffffff166354c15b826040518163ffffffff167c010000000000000000000000000000000000000000000000000000000002815260040160206040518083038186803b1580156200032057600080fd5b505afa15801562000335573d6000803e3d6000fd5b505050506040513d60208110156200034c57600080fd5b810190808051906020019092919050505015156200036957600080fd5b80600d60006101000a81548173ffffffffffffffffffffffffffffffffffffffff021916908373ffffffffffffffffffffffffffffffffffffffff16021790555082601060006101000a81548173ffffffffffffffffffffffffffffffffffffffff021916908373ffffffffffffffffffffffffffffffffffffffff16021790555060008390508073ffffffffffffffffffffffffffffffffffffffff166399b2af476040518163ffffffff167c010000000000000000000000000000000000000000000000000000000002815260040160206040518083038186803b1580156200045357600080fd5b505afa15801562000468573d6000803e3d6000fd5b505050506040513d60208110156200047f57600080fd5b810190808051906020019092919050505015156200049c57600080fd5b80600f60006101000a81548173ffffffffffffffffffffffffffffffffffffffff021916908373ffffffffffffffffffffffffffffffffffffffff1602179055505050505050620005c8565b82600e6007016008900481019282156200057f5791602002820160005b838211156200054b57835183826101000a81548163ffffffff021916908363ffffffff160217905550926020019260040160208160030104928301926001030262000505565b80156200057d5782816101000a81549063ffffffff02191690556004016020816003010492830192600103026200054b565b505b5090506200058e919062000592565b5090565b620005c591905b80821115620005c157600081816101000a81549063ffffffff02191690555060010162000599565b5090565b90565b614bc880620005d86000396000f3fe608060405260043610610301576000357c0100000000000000000000000000000000000000000000000000000000900480637a7d4937116101ad578063b1e4f01f116100f9578063d3e6f49f116100b2578063e32170ae1161008c578063e32170ae14611a4c578063f15f938814611b2a578063f175408b14611b9b578063f794ac1f14611bd357610301565b8063d3e6f49f146118df578063de3e305f1461194c578063e17b25af146119e157610301565b8063b1e4f01f1461165a578063bc82b93b146116a3578063be9873d214611714578063bfae2f0e146117be578063c492a1d41461182f578063cb0e2c5a1461187457610301565b8063994d953811610166578063a8d4a03b11610140578063a8d4a03b146113ea578063a9059cbb1461150b578063aa54beac14611580578063b0c35c051461161557610301565b8063994d9538146112465780639ca7722d146112f65780639d6fac6f1461137557610301565b80637a7d493714610f995780638a8fb54a14610fde5780638ca22e131461101657806395d89b411461108757806396b5a75514611131578063989555f81461118657610301565b80633ba864fe1161026c57806357cea4fd1161022557806368f29110116101ff57806368f2911014610dac57806370a0823114610e1857806376c0b36714610e97578063796c3cb314610f0857610301565b806357cea4fd14610c785780636352211e14610ce957806364a7d7c714610d7e57610301565b80633ba864fe146109a05780634558f4c814610a1157806346116e6f14610a8257806346d22c7014610b175780634dfff04f14610b8e578063526a3cf514610c0357610301565b806318ad2851116102be57806318ad28511461059957806321d801111461064957806323b872dd1461076a57806325d36762146107ff5780632f6db1ee146108855780632fda277f146108f657610301565b80630153b8ee1461030657806301ffc9a71461033e57806306fdde03146103ca578063095ea7b314610474578063119c4d63146104e957806318160ddd14610554575b600080fd5b61033c6004803603604081101561031c57600080fd5b810190808035906020019092919080359060200190929190505050611c3e565b005b34801561034a57600080fd5b50d3801561035757600080fd5b50d2801561036457600080fd5b506103b06004803603602081101561037b57600080fd5b8101908080357bffffffffffffffffffffffffffffffffffffffffffffffffffffffff19169060200190929190505050611c76565b604051808215151515815260200191505060405180910390f35b3480156103d657600080fd5b50d380156103e357600080fd5b50d280156103f057600080fd5b506103f9611f44565b6040518080602001828103825283818151815260200191508051906020019080838360005b8381101561043957808201518184015260208101905061041e565b50505050905090810190601f1680156104665780820380516001836020036101000a031916815260200191505b509250505060405180910390f35b34801561048057600080fd5b50d3801561048d57600080fd5b50d2801561049a57600080fd5b506104e7600480360360408110156104b157600080fd5b81019080803573ffffffffffffffffffffffffffffffffffffffff16906020019092919080359060200190929190505050611f7d565b005b3480156104f557600080fd5b50d3801561050257600080fd5b50d2801561050f57600080fd5b506105526004803603602081101561052657600080fd5b81019080803573ffffffffffffffffffffffffffffffffffffffff16906020019092919050505061203f565b005b34801561056057600080fd5b50d3801561056d57600080fd5b50d2801561057a57600080fd5b506105836121ce565b6040518082815260200191505060405180910390f35b3480156105a557600080fd5b50d380156105b257600080fd5b50d280156105bf57600080fd5b506105ec600480360360208110156105d657600080fd5b81019080803590602001909291905050506121de565b604051808573ffffffffffffffffffffffffffffffffffffffff1673ffffffffffffffffffffffffffffffffffffffff1681526020018481526020018381526020018260ff1660ff16815260200194505050505060405180910390f35b34801561065557600080fd5b50d3801561066257600080fd5b50d2801561066f57600080fd5b5061069c6004803603602081101561068657600080fd5b810190808035906020019092919050505061224a565b604051808e81526020018d81526020018c81526020018b81526020018a81526020018967ffffffffffffffff1667ffffffffffffffff1681526020018867ffffffffffffffff1667ffffffffffffffff1681526020018763ffffffff1663ffffffff1681526020018663ffffffff1663ffffffff1681526020018563ffffffff1663ffffffff1681526020018461ffff1661ffff1681526020018361ffff1661ffff1681526020018261ffff1661ffff1681526020019d505050505050505050505050505060405180910390f35b34801561077657600080fd5b50d3801561078357600080fd5b50d2801561079057600080fd5b506107fd600480360360608110156107a757600080fd5b81019080803573ffffffffffffffffffffffffffffffffffffffff169060200190929190803573ffffffffffffffffffffffffffffffffffffffff1690602001909291908035906020019092919050505061246c565b005b34801561080b57600080fd5b50d3801561081857600080fd5b50d2801561082557600080fd5b5061082e61251d565b6040518080602001828103825283818151815260200191508051906020019060200280838360005b83811015610871578082015181840152602081019050610856565b505050509050019250505060405180910390f35b34801561089157600080fd5b50d3801561089e57600080fd5b50d280156108ab57600080fd5b506108b461252d565b604051808273ffffffffffffffffffffffffffffffffffffffff1673ffffffffffffffffffffffffffffffffffffffff16815260200191505060405180910390f35b34801561090257600080fd5b50d3801561090f57600080fd5b50d2801561091c57600080fd5b506109496004803603602081101561093357600080fd5b8101908080359060200190929190505050612553565b6040518080602001828103825283818151815260200191508051906020019060200280838360005b8381101561098c578082015181840152602081019050610971565b505050509050019250505060405180910390f35b3480156109ac57600080fd5b50d380156109b957600080fd5b50d280156109c657600080fd5b506109cf61281d565b604051808273ffffffffffffffffffffffffffffffffffffffff1673ffffffffffffffffffffffffffffffffffffffff16815260200191505060405180910390f35b348015610a1d57600080fd5b50d38015610a2a57600080fd5b50d28015610a3757600080fd5b50610a40612843565b604051808273ffffffffffffffffffffffffffffffffffffffff1673ffffffffffffffffffffffffffffffffffffffff16815260200191505060405180910390f35b348015610a8e57600080fd5b50d38015610a9b57600080fd5b50d28015610aa857600080fd5b50610ad560048036036020811015610abf57600080fd5b8101908080359060200190929190505050612869565b604051808273ffffffffffffffffffffffffffffffffffffffff1673ffffffffffffffffffffffffffffffffffffffff16815260200191505060405180910390f35b348015610b2357600080fd5b50d38015610b3057600080fd5b50d28015610b3d57600080fd5b50610b7460048036036040811015610b5457600080fd5b81019080803590602001909291908035906020019092919050505061289c565b604051808215151515815260200191505060405180910390f35b348015610b9a57600080fd5b50d38015610ba757600080fd5b50d28015610bb457600080fd5b50610c0160048036036040811015610bcb57600080fd5b81019080803573ffffffffffffffffffffffffffffffffffffffff16906020019092919080359060200190929190505050612925565b005b348015610c0f57600080fd5b50d38015610c1c57600080fd5b50d28015610c2957600080fd5b50610c7660048036036040811015610c4057600080fd5b81019080803573ffffffffffffffffffffffffffffffffffffffff16906020019092919080359060200190929190505050612990565b005b348015610c8457600080fd5b50d38015610c9157600080fd5b50d28015610c9e57600080fd5b50610ca76129f0565b604051808273ffffffffffffffffffffffffffffffffffffffff1673ffffffffffffffffffffffffffffffffffffffff16815260200191505060405180910390f35b348015610cf557600080fd5b50d38015610d0257600080fd5b50d28015610d0f57600080fd5b50610d3c60048036036020811015610d2657600080fd5b8101908080359060200190929190505050612a16565b604051808273ffffffffffffffffffffffffffffffffffffffff1673ffffffffffffffffffffffffffffffffffffffff16815260200191505060405180910390f35b610daa60048036036020811015610d9457600080fd5b8101908080359060200190929190505050612a8f565b005b348015610db857600080fd5b50d38015610dc557600080fd5b50d28015610dd257600080fd5b50610e1660048036036060811015610de957600080fd5b810190808035906020019092919080359060200190929190803560ff169060200190929190505050612bf8565b005b348015610e2457600080fd5b50d38015610e3157600080fd5b50d28015610e3e57600080fd5b50610e8160048036036020811015610e5557600080fd5b81019080803573ffffffffffffffffffffffffffffffffffffffff169060200190929190505050612d05565b6040518082815260200191505060405180910390f35b348015610ea357600080fd5b50d38015610eb057600080fd5b50d28015610ebd57600080fd5b50610ec6612d4e565b604051808273ffffffffffffffffffffffffffffffffffffffff1673ffffffffffffffffffffffffffffffffffffffff16815260200191505060405180910390f35b348015610f1457600080fd5b50d38015610f2157600080fd5b50d28015610f2e57600080fd5b50610f5b60048036036020811015610f4557600080fd5b8101908080359060200190929190505050612d74565b6040518082600e60200280838360005b83811015610f86578082015181840152602081019050610f6b565b5050505090500191505060405180910390f35b348015610fa557600080fd5b50d38015610fb257600080fd5b50d28015610fbf57600080fd5b50610fc8612ff6565b6040518082815260200191505060405180910390f35b61101460048036036040811015610ff457600080fd5b810190808035906020019092919080359060200190929190505050612ffc565b005b34801561102257600080fd5b50d3801561102f57600080fd5b50d2801561103c57600080fd5b50611045613045565b604051808273ffffffffffffffffffffffffffffffffffffffff1673ffffffffffffffffffffffffffffffffffffffff16815260200191505060405180910390f35b34801561109357600080fd5b50d380156110a057600080fd5b50d280156110ad57600080fd5b506110b661306b565b6040518080602001828103825283818151815260200191508051906020019080838360005b838110156110f65780820151818401526020810190506110db565b50505050905090810190601f1680156111235780820380516001836020036101000a031916815260200191505b509250505060405180910390f35b34801561113d57600080fd5b50d3801561114a57600080fd5b50d2801561115757600080fd5b506111846004803603602081101561116e57600080fd5b81019080803590602001909291905050506130a4565b005b34801561119257600080fd5b50d3801561119f57600080fd5b50d280156111ac57600080fd5b506111ef600480360360208110156111c357600080fd5b81019080803573ffffffffffffffffffffffffffffffffffffffff1690602001909291905050506131bf565b6040518080602001828103825283818151815260200191508051906020019060200280838360005b83811015611232578082015181840152602081019050611217565b505050509050019250505060405180910390f35b34801561125257600080fd5b50d3801561125f57600080fd5b50d2801561126c57600080fd5b506112996004803603602081101561128357600080fd5b810190808035906020019092919050505061330d565b604051808573ffffffffffffffffffffffffffffffffffffffff1673ffffffffffffffffffffffffffffffffffffffff1681526020018481526020018381526020018260ff1660ff16815260200194505050505060405180910390f35b34801561130257600080fd5b50d3801561130f57600080fd5b50d2801561131c57600080fd5b5061135f6004803603602081101561133357600080fd5b81019080803573ffffffffffffffffffffffffffffffffffffffff1690602001909291905050506133ea565b6040518082815260200191505060405180910390f35b34801561138157600080fd5b50d3801561138e57600080fd5b50d2801561139b57600080fd5b506113c8600480360360208110156113b257600080fd5b8101908080359060200190929190505050613402565b604051808263ffffffff1663ffffffff16815260200191505060405180910390f35b3480156113f657600080fd5b50d3801561140357600080fd5b50d2801561141057600080fd5b5061143d6004803603602081101561142757600080fd5b8101908080359060200190929190505050613431565b604051808e81526020018d81526020018c81526020018b81526020018a81526020018967ffffffffffffffff1667ffffffffffffffff1681526020018867ffffffffffffffff1667ffffffffffffffff1681526020018763ffffffff1663ffffffff1681526020018663ffffffff1663ffffffff1681526020018563ffffffff1663ffffffff1681526020018461ffff1661ffff1681526020018361ffff1661ffff1681526020018261ffff1661ffff1681526020019d505050505050505050505050505060405180910390f35b34801561151757600080fd5b50d3801561152457600080fd5b50d2801561153157600080fd5b5061157e6004803603604081101561154857600080fd5b81019080803573ffffffffffffffffffffffffffffffffffffffff16906020019092919080359060200190929190505050613528565b005b34801561158c57600080fd5b50d3801561159957600080fd5b50d280156115a657600080fd5b506115d3600480360360208110156115bd57600080fd5b81019080803590602001909291905050506135c3565b604051808273ffffffffffffffffffffffffffffffffffffffff1673ffffffffffffffffffffffffffffffffffffffff16815260200191505060405180910390f35b34801561162157600080fd5b50d3801561162e57600080fd5b50d2801561163b57600080fd5b506116446135f6565b6040518082815260200191505060405180910390f35b34801561166657600080fd5b50d3801561167357600080fd5b50d2801561168057600080fd5b506116896135fc565b604051808215151515815260200191505060405180910390f35b3480156116af57600080fd5b50d380156116bc57600080fd5b50d280156116c957600080fd5b506116d2613605565b604051808273ffffffffffffffffffffffffffffffffffffffff1673ffffffffffffffffffffffffffffffffffffffff16815260200191505060405180910390f35b34801561172057600080fd5b50d3801561172d57600080fd5b50d2801561173a57600080fd5b5061174361362f565b6040518080602001828103825283818151815260200191508051906020019080838360005b83811015611783578082015181840152602081019050611768565b50505050905090810190601f1680156117b05780820380516001836020036101000a031916815260200191505b509250505060405180910390f35b3480156117ca57600080fd5b50d380156117d757600080fd5b50d280156117e457600080fd5b506117ed61366c565b604051808273ffffffffffffffffffffffffffffffffffffffff1673ffffffffffffffffffffffffffffffffffffffff16815260200191505060405180910390f35b34801561183b57600080fd5b50d3801561184857600080fd5b50d2801561185557600080fd5b5061185e613692565b6040518082815260200191505060405180910390f35b34801561188057600080fd5b50d3801561188d57600080fd5b50d2801561189a57600080fd5b506118dd600480360360208110156118b157600080fd5b81019080803573ffffffffffffffffffffffffffffffffffffffff16906020019092919050505061369f565b005b3480156118eb57600080fd5b50d380156118f857600080fd5b50d2801561190557600080fd5b506119326004803603602081101561191c57600080fd5b810190808035906020019092919050505061373f565b604051808215151515815260200191505060405180910390f35b34801561195857600080fd5b50d3801561196557600080fd5b50d2801561197257600080fd5b5061199f6004803603602081101561198957600080fd5b81019080803590602001909291905050506138f6565b604051808273ffffffffffffffffffffffffffffffffffffffff1673ffffffffffffffffffffffffffffffffffffffff16815260200191505060405180910390f35b3480156119ed57600080fd5b50d380156119fa57600080fd5b50d28015611a0757600080fd5b50611a4a60048036036020811015611a1e57600080fd5b81019080803573ffffffffffffffffffffffffffffffffffffffff169060200190929190505050613929565b005b348015611a5857600080fd5b50d38015611a6557600080fd5b50d28015611a7257600080fd5b50611b146004803603610140811015611a8a57600080fd5b810190808035906020019092919080359060200190929190803590602001909291908035906020019092919080359060200190929190803590602001909291908035906020019092919080359060200190929190803561ffff169060200190929190803573ffffffffffffffffffffffffffffffffffffffff1690602001909291905050506139c9565b6040518082815260200191505060405180910390f35b348015611b3657600080fd5b50d38015611b4357600080fd5b50d28015611b5057600080fd5b50611b59613d4e565b604051808273ffffffffffffffffffffffffffffffffffffffff1673ffffffffffffffffffffffffffffffffffffffff16815260200191505060405180910390f35b611bd160048036036040811015611bb157600080fd5b810190808035906020019092919080359060200190929190505050613d74565b005b348015611bdf57600080fd5b50d38015611bec57600080fd5b50d28015611bf957600080fd5b50611c3c60048036036020811015611c1057600080fd5b81019080803573ffffffffffffffffffffffffffffffffffffffff169060200190929190505050613eec565b005b611c483383613f8c565b1515611c5357600080fd5b611c5d3382613f8c565b1515611c6857600080fd5b611c728282613ff8565b5050565b600060405180807f737570706f727473496e74657266616365286279746573342900000000000000815250601901905060405180910390207bffffffffffffffffffffffffffffffffffffffffffffffffffffffff1916827bffffffffffffffffffffffffffffffffffffffffffffffffffffffff19161480611f3d575060405180807f746f6b656e4d657461646174612875696e743235362c737472696e6729000000815250601d019050604051809103902060405180807f6865726f65734f664f776e657228616464726573732900000000000000000000815250601601905060405180910390206040518080614b78602591396025019050604051809103902060405180807f7472616e7366657228616464726573732c75696e7432353629000000000000008152506019019050604051809103902060405180807f617070726f766528616464726573732c75696e743235362900000000000000008152506018019050604051809103902060405180807f6f776e65724f662875696e7432353629000000000000000000000000000000008152506010019050604051809103902060405180807f62616c616e63654f6628616464726573732900000000000000000000000000008152506012019050604051809103902060405180807f746f74616c537570706c79282900000000000000000000000000000000000000815250600d019050604051809103902060405180807f73796d626f6c28290000000000000000000000000000000000000000000000008152506008019050604051809103902060405180807f6e616d6528290000000000000000000000000000000000000000000000000000815250600601905060405180910390201818181818181818187bffffffffffffffffffffffffffffffffffffffffffffffffffffffff1916827bffffffffffffffffffffffffffffffffffffffffffffffffffffffff1916145b9050919050565b6040805190810160405280600881526020017f505a4865726f657300000000000000000000000000000000000000000000000081525081565b611f873382613f8c565b1515611f9257600080fd5b611f9c81836142f5565b7f8c5be1e5ebec7d5bd14f71427d1e84f3dd0314c0f7b2291e5b200ac8c7c3b925338383604051808473ffffffffffffffffffffffffffffffffffffffff1673ffffffffffffffffffffffffffffffffffffffff1681526020018373ffffffffffffffffffffffffffffffffffffffff1673ffffffffffffffffffffffffffffffffffffffff168152602001828152602001935050505060405180910390a15050565b600360009054906101000a900473ffffffffffffffffffffffffffffffffffffffff1673ffffffffffffffffffffffffffffffffffffffff163373ffffffffffffffffffffffffffffffffffffffff1614151561209b57600080fd5b80600e60006101000a81548173ffffffffffffffffffffffffffffffffffffffff021916908373ffffffffffffffffffffffffffffffffffffffff16021790555060008190508073ffffffffffffffffffffffffffffffffffffffff166354c15b826040518163ffffffff167c010000000000000000000000000000000000000000000000000000000002815260040160206040518083038186803b15801561214357600080fd5b505afa158015612157573d6000803e3d6000fd5b505050506040513d602081101561216d57600080fd5b8101908080519060200190929190505050151561218957600080fd5b80600d60006101000a81548173ffffffffffffffffffffffffffffffffffffffff021916908373ffffffffffffffffffffffffffffffffffffffff1602179055505050565b6000600160068054905003905090565b6012818154811015156121ed57fe5b90600052602060002090600402016000915090508060000160009054906101000a900473ffffffffffffffffffffffffffffffffffffffff16908060010154908060020154908060030160009054906101000a900460ff16905084565b6000806000806000806000806000806000806000612266614a76565b60068f81548110151561227557fe5b90600052602060002090600702016101a0604051908101604052908160008201548152602001600182015481526020016002820154815260200160038201548152602001600482015481526020016005820160009054906101000a900467ffffffffffffffff1667ffffffffffffffff1667ffffffffffffffff1681526020016005820160089054906101000a900467ffffffffffffffff1667ffffffffffffffff1667ffffffffffffffff1681526020016005820160109054906101000a900463ffffffff1663ffffffff1663ffffffff1681526020016005820160149054906101000a900463ffffffff1663ffffffff1663ffffffff1681526020016005820160189054906101000a900463ffffffff1663ffffffff1663ffffffff16815260200160058201601c9054906101000a900461ffff1661ffff1661ffff16815260200160058201601e9054906101000a900461ffff1661ffff1661ffff1681526020016006820160009054906101000a900461ffff1661ffff1661ffff16815250509050806000015181602001518260400151836060015184608001518560a001518660c001518760e001518861010001518961012001518a61014001518b61016001518c61018001519d509d509d509d509d509d509d509d509d509d509d509d509d505091939597999b9d90929496989a9c50565b600073ffffffffffffffffffffffffffffffffffffffff168273ffffffffffffffffffffffffffffffffffffffff16141515156124a857600080fd5b3073ffffffffffffffffffffffffffffffffffffffff168273ffffffffffffffffffffffffffffffffffffffff16141515156124e357600080fd5b6124ed338261434b565b15156124f857600080fd5b6125028382613f8c565b151561250d57600080fd5b6125188383836143b7565b505050565b6060612528306131bf565b905090565b600560009054906101000a900473ffffffffffffffffffffffffffffffffffffffff1681565b606061255d614a76565b60068381548110151561256c57fe5b90600052602060002090600702016101a0604051908101604052908160008201548152602001600182015481526020016002820154815260200160038201548152602001600482015481526020016005820160009054906101000a900467ffffffffffffffff1667ffffffffffffffff1667ffffffffffffffff1681526020016005820160089054906101000a900467ffffffffffffffff1667ffffffffffffffff1667ffffffffffffffff1681526020016005820160109054906101000a900463ffffffff1663ffffffff1663ffffffff1681526020016005820160149054906101000a900463ffffffff1663ffffffff1663ffffffff1681526020016005820160189054906101000a900463ffffffff1663ffffffff1663ffffffff16815260200160058201601c9054906101000a900461ffff1661ffff1661ffff16815260200160058201601e9054906101000a900461ffff1661ffff1661ffff1681526020016006820160009054906101000a900461ffff1661ffff1661ffff16815250509050600d60009054906101000a900473ffffffffffffffffffffffffffffffffffffffff1673ffffffffffffffffffffffffffffffffffffffff166361a7690082608001516040518263ffffffff167c01000000000000000000000000000000000000000000000000000000000281526004018082815260200191505060006040518083038186803b15801561278457600080fd5b505afa158015612798573d6000803e3d6000fd5b505050506040513d6000823e3d601f19601f8201168201806040525060208110156127c257600080fd5b8101908080516401000000008111156127da57600080fd5b828101905060208101848111156127f057600080fd5b815185602082028301116401000000008211171561280d57600080fd5b5050929190505050915050919050565b600d60009054906101000a900473ffffffffffffffffffffffffffffffffffffffff1681565b600f60009054906101000a900473ffffffffffffffffffffffffffffffffffffffff1681565b600a6020528060005260406000206000915054906101000a900473ffffffffffffffffffffffffffffffffffffffff1681565b600080831115156128ac57600080fd5b6000821115156128bb57600080fd5b60006006848154811015156128cc57fe5b9060005260206000209060070201905060006006848154811015156128ed57fe5b90600052602060002090600702019050612909828683876145ef565b801561291b575061291a8486614804565b5b9250505092915050565b61292f3382613f8c565b151561293a57600080fd5b81600a600083815260200190815260200160002060006101000a81548173ffffffffffffffffffffffffffffffffffffffff021916908373ffffffffffffffffffffffffffffffffffffffff1602179055505050565b61299a3382613f8c565b15156129a557600080fd5b600073ffffffffffffffffffffffffffffffffffffffff168273ffffffffffffffffffffffffffffffffffffffff16141515156129e157600080fd5b6129ec3383836143b7565b5050565b600e60009054906101000a900473ffffffffffffffffffffffffffffffffffffffff1681565b60006007600083815260200190815260200160002060009054906101000a900473ffffffffffffffffffffffffffffffffffffffff169050600073ffffffffffffffffffffffffffffffffffffffff168173ffffffffffffffffffffffffffffffffffffffff1614151515612a8a57600080fd5b919050565b612a993082613f8c565b1515612aa457600080fd5b612aac614b11565b60116000838152602001908152602001600020608060405190810160405290816000820160009054906101000a900473ffffffffffffffffffffffffffffffffffffffff1673ffffffffffffffffffffffffffffffffffffffff1673ffffffffffffffffffffffffffffffffffffffff16815260200160018201548152602001600282015481526020016003820160009054906101000a900460ff1660ff1660ff16815250509050612b5e3383613f8c565b151515612b6a57600080fd5b348160200151141515612b7c57600080fd5b600060ff16816060015160ff16141515612b9557600080fd5b612b9e82614917565b612ba93033846143b7565b806000015173ffffffffffffffffffffffffffffffffffffffff166108fc349081150290604051600060405180830381858888f19350505050158015612bf3573d6000803e3d6000fd5b505050565b612c023383613f8c565b1515612c0d57600080fd5b600083111515612c1c57600080fd5b612c24614b11565b6080604051908101604052803373ffffffffffffffffffffffffffffffffffffffff1681526020018581526020018481526020018360ff168152509050612c6c3330856143b7565b806011600085815260200190815260200160002060008201518160000160006101000a81548173ffffffffffffffffffffffffffffffffffffffff021916908373ffffffffffffffffffffffffffffffffffffffff160217905550602082015181600101556040820151816002015560608201518160030160006101000a81548160ff021916908360ff16021790555090505050505050565b6000600860008373ffffffffffffffffffffffffffffffffffffffff1673ffffffffffffffffffffffffffffffffffffffff168152602001908152602001600020549050919050565b600460009054906101000a900473ffffffffffffffffffffffffffffffffffffffff1681565b612d7c614b53565b612d84614a76565b600683815481101515612d9357fe5b90600052602060002090600702016101a0604051908101604052908160008201548152602001600182015481526020016002820154815260200160038201548152602001600482015481526020016005820160009054906101000a900467ffffffffffffffff1667ffffffffffffffff1667ffffffffffffffff1681526020016005820160089054906101000a900467ffffffffffffffff1667ffffffffffffffff1667ffffffffffffffff1681526020016005820160109054906101000a900463ffffffff1663ffffffff1663ffffffff1681526020016005820160149054906101000a900463ffffffff1663ffffffff1663ffffffff1681526020016005820160189054906101000a900463ffffffff1663ffffffff1663ffffffff16815260200160058201601c9054906101000a900461ffff1661ffff1661ffff16815260200160058201601e9054906101000a900461ffff1661ffff1661ffff1681526020016006820160009054906101000a900461ffff1661ffff1661ffff16815250509050600d60009054906101000a900473ffffffffffffffffffffffffffffffffffffffff1673ffffffffffffffffffffffffffffffffffffffff166377a74a2082608001516040518263ffffffff167c0100000000000000000000000000000000000000000000000000000000028152600401808281526020019150506101c06040518083038186803b158015612fac57600080fd5b505afa158015612fc0573d6000803e3d6000fd5b505050506040513d601f19601f820116820180604052506101c0811015612fe657600080fd5b8101908091905050915050919050565b60025481565b600c54341015151561300d57600080fd5b6130173383613f8c565b151561302257600080fd5b61302c3382613f8c565b151561303757600080fd5b6130418282613ff8565b5050565b601060009054906101000a900473ffffffffffffffffffffffffffffffffffffffff1681565b6040805190810160405280600281526020017f504800000000000000000000000000000000000000000000000000000000000081525081565b6130ae3082613f8c565b15156130b957600080fd5b6130c1614b11565b60116000838152602001908152602001600020608060405190810160405290816000820160009054906101000a900473ffffffffffffffffffffffffffffffffffffffff1673ffffffffffffffffffffffffffffffffffffffff1673ffffffffffffffffffffffffffffffffffffffff16815260200160018201548152602001600282015481526020016003820160009054906101000a900460ff1660ff1660ff16815250509050806000015173ffffffffffffffffffffffffffffffffffffffff163373ffffffffffffffffffffffffffffffffffffffff161415156131a757600080fd5b6131b082614917565b6131bb3033846143b7565b5050565b606060006131cc83612d05565b905060008114156132105760006040519080825280602002602001820160405280156132075781602001602082028038833980820191505090505b50915050613308565b6060816040519080825280602002602001820160405280156132415781602001602082028038833980820191505090505b509050600061324e6121ce565b905060008090506000600190505b82811115156132ff578673ffffffffffffffffffffffffffffffffffffffff166007600083815260200190815260200160002060009054906101000a900473ffffffffffffffffffffffffffffffffffffffff1673ffffffffffffffffffffffffffffffffffffffff1614156132f2578084838151811015156132db57fe5b906020019060200201818152505081806001019250505b808060010191505061325c565b83955050505050505b919050565b60008060008061331b614b11565b60116000878152602001908152602001600020608060405190810160405290816000820160009054906101000a900473ffffffffffffffffffffffffffffffffffffffff1673ffffffffffffffffffffffffffffffffffffffff1673ffffffffffffffffffffffffffffffffffffffff16815260200160018201548152602001600282015481526020016003820160009054906101000a900460ff1660ff1660ff1681525050905080600001518160200151826040015183606001518393509450945094509450509193509193565b60086020528060005260406000206000915090505481565b600081600e8110151561341157fe5b60089182820401919006600402915054906101000a900463ffffffff1681565b60068181548110151561344057fe5b90600052602060002090600702016000915090508060000154908060010154908060020154908060030154908060040154908060050160009054906101000a900467ffffffffffffffff16908060050160089054906101000a900467ffffffffffffffff16908060050160109054906101000a900463ffffffff16908060050160149054906101000a900463ffffffff16908060050160189054906101000a900463ffffffff169080600501601c9054906101000a900461ffff169080600501601e9054906101000a900461ffff16908060060160009054906101000a900461ffff1690508d565b600073ffffffffffffffffffffffffffffffffffffffff168273ffffffffffffffffffffffffffffffffffffffff161415151561356457600080fd5b3073ffffffffffffffffffffffffffffffffffffffff168273ffffffffffffffffffffffffffffffffffffffff161415151561359f57600080fd5b6135a93382613f8c565b15156135b457600080fd5b6135bf3383836143b7565b5050565b60076020528060005260406000206000915054906101000a900473ffffffffffffffffffffffffffffffffffffffff1681565b600c5481565b60006001905090565b6000600460009054906101000a900473ffffffffffffffffffffffffffffffffffffffff16905090565b60606040805190810160405280600a81526020017f4272656564205465737400000000000000000000000000000000000000000000815250905090565b600360009054906101000a900473ffffffffffffffffffffffffffffffffffffffff1681565b6000601280549050905090565b600360009054906101000a900473ffffffffffffffffffffffffffffffffffffffff1673ffffffffffffffffffffffffffffffffffffffff163373ffffffffffffffffffffffffffffffffffffffff161415156136fb57600080fd5b80600560006101000a81548173ffffffffffffffffffffffffffffffffffffffff021916908373ffffffffffffffffffffffffffffffffffffffff16021790555050565b6000808211151561374f57600080fd5b600060068381548110151561376057fe5b906000526020600020906007020190506138ee816101a0604051908101604052908160008201548152602001600182015481526020016002820154815260200160038201548152602001600482015481526020016005820160009054906101000a900467ffffffffffffffff1667ffffffffffffffff1667ffffffffffffffff1681526020016005820160089054906101000a900467ffffffffffffffff1667ffffffffffffffff1667ffffffffffffffff1681526020016005820160109054906101000a900463ffffffff1663ffffffff1663ffffffff1681526020016005820160149054906101000a900463ffffffff1663ffffffff1663ffffffff1681526020016005820160189054906101000a900463ffffffff1663ffffffff1663ffffffff16815260200160058201601c9054906101000a900461ffff1661ffff1661ffff16815260200160058201601e9054906101000a900461ffff1661ffff1661ffff1681526020016006820160009054906101000a900461ffff1661ffff1661ffff168152505061497b565b915050919050565b60096020528060005260406000206000915054906101000a900473ffffffffffffffffffffffffffffffffffffffff1681565b600360009054906101000a900473ffffffffffffffffffffffffffffffffffffffff1673ffffffffffffffffffffffffffffffffffffffff163373ffffffffffffffffffffffffffffffffffffffff1614151561398557600080fd5b80600b60006101000a81548173ffffffffffffffffffffffffffffffffffffffff021916908373ffffffffffffffffffffffffffffffffffffffff16021790555050565b60008663ffffffff16871415156139df57600080fd5b8563ffffffff16861415156139f357600080fd5b8461ffff1685141515613a0557600080fd5b6000600286811515613a1357fe5b049050600d8161ffff161115613a2857600d90505b613a30614a76565b6101a0604051908101604052808e81526020018d81526020018c81526020018b81526020018781526020014267ffffffffffffffff168152602001600067ffffffffffffffff1681526020018a63ffffffff1681526020018963ffffffff168152602001600063ffffffff1681526020018361ffff1681526020018861ffff1681526020018661ffff1681525090506000600160068390806001815401808255809150509060018203906000526020600020906007020160009091929091909150600082015181600001556020820151816001015560408201518160020155606082015181600301556080820151816004015560a08201518160050160006101000a81548167ffffffffffffffff021916908367ffffffffffffffff16021790555060c08201518160050160086101000a81548167ffffffffffffffff021916908367ffffffffffffffff16021790555060e08201518160050160106101000a81548163ffffffff021916908363ffffffff1602179055506101008201518160050160146101000a81548163ffffffff021916908363ffffffff1602179055506101208201518160050160186101000a81548163ffffffff021916908363ffffffff16021790555061014082015181600501601c6101000a81548161ffff021916908361ffff16021790555061016082015181600501601e6101000a81548161ffff021916908361ffff1602179055506101808201518160060160006101000a81548161ffff021916908361ffff16021790555050500390508063ffffffff1681141515613c7d57600080fd5b7f6bdb6252e3aabe7c79b1e94c2d24f9cbed550af06f37098cc8e28e34c6140c6685828460e0015163ffffffff1685610100015163ffffffff168660800151876101800151604051808773ffffffffffffffffffffffffffffffffffffffff1673ffffffffffffffffffffffffffffffffffffffff1681526020018681526020018581526020018481526020018381526020018261ffff1661ffff168152602001965050505050505060405180910390a1613d3a600086836143b7565b8093505050509a9950505050505050505050565b600b60009054906101000a900473ffffffffffffffffffffffffffffffffffffffff1681565b613d7e3083613f8c565b1515613d8957600080fd5b613d91614b11565b60116000848152602001908152602001600020608060405190810160405290816000820160009054906101000a900473ffffffffffffffffffffffffffffffffffffffff1673ffffffffffffffffffffffffffffffffffffffff1673ffffffffffffffffffffffffffffffffffffffff16815260200160018201548152602001600282015481526020016003820160009054906101000a900460ff1660ff1660ff16815250509050613e433384613f8c565b151515613e4f57600080fd5b348160200151141515613e6157600080fd5b600160ff16816060015160ff16141515613e7a57600080fd5b613e8383614917565b613e92308260000151856143b7565b613e9c8383613ff8565b806000015173ffffffffffffffffffffffffffffffffffffffff166108fc349081150290604051600060405180830381858888f19350505050158015613ee6573d6000803e3d6000fd5b50505050565b600360009054906101000a900473ffffffffffffffffffffffffffffffffffffffff1673ffffffffffffffffffffffffffffffffffffffff163373ffffffffffffffffffffffffffffffffffffffff16141515613f4857600080fd5b80600460006101000a81548173ffffffffffffffffffffffffffffffffffffffff021916908373ffffffffffffffffffffffffffffffffffffffff16021790555050565b60008273ffffffffffffffffffffffffffffffffffffffff166007600084815260200190815260200160002060009054906101000a900473ffffffffffffffffffffffffffffffffffffffff1673ffffffffffffffffffffffffffffffffffffffff1614905092915050565b600060068281548110151561400957fe5b90600052602060002090600702019050600060068481548110151561402a57fe5b90600052602060002090600702019050828160050160186101000a81548163ffffffff021916908363ffffffff160217905550614066826149a0565b61406f816149a0565b600a600085815260200190815260200160002060006101000a81549073ffffffffffffffffffffffffffffffffffffffff0219169055600a600084815260200190815260200160002060006101000a81549073ffffffffffffffffffffffffffffffffffffffff0219169055600f60009054906101000a900473ffffffffffffffffffffffffffffffffffffffff1673ffffffffffffffffffffffffffffffffffffffff16639f5010e06007600087815260200190815260200160002060009054906101000a900473ffffffffffffffffffffffffffffffffffffffff16428560010154866002015487600301548a8a6040518863ffffffff167c0100000000000000000000000000000000000000000000000000000000028152600401808873ffffffffffffffffffffffffffffffffffffffff1673ffffffffffffffffffffffffffffffffffffffff168152602001878152602001868152602001858152602001848152602001838152602001828152602001975050505050505050600060405180830381600087803b15801561420757600080fd5b505af115801561421b573d6000803e3d6000fd5b505050507f241ea03ca20251805084d27d4440371c34a0b85ff108f6bb5611248f73818b806007600086815260200190815260200160002060009054906101000a900473ffffffffffffffffffffffffffffffffffffffff1685858460050160089054906101000a900467ffffffffffffffff16604051808573ffffffffffffffffffffffffffffffffffffffff1673ffffffffffffffffffffffffffffffffffffffff1681526020018481526020018381526020018267ffffffffffffffff16815260200194505050505060405180910390a150505050565b806009600084815260200190815260200160002060006101000a81548173ffffffffffffffffffffffffffffffffffffffff021916908373ffffffffffffffffffffffffffffffffffffffff1602179055505050565b60008273ffffffffffffffffffffffffffffffffffffffff166009600084815260200190815260200160002060009054906101000a900473ffffffffffffffffffffffffffffffffffffffff1673ffffffffffffffffffffffffffffffffffffffff1614905092915050565b600860008373ffffffffffffffffffffffffffffffffffffffff1673ffffffffffffffffffffffffffffffffffffffff16815260200190815260200160002060008154809291906001019190505550816007600083815260200190815260200160002060006101000a81548173ffffffffffffffffffffffffffffffffffffffff021916908373ffffffffffffffffffffffffffffffffffffffff160217905550600073ffffffffffffffffffffffffffffffffffffffff168373ffffffffffffffffffffffffffffffffffffffff1614151561454b57600860008473ffffffffffffffffffffffffffffffffffffffff1673ffffffffffffffffffffffffffffffffffffffff1681526020019081526020016000206000815480929190600190039190505550600a600082815260200190815260200160002060006101000a81549073ffffffffffffffffffffffffffffffffffffffff02191690556009600082815260200190815260200160002060006101000a81549073ffffffffffffffffffffffffffffffffffffffff02191690555b7fddf252ad1be2c89b69c2b068fc378daa952ba7f163c4a11628f55a4df523b3ef838383604051808473ffffffffffffffffffffffffffffffffffffffff1673ffffffffffffffffffffffffffffffffffffffff1681526020018373ffffffffffffffffffffffffffffffffffffffff1673ffffffffffffffffffffffffffffffffffffffff168152602001828152602001935050505060405180910390a1505050565b60008184141561460257600090506147fc565b818560050160109054906101000a900463ffffffff1663ffffffff1614806146435750818560050160149054906101000a900463ffffffff1663ffffffff16145b1561465157600090506147fc565b838360050160109054906101000a900463ffffffff1663ffffffff1614806146925750838360050160149054906101000a900463ffffffff1663ffffffff16145b156146a057600090506147fc565b60008360050160109054906101000a900463ffffffff1663ffffffff1614806146e3575060008560050160109054906101000a900463ffffffff1663ffffffff16145b156146f157600190506147fc565b8460050160109054906101000a900463ffffffff1663ffffffff168360050160109054906101000a900463ffffffff1663ffffffff16148061476657508460050160149054906101000a900463ffffffff1663ffffffff168360050160109054906101000a900463ffffffff1663ffffffff16145b1561477457600090506147fc565b8460050160109054906101000a900463ffffffff1663ffffffff168360050160149054906101000a900463ffffffff1663ffffffff1614806147e957508460050160149054906101000a900463ffffffff1663ffffffff168360050160149054906101000a900463ffffffff1663ffffffff16145b156147f757600090506147fc565b600190505b949350505050565b6000806007600084815260200190815260200160002060009054906101000a900473ffffffffffffffffffffffffffffffffffffffff16905060006007600086815260200190815260200160002060009054906101000a900473ffffffffffffffffffffffffffffffffffffffff1690508073ffffffffffffffffffffffffffffffffffffffff168273ffffffffffffffffffffffffffffffffffffffff16148061490d57508173ffffffffffffffffffffffffffffffffffffffff16600a600087815260200190815260200160002060009054906101000a900473ffffffffffffffffffffffffffffffffffffffff1673ffffffffffffffffffffffffffffffffffffffff16145b9250505092915050565b60116000828152602001908152602001600020600080820160006101000a81549073ffffffffffffffffffffffffffffffffffffffff0219169055600182016000905560028201600090556003820160006101000a81549060ff0219169055505050565b60004367ffffffffffffffff168260c0015167ffffffffffffffff1611159050919050565b43600254600083600501601c9054906101000a900461ffff1661ffff16600e811015156149c957fe5b600891828204019190066004029054906101000a900463ffffffff1663ffffffff168115156149f457fe5b04018160050160086101000a81548167ffffffffffffffff021916908367ffffffffffffffff160217905550600d81600501601c9054906101000a900461ffff1661ffff161015614a7357600181600501601c8282829054906101000a900461ffff160192506101000a81548161ffff021916908361ffff1602179055505b50565b6101a0604051908101604052806000815260200160008152602001600081526020016000815260200160008152602001600067ffffffffffffffff168152602001600067ffffffffffffffff168152602001600063ffffffff168152602001600063ffffffff168152602001600063ffffffff168152602001600061ffff168152602001600061ffff168152602001600061ffff1681525090565b608060405190810160405280600073ffffffffffffffffffffffffffffffffffffffff1681526020016000815260200160008152602001600060ff1681525090565b6101c060405190810160405280600e9060208202803883398082019150509050509056fe7472616e7366657246726f6d28616464726573732c616464726573732c75696e7432353629a165627a7a7230582049ca525d700a17b961837901aad7b841ef8d029fcd853e07efab6c69ddc24c740029",
  "source": "pragma solidity ^0.5.0;\n\nimport \"./PZHeroFactory.sol\";\n\ncontract PZHeroCore is PZHeroFactory\n{\n    /**\n    * Constructor\n    * @param _addrItemCore                  Address of Item Contract\n    * @param _addrEggCore                   Address of Egg Contract\n    * @param _addrGeneScience               Address of GeneScience contract\n    *\n     */\n    constructor(address _addrItemCore, address _addrEggCore, address _addrGeneScience) public\n    {\n        require(_addrItemCore != address(0x0));\n        addrItemCore = _addrItemCore;\n\n        addrGeneScience = _addrGeneScience;\n        PZGeneScienceInterface candidateContract = PZGeneScienceInterface(_addrGeneScience);\n\n        require(candidateContract.isGeneScience());\n\n        // Set the new contract address\n        contractGeneScience = candidateContract;\n\n        addrEggCore = _addrEggCore;\n        PZEggCore candidateEggContract = PZEggCore(_addrEggCore);\n\n        require(candidateEggContract.isEggContract());\n\n        // Set the new contract address\n        contractEggCore = candidateEggContract;\n    }\n\n    /**\n    * Gift Hero to other users\n    *\n    * @param _to                            address of receiver\n    * @param _heroId                        Hero Id to gift\n    *\n    */    \n    function giftHero(address _to, uint256 _heroId) external\n    {\n        require(_owns(msg.sender, _heroId));\n        require(_to != address(0x0));\n        _transfer(msg.sender, _to, _heroId);\n    }\n\n    /**\n    * Get Information of an Hero\n    * @param _heroId                        Hero ID\n    *\n    * @return genes                         Genes\n    * @return birthTime                     BirthTime\n    * @return cooldownEndBlock              Cooldown Time\n    * @return matronId                      MatronID\n    * @return sireId                        Sire ID\n    * @return siringWithId                  Sire ID breeded with\n    * @return cooldownIndex                 Cooldown Index\n    * @return generation                    Generation\n    * @return level                         Level\n    *\n     */\n    function getHero(uint _heroId)\n        public\n        view\n        returns(\n            uint date,\n            uint price,\n            uint tokenId,\n            uint tokenPrice,\n            uint256 genes,\n            uint64 birthTime,\n            uint64 cooldownEndBlock,\n            uint32 matronId,\n            uint32 sireId,\n            uint32 siringWithId,\n            uint16 cooldownIndex,\n            uint16 generation,\n            uint16 level)\n    {\n        Hero memory _hero = heroes[_heroId];\n        return (_hero.date, _hero.price, _hero.tokenId, _hero.tokenPrice, _hero.genes,\n            _hero.birthTime,\n            _hero.cooldownEndBlock,\n            _hero.matronId, _hero.sireId,\n            _hero.siringWithId, _hero.cooldownIndex, _hero.generation, _hero.level);\n    }\n\n    /**\n    * Get Traits of Hero\n    * @param _heroId                      Hero Id\n    *\n    * @return traits\n    *\n     */\n    function getHeroTraits(uint _heroId) public view returns(uint8[] memory) {\n        Hero memory _hero = heroes[_heroId];\n        return contractGeneScience.decode(_hero.genes);\n    }\n\n    /**\n    * Get Appearance of Hero\n    * @param _heroId                      Hero Id\n    *\n    *\n     */\n    function getHeroAppearance(uint _heroId) public view returns(uint8[14] memory){\n        Hero memory _hero = heroes[_heroId];\n        return contractGeneScience.expressingTraits(_hero.genes);\n    }\n\n    function heroTest() external view returns (address){\n        return addrChest;\n    }\n\n    function isHeroContract() public pure returns (bool) {\n        return true;\n    }\n}\n",
  "sourcePath": "/home/ubuntu/dev/Boby/pizzaHero/contracts/PZHeroCore.sol",
  "compiler": {
    "name": "solc",
    "version": "0.5.4+commit.d15a3125.mod.Emscripten.clang"
  },
  "schemaVersion": "2.0.1",
  "updatedAt": "2021-03-24T05:15:11.581Z"
}