{
  "contractName": "PZHeroBreeding",
  "abi": [
    {
      "constant": true,
      "inputs": [
        {
          "name": "_interfaceID",
          "type": "bytes4"
        }
      ],
      "name": "supportsInterface",
      "outputs": [
        {
          "name": "",
          "type": "bool"
        }
      ],
      "payable": false,
      "stateMutability": "view",
      "type": "function"
    },
    {
      "constant": true,
      "inputs": [],
      "name": "name",
      "outputs": [
        {
          "name": "",
          "type": "string"
        }
      ],
      "payable": false,
      "stateMutability": "view",
      "type": "function"
    },
    {
      "constant": false,
      "inputs": [
        {
          "name": "_to",
          "type": "address"
        },
        {
          "name": "_heroId",
          "type": "uint256"
        }
      ],
      "name": "approve",
      "outputs": [],
      "payable": false,
      "stateMutability": "nonpayable",
      "type": "function"
    },
    {
      "constant": true,
      "inputs": [],
      "name": "totalSupply",
      "outputs": [
        {
          "name": "",
          "type": "uint256"
        }
      ],
      "payable": false,
      "stateMutability": "view",
      "type": "function"
    },
    {
      "constant": false,
      "inputs": [
        {
          "name": "_from",
          "type": "address"
        },
        {
          "name": "_to",
          "type": "address"
        },
        {
          "name": "_heroId",
          "type": "uint256"
        }
      ],
      "name": "transferFrom",
      "outputs": [],
      "payable": false,
      "stateMutability": "nonpayable",
      "type": "function"
    },
    {
      "constant": true,
      "inputs": [],
      "name": "addrItemCore",
      "outputs": [
        {
          "name": "",
          "type": "address"
        }
      ],
      "payable": false,
      "stateMutability": "view",
      "type": "function"
    },
    {
      "constant": true,
      "inputs": [],
      "name": "contractGeneScience",
      "outputs": [
        {
          "name": "",
          "type": "address"
        }
      ],
      "payable": false,
      "stateMutability": "view",
      "type": "function"
    },
    {
      "constant": false,
      "inputs": [
        {
          "name": "_matronId",
          "type": "uint256"
        },
        {
          "name": "_sireId",
          "type": "uint256"
        },
        {
          "name": "_generation",
          "type": "uint256"
        },
        {
          "name": "_genes",
          "type": "uint256"
        },
        {
          "name": "_level",
          "type": "uint16"
        },
        {
          "name": "_owner",
          "type": "address"
        }
      ],
      "name": "createHero",
      "outputs": [
        {
          "name": "",
          "type": "uint256"
        }
      ],
      "payable": false,
      "stateMutability": "nonpayable",
      "type": "function"
    },
    {
      "constant": true,
      "inputs": [],
      "name": "contractEggCore",
      "outputs": [
        {
          "name": "",
          "type": "address"
        }
      ],
      "payable": false,
      "stateMutability": "view",
      "type": "function"
    },
    {
      "constant": true,
      "inputs": [
        {
          "name": "",
          "type": "uint256"
        }
      ],
      "name": "sireAllowedToAddress",
      "outputs": [
        {
          "name": "",
          "type": "address"
        }
      ],
      "payable": false,
      "stateMutability": "view",
      "type": "function"
    },
    {
      "constant": true,
      "inputs": [],
      "name": "addrGeneScience",
      "outputs": [
        {
          "name": "",
          "type": "address"
        }
      ],
      "payable": false,
      "stateMutability": "view",
      "type": "function"
    },
    {
      "constant": true,
      "inputs": [
        {
          "name": "_heroId",
          "type": "uint256"
        }
      ],
      "name": "ownerOf",
      "outputs": [
        {
          "name": "owner",
          "type": "address"
        }
      ],
      "payable": false,
      "stateMutability": "view",
      "type": "function"
    },
    {
      "constant": true,
      "inputs": [
        {
          "name": "_owner",
          "type": "address"
        }
      ],
      "name": "balanceOf",
      "outputs": [
        {
          "name": "count",
          "type": "uint256"
        }
      ],
      "payable": false,
      "stateMutability": "view",
      "type": "function"
    },
    {
      "constant": true,
      "inputs": [],
      "name": "addrChest",
      "outputs": [
        {
          "name": "",
          "type": "address"
        }
      ],
      "payable": false,
      "stateMutability": "view",
      "type": "function"
    },
    {
      "constant": true,
      "inputs": [],
      "name": "secondsPerBlock",
      "outputs": [
        {
          "name": "",
          "type": "uint256"
        }
      ],
      "payable": false,
      "stateMutability": "view",
      "type": "function"
    },
    {
      "constant": true,
      "inputs": [],
      "name": "addrEggCore",
      "outputs": [
        {
          "name": "",
          "type": "address"
        }
      ],
      "payable": false,
      "stateMutability": "view",
      "type": "function"
    },
    {
      "constant": true,
      "inputs": [],
      "name": "symbol",
      "outputs": [
        {
          "name": "",
          "type": "string"
        }
      ],
      "payable": false,
      "stateMutability": "view",
      "type": "function"
    },
    {
      "constant": true,
      "inputs": [
        {
          "name": "_owner",
          "type": "address"
        }
      ],
      "name": "heroesOfOwner",
      "outputs": [
        {
          "name": "ownerHeroes",
          "type": "uint256[]"
        }
      ],
      "payable": false,
      "stateMutability": "view",
      "type": "function"
    },
    {
      "constant": true,
      "inputs": [
        {
          "name": "",
          "type": "address"
        }
      ],
      "name": "ownershipHeroCount",
      "outputs": [
        {
          "name": "",
          "type": "uint256"
        }
      ],
      "payable": false,
      "stateMutability": "view",
      "type": "function"
    },
    {
      "constant": true,
      "inputs": [
        {
          "name": "",
          "type": "uint256"
        }
      ],
      "name": "cooldowns",
      "outputs": [
        {
          "name": "",
          "type": "uint32"
        }
      ],
      "payable": false,
      "stateMutability": "view",
      "type": "function"
    },
    {
      "constant": true,
      "inputs": [
        {
          "name": "",
          "type": "uint256"
        }
      ],
      "name": "heroes",
      "outputs": [
        {
          "name": "genes",
          "type": "uint256"
        },
        {
          "name": "birthTime",
          "type": "uint64"
        },
        {
          "name": "cooldownEndBlock",
          "type": "uint64"
        },
        {
          "name": "matronId",
          "type": "uint32"
        },
        {
          "name": "sireId",
          "type": "uint32"
        },
        {
          "name": "siringWithId",
          "type": "uint32"
        },
        {
          "name": "cooldownIndex",
          "type": "uint16"
        },
        {
          "name": "generation",
          "type": "uint16"
        },
        {
          "name": "level",
          "type": "uint16"
        }
      ],
      "payable": false,
      "stateMutability": "view",
      "type": "function"
    },
    {
      "constant": false,
      "inputs": [
        {
          "name": "_to",
          "type": "address"
        },
        {
          "name": "_heroId",
          "type": "uint256"
        }
      ],
      "name": "transfer",
      "outputs": [],
      "payable": false,
      "stateMutability": "nonpayable",
      "type": "function"
    },
    {
      "constant": true,
      "inputs": [
        {
          "name": "",
          "type": "uint256"
        }
      ],
      "name": "heroIndexToOwner",
      "outputs": [
        {
          "name": "",
          "type": "address"
        }
      ],
      "payable": false,
      "stateMutability": "view",
      "type": "function"
    },
    {
      "constant": true,
      "inputs": [],
      "name": "autoBirthFee",
      "outputs": [
        {
          "name": "",
          "type": "uint256"
        }
      ],
      "payable": false,
      "stateMutability": "view",
      "type": "function"
    },
    {
      "constant": true,
      "inputs": [],
      "name": "addrAdmin",
      "outputs": [
        {
          "name": "",
          "type": "address"
        }
      ],
      "payable": false,
      "stateMutability": "view",
      "type": "function"
    },
    {
      "constant": false,
      "inputs": [
        {
          "name": "_addrItem",
          "type": "address"
        }
      ],
      "name": "setItemCoreAddress",
      "outputs": [],
      "payable": false,
      "stateMutability": "nonpayable",
      "type": "function"
    },
    {
      "constant": true,
      "inputs": [
        {
          "name": "",
          "type": "uint256"
        }
      ],
      "name": "heroIndexToApproved",
      "outputs": [
        {
          "name": "",
          "type": "address"
        }
      ],
      "payable": false,
      "stateMutability": "view",
      "type": "function"
    },
    {
      "constant": false,
      "inputs": [
        {
          "name": "_contractAddress",
          "type": "address"
        }
      ],
      "name": "setMetadataAddress",
      "outputs": [],
      "payable": false,
      "stateMutability": "nonpayable",
      "type": "function"
    },
    {
      "constant": true,
      "inputs": [],
      "name": "trc721Metadata",
      "outputs": [
        {
          "name": "",
          "type": "address"
        }
      ],
      "payable": false,
      "stateMutability": "view",
      "type": "function"
    },
    {
      "constant": false,
      "inputs": [
        {
          "name": "_addrChest",
          "type": "address"
        }
      ],
      "name": "setChestAddress",
      "outputs": [],
      "payable": false,
      "stateMutability": "nonpayable",
      "type": "function"
    },
    {
      "anonymous": false,
      "inputs": [
        {
          "indexed": false,
          "name": "owner",
          "type": "address"
        },
        {
          "indexed": false,
          "name": "matronId",
          "type": "uint256"
        },
        {
          "indexed": false,
          "name": "sireId",
          "type": "uint256"
        },
        {
          "indexed": false,
          "name": "cooldownEndBlock",
          "type": "uint256"
        }
      ],
      "name": "Pregnant",
      "type": "event"
    },
    {
      "anonymous": false,
      "inputs": [
        {
          "indexed": false,
          "name": "from",
          "type": "address"
        },
        {
          "indexed": false,
          "name": "to",
          "type": "address"
        },
        {
          "indexed": false,
          "name": "tokenId",
          "type": "uint256"
        }
      ],
      "name": "Transfer",
      "type": "event"
    },
    {
      "anonymous": false,
      "inputs": [
        {
          "indexed": false,
          "name": "owner",
          "type": "address"
        },
        {
          "indexed": false,
          "name": "approved",
          "type": "address"
        },
        {
          "indexed": false,
          "name": "tokenId",
          "type": "uint256"
        }
      ],
      "name": "Approval",
      "type": "event"
    },
    {
      "anonymous": false,
      "inputs": [
        {
          "indexed": false,
          "name": "owner",
          "type": "address"
        },
        {
          "indexed": false,
          "name": "kittyId",
          "type": "uint256"
        },
        {
          "indexed": false,
          "name": "matronId",
          "type": "uint256"
        },
        {
          "indexed": false,
          "name": "sireId",
          "type": "uint256"
        },
        {
          "indexed": false,
          "name": "genes",
          "type": "uint256"
        },
        {
          "indexed": false,
          "name": "level",
          "type": "uint16"
        }
      ],
      "name": "Birth",
      "type": "event"
    },
    {
      "constant": false,
      "inputs": [
        {
          "name": "_addrGeneScience",
          "type": "address"
        }
      ],
      "name": "setGeneScienceAddr",
      "outputs": [],
      "payable": false,
      "stateMutability": "nonpayable",
      "type": "function"
    },
    {
      "constant": false,
      "inputs": [
        {
          "name": "_addr",
          "type": "address"
        },
        {
          "name": "_sireId",
          "type": "uint256"
        }
      ],
      "name": "approveSiring",
      "outputs": [],
      "payable": false,
      "stateMutability": "nonpayable",
      "type": "function"
    },
    {
      "constant": true,
      "inputs": [
        {
          "name": "_heroId",
          "type": "uint256"
        }
      ],
      "name": "isReadyToBreed",
      "outputs": [
        {
          "name": "",
          "type": "bool"
        }
      ],
      "payable": false,
      "stateMutability": "view",
      "type": "function"
    },
    {
      "constant": true,
      "inputs": [
        {
          "name": "_matronId",
          "type": "uint256"
        },
        {
          "name": "_sireId",
          "type": "uint256"
        }
      ],
      "name": "canBreedWith",
      "outputs": [
        {
          "name": "",
          "type": "bool"
        }
      ],
      "payable": false,
      "stateMutability": "view",
      "type": "function"
    },
    {
      "constant": false,
      "inputs": [
        {
          "name": "_matronId",
          "type": "uint256"
        },
        {
          "name": "_sireId",
          "type": "uint256"
        }
      ],
      "name": "breedWithOwns",
      "outputs": [],
      "payable": true,
      "stateMutability": "payable",
      "type": "function"
    },
    {
      "constant": false,
      "inputs": [
        {
          "name": "_matronId",
          "type": "uint256"
        },
        {
          "name": "_sireId",
          "type": "uint256"
        }
      ],
      "name": "breedWithOwned",
      "outputs": [],
      "payable": true,
      "stateMutability": "payable",
      "type": "function"
    },
    {
      "constant": true,
      "inputs": [],
      "name": "breedTest",
      "outputs": [
        {
          "name": "",
          "type": "string"
        }
      ],
      "payable": false,
      "stateMutability": "pure",
      "type": "function"
    }
  ],
  "bytecode": "0x60806040526101c060405190810160405280603c63ffffffff1663ffffffff168152602001607863ffffffff1663ffffffff16815260200161012c63ffffffff1663ffffffff16815260200161025863ffffffff1663ffffffff16815260200161070863ffffffff1663ffffffff168152602001610e1063ffffffff1663ffffffff168152602001611c2063ffffffff1663ffffffff16815260200161384063ffffffff1663ffffffff16815260200161708063ffffffff1663ffffffff16815260200161e10063ffffffff1663ffffffff1681526020016201518063ffffffff1663ffffffff1681526020016202a30063ffffffff1663ffffffff1681526020016205460063ffffffff1663ffffffff16815260200162093a8063ffffffff1663ffffffff16815250600090600e6200013b9291906200018f565b50600f60025562989680600c5533600360006101000a81548173ffffffffffffffffffffffffffffffffffffffff021916908373ffffffffffffffffffffffffffffffffffffffff1602179055506200026f565b82600e600701600890048101928215620002265791602002820160005b83821115620001f257835183826101000a81548163ffffffff021916908363ffffffff1602179055509260200192600401602081600301049283019260010302620001ac565b8015620002245782816101000a81549063ffffffff0219169055600401602081600301049283019260010302620001f2565b505b50905062000235919062000239565b5090565b6200026c91905b808211156200026857600081816101000a81549063ffffffff02191690555060010162000240565b5090565b90565b613241806200027f6000396000f3006080604052600436106101cd576000357c0100000000000000000000000000000000000000000000000000000000900463ffffffff1680630153b8ee146101d257806301ffc9a7146101fc57806306fdde031461027a578063095ea7b314610324578063119c4d631461038b57806318160ddd146103e857806323b872dd1461042d5780632f6db1ee146104b45780633ba864fe1461052557806343951343146105965780634558f4c81461063d57806346116e6f146106ae57806346d22c70146107355780634dfff04f1461079e57806357cea4fd146108055780636352211e1461087657806370a08231146108fd57806376c0b3671461096e5780637a7d4937146109df5780638a8fb54a14610a245780638ca22e1314610a4e57806395d89b4114610abf578063989555f814610b695780639ca7722d14610c1b5780639d6fac6f14610c8c578063a8d4a03b14610cf3578063a9059cbb14610dea578063aa54beac14610e51578063b0c35c0514610ed8578063be9873d214610f1d578063bfae2f0e14610fc7578063cb0e2c5a14611038578063d3e6f49f14611095578063de3e305f146110f4578063e17b25af1461117b578063f15f9388146111d8578063f794ac1f14611249575b600080fd5b6101fa60048036038101908080359060200190929190803590602001909291905050506112a6565b005b34801561020857600080fd5b50d3801561021557600080fd5b50d2801561022257600080fd5b5061026060048036038101908080357bffffffffffffffffffffffffffffffffffffffffffffffffffffffff191690602001909291905050506112de565b604051808215151515815260200191505060405180910390f35b34801561028657600080fd5b50d3801561029357600080fd5b50d280156102a057600080fd5b506102a96115ef565b6040518080602001828103825283818151815260200191508051906020019080838360005b838110156102e95780820151818401526020810190506102ce565b50505050905090810190601f1680156103165780820380516001836020036101000a031916815260200191505b509250505060405180910390f35b34801561033057600080fd5b50d3801561033d57600080fd5b50d2801561034a57600080fd5b50610389600480360381019080803573ffffffffffffffffffffffffffffffffffffffff16906020019092919080359060200190929190505050611628565b005b34801561039757600080fd5b50d380156103a457600080fd5b50d280156103b157600080fd5b506103e6600480360381019080803573ffffffffffffffffffffffffffffffffffffffff1690602001909291905050506116ea565b005b3480156103f457600080fd5b50d3801561040157600080fd5b50d2801561040e57600080fd5b5061041761187b565b6040518082815260200191505060405180910390f35b34801561043957600080fd5b50d3801561044657600080fd5b50d2801561045357600080fd5b506104b2600480360381019080803573ffffffffffffffffffffffffffffffffffffffff169060200190929190803573ffffffffffffffffffffffffffffffffffffffff1690602001909291908035906020019092919050505061188b565b005b3480156104c057600080fd5b50d380156104cd57600080fd5b50d280156104da57600080fd5b506104e361193c565b604051808273ffffffffffffffffffffffffffffffffffffffff1673ffffffffffffffffffffffffffffffffffffffff16815260200191505060405180910390f35b34801561053157600080fd5b50d3801561053e57600080fd5b50d2801561054b57600080fd5b50610554611962565b604051808273ffffffffffffffffffffffffffffffffffffffff1673ffffffffffffffffffffffffffffffffffffffff16815260200191505060405180910390f35b3480156105a257600080fd5b50d380156105af57600080fd5b50d280156105bc57600080fd5b5061062760048036038101908080359060200190929190803590602001909291908035906020019092919080359060200190929190803561ffff169060200190929190803573ffffffffffffffffffffffffffffffffffffffff169060200190929190505050611988565b6040518082815260200191505060405180910390f35b34801561064957600080fd5b50d3801561065657600080fd5b50d2801561066357600080fd5b5061066c611cc3565b604051808273ffffffffffffffffffffffffffffffffffffffff1673ffffffffffffffffffffffffffffffffffffffff16815260200191505060405180910390f35b3480156106ba57600080fd5b50d380156106c757600080fd5b50d280156106d457600080fd5b506106f360048036038101908080359060200190929190505050611ce9565b604051808273ffffffffffffffffffffffffffffffffffffffff1673ffffffffffffffffffffffffffffffffffffffff16815260200191505060405180910390f35b34801561074157600080fd5b50d3801561074e57600080fd5b50d2801561075b57600080fd5b506107846004803603810190808035906020019092919080359060200190929190505050611d1c565b604051808215151515815260200191505060405180910390f35b3480156107aa57600080fd5b50d380156107b757600080fd5b50d280156107c457600080fd5b50610803600480360381019080803573ffffffffffffffffffffffffffffffffffffffff16906020019092919080359060200190929190505050611da4565b005b34801561081157600080fd5b50d3801561081e57600080fd5b50d2801561082b57600080fd5b50610834611e0f565b604051808273ffffffffffffffffffffffffffffffffffffffff1673ffffffffffffffffffffffffffffffffffffffff16815260200191505060405180910390f35b34801561088257600080fd5b50d3801561088f57600080fd5b50d2801561089c57600080fd5b506108bb60048036038101908080359060200190929190505050611e35565b604051808273ffffffffffffffffffffffffffffffffffffffff1673ffffffffffffffffffffffffffffffffffffffff16815260200191505060405180910390f35b34801561090957600080fd5b50d3801561091657600080fd5b50d2801561092357600080fd5b50610958600480360381019080803573ffffffffffffffffffffffffffffffffffffffff169060200190929190505050611eae565b6040518082815260200191505060405180910390f35b34801561097a57600080fd5b50d3801561098757600080fd5b50d2801561099457600080fd5b5061099d611ef7565b604051808273ffffffffffffffffffffffffffffffffffffffff1673ffffffffffffffffffffffffffffffffffffffff16815260200191505060405180910390f35b3480156109eb57600080fd5b50d380156109f857600080fd5b50d28015610a0557600080fd5b50610a0e611f1d565b6040518082815260200191505060405180910390f35b610a4c6004803603810190808035906020019092919080359060200190929190505050611f23565b005b348015610a5a57600080fd5b50d38015610a6757600080fd5b50d28015610a7457600080fd5b50610a7d611f6c565b604051808273ffffffffffffffffffffffffffffffffffffffff1673ffffffffffffffffffffffffffffffffffffffff16815260200191505060405180910390f35b348015610acb57600080fd5b50d38015610ad857600080fd5b50d28015610ae557600080fd5b50610aee611f92565b6040518080602001828103825283818151815260200191508051906020019080838360005b83811015610b2e578082015181840152602081019050610b13565b50505050905090810190601f168015610b5b5780820380516001836020036101000a031916815260200191505b509250505060405180910390f35b348015610b7557600080fd5b50d38015610b8257600080fd5b50d28015610b8f57600080fd5b50610bc4600480360381019080803573ffffffffffffffffffffffffffffffffffffffff169060200190929190505050611fcb565b6040518080602001828103825283818151815260200191508051906020019060200280838360005b83811015610c07578082015181840152602081019050610bec565b505050509050019250505060405180910390f35b348015610c2757600080fd5b50d38015610c3457600080fd5b50d28015610c4157600080fd5b50610c76600480360381019080803573ffffffffffffffffffffffffffffffffffffffff169060200190929190505050612118565b6040518082815260200191505060405180910390f35b348015610c9857600080fd5b50d38015610ca557600080fd5b50d28015610cb257600080fd5b50610cd160048036038101908080359060200190929190505050612130565b604051808263ffffffff1663ffffffff16815260200191505060405180910390f35b348015610cff57600080fd5b50d38015610d0c57600080fd5b50d28015610d1957600080fd5b50610d386004803603810190808035906020019092919050505061215f565b604051808a81526020018967ffffffffffffffff1667ffffffffffffffff1681526020018867ffffffffffffffff1667ffffffffffffffff1681526020018763ffffffff1663ffffffff1681526020018663ffffffff1663ffffffff1681526020018563ffffffff1663ffffffff1681526020018461ffff1661ffff1681526020018361ffff1661ffff1681526020018261ffff1661ffff168152602001995050505050505050505060405180910390f35b348015610df657600080fd5b50d38015610e0357600080fd5b50d28015610e1057600080fd5b50610e4f600480360381019080803573ffffffffffffffffffffffffffffffffffffffff1690602001909291908035906020019092919050505061223e565b005b348015610e5d57600080fd5b50d38015610e6a57600080fd5b50d28015610e7757600080fd5b50610e96600480360381019080803590602001909291905050506122d9565b604051808273ffffffffffffffffffffffffffffffffffffffff1673ffffffffffffffffffffffffffffffffffffffff16815260200191505060405180910390f35b348015610ee457600080fd5b50d38015610ef157600080fd5b50d28015610efe57600080fd5b50610f0761230c565b6040518082815260200191505060405180910390f35b348015610f2957600080fd5b50d38015610f3657600080fd5b50d28015610f4357600080fd5b50610f4c612312565b6040518080602001828103825283818151815260200191508051906020019080838360005b83811015610f8c578082015181840152602081019050610f71565b50505050905090810190601f168015610fb95780820380516001836020036101000a031916815260200191505b509250505060405180910390f35b348015610fd357600080fd5b50d38015610fe057600080fd5b50d28015610fed57600080fd5b50610ff661234f565b604051808273ffffffffffffffffffffffffffffffffffffffff1673ffffffffffffffffffffffffffffffffffffffff16815260200191505060405180910390f35b34801561104457600080fd5b50d3801561105157600080fd5b50d2801561105e57600080fd5b50611093600480360381019080803573ffffffffffffffffffffffffffffffffffffffff169060200190929190505050612375565b005b3480156110a157600080fd5b50d380156110ae57600080fd5b50d280156110bb57600080fd5b506110da60048036038101908080359060200190929190505050612415565b604051808215151515815260200191505060405180910390f35b34801561110057600080fd5b50d3801561110d57600080fd5b50d2801561111a57600080fd5b50611139600480360381019080803590602001909291905050506125a4565b604051808273ffffffffffffffffffffffffffffffffffffffff1673ffffffffffffffffffffffffffffffffffffffff16815260200191505060405180910390f35b34801561118757600080fd5b50d3801561119457600080fd5b50d280156111a157600080fd5b506111d6600480360381019080803573ffffffffffffffffffffffffffffffffffffffff1690602001909291905050506125d7565b005b3480156111e457600080fd5b50d380156111f157600080fd5b50d280156111fe57600080fd5b50611207612677565b604051808273ffffffffffffffffffffffffffffffffffffffff1673ffffffffffffffffffffffffffffffffffffffff16815260200191505060405180910390f35b34801561125557600080fd5b50d3801561126257600080fd5b50d2801561126f57600080fd5b506112a4600480360381019080803573ffffffffffffffffffffffffffffffffffffffff16906020019092919050505061269d565b005b6112b0338361273d565b15156112bb57600080fd5b6112c5338261273d565b15156112d057600080fd5b6112da82826127a9565b5050565b600060405180807f737570706f727473496e74657266616365286279746573342900000000000000815250601901905060405180910390207bffffffffffffffffffffffffffffffffffffffffffffffffffffffff1916827bffffffffffffffffffffffffffffffffffffffffffffffffffffffff191614806115e8575060405180807f746f6b656e4d657461646174612875696e743235362c737472696e6729000000815250601d019050604051809103902060405180807f6865726f65734f664f776e6572286164647265737329000000000000000000008152506016019050604051809103902060405180807f7472616e7366657246726f6d28616464726573732c616464726573732c75696e81526020017f74323536290000000000000000000000000000000000000000000000000000008152506025019050604051809103902060405180807f7472616e7366657228616464726573732c75696e7432353629000000000000008152506019019050604051809103902060405180807f617070726f766528616464726573732c75696e743235362900000000000000008152506018019050604051809103902060405180807f6f776e65724f662875696e7432353629000000000000000000000000000000008152506010019050604051809103902060405180807f62616c616e63654f6628616464726573732900000000000000000000000000008152506012019050604051809103902060405180807f746f74616c537570706c79282900000000000000000000000000000000000000815250600d019050604051809103902060405180807f73796d626f6c28290000000000000000000000000000000000000000000000008152506008019050604051809103902060405180807f6e616d6528290000000000000000000000000000000000000000000000000000815250600601905060405180910390201818181818181818187bffffffffffffffffffffffffffffffffffffffffffffffffffffffff1916827bffffffffffffffffffffffffffffffffffffffffffffffffffffffff1916145b9050919050565b6040805190810160405280600881526020017f505a4865726f657300000000000000000000000000000000000000000000000081525081565b611632338261273d565b151561163d57600080fd5b6116478183612a79565b7f8c5be1e5ebec7d5bd14f71427d1e84f3dd0314c0f7b2291e5b200ac8c7c3b925338383604051808473ffffffffffffffffffffffffffffffffffffffff1673ffffffffffffffffffffffffffffffffffffffff1681526020018373ffffffffffffffffffffffffffffffffffffffff1673ffffffffffffffffffffffffffffffffffffffff168152602001828152602001935050505060405180910390a15050565b6000600360009054906101000a900473ffffffffffffffffffffffffffffffffffffffff1673ffffffffffffffffffffffffffffffffffffffff163373ffffffffffffffffffffffffffffffffffffffff1614151561174857600080fd5b81600e60006101000a81548173ffffffffffffffffffffffffffffffffffffffff021916908373ffffffffffffffffffffffffffffffffffffffff1602179055508190508073ffffffffffffffffffffffffffffffffffffffff166354c15b826040518163ffffffff167c0100000000000000000000000000000000000000000000000000000000028152600401602060405180830381600087803b1580156117f057600080fd5b505af1158015611804573d6000803e3d6000fd5b505050506040513d602081101561181a57600080fd5b8101908080519060200190929190505050151561183657600080fd5b80600d60006101000a81548173ffffffffffffffffffffffffffffffffffffffff021916908373ffffffffffffffffffffffffffffffffffffffff1602179055505050565b6000600160068054905003905090565b600073ffffffffffffffffffffffffffffffffffffffff168273ffffffffffffffffffffffffffffffffffffffff16141515156118c757600080fd5b3073ffffffffffffffffffffffffffffffffffffffff168273ffffffffffffffffffffffffffffffffffffffff161415151561190257600080fd5b61190c3382612acf565b151561191757600080fd5b611921838261273d565b151561192c57600080fd5b611937838383612b3b565b505050565b600560009054906101000a900473ffffffffffffffffffffffffffffffffffffffff1681565b600d60009054906101000a900473ffffffffffffffffffffffffffffffffffffffff1681565b600080611993613196565b60008963ffffffff168a1415156119a957600080fd5b8863ffffffff16891415156119bd57600080fd5b8761ffff16881415156119cf57600080fd5b6002888115156119db57fe5b049250600d8361ffff1611156119f057600d92505b610120604051908101604052808881526020014267ffffffffffffffff168152602001600067ffffffffffffffff1681526020018b63ffffffff1681526020018a63ffffffff168152602001600063ffffffff1681526020018461ffff1681526020018961ffff1681526020018761ffff1681525091506001600683908060018154018082558091505090600182039060005260206000209060030201600090919290919091506000820151816000015560208201518160010160006101000a81548167ffffffffffffffff021916908367ffffffffffffffff16021790555060408201518160010160086101000a81548167ffffffffffffffff021916908367ffffffffffffffff16021790555060608201518160010160106101000a81548163ffffffff021916908363ffffffff16021790555060808201518160010160146101000a81548163ffffffff021916908363ffffffff16021790555060a08201518160010160186101000a81548163ffffffff021916908363ffffffff16021790555060c082015181600101601c6101000a81548161ffff021916908361ffff16021790555060e082015181600101601e6101000a81548161ffff021916908361ffff1602179055506101008201518160020160006101000a81548161ffff021916908361ffff16021790555050500390508063ffffffff1681141515611bf757600080fd5b7f6bdb6252e3aabe7c79b1e94c2d24f9cbed550af06f37098cc8e28e34c6140c668582846060015163ffffffff16856080015163ffffffff168660000151876101000151604051808773ffffffffffffffffffffffffffffffffffffffff1673ffffffffffffffffffffffffffffffffffffffff1681526020018681526020018581526020018481526020018381526020018261ffff1661ffff168152602001965050505050505060405180910390a1611cb360008683612b3b565b8093505050509695505050505050565b600f60009054906101000a900473ffffffffffffffffffffffffffffffffffffffff1681565b600a6020528060005260406000206000915054906101000a900473ffffffffffffffffffffffffffffffffffffffff1681565b60008060008085111515611d2f57600080fd5b600084111515611d3e57600080fd5b600685815481101515611d4d57fe5b90600052602060002090600302019150600684815481101515611d6c57fe5b90600052602060002090600302019050611d8882868387612d73565b8015611d9a5750611d998486612f88565b5b9250505092915050565b611dae338261273d565b1515611db957600080fd5b81600a600083815260200190815260200160002060006101000a81548173ffffffffffffffffffffffffffffffffffffffff021916908373ffffffffffffffffffffffffffffffffffffffff1602179055505050565b600e60009054906101000a900473ffffffffffffffffffffffffffffffffffffffff1681565b60006007600083815260200190815260200160002060009054906101000a900473ffffffffffffffffffffffffffffffffffffffff169050600073ffffffffffffffffffffffffffffffffffffffff168173ffffffffffffffffffffffffffffffffffffffff1614151515611ea957600080fd5b919050565b6000600860008373ffffffffffffffffffffffffffffffffffffffff1673ffffffffffffffffffffffffffffffffffffffff168152602001908152602001600020549050919050565b600460009054906101000a900473ffffffffffffffffffffffffffffffffffffffff1681565b60025481565b600c543410151515611f3457600080fd5b611f3e338361273d565b1515611f4957600080fd5b611f53338261273d565b1515611f5e57600080fd5b611f6882826127a9565b5050565b601060009054906101000a900473ffffffffffffffffffffffffffffffffffffffff1681565b6040805190810160405280600281526020017f504800000000000000000000000000000000000000000000000000000000000081525081565b6060600060606000806000611fdf87611eae565b9450600085141561202257600060405190808252806020026020018201604052801561201a5781602001602082028038833980820191505090505b50955061210e565b846040519080825280602002602001820160405280156120515781602001602082028038833980820191505090505b50935061205c61187b565b925060009150600190505b828111151561210a578673ffffffffffffffffffffffffffffffffffffffff166007600083815260200190815260200160002060009054906101000a900473ffffffffffffffffffffffffffffffffffffffff1673ffffffffffffffffffffffffffffffffffffffff1614156120fd578084838151811015156120e657fe5b906020019060200201818152505081806001019250505b8080600101915050612067565b8395505b5050505050919050565b60086020528060005260406000206000915090505481565b600081600e8110151561213f57fe5b60089182820401919006600402915054906101000a900463ffffffff1681565b60068181548110151561216e57fe5b90600052602060002090600302016000915090508060000154908060010160009054906101000a900467ffffffffffffffff16908060010160089054906101000a900467ffffffffffffffff16908060010160109054906101000a900463ffffffff16908060010160149054906101000a900463ffffffff16908060010160189054906101000a900463ffffffff169080600101601c9054906101000a900461ffff169080600101601e9054906101000a900461ffff16908060020160009054906101000a900461ffff16905089565b600073ffffffffffffffffffffffffffffffffffffffff168273ffffffffffffffffffffffffffffffffffffffff161415151561227a57600080fd5b3073ffffffffffffffffffffffffffffffffffffffff168273ffffffffffffffffffffffffffffffffffffffff16141515156122b557600080fd5b6122bf338261273d565b15156122ca57600080fd5b6122d5338383612b3b565b5050565b60076020528060005260406000206000915054906101000a900473ffffffffffffffffffffffffffffffffffffffff1681565b600c5481565b60606040805190810160405280600a81526020017f4272656564205465737400000000000000000000000000000000000000000000815250905090565b600360009054906101000a900473ffffffffffffffffffffffffffffffffffffffff1681565b600360009054906101000a900473ffffffffffffffffffffffffffffffffffffffff1673ffffffffffffffffffffffffffffffffffffffff163373ffffffffffffffffffffffffffffffffffffffff161415156123d157600080fd5b80600560006101000a81548173ffffffffffffffffffffffffffffffffffffffff021916908373ffffffffffffffffffffffffffffffffffffffff16021790555050565b60008060008311151561242757600080fd5b60068381548110151561243657fe5b9060005260206000209060030201905061259c816101206040519081016040529081600082015481526020016001820160009054906101000a900467ffffffffffffffff1667ffffffffffffffff1667ffffffffffffffff1681526020016001820160089054906101000a900467ffffffffffffffff1667ffffffffffffffff1667ffffffffffffffff1681526020016001820160109054906101000a900463ffffffff1663ffffffff1663ffffffff1681526020016001820160149054906101000a900463ffffffff1663ffffffff1663ffffffff1681526020016001820160189054906101000a900463ffffffff1663ffffffff1663ffffffff16815260200160018201601c9054906101000a900461ffff1661ffff1661ffff16815260200160018201601e9054906101000a900461ffff1661ffff1661ffff1681526020016002820160009054906101000a900461ffff1661ffff1661ffff168152505061309b565b915050919050565b60096020528060005260406000206000915054906101000a900473ffffffffffffffffffffffffffffffffffffffff1681565b600360009054906101000a900473ffffffffffffffffffffffffffffffffffffffff1673ffffffffffffffffffffffffffffffffffffffff163373ffffffffffffffffffffffffffffffffffffffff1614151561263357600080fd5b80600b60006101000a81548173ffffffffffffffffffffffffffffffffffffffff021916908373ffffffffffffffffffffffffffffffffffffffff16021790555050565b600b60009054906101000a900473ffffffffffffffffffffffffffffffffffffffff1681565b600360009054906101000a900473ffffffffffffffffffffffffffffffffffffffff1673ffffffffffffffffffffffffffffffffffffffff163373ffffffffffffffffffffffffffffffffffffffff161415156126f957600080fd5b80600460006101000a81548173ffffffffffffffffffffffffffffffffffffffff021916908373ffffffffffffffffffffffffffffffffffffffff16021790555050565b60008273ffffffffffffffffffffffffffffffffffffffff166007600084815260200190815260200160002060009054906101000a900473ffffffffffffffffffffffffffffffffffffffff1673ffffffffffffffffffffffffffffffffffffffff1614905092915050565b6000806006838154811015156127bb57fe5b906000526020600020906003020191506006848154811015156127da57fe5b90600052602060002090600302019050828160010160186101000a81548163ffffffff021916908363ffffffff160217905550612816826130c0565b61281f816130c0565b600a600085815260200190815260200160002060006101000a81549073ffffffffffffffffffffffffffffffffffffffff0219169055600a600084815260200190815260200160002060006101000a81549073ffffffffffffffffffffffffffffffffffffffff0219169055600f60009054906101000a900473ffffffffffffffffffffffffffffffffffffffff1673ffffffffffffffffffffffffffffffffffffffff1663e11625696007600087815260200190815260200160002060009054906101000a900473ffffffffffffffffffffffffffffffffffffffff1686866040518463ffffffff167c0100000000000000000000000000000000000000000000000000000000028152600401808473ffffffffffffffffffffffffffffffffffffffff1673ffffffffffffffffffffffffffffffffffffffff1681526020018381526020018281526020019350505050600060405180830381600087803b15801561298b57600080fd5b505af115801561299f573d6000803e3d6000fd5b505050507f241ea03ca20251805084d27d4440371c34a0b85ff108f6bb5611248f73818b806007600086815260200190815260200160002060009054906101000a900473ffffffffffffffffffffffffffffffffffffffff1685858460010160089054906101000a900467ffffffffffffffff16604051808573ffffffffffffffffffffffffffffffffffffffff1673ffffffffffffffffffffffffffffffffffffffff1681526020018481526020018381526020018267ffffffffffffffff16815260200194505050505060405180910390a150505050565b806009600084815260200190815260200160002060006101000a81548173ffffffffffffffffffffffffffffffffffffffff021916908373ffffffffffffffffffffffffffffffffffffffff1602179055505050565b60008273ffffffffffffffffffffffffffffffffffffffff166009600084815260200190815260200160002060009054906101000a900473ffffffffffffffffffffffffffffffffffffffff1673ffffffffffffffffffffffffffffffffffffffff1614905092915050565b600860008373ffffffffffffffffffffffffffffffffffffffff1673ffffffffffffffffffffffffffffffffffffffff16815260200190815260200160002060008154809291906001019190505550816007600083815260200190815260200160002060006101000a81548173ffffffffffffffffffffffffffffffffffffffff021916908373ffffffffffffffffffffffffffffffffffffffff160217905550600073ffffffffffffffffffffffffffffffffffffffff168373ffffffffffffffffffffffffffffffffffffffff16141515612ccf57600860008473ffffffffffffffffffffffffffffffffffffffff1673ffffffffffffffffffffffffffffffffffffffff1681526020019081526020016000206000815480929190600190039190505550600a600082815260200190815260200160002060006101000a81549073ffffffffffffffffffffffffffffffffffffffff02191690556009600082815260200190815260200160002060006101000a81549073ffffffffffffffffffffffffffffffffffffffff02191690555b7fddf252ad1be2c89b69c2b068fc378daa952ba7f163c4a11628f55a4df523b3ef838383604051808473ffffffffffffffffffffffffffffffffffffffff1673ffffffffffffffffffffffffffffffffffffffff1681526020018373ffffffffffffffffffffffffffffffffffffffff1673ffffffffffffffffffffffffffffffffffffffff168152602001828152602001935050505060405180910390a1505050565b600081841415612d865760009050612f80565b818560010160109054906101000a900463ffffffff1663ffffffff161480612dc75750818560010160149054906101000a900463ffffffff1663ffffffff16145b15612dd55760009050612f80565b838360010160109054906101000a900463ffffffff1663ffffffff161480612e165750838360010160149054906101000a900463ffffffff1663ffffffff16145b15612e245760009050612f80565b60008360010160109054906101000a900463ffffffff1663ffffffff161480612e67575060008560010160109054906101000a900463ffffffff1663ffffffff16145b15612e755760019050612f80565b8460010160109054906101000a900463ffffffff1663ffffffff168360010160109054906101000a900463ffffffff1663ffffffff161480612eea57508460010160149054906101000a900463ffffffff1663ffffffff168360010160109054906101000a900463ffffffff1663ffffffff16145b15612ef85760009050612f80565b8460010160109054906101000a900463ffffffff1663ffffffff168360010160149054906101000a900463ffffffff1663ffffffff161480612f6d57508460010160149054906101000a900463ffffffff1663ffffffff168360010160149054906101000a900463ffffffff1663ffffffff16145b15612f7b5760009050612f80565b600190505b949350505050565b60008060006007600085815260200190815260200160002060009054906101000a900473ffffffffffffffffffffffffffffffffffffffff1691506007600086815260200190815260200160002060009054906101000a900473ffffffffffffffffffffffffffffffffffffffff1690508073ffffffffffffffffffffffffffffffffffffffff168273ffffffffffffffffffffffffffffffffffffffff16148061309157508173ffffffffffffffffffffffffffffffffffffffff16600a600087815260200190815260200160002060009054906101000a900473ffffffffffffffffffffffffffffffffffffffff1673ffffffffffffffffffffffffffffffffffffffff16145b9250505092915050565b60004367ffffffffffffffff16826040015167ffffffffffffffff1611159050919050565b43600254600083600101601c9054906101000a900461ffff1661ffff16600e811015156130e957fe5b600891828204019190066004029054906101000a900463ffffffff1663ffffffff1681151561311457fe5b04018160010160086101000a81548167ffffffffffffffff021916908367ffffffffffffffff160217905550600d81600101601c9054906101000a900461ffff1661ffff16101561319357600181600101601c8282829054906101000a900461ffff160192506101000a81548161ffff021916908361ffff1602179055505b50565b6101206040519081016040528060008152602001600067ffffffffffffffff168152602001600067ffffffffffffffff168152602001600063ffffffff168152602001600063ffffffff168152602001600063ffffffff168152602001600061ffff168152602001600061ffff168152602001600061ffff16815250905600a165627a7a72305820d4ebbbc631eb4ae0a4bd5fdfe17abad7fd4892042f47873a9642f06978f37bbc0029",
  "source": "pragma solidity ^0.4.25;\n\nimport \"./PZHeroOwnership.sol\";\nimport \"./PZGeneScienceInterface.sol\";\nimport \"./PZEggCore.sol\";\n\ncontract PZHeroBreeding is PZHeroOwnership\n{\n    event Pregnant(address owner, uint256 matronId, uint256 sireId, uint256 cooldownEndBlock);\n\n    uint256 public autoBirthFee = 10 trx ;\n\n    // uint256 public pregnantHeroes;\n\n    PZGeneScienceInterface public           contractGeneScience;\n    address public                          addrGeneScience;\n\n    PZEggCore public                        contractEggCore;\n    address public                          addrEggCore;\n\n    /**\n    * Set Address of GeneScience Contract\n    * @param _addrGeneScience                      Address of Gene Science Contract\n    *\n     */\n    function setGeneScienceAddr(address _addrGeneScience) public onlyAdmin\n    {\n        addrGeneScience = _addrGeneScience;\n        PZGeneScienceInterface candidateContract = PZGeneScienceInterface(_addrGeneScience);\n\n        require(candidateContract.isGeneScience());\n\n        // Set the new contract address\n        contractGeneScience = candidateContract;\n    }\n\n    /**\n    * Check if the Hero is Ready to Breed\n    * @param _hero                              Hero NFT\n    *\n    * @return result                            Return bool typed result\n    *\n     */\n    function _isReadyToBreed(Hero _hero) internal view returns (bool) {\n        // return (_hero.siringWithId == 0) && (_hero.cooldownEndBlock <= uint64(block.number));\n\n        return (_hero.cooldownEndBlock <= uint64(block.number));\n    }\n\n    /**\n    * Check if sire and matron are permitted to breed\n    * @param _sireId                              Id of Sire Hero\n    * @param _matronId                            Id of Matron Hero\n    *\n    * @return result                            Return bool typed result\n    *\n     */\n    function _isSiringPermitted(uint256 _sireId, uint256 _matronId) internal view returns (bool) {\n        address matronOwner = heroIndexToOwner[_matronId];\n        address sireOwner = heroIndexToOwner[_sireId];\n\n        return (matronOwner == sireOwner || sireAllowedToAddress[_sireId] == matronOwner);\n    }\n\n    /**\n    * Trigger the cooldown of Hero\n    * @param _hero                                   Hero NFT\n    *\n     */\n    function _triggerCooldown(Hero storage _hero) internal {\n        _hero.cooldownEndBlock = uint64((cooldowns[_hero.cooldownIndex]/secondsPerBlock) + block.number);\n\n        if (_hero.cooldownIndex < 13) {\n            _hero.cooldownIndex += 1;\n        }\n    }\n\n    function approveSiring(address _addr, uint256 _sireId)\n        external\n    {\n        require(_owns(msg.sender, _sireId));\n        sireAllowedToAddress[_sireId] = _addr;\n    }\n\n    /**\n    * Check if the Hero is Ready to Breed\n    * @param _heroId                                   HeroId\n    *\n    * @return result                                    Return Result\n    *\n     */\n    function isReadyToBreed(uint256 _heroId)\n        public\n        view\n        returns (bool)\n    {\n        require(_heroId > 0);\n        Hero storage hero = heroes[_heroId];\n        return _isReadyToBreed(hero);\n    }\n\n    function _isValidMatingPair(\n        Hero storage _matron,\n        uint256 _matronId,\n        Hero storage _sire,\n        uint256 _sireId\n    )\n        private\n        view\n        returns(bool)\n    {\n        if (_matronId == _sireId) {\n            return false;\n        }\n\n        if (_matron.matronId == _sireId || _matron.sireId == _sireId) {\n            return false;\n        }\n        if (_sire.matronId == _matronId || _sire.sireId == _matronId) {\n            return false;\n        }\n\n        if (_sire.matronId == 0 || _matron.matronId == 0) {\n            return true;\n        }\n\n        if (_sire.matronId == _matron.matronId || _sire.matronId == _matron.sireId) {\n            return false;\n        }\n        if (_sire.sireId == _matron.matronId || _sire.sireId == _matron.sireId) {\n            return false;\n        }\n\n        return true;\n    }\n\n    function _canBreedWithViaAuction(uint256 _matronId, uint256 _sireId)\n        internal\n        view\n        returns (bool)\n    {\n        Hero storage matron = heroes[_matronId];\n        Hero storage sire = heroes[_sireId];\n        return _isValidMatingPair(matron, _matronId, sire, _sireId);\n    }\n\n    function canBreedWith(uint256 _matronId, uint256 _sireId)\n        external\n        view\n        returns(bool)\n    {\n        require(_matronId > 0);\n        require(_sireId > 0);\n        Hero storage matron = heroes[_matronId];\n        Hero storage sire = heroes[_sireId];\n        return _isValidMatingPair(matron, _matronId, sire, _sireId) &&\n            _isSiringPermitted(_sireId, _matronId);\n    }\n\n    /**\n    * Breed Matron and Sire\n    * @param _matronId                                   ID of Matron Hero\n    * @param _sireId                                     ID of Sire Hero\n    *\n     */\n    function _breedWith(uint256 _matronId, uint256 _sireId) internal {\n        Hero storage sire = heroes[_sireId];\n        Hero storage matron = heroes[_matronId];\n\n        matron.siringWithId = uint32(_sireId);\n\n        _triggerCooldown(sire);\n        _triggerCooldown(matron);\n\n        delete sireAllowedToAddress[_matronId];\n        delete sireAllowedToAddress[_sireId];\n\n        // pregnantHeroes++;\n\n        contractEggCore.createEggToOwner(heroIndexToOwner[_matronId], _matronId, _sireId);\n\n        emit Pregnant(heroIndexToOwner[_matronId], _matronId, _sireId, matron.cooldownEndBlock);\n    }\n\n    /**\n    * Breed Matron and Sire owend by One User\n    * @param _matronId                                   ID of Matron Hero\n    * @param _sireId                                     ID of Sire Hero\n    *\n     */\n    \n    function breedWithOwns(uint256 _matronId, uint256 _sireId)\n        external\n        payable\n    {\n        require(_owns(msg.sender, _matronId));\n        require(_owns(msg.sender, _sireId));\n        _breedWith(_matronId, _sireId);\n    }\n\n    /**\n    * Breed Matron and Sire Owned By One User\n    * @param _matronId                                   ID of Matron Hero\n    * @param _sireId                                     ID of Sire Hero\n    *\n     */\n    function breedWithOwned(uint256 _matronId, uint256 _sireId)\n        external\n        payable\n        // whenNotPaused\n    {\n        require(msg.value >= autoBirthFee);\n\n        require(_owns(msg.sender, _matronId));\n        require(_owns(msg.sender, _sireId));\n\n        // require(_isSiringPermitted(_sireId, _matronId));\n        // Hero storage matron = heroes[_matronId];\n\n        // require(_isReadyToBreed(matron));\n\n        // Hero storage sire = heroes[_sireId];\n\n        // require(_isReadyToBreed(sire));\n\n        // require(_isValidMatingPair(\n        //     matron,\n        //     _matronId,\n        //     sire,\n        //     _sireId\n        // ));\n\n        _breedWith(_matronId, _sireId);\n    }\n\n    function breedTest() public pure returns(string)\n    {\n        return \"Breed Test\";\n    }\n}",
  "sourcePath": "/Volumes/Backup/workspace/Dave(Tron_NFT)/pizzaHero/contracts/PZHeroBreeding.sol",
  "compiler": {
    "name": "solc",
    "version": "0.4.25+commit.69a1e720.Emscripten.clang"
  },
  "schemaVersion": "2.0.1",
  "updatedAt": "2020-01-09T11:58:49.613Z"
}