{
  "contractName": "PZHeroOwnership",
  "abi": [
    {
      "constant": true,
      "inputs": [],
      "name": "name",
      "outputs": [
        {
          "name": "",
          "type": "string"
        }
      ],
      "payable": false,
      "stateMutability": "view",
      "type": "function"
    },
    {
      "constant": true,
      "inputs": [],
      "name": "addrItemCore",
      "outputs": [
        {
          "name": "",
          "type": "address"
        }
      ],
      "payable": false,
      "stateMutability": "view",
      "type": "function"
    },
    {
      "constant": true,
      "inputs": [
        {
          "name": "",
          "type": "uint256"
        }
      ],
      "name": "sireAllowedToAddress",
      "outputs": [
        {
          "name": "",
          "type": "address"
        }
      ],
      "payable": false,
      "stateMutability": "view",
      "type": "function"
    },
    {
      "constant": true,
      "inputs": [],
      "name": "addrChest",
      "outputs": [
        {
          "name": "",
          "type": "address"
        }
      ],
      "payable": false,
      "stateMutability": "view",
      "type": "function"
    },
    {
      "constant": true,
      "inputs": [],
      "name": "secondsPerBlock",
      "outputs": [
        {
          "name": "",
          "type": "uint256"
        }
      ],
      "payable": false,
      "stateMutability": "view",
      "type": "function"
    },
    {
      "constant": true,
      "inputs": [],
      "name": "symbol",
      "outputs": [
        {
          "name": "",
          "type": "string"
        }
      ],
      "payable": false,
      "stateMutability": "view",
      "type": "function"
    },
    {
      "constant": true,
      "inputs": [
        {
          "name": "",
          "type": "address"
        }
      ],
      "name": "ownershipHeroCount",
      "outputs": [
        {
          "name": "",
          "type": "uint256"
        }
      ],
      "payable": false,
      "stateMutability": "view",
      "type": "function"
    },
    {
      "constant": true,
      "inputs": [
        {
          "name": "",
          "type": "uint256"
        }
      ],
      "name": "cooldowns",
      "outputs": [
        {
          "name": "",
          "type": "uint32"
        }
      ],
      "payable": false,
      "stateMutability": "view",
      "type": "function"
    },
    {
      "constant": true,
      "inputs": [
        {
          "name": "",
          "type": "uint256"
        }
      ],
      "name": "heroes",
      "outputs": [
        {
          "name": "date",
          "type": "uint256"
        },
        {
          "name": "price",
          "type": "uint256"
        },
        {
          "name": "tokenId",
          "type": "uint256"
        },
        {
          "name": "tokenPrice",
          "type": "uint256"
        },
        {
          "name": "genes",
          "type": "uint256"
        },
        {
          "name": "birthTime",
          "type": "uint64"
        },
        {
          "name": "cooldownEndBlock",
          "type": "uint64"
        },
        {
          "name": "matronId",
          "type": "uint32"
        },
        {
          "name": "sireId",
          "type": "uint32"
        },
        {
          "name": "siringWithId",
          "type": "uint32"
        },
        {
          "name": "cooldownIndex",
          "type": "uint16"
        },
        {
          "name": "generation",
          "type": "uint16"
        },
        {
          "name": "level",
          "type": "uint16"
        }
      ],
      "payable": false,
      "stateMutability": "view",
      "type": "function"
    },
    {
      "constant": true,
      "inputs": [
        {
          "name": "",
          "type": "uint256"
        }
      ],
      "name": "heroIndexToOwner",
      "outputs": [
        {
          "name": "",
          "type": "address"
        }
      ],
      "payable": false,
      "stateMutability": "view",
      "type": "function"
    },
    {
      "constant": true,
      "inputs": [],
      "name": "addrAdmin",
      "outputs": [
        {
          "name": "",
          "type": "address"
        }
      ],
      "payable": false,
      "stateMutability": "view",
      "type": "function"
    },
    {
      "constant": false,
      "inputs": [
        {
          "name": "_addrItem",
          "type": "address"
        }
      ],
      "name": "setItemCoreAddress",
      "outputs": [],
      "payable": false,
      "stateMutability": "nonpayable",
      "type": "function"
    },
    {
      "constant": true,
      "inputs": [
        {
          "name": "",
          "type": "uint256"
        }
      ],
      "name": "heroIndexToApproved",
      "outputs": [
        {
          "name": "",
          "type": "address"
        }
      ],
      "payable": false,
      "stateMutability": "view",
      "type": "function"
    },
    {
      "constant": false,
      "inputs": [
        {
          "name": "_date",
          "type": "uint256"
        },
        {
          "name": "_price",
          "type": "uint256"
        },
        {
          "name": "_tokenId",
          "type": "uint256"
        },
        {
          "name": "_tokenPrice",
          "type": "uint256"
        },
        {
          "name": "_matronId",
          "type": "uint256"
        },
        {
          "name": "_sireId",
          "type": "uint256"
        },
        {
          "name": "_generation",
          "type": "uint256"
        },
        {
          "name": "_genes",
          "type": "uint256"
        },
        {
          "name": "_level",
          "type": "uint16"
        },
        {
          "name": "_owner",
          "type": "address"
        }
      ],
      "name": "createHero",
      "outputs": [
        {
          "name": "",
          "type": "uint256"
        }
      ],
      "payable": false,
      "stateMutability": "nonpayable",
      "type": "function"
    },
    {
      "constant": true,
      "inputs": [],
      "name": "trc721Metadata",
      "outputs": [
        {
          "name": "",
          "type": "address"
        }
      ],
      "payable": false,
      "stateMutability": "view",
      "type": "function"
    },
    {
      "constant": false,
      "inputs": [
        {
          "name": "_addrChest",
          "type": "address"
        }
      ],
      "name": "setChestAddress",
      "outputs": [],
      "payable": false,
      "stateMutability": "nonpayable",
      "type": "function"
    },
    {
      "anonymous": false,
      "inputs": [
        {
          "indexed": false,
          "name": "from",
          "type": "address"
        },
        {
          "indexed": false,
          "name": "to",
          "type": "address"
        },
        {
          "indexed": false,
          "name": "tokenId",
          "type": "uint256"
        }
      ],
      "name": "Transfer",
      "type": "event"
    },
    {
      "anonymous": false,
      "inputs": [
        {
          "indexed": false,
          "name": "owner",
          "type": "address"
        },
        {
          "indexed": false,
          "name": "approved",
          "type": "address"
        },
        {
          "indexed": false,
          "name": "tokenId",
          "type": "uint256"
        }
      ],
      "name": "Approval",
      "type": "event"
    },
    {
      "anonymous": false,
      "inputs": [
        {
          "indexed": false,
          "name": "owner",
          "type": "address"
        },
        {
          "indexed": false,
          "name": "kittyId",
          "type": "uint256"
        },
        {
          "indexed": false,
          "name": "matronId",
          "type": "uint256"
        },
        {
          "indexed": false,
          "name": "sireId",
          "type": "uint256"
        },
        {
          "indexed": false,
          "name": "genes",
          "type": "uint256"
        },
        {
          "indexed": false,
          "name": "level",
          "type": "uint16"
        }
      ],
      "name": "Birth",
      "type": "event"
    },
    {
      "constant": true,
      "inputs": [
        {
          "name": "_interfaceID",
          "type": "bytes4"
        }
      ],
      "name": "supportsInterface",
      "outputs": [
        {
          "name": "",
          "type": "bool"
        }
      ],
      "payable": false,
      "stateMutability": "view",
      "type": "function"
    },
    {
      "constant": false,
      "inputs": [
        {
          "name": "_contractAddress",
          "type": "address"
        }
      ],
      "name": "setMetadataAddress",
      "outputs": [],
      "payable": false,
      "stateMutability": "nonpayable",
      "type": "function"
    },
    {
      "constant": true,
      "inputs": [
        {
          "name": "_owner",
          "type": "address"
        }
      ],
      "name": "balanceOf",
      "outputs": [
        {
          "name": "count",
          "type": "uint256"
        }
      ],
      "payable": false,
      "stateMutability": "view",
      "type": "function"
    },
    {
      "constant": false,
      "inputs": [
        {
          "name": "_to",
          "type": "address"
        },
        {
          "name": "_heroId",
          "type": "uint256"
        }
      ],
      "name": "transfer",
      "outputs": [],
      "payable": false,
      "stateMutability": "nonpayable",
      "type": "function"
    },
    {
      "constant": false,
      "inputs": [
        {
          "name": "_to",
          "type": "address"
        },
        {
          "name": "_heroId",
          "type": "uint256"
        }
      ],
      "name": "approve",
      "outputs": [],
      "payable": false,
      "stateMutability": "nonpayable",
      "type": "function"
    },
    {
      "constant": false,
      "inputs": [
        {
          "name": "_from",
          "type": "address"
        },
        {
          "name": "_to",
          "type": "address"
        },
        {
          "name": "_heroId",
          "type": "uint256"
        }
      ],
      "name": "transferFrom",
      "outputs": [],
      "payable": false,
      "stateMutability": "nonpayable",
      "type": "function"
    },
    {
      "constant": true,
      "inputs": [],
      "name": "totalSupply",
      "outputs": [
        {
          "name": "",
          "type": "uint256"
        }
      ],
      "payable": false,
      "stateMutability": "view",
      "type": "function"
    },
    {
      "constant": true,
      "inputs": [
        {
          "name": "_heroId",
          "type": "uint256"
        }
      ],
      "name": "ownerOf",
      "outputs": [
        {
          "name": "owner",
          "type": "address"
        }
      ],
      "payable": false,
      "stateMutability": "view",
      "type": "function"
    },
    {
      "constant": true,
      "inputs": [
        {
          "name": "_owner",
          "type": "address"
        }
      ],
      "name": "heroesOfOwner",
      "outputs": [
        {
          "name": "ownerHeroes",
          "type": "uint256[]"
        }
      ],
      "payable": false,
      "stateMutability": "view",
      "type": "function"
    }
  ],
  "bytecode": "0x60806040526101c060405190810160405280603c63ffffffff1663ffffffff168152602001607863ffffffff1663ffffffff16815260200161012c63ffffffff1663ffffffff16815260200161025863ffffffff1663ffffffff16815260200161070863ffffffff1663ffffffff168152602001610e1063ffffffff1663ffffffff168152602001611c2063ffffffff1663ffffffff16815260200161384063ffffffff1663ffffffff16815260200161708063ffffffff1663ffffffff16815260200161e10063ffffffff1663ffffffff1681526020016201518063ffffffff1663ffffffff1681526020016202a30063ffffffff1663ffffffff1681526020016205460063ffffffff1663ffffffff16815260200162093a8063ffffffff1663ffffffff16815250600090600e6200013b92919062000188565b50600f60025533600360006101000a81548173ffffffffffffffffffffffffffffffffffffffff021916908373ffffffffffffffffffffffffffffffffffffffff16021790555062000268565b82600e6007016008900481019282156200021f5791602002820160005b83821115620001eb57835183826101000a81548163ffffffff021916908363ffffffff1602179055509260200192600401602081600301049283019260010302620001a5565b80156200021d5782816101000a81549063ffffffff0219169055600401602081600301049283019260010302620001eb565b505b5090506200022e919062000232565b5090565b6200026591905b808211156200026157600081816101000a81549063ffffffff02191690555060010162000239565b5090565b90565b61218980620002786000396000f300608060405260043610610149576000357c0100000000000000000000000000000000000000000000000000000000900463ffffffff16806301ffc9a71461014e57806306fdde03146101cc578063095ea7b31461027657806318160ddd146102dd57806323b872dd146103225780632f6db1ee146103a957806346116e6f1461041a5780636352211e146104a157806370a082311461052857806376c0b367146105995780637a7d49371461060a57806395d89b411461064f578063989555f8146106f95780639ca7722d146107ab5780639d6fac6f1461081c578063a8d4a03b14610883578063a9059cbb14610996578063aa54beac146109fd578063bfae2f0e14610a84578063cb0e2c5a14610af5578063de3e305f14610b52578063e17b25af14610bd9578063e32170ae14610c36578063f15f938814610d05578063f794ac1f14610d76575b600080fd5b34801561015a57600080fd5b50d3801561016757600080fd5b50d2801561017457600080fd5b506101b260048036038101908080357bffffffffffffffffffffffffffffffffffffffffffffffffffffffff19169060200190929190505050610dd3565b604051808215151515815260200191505060405180910390f35b3480156101d857600080fd5b50d380156101e557600080fd5b50d280156101f257600080fd5b506101fb6110e4565b6040518080602001828103825283818151815260200191508051906020019080838360005b8381101561023b578082015181840152602081019050610220565b50505050905090810190601f1680156102685780820380516001836020036101000a031916815260200191505b509250505060405180910390f35b34801561028257600080fd5b50d3801561028f57600080fd5b50d2801561029c57600080fd5b506102db600480360381019080803573ffffffffffffffffffffffffffffffffffffffff1690602001909291908035906020019092919050505061111d565b005b3480156102e957600080fd5b50d380156102f657600080fd5b50d2801561030357600080fd5b5061030c6111df565b6040518082815260200191505060405180910390f35b34801561032e57600080fd5b50d3801561033b57600080fd5b50d2801561034857600080fd5b506103a7600480360381019080803573ffffffffffffffffffffffffffffffffffffffff169060200190929190803573ffffffffffffffffffffffffffffffffffffffff169060200190929190803590602001909291905050506111ef565b005b3480156103b557600080fd5b50d380156103c257600080fd5b50d280156103cf57600080fd5b506103d86112a0565b604051808273ffffffffffffffffffffffffffffffffffffffff1673ffffffffffffffffffffffffffffffffffffffff16815260200191505060405180910390f35b34801561042657600080fd5b50d3801561043357600080fd5b50d2801561044057600080fd5b5061045f600480360381019080803590602001909291905050506112c6565b604051808273ffffffffffffffffffffffffffffffffffffffff1673ffffffffffffffffffffffffffffffffffffffff16815260200191505060405180910390f35b3480156104ad57600080fd5b50d380156104ba57600080fd5b50d280156104c757600080fd5b506104e6600480360381019080803590602001909291905050506112f9565b604051808273ffffffffffffffffffffffffffffffffffffffff1673ffffffffffffffffffffffffffffffffffffffff16815260200191505060405180910390f35b34801561053457600080fd5b50d3801561054157600080fd5b50d2801561054e57600080fd5b50610583600480360381019080803573ffffffffffffffffffffffffffffffffffffffff169060200190929190505050611372565b6040518082815260200191505060405180910390f35b3480156105a557600080fd5b50d380156105b257600080fd5b50d280156105bf57600080fd5b506105c86113bb565b604051808273ffffffffffffffffffffffffffffffffffffffff1673ffffffffffffffffffffffffffffffffffffffff16815260200191505060405180910390f35b34801561061657600080fd5b50d3801561062357600080fd5b50d2801561063057600080fd5b506106396113e1565b6040518082815260200191505060405180910390f35b34801561065b57600080fd5b50d3801561066857600080fd5b50d2801561067557600080fd5b5061067e6113e7565b6040518080602001828103825283818151815260200191508051906020019080838360005b838110156106be5780820151818401526020810190506106a3565b50505050905090810190601f1680156106eb5780820380516001836020036101000a031916815260200191505b509250505060405180910390f35b34801561070557600080fd5b50d3801561071257600080fd5b50d2801561071f57600080fd5b50610754600480360381019080803573ffffffffffffffffffffffffffffffffffffffff169060200190929190505050611420565b6040518080602001828103825283818151815260200191508051906020019060200280838360005b8381101561079757808201518184015260208101905061077c565b505050509050019250505060405180910390f35b3480156107b757600080fd5b50d380156107c457600080fd5b50d280156107d157600080fd5b50610806600480360381019080803573ffffffffffffffffffffffffffffffffffffffff16906020019092919050505061156d565b6040518082815260200191505060405180910390f35b34801561082857600080fd5b50d3801561083557600080fd5b50d2801561084257600080fd5b5061086160048036038101908080359060200190929190505050611585565b604051808263ffffffff1663ffffffff16815260200191505060405180910390f35b34801561088f57600080fd5b50d3801561089c57600080fd5b50d280156108a957600080fd5b506108c8600480360381019080803590602001909291905050506115b4565b604051808e81526020018d81526020018c81526020018b81526020018a81526020018967ffffffffffffffff1667ffffffffffffffff1681526020018867ffffffffffffffff1667ffffffffffffffff1681526020018763ffffffff1663ffffffff1681526020018663ffffffff1663ffffffff1681526020018563ffffffff1663ffffffff1681526020018461ffff1661ffff1681526020018361ffff1661ffff1681526020018261ffff1661ffff1681526020019d505050505050505050505050505060405180910390f35b3480156109a257600080fd5b50d380156109af57600080fd5b50d280156109bc57600080fd5b506109fb600480360381019080803573ffffffffffffffffffffffffffffffffffffffff169060200190929190803590602001909291905050506116ab565b005b348015610a0957600080fd5b50d38015610a1657600080fd5b50d28015610a2357600080fd5b50610a4260048036038101908080359060200190929190505050611746565b604051808273ffffffffffffffffffffffffffffffffffffffff1673ffffffffffffffffffffffffffffffffffffffff16815260200191505060405180910390f35b348015610a9057600080fd5b50d38015610a9d57600080fd5b50d28015610aaa57600080fd5b50610ab3611779565b604051808273ffffffffffffffffffffffffffffffffffffffff1673ffffffffffffffffffffffffffffffffffffffff16815260200191505060405180910390f35b348015610b0157600080fd5b50d38015610b0e57600080fd5b50d28015610b1b57600080fd5b50610b50600480360381019080803573ffffffffffffffffffffffffffffffffffffffff16906020019092919050505061179f565b005b348015610b5e57600080fd5b50d38015610b6b57600080fd5b50d28015610b7857600080fd5b50610b976004803603810190808035906020019092919050505061183f565b604051808273ffffffffffffffffffffffffffffffffffffffff1673ffffffffffffffffffffffffffffffffffffffff16815260200191505060405180910390f35b348015610be557600080fd5b50d38015610bf257600080fd5b50d28015610bff57600080fd5b50610c34600480360381019080803573ffffffffffffffffffffffffffffffffffffffff169060200190929190505050611872565b005b348015610c4257600080fd5b50d38015610c4f57600080fd5b50d28015610c5c57600080fd5b50610cef6004803603810190808035906020019092919080359060200190929190803590602001909291908035906020019092919080359060200190929190803590602001909291908035906020019092919080359060200190929190803561ffff169060200190929190803573ffffffffffffffffffffffffffffffffffffffff169060200190929190505050611912565b6040518082815260200191505060405180910390f35b348015610d1157600080fd5b50d38015610d1e57600080fd5b50d28015610d2b57600080fd5b50610d34611c96565b604051808273ffffffffffffffffffffffffffffffffffffffff1673ffffffffffffffffffffffffffffffffffffffff16815260200191505060405180910390f35b348015610d8257600080fd5b50d38015610d8f57600080fd5b50d28015610d9c57600080fd5b50610dd1600480360381019080803573ffffffffffffffffffffffffffffffffffffffff169060200190929190505050611cbc565b005b600060405180807f737570706f727473496e74657266616365286279746573342900000000000000815250601901905060405180910390207bffffffffffffffffffffffffffffffffffffffffffffffffffffffff1916827bffffffffffffffffffffffffffffffffffffffffffffffffffffffff191614806110dd575060405180807f746f6b656e4d657461646174612875696e743235362c737472696e6729000000815250601d019050604051809103902060405180807f6865726f65734f664f776e6572286164647265737329000000000000000000008152506016019050604051809103902060405180807f7472616e7366657246726f6d28616464726573732c616464726573732c75696e81526020017f74323536290000000000000000000000000000000000000000000000000000008152506025019050604051809103902060405180807f7472616e7366657228616464726573732c75696e7432353629000000000000008152506019019050604051809103902060405180807f617070726f766528616464726573732c75696e743235362900000000000000008152506018019050604051809103902060405180807f6f776e65724f662875696e7432353629000000000000000000000000000000008152506010019050604051809103902060405180807f62616c616e63654f6628616464726573732900000000000000000000000000008152506012019050604051809103902060405180807f746f74616c537570706c79282900000000000000000000000000000000000000815250600d019050604051809103902060405180807f73796d626f6c28290000000000000000000000000000000000000000000000008152506008019050604051809103902060405180807f6e616d6528290000000000000000000000000000000000000000000000000000815250600601905060405180910390201818181818181818187bffffffffffffffffffffffffffffffffffffffffffffffffffffffff1916827bffffffffffffffffffffffffffffffffffffffffffffffffffffffff1916145b9050919050565b6040805190810160405280600881526020017f505a4865726f657300000000000000000000000000000000000000000000000081525081565b6111273382611d5c565b151561113257600080fd5b61113c8183611dc8565b7f8c5be1e5ebec7d5bd14f71427d1e84f3dd0314c0f7b2291e5b200ac8c7c3b925338383604051808473ffffffffffffffffffffffffffffffffffffffff1673ffffffffffffffffffffffffffffffffffffffff1681526020018373ffffffffffffffffffffffffffffffffffffffff1673ffffffffffffffffffffffffffffffffffffffff168152602001828152602001935050505060405180910390a15050565b6000600160068054905003905090565b600073ffffffffffffffffffffffffffffffffffffffff168273ffffffffffffffffffffffffffffffffffffffff161415151561122b57600080fd5b3073ffffffffffffffffffffffffffffffffffffffff168273ffffffffffffffffffffffffffffffffffffffff161415151561126657600080fd5b6112703382611e1e565b151561127b57600080fd5b6112858382611d5c565b151561129057600080fd5b61129b838383611e8a565b505050565b600560009054906101000a900473ffffffffffffffffffffffffffffffffffffffff1681565b600a6020528060005260406000206000915054906101000a900473ffffffffffffffffffffffffffffffffffffffff1681565b60006007600083815260200190815260200160002060009054906101000a900473ffffffffffffffffffffffffffffffffffffffff169050600073ffffffffffffffffffffffffffffffffffffffff168173ffffffffffffffffffffffffffffffffffffffff161415151561136d57600080fd5b919050565b6000600860008373ffffffffffffffffffffffffffffffffffffffff1673ffffffffffffffffffffffffffffffffffffffff168152602001908152602001600020549050919050565b600460009054906101000a900473ffffffffffffffffffffffffffffffffffffffff1681565b60025481565b6040805190810160405280600281526020017f504800000000000000000000000000000000000000000000000000000000000081525081565b606060006060600080600061143487611372565b9450600085141561147757600060405190808252806020026020018201604052801561146f5781602001602082028038833980820191505090505b509550611563565b846040519080825280602002602001820160405280156114a65781602001602082028038833980820191505090505b5093506114b16111df565b925060009150600190505b828111151561155f578673ffffffffffffffffffffffffffffffffffffffff166007600083815260200190815260200160002060009054906101000a900473ffffffffffffffffffffffffffffffffffffffff1673ffffffffffffffffffffffffffffffffffffffff1614156115525780848381518110151561153b57fe5b906020019060200201818152505081806001019250505b80806001019150506114bc565b8395505b5050505050919050565b60086020528060005260406000206000915090505481565b600081600e8110151561159457fe5b60089182820401919006600402915054906101000a900463ffffffff1681565b6006818154811015156115c357fe5b90600052602060002090600702016000915090508060000154908060010154908060020154908060030154908060040154908060050160009054906101000a900467ffffffffffffffff16908060050160089054906101000a900467ffffffffffffffff16908060050160109054906101000a900463ffffffff16908060050160149054906101000a900463ffffffff16908060050160189054906101000a900463ffffffff169080600501601c9054906101000a900461ffff169080600501601e9054906101000a900461ffff16908060060160009054906101000a900461ffff1690508d565b600073ffffffffffffffffffffffffffffffffffffffff168273ffffffffffffffffffffffffffffffffffffffff16141515156116e757600080fd5b3073ffffffffffffffffffffffffffffffffffffffff168273ffffffffffffffffffffffffffffffffffffffff161415151561172257600080fd5b61172c3382611d5c565b151561173757600080fd5b611742338383611e8a565b5050565b60076020528060005260406000206000915054906101000a900473ffffffffffffffffffffffffffffffffffffffff1681565b600360009054906101000a900473ffffffffffffffffffffffffffffffffffffffff1681565b600360009054906101000a900473ffffffffffffffffffffffffffffffffffffffff1673ffffffffffffffffffffffffffffffffffffffff163373ffffffffffffffffffffffffffffffffffffffff161415156117fb57600080fd5b80600560006101000a81548173ffffffffffffffffffffffffffffffffffffffff021916908373ffffffffffffffffffffffffffffffffffffffff16021790555050565b60096020528060005260406000206000915054906101000a900473ffffffffffffffffffffffffffffffffffffffff1681565b600360009054906101000a900473ffffffffffffffffffffffffffffffffffffffff1673ffffffffffffffffffffffffffffffffffffffff163373ffffffffffffffffffffffffffffffffffffffff161415156118ce57600080fd5b80600b60006101000a81548173ffffffffffffffffffffffffffffffffffffffff021916908373ffffffffffffffffffffffffffffffffffffffff16021790555050565b60008061191d6120c2565b60008963ffffffff168a14151561193357600080fd5b8863ffffffff168914151561194757600080fd5b8761ffff168814151561195957600080fd5b60028881151561196557fe5b049250600d8361ffff16111561197a57600d92505b6101a0604051908101604052808f81526020018e81526020018d81526020018c81526020018881526020014267ffffffffffffffff168152602001600067ffffffffffffffff1681526020018b63ffffffff1681526020018a63ffffffff168152602001600063ffffffff1681526020018461ffff1681526020018961ffff1681526020018761ffff168152509150600160068390806001815401808255809150509060018203906000526020600020906007020160009091929091909150600082015181600001556020820151816001015560408201518160020155606082015181600301556080820151816004015560a08201518160050160006101000a81548167ffffffffffffffff021916908367ffffffffffffffff16021790555060c08201518160050160086101000a81548167ffffffffffffffff021916908367ffffffffffffffff16021790555060e08201518160050160106101000a81548163ffffffff021916908363ffffffff1602179055506101008201518160050160146101000a81548163ffffffff021916908363ffffffff1602179055506101208201518160050160186101000a81548163ffffffff021916908363ffffffff16021790555061014082015181600501601c6101000a81548161ffff021916908361ffff16021790555061016082015181600501601e6101000a81548161ffff021916908361ffff1602179055506101808201518160060160006101000a81548161ffff021916908361ffff16021790555050500390508063ffffffff1681141515611bc557600080fd5b7f6bdb6252e3aabe7c79b1e94c2d24f9cbed550af06f37098cc8e28e34c6140c6685828460e0015163ffffffff1685610100015163ffffffff168660800151876101800151604051808773ffffffffffffffffffffffffffffffffffffffff1673ffffffffffffffffffffffffffffffffffffffff1681526020018681526020018581526020018481526020018381526020018261ffff1661ffff168152602001965050505050505060405180910390a1611c8260008683611e8a565b8093505050509a9950505050505050505050565b600b60009054906101000a900473ffffffffffffffffffffffffffffffffffffffff1681565b600360009054906101000a900473ffffffffffffffffffffffffffffffffffffffff1673ffffffffffffffffffffffffffffffffffffffff163373ffffffffffffffffffffffffffffffffffffffff16141515611d1857600080fd5b80600460006101000a81548173ffffffffffffffffffffffffffffffffffffffff021916908373ffffffffffffffffffffffffffffffffffffffff16021790555050565b60008273ffffffffffffffffffffffffffffffffffffffff166007600084815260200190815260200160002060009054906101000a900473ffffffffffffffffffffffffffffffffffffffff1673ffffffffffffffffffffffffffffffffffffffff1614905092915050565b806009600084815260200190815260200160002060006101000a81548173ffffffffffffffffffffffffffffffffffffffff021916908373ffffffffffffffffffffffffffffffffffffffff1602179055505050565b60008273ffffffffffffffffffffffffffffffffffffffff166009600084815260200190815260200160002060009054906101000a900473ffffffffffffffffffffffffffffffffffffffff1673ffffffffffffffffffffffffffffffffffffffff1614905092915050565b600860008373ffffffffffffffffffffffffffffffffffffffff1673ffffffffffffffffffffffffffffffffffffffff16815260200190815260200160002060008154809291906001019190505550816007600083815260200190815260200160002060006101000a81548173ffffffffffffffffffffffffffffffffffffffff021916908373ffffffffffffffffffffffffffffffffffffffff160217905550600073ffffffffffffffffffffffffffffffffffffffff168373ffffffffffffffffffffffffffffffffffffffff1614151561201e57600860008473ffffffffffffffffffffffffffffffffffffffff1673ffffffffffffffffffffffffffffffffffffffff1681526020019081526020016000206000815480929190600190039190505550600a600082815260200190815260200160002060006101000a81549073ffffffffffffffffffffffffffffffffffffffff02191690556009600082815260200190815260200160002060006101000a81549073ffffffffffffffffffffffffffffffffffffffff02191690555b7fddf252ad1be2c89b69c2b068fc378daa952ba7f163c4a11628f55a4df523b3ef838383604051808473ffffffffffffffffffffffffffffffffffffffff1673ffffffffffffffffffffffffffffffffffffffff1681526020018373ffffffffffffffffffffffffffffffffffffffff1673ffffffffffffffffffffffffffffffffffffffff168152602001828152602001935050505060405180910390a1505050565b6101a0604051908101604052806000815260200160008152602001600081526020016000815260200160008152602001600067ffffffffffffffff168152602001600067ffffffffffffffff168152602001600063ffffffff168152602001600063ffffffff168152602001600063ffffffff168152602001600061ffff168152602001600061ffff168152602001600061ffff16815250905600a165627a7a72305820d3c62af1eeea95ded7769693b37ee127a58daa8c49901267ac048b6e438bc5940029",
  "source": "pragma solidity ^0.4.25;\n\nimport \"./PZHeroBase.sol\";\nimport \"./TRC721.sol\";\nimport \"./TRC721Metadata.sol\";\n\ncontract PZHeroOwnership is PZHeroBase, TRC721\n{\n    string public constant name = \"PZHeroes\";\n    string public constant symbol = \"PH\";\n\n    // The contract that will return kitty metadata\n    TRC721Metadata public trc721Metadata;\n\n    bytes4 constant InterfaceSignature_TRC165 =\n        bytes4(keccak256('supportsInterface(bytes4)'));\n\n    bytes4 constant InterfaceSignature_TRC721 =\n        bytes4(keccak256('name()')) ^\n        bytes4(keccak256('symbol()')) ^\n        bytes4(keccak256('totalSupply()')) ^\n        bytes4(keccak256('balanceOf(address)')) ^\n        bytes4(keccak256('ownerOf(uint256)')) ^\n        bytes4(keccak256('approve(address,uint256)')) ^\n        bytes4(keccak256('transfer(address,uint256)')) ^\n        bytes4(keccak256('transferFrom(address,address,uint256)')) ^\n        bytes4(keccak256('heroesOfOwner(address)')) ^\n        bytes4(keccak256('tokenMetadata(uint256,string)'));\n\n    function supportsInterface(bytes4 _interfaceID) external view returns (bool)\n    {\n        return ((_interfaceID == InterfaceSignature_TRC165) || (_interfaceID == InterfaceSignature_TRC721));\n    }\n\n    /**\n    * Set Meta Data Address of TRC721\n    * @param _contractAddress                      Address of TRC721\n    *\n     */\n    function setMetadataAddress(address _contractAddress) external onlyAdmin {\n        trc721Metadata = TRC721Metadata(_contractAddress);\n    }\n\n    /**\n    * Check if the claimant owns Hero\n    * @param _claimant                  Address of Claimer\n    * @param _heroId                    Hero Id\n    *\n    * @return result                    The boolean result if claimant owns given Hero\n    *\n     */\n    function _owns(address _claimant, uint256 _heroId) internal view returns (bool) {\n        return heroIndexToOwner[_heroId] == _claimant;\n    }\n\n    /**\n    * Check if Hero is approved for Claimant\n    * @param _claimant                  Address of Claimer\n    * @param _heroId                    Hero Id\n    *\n    * @return result                    The boolean result if claimant is approved for given Hero\n    *\n     */\n    function _approvedFor(address _claimant, uint256 _heroId) internal view returns (bool) {\n        return heroIndexToApproved[_heroId] == _claimant;\n    }\n\n    /**\n    * Approve Hero for for Claimant\n    * @param _approved                  Address of approved\n    * @param _heroId                     Hero Id\n    *\n     */\n    function _approve(uint256 _heroId, address _approved) internal {\n        heroIndexToApproved[_heroId] = _approved;\n    }\n\n    /**\n    * Get Balance of Owner\n    * @return count                     Count of Heroes owned by Owner\n    *\n     */\n    function balanceOf(address _owner) public view returns (uint256 count) {\n        return ownershipHeroCount[_owner];\n    }\n\n    /**\n    * Transfer Hero\n    * @param _to                            Address of receiver\n    * @param _heroId                        Hero Id to be transferred\n    *\n     */\n    function transfer(\n        address _to,\n        uint256 _heroId\n    )\n        external\n    {\n        // Safety check to prevent against an unexpected 0x0 default.\n        require(_to != address(0));\n        require(_to != address(this));\n\n        require(_owns(msg.sender, _heroId));\n\n        _transfer(msg.sender, _to, _heroId);\n    }\n\n    /**\n    * Approve Hero for for Claimant\n    * @param _to                            Address to be approved by Hero\n    * @param _heroId                        Hero Id\n    *\n     */\n    function approve(\n        address _to,\n        uint256 _heroId\n    )\n        external\n    {\n        // Only an owner can grant transfer approval.\n        require(_owns(msg.sender, _heroId));\n\n        // Register the approval (replacing any previous approval).\n        _approve(_heroId, _to);\n\n        // Emit approval event.\n        emit Approval(msg.sender, _to, _heroId);\n    }\n\n    /**\n    * Transfer Hero\n    * @param _from                          Address of transfer\n    * @param _to                            Address of receiver\n    * @param _heroId                        Hero Id to be transferred\n    *\n     */\n    function transferFrom(\n        address _from,\n        address _to,\n        uint256 _heroId\n    )\n        external\n    {\n        require(_to != address(0));\n\n        require(_to != address(this));\n\n        require(_approvedFor(msg.sender, _heroId));\n        require(_owns(_from, _heroId));\n\n        _transfer(_from, _to, _heroId);\n    }\n\n    /**\n    * Get Total Supply\n    * @return count                     Total Supply of Heroes\n    *\n     */\n    function totalSupply() public view returns (uint) {\n        return heroes.length - 1;\n    }\n\n    /**\n    * Get Owner of Given Hero\n    * @param _heroId                        Hero Id\n    * @return owner                         Owner's address of Hero id\n    *\n     */\n    function ownerOf(uint256 _heroId)\n        public\n        view\n        returns (address owner)\n    {\n        owner = heroIndexToOwner[_heroId];\n\n        require(owner != address(0));\n    }\n\n    /**\n    * Get Heroes of Owner\n    * @param _owner                         Owner's address\n    *\n    * @return ownerHeroes                   Owner's Heroes\n    *\n     */\n    function heroesOfOwner(address _owner) public view returns(uint256[] ownerHeroes) {\n        uint256 heroCount = balanceOf(_owner);\n\n        if (heroCount == 0) {\n            // Return an empty array\n            return new uint256[](0);\n        } else {\n            uint256[] memory result = new uint256[](heroCount);\n            uint256 totalHeroes = totalSupply();\n            uint256 resultIndex = 0;\n\n            uint256 heroId;\n\n            for (heroId = 1; heroId <= totalHeroes; heroId++) {\n                if (heroIndexToOwner[heroId] == _owner) {\n                    result[resultIndex] = heroId;\n                    resultIndex++;\n                }\n            }\n\n            return result;\n        }\n    }\n\n    function _memcpy(uint _dest, uint _src, uint _len) private pure {\n        // Copy word-length chunks while possible\n        for(; _len >= 32; _len -= 32) {\n            assembly {\n                mstore(_dest, mload(_src))\n            }\n            _dest += 32;\n            _src += 32;\n        }\n\n        // Copy remaining bytes\n        uint256 mask = 256 ** (32 - _len) - 1;\n        assembly {\n            let srcpart := and(mload(_src), not(mask))\n            let destpart := and(mload(_dest), mask)\n            mstore(_dest, or(destpart, srcpart))\n        }\n    }\n\n    function _toString(bytes32[4] _rawBytes, uint256 _stringLength) private pure returns (string) {\n        string memory outputString = new string(_stringLength);\n        uint256 outputPtr;\n        uint256 bytesPtr;\n\n        assembly {\n            outputPtr := add(outputString, 32)\n            bytesPtr := _rawBytes\n        }\n\n        _memcpy(outputPtr, bytesPtr, _stringLength);\n\n        return outputString;\n    }\n}\n",
  "sourcePath": "/Volumes/Backup/workspace/Dave(Tron_NFT)/pizzaHero/contracts/PZHeroOwnership.sol",
  "compiler": {
    "name": "solc",
    "version": "0.4.25+commit.69a1e720.Emscripten.clang"
  },
  "schemaVersion": "2.0.1",
  "updatedAt": "2020-01-15T17:21:03.498Z"
}