{
  "contractName": "PZHeroMarketplace",
  "abi": [
    {
      "constant": false,
      "inputs": [
        {
          "name": "_matronId",
          "type": "uint256"
        },
        {
          "name": "_sireId",
          "type": "uint256"
        }
      ],
      "name": "breedWithOwns",
      "outputs": [],
      "payable": true,
      "stateMutability": "payable",
      "type": "function"
    },
    {
      "constant": true,
      "inputs": [
        {
          "name": "_interfaceID",
          "type": "bytes4"
        }
      ],
      "name": "supportsInterface",
      "outputs": [
        {
          "name": "",
          "type": "bool"
        }
      ],
      "payable": false,
      "stateMutability": "view",
      "type": "function"
    },
    {
      "constant": true,
      "inputs": [],
      "name": "name",
      "outputs": [
        {
          "name": "",
          "type": "string"
        }
      ],
      "payable": false,
      "stateMutability": "view",
      "type": "function"
    },
    {
      "constant": false,
      "inputs": [
        {
          "name": "_to",
          "type": "address"
        },
        {
          "name": "_heroId",
          "type": "uint256"
        }
      ],
      "name": "approve",
      "outputs": [],
      "payable": false,
      "stateMutability": "nonpayable",
      "type": "function"
    },
    {
      "constant": false,
      "inputs": [
        {
          "name": "_addrGeneScience",
          "type": "address"
        }
      ],
      "name": "setGeneScienceAddr",
      "outputs": [],
      "payable": false,
      "stateMutability": "nonpayable",
      "type": "function"
    },
    {
      "constant": true,
      "inputs": [],
      "name": "totalSupply",
      "outputs": [
        {
          "name": "",
          "type": "uint256"
        }
      ],
      "payable": false,
      "stateMutability": "view",
      "type": "function"
    },
    {
      "constant": true,
      "inputs": [
        {
          "name": "",
          "type": "uint256"
        }
      ],
      "name": "heroAuctions",
      "outputs": [
        {
          "name": "seller",
          "type": "address"
        },
        {
          "name": "startingPrice",
          "type": "uint256"
        },
        {
          "name": "heroId",
          "type": "uint256"
        },
        {
          "name": "auctionType",
          "type": "uint8"
        }
      ],
      "payable": false,
      "stateMutability": "view",
      "type": "function"
    },
    {
      "constant": false,
      "inputs": [
        {
          "name": "_from",
          "type": "address"
        },
        {
          "name": "_to",
          "type": "address"
        },
        {
          "name": "_heroId",
          "type": "uint256"
        }
      ],
      "name": "transferFrom",
      "outputs": [],
      "payable": false,
      "stateMutability": "nonpayable",
      "type": "function"
    },
    {
      "constant": true,
      "inputs": [],
      "name": "addrItemCore",
      "outputs": [
        {
          "name": "",
          "type": "address"
        }
      ],
      "payable": false,
      "stateMutability": "view",
      "type": "function"
    },
    {
      "constant": true,
      "inputs": [],
      "name": "contractGeneScience",
      "outputs": [
        {
          "name": "",
          "type": "address"
        }
      ],
      "payable": false,
      "stateMutability": "view",
      "type": "function"
    },
    {
      "constant": true,
      "inputs": [],
      "name": "contractEggCore",
      "outputs": [
        {
          "name": "",
          "type": "address"
        }
      ],
      "payable": false,
      "stateMutability": "view",
      "type": "function"
    },
    {
      "constant": true,
      "inputs": [
        {
          "name": "",
          "type": "uint256"
        }
      ],
      "name": "sireAllowedToAddress",
      "outputs": [
        {
          "name": "",
          "type": "address"
        }
      ],
      "payable": false,
      "stateMutability": "view",
      "type": "function"
    },
    {
      "constant": true,
      "inputs": [
        {
          "name": "_matronId",
          "type": "uint256"
        },
        {
          "name": "_sireId",
          "type": "uint256"
        }
      ],
      "name": "canBreedWith",
      "outputs": [
        {
          "name": "",
          "type": "bool"
        }
      ],
      "payable": false,
      "stateMutability": "view",
      "type": "function"
    },
    {
      "constant": false,
      "inputs": [
        {
          "name": "_addr",
          "type": "address"
        },
        {
          "name": "_sireId",
          "type": "uint256"
        }
      ],
      "name": "approveSiring",
      "outputs": [],
      "payable": false,
      "stateMutability": "nonpayable",
      "type": "function"
    },
    {
      "constant": true,
      "inputs": [],
      "name": "addrGeneScience",
      "outputs": [
        {
          "name": "",
          "type": "address"
        }
      ],
      "payable": false,
      "stateMutability": "view",
      "type": "function"
    },
    {
      "constant": true,
      "inputs": [
        {
          "name": "_heroId",
          "type": "uint256"
        }
      ],
      "name": "ownerOf",
      "outputs": [
        {
          "name": "owner",
          "type": "address"
        }
      ],
      "payable": false,
      "stateMutability": "view",
      "type": "function"
    },
    {
      "constant": true,
      "inputs": [
        {
          "name": "_owner",
          "type": "address"
        }
      ],
      "name": "balanceOf",
      "outputs": [
        {
          "name": "count",
          "type": "uint256"
        }
      ],
      "payable": false,
      "stateMutability": "view",
      "type": "function"
    },
    {
      "constant": true,
      "inputs": [],
      "name": "addrChest",
      "outputs": [
        {
          "name": "",
          "type": "address"
        }
      ],
      "payable": false,
      "stateMutability": "view",
      "type": "function"
    },
    {
      "constant": true,
      "inputs": [],
      "name": "secondsPerBlock",
      "outputs": [
        {
          "name": "",
          "type": "uint256"
        }
      ],
      "payable": false,
      "stateMutability": "view",
      "type": "function"
    },
    {
      "constant": false,
      "inputs": [
        {
          "name": "_matronId",
          "type": "uint256"
        },
        {
          "name": "_sireId",
          "type": "uint256"
        }
      ],
      "name": "breedWithOwned",
      "outputs": [],
      "payable": true,
      "stateMutability": "payable",
      "type": "function"
    },
    {
      "constant": true,
      "inputs": [],
      "name": "addrEggCore",
      "outputs": [
        {
          "name": "",
          "type": "address"
        }
      ],
      "payable": false,
      "stateMutability": "view",
      "type": "function"
    },
    {
      "constant": true,
      "inputs": [],
      "name": "symbol",
      "outputs": [
        {
          "name": "",
          "type": "string"
        }
      ],
      "payable": false,
      "stateMutability": "view",
      "type": "function"
    },
    {
      "constant": true,
      "inputs": [
        {
          "name": "_owner",
          "type": "address"
        }
      ],
      "name": "heroesOfOwner",
      "outputs": [
        {
          "name": "ownerHeroes",
          "type": "uint256[]"
        }
      ],
      "payable": false,
      "stateMutability": "view",
      "type": "function"
    },
    {
      "constant": true,
      "inputs": [
        {
          "name": "",
          "type": "address"
        }
      ],
      "name": "ownershipHeroCount",
      "outputs": [
        {
          "name": "",
          "type": "uint256"
        }
      ],
      "payable": false,
      "stateMutability": "view",
      "type": "function"
    },
    {
      "constant": true,
      "inputs": [
        {
          "name": "",
          "type": "uint256"
        }
      ],
      "name": "cooldowns",
      "outputs": [
        {
          "name": "",
          "type": "uint32"
        }
      ],
      "payable": false,
      "stateMutability": "view",
      "type": "function"
    },
    {
      "constant": true,
      "inputs": [
        {
          "name": "",
          "type": "uint256"
        }
      ],
      "name": "heroes",
      "outputs": [
        {
          "name": "date",
          "type": "uint256"
        },
        {
          "name": "price",
          "type": "uint256"
        },
        {
          "name": "tokenId",
          "type": "uint256"
        },
        {
          "name": "tokenPrice",
          "type": "uint256"
        },
        {
          "name": "genes",
          "type": "uint256"
        },
        {
          "name": "birthTime",
          "type": "uint64"
        },
        {
          "name": "cooldownEndBlock",
          "type": "uint64"
        },
        {
          "name": "matronId",
          "type": "uint32"
        },
        {
          "name": "sireId",
          "type": "uint32"
        },
        {
          "name": "siringWithId",
          "type": "uint32"
        },
        {
          "name": "cooldownIndex",
          "type": "uint16"
        },
        {
          "name": "generation",
          "type": "uint16"
        },
        {
          "name": "level",
          "type": "uint16"
        }
      ],
      "payable": false,
      "stateMutability": "view",
      "type": "function"
    },
    {
      "constant": false,
      "inputs": [
        {
          "name": "_to",
          "type": "address"
        },
        {
          "name": "_heroId",
          "type": "uint256"
        }
      ],
      "name": "transfer",
      "outputs": [],
      "payable": false,
      "stateMutability": "nonpayable",
      "type": "function"
    },
    {
      "constant": true,
      "inputs": [
        {
          "name": "",
          "type": "uint256"
        }
      ],
      "name": "heroIndexToOwner",
      "outputs": [
        {
          "name": "",
          "type": "address"
        }
      ],
      "payable": false,
      "stateMutability": "view",
      "type": "function"
    },
    {
      "constant": true,
      "inputs": [],
      "name": "autoBirthFee",
      "outputs": [
        {
          "name": "",
          "type": "uint256"
        }
      ],
      "payable": false,
      "stateMutability": "view",
      "type": "function"
    },
    {
      "constant": true,
      "inputs": [],
      "name": "breedTest",
      "outputs": [
        {
          "name": "",
          "type": "string"
        }
      ],
      "payable": false,
      "stateMutability": "pure",
      "type": "function"
    },
    {
      "constant": true,
      "inputs": [],
      "name": "addrAdmin",
      "outputs": [
        {
          "name": "",
          "type": "address"
        }
      ],
      "payable": false,
      "stateMutability": "view",
      "type": "function"
    },
    {
      "constant": false,
      "inputs": [
        {
          "name": "_addrItem",
          "type": "address"
        }
      ],
      "name": "setItemCoreAddress",
      "outputs": [],
      "payable": false,
      "stateMutability": "nonpayable",
      "type": "function"
    },
    {
      "constant": true,
      "inputs": [
        {
          "name": "_heroId",
          "type": "uint256"
        }
      ],
      "name": "isReadyToBreed",
      "outputs": [
        {
          "name": "",
          "type": "bool"
        }
      ],
      "payable": false,
      "stateMutability": "view",
      "type": "function"
    },
    {
      "constant": true,
      "inputs": [
        {
          "name": "",
          "type": "uint256"
        }
      ],
      "name": "heroIndexToApproved",
      "outputs": [
        {
          "name": "",
          "type": "address"
        }
      ],
      "payable": false,
      "stateMutability": "view",
      "type": "function"
    },
    {
      "constant": false,
      "inputs": [
        {
          "name": "_contractAddress",
          "type": "address"
        }
      ],
      "name": "setMetadataAddress",
      "outputs": [],
      "payable": false,
      "stateMutability": "nonpayable",
      "type": "function"
    },
    {
      "constant": false,
      "inputs": [
        {
          "name": "_date",
          "type": "uint256"
        },
        {
          "name": "_price",
          "type": "uint256"
        },
        {
          "name": "_tokenId",
          "type": "uint256"
        },
        {
          "name": "_tokenPrice",
          "type": "uint256"
        },
        {
          "name": "_matronId",
          "type": "uint256"
        },
        {
          "name": "_sireId",
          "type": "uint256"
        },
        {
          "name": "_generation",
          "type": "uint256"
        },
        {
          "name": "_genes",
          "type": "uint256"
        },
        {
          "name": "_level",
          "type": "uint16"
        },
        {
          "name": "_owner",
          "type": "address"
        }
      ],
      "name": "createHero",
      "outputs": [
        {
          "name": "",
          "type": "uint256"
        }
      ],
      "payable": false,
      "stateMutability": "nonpayable",
      "type": "function"
    },
    {
      "constant": true,
      "inputs": [],
      "name": "trc721Metadata",
      "outputs": [
        {
          "name": "",
          "type": "address"
        }
      ],
      "payable": false,
      "stateMutability": "view",
      "type": "function"
    },
    {
      "constant": false,
      "inputs": [
        {
          "name": "_addrChest",
          "type": "address"
        }
      ],
      "name": "setChestAddress",
      "outputs": [],
      "payable": false,
      "stateMutability": "nonpayable",
      "type": "function"
    },
    {
      "inputs": [],
      "payable": false,
      "stateMutability": "nonpayable",
      "type": "constructor"
    },
    {
      "anonymous": false,
      "inputs": [
        {
          "indexed": false,
          "name": "owner",
          "type": "address"
        },
        {
          "indexed": false,
          "name": "matronId",
          "type": "uint256"
        },
        {
          "indexed": false,
          "name": "sireId",
          "type": "uint256"
        },
        {
          "indexed": false,
          "name": "cooldownEndBlock",
          "type": "uint256"
        }
      ],
      "name": "Pregnant",
      "type": "event"
    },
    {
      "anonymous": false,
      "inputs": [
        {
          "indexed": false,
          "name": "from",
          "type": "address"
        },
        {
          "indexed": false,
          "name": "to",
          "type": "address"
        },
        {
          "indexed": false,
          "name": "tokenId",
          "type": "uint256"
        }
      ],
      "name": "Transfer",
      "type": "event"
    },
    {
      "anonymous": false,
      "inputs": [
        {
          "indexed": false,
          "name": "owner",
          "type": "address"
        },
        {
          "indexed": false,
          "name": "approved",
          "type": "address"
        },
        {
          "indexed": false,
          "name": "tokenId",
          "type": "uint256"
        }
      ],
      "name": "Approval",
      "type": "event"
    },
    {
      "anonymous": false,
      "inputs": [
        {
          "indexed": false,
          "name": "owner",
          "type": "address"
        },
        {
          "indexed": false,
          "name": "kittyId",
          "type": "uint256"
        },
        {
          "indexed": false,
          "name": "matronId",
          "type": "uint256"
        },
        {
          "indexed": false,
          "name": "sireId",
          "type": "uint256"
        },
        {
          "indexed": false,
          "name": "genes",
          "type": "uint256"
        },
        {
          "indexed": false,
          "name": "level",
          "type": "uint16"
        }
      ],
      "name": "Birth",
      "type": "event"
    },
    {
      "constant": true,
      "inputs": [],
      "name": "getHeroIdsOnSale",
      "outputs": [
        {
          "name": "",
          "type": "uint256[]"
        }
      ],
      "payable": false,
      "stateMutability": "view",
      "type": "function"
    },
    {
      "constant": false,
      "inputs": [
        {
          "name": "_price",
          "type": "uint256"
        },
        {
          "name": "_heroId",
          "type": "uint256"
        },
        {
          "name": "_auctionType",
          "type": "uint8"
        }
      ],
      "name": "addAuction",
      "outputs": [],
      "payable": false,
      "stateMutability": "nonpayable",
      "type": "function"
    },
    {
      "constant": true,
      "inputs": [
        {
          "name": "_heroId",
          "type": "uint256"
        }
      ],
      "name": "getHeroAuctionByheroId",
      "outputs": [
        {
          "name": "seller",
          "type": "address"
        },
        {
          "name": "price",
          "type": "uint256"
        },
        {
          "name": "heroId",
          "type": "uint256"
        },
        {
          "name": "auctionType",
          "type": "uint8"
        }
      ],
      "payable": false,
      "stateMutability": "view",
      "type": "function"
    },
    {
      "constant": true,
      "inputs": [],
      "name": "getHeroAuctionCount",
      "outputs": [
        {
          "name": "",
          "type": "uint256"
        }
      ],
      "payable": false,
      "stateMutability": "view",
      "type": "function"
    },
    {
      "constant": false,
      "inputs": [
        {
          "name": "_heroId",
          "type": "uint256"
        }
      ],
      "name": "bidAuction",
      "outputs": [],
      "payable": true,
      "stateMutability": "payable",
      "type": "function"
    },
    {
      "constant": false,
      "inputs": [
        {
          "name": "_heroId",
          "type": "uint256"
        },
        {
          "name": "_sireId",
          "type": "uint256"
        }
      ],
      "name": "bidSire",
      "outputs": [],
      "payable": true,
      "stateMutability": "payable",
      "type": "function"
    },
    {
      "constant": false,
      "inputs": [
        {
          "name": "_heroId",
          "type": "uint256"
        }
      ],
      "name": "cancelAuction",
      "outputs": [],
      "payable": false,
      "stateMutability": "nonpayable",
      "type": "function"
    }
  ],
  "bytecode": "0x60806040526101c060405190810160405280603c63ffffffff1663ffffffff168152602001607863ffffffff1663ffffffff16815260200161012c63ffffffff1663ffffffff16815260200161025863ffffffff1663ffffffff16815260200161070863ffffffff1663ffffffff168152602001610e1063ffffffff1663ffffffff168152602001611c2063ffffffff1663ffffffff16815260200161384063ffffffff1663ffffffff16815260200161708063ffffffff1663ffffffff16815260200161e10063ffffffff1663ffffffff1681526020016201518063ffffffff1663ffffffff1681526020016202a30063ffffffff1663ffffffff1681526020016205460063ffffffff1663ffffffff16815260200162093a8063ffffffff1663ffffffff16815250600090600e6200013b929190620001b9565b50600f60025562989680600c553480156200015557600080fd5b50d380156200016357600080fd5b50d280156200017157600080fd5b5033600360006101000a81548173ffffffffffffffffffffffffffffffffffffffff021916908373ffffffffffffffffffffffffffffffffffffffff16021790555062000299565b82600e600701600890048101928215620002505791602002820160005b838211156200021c57835183826101000a81548163ffffffff021916908363ffffffff1602179055509260200192600401602081600301049283019260010302620001d6565b80156200024e5782816101000a81549063ffffffff02191690556004016020816003010492830192600103026200021c565b505b5090506200025f919062000263565b5090565b6200029691905b808211156200029257600081816101000a81549063ffffffff0219169055506001016200026a565b5090565b90565b613fa680620002a96000396000f3fe60806040526004361061028f576000357c0100000000000000000000000000000000000000000000000000000000900480638a8fb54a1161016c578063b0c35c05116100de578063de3e305f11610097578063de3e305f1461154f578063e17b25af146115e4578063e32170ae1461164f578063f15f93881461172d578063f175408b1461179e578063f794ac1f146117d65761028f565b8063b0c35c05146112d2578063be9873d214611317578063bfae2f0e146113c1578063c492a1d414611432578063cb0e2c5a14611477578063d3e6f49f146114e25761028f565b8063994d953811610130578063994d953814610f035780639ca7722d14610fb35780639d6fac6f14611032578063a8d4a03b146110a7578063a9059cbb146111c8578063aa54beac1461123d5761028f565b80638a8fb54a14610c9b5780638ca22e1314610cd357806395d89b4114610d4457806396b5a75514610dee578063989555f814610e435761028f565b80634558f4c8116102055780636352211e116101c95780636352211e14610a3757806364a7d7c714610acc57806368f2911014610afa57806370a0823114610b6657806376c0b36714610be55780637a7d493714610c565761028f565b80634558f4c8146107d457806346116e6f1461084557806346d22c70146108da5780634dfff04f1461095157806357cea4fd146109c65761028f565b806318160ddd1161025757806318160ddd146104e257806318ad28511461052757806323b872dd146105d757806325d367621461066c5780632f6db1ee146106f25780633ba864fe146107635761028f565b80630153b8ee1461029457806301ffc9a7146102cc57806306fdde0314610358578063095ea7b314610402578063119c4d6314610477575b600080fd5b6102ca600480360360408110156102aa57600080fd5b810190808035906020019092919080359060200190929190505050611841565b005b3480156102d857600080fd5b50d380156102e557600080fd5b50d280156102f257600080fd5b5061033e6004803603602081101561030957600080fd5b8101908080357bffffffffffffffffffffffffffffffffffffffffffffffffffffffff19169060200190929190505050611879565b604051808215151515815260200191505060405180910390f35b34801561036457600080fd5b50d3801561037157600080fd5b50d2801561037e57600080fd5b50610387611b47565b6040518080602001828103825283818151815260200191508051906020019080838360005b838110156103c75780820151818401526020810190506103ac565b50505050905090810190601f1680156103f45780820380516001836020036101000a031916815260200191505b509250505060405180910390f35b34801561040e57600080fd5b50d3801561041b57600080fd5b50d2801561042857600080fd5b506104756004803603604081101561043f57600080fd5b81019080803573ffffffffffffffffffffffffffffffffffffffff16906020019092919080359060200190929190505050611b80565b005b34801561048357600080fd5b50d3801561049057600080fd5b50d2801561049d57600080fd5b506104e0600480360360208110156104b457600080fd5b81019080803573ffffffffffffffffffffffffffffffffffffffff169060200190929190505050611c42565b005b3480156104ee57600080fd5b50d380156104fb57600080fd5b50d2801561050857600080fd5b50610511611dd1565b6040518082815260200191505060405180910390f35b34801561053357600080fd5b50d3801561054057600080fd5b50d2801561054d57600080fd5b5061057a6004803603602081101561056457600080fd5b8101908080359060200190929190505050611de1565b604051808573ffffffffffffffffffffffffffffffffffffffff1673ffffffffffffffffffffffffffffffffffffffff1681526020018481526020018381526020018260ff1660ff16815260200194505050505060405180910390f35b3480156105e357600080fd5b50d380156105f057600080fd5b50d280156105fd57600080fd5b5061066a6004803603606081101561061457600080fd5b81019080803573ffffffffffffffffffffffffffffffffffffffff169060200190929190803573ffffffffffffffffffffffffffffffffffffffff16906020019092919080359060200190929190505050611e4d565b005b34801561067857600080fd5b50d3801561068557600080fd5b50d2801561069257600080fd5b5061069b611efe565b6040518080602001828103825283818151815260200191508051906020019060200280838360005b838110156106de5780820151818401526020810190506106c3565b505050509050019250505060405180910390f35b3480156106fe57600080fd5b50d3801561070b57600080fd5b50d2801561071857600080fd5b50610721611f0e565b604051808273ffffffffffffffffffffffffffffffffffffffff1673ffffffffffffffffffffffffffffffffffffffff16815260200191505060405180910390f35b34801561076f57600080fd5b50d3801561077c57600080fd5b50d2801561078957600080fd5b50610792611f34565b604051808273ffffffffffffffffffffffffffffffffffffffff1673ffffffffffffffffffffffffffffffffffffffff16815260200191505060405180910390f35b3480156107e057600080fd5b50d380156107ed57600080fd5b50d280156107fa57600080fd5b50610803611f5a565b604051808273ffffffffffffffffffffffffffffffffffffffff1673ffffffffffffffffffffffffffffffffffffffff16815260200191505060405180910390f35b34801561085157600080fd5b50d3801561085e57600080fd5b50d2801561086b57600080fd5b506108986004803603602081101561088257600080fd5b8101908080359060200190929190505050611f80565b604051808273ffffffffffffffffffffffffffffffffffffffff1673ffffffffffffffffffffffffffffffffffffffff16815260200191505060405180910390f35b3480156108e657600080fd5b50d380156108f357600080fd5b50d2801561090057600080fd5b506109376004803603604081101561091757600080fd5b810190808035906020019092919080359060200190929190505050611fb3565b604051808215151515815260200191505060405180910390f35b34801561095d57600080fd5b50d3801561096a57600080fd5b50d2801561097757600080fd5b506109c46004803603604081101561098e57600080fd5b81019080803573ffffffffffffffffffffffffffffffffffffffff1690602001909291908035906020019092919050505061203c565b005b3480156109d257600080fd5b50d380156109df57600080fd5b50d280156109ec57600080fd5b506109f56120a7565b604051808273ffffffffffffffffffffffffffffffffffffffff1673ffffffffffffffffffffffffffffffffffffffff16815260200191505060405180910390f35b348015610a4357600080fd5b50d38015610a5057600080fd5b50d28015610a5d57600080fd5b50610a8a60048036036020811015610a7457600080fd5b81019080803590602001909291905050506120cd565b604051808273ffffffffffffffffffffffffffffffffffffffff1673ffffffffffffffffffffffffffffffffffffffff16815260200191505060405180910390f35b610af860048036036020811015610ae257600080fd5b8101908080359060200190929190505050612146565b005b348015610b0657600080fd5b50d38015610b1357600080fd5b50d28015610b2057600080fd5b50610b6460048036036060811015610b3757600080fd5b810190808035906020019092919080359060200190929190803560ff1690602001909291905050506122af565b005b348015610b7257600080fd5b50d38015610b7f57600080fd5b50d28015610b8c57600080fd5b50610bcf60048036036020811015610ba357600080fd5b81019080803573ffffffffffffffffffffffffffffffffffffffff1690602001909291905050506123bc565b6040518082815260200191505060405180910390f35b348015610bf157600080fd5b50d38015610bfe57600080fd5b50d28015610c0b57600080fd5b50610c14612405565b604051808273ffffffffffffffffffffffffffffffffffffffff1673ffffffffffffffffffffffffffffffffffffffff16815260200191505060405180910390f35b348015610c6257600080fd5b50d38015610c6f57600080fd5b50d28015610c7c57600080fd5b50610c8561242b565b6040518082815260200191505060405180910390f35b610cd160048036036040811015610cb157600080fd5b810190808035906020019092919080359060200190929190505050612431565b005b348015610cdf57600080fd5b50d38015610cec57600080fd5b50d28015610cf957600080fd5b50610d0261247a565b604051808273ffffffffffffffffffffffffffffffffffffffff1673ffffffffffffffffffffffffffffffffffffffff16815260200191505060405180910390f35b348015610d5057600080fd5b50d38015610d5d57600080fd5b50d28015610d6a57600080fd5b50610d736124a0565b6040518080602001828103825283818151815260200191508051906020019080838360005b83811015610db3578082015181840152602081019050610d98565b50505050905090810190601f168015610de05780820380516001836020036101000a031916815260200191505b509250505060405180910390f35b348015610dfa57600080fd5b50d38015610e0757600080fd5b50d28015610e1457600080fd5b50610e4160048036036020811015610e2b57600080fd5b81019080803590602001909291905050506124d9565b005b348015610e4f57600080fd5b50d38015610e5c57600080fd5b50d28015610e6957600080fd5b50610eac60048036036020811015610e8057600080fd5b81019080803573ffffffffffffffffffffffffffffffffffffffff1690602001909291905050506125f4565b6040518080602001828103825283818151815260200191508051906020019060200280838360005b83811015610eef578082015181840152602081019050610ed4565b505050509050019250505060405180910390f35b348015610f0f57600080fd5b50d38015610f1c57600080fd5b50d28015610f2957600080fd5b50610f5660048036036020811015610f4057600080fd5b8101908080359060200190929190505050612742565b604051808573ffffffffffffffffffffffffffffffffffffffff1673ffffffffffffffffffffffffffffffffffffffff1681526020018481526020018381526020018260ff1660ff16815260200194505050505060405180910390f35b348015610fbf57600080fd5b50d38015610fcc57600080fd5b50d28015610fd957600080fd5b5061101c60048036036020811015610ff057600080fd5b81019080803573ffffffffffffffffffffffffffffffffffffffff16906020019092919050505061281f565b6040518082815260200191505060405180910390f35b34801561103e57600080fd5b50d3801561104b57600080fd5b50d2801561105857600080fd5b506110856004803603602081101561106f57600080fd5b8101908080359060200190929190505050612837565b604051808263ffffffff1663ffffffff16815260200191505060405180910390f35b3480156110b357600080fd5b50d380156110c057600080fd5b50d280156110cd57600080fd5b506110fa600480360360208110156110e457600080fd5b8101908080359060200190929190505050612866565b604051808e81526020018d81526020018c81526020018b81526020018a81526020018967ffffffffffffffff1667ffffffffffffffff1681526020018867ffffffffffffffff1667ffffffffffffffff1681526020018763ffffffff1663ffffffff1681526020018663ffffffff1663ffffffff1681526020018563ffffffff1663ffffffff1681526020018461ffff1661ffff1681526020018361ffff1661ffff1681526020018261ffff1661ffff1681526020019d505050505050505050505050505060405180910390f35b3480156111d457600080fd5b50d380156111e157600080fd5b50d280156111ee57600080fd5b5061123b6004803603604081101561120557600080fd5b81019080803573ffffffffffffffffffffffffffffffffffffffff1690602001909291908035906020019092919050505061295d565b005b34801561124957600080fd5b50d3801561125657600080fd5b50d2801561126357600080fd5b506112906004803603602081101561127a57600080fd5b81019080803590602001909291905050506129f8565b604051808273ffffffffffffffffffffffffffffffffffffffff1673ffffffffffffffffffffffffffffffffffffffff16815260200191505060405180910390f35b3480156112de57600080fd5b50d380156112eb57600080fd5b50d280156112f857600080fd5b50611301612a2b565b6040518082815260200191505060405180910390f35b34801561132357600080fd5b50d3801561133057600080fd5b50d2801561133d57600080fd5b50611346612a31565b6040518080602001828103825283818151815260200191508051906020019080838360005b8381101561138657808201518184015260208101905061136b565b50505050905090810190601f1680156113b35780820380516001836020036101000a031916815260200191505b509250505060405180910390f35b3480156113cd57600080fd5b50d380156113da57600080fd5b50d280156113e757600080fd5b506113f0612a6e565b604051808273ffffffffffffffffffffffffffffffffffffffff1673ffffffffffffffffffffffffffffffffffffffff16815260200191505060405180910390f35b34801561143e57600080fd5b50d3801561144b57600080fd5b50d2801561145857600080fd5b50611461612a94565b6040518082815260200191505060405180910390f35b34801561148357600080fd5b50d3801561149057600080fd5b50d2801561149d57600080fd5b506114e0600480360360208110156114b457600080fd5b81019080803573ffffffffffffffffffffffffffffffffffffffff169060200190929190505050612aa1565b005b3480156114ee57600080fd5b50d380156114fb57600080fd5b50d2801561150857600080fd5b506115356004803603602081101561151f57600080fd5b8101908080359060200190929190505050612b41565b604051808215151515815260200191505060405180910390f35b34801561155b57600080fd5b50d3801561156857600080fd5b50d2801561157557600080fd5b506115a26004803603602081101561158c57600080fd5b8101908080359060200190929190505050612cf8565b604051808273ffffffffffffffffffffffffffffffffffffffff1673ffffffffffffffffffffffffffffffffffffffff16815260200191505060405180910390f35b3480156115f057600080fd5b50d380156115fd57600080fd5b50d2801561160a57600080fd5b5061164d6004803603602081101561162157600080fd5b81019080803573ffffffffffffffffffffffffffffffffffffffff169060200190929190505050612d2b565b005b34801561165b57600080fd5b50d3801561166857600080fd5b50d2801561167557600080fd5b50611717600480360361014081101561168d57600080fd5b810190808035906020019092919080359060200190929190803590602001909291908035906020019092919080359060200190929190803590602001909291908035906020019092919080359060200190929190803561ffff169060200190929190803573ffffffffffffffffffffffffffffffffffffffff169060200190929190505050612dcb565b6040518082815260200191505060405180910390f35b34801561173957600080fd5b50d3801561174657600080fd5b50d2801561175357600080fd5b5061175c613150565b604051808273ffffffffffffffffffffffffffffffffffffffff1673ffffffffffffffffffffffffffffffffffffffff16815260200191505060405180910390f35b6117d4600480360360408110156117b457600080fd5b810190808035906020019092919080359060200190929190505050613176565b005b3480156117e257600080fd5b50d380156117ef57600080fd5b50d280156117fc57600080fd5b5061183f6004803603602081101561181357600080fd5b81019080803573ffffffffffffffffffffffffffffffffffffffff1690602001909291905050506132ee565b005b61184b338361338e565b151561185657600080fd5b611860338261338e565b151561186b57600080fd5b61187582826133fa565b5050565b600060405180807f737570706f727473496e74657266616365286279746573342900000000000000815250601901905060405180910390207bffffffffffffffffffffffffffffffffffffffffffffffffffffffff1916827bffffffffffffffffffffffffffffffffffffffffffffffffffffffff19161480611b40575060405180807f746f6b656e4d657461646174612875696e743235362c737472696e6729000000815250601d019050604051809103902060405180807f6865726f65734f664f776e657228616464726573732900000000000000000000815250601601905060405180910390206040518080613f56602591396025019050604051809103902060405180807f7472616e7366657228616464726573732c75696e7432353629000000000000008152506019019050604051809103902060405180807f617070726f766528616464726573732c75696e743235362900000000000000008152506018019050604051809103902060405180807f6f776e65724f662875696e7432353629000000000000000000000000000000008152506010019050604051809103902060405180807f62616c616e63654f6628616464726573732900000000000000000000000000008152506012019050604051809103902060405180807f746f74616c537570706c79282900000000000000000000000000000000000000815250600d019050604051809103902060405180807f73796d626f6c28290000000000000000000000000000000000000000000000008152506008019050604051809103902060405180807f6e616d6528290000000000000000000000000000000000000000000000000000815250600601905060405180910390201818181818181818187bffffffffffffffffffffffffffffffffffffffffffffffffffffffff1916827bffffffffffffffffffffffffffffffffffffffffffffffffffffffff1916145b9050919050565b6040805190810160405280600881526020017f505a4865726f657300000000000000000000000000000000000000000000000081525081565b611b8a338261338e565b1515611b9557600080fd5b611b9f81836136f7565b7f8c5be1e5ebec7d5bd14f71427d1e84f3dd0314c0f7b2291e5b200ac8c7c3b925338383604051808473ffffffffffffffffffffffffffffffffffffffff1673ffffffffffffffffffffffffffffffffffffffff1681526020018373ffffffffffffffffffffffffffffffffffffffff1673ffffffffffffffffffffffffffffffffffffffff168152602001828152602001935050505060405180910390a15050565b600360009054906101000a900473ffffffffffffffffffffffffffffffffffffffff1673ffffffffffffffffffffffffffffffffffffffff163373ffffffffffffffffffffffffffffffffffffffff16141515611c9e57600080fd5b80600e60006101000a81548173ffffffffffffffffffffffffffffffffffffffff021916908373ffffffffffffffffffffffffffffffffffffffff16021790555060008190508073ffffffffffffffffffffffffffffffffffffffff166354c15b826040518163ffffffff167c010000000000000000000000000000000000000000000000000000000002815260040160206040518083038186803b158015611d4657600080fd5b505afa158015611d5a573d6000803e3d6000fd5b505050506040513d6020811015611d7057600080fd5b81019080805190602001909291905050501515611d8c57600080fd5b80600d60006101000a81548173ffffffffffffffffffffffffffffffffffffffff021916908373ffffffffffffffffffffffffffffffffffffffff1602179055505050565b6000600160068054905003905090565b601281815481101515611df057fe5b90600052602060002090600402016000915090508060000160009054906101000a900473ffffffffffffffffffffffffffffffffffffffff16908060010154908060020154908060030160009054906101000a900460ff16905084565b600073ffffffffffffffffffffffffffffffffffffffff168273ffffffffffffffffffffffffffffffffffffffff1614151515611e8957600080fd5b3073ffffffffffffffffffffffffffffffffffffffff168273ffffffffffffffffffffffffffffffffffffffff1614151515611ec457600080fd5b611ece338261374d565b1515611ed957600080fd5b611ee3838261338e565b1515611eee57600080fd5b611ef98383836137b9565b505050565b6060611f09306125f4565b905090565b600560009054906101000a900473ffffffffffffffffffffffffffffffffffffffff1681565b600d60009054906101000a900473ffffffffffffffffffffffffffffffffffffffff1681565b600f60009054906101000a900473ffffffffffffffffffffffffffffffffffffffff1681565b600a6020528060005260406000206000915054906101000a900473ffffffffffffffffffffffffffffffffffffffff1681565b60008083111515611fc357600080fd5b600082111515611fd257600080fd5b6000600684815481101515611fe357fe5b90600052602060002090600702019050600060068481548110151561200457fe5b90600052602060002090600702019050612020828683876139f1565b801561203257506120318486613c06565b5b9250505092915050565b612046338261338e565b151561205157600080fd5b81600a600083815260200190815260200160002060006101000a81548173ffffffffffffffffffffffffffffffffffffffff021916908373ffffffffffffffffffffffffffffffffffffffff1602179055505050565b600e60009054906101000a900473ffffffffffffffffffffffffffffffffffffffff1681565b60006007600083815260200190815260200160002060009054906101000a900473ffffffffffffffffffffffffffffffffffffffff169050600073ffffffffffffffffffffffffffffffffffffffff168173ffffffffffffffffffffffffffffffffffffffff161415151561214157600080fd5b919050565b612150308261338e565b151561215b57600080fd5b612163613e78565b60116000838152602001908152602001600020608060405190810160405290816000820160009054906101000a900473ffffffffffffffffffffffffffffffffffffffff1673ffffffffffffffffffffffffffffffffffffffff1673ffffffffffffffffffffffffffffffffffffffff16815260200160018201548152602001600282015481526020016003820160009054906101000a900460ff1660ff1660ff16815250509050612215338361338e565b15151561222157600080fd5b34816020015114151561223357600080fd5b600060ff16816060015160ff1614151561224c57600080fd5b61225582613d19565b6122603033846137b9565b806000015173ffffffffffffffffffffffffffffffffffffffff166108fc349081150290604051600060405180830381858888f193505050501580156122aa573d6000803e3d6000fd5b505050565b6122b9338361338e565b15156122c457600080fd5b6000831115156122d357600080fd5b6122db613e78565b6080604051908101604052803373ffffffffffffffffffffffffffffffffffffffff1681526020018581526020018481526020018360ff1681525090506123233330856137b9565b806011600085815260200190815260200160002060008201518160000160006101000a81548173ffffffffffffffffffffffffffffffffffffffff021916908373ffffffffffffffffffffffffffffffffffffffff160217905550602082015181600101556040820151816002015560608201518160030160006101000a81548160ff021916908360ff16021790555090505050505050565b6000600860008373ffffffffffffffffffffffffffffffffffffffff1673ffffffffffffffffffffffffffffffffffffffff168152602001908152602001600020549050919050565b600460009054906101000a900473ffffffffffffffffffffffffffffffffffffffff1681565b60025481565b600c54341015151561244257600080fd5b61244c338361338e565b151561245757600080fd5b612461338261338e565b151561246c57600080fd5b61247682826133fa565b5050565b601060009054906101000a900473ffffffffffffffffffffffffffffffffffffffff1681565b6040805190810160405280600281526020017f504800000000000000000000000000000000000000000000000000000000000081525081565b6124e3308261338e565b15156124ee57600080fd5b6124f6613e78565b60116000838152602001908152602001600020608060405190810160405290816000820160009054906101000a900473ffffffffffffffffffffffffffffffffffffffff1673ffffffffffffffffffffffffffffffffffffffff1673ffffffffffffffffffffffffffffffffffffffff16815260200160018201548152602001600282015481526020016003820160009054906101000a900460ff1660ff1660ff16815250509050806000015173ffffffffffffffffffffffffffffffffffffffff163373ffffffffffffffffffffffffffffffffffffffff161415156125dc57600080fd5b6125e582613d19565b6125f03033846137b9565b5050565b60606000612601836123bc565b9050600081141561264557600060405190808252806020026020018201604052801561263c5781602001602082028038833980820191505090505b5091505061273d565b6060816040519080825280602002602001820160405280156126765781602001602082028038833980820191505090505b5090506000612683611dd1565b905060008090506000600190505b8281111515612734578673ffffffffffffffffffffffffffffffffffffffff166007600083815260200190815260200160002060009054906101000a900473ffffffffffffffffffffffffffffffffffffffff1673ffffffffffffffffffffffffffffffffffffffff1614156127275780848381518110151561271057fe5b906020019060200201818152505081806001019250505b8080600101915050612691565b83955050505050505b919050565b600080600080612750613e78565b60116000878152602001908152602001600020608060405190810160405290816000820160009054906101000a900473ffffffffffffffffffffffffffffffffffffffff1673ffffffffffffffffffffffffffffffffffffffff1673ffffffffffffffffffffffffffffffffffffffff16815260200160018201548152602001600282015481526020016003820160009054906101000a900460ff1660ff1660ff1681525050905080600001518160200151826040015183606001518393509450945094509450509193509193565b60086020528060005260406000206000915090505481565b600081600e8110151561284657fe5b60089182820401919006600402915054906101000a900463ffffffff1681565b60068181548110151561287557fe5b90600052602060002090600702016000915090508060000154908060010154908060020154908060030154908060040154908060050160009054906101000a900467ffffffffffffffff16908060050160089054906101000a900467ffffffffffffffff16908060050160109054906101000a900463ffffffff16908060050160149054906101000a900463ffffffff16908060050160189054906101000a900463ffffffff169080600501601c9054906101000a900461ffff169080600501601e9054906101000a900461ffff16908060060160009054906101000a900461ffff1690508d565b600073ffffffffffffffffffffffffffffffffffffffff168273ffffffffffffffffffffffffffffffffffffffff161415151561299957600080fd5b3073ffffffffffffffffffffffffffffffffffffffff168273ffffffffffffffffffffffffffffffffffffffff16141515156129d457600080fd5b6129de338261338e565b15156129e957600080fd5b6129f43383836137b9565b5050565b60076020528060005260406000206000915054906101000a900473ffffffffffffffffffffffffffffffffffffffff1681565b600c5481565b60606040805190810160405280600a81526020017f4272656564205465737400000000000000000000000000000000000000000000815250905090565b600360009054906101000a900473ffffffffffffffffffffffffffffffffffffffff1681565b6000601280549050905090565b600360009054906101000a900473ffffffffffffffffffffffffffffffffffffffff1673ffffffffffffffffffffffffffffffffffffffff163373ffffffffffffffffffffffffffffffffffffffff16141515612afd57600080fd5b80600560006101000a81548173ffffffffffffffffffffffffffffffffffffffff021916908373ffffffffffffffffffffffffffffffffffffffff16021790555050565b60008082111515612b5157600080fd5b6000600683815481101515612b6257fe5b90600052602060002090600702019050612cf0816101a0604051908101604052908160008201548152602001600182015481526020016002820154815260200160038201548152602001600482015481526020016005820160009054906101000a900467ffffffffffffffff1667ffffffffffffffff1667ffffffffffffffff1681526020016005820160089054906101000a900467ffffffffffffffff1667ffffffffffffffff1667ffffffffffffffff1681526020016005820160109054906101000a900463ffffffff1663ffffffff1663ffffffff1681526020016005820160149054906101000a900463ffffffff1663ffffffff1663ffffffff1681526020016005820160189054906101000a900463ffffffff1663ffffffff1663ffffffff16815260200160058201601c9054906101000a900461ffff1661ffff1661ffff16815260200160058201601e9054906101000a900461ffff1661ffff1661ffff1681526020016006820160009054906101000a900461ffff1661ffff1661ffff1681525050613d7d565b915050919050565b60096020528060005260406000206000915054906101000a900473ffffffffffffffffffffffffffffffffffffffff1681565b600360009054906101000a900473ffffffffffffffffffffffffffffffffffffffff1673ffffffffffffffffffffffffffffffffffffffff163373ffffffffffffffffffffffffffffffffffffffff16141515612d8757600080fd5b80600b60006101000a81548173ffffffffffffffffffffffffffffffffffffffff021916908373ffffffffffffffffffffffffffffffffffffffff16021790555050565b60008663ffffffff1687141515612de157600080fd5b8563ffffffff1686141515612df557600080fd5b8461ffff1685141515612e0757600080fd5b6000600286811515612e1557fe5b049050600d8161ffff161115612e2a57600d90505b612e32613eba565b6101a0604051908101604052808e81526020018d81526020018c81526020018b81526020018781526020014267ffffffffffffffff168152602001600067ffffffffffffffff1681526020018a63ffffffff1681526020018963ffffffff168152602001600063ffffffff1681526020018361ffff1681526020018861ffff1681526020018661ffff1681525090506000600160068390806001815401808255809150509060018203906000526020600020906007020160009091929091909150600082015181600001556020820151816001015560408201518160020155606082015181600301556080820151816004015560a08201518160050160006101000a81548167ffffffffffffffff021916908367ffffffffffffffff16021790555060c08201518160050160086101000a81548167ffffffffffffffff021916908367ffffffffffffffff16021790555060e08201518160050160106101000a81548163ffffffff021916908363ffffffff1602179055506101008201518160050160146101000a81548163ffffffff021916908363ffffffff1602179055506101208201518160050160186101000a81548163ffffffff021916908363ffffffff16021790555061014082015181600501601c6101000a81548161ffff021916908361ffff16021790555061016082015181600501601e6101000a81548161ffff021916908361ffff1602179055506101808201518160060160006101000a81548161ffff021916908361ffff16021790555050500390508063ffffffff168114151561307f57600080fd5b7f6bdb6252e3aabe7c79b1e94c2d24f9cbed550af06f37098cc8e28e34c6140c6685828460e0015163ffffffff1685610100015163ffffffff168660800151876101800151604051808773ffffffffffffffffffffffffffffffffffffffff1673ffffffffffffffffffffffffffffffffffffffff1681526020018681526020018581526020018481526020018381526020018261ffff1661ffff168152602001965050505050505060405180910390a161313c600086836137b9565b8093505050509a9950505050505050505050565b600b60009054906101000a900473ffffffffffffffffffffffffffffffffffffffff1681565b613180308361338e565b151561318b57600080fd5b613193613e78565b60116000848152602001908152602001600020608060405190810160405290816000820160009054906101000a900473ffffffffffffffffffffffffffffffffffffffff1673ffffffffffffffffffffffffffffffffffffffff1673ffffffffffffffffffffffffffffffffffffffff16815260200160018201548152602001600282015481526020016003820160009054906101000a900460ff1660ff1660ff16815250509050613245338461338e565b15151561325157600080fd5b34816020015114151561326357600080fd5b600160ff16816060015160ff1614151561327c57600080fd5b61328583613d19565b613294308260000151856137b9565b61329e83836133fa565b806000015173ffffffffffffffffffffffffffffffffffffffff166108fc349081150290604051600060405180830381858888f193505050501580156132e8573d6000803e3d6000fd5b50505050565b600360009054906101000a900473ffffffffffffffffffffffffffffffffffffffff1673ffffffffffffffffffffffffffffffffffffffff163373ffffffffffffffffffffffffffffffffffffffff1614151561334a57600080fd5b80600460006101000a81548173ffffffffffffffffffffffffffffffffffffffff021916908373ffffffffffffffffffffffffffffffffffffffff16021790555050565b60008273ffffffffffffffffffffffffffffffffffffffff166007600084815260200190815260200160002060009054906101000a900473ffffffffffffffffffffffffffffffffffffffff1673ffffffffffffffffffffffffffffffffffffffff1614905092915050565b600060068281548110151561340b57fe5b90600052602060002090600702019050600060068481548110151561342c57fe5b90600052602060002090600702019050828160050160186101000a81548163ffffffff021916908363ffffffff16021790555061346882613da2565b61347181613da2565b600a600085815260200190815260200160002060006101000a81549073ffffffffffffffffffffffffffffffffffffffff0219169055600a600084815260200190815260200160002060006101000a81549073ffffffffffffffffffffffffffffffffffffffff0219169055600f60009054906101000a900473ffffffffffffffffffffffffffffffffffffffff1673ffffffffffffffffffffffffffffffffffffffff16639f5010e06007600087815260200190815260200160002060009054906101000a900473ffffffffffffffffffffffffffffffffffffffff16428560010154866002015487600301548a8a6040518863ffffffff167c0100000000000000000000000000000000000000000000000000000000028152600401808873ffffffffffffffffffffffffffffffffffffffff1673ffffffffffffffffffffffffffffffffffffffff168152602001878152602001868152602001858152602001848152602001838152602001828152602001975050505050505050600060405180830381600087803b15801561360957600080fd5b505af115801561361d573d6000803e3d6000fd5b505050507f241ea03ca20251805084d27d4440371c34a0b85ff108f6bb5611248f73818b806007600086815260200190815260200160002060009054906101000a900473ffffffffffffffffffffffffffffffffffffffff1685858460050160089054906101000a900467ffffffffffffffff16604051808573ffffffffffffffffffffffffffffffffffffffff1673ffffffffffffffffffffffffffffffffffffffff1681526020018481526020018381526020018267ffffffffffffffff16815260200194505050505060405180910390a150505050565b806009600084815260200190815260200160002060006101000a81548173ffffffffffffffffffffffffffffffffffffffff021916908373ffffffffffffffffffffffffffffffffffffffff1602179055505050565b60008273ffffffffffffffffffffffffffffffffffffffff166009600084815260200190815260200160002060009054906101000a900473ffffffffffffffffffffffffffffffffffffffff1673ffffffffffffffffffffffffffffffffffffffff1614905092915050565b600860008373ffffffffffffffffffffffffffffffffffffffff1673ffffffffffffffffffffffffffffffffffffffff16815260200190815260200160002060008154809291906001019190505550816007600083815260200190815260200160002060006101000a81548173ffffffffffffffffffffffffffffffffffffffff021916908373ffffffffffffffffffffffffffffffffffffffff160217905550600073ffffffffffffffffffffffffffffffffffffffff168373ffffffffffffffffffffffffffffffffffffffff1614151561394d57600860008473ffffffffffffffffffffffffffffffffffffffff1673ffffffffffffffffffffffffffffffffffffffff1681526020019081526020016000206000815480929190600190039190505550600a600082815260200190815260200160002060006101000a81549073ffffffffffffffffffffffffffffffffffffffff02191690556009600082815260200190815260200160002060006101000a81549073ffffffffffffffffffffffffffffffffffffffff02191690555b7fddf252ad1be2c89b69c2b068fc378daa952ba7f163c4a11628f55a4df523b3ef838383604051808473ffffffffffffffffffffffffffffffffffffffff1673ffffffffffffffffffffffffffffffffffffffff1681526020018373ffffffffffffffffffffffffffffffffffffffff1673ffffffffffffffffffffffffffffffffffffffff168152602001828152602001935050505060405180910390a1505050565b600081841415613a045760009050613bfe565b818560050160109054906101000a900463ffffffff1663ffffffff161480613a455750818560050160149054906101000a900463ffffffff1663ffffffff16145b15613a535760009050613bfe565b838360050160109054906101000a900463ffffffff1663ffffffff161480613a945750838360050160149054906101000a900463ffffffff1663ffffffff16145b15613aa25760009050613bfe565b60008360050160109054906101000a900463ffffffff1663ffffffff161480613ae5575060008560050160109054906101000a900463ffffffff1663ffffffff16145b15613af35760019050613bfe565b8460050160109054906101000a900463ffffffff1663ffffffff168360050160109054906101000a900463ffffffff1663ffffffff161480613b6857508460050160149054906101000a900463ffffffff1663ffffffff168360050160109054906101000a900463ffffffff1663ffffffff16145b15613b765760009050613bfe565b8460050160109054906101000a900463ffffffff1663ffffffff168360050160149054906101000a900463ffffffff1663ffffffff161480613beb57508460050160149054906101000a900463ffffffff1663ffffffff168360050160149054906101000a900463ffffffff1663ffffffff16145b15613bf95760009050613bfe565b600190505b949350505050565b6000806007600084815260200190815260200160002060009054906101000a900473ffffffffffffffffffffffffffffffffffffffff16905060006007600086815260200190815260200160002060009054906101000a900473ffffffffffffffffffffffffffffffffffffffff1690508073ffffffffffffffffffffffffffffffffffffffff168273ffffffffffffffffffffffffffffffffffffffff161480613d0f57508173ffffffffffffffffffffffffffffffffffffffff16600a600087815260200190815260200160002060009054906101000a900473ffffffffffffffffffffffffffffffffffffffff1673ffffffffffffffffffffffffffffffffffffffff16145b9250505092915050565b60116000828152602001908152602001600020600080820160006101000a81549073ffffffffffffffffffffffffffffffffffffffff0219169055600182016000905560028201600090556003820160006101000a81549060ff0219169055505050565b60004367ffffffffffffffff168260c0015167ffffffffffffffff1611159050919050565b43600254600083600501601c9054906101000a900461ffff1661ffff16600e81101515613dcb57fe5b600891828204019190066004029054906101000a900463ffffffff1663ffffffff16811515613df657fe5b04018160050160086101000a81548167ffffffffffffffff021916908367ffffffffffffffff160217905550600d81600501601c9054906101000a900461ffff1661ffff161015613e7557600181600501601c8282829054906101000a900461ffff160192506101000a81548161ffff021916908361ffff1602179055505b50565b608060405190810160405280600073ffffffffffffffffffffffffffffffffffffffff1681526020016000815260200160008152602001600060ff1681525090565b6101a0604051908101604052806000815260200160008152602001600081526020016000815260200160008152602001600067ffffffffffffffff168152602001600067ffffffffffffffff168152602001600063ffffffff168152602001600063ffffffff168152602001600063ffffffff168152602001600061ffff168152602001600061ffff168152602001600061ffff168152509056fe7472616e7366657246726f6d28616464726573732c616464726573732c75696e7432353629a165627a7a7230582039cd8a65ae46067ceeb4eea48c6285bb51af103e1f067d39161f10ec066cbdec0029",
  "source": "pragma solidity ^0.5.0;\n\nimport \"./PZHeroBreeding.sol\";\n\ncontract PZHeroMarketplace is PZHeroBreeding\n{\n    uint8 private constant       PZ_HERO_AUCTION_SALE = 0;\n    uint8 private constant       PZ_HERO_AUCTION_SIRE = 1;\n\n    struct HeroAuction {\n        address payable seller;\n        uint256 startingPrice;\n        uint256 heroId;\n        uint8   auctionType;\n        // uint256 endingPrice;\n        // uint64  duration;\n        // uint64  startedAt;\n    }\n\n    mapping (uint256 => HeroAuction) heroIdToAuction;\n    HeroAuction[] public       heroAuctions;\n\n    /**\n    * Constructor\n    *\n     */\n    constructor() public\n    {\n \n    }\n\n    /**\n    * Get Ids of Heroes on the Marketplace Sale\n    *\n    * @return heroesOfOwner               Heroes of Owner\n    *\n     */\n    function getHeroIdsOnSale() public view returns(uint256[] memory)\n    {\n        return heroesOfOwner(address(this));\n    }\n\n    /**\n    * Place an Hero to Aunction on marketplace\n    *\n    * @param _price                 Price to Sell\n    * @param _heroId                Hero Id\n    * @param _auctionType           Auction type; sale or sire\n    *\n     */\n    function addAuction(uint _price, uint _heroId, uint8 _auctionType) public\n    {\n        require(_owns(msg.sender, _heroId));\n        require(_price > 0);\n\n        HeroAuction memory _auction = HeroAuction(msg.sender, _price, _heroId, _auctionType);\n\n        // uint256 newAuctionId = HeroAuctions.push(_auction) - 1;\n        _transfer(msg.sender, address(this), _heroId);\n        heroIdToAuction[_heroId] = _auction;\n    }\n\n    /**\n    * Get Information of Auction By Hero ID\n    *\n    * @param _heroId                 Hero Id\n    *\n    * @return seller                Seller's Address\n    * @return price                 Price\n    * @return heroId                Hero Id\n    * @return auctionType           Auction Type\n    *\n     */\n    function getHeroAuctionByheroId(uint256 _heroId)\n        public\n        view\n        returns(address seller, uint256 price, uint256 heroId, uint8 auctionType)\n    {\n        HeroAuction memory _auction = heroIdToAuction[_heroId];\n        return(_auction.seller, _auction.startingPrice, _auction.heroId, _auction.auctionType);\n    }\n\n    /**\n    * Get Count of Auction Sale\n    *\n    * @return count                Count of Auction Sale\n    *\n     */\n    function getHeroAuctionCount() external view returns(uint256)\n    {\n        return heroAuctions.length;\n    }\n\n    /**\n    * Remove Auction By Hero ID\n    *\n    * @param _heroId                 Hero ID\n    *\n     */\n    function _removeAuction(uint256 _heroId) internal {\n        delete heroIdToAuction[_heroId];\n    }\n\n    /**\n    * Bid on Auction Sale\n    *\n    * @param _heroId                 Hero ID\n    *\n     */\n    function bidAuction(uint256 _heroId) external payable\n    {\n        require(_owns(address(this), _heroId));\n        HeroAuction memory _auction = heroIdToAuction[_heroId];\n        require(!_owns(msg.sender, _heroId));\n        require(_auction.startingPrice == msg.value);\n        require(_auction.auctionType == PZ_HERO_AUCTION_SALE);\n\n        _removeAuction(_heroId);\n        _transfer(address(this), msg.sender, _heroId);\n        address(_auction.seller).transfer(msg.value);\n    }\n\n    /**\n    * Bid on Auction Sire\n    *\n    * @param _heroId                 Hero ID\n    * @param _sireId                 Sire ID\n    *\n     */\n    function bidSire(uint256 _heroId, uint256 _sireId) external payable\n    {\n        require(_owns(address(this), _heroId));\n        HeroAuction memory _auction = heroIdToAuction[_heroId];\n        require(!_owns(msg.sender, _heroId));\n        require(_auction.startingPrice == msg.value);\n        require(_auction.auctionType == PZ_HERO_AUCTION_SIRE);\n\n        _removeAuction(_heroId);\n        _transfer(address(this), _auction.seller, _heroId);\n        _breedWith(_heroId, _sireId);\n        address(_auction.seller).transfer(msg.value);\n    }\n\n    /**\n    * Cancel Auction By Hero ID\n    *\n    * @param _heroId                 Hero ID\n    *\n     */\n    function cancelAuction(uint256 _heroId) external\n    {\n        require(_owns(address(this), _heroId));\n        HeroAuction memory _auction = heroIdToAuction[_heroId];\n        require(msg.sender == _auction.seller);\n\n        _removeAuction(_heroId);\n        _transfer(address(this), msg.sender, _heroId);\n    }\n}",
  "sourcePath": "/home/ubuntu/dev/Boby/pizzaHero/contracts/PZHeroMarketplace.sol",
  "compiler": {
    "name": "solc",
    "version": "0.5.4+commit.d15a3125.mod.Emscripten.clang"
  },
  "schemaVersion": "2.0.1",
  "updatedAt": "2021-03-24T05:12:23.523Z"
}