{
  "contractName": "PZHeroBreeding",
  "abi": [
    {
      "constant": true,
      "inputs": [
        {
          "name": "_interfaceID",
          "type": "bytes4"
        }
      ],
      "name": "supportsInterface",
      "outputs": [
        {
          "name": "",
          "type": "bool"
        }
      ],
      "payable": false,
      "stateMutability": "view",
      "type": "function"
    },
    {
      "constant": true,
      "inputs": [],
      "name": "name",
      "outputs": [
        {
          "name": "",
          "type": "string"
        }
      ],
      "payable": false,
      "stateMutability": "view",
      "type": "function"
    },
    {
      "constant": false,
      "inputs": [
        {
          "name": "_to",
          "type": "address"
        },
        {
          "name": "_heroId",
          "type": "uint256"
        }
      ],
      "name": "approve",
      "outputs": [],
      "payable": false,
      "stateMutability": "nonpayable",
      "type": "function"
    },
    {
      "constant": true,
      "inputs": [],
      "name": "totalSupply",
      "outputs": [
        {
          "name": "",
          "type": "uint256"
        }
      ],
      "payable": false,
      "stateMutability": "view",
      "type": "function"
    },
    {
      "constant": false,
      "inputs": [
        {
          "name": "_from",
          "type": "address"
        },
        {
          "name": "_to",
          "type": "address"
        },
        {
          "name": "_heroId",
          "type": "uint256"
        }
      ],
      "name": "transferFrom",
      "outputs": [],
      "payable": false,
      "stateMutability": "nonpayable",
      "type": "function"
    },
    {
      "constant": true,
      "inputs": [],
      "name": "addrItemCore",
      "outputs": [
        {
          "name": "",
          "type": "address"
        }
      ],
      "payable": false,
      "stateMutability": "view",
      "type": "function"
    },
    {
      "constant": true,
      "inputs": [],
      "name": "contractGeneScience",
      "outputs": [
        {
          "name": "",
          "type": "address"
        }
      ],
      "payable": false,
      "stateMutability": "view",
      "type": "function"
    },
    {
      "constant": true,
      "inputs": [],
      "name": "contractEggCore",
      "outputs": [
        {
          "name": "",
          "type": "address"
        }
      ],
      "payable": false,
      "stateMutability": "view",
      "type": "function"
    },
    {
      "constant": true,
      "inputs": [
        {
          "name": "",
          "type": "uint256"
        }
      ],
      "name": "sireAllowedToAddress",
      "outputs": [
        {
          "name": "",
          "type": "address"
        }
      ],
      "payable": false,
      "stateMutability": "view",
      "type": "function"
    },
    {
      "constant": true,
      "inputs": [],
      "name": "addrGeneScience",
      "outputs": [
        {
          "name": "",
          "type": "address"
        }
      ],
      "payable": false,
      "stateMutability": "view",
      "type": "function"
    },
    {
      "constant": true,
      "inputs": [
        {
          "name": "_heroId",
          "type": "uint256"
        }
      ],
      "name": "ownerOf",
      "outputs": [
        {
          "name": "owner",
          "type": "address"
        }
      ],
      "payable": false,
      "stateMutability": "view",
      "type": "function"
    },
    {
      "constant": true,
      "inputs": [
        {
          "name": "_owner",
          "type": "address"
        }
      ],
      "name": "balanceOf",
      "outputs": [
        {
          "name": "count",
          "type": "uint256"
        }
      ],
      "payable": false,
      "stateMutability": "view",
      "type": "function"
    },
    {
      "constant": true,
      "inputs": [],
      "name": "addrChest",
      "outputs": [
        {
          "name": "",
          "type": "address"
        }
      ],
      "payable": false,
      "stateMutability": "view",
      "type": "function"
    },
    {
      "constant": true,
      "inputs": [],
      "name": "secondsPerBlock",
      "outputs": [
        {
          "name": "",
          "type": "uint256"
        }
      ],
      "payable": false,
      "stateMutability": "view",
      "type": "function"
    },
    {
      "constant": true,
      "inputs": [],
      "name": "addrEggCore",
      "outputs": [
        {
          "name": "",
          "type": "address"
        }
      ],
      "payable": false,
      "stateMutability": "view",
      "type": "function"
    },
    {
      "constant": true,
      "inputs": [],
      "name": "symbol",
      "outputs": [
        {
          "name": "",
          "type": "string"
        }
      ],
      "payable": false,
      "stateMutability": "view",
      "type": "function"
    },
    {
      "constant": true,
      "inputs": [
        {
          "name": "_owner",
          "type": "address"
        }
      ],
      "name": "heroesOfOwner",
      "outputs": [
        {
          "name": "ownerHeroes",
          "type": "uint256[]"
        }
      ],
      "payable": false,
      "stateMutability": "view",
      "type": "function"
    },
    {
      "constant": true,
      "inputs": [
        {
          "name": "",
          "type": "address"
        }
      ],
      "name": "ownershipHeroCount",
      "outputs": [
        {
          "name": "",
          "type": "uint256"
        }
      ],
      "payable": false,
      "stateMutability": "view",
      "type": "function"
    },
    {
      "constant": true,
      "inputs": [
        {
          "name": "",
          "type": "uint256"
        }
      ],
      "name": "cooldowns",
      "outputs": [
        {
          "name": "",
          "type": "uint32"
        }
      ],
      "payable": false,
      "stateMutability": "view",
      "type": "function"
    },
    {
      "constant": true,
      "inputs": [
        {
          "name": "",
          "type": "uint256"
        }
      ],
      "name": "heroes",
      "outputs": [
        {
          "name": "date",
          "type": "uint256"
        },
        {
          "name": "price",
          "type": "uint256"
        },
        {
          "name": "tokenId",
          "type": "uint256"
        },
        {
          "name": "tokenPrice",
          "type": "uint256"
        },
        {
          "name": "genes",
          "type": "uint256"
        },
        {
          "name": "birthTime",
          "type": "uint64"
        },
        {
          "name": "cooldownEndBlock",
          "type": "uint64"
        },
        {
          "name": "matronId",
          "type": "uint32"
        },
        {
          "name": "sireId",
          "type": "uint32"
        },
        {
          "name": "siringWithId",
          "type": "uint32"
        },
        {
          "name": "cooldownIndex",
          "type": "uint16"
        },
        {
          "name": "generation",
          "type": "uint16"
        },
        {
          "name": "level",
          "type": "uint16"
        }
      ],
      "payable": false,
      "stateMutability": "view",
      "type": "function"
    },
    {
      "constant": false,
      "inputs": [
        {
          "name": "_to",
          "type": "address"
        },
        {
          "name": "_heroId",
          "type": "uint256"
        }
      ],
      "name": "transfer",
      "outputs": [],
      "payable": false,
      "stateMutability": "nonpayable",
      "type": "function"
    },
    {
      "constant": true,
      "inputs": [
        {
          "name": "",
          "type": "uint256"
        }
      ],
      "name": "heroIndexToOwner",
      "outputs": [
        {
          "name": "",
          "type": "address"
        }
      ],
      "payable": false,
      "stateMutability": "view",
      "type": "function"
    },
    {
      "constant": true,
      "inputs": [],
      "name": "autoBirthFee",
      "outputs": [
        {
          "name": "",
          "type": "uint256"
        }
      ],
      "payable": false,
      "stateMutability": "view",
      "type": "function"
    },
    {
      "constant": true,
      "inputs": [],
      "name": "addrAdmin",
      "outputs": [
        {
          "name": "",
          "type": "address"
        }
      ],
      "payable": false,
      "stateMutability": "view",
      "type": "function"
    },
    {
      "constant": false,
      "inputs": [
        {
          "name": "_addrItem",
          "type": "address"
        }
      ],
      "name": "setItemCoreAddress",
      "outputs": [],
      "payable": false,
      "stateMutability": "nonpayable",
      "type": "function"
    },
    {
      "constant": true,
      "inputs": [
        {
          "name": "",
          "type": "uint256"
        }
      ],
      "name": "heroIndexToApproved",
      "outputs": [
        {
          "name": "",
          "type": "address"
        }
      ],
      "payable": false,
      "stateMutability": "view",
      "type": "function"
    },
    {
      "constant": false,
      "inputs": [
        {
          "name": "_contractAddress",
          "type": "address"
        }
      ],
      "name": "setMetadataAddress",
      "outputs": [],
      "payable": false,
      "stateMutability": "nonpayable",
      "type": "function"
    },
    {
      "constant": false,
      "inputs": [
        {
          "name": "_date",
          "type": "uint256"
        },
        {
          "name": "_price",
          "type": "uint256"
        },
        {
          "name": "_tokenId",
          "type": "uint256"
        },
        {
          "name": "_tokenPrice",
          "type": "uint256"
        },
        {
          "name": "_matronId",
          "type": "uint256"
        },
        {
          "name": "_sireId",
          "type": "uint256"
        },
        {
          "name": "_generation",
          "type": "uint256"
        },
        {
          "name": "_genes",
          "type": "uint256"
        },
        {
          "name": "_level",
          "type": "uint16"
        },
        {
          "name": "_owner",
          "type": "address"
        }
      ],
      "name": "createHero",
      "outputs": [
        {
          "name": "",
          "type": "uint256"
        }
      ],
      "payable": false,
      "stateMutability": "nonpayable",
      "type": "function"
    },
    {
      "constant": true,
      "inputs": [],
      "name": "trc721Metadata",
      "outputs": [
        {
          "name": "",
          "type": "address"
        }
      ],
      "payable": false,
      "stateMutability": "view",
      "type": "function"
    },
    {
      "constant": false,
      "inputs": [
        {
          "name": "_addrChest",
          "type": "address"
        }
      ],
      "name": "setChestAddress",
      "outputs": [],
      "payable": false,
      "stateMutability": "nonpayable",
      "type": "function"
    },
    {
      "anonymous": false,
      "inputs": [
        {
          "indexed": false,
          "name": "owner",
          "type": "address"
        },
        {
          "indexed": false,
          "name": "matronId",
          "type": "uint256"
        },
        {
          "indexed": false,
          "name": "sireId",
          "type": "uint256"
        },
        {
          "indexed": false,
          "name": "cooldownEndBlock",
          "type": "uint256"
        }
      ],
      "name": "Pregnant",
      "type": "event"
    },
    {
      "anonymous": false,
      "inputs": [
        {
          "indexed": false,
          "name": "from",
          "type": "address"
        },
        {
          "indexed": false,
          "name": "to",
          "type": "address"
        },
        {
          "indexed": false,
          "name": "tokenId",
          "type": "uint256"
        }
      ],
      "name": "Transfer",
      "type": "event"
    },
    {
      "anonymous": false,
      "inputs": [
        {
          "indexed": false,
          "name": "owner",
          "type": "address"
        },
        {
          "indexed": false,
          "name": "approved",
          "type": "address"
        },
        {
          "indexed": false,
          "name": "tokenId",
          "type": "uint256"
        }
      ],
      "name": "Approval",
      "type": "event"
    },
    {
      "anonymous": false,
      "inputs": [
        {
          "indexed": false,
          "name": "owner",
          "type": "address"
        },
        {
          "indexed": false,
          "name": "kittyId",
          "type": "uint256"
        },
        {
          "indexed": false,
          "name": "matronId",
          "type": "uint256"
        },
        {
          "indexed": false,
          "name": "sireId",
          "type": "uint256"
        },
        {
          "indexed": false,
          "name": "genes",
          "type": "uint256"
        },
        {
          "indexed": false,
          "name": "level",
          "type": "uint16"
        }
      ],
      "name": "Birth",
      "type": "event"
    },
    {
      "constant": false,
      "inputs": [
        {
          "name": "_addrGeneScience",
          "type": "address"
        }
      ],
      "name": "setGeneScienceAddr",
      "outputs": [],
      "payable": false,
      "stateMutability": "nonpayable",
      "type": "function"
    },
    {
      "constant": false,
      "inputs": [
        {
          "name": "_addr",
          "type": "address"
        },
        {
          "name": "_sireId",
          "type": "uint256"
        }
      ],
      "name": "approveSiring",
      "outputs": [],
      "payable": false,
      "stateMutability": "nonpayable",
      "type": "function"
    },
    {
      "constant": true,
      "inputs": [
        {
          "name": "_heroId",
          "type": "uint256"
        }
      ],
      "name": "isReadyToBreed",
      "outputs": [
        {
          "name": "",
          "type": "bool"
        }
      ],
      "payable": false,
      "stateMutability": "view",
      "type": "function"
    },
    {
      "constant": true,
      "inputs": [
        {
          "name": "_matronId",
          "type": "uint256"
        },
        {
          "name": "_sireId",
          "type": "uint256"
        }
      ],
      "name": "canBreedWith",
      "outputs": [
        {
          "name": "",
          "type": "bool"
        }
      ],
      "payable": false,
      "stateMutability": "view",
      "type": "function"
    },
    {
      "constant": false,
      "inputs": [
        {
          "name": "_matronId",
          "type": "uint256"
        },
        {
          "name": "_sireId",
          "type": "uint256"
        }
      ],
      "name": "breedWithOwns",
      "outputs": [],
      "payable": true,
      "stateMutability": "payable",
      "type": "function"
    },
    {
      "constant": false,
      "inputs": [
        {
          "name": "_matronId",
          "type": "uint256"
        },
        {
          "name": "_sireId",
          "type": "uint256"
        }
      ],
      "name": "breedWithOwned",
      "outputs": [],
      "payable": true,
      "stateMutability": "payable",
      "type": "function"
    },
    {
      "constant": true,
      "inputs": [],
      "name": "breedTest",
      "outputs": [
        {
          "name": "",
          "type": "string"
        }
      ],
      "payable": false,
      "stateMutability": "pure",
      "type": "function"
    }
  ],
  "bytecode": "0x60806040526101c060405190810160405280603c63ffffffff1663ffffffff168152602001607863ffffffff1663ffffffff16815260200161012c63ffffffff1663ffffffff16815260200161025863ffffffff1663ffffffff16815260200161070863ffffffff1663ffffffff168152602001610e1063ffffffff1663ffffffff168152602001611c2063ffffffff1663ffffffff16815260200161384063ffffffff1663ffffffff16815260200161708063ffffffff1663ffffffff16815260200161e10063ffffffff1663ffffffff1681526020016201518063ffffffff1663ffffffff1681526020016202a30063ffffffff1663ffffffff1681526020016205460063ffffffff1663ffffffff16815260200162093a8063ffffffff1663ffffffff16815250600090600e6200013b9291906200018f565b50600f60025562989680600c5533600360006101000a81548173ffffffffffffffffffffffffffffffffffffffff021916908373ffffffffffffffffffffffffffffffffffffffff1602179055506200026f565b82600e600701600890048101928215620002265791602002820160005b83821115620001f257835183826101000a81548163ffffffff021916908363ffffffff1602179055509260200192600401602081600301049283019260010302620001ac565b8015620002245782816101000a81549063ffffffff0219169055600401602081600301049283019260010302620001f2565b505b50905062000235919062000239565b5090565b6200026c91905b808211156200026857600081816101000a81549063ffffffff02191690555060010162000240565b5090565b90565b6134e7806200027f6000396000f3fe608060405260043610610237576000357c0100000000000000000000000000000000000000000000000000000000900480638a8fb54a11610140578063b0c35c05116100c8578063de3e305f1161008c578063de3e305f146111dd578063e17b25af14611272578063e32170ae146112dd578063f15f9388146113bb578063f794ac1f1461142c57610237565b8063b0c35c0514610fa5578063be9873d214610fea578063bfae2f0e14611094578063cb0e2c5a14611105578063d3e6f49f1461117057610237565b80639ca7722d1161010f5780639ca7722d14610c865780639d6fac6f14610d05578063a8d4a03b14610d7a578063a9059cbb14610e9b578063aa54beac14610f1057610237565b80638a8fb54a14610a735780638ca22e1314610aab57806395d89b4114610b1c578063989555f814610bc657610237565b80634558f4c8116101c357806357cea4fd1161019257806357cea4fd146108385780636352211e146108a957806370a082311461093e57806376c0b367146109bd5780637a7d493714610a2e57610237565b80634558f4c81461064657806346116e6f146106b757806346d22c701461074c5780634dfff04f146107c357610237565b8063119c4d631161020a578063119c4d631461041f57806318160ddd1461048a57806323b872dd146104cf5780632f6db1ee146105645780633ba864fe146105d557610237565b80630153b8ee1461023c57806301ffc9a71461027457806306fdde0314610300578063095ea7b3146103aa575b600080fd5b6102726004803603604081101561025257600080fd5b810190808035906020019092919080359060200190929190505050611497565b005b34801561028057600080fd5b50d3801561028d57600080fd5b50d2801561029a57600080fd5b506102e6600480360360208110156102b157600080fd5b8101908080357bffffffffffffffffffffffffffffffffffffffffffffffffffffffff191690602001909291905050506114cf565b604051808215151515815260200191505060405180910390f35b34801561030c57600080fd5b50d3801561031957600080fd5b50d2801561032657600080fd5b5061032f61179d565b6040518080602001828103825283818151815260200191508051906020019080838360005b8381101561036f578082015181840152602081019050610354565b50505050905090810190601f16801561039c5780820380516001836020036101000a031916815260200191505b509250505060405180910390f35b3480156103b657600080fd5b50d380156103c357600080fd5b50d280156103d057600080fd5b5061041d600480360360408110156103e757600080fd5b81019080803573ffffffffffffffffffffffffffffffffffffffff169060200190929190803590602001909291905050506117d6565b005b34801561042b57600080fd5b50d3801561043857600080fd5b50d2801561044557600080fd5b506104886004803603602081101561045c57600080fd5b81019080803573ffffffffffffffffffffffffffffffffffffffff169060200190929190505050611898565b005b34801561049657600080fd5b50d380156104a357600080fd5b50d280156104b057600080fd5b506104b9611a27565b6040518082815260200191505060405180910390f35b3480156104db57600080fd5b50d380156104e857600080fd5b50d280156104f557600080fd5b506105626004803603606081101561050c57600080fd5b81019080803573ffffffffffffffffffffffffffffffffffffffff169060200190929190803573ffffffffffffffffffffffffffffffffffffffff16906020019092919080359060200190929190505050611a37565b005b34801561057057600080fd5b50d3801561057d57600080fd5b50d2801561058a57600080fd5b50610593611ae8565b604051808273ffffffffffffffffffffffffffffffffffffffff1673ffffffffffffffffffffffffffffffffffffffff16815260200191505060405180910390f35b3480156105e157600080fd5b50d380156105ee57600080fd5b50d280156105fb57600080fd5b50610604611b0e565b604051808273ffffffffffffffffffffffffffffffffffffffff1673ffffffffffffffffffffffffffffffffffffffff16815260200191505060405180910390f35b34801561065257600080fd5b50d3801561065f57600080fd5b50d2801561066c57600080fd5b50610675611b34565b604051808273ffffffffffffffffffffffffffffffffffffffff1673ffffffffffffffffffffffffffffffffffffffff16815260200191505060405180910390f35b3480156106c357600080fd5b50d380156106d057600080fd5b50d280156106dd57600080fd5b5061070a600480360360208110156106f457600080fd5b8101908080359060200190929190505050611b5a565b604051808273ffffffffffffffffffffffffffffffffffffffff1673ffffffffffffffffffffffffffffffffffffffff16815260200191505060405180910390f35b34801561075857600080fd5b50d3801561076557600080fd5b50d2801561077257600080fd5b506107a96004803603604081101561078957600080fd5b810190808035906020019092919080359060200190929190505050611b8d565b604051808215151515815260200191505060405180910390f35b3480156107cf57600080fd5b50d380156107dc57600080fd5b50d280156107e957600080fd5b506108366004803603604081101561080057600080fd5b81019080803573ffffffffffffffffffffffffffffffffffffffff16906020019092919080359060200190929190505050611c16565b005b34801561084457600080fd5b50d3801561085157600080fd5b50d2801561085e57600080fd5b50610867611c81565b604051808273ffffffffffffffffffffffffffffffffffffffff1673ffffffffffffffffffffffffffffffffffffffff16815260200191505060405180910390f35b3480156108b557600080fd5b50d380156108c257600080fd5b50d280156108cf57600080fd5b506108fc600480360360208110156108e657600080fd5b8101908080359060200190929190505050611ca7565b604051808273ffffffffffffffffffffffffffffffffffffffff1673ffffffffffffffffffffffffffffffffffffffff16815260200191505060405180910390f35b34801561094a57600080fd5b50d3801561095757600080fd5b50d2801561096457600080fd5b506109a76004803603602081101561097b57600080fd5b81019080803573ffffffffffffffffffffffffffffffffffffffff169060200190929190505050611d20565b6040518082815260200191505060405180910390f35b3480156109c957600080fd5b50d380156109d657600080fd5b50d280156109e357600080fd5b506109ec611d69565b604051808273ffffffffffffffffffffffffffffffffffffffff1673ffffffffffffffffffffffffffffffffffffffff16815260200191505060405180910390f35b348015610a3a57600080fd5b50d38015610a4757600080fd5b50d28015610a5457600080fd5b50610a5d611d8f565b6040518082815260200191505060405180910390f35b610aa960048036036040811015610a8957600080fd5b810190808035906020019092919080359060200190929190505050611d95565b005b348015610ab757600080fd5b50d38015610ac457600080fd5b50d28015610ad157600080fd5b50610ada611dde565b604051808273ffffffffffffffffffffffffffffffffffffffff1673ffffffffffffffffffffffffffffffffffffffff16815260200191505060405180910390f35b348015610b2857600080fd5b50d38015610b3557600080fd5b50d28015610b4257600080fd5b50610b4b611e04565b6040518080602001828103825283818151815260200191508051906020019080838360005b83811015610b8b578082015181840152602081019050610b70565b50505050905090810190601f168015610bb85780820380516001836020036101000a031916815260200191505b509250505060405180910390f35b348015610bd257600080fd5b50d38015610bdf57600080fd5b50d28015610bec57600080fd5b50610c2f60048036036020811015610c0357600080fd5b81019080803573ffffffffffffffffffffffffffffffffffffffff169060200190929190505050611e3d565b6040518080602001828103825283818151815260200191508051906020019060200280838360005b83811015610c72578082015181840152602081019050610c57565b505050509050019250505060405180910390f35b348015610c9257600080fd5b50d38015610c9f57600080fd5b50d28015610cac57600080fd5b50610cef60048036036020811015610cc357600080fd5b81019080803573ffffffffffffffffffffffffffffffffffffffff169060200190929190505050611f8b565b6040518082815260200191505060405180910390f35b348015610d1157600080fd5b50d38015610d1e57600080fd5b50d28015610d2b57600080fd5b50610d5860048036036020811015610d4257600080fd5b8101908080359060200190929190505050611fa3565b604051808263ffffffff1663ffffffff16815260200191505060405180910390f35b348015610d8657600080fd5b50d38015610d9357600080fd5b50d28015610da057600080fd5b50610dcd60048036036020811015610db757600080fd5b8101908080359060200190929190505050611fd2565b604051808e81526020018d81526020018c81526020018b81526020018a81526020018967ffffffffffffffff1667ffffffffffffffff1681526020018867ffffffffffffffff1667ffffffffffffffff1681526020018763ffffffff1663ffffffff1681526020018663ffffffff1663ffffffff1681526020018563ffffffff1663ffffffff1681526020018461ffff1661ffff1681526020018361ffff1661ffff1681526020018261ffff1661ffff1681526020019d505050505050505050505050505060405180910390f35b348015610ea757600080fd5b50d38015610eb457600080fd5b50d28015610ec157600080fd5b50610f0e60048036036040811015610ed857600080fd5b81019080803573ffffffffffffffffffffffffffffffffffffffff169060200190929190803590602001909291905050506120c9565b005b348015610f1c57600080fd5b50d38015610f2957600080fd5b50d28015610f3657600080fd5b50610f6360048036036020811015610f4d57600080fd5b8101908080359060200190929190505050612164565b604051808273ffffffffffffffffffffffffffffffffffffffff1673ffffffffffffffffffffffffffffffffffffffff16815260200191505060405180910390f35b348015610fb157600080fd5b50d38015610fbe57600080fd5b50d28015610fcb57600080fd5b50610fd4612197565b6040518082815260200191505060405180910390f35b348015610ff657600080fd5b50d3801561100357600080fd5b50d2801561101057600080fd5b5061101961219d565b6040518080602001828103825283818151815260200191508051906020019080838360005b8381101561105957808201518184015260208101905061103e565b50505050905090810190601f1680156110865780820380516001836020036101000a031916815260200191505b509250505060405180910390f35b3480156110a057600080fd5b50d380156110ad57600080fd5b50d280156110ba57600080fd5b506110c36121da565b604051808273ffffffffffffffffffffffffffffffffffffffff1673ffffffffffffffffffffffffffffffffffffffff16815260200191505060405180910390f35b34801561111157600080fd5b50d3801561111e57600080fd5b50d2801561112b57600080fd5b5061116e6004803603602081101561114257600080fd5b81019080803573ffffffffffffffffffffffffffffffffffffffff169060200190929190505050612200565b005b34801561117c57600080fd5b50d3801561118957600080fd5b50d2801561119657600080fd5b506111c3600480360360208110156111ad57600080fd5b81019080803590602001909291905050506122a0565b604051808215151515815260200191505060405180910390f35b3480156111e957600080fd5b50d380156111f657600080fd5b50d2801561120357600080fd5b506112306004803603602081101561121a57600080fd5b8101908080359060200190929190505050612457565b604051808273ffffffffffffffffffffffffffffffffffffffff1673ffffffffffffffffffffffffffffffffffffffff16815260200191505060405180910390f35b34801561127e57600080fd5b50d3801561128b57600080fd5b50d2801561129857600080fd5b506112db600480360360208110156112af57600080fd5b81019080803573ffffffffffffffffffffffffffffffffffffffff16906020019092919050505061248a565b005b3480156112e957600080fd5b50d380156112f657600080fd5b50d2801561130357600080fd5b506113a5600480360361014081101561131b57600080fd5b810190808035906020019092919080359060200190929190803590602001909291908035906020019092919080359060200190929190803590602001909291908035906020019092919080359060200190929190803561ffff169060200190929190803573ffffffffffffffffffffffffffffffffffffffff16906020019092919050505061252a565b6040518082815260200191505060405180910390f35b3480156113c757600080fd5b50d380156113d457600080fd5b50d280156113e157600080fd5b506113ea6128af565b604051808273ffffffffffffffffffffffffffffffffffffffff1673ffffffffffffffffffffffffffffffffffffffff16815260200191505060405180910390f35b34801561143857600080fd5b50d3801561144557600080fd5b50d2801561145257600080fd5b506114956004803603602081101561146957600080fd5b81019080803573ffffffffffffffffffffffffffffffffffffffff1690602001909291905050506128d5565b005b6114a13383612975565b15156114ac57600080fd5b6114b63382612975565b15156114c157600080fd5b6114cb82826129e1565b5050565b600060405180807f737570706f727473496e74657266616365286279746573342900000000000000815250601901905060405180910390207bffffffffffffffffffffffffffffffffffffffffffffffffffffffff1916827bffffffffffffffffffffffffffffffffffffffffffffffffffffffff19161480611796575060405180807f746f6b656e4d657461646174612875696e743235362c737472696e6729000000815250601d019050604051809103902060405180807f6865726f65734f664f776e657228616464726573732900000000000000000000815250601601905060405180910390206040518080613497602591396025019050604051809103902060405180807f7472616e7366657228616464726573732c75696e7432353629000000000000008152506019019050604051809103902060405180807f617070726f766528616464726573732c75696e743235362900000000000000008152506018019050604051809103902060405180807f6f776e65724f662875696e7432353629000000000000000000000000000000008152506010019050604051809103902060405180807f62616c616e63654f6628616464726573732900000000000000000000000000008152506012019050604051809103902060405180807f746f74616c537570706c79282900000000000000000000000000000000000000815250600d019050604051809103902060405180807f73796d626f6c28290000000000000000000000000000000000000000000000008152506008019050604051809103902060405180807f6e616d6528290000000000000000000000000000000000000000000000000000815250600601905060405180910390201818181818181818187bffffffffffffffffffffffffffffffffffffffffffffffffffffffff1916827bffffffffffffffffffffffffffffffffffffffffffffffffffffffff1916145b9050919050565b6040805190810160405280600881526020017f505a4865726f657300000000000000000000000000000000000000000000000081525081565b6117e03382612975565b15156117eb57600080fd5b6117f58183612cde565b7f8c5be1e5ebec7d5bd14f71427d1e84f3dd0314c0f7b2291e5b200ac8c7c3b925338383604051808473ffffffffffffffffffffffffffffffffffffffff1673ffffffffffffffffffffffffffffffffffffffff1681526020018373ffffffffffffffffffffffffffffffffffffffff1673ffffffffffffffffffffffffffffffffffffffff168152602001828152602001935050505060405180910390a15050565b600360009054906101000a900473ffffffffffffffffffffffffffffffffffffffff1673ffffffffffffffffffffffffffffffffffffffff163373ffffffffffffffffffffffffffffffffffffffff161415156118f457600080fd5b80600e60006101000a81548173ffffffffffffffffffffffffffffffffffffffff021916908373ffffffffffffffffffffffffffffffffffffffff16021790555060008190508073ffffffffffffffffffffffffffffffffffffffff166354c15b826040518163ffffffff167c010000000000000000000000000000000000000000000000000000000002815260040160206040518083038186803b15801561199c57600080fd5b505afa1580156119b0573d6000803e3d6000fd5b505050506040513d60208110156119c657600080fd5b810190808051906020019092919050505015156119e257600080fd5b80600d60006101000a81548173ffffffffffffffffffffffffffffffffffffffff021916908373ffffffffffffffffffffffffffffffffffffffff1602179055505050565b6000600160068054905003905090565b600073ffffffffffffffffffffffffffffffffffffffff168273ffffffffffffffffffffffffffffffffffffffff1614151515611a7357600080fd5b3073ffffffffffffffffffffffffffffffffffffffff168273ffffffffffffffffffffffffffffffffffffffff1614151515611aae57600080fd5b611ab83382612d34565b1515611ac357600080fd5b611acd8382612975565b1515611ad857600080fd5b611ae3838383612da0565b505050565b600560009054906101000a900473ffffffffffffffffffffffffffffffffffffffff1681565b600d60009054906101000a900473ffffffffffffffffffffffffffffffffffffffff1681565b600f60009054906101000a900473ffffffffffffffffffffffffffffffffffffffff1681565b600a6020528060005260406000206000915054906101000a900473ffffffffffffffffffffffffffffffffffffffff1681565b60008083111515611b9d57600080fd5b600082111515611bac57600080fd5b6000600684815481101515611bbd57fe5b906000526020600020906007020190506000600684815481101515611bde57fe5b90600052602060002090600702019050611bfa82868387612fd8565b8015611c0c5750611c0b84866131ed565b5b9250505092915050565b611c203382612975565b1515611c2b57600080fd5b81600a600083815260200190815260200160002060006101000a81548173ffffffffffffffffffffffffffffffffffffffff021916908373ffffffffffffffffffffffffffffffffffffffff1602179055505050565b600e60009054906101000a900473ffffffffffffffffffffffffffffffffffffffff1681565b60006007600083815260200190815260200160002060009054906101000a900473ffffffffffffffffffffffffffffffffffffffff169050600073ffffffffffffffffffffffffffffffffffffffff168173ffffffffffffffffffffffffffffffffffffffff1614151515611d1b57600080fd5b919050565b6000600860008373ffffffffffffffffffffffffffffffffffffffff1673ffffffffffffffffffffffffffffffffffffffff168152602001908152602001600020549050919050565b600460009054906101000a900473ffffffffffffffffffffffffffffffffffffffff1681565b60025481565b600c543410151515611da657600080fd5b611db03383612975565b1515611dbb57600080fd5b611dc53382612975565b1515611dd057600080fd5b611dda82826129e1565b5050565b601060009054906101000a900473ffffffffffffffffffffffffffffffffffffffff1681565b6040805190810160405280600281526020017f504800000000000000000000000000000000000000000000000000000000000081525081565b60606000611e4a83611d20565b90506000811415611e8e576000604051908082528060200260200182016040528015611e855781602001602082028038833980820191505090505b50915050611f86565b606081604051908082528060200260200182016040528015611ebf5781602001602082028038833980820191505090505b5090506000611ecc611a27565b905060008090506000600190505b8281111515611f7d578673ffffffffffffffffffffffffffffffffffffffff166007600083815260200190815260200160002060009054906101000a900473ffffffffffffffffffffffffffffffffffffffff1673ffffffffffffffffffffffffffffffffffffffff161415611f7057808483815181101515611f5957fe5b906020019060200201818152505081806001019250505b8080600101915050611eda565b83955050505050505b919050565b60086020528060005260406000206000915090505481565b600081600e81101515611fb257fe5b60089182820401919006600402915054906101000a900463ffffffff1681565b600681815481101515611fe157fe5b90600052602060002090600702016000915090508060000154908060010154908060020154908060030154908060040154908060050160009054906101000a900467ffffffffffffffff16908060050160089054906101000a900467ffffffffffffffff16908060050160109054906101000a900463ffffffff16908060050160149054906101000a900463ffffffff16908060050160189054906101000a900463ffffffff169080600501601c9054906101000a900461ffff169080600501601e9054906101000a900461ffff16908060060160009054906101000a900461ffff1690508d565b600073ffffffffffffffffffffffffffffffffffffffff168273ffffffffffffffffffffffffffffffffffffffff161415151561210557600080fd5b3073ffffffffffffffffffffffffffffffffffffffff168273ffffffffffffffffffffffffffffffffffffffff161415151561214057600080fd5b61214a3382612975565b151561215557600080fd5b612160338383612da0565b5050565b60076020528060005260406000206000915054906101000a900473ffffffffffffffffffffffffffffffffffffffff1681565b600c5481565b60606040805190810160405280600a81526020017f4272656564205465737400000000000000000000000000000000000000000000815250905090565b600360009054906101000a900473ffffffffffffffffffffffffffffffffffffffff1681565b600360009054906101000a900473ffffffffffffffffffffffffffffffffffffffff1673ffffffffffffffffffffffffffffffffffffffff163373ffffffffffffffffffffffffffffffffffffffff1614151561225c57600080fd5b80600560006101000a81548173ffffffffffffffffffffffffffffffffffffffff021916908373ffffffffffffffffffffffffffffffffffffffff16021790555050565b600080821115156122b057600080fd5b60006006838154811015156122c157fe5b9060005260206000209060070201905061244f816101a0604051908101604052908160008201548152602001600182015481526020016002820154815260200160038201548152602001600482015481526020016005820160009054906101000a900467ffffffffffffffff1667ffffffffffffffff1667ffffffffffffffff1681526020016005820160089054906101000a900467ffffffffffffffff1667ffffffffffffffff1667ffffffffffffffff1681526020016005820160109054906101000a900463ffffffff1663ffffffff1663ffffffff1681526020016005820160149054906101000a900463ffffffff1663ffffffff1663ffffffff1681526020016005820160189054906101000a900463ffffffff1663ffffffff1663ffffffff16815260200160058201601c9054906101000a900461ffff1661ffff1661ffff16815260200160058201601e9054906101000a900461ffff1661ffff1661ffff1681526020016006820160009054906101000a900461ffff1661ffff1661ffff1681525050613300565b915050919050565b60096020528060005260406000206000915054906101000a900473ffffffffffffffffffffffffffffffffffffffff1681565b600360009054906101000a900473ffffffffffffffffffffffffffffffffffffffff1673ffffffffffffffffffffffffffffffffffffffff163373ffffffffffffffffffffffffffffffffffffffff161415156124e657600080fd5b80600b60006101000a81548173ffffffffffffffffffffffffffffffffffffffff021916908373ffffffffffffffffffffffffffffffffffffffff16021790555050565b60008663ffffffff168714151561254057600080fd5b8563ffffffff168614151561255457600080fd5b8461ffff168514151561256657600080fd5b600060028681151561257457fe5b049050600d8161ffff16111561258957600d90505b6125916133fb565b6101a0604051908101604052808e81526020018d81526020018c81526020018b81526020018781526020014267ffffffffffffffff168152602001600067ffffffffffffffff1681526020018a63ffffffff1681526020018963ffffffff168152602001600063ffffffff1681526020018361ffff1681526020018861ffff1681526020018661ffff1681525090506000600160068390806001815401808255809150509060018203906000526020600020906007020160009091929091909150600082015181600001556020820151816001015560408201518160020155606082015181600301556080820151816004015560a08201518160050160006101000a81548167ffffffffffffffff021916908367ffffffffffffffff16021790555060c08201518160050160086101000a81548167ffffffffffffffff021916908367ffffffffffffffff16021790555060e08201518160050160106101000a81548163ffffffff021916908363ffffffff1602179055506101008201518160050160146101000a81548163ffffffff021916908363ffffffff1602179055506101208201518160050160186101000a81548163ffffffff021916908363ffffffff16021790555061014082015181600501601c6101000a81548161ffff021916908361ffff16021790555061016082015181600501601e6101000a81548161ffff021916908361ffff1602179055506101808201518160060160006101000a81548161ffff021916908361ffff16021790555050500390508063ffffffff16811415156127de57600080fd5b7f6bdb6252e3aabe7c79b1e94c2d24f9cbed550af06f37098cc8e28e34c6140c6685828460e0015163ffffffff1685610100015163ffffffff168660800151876101800151604051808773ffffffffffffffffffffffffffffffffffffffff1673ffffffffffffffffffffffffffffffffffffffff1681526020018681526020018581526020018481526020018381526020018261ffff1661ffff168152602001965050505050505060405180910390a161289b60008683612da0565b8093505050509a9950505050505050505050565b600b60009054906101000a900473ffffffffffffffffffffffffffffffffffffffff1681565b600360009054906101000a900473ffffffffffffffffffffffffffffffffffffffff1673ffffffffffffffffffffffffffffffffffffffff163373ffffffffffffffffffffffffffffffffffffffff1614151561293157600080fd5b80600460006101000a81548173ffffffffffffffffffffffffffffffffffffffff021916908373ffffffffffffffffffffffffffffffffffffffff16021790555050565b60008273ffffffffffffffffffffffffffffffffffffffff166007600084815260200190815260200160002060009054906101000a900473ffffffffffffffffffffffffffffffffffffffff1673ffffffffffffffffffffffffffffffffffffffff1614905092915050565b60006006828154811015156129f257fe5b906000526020600020906007020190506000600684815481101515612a1357fe5b90600052602060002090600702019050828160050160186101000a81548163ffffffff021916908363ffffffff160217905550612a4f82613325565b612a5881613325565b600a600085815260200190815260200160002060006101000a81549073ffffffffffffffffffffffffffffffffffffffff0219169055600a600084815260200190815260200160002060006101000a81549073ffffffffffffffffffffffffffffffffffffffff0219169055600f60009054906101000a900473ffffffffffffffffffffffffffffffffffffffff1673ffffffffffffffffffffffffffffffffffffffff16639f5010e06007600087815260200190815260200160002060009054906101000a900473ffffffffffffffffffffffffffffffffffffffff16428560010154866002015487600301548a8a6040518863ffffffff167c0100000000000000000000000000000000000000000000000000000000028152600401808873ffffffffffffffffffffffffffffffffffffffff1673ffffffffffffffffffffffffffffffffffffffff168152602001878152602001868152602001858152602001848152602001838152602001828152602001975050505050505050600060405180830381600087803b158015612bf057600080fd5b505af1158015612c04573d6000803e3d6000fd5b505050507f241ea03ca20251805084d27d4440371c34a0b85ff108f6bb5611248f73818b806007600086815260200190815260200160002060009054906101000a900473ffffffffffffffffffffffffffffffffffffffff1685858460050160089054906101000a900467ffffffffffffffff16604051808573ffffffffffffffffffffffffffffffffffffffff1673ffffffffffffffffffffffffffffffffffffffff1681526020018481526020018381526020018267ffffffffffffffff16815260200194505050505060405180910390a150505050565b806009600084815260200190815260200160002060006101000a81548173ffffffffffffffffffffffffffffffffffffffff021916908373ffffffffffffffffffffffffffffffffffffffff1602179055505050565b60008273ffffffffffffffffffffffffffffffffffffffff166009600084815260200190815260200160002060009054906101000a900473ffffffffffffffffffffffffffffffffffffffff1673ffffffffffffffffffffffffffffffffffffffff1614905092915050565b600860008373ffffffffffffffffffffffffffffffffffffffff1673ffffffffffffffffffffffffffffffffffffffff16815260200190815260200160002060008154809291906001019190505550816007600083815260200190815260200160002060006101000a81548173ffffffffffffffffffffffffffffffffffffffff021916908373ffffffffffffffffffffffffffffffffffffffff160217905550600073ffffffffffffffffffffffffffffffffffffffff168373ffffffffffffffffffffffffffffffffffffffff16141515612f3457600860008473ffffffffffffffffffffffffffffffffffffffff1673ffffffffffffffffffffffffffffffffffffffff1681526020019081526020016000206000815480929190600190039190505550600a600082815260200190815260200160002060006101000a81549073ffffffffffffffffffffffffffffffffffffffff02191690556009600082815260200190815260200160002060006101000a81549073ffffffffffffffffffffffffffffffffffffffff02191690555b7fddf252ad1be2c89b69c2b068fc378daa952ba7f163c4a11628f55a4df523b3ef838383604051808473ffffffffffffffffffffffffffffffffffffffff1673ffffffffffffffffffffffffffffffffffffffff1681526020018373ffffffffffffffffffffffffffffffffffffffff1673ffffffffffffffffffffffffffffffffffffffff168152602001828152602001935050505060405180910390a1505050565b600081841415612feb57600090506131e5565b818560050160109054906101000a900463ffffffff1663ffffffff16148061302c5750818560050160149054906101000a900463ffffffff1663ffffffff16145b1561303a57600090506131e5565b838360050160109054906101000a900463ffffffff1663ffffffff16148061307b5750838360050160149054906101000a900463ffffffff1663ffffffff16145b1561308957600090506131e5565b60008360050160109054906101000a900463ffffffff1663ffffffff1614806130cc575060008560050160109054906101000a900463ffffffff1663ffffffff16145b156130da57600190506131e5565b8460050160109054906101000a900463ffffffff1663ffffffff168360050160109054906101000a900463ffffffff1663ffffffff16148061314f57508460050160149054906101000a900463ffffffff1663ffffffff168360050160109054906101000a900463ffffffff1663ffffffff16145b1561315d57600090506131e5565b8460050160109054906101000a900463ffffffff1663ffffffff168360050160149054906101000a900463ffffffff1663ffffffff1614806131d257508460050160149054906101000a900463ffffffff1663ffffffff168360050160149054906101000a900463ffffffff1663ffffffff16145b156131e057600090506131e5565b600190505b949350505050565b6000806007600084815260200190815260200160002060009054906101000a900473ffffffffffffffffffffffffffffffffffffffff16905060006007600086815260200190815260200160002060009054906101000a900473ffffffffffffffffffffffffffffffffffffffff1690508073ffffffffffffffffffffffffffffffffffffffff168273ffffffffffffffffffffffffffffffffffffffff1614806132f657508173ffffffffffffffffffffffffffffffffffffffff16600a600087815260200190815260200160002060009054906101000a900473ffffffffffffffffffffffffffffffffffffffff1673ffffffffffffffffffffffffffffffffffffffff16145b9250505092915050565b60004367ffffffffffffffff168260c0015167ffffffffffffffff1611159050919050565b43600254600083600501601c9054906101000a900461ffff1661ffff16600e8110151561334e57fe5b600891828204019190066004029054906101000a900463ffffffff1663ffffffff1681151561337957fe5b04018160050160086101000a81548167ffffffffffffffff021916908367ffffffffffffffff160217905550600d81600501601c9054906101000a900461ffff1661ffff1610156133f857600181600501601c8282829054906101000a900461ffff160192506101000a81548161ffff021916908361ffff1602179055505b50565b6101a0604051908101604052806000815260200160008152602001600081526020016000815260200160008152602001600067ffffffffffffffff168152602001600067ffffffffffffffff168152602001600063ffffffff168152602001600063ffffffff168152602001600063ffffffff168152602001600061ffff168152602001600061ffff168152602001600061ffff168152509056fe7472616e7366657246726f6d28616464726573732c616464726573732c75696e7432353629a165627a7a72305820fc2595f091179fc9ea30bd74df2ed3c2a07737149e0289e7363ee40a35abaa4f0029",
  "source": "pragma solidity ^0.5.0;\n\nimport \"./PZHeroOwnership.sol\";\nimport \"./PZGeneScienceInterface.sol\";\nimport \"./PZEggCore.sol\";\n\ncontract PZHeroBreeding is PZHeroOwnership\n{\n    event Pregnant(address owner, uint256 matronId, uint256 sireId, uint256 cooldownEndBlock);\n\n    uint256 public autoBirthFee = 10 trx ;\n\n    // uint256 public pregnantHeroes;\n\n    PZGeneScienceInterface public           contractGeneScience;\n    address public                          addrGeneScience;\n\n    PZEggCore public                        contractEggCore;\n    address public                          addrEggCore;\n\n    /**\n    * Set Address of GeneScience Contract\n    * @param _addrGeneScience                      Address of Gene Science Contract\n    *\n     */\n    function setGeneScienceAddr(address _addrGeneScience) public onlyAdmin\n    {\n        addrGeneScience = _addrGeneScience;\n        PZGeneScienceInterface candidateContract = PZGeneScienceInterface(_addrGeneScience);\n\n        require(candidateContract.isGeneScience());\n\n        // Set the new contract address\n        contractGeneScience = candidateContract;\n    }\n\n    /**\n    * Check if the Hero is Ready to Breed\n    * @param _hero                              Hero NFT\n    *\n    * @return result                            Return bool typed result\n    *\n     */\n    function _isReadyToBreed(Hero memory _hero) internal view returns (bool) {\n        // return (_hero.siringWithId == 0) && (_hero.cooldownEndBlock <= uint64(block.number));\n\n        return (_hero.cooldownEndBlock <= uint64(block.number));\n    }\n\n    /**\n    * Check if sire and matron are permitted to breed\n    * @param _sireId                              Id of Sire Hero\n    * @param _matronId                            Id of Matron Hero\n    *\n    * @return result                            Return bool typed result\n    *\n     */\n    function _isSiringPermitted(uint256 _sireId, uint256 _matronId) internal view returns (bool) {\n        address matronOwner = heroIndexToOwner[_matronId];\n        address sireOwner = heroIndexToOwner[_sireId];\n\n        return (matronOwner == sireOwner || sireAllowedToAddress[_sireId] == matronOwner);\n    }\n\n    /**\n    * Trigger the cooldown of Hero\n    * @param _hero                                   Hero NFT\n    *\n     */\n    function _triggerCooldown(Hero storage _hero) internal {\n        _hero.cooldownEndBlock = uint64((cooldowns[_hero.cooldownIndex]/secondsPerBlock) + block.number);\n\n        if (_hero.cooldownIndex < 13) {\n            _hero.cooldownIndex += 1;\n        }\n    }\n\n    function approveSiring(address _addr, uint256 _sireId)\n        external\n    {\n        require(_owns(msg.sender, _sireId));\n        sireAllowedToAddress[_sireId] = _addr;\n    }\n\n    /**\n    * Check if the Hero is Ready to Breed\n    * @param _heroId                                   HeroId\n    *\n    * @return result                                    Return Result\n    *\n     */\n    function isReadyToBreed(uint256 _heroId)\n        public\n        view\n        returns (bool)\n    {\n        require(_heroId > 0);\n        Hero storage hero = heroes[_heroId];\n        return _isReadyToBreed(hero);\n    }\n\n    function _isValidMatingPair(\n        Hero storage _matron,\n        uint256 _matronId,\n        Hero storage _sire,\n        uint256 _sireId\n    )\n        private\n        view\n        returns(bool)\n    {\n        if (_matronId == _sireId) {\n            return false;\n        }\n\n        if (_matron.matronId == _sireId || _matron.sireId == _sireId) {\n            return false;\n        }\n        if (_sire.matronId == _matronId || _sire.sireId == _matronId) {\n            return false;\n        }\n\n        if (_sire.matronId == 0 || _matron.matronId == 0) {\n            return true;\n        }\n\n        if (_sire.matronId == _matron.matronId || _sire.matronId == _matron.sireId) {\n            return false;\n        }\n        if (_sire.sireId == _matron.matronId || _sire.sireId == _matron.sireId) {\n            return false;\n        }\n\n        return true;\n    }\n\n    function _canBreedWithViaAuction(uint256 _matronId, uint256 _sireId)\n        internal\n        view\n        returns (bool)\n    {\n        Hero storage matron = heroes[_matronId];\n        Hero storage sire = heroes[_sireId];\n        return _isValidMatingPair(matron, _matronId, sire, _sireId);\n    }\n\n    function canBreedWith(uint256 _matronId, uint256 _sireId)\n        external\n        view\n        returns(bool)\n    {\n        require(_matronId > 0);\n        require(_sireId > 0);\n        Hero storage matron = heroes[_matronId];\n        Hero storage sire = heroes[_sireId];\n        return _isValidMatingPair(matron, _matronId, sire, _sireId) &&\n            _isSiringPermitted(_sireId, _matronId);\n    }\n\n    /**\n    * Breed Matron and Sire\n    * @param _matronId                                   ID of Matron Hero\n    * @param _sireId                                     ID of Sire Hero\n    *\n     */\n    function _breedWith(uint256 _matronId, uint256 _sireId) internal {\n        Hero storage sire = heroes[_sireId];\n        Hero storage matron = heroes[_matronId];\n\n        matron.siringWithId = uint32(_sireId);\n\n        _triggerCooldown(sire);\n        _triggerCooldown(matron);\n\n        delete sireAllowedToAddress[_matronId];\n        delete sireAllowedToAddress[_sireId];\n\n        // pregnantHeroes++;\n\n        contractEggCore.createEggToOwner(heroIndexToOwner[_matronId], now, sire.price, sire.tokenId, sire.tokenPrice, _matronId, _sireId);\n\n        emit Pregnant(heroIndexToOwner[_matronId], _matronId, _sireId, matron.cooldownEndBlock);\n    }\n\n    /**\n    * Breed Matron and Sire owend by One User\n    * @param _matronId                                   ID of Matron Hero\n    * @param _sireId                                     ID of Sire Hero\n    *\n     */\n    \n    function breedWithOwns(uint256 _matronId, uint256 _sireId)\n        external\n        payable\n    {\n        require(_owns(msg.sender, _matronId));\n        require(_owns(msg.sender, _sireId));\n        _breedWith(_matronId, _sireId);\n    }\n\n    /**\n    * Breed Matron and Sire Owned By One User\n    * @param _matronId                                   ID of Matron Hero\n    * @param _sireId                                     ID of Sire Hero\n    *\n     */\n    function breedWithOwned(uint256 _matronId, uint256 _sireId)\n        external\n        payable\n        // whenNotPaused\n    {\n        require(msg.value >= autoBirthFee);\n\n        require(_owns(msg.sender, _matronId));\n        require(_owns(msg.sender, _sireId));\n\n        // require(_isSiringPermitted(_sireId, _matronId));\n        // Hero storage matron = heroes[_matronId];\n\n        // require(_isReadyToBreed(matron));\n\n        // Hero storage sire = heroes[_sireId];\n\n        // require(_isReadyToBreed(sire));\n\n        // require(_isValidMatingPair(\n        //     matron,\n        //     _matronId,\n        //     sire,\n        //     _sireId\n        // ));\n\n        _breedWith(_matronId, _sireId);\n    }\n\n    function breedTest() public pure returns(string memory)\n    {\n        return \"Breed Test\";\n    }\n}",
  "sourcePath": "/home/ubuntu/dev/Boby/pizzaHero/contracts/PZHeroBreeding.sol",
  "compiler": {
    "name": "solc",
    "version": "0.5.4+commit.d15a3125.mod.Emscripten.clang"
  },
  "schemaVersion": "2.0.1",
  "updatedAt": "2021-03-24T05:12:23.554Z"
}