{
  "contractName": "PZItemCore",
  "abi": [
    {
      "constant": true,
      "inputs": [
        {
          "name": "_interfaceID",
          "type": "bytes4"
        }
      ],
      "name": "supportsInterface",
      "outputs": [
        {
          "name": "",
          "type": "bool"
        }
      ],
      "payable": false,
      "stateMutability": "view",
      "type": "function"
    },
    {
      "constant": true,
      "inputs": [],
      "name": "name",
      "outputs": [
        {
          "name": "",
          "type": "string"
        }
      ],
      "payable": false,
      "stateMutability": "view",
      "type": "function"
    },
    {
      "constant": false,
      "inputs": [
        {
          "name": "_to",
          "type": "address"
        },
        {
          "name": "_itemId",
          "type": "uint256"
        }
      ],
      "name": "approve",
      "outputs": [],
      "payable": false,
      "stateMutability": "nonpayable",
      "type": "function"
    },
    {
      "constant": true,
      "inputs": [],
      "name": "totalSupply",
      "outputs": [
        {
          "name": "",
          "type": "uint256"
        }
      ],
      "payable": false,
      "stateMutability": "view",
      "type": "function"
    },
    {
      "constant": false,
      "inputs": [
        {
          "name": "_from",
          "type": "address"
        },
        {
          "name": "_to",
          "type": "address"
        },
        {
          "name": "_itemId",
          "type": "uint256"
        }
      ],
      "name": "transferFrom",
      "outputs": [],
      "payable": false,
      "stateMutability": "nonpayable",
      "type": "function"
    },
    {
      "constant": true,
      "inputs": [],
      "name": "addrHero",
      "outputs": [
        {
          "name": "",
          "type": "address"
        }
      ],
      "payable": false,
      "stateMutability": "view",
      "type": "function"
    },
    {
      "constant": true,
      "inputs": [
        {
          "name": "_auctionId",
          "type": "uint256"
        }
      ],
      "name": "getItemAuction",
      "outputs": [
        {
          "name": "seller",
          "type": "address"
        },
        {
          "name": "price",
          "type": "uint256"
        },
        {
          "name": "itemId",
          "type": "uint256"
        }
      ],
      "payable": false,
      "stateMutability": "view",
      "type": "function"
    },
    {
      "constant": false,
      "inputs": [
        {
          "name": "_addrHero",
          "type": "address"
        }
      ],
      "name": "setHeroAddr",
      "outputs": [],
      "payable": false,
      "stateMutability": "nonpayable",
      "type": "function"
    },
    {
      "constant": true,
      "inputs": [
        {
          "name": "",
          "type": "address"
        }
      ],
      "name": "ownershipItemCount",
      "outputs": [
        {
          "name": "",
          "type": "uint256"
        }
      ],
      "payable": false,
      "stateMutability": "view",
      "type": "function"
    },
    {
      "constant": false,
      "inputs": [
        {
          "name": "_addrChest",
          "type": "address"
        }
      ],
      "name": "setChestAddr",
      "outputs": [],
      "payable": false,
      "stateMutability": "nonpayable",
      "type": "function"
    },
    {
      "constant": true,
      "inputs": [
        {
          "name": "_itemId",
          "type": "uint256"
        }
      ],
      "name": "ownerOf",
      "outputs": [
        {
          "name": "owner",
          "type": "address"
        }
      ],
      "payable": false,
      "stateMutability": "view",
      "type": "function"
    },
    {
      "constant": false,
      "inputs": [
        {
          "name": "_itemId",
          "type": "uint256"
        }
      ],
      "name": "bidAuction",
      "outputs": [],
      "payable": true,
      "stateMutability": "payable",
      "type": "function"
    },
    {
      "constant": true,
      "inputs": [
        {
          "name": "",
          "type": "uint256"
        }
      ],
      "name": "itemQuantityLimit",
      "outputs": [
        {
          "name": "",
          "type": "uint256"
        }
      ],
      "payable": false,
      "stateMutability": "view",
      "type": "function"
    },
    {
      "constant": false,
      "inputs": [
        {
          "name": "_price",
          "type": "uint256"
        },
        {
          "name": "_tokenId",
          "type": "uint256"
        },
        {
          "name": "_tokenPrice",
          "type": "uint256"
        },
        {
          "name": "_itemName",
          "type": "string"
        },
        {
          "name": "_itemQuantity",
          "type": "uint256"
        },
        {
          "name": "_itemRarity",
          "type": "uint256"
        },
        {
          "name": "_itemType",
          "type": "uint256"
        }
      ],
      "name": "createItemGroup",
      "outputs": [],
      "payable": false,
      "stateMutability": "nonpayable",
      "type": "function"
    },
    {
      "constant": true,
      "inputs": [
        {
          "name": "_owner",
          "type": "address"
        }
      ],
      "name": "balanceOf",
      "outputs": [
        {
          "name": "count",
          "type": "uint256"
        }
      ],
      "payable": false,
      "stateMutability": "view",
      "type": "function"
    },
    {
      "constant": false,
      "inputs": [
        {
          "name": "_price",
          "type": "uint256"
        },
        {
          "name": "_itemId",
          "type": "uint256"
        }
      ],
      "name": "addAuction",
      "outputs": [],
      "payable": false,
      "stateMutability": "nonpayable",
      "type": "function"
    },
    {
      "constant": true,
      "inputs": [],
      "name": "addrChest",
      "outputs": [
        {
          "name": "",
          "type": "address"
        }
      ],
      "payable": false,
      "stateMutability": "view",
      "type": "function"
    },
    {
      "constant": true,
      "inputs": [],
      "name": "getItemIdsOnSale",
      "outputs": [
        {
          "name": "",
          "type": "uint256[]"
        }
      ],
      "payable": false,
      "stateMutability": "view",
      "type": "function"
    },
    {
      "constant": true,
      "inputs": [
        {
          "name": "",
          "type": "uint256"
        }
      ],
      "name": "itemIndexToApproved",
      "outputs": [
        {
          "name": "",
          "type": "address"
        }
      ],
      "payable": false,
      "stateMutability": "view",
      "type": "function"
    },
    {
      "constant": true,
      "inputs": [
        {
          "name": "",
          "type": "uint256"
        }
      ],
      "name": "itemGroups",
      "outputs": [
        {
          "name": "price",
          "type": "uint256"
        },
        {
          "name": "tokenId",
          "type": "uint256"
        },
        {
          "name": "tokenPrice",
          "type": "uint256"
        },
        {
          "name": "itemName",
          "type": "string"
        },
        {
          "name": "itemQuantity",
          "type": "uint256"
        },
        {
          "name": "itemTotalAmount",
          "type": "uint256"
        },
        {
          "name": "itemRarity",
          "type": "uint256"
        },
        {
          "name": "itemType",
          "type": "uint256"
        }
      ],
      "payable": false,
      "stateMutability": "view",
      "type": "function"
    },
    {
      "constant": true,
      "inputs": [],
      "name": "getItemAuctionCount",
      "outputs": [
        {
          "name": "",
          "type": "uint256"
        }
      ],
      "payable": false,
      "stateMutability": "view",
      "type": "function"
    },
    {
      "constant": true,
      "inputs": [],
      "name": "symbol",
      "outputs": [
        {
          "name": "",
          "type": "string"
        }
      ],
      "payable": false,
      "stateMutability": "view",
      "type": "function"
    },
    {
      "constant": false,
      "inputs": [
        {
          "name": "_itemId",
          "type": "uint256"
        }
      ],
      "name": "cancelAuction",
      "outputs": [],
      "payable": false,
      "stateMutability": "nonpayable",
      "type": "function"
    },
    {
      "constant": true,
      "inputs": [
        {
          "name": "_owner",
          "type": "address"
        }
      ],
      "name": "itemsOfOwner",
      "outputs": [
        {
          "name": "ownerItems",
          "type": "uint256[]"
        }
      ],
      "payable": false,
      "stateMutability": "view",
      "type": "function"
    },
    {
      "constant": false,
      "inputs": [
        {
          "name": "_to",
          "type": "address"
        },
        {
          "name": "_itemId",
          "type": "uint256"
        }
      ],
      "name": "transfer",
      "outputs": [],
      "payable": false,
      "stateMutability": "nonpayable",
      "type": "function"
    },
    {
      "constant": true,
      "inputs": [],
      "name": "addrAdmin",
      "outputs": [
        {
          "name": "",
          "type": "address"
        }
      ],
      "payable": false,
      "stateMutability": "view",
      "type": "function"
    },
    {
      "constant": true,
      "inputs": [
        {
          "name": "",
          "type": "uint256"
        }
      ],
      "name": "items",
      "outputs": [
        {
          "name": "date",
          "type": "uint256"
        },
        {
          "name": "price",
          "type": "uint256"
        },
        {
          "name": "tokenId",
          "type": "uint256"
        },
        {
          "name": "tokenPrice",
          "type": "uint256"
        },
        {
          "name": "itemType",
          "type": "uint256"
        },
        {
          "name": "itemRarity",
          "type": "uint256"
        },
        {
          "name": "itemGroupID",
          "type": "uint256"
        },
        {
          "name": "itemName",
          "type": "string"
        }
      ],
      "payable": false,
      "stateMutability": "view",
      "type": "function"
    },
    {
      "constant": false,
      "inputs": [
        {
          "name": "_contractAddress",
          "type": "address"
        }
      ],
      "name": "setMetadataAddress",
      "outputs": [],
      "payable": false,
      "stateMutability": "nonpayable",
      "type": "function"
    },
    {
      "constant": true,
      "inputs": [
        {
          "name": "_itemId",
          "type": "uint256"
        }
      ],
      "name": "getItemAuctionByItemId",
      "outputs": [
        {
          "name": "seller",
          "type": "address"
        },
        {
          "name": "price",
          "type": "uint256"
        },
        {
          "name": "itemId",
          "type": "uint256"
        }
      ],
      "payable": false,
      "stateMutability": "view",
      "type": "function"
    },
    {
      "constant": true,
      "inputs": [
        {
          "name": "",
          "type": "uint256"
        }
      ],
      "name": "itemAuctions",
      "outputs": [
        {
          "name": "seller",
          "type": "address"
        },
        {
          "name": "startingPrice",
          "type": "uint256"
        },
        {
          "name": "itemId",
          "type": "uint256"
        }
      ],
      "payable": false,
      "stateMutability": "view",
      "type": "function"
    },
    {
      "constant": true,
      "inputs": [],
      "name": "trc721Metadata",
      "outputs": [
        {
          "name": "",
          "type": "address"
        }
      ],
      "payable": false,
      "stateMutability": "view",
      "type": "function"
    },
    {
      "constant": true,
      "inputs": [
        {
          "name": "",
          "type": "uint256"
        }
      ],
      "name": "itemIndexToOwner",
      "outputs": [
        {
          "name": "",
          "type": "address"
        }
      ],
      "payable": false,
      "stateMutability": "view",
      "type": "function"
    },
    {
      "inputs": [
        {
          "name": "_pool",
          "type": "address"
        }
      ],
      "payable": false,
      "stateMutability": "nonpayable",
      "type": "constructor"
    },
    {
      "anonymous": false,
      "inputs": [
        {
          "indexed": false,
          "name": "from",
          "type": "address"
        },
        {
          "indexed": false,
          "name": "to",
          "type": "address"
        },
        {
          "indexed": false,
          "name": "tokenId",
          "type": "uint256"
        }
      ],
      "name": "Transfer",
      "type": "event"
    },
    {
      "anonymous": false,
      "inputs": [
        {
          "indexed": false,
          "name": "owner",
          "type": "address"
        },
        {
          "indexed": false,
          "name": "approved",
          "type": "address"
        },
        {
          "indexed": false,
          "name": "tokenId",
          "type": "uint256"
        }
      ],
      "name": "Approval",
      "type": "event"
    },
    {
      "anonymous": false,
      "inputs": [
        {
          "indexed": false,
          "name": "itmeType",
          "type": "uint256"
        },
        {
          "indexed": false,
          "name": "quantity",
          "type": "uint256"
        }
      ],
      "name": "ItemsCreated",
      "type": "event"
    },
    {
      "anonymous": false,
      "inputs": [
        {
          "indexed": false,
          "name": "itemName",
          "type": "string"
        },
        {
          "indexed": false,
          "name": "itemQuantity",
          "type": "uint256"
        },
        {
          "indexed": false,
          "name": "itemRarity",
          "type": "uint256"
        },
        {
          "indexed": false,
          "name": "itemType",
          "type": "uint256"
        }
      ],
      "name": "ItemGroupCreated",
      "type": "event"
    },
    {
      "constant": false,
      "inputs": [
        {
          "name": "_buyer",
          "type": "address"
        },
        {
          "name": "_itemGroupId",
          "type": "uint256"
        }
      ],
      "name": "createItemToBuyer",
      "outputs": [],
      "payable": false,
      "stateMutability": "nonpayable",
      "type": "function"
    },
    {
      "constant": false,
      "inputs": [
        {
          "name": "_pool",
          "type": "address"
        }
      ],
      "name": "setAddrPool",
      "outputs": [],
      "payable": false,
      "stateMutability": "nonpayable",
      "type": "function"
    },
    {
      "constant": false,
      "inputs": [
        {
          "name": "_itemGroupId",
          "type": "uint256"
        },
        {
          "name": "_referrer",
          "type": "address"
        },
        {
          "name": "itemAmount",
          "type": "uint256"
        },
        {
          "name": "bTrxPurchase",
          "type": "bool"
        }
      ],
      "name": "buyItems",
      "outputs": [],
      "payable": true,
      "stateMutability": "payable",
      "type": "function"
    },
    {
      "constant": false,
      "inputs": [
        {
          "name": "_to",
          "type": "address"
        },
        {
          "name": "_itemId",
          "type": "uint256"
        }
      ],
      "name": "giftItem",
      "outputs": [],
      "payable": false,
      "stateMutability": "nonpayable",
      "type": "function"
    },
    {
      "constant": true,
      "inputs": [
        {
          "name": "_id",
          "type": "uint256"
        }
      ],
      "name": "getItem",
      "outputs": [
        {
          "name": "date",
          "type": "uint256"
        },
        {
          "name": "price",
          "type": "uint256"
        },
        {
          "name": "tokenId",
          "type": "uint256"
        },
        {
          "name": "tokenPrice",
          "type": "uint256"
        },
        {
          "name": "itemType",
          "type": "uint256"
        },
        {
          "name": "itemRarity",
          "type": "uint256"
        },
        {
          "name": "itemGroupId",
          "type": "uint256"
        },
        {
          "name": "itemName",
          "type": "string"
        }
      ],
      "payable": false,
      "stateMutability": "view",
      "type": "function"
    },
    {
      "constant": true,
      "inputs": [],
      "name": "getItemGroupSupply",
      "outputs": [
        {
          "name": "",
          "type": "uint256"
        }
      ],
      "payable": false,
      "stateMutability": "view",
      "type": "function"
    },
    {
      "constant": true,
      "inputs": [
        {
          "name": "_itemGroupId",
          "type": "uint256"
        }
      ],
      "name": "getItemGroup",
      "outputs": [
        {
          "name": "price",
          "type": "uint256"
        },
        {
          "name": "tokenId",
          "type": "uint256"
        },
        {
          "name": "tokenPrice",
          "type": "uint256"
        },
        {
          "name": "itemName",
          "type": "string"
        },
        {
          "name": "itemQuantity",
          "type": "uint256"
        },
        {
          "name": "itemTotalAmount",
          "type": "uint256"
        },
        {
          "name": "itemRairty",
          "type": "uint256"
        },
        {
          "name": "itemType",
          "type": "uint256"
        }
      ],
      "payable": false,
      "stateMutability": "view",
      "type": "function"
    },
    {
      "constant": true,
      "inputs": [],
      "name": "getItemQuantity",
      "outputs": [
        {
          "name": "quantity",
          "type": "uint256"
        }
      ],
      "payable": false,
      "stateMutability": "view",
      "type": "function"
    },
    {
      "constant": true,
      "inputs": [],
      "name": "itemTest",
      "outputs": [
        {
          "name": "",
          "type": "address"
        }
      ],
      "payable": false,
      "stateMutability": "view",
      "type": "function"
    },
    {
      "constant": true,
      "inputs": [],
      "name": "isItemContract",
      "outputs": [
        {
          "name": "",
          "type": "bool"
        }
      ],
      "payable": false,
      "stateMutability": "pure",
      "type": "function"
    }
  ],
  "bytecode": "0x60806040523480156200001157600080fd5b50d380156200001f57600080fd5b50d280156200002d57600080fd5b506040516020806200400983398101806040528101908080519060200190929190505050336000806101000a81548173ffffffffffffffffffffffffffffffffffffffff021916908373ffffffffffffffffffffffffffffffffffffffff160217905550600161271090806001815401808255809150509060018203906000526020600020016000909192909190915055506001612710908060018154018082558091505090600182039060005260206000200160009091929091909150555060016127109080600181540180825580915050906001820390600052602060002001600090919290919091505550600073ffffffffffffffffffffffffffffffffffffffff168173ffffffffffffffffffffffffffffffffffffffff16141515156200015857600080fd5b80600c60006101000a81548173ffffffffffffffffffffffffffffffffffffffff021916908373ffffffffffffffffffffffffffffffffffffffff16021790555050613e5f80620001aa6000396000f300608060405260043610610204576000357c0100000000000000000000000000000000000000000000000000000000900463ffffffff168063019d90521461020957806301ffc9a7146102fa57806302bcc6181461037857806306fdde03146103bd578063095ea7b31461046757806318160ddd146104ce57806323b872dd146105135780632bc9f2931461059a5780633129e7731461060b5780634930068b146106fc57806352270c471461079157806353ded211146107ee5780635461c5f91461085f5780636173a5d4146108a8578063634c2eb6146109055780636352211e1461096c57806364a7d7c7146109f35780636734244814610a135780636a9faf7114610a6e57806370a0823114610b2d57806373187d2714610b9e57806375dba7b914610bef57806376c0b36714610c4c578063792b875214610cbd5780637d4cb74e14610d435780637fe1ad1d14610daa5780638807270014610e1b5780638c2a4c4f14610ea25780639524845a14610f9357806395d89b4114610fd857806396b5a755146110825780639a4ca3cb146110c9578063a9059cbb1461117b578063bfae2f0e146111e2578063bfb231d214611253578063c22b8fb214611344578063c55ca86914611389578063e17b25af146113df578063e25b79291461143c578063e8e2b0de146114d1578063f15f938814611566578063fe9b1a89146115d7575b600080fd5b34801561021557600080fd5b50d3801561022257600080fd5b50d2801561022f57600080fd5b5061024e6004803603810190808035906020019092919050505061165e565b6040518089815260200188815260200187815260200180602001868152602001858152602001848152602001838152602001828103825287818151815260200191508051906020019080838360005b838110156102b857808201518184015260208101905061029d565b50505050905090810190601f1680156102e55780820380516001836020036101000a031916815260200191505b50995050505050505050505060405180910390f35b34801561030657600080fd5b50d3801561031357600080fd5b50d2801561032057600080fd5b5061035e60048036038101908080357bffffffffffffffffffffffffffffffffffffffffffffffffffffffff191690602001909291905050506117ce565b604051808215151515815260200191505060405180910390f35b34801561038457600080fd5b50d3801561039157600080fd5b50d2801561039e57600080fd5b506103a7611adf565b6040518082815260200191505060405180910390f35b3480156103c957600080fd5b50d380156103d657600080fd5b50d280156103e357600080fd5b506103ec611aec565b6040518080602001828103825283818151815260200191508051906020019080838360005b8381101561042c578082015181840152602081019050610411565b50505050905090810190601f1680156104595780820380516001836020036101000a031916815260200191505b509250505060405180910390f35b34801561047357600080fd5b50d3801561048057600080fd5b50d2801561048d57600080fd5b506104cc600480360381019080803573ffffffffffffffffffffffffffffffffffffffff16906020019092919080359060200190929190505050611b25565b005b3480156104da57600080fd5b50d380156104e757600080fd5b50d280156104f457600080fd5b506104fd611be7565b6040518082815260200191505060405180910390f35b34801561051f57600080fd5b50d3801561052c57600080fd5b50d2801561053957600080fd5b50610598600480360381019080803573ffffffffffffffffffffffffffffffffffffffff169060200190929190803573ffffffffffffffffffffffffffffffffffffffff16906020019092919080359060200190929190505050611bf7565b005b3480156105a657600080fd5b50d380156105b357600080fd5b50d280156105c057600080fd5b506105c9611ca8565b604051808273ffffffffffffffffffffffffffffffffffffffff1673ffffffffffffffffffffffffffffffffffffffff16815260200191505060405180910390f35b34801561061757600080fd5b50d3801561062457600080fd5b50d2801561063157600080fd5b5061065060048036038101908080359060200190929190505050611cce565b6040518089815260200188815260200187815260200186815260200185815260200184815260200183815260200180602001828103825283818151815260200191508051906020019080838360005b838110156106ba57808201518184015260208101905061069f565b50505050905090810190601f1680156106e75780820380516001836020036101000a031916815260200191505b50995050505050505050505060405180910390f35b34801561070857600080fd5b50d3801561071557600080fd5b50d2801561072257600080fd5b5061074160048036038101908080359060200190929190505050611e3e565b604051808473ffffffffffffffffffffffffffffffffffffffff1673ffffffffffffffffffffffffffffffffffffffff168152602001838152602001828152602001935050505060405180910390f35b34801561079d57600080fd5b50d380156107aa57600080fd5b50d280156107b757600080fd5b506107ec600480360381019080803573ffffffffffffffffffffffffffffffffffffffff169060200190929190505050611efd565b005b3480156107fa57600080fd5b50d3801561080757600080fd5b50d2801561081457600080fd5b50610849600480360381019080803573ffffffffffffffffffffffffffffffffffffffff169060200190929190505050611fd8565b6040518082815260200191505060405180910390f35b34801561086b57600080fd5b50d3801561087857600080fd5b50d2801561088557600080fd5b5061088e611ff0565b604051808215151515815260200191505060405180910390f35b3480156108b457600080fd5b50d380156108c157600080fd5b50d280156108ce57600080fd5b50610903600480360381019080803573ffffffffffffffffffffffffffffffffffffffff169060200190929190505050611ff9565b005b34801561091157600080fd5b50d3801561091e57600080fd5b50d2801561092b57600080fd5b5061096a600480360381019080803573ffffffffffffffffffffffffffffffffffffffff169060200190929190803590602001909291905050506120d4565b005b34801561097857600080fd5b50d3801561098557600080fd5b50d2801561099257600080fd5b506109b160048036038101908080359060200190929190505050612134565b604051808273ffffffffffffffffffffffffffffffffffffffff1673ffffffffffffffffffffffffffffffffffffffff16815260200191505060405180910390f35b610a11600480360381019080803590602001909291905050506121ad565b005b348015610a1f57600080fd5b50d38015610a2c57600080fd5b50d28015610a3957600080fd5b50610a58600480360381019080803590602001909291905050506122e0565b6040518082815260200191505060405180910390f35b348015610a7a57600080fd5b50d38015610a8757600080fd5b50d28015610a9457600080fd5b50610b2b600480360381019080803590602001909291908035906020019092919080359060200190929190803590602001908201803590602001908080601f0160208091040260200160405190810160405280939291908181526020018383808284378201915050505050509192919290803590602001909291908035906020019092919080359060200190929190505050612303565b005b348015610b3957600080fd5b50d38015610b4657600080fd5b50d28015610b5357600080fd5b50610b88600480360381019080803573ffffffffffffffffffffffffffffffffffffffff169060200190929190505050612376565b6040518082815260200191505060405180910390f35b348015610baa57600080fd5b50d38015610bb757600080fd5b50d28015610bc457600080fd5b50610bed60048036038101908080359060200190929190803590602001909291905050506123bf565b005b348015610bfb57600080fd5b50d38015610c0857600080fd5b50d28015610c1557600080fd5b50610c4a600480360381019080803573ffffffffffffffffffffffffffffffffffffffff1690602001909291905050506124a1565b005b348015610c5857600080fd5b50d38015610c6557600080fd5b50d28015610c7257600080fd5b50610c7b61257c565b604051808273ffffffffffffffffffffffffffffffffffffffff1673ffffffffffffffffffffffffffffffffffffffff16815260200191505060405180910390f35b348015610cc957600080fd5b50d38015610cd657600080fd5b50d28015610ce357600080fd5b50610cec6125a2565b6040518080602001828103825283818151815260200191508051906020019060200280838360005b83811015610d2f578082015181840152602081019050610d14565b505050509050019250505060405180910390f35b348015610d4f57600080fd5b50d38015610d5c57600080fd5b50d28015610d6957600080fd5b50610da8600480360381019080803573ffffffffffffffffffffffffffffffffffffffff169060200190929190803590602001909291905050506125b2565b005b348015610db657600080fd5b50d38015610dc357600080fd5b50d28015610dd057600080fd5b50610dd9612761565b604051808273ffffffffffffffffffffffffffffffffffffffff1673ffffffffffffffffffffffffffffffffffffffff16815260200191505060405180910390f35b348015610e2757600080fd5b50d38015610e3457600080fd5b50d28015610e4157600080fd5b50610e606004803603810190808035906020019092919050505061278b565b604051808273ffffffffffffffffffffffffffffffffffffffff1673ffffffffffffffffffffffffffffffffffffffff16815260200191505060405180910390f35b348015610eae57600080fd5b50d38015610ebb57600080fd5b50d28015610ec857600080fd5b50610ee7600480360381019080803590602001909291905050506127be565b6040518089815260200188815260200187815260200180602001868152602001858152602001848152602001838152602001828103825287818151815260200191508051906020019080838360005b83811015610f51578082015181840152602081019050610f36565b50505050905090810190601f168015610f7e5780820380516001836020036101000a031916815260200191505b50995050505050505050505060405180910390f35b348015610f9f57600080fd5b50d38015610fac57600080fd5b50d28015610fb957600080fd5b50610fc26128ad565b6040518082815260200191505060405180910390f35b348015610fe457600080fd5b50d38015610ff157600080fd5b50d28015610ffe57600080fd5b506110076128ba565b6040518080602001828103825283818151815260200191508051906020019080838360005b8381101561104757808201518184015260208101905061102c565b50505050905090810190601f1680156110745780820380516001836020036101000a031916815260200191505b509250505060405180910390f35b34801561108e57600080fd5b50d3801561109b57600080fd5b50d280156110a857600080fd5b506110c7600480360381019080803590602001909291905050506128f3565b005b3480156110d557600080fd5b50d380156110e257600080fd5b50d280156110ef57600080fd5b50611124600480360381019080803573ffffffffffffffffffffffffffffffffffffffff1690602001909291905050506129f1565b6040518080602001828103825283818151815260200191508051906020019060200280838360005b8381101561116757808201518184015260208101905061114c565b505050509050019250505060405180910390f35b34801561118757600080fd5b50d3801561119457600080fd5b50d280156111a157600080fd5b506111e0600480360381019080803573ffffffffffffffffffffffffffffffffffffffff16906020019092919080359060200190929190505050612b3e565b005b3480156111ee57600080fd5b50d380156111fb57600080fd5b50d2801561120857600080fd5b50611211612bd9565b604051808273ffffffffffffffffffffffffffffffffffffffff1673ffffffffffffffffffffffffffffffffffffffff16815260200191505060405180910390f35b34801561125f57600080fd5b50d3801561126c57600080fd5b50d2801561127957600080fd5b5061129860048036038101908080359060200190929190505050612bfe565b6040518089815260200188815260200187815260200186815260200185815260200184815260200183815260200180602001828103825283818151815260200191508051906020019080838360005b838110156113025780820151818401526020810190506112e7565b50505050905090810190601f16801561132f5780820380516001836020036101000a031916815260200191505b50995050505050505050505060405180910390f35b34801561135057600080fd5b50d3801561135d57600080fd5b50d2801561136a57600080fd5b50611373612ced565b6040518082815260200191505060405180910390f35b6113dd60048036038101908080359060200190929190803573ffffffffffffffffffffffffffffffffffffffff16906020019092919080359060200190929190803515159060200190929190505050612cfa565b005b3480156113eb57600080fd5b50d380156113f857600080fd5b50d2801561140557600080fd5b5061143a600480360381019080803573ffffffffffffffffffffffffffffffffffffffff1690602001909291905050506132c2565b005b34801561144857600080fd5b50d3801561145557600080fd5b50d2801561146257600080fd5b5061148160048036038101908080359060200190929190505050613361565b604051808473ffffffffffffffffffffffffffffffffffffffff1673ffffffffffffffffffffffffffffffffffffffff168152602001838152602001828152602001935050505060405180910390f35b3480156114dd57600080fd5b50d380156114ea57600080fd5b50d280156114f757600080fd5b5061151660048036038101908080359060200190929190505050613416565b604051808473ffffffffffffffffffffffffffffffffffffffff1673ffffffffffffffffffffffffffffffffffffffff168152602001838152602001828152602001935050505060405180910390f35b34801561157257600080fd5b50d3801561157f57600080fd5b50d2801561158c57600080fd5b5061159561346f565b604051808273ffffffffffffffffffffffffffffffffffffffff1673ffffffffffffffffffffffffffffffffffffffff16815260200191505060405180910390f35b3480156115e357600080fd5b50d380156115f057600080fd5b50d280156115fd57600080fd5b5061161c60048036038101908080359060200190929190505050613495565b604051808273ffffffffffffffffffffffffffffffffffffffff1673ffffffffffffffffffffffffffffffffffffffff16815260200191505060405180910390f35b60008060006060600080600080611673613cca565b60038a81548110151561168257fe5b90600052602060002090600802016101006040519081016040529081600082015481526020016001820154815260200160028201548152602001600382018054600181600116156101000203166002900480601f0160208091040260200160405190810160405280929190818152602001828054600181600116156101000203166002900480156117545780601f1061172957610100808354040283529160200191611754565b820191906000526020600020905b81548152906001019060200180831161173757829003601f168201915b505050505081526020016004820154815260200160058201548152602001600682015481526020016007820154815250509050806000015181602001518260400151836060015184608001518560a001518660c001518760e001518494509850985098509850985098509850985050919395975091939597565b600060405180807f737570706f727473496e74657266616365286279746573342900000000000000815250601901905060405180910390207bffffffffffffffffffffffffffffffffffffffffffffffffffffffff1916827bffffffffffffffffffffffffffffffffffffffffffffffffffffffff19161480611ad8575060405180807f746f6b656e4d657461646174612875696e743235362c737472696e6729000000815250601d019050604051809103902060405180807f6974656d734f664f776e657228616464726573732900000000000000000000008152506015019050604051809103902060405180807f7472616e7366657246726f6d28616464726573732c616464726573732c75696e81526020017f74323536290000000000000000000000000000000000000000000000000000008152506025019050604051809103902060405180807f7472616e7366657228616464726573732c75696e7432353629000000000000008152506019019050604051809103902060405180807f617070726f766528616464726573732c75696e743235362900000000000000008152506018019050604051809103902060405180807f6f776e65724f662875696e7432353629000000000000000000000000000000008152506010019050604051809103902060405180807f62616c616e63654f6628616464726573732900000000000000000000000000008152506012019050604051809103902060405180807f746f74616c537570706c79282900000000000000000000000000000000000000815250600d019050604051809103902060405180807f73796d626f6c28290000000000000000000000000000000000000000000000008152506008019050604051809103902060405180807f6e616d6528290000000000000000000000000000000000000000000000000000815250600601905060405180910390201818181818181818187bffffffffffffffffffffffffffffffffffffffffffffffffffffffff1916827bffffffffffffffffffffffffffffffffffffffffffffffffffffffff1916145b9050919050565b6000600280549050905090565b6040805190810160405280600781526020017f505a4974656d730000000000000000000000000000000000000000000000000081525081565b611b2f33826134c8565b1515611b3a57600080fd5b611b448183613534565b7f8c5be1e5ebec7d5bd14f71427d1e84f3dd0314c0f7b2291e5b200ac8c7c3b925338383604051808473ffffffffffffffffffffffffffffffffffffffff1673ffffffffffffffffffffffffffffffffffffffff1681526020018373ffffffffffffffffffffffffffffffffffffffff1673ffffffffffffffffffffffffffffffffffffffff168152602001828152602001935050505060405180910390a15050565b6000600160028054905003905090565b600073ffffffffffffffffffffffffffffffffffffffff168273ffffffffffffffffffffffffffffffffffffffff1614151515611c3357600080fd5b3073ffffffffffffffffffffffffffffffffffffffff168273ffffffffffffffffffffffffffffffffffffffff1614151515611c6e57600080fd5b611c78338261358a565b1515611c8357600080fd5b611c8d83826134c8565b1515611c9857600080fd5b611ca38383836135f6565b505050565b600560009054906101000a900473ffffffffffffffffffffffffffffffffffffffff1681565b60008060008060008060006060611ce3613d10565b60028a815481101515611cf257fe5b9060005260206000209060080201610100604051908101604052908160008201548152602001600182015481526020016002820154815260200160038201548152602001600482015481526020016005820154815260200160068201548152602001600782018054600181600116156101000203166002900480601f016020809104026020016040519081016040528092919081815260200182805460018160011615610100020316600290048015611dec5780601f10611dc157610100808354040283529160200191611dec565b820191906000526020600020905b815481529060010190602001808311611dcf57829003601f168201915b5050505050815250509050806000015181602001518260400151836060015184608001518560a001518660c001518760e001518090509850985098509850985098509850985050919395975091939597565b6000806000611e4b613d56565b600b85815481101515611e5a57fe5b9060005260206000209060030201606060405190810160405290816000820160009054906101000a900473ffffffffffffffffffffffffffffffffffffffff1673ffffffffffffffffffffffffffffffffffffffff1673ffffffffffffffffffffffffffffffffffffffff168152602001600182015481526020016002820154815250509050806000015181602001518260400151935093509350509193909250565b6000809054906101000a900473ffffffffffffffffffffffffffffffffffffffff1673ffffffffffffffffffffffffffffffffffffffff163373ffffffffffffffffffffffffffffffffffffffff16141515611f5857600080fd5b600073ffffffffffffffffffffffffffffffffffffffff168173ffffffffffffffffffffffffffffffffffffffff1614151515611f9457600080fd5b80600560006101000a81548173ffffffffffffffffffffffffffffffffffffffff021916908373ffffffffffffffffffffffffffffffffffffffff16021790555050565b60076020528060005260406000206000915090505481565b60006001905090565b6000809054906101000a900473ffffffffffffffffffffffffffffffffffffffff1673ffffffffffffffffffffffffffffffffffffffff163373ffffffffffffffffffffffffffffffffffffffff1614151561205457600080fd5b600073ffffffffffffffffffffffffffffffffffffffff168173ffffffffffffffffffffffffffffffffffffffff161415151561209057600080fd5b80600460006101000a81548173ffffffffffffffffffffffffffffffffffffffff021916908373ffffffffffffffffffffffffffffffffffffffff16021790555050565b6120de33826134c8565b15156120e957600080fd5b600073ffffffffffffffffffffffffffffffffffffffff168273ffffffffffffffffffffffffffffffffffffffff161415151561212557600080fd5b6121303383836135f6565b5050565b60006006600083815260200190815260200160002060009054906101000a900473ffffffffffffffffffffffffffffffffffffffff169050600073ffffffffffffffffffffffffffffffffffffffff168173ffffffffffffffffffffffffffffffffffffffff16141515156121a857600080fd5b919050565b6121b5613d56565b6121bf30836134c8565b15156121ca57600080fd5b600a6000838152602001908152602001600020606060405190810160405290816000820160009054906101000a900473ffffffffffffffffffffffffffffffffffffffff1673ffffffffffffffffffffffffffffffffffffffff1673ffffffffffffffffffffffffffffffffffffffff16815260200160018201548152602001600282015481525050905061225f33836134c8565b15151561226b57600080fd5b34816020015114151561227d57600080fd5b612286826137f8565b6122913033846135f6565b806000015173ffffffffffffffffffffffffffffffffffffffff166108fc349081150290604051600060405180830381858888f193505050501580156122db573d6000803e3d6000fd5b505050565b6001818154811015156122ef57fe5b906000526020600020016000915090505481565b6000809054906101000a900473ffffffffffffffffffffffffffffffffffffffff1673ffffffffffffffffffffffffffffffffffffffff163373ffffffffffffffffffffffffffffffffffffffff1614151561235e57600080fd5b61236d87878787878787613848565b50505050505050565b6000600760008373ffffffffffffffffffffffffffffffffffffffff1673ffffffffffffffffffffffffffffffffffffffff168152602001908152602001600020549050919050565b6123c7613d56565b6000831115156123d657600080fd5b6123e033836134c8565b15156123eb57600080fd5b6060604051908101604052803373ffffffffffffffffffffffffffffffffffffffff16815260200184815260200183815250905061242a3330846135f6565b80600a600084815260200190815260200160002060008201518160000160006101000a81548173ffffffffffffffffffffffffffffffffffffffff021916908373ffffffffffffffffffffffffffffffffffffffff1602179055506020820151816001015560408201518160020155905050505050565b6000809054906101000a900473ffffffffffffffffffffffffffffffffffffffff1673ffffffffffffffffffffffffffffffffffffffff163373ffffffffffffffffffffffffffffffffffffffff161415156124fc57600080fd5b600073ffffffffffffffffffffffffffffffffffffffff168173ffffffffffffffffffffffffffffffffffffffff161415151561253857600080fd5b80600c60006101000a81548173ffffffffffffffffffffffffffffffffffffffff021916908373ffffffffffffffffffffffffffffffffffffffff16021790555050565b600460009054906101000a900473ffffffffffffffffffffffffffffffffffffffff1681565b60606125ad306129f1565b905090565b6125ba613cca565b600460009054906101000a900473ffffffffffffffffffffffffffffffffffffffff1673ffffffffffffffffffffffffffffffffffffffff163373ffffffffffffffffffffffffffffffffffffffff1614151561261657600080fd5b60038281548110151561262557fe5b90600052602060002090600802016101006040519081016040529081600082015481526020016001820154815260200160028201548152602001600382018054600181600116156101000203166002900480601f0160208091040260200160405190810160405280929190818152602001828054600181600116156101000203166002900480156126f75780601f106126cc576101008083540402835291602001916126f7565b820191906000526020600020905b8154815290600101906020018083116126da57829003601f168201915b50505050508152602001600482015481526020016005820154815260200160068201548152602001600782015481525050905061275383428360000151846020015185604001518660e001518760c001518989606001516139ff565b61275c82613b4f565b505050565b6000600460009054906101000a900473ffffffffffffffffffffffffffffffffffffffff16905090565b60086020528060005260406000206000915054906101000a900473ffffffffffffffffffffffffffffffffffffffff1681565b6003818154811015156127cd57fe5b9060005260206000209060080201600091509050806000015490806001015490806002015490806003018054600181600116156101000203166002900480601f01602080910402602001604051908101604052809291908181526020018280546001816001161561010002031660029004801561288b5780601f106128605761010080835404028352916020019161288b565b820191906000526020600020905b81548152906001019060200180831161286e57829003601f168201915b5050505050908060040154908060050154908060060154908060070154905088565b6000600b80549050905090565b6040805190810160405280600281526020017f504900000000000000000000000000000000000000000000000000000000000081525081565b6128fb613d56565b61290530836134c8565b151561291057600080fd5b600a6000838152602001908152602001600020606060405190810160405290816000820160009054906101000a900473ffffffffffffffffffffffffffffffffffffffff1673ffffffffffffffffffffffffffffffffffffffff1673ffffffffffffffffffffffffffffffffffffffff168152602001600182015481526020016002820154815250509050806000015173ffffffffffffffffffffffffffffffffffffffff163373ffffffffffffffffffffffffffffffffffffffff161415156129d957600080fd5b6129e2826137f8565b6129ed3033846135f6565b5050565b6060600060606000806000612a0587612376565b94506000851415612a48576000604051908082528060200260200182016040528015612a405781602001602082028038833980820191505090505b509550612b34565b84604051908082528060200260200182016040528015612a775781602001602082028038833980820191505090505b509350612a82611be7565b925060009150600190505b8281111515612b30578673ffffffffffffffffffffffffffffffffffffffff166006600083815260200190815260200160002060009054906101000a900473ffffffffffffffffffffffffffffffffffffffff1673ffffffffffffffffffffffffffffffffffffffff161415612b2357808483815181101515612b0c57fe5b906020019060200201818152505081806001019250505b8080600101915050612a8d565b8395505b5050505050919050565b600073ffffffffffffffffffffffffffffffffffffffff168273ffffffffffffffffffffffffffffffffffffffff1614151515612b7a57600080fd5b3073ffffffffffffffffffffffffffffffffffffffff168273ffffffffffffffffffffffffffffffffffffffff1614151515612bb557600080fd5b612bbf33826134c8565b1515612bca57600080fd5b612bd53383836135f6565b5050565b6000809054906101000a900473ffffffffffffffffffffffffffffffffffffffff1681565b600281815481101515612c0d57fe5b9060005260206000209060080201600091509050806000015490806001015490806002015490806003015490806004015490806005015490806006015490806007018054600181600116156101000203166002900480601f016020809104026020016040519081016040528092919081815260200182805460018160011615610100020316600290048015612ce35780601f10612cb857610100808354040283529160200191612ce3565b820191906000526020600020905b815481529060010190602001808311612cc657829003601f168201915b5050505050905088565b6000600380549050905090565b612d02613cca565b6000600386815481101515612d1357fe5b90600052602060002090600802016101006040519081016040529081600082015481526020016001820154815260200160028201548152602001600382018054600181600116156101000203166002900480601f016020809104026020016040519081016040528092919081815260200182805460018160011615610100020316600290048015612de55780601f10612dba57610100808354040283529160200191612de5565b820191906000526020600020905b815481529060010190602001808311612dc857829003601f168201915b505050505081526020016004820154815260200160058201548152602001600682015481526020016007820154815250509150600084111515612e2757600080fd5b83826080015110151515612e3a57600080fd5b60009050821561301e578382600001510234141515612e5857600080fd5b600073ffffffffffffffffffffffffffffffffffffffff168573ffffffffffffffffffffffffffffffffffffffff16141515612fd0578473ffffffffffffffffffffffffffffffffffffffff166108fc600a34811515612eb457fe5b049081150290604051600060405180830381858888f19350505050158015612ee0573d6000803e3d6000fd5b50600c60009054906101000a900473ffffffffffffffffffffffffffffffffffffffff1673ffffffffffffffffffffffffffffffffffffffff166108fc600a34811515612f2957fe5b049081150290604051600060405180830381858888f19350505050158015612f55573d6000803e3d6000fd5b506000809054906101000a900473ffffffffffffffffffffffffffffffffffffffff1673ffffffffffffffffffffffffffffffffffffffff166108fc6002600a34811515612f9f57fe5b040234039081150290604051600060405180830381858888f19350505050158015612fce573d6000803e3d6000fd5b505b600090505b838110156130195761300333428460000151856020015160008760e001518860c001518d8a606001516139ff565b61300c86613b4f565b8080600101915050612fd5565b6132ba565b8160200151d314151561303057600080fd5b83826040015102d214151561304457600080fd5b600073ffffffffffffffffffffffffffffffffffffffff168573ffffffffffffffffffffffffffffffffffffffff16141515613270578473ffffffffffffffffffffffffffffffffffffffff166108fc600ad28115156130a057fe5b049081150290d3801580156130b457600080fd5b5080678000000000000000111580156130cc57600080fd5b5080620f4240101580156130df57600080fd5b5060405160006040518083038185878a8ad0945050505050158015613108573d6000803e3d6000fd5b50600c60009054906101000a900473ffffffffffffffffffffffffffffffffffffffff1673ffffffffffffffffffffffffffffffffffffffff166108fc600ad281151561315157fe5b049081150290d38015801561316557600080fd5b50806780000000000000001115801561317d57600080fd5b5080620f42401015801561319057600080fd5b5060405160006040518083038185878a8ad09450505050501580156131b9573d6000803e3d6000fd5b506000809054906101000a900473ffffffffffffffffffffffffffffffffffffffff1673ffffffffffffffffffffffffffffffffffffffff166108fc6002600ad281151561320357fe5b0402d2039081150290d38015801561321a57600080fd5b50806780000000000000001115801561323257600080fd5b5080620f42401015801561324557600080fd5b5060405160006040518083038185878a8ad094505050505015801561326e573d6000803e3d6000fd5b505b600090505b838110156132b9576132a333426000856020015186604001518760e001518860c001518d8a606001516139ff565b6132ac86613b4f565b8080600101915050613275565b5b505050505050565b6000809054906101000a900473ffffffffffffffffffffffffffffffffffffffff1673ffffffffffffffffffffffffffffffffffffffff163373ffffffffffffffffffffffffffffffffffffffff1614151561331d57600080fd5b80600960006101000a81548173ffffffffffffffffffffffffffffffffffffffff021916908373ffffffffffffffffffffffffffffffffffffffff16021790555050565b600080600061336e613d56565b600a6000868152602001908152602001600020606060405190810160405290816000820160009054906101000a900473ffffffffffffffffffffffffffffffffffffffff1673ffffffffffffffffffffffffffffffffffffffff1673ffffffffffffffffffffffffffffffffffffffff168152602001600182015481526020016002820154815250509050806000015181602001518260400151935093509350509193909250565b600b8181548110151561342557fe5b90600052602060002090600302016000915090508060000160009054906101000a900473ffffffffffffffffffffffffffffffffffffffff16908060010154908060020154905083565b600960009054906101000a900473ffffffffffffffffffffffffffffffffffffffff1681565b60066020528060005260406000206000915054906101000a900473ffffffffffffffffffffffffffffffffffffffff1681565b60008273ffffffffffffffffffffffffffffffffffffffff166006600084815260200190815260200160002060009054906101000a900473ffffffffffffffffffffffffffffffffffffffff1673ffffffffffffffffffffffffffffffffffffffff1614905092915050565b806008600084815260200190815260200160002060006101000a81548173ffffffffffffffffffffffffffffffffffffffff021916908373ffffffffffffffffffffffffffffffffffffffff1602179055505050565b60008273ffffffffffffffffffffffffffffffffffffffff166008600084815260200190815260200160002060009054906101000a900473ffffffffffffffffffffffffffffffffffffffff1673ffffffffffffffffffffffffffffffffffffffff1614905092915050565b600760008373ffffffffffffffffffffffffffffffffffffffff1673ffffffffffffffffffffffffffffffffffffffff16815260200190815260200160002060008154809291906001019190505550816006600083815260200190815260200160002060006101000a81548173ffffffffffffffffffffffffffffffffffffffff021916908373ffffffffffffffffffffffffffffffffffffffff160217905550600073ffffffffffffffffffffffffffffffffffffffff168373ffffffffffffffffffffffffffffffffffffffff1614151561375457600760008473ffffffffffffffffffffffffffffffffffffffff1673ffffffffffffffffffffffffffffffffffffffff16815260200190815260200160002060008154809291906001900391905055506008600082815260200190815260200160002060006101000a81549073ffffffffffffffffffffffffffffffffffffffff02191690555b7fddf252ad1be2c89b69c2b068fc378daa952ba7f163c4a11628f55a4df523b3ef838383604051808473ffffffffffffffffffffffffffffffffffffffff1673ffffffffffffffffffffffffffffffffffffffff1681526020018373ffffffffffffffffffffffffffffffffffffffff1673ffffffffffffffffffffffffffffffffffffffff168152602001828152602001935050505060405180910390a1505050565b600a6000828152602001908152602001600020600080820160006101000a81549073ffffffffffffffffffffffffffffffffffffffff021916905560018201600090556002820160009055505050565b6000811015801561385a575060028111155b151561386557600080fd5b60008311151561387457600080fd5b60036101006040519081016040528089815260200188815260200187815260200186815260200185815260200185815260200184815260200183815250908060018154018082558091505090600182039060005260206000209060080201600090919290919091506000820151816000015560208201518160010155604082015181600201556060820151816003019080519060200190613916929190613d8e565b506080820151816004015560a0820151816005015560c0820151816006015560e082015181600701555050507f4b14c55a5b2e928ebe183f5ab0740bc521a292d471cf74ce254e88f6e201fe3c848484846040518080602001858152602001848152602001838152602001828103825286818151815260200191508051906020019080838360005b838110156139b957808201518184015260208101905061399e565b50505050905090810190601f1680156139e65780820380516001836020036101000a031916815260200191505b509550505050505060405180910390a150505050505050565b613a07613d10565b6000808610158015613a1a575060028611155b1515613a2557600080fd5b600073ffffffffffffffffffffffffffffffffffffffff168b73ffffffffffffffffffffffffffffffffffffffff1614151515613a6157600080fd5b610100604051908101604052808b81526020018a8152602001898152602001888152602001878152602001868152602001858152602001848152509150600160028390806001815401808255809150509060018203906000526020600020906008020160009091929091909150600082015181600001556020820151816001015560408201518160020155606082015181600301556080820151816004015560a0820151816005015560c0820151816006015560e0820151816007019080519060200190613b30929190613d8e565b505050039050613b4260008c836135f6565b5050505050505050505050565b613b57613cca565b600382815481101515613b6657fe5b90600052602060002090600802016101006040519081016040529081600082015481526020016001820154815260200160028201548152602001600382018054600181600116156101000203166002900480601f016020809104026020016040519081016040528092919081815260200182805460018160011615610100020316600290048015613c385780601f10613c0d57610100808354040283529160200191613c38565b820191906000526020600020905b815481529060010190602001808311613c1b57829003601f168201915b50505050508152602001600482015481526020016005820154815260200160068201548152602001600782015481525050905060008160800151111515613c7e57600080fd5b6001600383815481101515613c8f57fe5b90600052602060002090600802016004015403600383815481101515613cb157fe5b9060005260206000209060080201600401819055505050565b6101006040519081016040528060008152602001600081526020016000815260200160608152602001600081526020016000815260200160008152602001600081525090565b6101006040519081016040528060008152602001600081526020016000815260200160008152602001600081526020016000815260200160008152602001606081525090565b606060405190810160405280600073ffffffffffffffffffffffffffffffffffffffff16815260200160008152602001600081525090565b828054600181600116156101000203166002900490600052602060002090601f016020900481019282601f10613dcf57805160ff1916838001178555613dfd565b82800160010185558215613dfd579182015b82811115613dfc578251825591602001919060010190613de1565b5b509050613e0a9190613e0e565b5090565b613e3091905b80821115613e2c576000816000905550600101613e14565b5090565b905600a165627a7a72305820b1b0f675f630329a645d5cf3d8b46eb0f819b31975a3e1d4ed602958e180c20d0029",
  "source": "pragma solidity ^0.4.25;\n\nimport \"./PZItemFactory.sol\";\n\ncontract PZItemCore is PZItemFactory\n{\n    address private                         addrPool;\n    /**\n    * Constructor\n    *\n     */\n    constructor(address _pool) public\n    {\n        require(_pool != address(0x0));\n        addrPool = _pool;\n    }\n\n    /**\n    * Create Item  NFT to buyer\n    *\n    * @param _buyer                         Egg Id to gift\n    * @param _itemGroupId                   Item Group Id to create\n    *\n    */\n    function createItemToBuyer(address _buyer, uint _itemGroupId) public\n    {\n        require(msg.sender == addrChest);\n\n        ItemGroup memory _itemGroup = itemGroups[_itemGroupId];\n\n        _createItem(_buyer, now, _itemGroup.price, _itemGroup.tokenId, _itemGroup.tokenPrice, _itemGroup.itemType, _itemGroup.itemRarity, _itemGroupId, _itemGroup.itemName);\n        _decreaseQuantityOfItemGroup(_itemGroupId);\n\n    }\n\n    function setAddrPool(address _pool) public onlyAdmin\n    {\n        require(_pool != address(0x0));\n\n        addrPool = _pool;\n    }\n\n    function buyItems(uint _itemGroupId, address _referrer, uint itemAmount, bool bTrxPurchase) public payable\n    {\n        // require((block.number >= chests[_chestId].startDate) && (block.number <= chests[_chestId].endDate));\n\n        //Implementation\n        ItemGroup memory _itemGroup = itemGroups[_itemGroupId];\n        require(itemAmount > 0);\n        require(_itemGroup.itemQuantity >= itemAmount);\n\n        uint i = 0;\n\n        if (bTrxPurchase) {\n            require (msg.value == _itemGroup.price * itemAmount);\n            if (_referrer != address(0x0)) {\n                _referrer.transfer(msg.value / 10);\n                addrPool.transfer(msg.value / 10);\n                addrAdmin.transfer(msg.value - msg.value / 10 * 2);\n                // addrAdmin.transfer(msg.value);\n            }\n            for (i = 0; i < itemAmount; i ++) {\n                _createItem(msg.sender, now, _itemGroup.price, _itemGroup.tokenId, 0, _itemGroup.itemType, _itemGroup.itemRarity, _itemGroupId, _itemGroup.itemName);\n                _decreaseQuantityOfItemGroup(_itemGroupId);\n            }\n        } else {\n            require (msg.tokenid == _itemGroup.tokenId);\n            require (msg.tokenvalue == _itemGroup.tokenPrice * itemAmount);\n        \n            if (_referrer != address(0x0)) {\n                _referrer.transferToken(msg.tokenvalue / 10, msg.tokenid);\n                addrPool.transferToken(msg.tokenvalue / 10, msg.tokenid);\n                addrAdmin.transferToken(msg.tokenvalue - msg.tokenvalue / 10 * 2, msg.tokenid);\n            }\n            for (i = 0; i < itemAmount; i ++) {\n                _createItem(msg.sender, now, 0, _itemGroup.tokenId, _itemGroup.tokenPrice, _itemGroup.itemType, _itemGroup.itemRarity, _itemGroupId, _itemGroup.itemName);\n                _decreaseQuantityOfItemGroup(_itemGroupId);\n            }\n        }\n    }\n    /**\n    * Gift Item to other users\n    *\n    * @param _to                            address of receiver\n    * @param _itemId                        Item Id to gift\n    *\n    */\n    function giftItem(address _to, uint256 _itemId) external\n    {\n        require(_owns(msg.sender, _itemId));\n        require(_to != address(0x0));\n        _transfer(msg.sender, _to, _itemId);\n    }\n\n    /**\n    * Get Information of Item\n    * @param _id                            Item Id\n    *\n    * @return itemType                      Item Type\n    * @return itemRarity                    Item Rarity\n    * @return itemName                      Item Name\n    *\n     */\n    function getItem(uint _id) external view returns(uint date, uint price, uint tokenId, uint tokenPrice, uint itemType, uint itemRarity, uint itemGroupId, string itemName)\n    {\n        Item memory item = items[_id];\n        return (item.date, item.price, item.tokenId, item.tokenPrice, item.itemType, item.itemRarity, item.itemGroupID, item.itemName);\n    }\n\n    /**\n    * Get Count of ItemGroup\n    * @return length                      Count of Item Group\n    *\n     */\n    function getItemGroupSupply() external view returns(uint256) {\n        return itemGroups.length;\n    }\n\n    /**\n    * Get Information of Item Group\n    *\n    * @param _itemGroupId                           ItemGroup Id\n    *\n    * @return itemType                      Item Type\n    * @return itemRarity                    Item Rarity\n    * @return itemName                      Item Name\n    * @return itemQuantity                  Item Quantity\n    *\n     */\n    function getItemGroup(uint _itemGroupId) external view returns(uint price, uint tokenId, uint tokenPrice, string itemName, uint itemQuantity, uint itemTotalAmount, uint itemRairty, uint itemType) {\n        ItemGroup memory _itemGroup = itemGroups[_itemGroupId];\n        return (_itemGroup.price, _itemGroup.tokenId, _itemGroup.tokenPrice, _itemGroup.itemName, _itemGroup.itemQuantity, _itemGroup.itemTotalAmount, _itemGroup.itemRarity, _itemGroup.itemType);\n    }\n\n    /**\n    * Get Item Quantity\n    *\n    * @return itemQuantity                  Item Quantity\n    *\n     */\n    function getItemQuantity() external view returns(uint quantity)\n    {\n        return items.length;\n    }\n\n    function itemTest() external view returns (address) {\n        return addrChest;\n    }\n\n    function isItemContract() public pure returns (bool) {\n        return true;\n    }\n}\n",
  "sourcePath": "/Volumes/Backup/workspace/Dave(Tron_NFT)/pizzaHero/contracts/PZItemCore.sol",
  "compiler": {
    "name": "solc",
    "version": "0.4.25+commit.69a1e720.Emscripten.clang"
  },
  "schemaVersion": "2.0.1",
  "updatedAt": "2020-01-20T04:54:37.609Z"
}