{
  "contractName": "PZItemCore",
  "abi": [
    {
      "constant": true,
      "inputs": [
        {
          "name": "_interfaceID",
          "type": "bytes4"
        }
      ],
      "name": "supportsInterface",
      "outputs": [
        {
          "name": "",
          "type": "bool"
        }
      ],
      "payable": false,
      "stateMutability": "view",
      "type": "function"
    },
    {
      "constant": true,
      "inputs": [],
      "name": "name",
      "outputs": [
        {
          "name": "",
          "type": "string"
        }
      ],
      "payable": false,
      "stateMutability": "view",
      "type": "function"
    },
    {
      "constant": false,
      "inputs": [
        {
          "name": "_to",
          "type": "address"
        },
        {
          "name": "_itemId",
          "type": "uint256"
        }
      ],
      "name": "approve",
      "outputs": [],
      "payable": false,
      "stateMutability": "nonpayable",
      "type": "function"
    },
    {
      "constant": true,
      "inputs": [],
      "name": "totalSupply",
      "outputs": [
        {
          "name": "",
          "type": "uint256"
        }
      ],
      "payable": false,
      "stateMutability": "view",
      "type": "function"
    },
    {
      "constant": false,
      "inputs": [
        {
          "name": "_from",
          "type": "address"
        },
        {
          "name": "_to",
          "type": "address"
        },
        {
          "name": "_itemId",
          "type": "uint256"
        }
      ],
      "name": "transferFrom",
      "outputs": [],
      "payable": false,
      "stateMutability": "nonpayable",
      "type": "function"
    },
    {
      "constant": true,
      "inputs": [],
      "name": "addrHero",
      "outputs": [
        {
          "name": "",
          "type": "address"
        }
      ],
      "payable": false,
      "stateMutability": "view",
      "type": "function"
    },
    {
      "constant": false,
      "inputs": [
        {
          "name": "_itemName",
          "type": "string"
        },
        {
          "name": "_itemQuantity",
          "type": "uint256"
        },
        {
          "name": "_itemRarity",
          "type": "uint256"
        },
        {
          "name": "_itemType",
          "type": "uint256"
        }
      ],
      "name": "createItemGroup",
      "outputs": [],
      "payable": false,
      "stateMutability": "nonpayable",
      "type": "function"
    },
    {
      "constant": true,
      "inputs": [
        {
          "name": "_auctionId",
          "type": "uint256"
        }
      ],
      "name": "getItemAuction",
      "outputs": [
        {
          "name": "seller",
          "type": "address"
        },
        {
          "name": "price",
          "type": "uint256"
        },
        {
          "name": "itemId",
          "type": "uint256"
        }
      ],
      "payable": false,
      "stateMutability": "view",
      "type": "function"
    },
    {
      "constant": false,
      "inputs": [
        {
          "name": "_addrHero",
          "type": "address"
        }
      ],
      "name": "setHeroAddr",
      "outputs": [],
      "payable": false,
      "stateMutability": "nonpayable",
      "type": "function"
    },
    {
      "constant": true,
      "inputs": [
        {
          "name": "",
          "type": "address"
        }
      ],
      "name": "ownershipItemCount",
      "outputs": [
        {
          "name": "",
          "type": "uint256"
        }
      ],
      "payable": false,
      "stateMutability": "view",
      "type": "function"
    },
    {
      "constant": false,
      "inputs": [
        {
          "name": "_addrChest",
          "type": "address"
        }
      ],
      "name": "setChestAddr",
      "outputs": [],
      "payable": false,
      "stateMutability": "nonpayable",
      "type": "function"
    },
    {
      "constant": true,
      "inputs": [
        {
          "name": "_itemId",
          "type": "uint256"
        }
      ],
      "name": "ownerOf",
      "outputs": [
        {
          "name": "owner",
          "type": "address"
        }
      ],
      "payable": false,
      "stateMutability": "view",
      "type": "function"
    },
    {
      "constant": false,
      "inputs": [
        {
          "name": "_itemId",
          "type": "uint256"
        }
      ],
      "name": "bidAuction",
      "outputs": [],
      "payable": true,
      "stateMutability": "payable",
      "type": "function"
    },
    {
      "constant": true,
      "inputs": [
        {
          "name": "",
          "type": "uint256"
        }
      ],
      "name": "itemQuantityLimit",
      "outputs": [
        {
          "name": "",
          "type": "uint256"
        }
      ],
      "payable": false,
      "stateMutability": "view",
      "type": "function"
    },
    {
      "constant": true,
      "inputs": [
        {
          "name": "_owner",
          "type": "address"
        }
      ],
      "name": "balanceOf",
      "outputs": [
        {
          "name": "count",
          "type": "uint256"
        }
      ],
      "payable": false,
      "stateMutability": "view",
      "type": "function"
    },
    {
      "constant": false,
      "inputs": [
        {
          "name": "_price",
          "type": "uint256"
        },
        {
          "name": "_itemId",
          "type": "uint256"
        }
      ],
      "name": "addAuction",
      "outputs": [],
      "payable": false,
      "stateMutability": "nonpayable",
      "type": "function"
    },
    {
      "constant": true,
      "inputs": [],
      "name": "addrChest",
      "outputs": [
        {
          "name": "",
          "type": "address"
        }
      ],
      "payable": false,
      "stateMutability": "view",
      "type": "function"
    },
    {
      "constant": true,
      "inputs": [],
      "name": "getItemIdsOnSale",
      "outputs": [
        {
          "name": "",
          "type": "uint256[]"
        }
      ],
      "payable": false,
      "stateMutability": "view",
      "type": "function"
    },
    {
      "constant": true,
      "inputs": [
        {
          "name": "",
          "type": "uint256"
        }
      ],
      "name": "itemIndexToApproved",
      "outputs": [
        {
          "name": "",
          "type": "address"
        }
      ],
      "payable": false,
      "stateMutability": "view",
      "type": "function"
    },
    {
      "constant": true,
      "inputs": [
        {
          "name": "",
          "type": "uint256"
        }
      ],
      "name": "itemGroups",
      "outputs": [
        {
          "name": "itemName",
          "type": "string"
        },
        {
          "name": "itemQuantity",
          "type": "uint256"
        },
        {
          "name": "itemRarity",
          "type": "uint256"
        },
        {
          "name": "itemType",
          "type": "uint256"
        }
      ],
      "payable": false,
      "stateMutability": "view",
      "type": "function"
    },
    {
      "constant": true,
      "inputs": [],
      "name": "getItemAuctionCount",
      "outputs": [
        {
          "name": "",
          "type": "uint256"
        }
      ],
      "payable": false,
      "stateMutability": "view",
      "type": "function"
    },
    {
      "constant": true,
      "inputs": [],
      "name": "symbol",
      "outputs": [
        {
          "name": "",
          "type": "string"
        }
      ],
      "payable": false,
      "stateMutability": "view",
      "type": "function"
    },
    {
      "constant": false,
      "inputs": [
        {
          "name": "_itemId",
          "type": "uint256"
        }
      ],
      "name": "cancelAuction",
      "outputs": [],
      "payable": false,
      "stateMutability": "nonpayable",
      "type": "function"
    },
    {
      "constant": true,
      "inputs": [
        {
          "name": "_owner",
          "type": "address"
        }
      ],
      "name": "itemsOfOwner",
      "outputs": [
        {
          "name": "ownerItems",
          "type": "uint256[]"
        }
      ],
      "payable": false,
      "stateMutability": "view",
      "type": "function"
    },
    {
      "constant": false,
      "inputs": [
        {
          "name": "_to",
          "type": "address"
        },
        {
          "name": "_itemId",
          "type": "uint256"
        }
      ],
      "name": "transfer",
      "outputs": [],
      "payable": false,
      "stateMutability": "nonpayable",
      "type": "function"
    },
    {
      "constant": true,
      "inputs": [],
      "name": "addrAdmin",
      "outputs": [
        {
          "name": "",
          "type": "address"
        }
      ],
      "payable": false,
      "stateMutability": "view",
      "type": "function"
    },
    {
      "constant": true,
      "inputs": [
        {
          "name": "",
          "type": "uint256"
        }
      ],
      "name": "items",
      "outputs": [
        {
          "name": "itemType",
          "type": "uint256"
        },
        {
          "name": "itemRarity",
          "type": "uint256"
        },
        {
          "name": "itemGroupID",
          "type": "uint256"
        },
        {
          "name": "itemName",
          "type": "string"
        }
      ],
      "payable": false,
      "stateMutability": "view",
      "type": "function"
    },
    {
      "constant": false,
      "inputs": [
        {
          "name": "_contractAddress",
          "type": "address"
        }
      ],
      "name": "setMetadataAddress",
      "outputs": [],
      "payable": false,
      "stateMutability": "nonpayable",
      "type": "function"
    },
    {
      "constant": true,
      "inputs": [
        {
          "name": "_itemId",
          "type": "uint256"
        }
      ],
      "name": "getItemAuctionByItemId",
      "outputs": [
        {
          "name": "seller",
          "type": "address"
        },
        {
          "name": "price",
          "type": "uint256"
        },
        {
          "name": "itemId",
          "type": "uint256"
        }
      ],
      "payable": false,
      "stateMutability": "view",
      "type": "function"
    },
    {
      "constant": true,
      "inputs": [
        {
          "name": "",
          "type": "uint256"
        }
      ],
      "name": "itemAuctions",
      "outputs": [
        {
          "name": "seller",
          "type": "address"
        },
        {
          "name": "startingPrice",
          "type": "uint256"
        },
        {
          "name": "itemId",
          "type": "uint256"
        }
      ],
      "payable": false,
      "stateMutability": "view",
      "type": "function"
    },
    {
      "constant": true,
      "inputs": [],
      "name": "trc721Metadata",
      "outputs": [
        {
          "name": "",
          "type": "address"
        }
      ],
      "payable": false,
      "stateMutability": "view",
      "type": "function"
    },
    {
      "constant": true,
      "inputs": [
        {
          "name": "",
          "type": "uint256"
        }
      ],
      "name": "itemIndexToOwner",
      "outputs": [
        {
          "name": "",
          "type": "address"
        }
      ],
      "payable": false,
      "stateMutability": "view",
      "type": "function"
    },
    {
      "inputs": [],
      "payable": false,
      "stateMutability": "nonpayable",
      "type": "constructor"
    },
    {
      "anonymous": false,
      "inputs": [
        {
          "indexed": false,
          "name": "from",
          "type": "address"
        },
        {
          "indexed": false,
          "name": "to",
          "type": "address"
        },
        {
          "indexed": false,
          "name": "tokenId",
          "type": "uint256"
        }
      ],
      "name": "Transfer",
      "type": "event"
    },
    {
      "anonymous": false,
      "inputs": [
        {
          "indexed": false,
          "name": "owner",
          "type": "address"
        },
        {
          "indexed": false,
          "name": "approved",
          "type": "address"
        },
        {
          "indexed": false,
          "name": "tokenId",
          "type": "uint256"
        }
      ],
      "name": "Approval",
      "type": "event"
    },
    {
      "anonymous": false,
      "inputs": [
        {
          "indexed": false,
          "name": "itmeType",
          "type": "uint256"
        },
        {
          "indexed": false,
          "name": "quantity",
          "type": "uint256"
        }
      ],
      "name": "ItemsCreated",
      "type": "event"
    },
    {
      "anonymous": false,
      "inputs": [
        {
          "indexed": false,
          "name": "itemName",
          "type": "string"
        },
        {
          "indexed": false,
          "name": "itemQuantity",
          "type": "uint256"
        },
        {
          "indexed": false,
          "name": "itemRarity",
          "type": "uint256"
        },
        {
          "indexed": false,
          "name": "itemType",
          "type": "uint256"
        }
      ],
      "name": "ItemGroupCreated",
      "type": "event"
    },
    {
      "constant": false,
      "inputs": [
        {
          "name": "_buyer",
          "type": "address"
        },
        {
          "name": "_itemGroupId",
          "type": "uint256"
        }
      ],
      "name": "createItemToBuyer",
      "outputs": [],
      "payable": false,
      "stateMutability": "nonpayable",
      "type": "function"
    },
    {
      "constant": false,
      "inputs": [
        {
          "name": "_to",
          "type": "address"
        },
        {
          "name": "_itemId",
          "type": "uint256"
        }
      ],
      "name": "giftItem",
      "outputs": [],
      "payable": false,
      "stateMutability": "nonpayable",
      "type": "function"
    },
    {
      "constant": true,
      "inputs": [
        {
          "name": "_id",
          "type": "uint256"
        }
      ],
      "name": "getItem",
      "outputs": [
        {
          "name": "itemType",
          "type": "uint256"
        },
        {
          "name": "itemRarity",
          "type": "uint256"
        },
        {
          "name": "itemName",
          "type": "string"
        }
      ],
      "payable": false,
      "stateMutability": "view",
      "type": "function"
    },
    {
      "constant": true,
      "inputs": [],
      "name": "getItemGroupSupply",
      "outputs": [
        {
          "name": "",
          "type": "uint256"
        }
      ],
      "payable": false,
      "stateMutability": "view",
      "type": "function"
    },
    {
      "constant": true,
      "inputs": [
        {
          "name": "_itemGroupId",
          "type": "uint256"
        }
      ],
      "name": "getItemGroup",
      "outputs": [
        {
          "name": "itemName",
          "type": "string"
        },
        {
          "name": "itemQuantity",
          "type": "uint256"
        },
        {
          "name": "itemRairty",
          "type": "uint256"
        },
        {
          "name": "itemType",
          "type": "uint256"
        }
      ],
      "payable": false,
      "stateMutability": "view",
      "type": "function"
    },
    {
      "constant": true,
      "inputs": [],
      "name": "getItemQuantity",
      "outputs": [
        {
          "name": "quantity",
          "type": "uint256"
        }
      ],
      "payable": false,
      "stateMutability": "view",
      "type": "function"
    },
    {
      "constant": true,
      "inputs": [],
      "name": "itemTest",
      "outputs": [
        {
          "name": "",
          "type": "address"
        }
      ],
      "payable": false,
      "stateMutability": "view",
      "type": "function"
    },
    {
      "constant": true,
      "inputs": [],
      "name": "isItemContract",
      "outputs": [
        {
          "name": "",
          "type": "bool"
        }
      ],
      "payable": false,
      "stateMutability": "pure",
      "type": "function"
    }
  ],
  "bytecode": "0x608060405234801561001057600080fd5b50d3801561001d57600080fd5b50d2801561002a57600080fd5b50336000806101000a81548173ffffffffffffffffffffffffffffffffffffffff021916908373ffffffffffffffffffffffffffffffffffffffff16021790555060016127109080600181540180825580915050906001820390600052602060002001600090919290919091505550600161271090806001815401808255809150509060018203906000526020600020016000909192909190915055506001612710908060018154018082558091505090600182039060005260206000200160009091929091909150555061345c80620001056000396000f3006080604052600436106101ee576000357c0100000000000000000000000000000000000000000000000000000000900463ffffffff168063019d9052146101f357806301ffc9a7146102c857806302bcc6181461034657806306fdde031461038b578063095ea7b31461043557806318160ddd1461049c57806323b872dd146104e15780632bc9f293146105685780633129e773146105d95780633e3b0516146106a75780634930068b1461074857806352270c47146107dd57806353ded2111461083a5780635461c5f9146108ab5780636173a5d4146108f4578063634c2eb6146109515780636352211e146109b857806364a7d7c714610a3f5780636734244814610a5f57806370a0823114610aba57806373187d2714610b2b57806376c0b36714610b7c578063792b875214610bed5780637d4cb74e14610c735780637fe1ad1d14610cda5780638807270014610d4b5780638c2a4c4f14610dd25780639524845a14610ea757806395d89b4114610eec57806396b5a75514610f965780639a4ca3cb14610fdd578063a9059cbb1461108f578063bfae2f0e146110f6578063bfb231d214611167578063c22b8fb21461123c578063e17b25af14611281578063e25b7929146112de578063e8e2b0de14611373578063f15f938814611408578063fe9b1a8914611479575b600080fd5b3480156101ff57600080fd5b50d3801561020c57600080fd5b50d2801561021957600080fd5b5061023860048036038101908080359060200190929190505050611500565b6040518080602001858152602001848152602001838152602001828103825286818151815260200191508051906020019080838360005b8381101561028a57808201518184015260208101905061026f565b50505050905090810190601f1680156102b75780820380516001836020036101000a031916815260200191505b509550505050505060405180910390f35b3480156102d457600080fd5b50d380156102e157600080fd5b50d280156102ee57600080fd5b5061032c60048036038101908080357bffffffffffffffffffffffffffffffffffffffffffffffffffffffff19169060200190929190505050611621565b604051808215151515815260200191505060405180910390f35b34801561035257600080fd5b50d3801561035f57600080fd5b50d2801561036c57600080fd5b50610375611932565b6040518082815260200191505060405180910390f35b34801561039757600080fd5b50d380156103a457600080fd5b50d280156103b157600080fd5b506103ba61193f565b6040518080602001828103825283818151815260200191508051906020019080838360005b838110156103fa5780820151818401526020810190506103df565b50505050905090810190601f1680156104275780820380516001836020036101000a031916815260200191505b509250505060405180910390f35b34801561044157600080fd5b50d3801561044e57600080fd5b50d2801561045b57600080fd5b5061049a600480360381019080803573ffffffffffffffffffffffffffffffffffffffff16906020019092919080359060200190929190505050611978565b005b3480156104a857600080fd5b50d380156104b557600080fd5b50d280156104c257600080fd5b506104cb611a3a565b6040518082815260200191505060405180910390f35b3480156104ed57600080fd5b50d380156104fa57600080fd5b50d2801561050757600080fd5b50610566600480360381019080803573ffffffffffffffffffffffffffffffffffffffff169060200190929190803573ffffffffffffffffffffffffffffffffffffffff16906020019092919080359060200190929190505050611a4a565b005b34801561057457600080fd5b50d3801561058157600080fd5b50d2801561058e57600080fd5b50610597611afb565b604051808273ffffffffffffffffffffffffffffffffffffffff1673ffffffffffffffffffffffffffffffffffffffff16815260200191505060405180910390f35b3480156105e557600080fd5b50d380156105f257600080fd5b50d280156105ff57600080fd5b5061061e60048036038101908080359060200190929190505050611b21565b6040518084815260200183815260200180602001828103825283818151815260200191508051906020019080838360005b8381101561066a57808201518184015260208101905061064f565b50505050905090810190601f1680156106975780820380516001836020036101000a031916815260200191505b5094505050505060405180910390f35b3480156106b357600080fd5b50d380156106c057600080fd5b50d280156106cd57600080fd5b50610746600480360381019080803590602001908201803590602001908080601f0160208091040260200160405190810160405280939291908181526020018383808284378201915050505050509192919290803590602001909291908035906020019092919080359060200190929190505050611c39565b005b34801561075457600080fd5b50d3801561076157600080fd5b50d2801561076e57600080fd5b5061078d60048036038101908080359060200190929190505050611ca6565b604051808473ffffffffffffffffffffffffffffffffffffffff1673ffffffffffffffffffffffffffffffffffffffff168152602001838152602001828152602001935050505060405180910390f35b3480156107e957600080fd5b50d380156107f657600080fd5b50d2801561080357600080fd5b50610838600480360381019080803573ffffffffffffffffffffffffffffffffffffffff169060200190929190505050611d65565b005b34801561084657600080fd5b50d3801561085357600080fd5b50d2801561086057600080fd5b50610895600480360381019080803573ffffffffffffffffffffffffffffffffffffffff169060200190929190505050611e40565b6040518082815260200191505060405180910390f35b3480156108b757600080fd5b50d380156108c457600080fd5b50d280156108d157600080fd5b506108da611e58565b604051808215151515815260200191505060405180910390f35b34801561090057600080fd5b50d3801561090d57600080fd5b50d2801561091a57600080fd5b5061094f600480360381019080803573ffffffffffffffffffffffffffffffffffffffff169060200190929190505050611e61565b005b34801561095d57600080fd5b50d3801561096a57600080fd5b50d2801561097757600080fd5b506109b6600480360381019080803573ffffffffffffffffffffffffffffffffffffffff16906020019092919080359060200190929190505050611f3c565b005b3480156109c457600080fd5b50d380156109d157600080fd5b50d280156109de57600080fd5b506109fd60048036038101908080359060200190929190505050611f9c565b604051808273ffffffffffffffffffffffffffffffffffffffff1673ffffffffffffffffffffffffffffffffffffffff16815260200191505060405180910390f35b610a5d60048036038101908080359060200190929190505050612015565b005b348015610a6b57600080fd5b50d38015610a7857600080fd5b50d28015610a8557600080fd5b50610aa460048036038101908080359060200190929190505050612148565b6040518082815260200191505060405180910390f35b348015610ac657600080fd5b50d38015610ad357600080fd5b50d28015610ae057600080fd5b50610b15600480360381019080803573ffffffffffffffffffffffffffffffffffffffff16906020019092919050505061216b565b6040518082815260200191505060405180910390f35b348015610b3757600080fd5b50d38015610b4457600080fd5b50d28015610b5157600080fd5b50610b7a60048036038101908080359060200190929190803590602001909291905050506121b4565b005b348015610b8857600080fd5b50d38015610b9557600080fd5b50d28015610ba257600080fd5b50610bab612296565b604051808273ffffffffffffffffffffffffffffffffffffffff1673ffffffffffffffffffffffffffffffffffffffff16815260200191505060405180910390f35b348015610bf957600080fd5b50d38015610c0657600080fd5b50d28015610c1357600080fd5b50610c1c6122bc565b6040518080602001828103825283818151815260200191508051906020019060200280838360005b83811015610c5f578082015181840152602081019050610c44565b505050509050019250505060405180910390f35b348015610c7f57600080fd5b50d38015610c8c57600080fd5b50d28015610c9957600080fd5b50610cd8600480360381019080803573ffffffffffffffffffffffffffffffffffffffff169060200190929190803590602001909291905050506122cc565b005b348015610ce657600080fd5b50d38015610cf357600080fd5b50d28015610d0057600080fd5b50610d09612442565b604051808273ffffffffffffffffffffffffffffffffffffffff1673ffffffffffffffffffffffffffffffffffffffff16815260200191505060405180910390f35b348015610d5757600080fd5b50d38015610d6457600080fd5b50d28015610d7157600080fd5b50610d906004803603810190808035906020019092919050505061246c565b604051808273ffffffffffffffffffffffffffffffffffffffff1673ffffffffffffffffffffffffffffffffffffffff16815260200191505060405180910390f35b348015610dde57600080fd5b50d38015610deb57600080fd5b50d28015610df857600080fd5b50610e176004803603810190808035906020019092919050505061249f565b6040518080602001858152602001848152602001838152602001828103825286818151815260200191508051906020019080838360005b83811015610e69578082015181840152602081019050610e4e565b50505050905090810190601f168015610e965780820380516001836020036101000a031916815260200191505b509550505050505060405180910390f35b348015610eb357600080fd5b50d38015610ec057600080fd5b50d28015610ecd57600080fd5b50610ed6612576565b6040518082815260200191505060405180910390f35b348015610ef857600080fd5b50d38015610f0557600080fd5b50d28015610f1257600080fd5b50610f1b612583565b6040518080602001828103825283818151815260200191508051906020019080838360005b83811015610f5b578082015181840152602081019050610f40565b50505050905090810190601f168015610f885780820380516001836020036101000a031916815260200191505b509250505060405180910390f35b348015610fa257600080fd5b50d38015610faf57600080fd5b50d28015610fbc57600080fd5b50610fdb600480360381019080803590602001909291905050506125bc565b005b348015610fe957600080fd5b50d38015610ff657600080fd5b50d2801561100357600080fd5b50611038600480360381019080803573ffffffffffffffffffffffffffffffffffffffff1690602001909291905050506126ba565b6040518080602001828103825283818151815260200191508051906020019060200280838360005b8381101561107b578082015181840152602081019050611060565b505050509050019250505060405180910390f35b34801561109b57600080fd5b50d380156110a857600080fd5b50d280156110b557600080fd5b506110f4600480360381019080803573ffffffffffffffffffffffffffffffffffffffff16906020019092919080359060200190929190505050612807565b005b34801561110257600080fd5b50d3801561110f57600080fd5b50d2801561111c57600080fd5b506111256128a2565b604051808273ffffffffffffffffffffffffffffffffffffffff1673ffffffffffffffffffffffffffffffffffffffff16815260200191505060405180910390f35b34801561117357600080fd5b50d3801561118057600080fd5b50d2801561118d57600080fd5b506111ac600480360381019080803590602001909291905050506128c7565b6040518085815260200184815260200183815260200180602001828103825283818151815260200191508051906020019080838360005b838110156111fe5780820151818401526020810190506111e3565b50505050905090810190601f16801561122b5780820380516001836020036101000a031916815260200191505b509550505050505060405180910390f35b34801561124857600080fd5b50d3801561125557600080fd5b50d2801561126257600080fd5b5061126b61299e565b6040518082815260200191505060405180910390f35b34801561128d57600080fd5b50d3801561129a57600080fd5b50d280156112a757600080fd5b506112dc600480360381019080803573ffffffffffffffffffffffffffffffffffffffff1690602001909291905050506129ab565b005b3480156112ea57600080fd5b50d380156112f757600080fd5b50d2801561130457600080fd5b5061132360048036038101908080359060200190929190505050612a4a565b604051808473ffffffffffffffffffffffffffffffffffffffff1673ffffffffffffffffffffffffffffffffffffffff168152602001838152602001828152602001935050505060405180910390f35b34801561137f57600080fd5b50d3801561138c57600080fd5b50d2801561139957600080fd5b506113b860048036038101908080359060200190929190505050612aff565b604051808473ffffffffffffffffffffffffffffffffffffffff1673ffffffffffffffffffffffffffffffffffffffff168152602001838152602001828152602001935050505060405180910390f35b34801561141457600080fd5b50d3801561142157600080fd5b50d2801561142e57600080fd5b50611437612b58565b604051808273ffffffffffffffffffffffffffffffffffffffff1673ffffffffffffffffffffffffffffffffffffffff16815260200191505060405180910390f35b34801561148557600080fd5b50d3801561149257600080fd5b50d2801561149f57600080fd5b506114be60048036038101908080359060200190929190505050612b7e565b604051808273ffffffffffffffffffffffffffffffffffffffff1673ffffffffffffffffffffffffffffffffffffffff16815260200191505060405180910390f35b6060600080600061150f613301565b60038681548110151561151e57fe5b906000526020600020906004020160806040519081016040529081600082018054600181600116156101000203166002900480601f0160208091040260200160405190810160405280929190818152602001828054600181600116156101000203166002900480156115d15780601f106115a6576101008083540402835291602001916115d1565b820191906000526020600020905b8154815290600101906020018083116115b457829003601f168201915b505050505081526020016001820154815260200160028201548152602001600382015481525050905080600001518160200151826040015183606001518393509450945094509450509193509193565b600060405180807f737570706f727473496e74657266616365286279746573342900000000000000815250601901905060405180910390207bffffffffffffffffffffffffffffffffffffffffffffffffffffffff1916827bffffffffffffffffffffffffffffffffffffffffffffffffffffffff1916148061192b575060405180807f746f6b656e4d657461646174612875696e743235362c737472696e6729000000815250601d019050604051809103902060405180807f6974656d734f664f776e657228616464726573732900000000000000000000008152506015019050604051809103902060405180807f7472616e7366657246726f6d28616464726573732c616464726573732c75696e81526020017f74323536290000000000000000000000000000000000000000000000000000008152506025019050604051809103902060405180807f7472616e7366657228616464726573732c75696e7432353629000000000000008152506019019050604051809103902060405180807f617070726f766528616464726573732c75696e743235362900000000000000008152506018019050604051809103902060405180807f6f776e65724f662875696e7432353629000000000000000000000000000000008152506010019050604051809103902060405180807f62616c616e63654f6628616464726573732900000000000000000000000000008152506012019050604051809103902060405180807f746f74616c537570706c79282900000000000000000000000000000000000000815250600d019050604051809103902060405180807f73796d626f6c28290000000000000000000000000000000000000000000000008152506008019050604051809103902060405180807f6e616d6528290000000000000000000000000000000000000000000000000000815250600601905060405180910390201818181818181818187bffffffffffffffffffffffffffffffffffffffffffffffffffffffff1916827bffffffffffffffffffffffffffffffffffffffffffffffffffffffff1916145b9050919050565b6000600280549050905090565b6040805190810160405280600781526020017f505a4974656d730000000000000000000000000000000000000000000000000081525081565b6119823382612bb1565b151561198d57600080fd5b6119978183612c1d565b7f8c5be1e5ebec7d5bd14f71427d1e84f3dd0314c0f7b2291e5b200ac8c7c3b925338383604051808473ffffffffffffffffffffffffffffffffffffffff1673ffffffffffffffffffffffffffffffffffffffff1681526020018373ffffffffffffffffffffffffffffffffffffffff1673ffffffffffffffffffffffffffffffffffffffff168152602001828152602001935050505060405180910390a15050565b6000600160028054905003905090565b600073ffffffffffffffffffffffffffffffffffffffff168273ffffffffffffffffffffffffffffffffffffffff1614151515611a8657600080fd5b3073ffffffffffffffffffffffffffffffffffffffff168273ffffffffffffffffffffffffffffffffffffffff1614151515611ac157600080fd5b611acb3382612c73565b1515611ad657600080fd5b611ae08382612bb1565b1515611aeb57600080fd5b611af6838383612cdf565b505050565b600560009054906101000a900473ffffffffffffffffffffffffffffffffffffffff1681565b6000806060611b2e61332a565b600285815481101515611b3d57fe5b906000526020600020906004020160806040519081016040529081600082015481526020016001820154815260200160028201548152602001600382018054600181600116156101000203166002900480601f016020809104026020016040519081016040528092919081815260200182805460018160011615610100020316600290048015611c0e5780601f10611be357610100808354040283529160200191611c0e565b820191906000526020600020905b815481529060010190602001808311611bf157829003601f168201915b5050505050815250509050806000015181602001518260600151809050935093509350509193909250565b6000809054906101000a900473ffffffffffffffffffffffffffffffffffffffff1673ffffffffffffffffffffffffffffffffffffffff163373ffffffffffffffffffffffffffffffffffffffff16141515611c9457600080fd5b611ca084848484612ee1565b50505050565b6000806000611cb3613353565b600b85815481101515611cc257fe5b9060005260206000209060030201606060405190810160405290816000820160009054906101000a900473ffffffffffffffffffffffffffffffffffffffff1673ffffffffffffffffffffffffffffffffffffffff1673ffffffffffffffffffffffffffffffffffffffff168152602001600182015481526020016002820154815250509050806000015181602001518260400151935093509350509193909250565b6000809054906101000a900473ffffffffffffffffffffffffffffffffffffffff1673ffffffffffffffffffffffffffffffffffffffff163373ffffffffffffffffffffffffffffffffffffffff16141515611dc057600080fd5b600073ffffffffffffffffffffffffffffffffffffffff168173ffffffffffffffffffffffffffffffffffffffff1614151515611dfc57600080fd5b80600560006101000a81548173ffffffffffffffffffffffffffffffffffffffff021916908373ffffffffffffffffffffffffffffffffffffffff16021790555050565b60076020528060005260406000206000915090505481565b60006001905090565b6000809054906101000a900473ffffffffffffffffffffffffffffffffffffffff1673ffffffffffffffffffffffffffffffffffffffff163373ffffffffffffffffffffffffffffffffffffffff16141515611ebc57600080fd5b600073ffffffffffffffffffffffffffffffffffffffff168173ffffffffffffffffffffffffffffffffffffffff1614151515611ef857600080fd5b80600460006101000a81548173ffffffffffffffffffffffffffffffffffffffff021916908373ffffffffffffffffffffffffffffffffffffffff16021790555050565b611f463382612bb1565b1515611f5157600080fd5b600073ffffffffffffffffffffffffffffffffffffffff168273ffffffffffffffffffffffffffffffffffffffff1614151515611f8d57600080fd5b611f98338383612cdf565b5050565b60006006600083815260200190815260200160002060009054906101000a900473ffffffffffffffffffffffffffffffffffffffff169050600073ffffffffffffffffffffffffffffffffffffffff168173ffffffffffffffffffffffffffffffffffffffff161415151561201057600080fd5b919050565b61201d613353565b6120273083612bb1565b151561203257600080fd5b600a6000838152602001908152602001600020606060405190810160405290816000820160009054906101000a900473ffffffffffffffffffffffffffffffffffffffff1673ffffffffffffffffffffffffffffffffffffffff1673ffffffffffffffffffffffffffffffffffffffff1681526020016001820154815260200160028201548152505090506120c73383612bb1565b1515156120d357600080fd5b3481602001511415156120e557600080fd5b6120ee82613054565b6120f9303384612cdf565b806000015173ffffffffffffffffffffffffffffffffffffffff166108fc349081150290604051600060405180830381858888f19350505050158015612143573d6000803e3d6000fd5b505050565b60018181548110151561215757fe5b906000526020600020016000915090505481565b6000600760008373ffffffffffffffffffffffffffffffffffffffff1673ffffffffffffffffffffffffffffffffffffffff168152602001908152602001600020549050919050565b6121bc613353565b6000831115156121cb57600080fd5b6121d53383612bb1565b15156121e057600080fd5b6060604051908101604052803373ffffffffffffffffffffffffffffffffffffffff16815260200184815260200183815250905061221f333084612cdf565b80600a600084815260200190815260200160002060008201518160000160006101000a81548173ffffffffffffffffffffffffffffffffffffffff021916908373ffffffffffffffffffffffffffffffffffffffff1602179055506020820151816001015560408201518160020155905050505050565b600460009054906101000a900473ffffffffffffffffffffffffffffffffffffffff1681565b60606122c7306126ba565b905090565b6122d4613301565b600460009054906101000a900473ffffffffffffffffffffffffffffffffffffffff1673ffffffffffffffffffffffffffffffffffffffff163373ffffffffffffffffffffffffffffffffffffffff1614151561233057600080fd5b60038281548110151561233f57fe5b906000526020600020906004020160806040519081016040529081600082018054600181600116156101000203166002900480601f0160208091040260200160405190810160405280929190818152602001828054600181600116156101000203166002900480156123f25780601f106123c7576101008083540402835291602001916123f2565b820191906000526020600020905b8154815290600101906020018083116123d557829003601f168201915b505050505081526020016001820154815260200160028201548152602001600382015481525050905061243483826060015183604001518585600001516130a4565b61243d826131af565b505050565b6000600460009054906101000a900473ffffffffffffffffffffffffffffffffffffffff16905090565b60086020528060005260406000206000915054906101000a900473ffffffffffffffffffffffffffffffffffffffff1681565b6003818154811015156124ae57fe5b9060005260206000209060040201600091509050806000018054600181600116156101000203166002900480601f01602080910402602001604051908101604052809291908181526020018280546001816001161561010002031660029004801561255a5780601f1061252f5761010080835404028352916020019161255a565b820191906000526020600020905b81548152906001019060200180831161253d57829003601f168201915b5050505050908060010154908060020154908060030154905084565b6000600b80549050905090565b6040805190810160405280600281526020017f504900000000000000000000000000000000000000000000000000000000000081525081565b6125c4613353565b6125ce3083612bb1565b15156125d957600080fd5b600a6000838152602001908152602001600020606060405190810160405290816000820160009054906101000a900473ffffffffffffffffffffffffffffffffffffffff1673ffffffffffffffffffffffffffffffffffffffff1673ffffffffffffffffffffffffffffffffffffffff168152602001600182015481526020016002820154815250509050806000015173ffffffffffffffffffffffffffffffffffffffff163373ffffffffffffffffffffffffffffffffffffffff161415156126a257600080fd5b6126ab82613054565b6126b6303384612cdf565b5050565b60606000606060008060006126ce8761216b565b945060008514156127115760006040519080825280602002602001820160405280156127095781602001602082028038833980820191505090505b5095506127fd565b846040519080825280602002602001820160405280156127405781602001602082028038833980820191505090505b50935061274b611a3a565b925060009150600190505b82811115156127f9578673ffffffffffffffffffffffffffffffffffffffff166006600083815260200190815260200160002060009054906101000a900473ffffffffffffffffffffffffffffffffffffffff1673ffffffffffffffffffffffffffffffffffffffff1614156127ec578084838151811015156127d557fe5b906020019060200201818152505081806001019250505b8080600101915050612756565b8395505b5050505050919050565b600073ffffffffffffffffffffffffffffffffffffffff168273ffffffffffffffffffffffffffffffffffffffff161415151561284357600080fd5b3073ffffffffffffffffffffffffffffffffffffffff168273ffffffffffffffffffffffffffffffffffffffff161415151561287e57600080fd5b6128883382612bb1565b151561289357600080fd5b61289e338383612cdf565b5050565b6000809054906101000a900473ffffffffffffffffffffffffffffffffffffffff1681565b6002818154811015156128d657fe5b9060005260206000209060040201600091509050806000015490806001015490806002015490806003018054600181600116156101000203166002900480601f0160208091040260200160405190810160405280929190818152602001828054600181600116156101000203166002900480156129945780601f1061296957610100808354040283529160200191612994565b820191906000526020600020905b81548152906001019060200180831161297757829003601f168201915b5050505050905084565b6000600380549050905090565b6000809054906101000a900473ffffffffffffffffffffffffffffffffffffffff1673ffffffffffffffffffffffffffffffffffffffff163373ffffffffffffffffffffffffffffffffffffffff16141515612a0657600080fd5b80600960006101000a81548173ffffffffffffffffffffffffffffffffffffffff021916908373ffffffffffffffffffffffffffffffffffffffff16021790555050565b6000806000612a57613353565b600a6000868152602001908152602001600020606060405190810160405290816000820160009054906101000a900473ffffffffffffffffffffffffffffffffffffffff1673ffffffffffffffffffffffffffffffffffffffff1673ffffffffffffffffffffffffffffffffffffffff168152602001600182015481526020016002820154815250509050806000015181602001518260400151935093509350509193909250565b600b81815481101515612b0e57fe5b90600052602060002090600302016000915090508060000160009054906101000a900473ffffffffffffffffffffffffffffffffffffffff16908060010154908060020154905083565b600960009054906101000a900473ffffffffffffffffffffffffffffffffffffffff1681565b60066020528060005260406000206000915054906101000a900473ffffffffffffffffffffffffffffffffffffffff1681565b60008273ffffffffffffffffffffffffffffffffffffffff166006600084815260200190815260200160002060009054906101000a900473ffffffffffffffffffffffffffffffffffffffff1673ffffffffffffffffffffffffffffffffffffffff1614905092915050565b806008600084815260200190815260200160002060006101000a81548173ffffffffffffffffffffffffffffffffffffffff021916908373ffffffffffffffffffffffffffffffffffffffff1602179055505050565b60008273ffffffffffffffffffffffffffffffffffffffff166008600084815260200190815260200160002060009054906101000a900473ffffffffffffffffffffffffffffffffffffffff1673ffffffffffffffffffffffffffffffffffffffff1614905092915050565b600760008373ffffffffffffffffffffffffffffffffffffffff1673ffffffffffffffffffffffffffffffffffffffff16815260200190815260200160002060008154809291906001019190505550816006600083815260200190815260200160002060006101000a81548173ffffffffffffffffffffffffffffffffffffffff021916908373ffffffffffffffffffffffffffffffffffffffff160217905550600073ffffffffffffffffffffffffffffffffffffffff168373ffffffffffffffffffffffffffffffffffffffff16141515612e3d57600760008473ffffffffffffffffffffffffffffffffffffffff1673ffffffffffffffffffffffffffffffffffffffff16815260200190815260200160002060008154809291906001900391905055506008600082815260200190815260200160002060006101000a81549073ffffffffffffffffffffffffffffffffffffffff02191690555b7fddf252ad1be2c89b69c2b068fc378daa952ba7f163c4a11628f55a4df523b3ef838383604051808473ffffffffffffffffffffffffffffffffffffffff1673ffffffffffffffffffffffffffffffffffffffff1681526020018373ffffffffffffffffffffffffffffffffffffffff1673ffffffffffffffffffffffffffffffffffffffff168152602001828152602001935050505060405180910390a1505050565b60008110158015612ef3575060028111155b1515612efe57600080fd5b600083111515612f0d57600080fd5b600360806040519081016040528086815260200185815260200184815260200183815250908060018154018082558091505090600182039060005260206000209060040201600090919290919091506000820151816000019080519060200190612f7892919061338b565b506020820151816001015560408201518160020155606082015181600301555050507f4b14c55a5b2e928ebe183f5ab0740bc521a292d471cf74ce254e88f6e201fe3c848484846040518080602001858152602001848152602001838152602001828103825286818151815260200191508051906020019080838360005b83811015613011578082015181840152602081019050612ff6565b50505050905090810190601f16801561303e5780820380516001836020036101000a031916815260200191505b509550505050505060405180910390a150505050565b600a6000828152602001908152602001600020600080820160006101000a81549073ffffffffffffffffffffffffffffffffffffffff021916905560018201600090556002820160009055505050565b6130ac61332a565b60008086101580156130bf575060028611155b15156130ca57600080fd5b600073ffffffffffffffffffffffffffffffffffffffff168773ffffffffffffffffffffffffffffffffffffffff161415151561310657600080fd5b608060405190810160405280878152602001868152602001858152602001848152509150600160028390806001815401808255809150509060018203906000526020600020906004020160009091929091909150600082015181600001556020820151816001015560408201518160020155606082015181600301908051906020019061319492919061338b565b5050500390506131a660008883612cdf565b50505050505050565b6131b7613301565b6003828154811015156131c657fe5b906000526020600020906004020160806040519081016040529081600082018054600181600116156101000203166002900480601f0160208091040260200160405190810160405280929190818152602001828054600181600116156101000203166002900480156132795780601f1061324e57610100808354040283529160200191613279565b820191906000526020600020905b81548152906001019060200180831161325c57829003601f168201915b5050505050815260200160018201548152602001600282015481526020016003820154815250509050600081602001511115156132b557600080fd5b60016003838154811015156132c657fe5b906000526020600020906004020160010154036003838154811015156132e857fe5b9060005260206000209060040201600101819055505050565b608060405190810160405280606081526020016000815260200160008152602001600081525090565b608060405190810160405280600081526020016000815260200160008152602001606081525090565b606060405190810160405280600073ffffffffffffffffffffffffffffffffffffffff16815260200160008152602001600081525090565b828054600181600116156101000203166002900490600052602060002090601f016020900481019282601f106133cc57805160ff19168380011785556133fa565b828001600101855582156133fa579182015b828111156133f95782518255916020019190600101906133de565b5b509050613407919061340b565b5090565b61342d91905b80821115613429576000816000905550600101613411565b5090565b905600a165627a7a723058200346cee73a93d7f4952c80f3ca2ed9d6c01f0a92c3732076dcbf70c67a311b340029",
  "source": "pragma solidity ^0.4.25;\n\nimport \"./PZItemFactory.sol\";\n\ncontract PZItemCore is PZItemFactory\n{\n    /**\n    * Constructor\n    *\n     */\n    constructor() public\n    {\n\n    }\n\n    // function getItems(uint _quantityToCreate) external pure returns(uint[] _items, uint _quantity)\n    // {\n    //     uint[] memory items = new uint[](_quantityToCreate);\n\n    //     return (items, _quantityToCreate);\n    // }\n\n    // function transferItemsToChest(uint _quantityRare, uint _quantityEpic, uint _quantityLegendary) external\n    // {\n    //     require(msg.sender == addrChest);\n\n    //     uint index = 0;\n    //     uint availableQuantity = balanceOf(addrAdmin);\n    //     uint256[] memory itemsAvailable = new uint256[](availableQuantity);\n    //     itemsAvailable = itemsOfOwner(addrAdmin);\n    //     uint[] memory neededQuantity = new uint[](3);\n    //     neededQuantity[0] = _quantityRare;\n    //     neededQuantity[1] = _quantityEpic;\n    //     neededQuantity[2] = _quantityLegendary;\n\n    //     for (index = 0; index < availableQuantity; index ++) {\n    //         Item memory _item = items[itemsAvailable[index]];\n    //         if(neededQuantity[_item.itemRarity] > 0) {\n    //             neededQuantity[_item.itemRarity]--;\n    //         }\n\n    //         _transfer(addrAdmin, addrChest, itemsAvailable[index]);\n    //         if(neededQuantity[0] + neededQuantity[1] + neededQuantity[2] == 0)\n    //             break;\n\n    //     }\n    // }\n\n    /**\n    * Create Item  NFT to buyer\n    *\n    * @param _buyer                         Egg Id to gift\n    * @param _itemGroupId                   Item Group Id to create\n    *\n    */\n    function createItemToBuyer(address _buyer, uint _itemGroupId) public\n    {\n        require(msg.sender == addrChest);\n\n        ItemGroup memory _itemGroup = itemGroups[_itemGroupId];\n\n        _createItem(_buyer, _itemGroup.itemType, _itemGroup.itemRarity, _itemGroupId, _itemGroup.itemName);\n        _decreaseQuantityOfItemGroup(_itemGroupId);\n\n    }\n\n    /**\n    * Gift Item to other users\n    *\n    * @param _to                            address of receiver\n    * @param _itemId                        Item Id to gift\n    *\n    */\n    function giftItem(address _to, uint256 _itemId) external\n    {\n        require(_owns(msg.sender, _itemId));\n        require(_to != address(0x0));\n        _transfer(msg.sender, _to, _itemId);\n    }\n\n    // function returnItemToAdmin(uint _itemId) external\n    // {\n    //     require(msg.sender == addrChest);\n\n    //     _transfer(addrChest, addrAdmin, _itemId);\n    // }\n\n    /**\n    * Get Information of Item\n    * @param _id                            Item Id\n    *\n    * @return itemType                      Item Type\n    * @return itemRarity                    Item Rarity\n    * @return itemName                      Item Name\n    *\n     */\n    function getItem(uint _id) external view returns(uint itemType, uint itemRarity, string itemName)\n    {\n        Item memory item = items[_id];\n        return (item.itemType, item.itemRarity, item.itemName);\n    }\n\n    /**\n    * Get Count of ItemGroup\n    * @return length                      Count of Item Group\n    *\n     */\n    function getItemGroupSupply() external view returns(uint256) {\n        return itemGroups.length;\n    }\n\n    /**\n    * Get Information of Item Group\n    *\n    * @param _itemGroupId                           ItemGroup Id\n    *\n    * @return itemType                      Item Type\n    * @return itemRarity                    Item Rarity\n    * @return itemName                      Item Name\n    * @return itemQuantity                  Item Quantity\n    *\n     */\n    function getItemGroup(uint _itemGroupId) external view returns(string itemName, uint itemQuantity, uint itemRairty, uint itemType) {\n        ItemGroup memory _itemGroup = itemGroups[_itemGroupId];\n        return (_itemGroup.itemName, _itemGroup.itemQuantity, _itemGroup.itemRarity, _itemGroup.itemType);\n    }\n\n    /**\n    * Get Item Quantity\n    *\n    * @return itemQuantity                  Item Quantity\n    *\n     */\n    function getItemQuantity() external view returns(uint quantity)\n    {\n        return items.length;\n    }\n\n    function itemTest() external view returns (address) {\n        return addrChest;\n    }\n\n    function isItemContract() public pure returns (bool) {\n        return true;\n    }\n}\n",
  "sourcePath": "/Volumes/Backup/workspace/Dave(Tron_NFT)/pizzaHero/contracts/PZItemCore.sol",
  "compiler": {
    "name": "solc",
    "version": "0.4.25+commit.69a1e720.Emscripten.clang"
  },
  "schemaVersion": "2.0.1",
  "updatedAt": "2020-01-04T03:21:47.604Z"
}