{
  "contractName": "PZItemMarketplace",
  "abi": [
    {
      "constant": true,
      "inputs": [
        {
          "name": "_interfaceID",
          "type": "bytes4"
        }
      ],
      "name": "supportsInterface",
      "outputs": [
        {
          "name": "",
          "type": "bool"
        }
      ],
      "payable": false,
      "stateMutability": "view",
      "type": "function"
    },
    {
      "constant": true,
      "inputs": [],
      "name": "name",
      "outputs": [
        {
          "name": "",
          "type": "string"
        }
      ],
      "payable": false,
      "stateMutability": "view",
      "type": "function"
    },
    {
      "constant": false,
      "inputs": [
        {
          "name": "_to",
          "type": "address"
        },
        {
          "name": "_itemId",
          "type": "uint256"
        }
      ],
      "name": "approve",
      "outputs": [],
      "payable": false,
      "stateMutability": "nonpayable",
      "type": "function"
    },
    {
      "constant": true,
      "inputs": [],
      "name": "totalSupply",
      "outputs": [
        {
          "name": "",
          "type": "uint256"
        }
      ],
      "payable": false,
      "stateMutability": "view",
      "type": "function"
    },
    {
      "constant": false,
      "inputs": [
        {
          "name": "_from",
          "type": "address"
        },
        {
          "name": "_to",
          "type": "address"
        },
        {
          "name": "_itemId",
          "type": "uint256"
        }
      ],
      "name": "transferFrom",
      "outputs": [],
      "payable": false,
      "stateMutability": "nonpayable",
      "type": "function"
    },
    {
      "constant": true,
      "inputs": [],
      "name": "addrHero",
      "outputs": [
        {
          "name": "",
          "type": "address"
        }
      ],
      "payable": false,
      "stateMutability": "view",
      "type": "function"
    },
    {
      "constant": false,
      "inputs": [
        {
          "name": "_addrHero",
          "type": "address"
        }
      ],
      "name": "setHeroAddr",
      "outputs": [],
      "payable": false,
      "stateMutability": "nonpayable",
      "type": "function"
    },
    {
      "constant": true,
      "inputs": [
        {
          "name": "",
          "type": "address"
        }
      ],
      "name": "ownershipItemCount",
      "outputs": [
        {
          "name": "",
          "type": "uint256"
        }
      ],
      "payable": false,
      "stateMutability": "view",
      "type": "function"
    },
    {
      "constant": false,
      "inputs": [
        {
          "name": "_addrChest",
          "type": "address"
        }
      ],
      "name": "setChestAddr",
      "outputs": [],
      "payable": false,
      "stateMutability": "nonpayable",
      "type": "function"
    },
    {
      "constant": true,
      "inputs": [
        {
          "name": "_itemId",
          "type": "uint256"
        }
      ],
      "name": "ownerOf",
      "outputs": [
        {
          "name": "owner",
          "type": "address"
        }
      ],
      "payable": false,
      "stateMutability": "view",
      "type": "function"
    },
    {
      "constant": true,
      "inputs": [
        {
          "name": "",
          "type": "uint256"
        }
      ],
      "name": "itemQuantityLimit",
      "outputs": [
        {
          "name": "",
          "type": "uint256"
        }
      ],
      "payable": false,
      "stateMutability": "view",
      "type": "function"
    },
    {
      "constant": true,
      "inputs": [
        {
          "name": "_owner",
          "type": "address"
        }
      ],
      "name": "balanceOf",
      "outputs": [
        {
          "name": "count",
          "type": "uint256"
        }
      ],
      "payable": false,
      "stateMutability": "view",
      "type": "function"
    },
    {
      "constant": true,
      "inputs": [],
      "name": "addrChest",
      "outputs": [
        {
          "name": "",
          "type": "address"
        }
      ],
      "payable": false,
      "stateMutability": "view",
      "type": "function"
    },
    {
      "constant": true,
      "inputs": [
        {
          "name": "",
          "type": "uint256"
        }
      ],
      "name": "itemIndexToApproved",
      "outputs": [
        {
          "name": "",
          "type": "address"
        }
      ],
      "payable": false,
      "stateMutability": "view",
      "type": "function"
    },
    {
      "constant": true,
      "inputs": [
        {
          "name": "",
          "type": "uint256"
        }
      ],
      "name": "itemGroups",
      "outputs": [
        {
          "name": "price",
          "type": "uint256"
        },
        {
          "name": "tokenId",
          "type": "uint256"
        },
        {
          "name": "tokenPrice",
          "type": "uint256"
        },
        {
          "name": "itemName",
          "type": "string"
        },
        {
          "name": "itemQuantity",
          "type": "uint256"
        },
        {
          "name": "itemTotalAmount",
          "type": "uint256"
        },
        {
          "name": "itemRarity",
          "type": "uint256"
        },
        {
          "name": "itemType",
          "type": "uint256"
        }
      ],
      "payable": false,
      "stateMutability": "view",
      "type": "function"
    },
    {
      "constant": true,
      "inputs": [],
      "name": "symbol",
      "outputs": [
        {
          "name": "",
          "type": "string"
        }
      ],
      "payable": false,
      "stateMutability": "view",
      "type": "function"
    },
    {
      "constant": true,
      "inputs": [
        {
          "name": "_owner",
          "type": "address"
        }
      ],
      "name": "itemsOfOwner",
      "outputs": [
        {
          "name": "ownerItems",
          "type": "uint256[]"
        }
      ],
      "payable": false,
      "stateMutability": "view",
      "type": "function"
    },
    {
      "constant": false,
      "inputs": [
        {
          "name": "_to",
          "type": "address"
        },
        {
          "name": "_itemId",
          "type": "uint256"
        }
      ],
      "name": "transfer",
      "outputs": [],
      "payable": false,
      "stateMutability": "nonpayable",
      "type": "function"
    },
    {
      "constant": true,
      "inputs": [],
      "name": "addrAdmin",
      "outputs": [
        {
          "name": "",
          "type": "address"
        }
      ],
      "payable": false,
      "stateMutability": "view",
      "type": "function"
    },
    {
      "constant": true,
      "inputs": [
        {
          "name": "",
          "type": "uint256"
        }
      ],
      "name": "items",
      "outputs": [
        {
          "name": "date",
          "type": "uint256"
        },
        {
          "name": "price",
          "type": "uint256"
        },
        {
          "name": "tokenId",
          "type": "uint256"
        },
        {
          "name": "tokenPrice",
          "type": "uint256"
        },
        {
          "name": "itemType",
          "type": "uint256"
        },
        {
          "name": "itemRarity",
          "type": "uint256"
        },
        {
          "name": "itemGroupID",
          "type": "uint256"
        },
        {
          "name": "itemName",
          "type": "string"
        }
      ],
      "payable": false,
      "stateMutability": "view",
      "type": "function"
    },
    {
      "constant": false,
      "inputs": [
        {
          "name": "_contractAddress",
          "type": "address"
        }
      ],
      "name": "setMetadataAddress",
      "outputs": [],
      "payable": false,
      "stateMutability": "nonpayable",
      "type": "function"
    },
    {
      "constant": true,
      "inputs": [
        {
          "name": "",
          "type": "uint256"
        }
      ],
      "name": "itemAuctions",
      "outputs": [
        {
          "name": "seller",
          "type": "address"
        },
        {
          "name": "startingPrice",
          "type": "uint256"
        },
        {
          "name": "itemId",
          "type": "uint256"
        }
      ],
      "payable": false,
      "stateMutability": "view",
      "type": "function"
    },
    {
      "constant": true,
      "inputs": [],
      "name": "trc721Metadata",
      "outputs": [
        {
          "name": "",
          "type": "address"
        }
      ],
      "payable": false,
      "stateMutability": "view",
      "type": "function"
    },
    {
      "constant": true,
      "inputs": [
        {
          "name": "",
          "type": "uint256"
        }
      ],
      "name": "itemIndexToOwner",
      "outputs": [
        {
          "name": "",
          "type": "address"
        }
      ],
      "payable": false,
      "stateMutability": "view",
      "type": "function"
    },
    {
      "inputs": [],
      "payable": false,
      "stateMutability": "nonpayable",
      "type": "constructor"
    },
    {
      "anonymous": false,
      "inputs": [
        {
          "indexed": false,
          "name": "from",
          "type": "address"
        },
        {
          "indexed": false,
          "name": "to",
          "type": "address"
        },
        {
          "indexed": false,
          "name": "tokenId",
          "type": "uint256"
        }
      ],
      "name": "Transfer",
      "type": "event"
    },
    {
      "anonymous": false,
      "inputs": [
        {
          "indexed": false,
          "name": "owner",
          "type": "address"
        },
        {
          "indexed": false,
          "name": "approved",
          "type": "address"
        },
        {
          "indexed": false,
          "name": "tokenId",
          "type": "uint256"
        }
      ],
      "name": "Approval",
      "type": "event"
    },
    {
      "anonymous": false,
      "inputs": [
        {
          "indexed": false,
          "name": "itmeType",
          "type": "uint256"
        },
        {
          "indexed": false,
          "name": "quantity",
          "type": "uint256"
        }
      ],
      "name": "ItemsCreated",
      "type": "event"
    },
    {
      "anonymous": false,
      "inputs": [
        {
          "indexed": false,
          "name": "itemName",
          "type": "string"
        },
        {
          "indexed": false,
          "name": "itemQuantity",
          "type": "uint256"
        },
        {
          "indexed": false,
          "name": "itemRarity",
          "type": "uint256"
        },
        {
          "indexed": false,
          "name": "itemType",
          "type": "uint256"
        }
      ],
      "name": "ItemGroupCreated",
      "type": "event"
    },
    {
      "constant": true,
      "inputs": [],
      "name": "getItemIdsOnSale",
      "outputs": [
        {
          "name": "",
          "type": "uint256[]"
        }
      ],
      "payable": false,
      "stateMutability": "view",
      "type": "function"
    },
    {
      "constant": false,
      "inputs": [
        {
          "name": "_price",
          "type": "uint256"
        },
        {
          "name": "_itemId",
          "type": "uint256"
        }
      ],
      "name": "addAuction",
      "outputs": [],
      "payable": false,
      "stateMutability": "nonpayable",
      "type": "function"
    },
    {
      "constant": true,
      "inputs": [
        {
          "name": "_itemId",
          "type": "uint256"
        }
      ],
      "name": "getItemAuctionByItemId",
      "outputs": [
        {
          "name": "seller",
          "type": "address"
        },
        {
          "name": "price",
          "type": "uint256"
        },
        {
          "name": "itemId",
          "type": "uint256"
        }
      ],
      "payable": false,
      "stateMutability": "view",
      "type": "function"
    },
    {
      "constant": true,
      "inputs": [],
      "name": "getItemAuctionCount",
      "outputs": [
        {
          "name": "",
          "type": "uint256"
        }
      ],
      "payable": false,
      "stateMutability": "view",
      "type": "function"
    },
    {
      "constant": true,
      "inputs": [
        {
          "name": "_auctionId",
          "type": "uint256"
        }
      ],
      "name": "getItemAuction",
      "outputs": [
        {
          "name": "seller",
          "type": "address"
        },
        {
          "name": "price",
          "type": "uint256"
        },
        {
          "name": "itemId",
          "type": "uint256"
        }
      ],
      "payable": false,
      "stateMutability": "view",
      "type": "function"
    },
    {
      "constant": false,
      "inputs": [
        {
          "name": "_itemId",
          "type": "uint256"
        }
      ],
      "name": "bidAuction",
      "outputs": [],
      "payable": true,
      "stateMutability": "payable",
      "type": "function"
    },
    {
      "constant": false,
      "inputs": [
        {
          "name": "_itemId",
          "type": "uint256"
        }
      ],
      "name": "cancelAuction",
      "outputs": [],
      "payable": false,
      "stateMutability": "nonpayable",
      "type": "function"
    }
  ],
  "bytecode": "0x608060405234801561001057600080fd5b50d3801561001d57600080fd5b50d2801561002a57600080fd5b50336000806101000a81548173ffffffffffffffffffffffffffffffffffffffff021916908373ffffffffffffffffffffffffffffffffffffffff16021790555060016127109080600181540180825580915050906001820390600052602060002001600090919290919091505550600161271090806001815401808255809150509060018203906000526020600020016000909192909190915055506001612710908060018154018082558091505090600182039060005260206000200160009091929091909150555061267b806101046000396000f30060806040526004361061018b576000357c0100000000000000000000000000000000000000000000000000000000900463ffffffff16806301ffc9a71461019057806306fdde031461020e578063095ea7b3146102b857806318160ddd1461031f57806323b872dd146103645780632bc9f293146103eb5780634930068b1461045c57806352270c47146104f157806353ded2111461054e5780636173a5d4146105bf5780636352211e1461061c57806364a7d7c7146106a357806367342448146106c357806370a082311461071e57806373187d271461078f57806376c0b367146107e0578063792b87521461085157806388072700146108d75780638c2a4c4f1461095e5780639524845a14610a4f57806395d89b4114610a9457806396b5a75514610b3e5780639a4ca3cb14610b85578063a9059cbb14610c37578063bfae2f0e14610c9e578063bfb231d214610d0f578063e17b25af14610e00578063e25b792914610e5d578063e8e2b0de14610ef2578063f15f938814610f87578063fe9b1a8914610ff8575b600080fd5b34801561019c57600080fd5b50d380156101a957600080fd5b50d280156101b657600080fd5b506101f460048036038101908080357bffffffffffffffffffffffffffffffffffffffffffffffffffffffff1916906020019092919050505061107f565b604051808215151515815260200191505060405180910390f35b34801561021a57600080fd5b50d3801561022757600080fd5b50d2801561023457600080fd5b5061023d611390565b6040518080602001828103825283818151815260200191508051906020019080838360005b8381101561027d578082015181840152602081019050610262565b50505050905090810190601f1680156102aa5780820380516001836020036101000a031916815260200191505b509250505060405180910390f35b3480156102c457600080fd5b50d380156102d157600080fd5b50d280156102de57600080fd5b5061031d600480360381019080803573ffffffffffffffffffffffffffffffffffffffff169060200190929190803590602001909291905050506113c9565b005b34801561032b57600080fd5b50d3801561033857600080fd5b50d2801561034557600080fd5b5061034e61148b565b6040518082815260200191505060405180910390f35b34801561037057600080fd5b50d3801561037d57600080fd5b50d2801561038a57600080fd5b506103e9600480360381019080803573ffffffffffffffffffffffffffffffffffffffff169060200190929190803573ffffffffffffffffffffffffffffffffffffffff1690602001909291908035906020019092919050505061149b565b005b3480156103f757600080fd5b50d3801561040457600080fd5b50d2801561041157600080fd5b5061041a61154c565b604051808273ffffffffffffffffffffffffffffffffffffffff1673ffffffffffffffffffffffffffffffffffffffff16815260200191505060405180910390f35b34801561046857600080fd5b50d3801561047557600080fd5b50d2801561048257600080fd5b506104a160048036038101908080359060200190929190505050611572565b604051808473ffffffffffffffffffffffffffffffffffffffff1673ffffffffffffffffffffffffffffffffffffffff168152602001838152602001828152602001935050505060405180910390f35b3480156104fd57600080fd5b50d3801561050a57600080fd5b50d2801561051757600080fd5b5061054c600480360381019080803573ffffffffffffffffffffffffffffffffffffffff169060200190929190505050611631565b005b34801561055a57600080fd5b50d3801561056757600080fd5b50d2801561057457600080fd5b506105a9600480360381019080803573ffffffffffffffffffffffffffffffffffffffff16906020019092919050505061170c565b6040518082815260200191505060405180910390f35b3480156105cb57600080fd5b50d380156105d857600080fd5b50d280156105e557600080fd5b5061061a600480360381019080803573ffffffffffffffffffffffffffffffffffffffff169060200190929190505050611724565b005b34801561062857600080fd5b50d3801561063557600080fd5b50d2801561064257600080fd5b50610661600480360381019080803590602001909291905050506117ff565b604051808273ffffffffffffffffffffffffffffffffffffffff1673ffffffffffffffffffffffffffffffffffffffff16815260200191505060405180910390f35b6106c160048036038101908080359060200190929190505050611878565b005b3480156106cf57600080fd5b50d380156106dc57600080fd5b50d280156106e957600080fd5b50610708600480360381019080803590602001909291905050506119ab565b6040518082815260200191505060405180910390f35b34801561072a57600080fd5b50d3801561073757600080fd5b50d2801561074457600080fd5b50610779600480360381019080803573ffffffffffffffffffffffffffffffffffffffff1690602001909291905050506119ce565b6040518082815260200191505060405180910390f35b34801561079b57600080fd5b50d380156107a857600080fd5b50d280156107b557600080fd5b506107de6004803603810190808035906020019092919080359060200190929190505050611a17565b005b3480156107ec57600080fd5b50d380156107f957600080fd5b50d2801561080657600080fd5b5061080f611af9565b604051808273ffffffffffffffffffffffffffffffffffffffff1673ffffffffffffffffffffffffffffffffffffffff16815260200191505060405180910390f35b34801561085d57600080fd5b50d3801561086a57600080fd5b50d2801561087757600080fd5b50610880611b1f565b6040518080602001828103825283818151815260200191508051906020019060200280838360005b838110156108c35780820151818401526020810190506108a8565b505050509050019250505060405180910390f35b3480156108e357600080fd5b50d380156108f057600080fd5b50d280156108fd57600080fd5b5061091c60048036038101908080359060200190929190505050611b2f565b604051808273ffffffffffffffffffffffffffffffffffffffff1673ffffffffffffffffffffffffffffffffffffffff16815260200191505060405180910390f35b34801561096a57600080fd5b50d3801561097757600080fd5b50d2801561098457600080fd5b506109a360048036038101908080359060200190929190505050611b62565b6040518089815260200188815260200187815260200180602001868152602001858152602001848152602001838152602001828103825287818151815260200191508051906020019080838360005b83811015610a0d5780820151818401526020810190506109f2565b50505050905090810190601f168015610a3a5780820380516001836020036101000a031916815260200191505b50995050505050505050505060405180910390f35b348015610a5b57600080fd5b50d38015610a6857600080fd5b50d28015610a7557600080fd5b50610a7e611c51565b6040518082815260200191505060405180910390f35b348015610aa057600080fd5b50d38015610aad57600080fd5b50d28015610aba57600080fd5b50610ac3611c5e565b6040518080602001828103825283818151815260200191508051906020019080838360005b83811015610b03578082015181840152602081019050610ae8565b50505050905090810190601f168015610b305780820380516001836020036101000a031916815260200191505b509250505060405180910390f35b348015610b4a57600080fd5b50d38015610b5757600080fd5b50d28015610b6457600080fd5b50610b8360048036038101908080359060200190929190505050611c97565b005b348015610b9157600080fd5b50d38015610b9e57600080fd5b50d28015610bab57600080fd5b50610be0600480360381019080803573ffffffffffffffffffffffffffffffffffffffff169060200190929190505050611d95565b6040518080602001828103825283818151815260200191508051906020019060200280838360005b83811015610c23578082015181840152602081019050610c08565b505050509050019250505060405180910390f35b348015610c4357600080fd5b50d38015610c5057600080fd5b50d28015610c5d57600080fd5b50610c9c600480360381019080803573ffffffffffffffffffffffffffffffffffffffff16906020019092919080359060200190929190505050611ee2565b005b348015610caa57600080fd5b50d38015610cb757600080fd5b50d28015610cc457600080fd5b50610ccd611f7d565b604051808273ffffffffffffffffffffffffffffffffffffffff1673ffffffffffffffffffffffffffffffffffffffff16815260200191505060405180910390f35b348015610d1b57600080fd5b50d38015610d2857600080fd5b50d28015610d3557600080fd5b50610d5460048036038101908080359060200190929190505050611fa2565b6040518089815260200188815260200187815260200186815260200185815260200184815260200183815260200180602001828103825283818151815260200191508051906020019080838360005b83811015610dbe578082015181840152602081019050610da3565b50505050905090810190601f168015610deb5780820380516001836020036101000a031916815260200191505b50995050505050505050505060405180910390f35b348015610e0c57600080fd5b50d38015610e1957600080fd5b50d28015610e2657600080fd5b50610e5b600480360381019080803573ffffffffffffffffffffffffffffffffffffffff169060200190929190505050612091565b005b348015610e6957600080fd5b50d38015610e7657600080fd5b50d28015610e8357600080fd5b50610ea260048036038101908080359060200190929190505050612130565b604051808473ffffffffffffffffffffffffffffffffffffffff1673ffffffffffffffffffffffffffffffffffffffff168152602001838152602001828152602001935050505060405180910390f35b348015610efe57600080fd5b50d38015610f0b57600080fd5b50d28015610f1857600080fd5b50610f37600480360381019080803590602001909291905050506121e5565b604051808473ffffffffffffffffffffffffffffffffffffffff1673ffffffffffffffffffffffffffffffffffffffff168152602001838152602001828152602001935050505060405180910390f35b348015610f9357600080fd5b50d38015610fa057600080fd5b50d28015610fad57600080fd5b50610fb661223e565b604051808273ffffffffffffffffffffffffffffffffffffffff1673ffffffffffffffffffffffffffffffffffffffff16815260200191505060405180910390f35b34801561100457600080fd5b50d3801561101157600080fd5b50d2801561101e57600080fd5b5061103d60048036038101908080359060200190929190505050612264565b604051808273ffffffffffffffffffffffffffffffffffffffff1673ffffffffffffffffffffffffffffffffffffffff16815260200191505060405180910390f35b600060405180807f737570706f727473496e74657266616365286279746573342900000000000000815250601901905060405180910390207bffffffffffffffffffffffffffffffffffffffffffffffffffffffff1916827bffffffffffffffffffffffffffffffffffffffffffffffffffffffff19161480611389575060405180807f746f6b656e4d657461646174612875696e743235362c737472696e6729000000815250601d019050604051809103902060405180807f6974656d734f664f776e657228616464726573732900000000000000000000008152506015019050604051809103902060405180807f7472616e7366657246726f6d28616464726573732c616464726573732c75696e81526020017f74323536290000000000000000000000000000000000000000000000000000008152506025019050604051809103902060405180807f7472616e7366657228616464726573732c75696e7432353629000000000000008152506019019050604051809103902060405180807f617070726f766528616464726573732c75696e743235362900000000000000008152506018019050604051809103902060405180807f6f776e65724f662875696e7432353629000000000000000000000000000000008152506010019050604051809103902060405180807f62616c616e63654f6628616464726573732900000000000000000000000000008152506012019050604051809103902060405180807f746f74616c537570706c79282900000000000000000000000000000000000000815250600d019050604051809103902060405180807f73796d626f6c28290000000000000000000000000000000000000000000000008152506008019050604051809103902060405180807f6e616d6528290000000000000000000000000000000000000000000000000000815250600601905060405180910390201818181818181818187bffffffffffffffffffffffffffffffffffffffffffffffffffffffff1916827bffffffffffffffffffffffffffffffffffffffffffffffffffffffff1916145b9050919050565b6040805190810160405280600781526020017f505a4974656d730000000000000000000000000000000000000000000000000081525081565b6113d33382612297565b15156113de57600080fd5b6113e88183612303565b7f8c5be1e5ebec7d5bd14f71427d1e84f3dd0314c0f7b2291e5b200ac8c7c3b925338383604051808473ffffffffffffffffffffffffffffffffffffffff1673ffffffffffffffffffffffffffffffffffffffff1681526020018373ffffffffffffffffffffffffffffffffffffffff1673ffffffffffffffffffffffffffffffffffffffff168152602001828152602001935050505060405180910390a15050565b6000600160028054905003905090565b600073ffffffffffffffffffffffffffffffffffffffff168273ffffffffffffffffffffffffffffffffffffffff16141515156114d757600080fd5b3073ffffffffffffffffffffffffffffffffffffffff168273ffffffffffffffffffffffffffffffffffffffff161415151561151257600080fd5b61151c3382612359565b151561152757600080fd5b6115318382612297565b151561153c57600080fd5b6115478383836123c5565b505050565b600560009054906101000a900473ffffffffffffffffffffffffffffffffffffffff1681565b600080600061157f612617565b600b8581548110151561158e57fe5b9060005260206000209060030201606060405190810160405290816000820160009054906101000a900473ffffffffffffffffffffffffffffffffffffffff1673ffffffffffffffffffffffffffffffffffffffff1673ffffffffffffffffffffffffffffffffffffffff168152602001600182015481526020016002820154815250509050806000015181602001518260400151935093509350509193909250565b6000809054906101000a900473ffffffffffffffffffffffffffffffffffffffff1673ffffffffffffffffffffffffffffffffffffffff163373ffffffffffffffffffffffffffffffffffffffff1614151561168c57600080fd5b600073ffffffffffffffffffffffffffffffffffffffff168173ffffffffffffffffffffffffffffffffffffffff16141515156116c857600080fd5b80600560006101000a81548173ffffffffffffffffffffffffffffffffffffffff021916908373ffffffffffffffffffffffffffffffffffffffff16021790555050565b60076020528060005260406000206000915090505481565b6000809054906101000a900473ffffffffffffffffffffffffffffffffffffffff1673ffffffffffffffffffffffffffffffffffffffff163373ffffffffffffffffffffffffffffffffffffffff1614151561177f57600080fd5b600073ffffffffffffffffffffffffffffffffffffffff168173ffffffffffffffffffffffffffffffffffffffff16141515156117bb57600080fd5b80600460006101000a81548173ffffffffffffffffffffffffffffffffffffffff021916908373ffffffffffffffffffffffffffffffffffffffff16021790555050565b60006006600083815260200190815260200160002060009054906101000a900473ffffffffffffffffffffffffffffffffffffffff169050600073ffffffffffffffffffffffffffffffffffffffff168173ffffffffffffffffffffffffffffffffffffffff161415151561187357600080fd5b919050565b611880612617565b61188a3083612297565b151561189557600080fd5b600a6000838152602001908152602001600020606060405190810160405290816000820160009054906101000a900473ffffffffffffffffffffffffffffffffffffffff1673ffffffffffffffffffffffffffffffffffffffff1673ffffffffffffffffffffffffffffffffffffffff16815260200160018201548152602001600282015481525050905061192a3383612297565b15151561193657600080fd5b34816020015114151561194857600080fd5b611951826125c7565b61195c3033846123c5565b806000015173ffffffffffffffffffffffffffffffffffffffff166108fc349081150290604051600060405180830381858888f193505050501580156119a6573d6000803e3d6000fd5b505050565b6001818154811015156119ba57fe5b906000526020600020016000915090505481565b6000600760008373ffffffffffffffffffffffffffffffffffffffff1673ffffffffffffffffffffffffffffffffffffffff168152602001908152602001600020549050919050565b611a1f612617565b600083111515611a2e57600080fd5b611a383383612297565b1515611a4357600080fd5b6060604051908101604052803373ffffffffffffffffffffffffffffffffffffffff168152602001848152602001838152509050611a823330846123c5565b80600a600084815260200190815260200160002060008201518160000160006101000a81548173ffffffffffffffffffffffffffffffffffffffff021916908373ffffffffffffffffffffffffffffffffffffffff1602179055506020820151816001015560408201518160020155905050505050565b600460009054906101000a900473ffffffffffffffffffffffffffffffffffffffff1681565b6060611b2a30611d95565b905090565b60086020528060005260406000206000915054906101000a900473ffffffffffffffffffffffffffffffffffffffff1681565b600381815481101515611b7157fe5b9060005260206000209060080201600091509050806000015490806001015490806002015490806003018054600181600116156101000203166002900480601f016020809104026020016040519081016040528092919081815260200182805460018160011615610100020316600290048015611c2f5780601f10611c0457610100808354040283529160200191611c2f565b820191906000526020600020905b815481529060010190602001808311611c1257829003601f168201915b5050505050908060040154908060050154908060060154908060070154905088565b6000600b80549050905090565b6040805190810160405280600281526020017f504900000000000000000000000000000000000000000000000000000000000081525081565b611c9f612617565b611ca93083612297565b1515611cb457600080fd5b600a6000838152602001908152602001600020606060405190810160405290816000820160009054906101000a900473ffffffffffffffffffffffffffffffffffffffff1673ffffffffffffffffffffffffffffffffffffffff1673ffffffffffffffffffffffffffffffffffffffff168152602001600182015481526020016002820154815250509050806000015173ffffffffffffffffffffffffffffffffffffffff163373ffffffffffffffffffffffffffffffffffffffff16141515611d7d57600080fd5b611d86826125c7565b611d913033846123c5565b5050565b6060600060606000806000611da9876119ce565b94506000851415611dec576000604051908082528060200260200182016040528015611de45781602001602082028038833980820191505090505b509550611ed8565b84604051908082528060200260200182016040528015611e1b5781602001602082028038833980820191505090505b509350611e2661148b565b925060009150600190505b8281111515611ed4578673ffffffffffffffffffffffffffffffffffffffff166006600083815260200190815260200160002060009054906101000a900473ffffffffffffffffffffffffffffffffffffffff1673ffffffffffffffffffffffffffffffffffffffff161415611ec757808483815181101515611eb057fe5b906020019060200201818152505081806001019250505b8080600101915050611e31565b8395505b5050505050919050565b600073ffffffffffffffffffffffffffffffffffffffff168273ffffffffffffffffffffffffffffffffffffffff1614151515611f1e57600080fd5b3073ffffffffffffffffffffffffffffffffffffffff168273ffffffffffffffffffffffffffffffffffffffff1614151515611f5957600080fd5b611f633382612297565b1515611f6e57600080fd5b611f793383836123c5565b5050565b6000809054906101000a900473ffffffffffffffffffffffffffffffffffffffff1681565b600281815481101515611fb157fe5b9060005260206000209060080201600091509050806000015490806001015490806002015490806003015490806004015490806005015490806006015490806007018054600181600116156101000203166002900480601f0160208091040260200160405190810160405280929190818152602001828054600181600116156101000203166002900480156120875780601f1061205c57610100808354040283529160200191612087565b820191906000526020600020905b81548152906001019060200180831161206a57829003601f168201915b5050505050905088565b6000809054906101000a900473ffffffffffffffffffffffffffffffffffffffff1673ffffffffffffffffffffffffffffffffffffffff163373ffffffffffffffffffffffffffffffffffffffff161415156120ec57600080fd5b80600960006101000a81548173ffffffffffffffffffffffffffffffffffffffff021916908373ffffffffffffffffffffffffffffffffffffffff16021790555050565b600080600061213d612617565b600a6000868152602001908152602001600020606060405190810160405290816000820160009054906101000a900473ffffffffffffffffffffffffffffffffffffffff1673ffffffffffffffffffffffffffffffffffffffff1673ffffffffffffffffffffffffffffffffffffffff168152602001600182015481526020016002820154815250509050806000015181602001518260400151935093509350509193909250565b600b818154811015156121f457fe5b90600052602060002090600302016000915090508060000160009054906101000a900473ffffffffffffffffffffffffffffffffffffffff16908060010154908060020154905083565b600960009054906101000a900473ffffffffffffffffffffffffffffffffffffffff1681565b60066020528060005260406000206000915054906101000a900473ffffffffffffffffffffffffffffffffffffffff1681565b60008273ffffffffffffffffffffffffffffffffffffffff166006600084815260200190815260200160002060009054906101000a900473ffffffffffffffffffffffffffffffffffffffff1673ffffffffffffffffffffffffffffffffffffffff1614905092915050565b806008600084815260200190815260200160002060006101000a81548173ffffffffffffffffffffffffffffffffffffffff021916908373ffffffffffffffffffffffffffffffffffffffff1602179055505050565b60008273ffffffffffffffffffffffffffffffffffffffff166008600084815260200190815260200160002060009054906101000a900473ffffffffffffffffffffffffffffffffffffffff1673ffffffffffffffffffffffffffffffffffffffff1614905092915050565b600760008373ffffffffffffffffffffffffffffffffffffffff1673ffffffffffffffffffffffffffffffffffffffff16815260200190815260200160002060008154809291906001019190505550816006600083815260200190815260200160002060006101000a81548173ffffffffffffffffffffffffffffffffffffffff021916908373ffffffffffffffffffffffffffffffffffffffff160217905550600073ffffffffffffffffffffffffffffffffffffffff168373ffffffffffffffffffffffffffffffffffffffff1614151561252357600760008473ffffffffffffffffffffffffffffffffffffffff1673ffffffffffffffffffffffffffffffffffffffff16815260200190815260200160002060008154809291906001900391905055506008600082815260200190815260200160002060006101000a81549073ffffffffffffffffffffffffffffffffffffffff02191690555b7fddf252ad1be2c89b69c2b068fc378daa952ba7f163c4a11628f55a4df523b3ef838383604051808473ffffffffffffffffffffffffffffffffffffffff1673ffffffffffffffffffffffffffffffffffffffff1681526020018373ffffffffffffffffffffffffffffffffffffffff1673ffffffffffffffffffffffffffffffffffffffff168152602001828152602001935050505060405180910390a1505050565b600a6000828152602001908152602001600020600080820160006101000a81549073ffffffffffffffffffffffffffffffffffffffff021916905560018201600090556002820160009055505050565b606060405190810160405280600073ffffffffffffffffffffffffffffffffffffffff168152602001600081526020016000815250905600a165627a7a723058206cdad92aba0ce6934d76d019fe9a107d59077cdadfb2529611f1a02116d3e85c0029",
  "source": "pragma solidity ^0.4.25;\n\nimport \"./PZItemOwnership.sol\";\n\ncontract PZItemMarketplace is PZItemOwnership\n{\n    struct ItemAuction {\n        address seller;\n        uint256 startingPrice;\n        uint256 itemId;\n        // uint256 endingPrice;\n        // uint64  duration;\n        // uint64  startedAt;\n    }\n\n    mapping (uint256 => ItemAuction) itemIdToAuction;\n    ItemAuction[] public       itemAuctions;\n\n    /**\n    * Constructor\n    *\n     */\n    constructor() public\n    {\n\n    }\n\n    /**\n    * Get Ids of Iems on the Marketplace Sale\n    *\n    * @return itemsOfOwner               Items of Owner\n    *\n     */\n    function getItemIdsOnSale() public view returns(uint256[])\n    {\n        return itemsOfOwner(this);\n    }\n\n    /**\n    * Place an Item to Aunction on marketplace\n    *\n    * @param _price                 Price to Sell\n    * @param _itemId                Item Id\n    *\n     */\n    function addAuction(uint _price, uint _itemId) public {\n        require(_price > 0);\n        require(_owns(msg.sender, _itemId));\n\n        ItemAuction memory _auction = ItemAuction(msg.sender, _price, _itemId);\n\n        // uint256 newAuctionId = ItemAuctions.push(_auction) - 1;\n        _transfer(msg.sender, this, _itemId);\n        itemIdToAuction[_itemId] = _auction;\n    }\n\n    /**\n    * Get Information of Auction By Item ID\n    *\n    * @param _itemId                 Item Id\n    *\n    * @return seller                Seller's Address\n    * @return price                 Price\n    * @return itemId                 Item Id\n    *\n     */\n    function getItemAuctionByItemId(uint256 _itemId) external view returns(address seller, uint256 price, uint256 itemId)\n    {\n        ItemAuction memory _auction = itemIdToAuction[_itemId];\n        return(_auction.seller, _auction.startingPrice, _auction.itemId);\n    }\n\n    /**\n    * Get Count of Auction Sale\n    *\n    * @return count                Count of Auction Sale\n    *\n     */\n    function getItemAuctionCount() external view returns(uint256)\n    {\n        return itemAuctions.length;\n    }\n\n    /**\n    * Get Information of Auction By Auction ID\n    *\n    * @param _auctionId             Auction Id\n    *\n    * @return seller                Seller's Address\n    * @return price                 Price\n    * @return itemId                 Item Id\n    *\n     */\n    function getItemAuction(uint256 _auctionId) external view returns(address seller, uint256 price, uint256 itemId)\n    {\n        ItemAuction memory _auction = itemAuctions[_auctionId];\n        return(_auction.seller, _auction.startingPrice, _auction.itemId);\n    }\n\n    /**\n    * Remove Auction By Item ID\n    *\n    * @param _itemId                 Item ID\n    *\n     */\n    function _removeAuction(uint256 _itemId) internal {\n        delete itemIdToAuction[_itemId];\n    }\n\n    /**\n    * Bid on Auction Sale\n    *\n    * @param _itemId                 Item ID\n    *\n     */\n    function bidAuction(uint256 _itemId) public payable\n    {\n        require(_owns(address(this), _itemId));\n        ItemAuction memory _auction = itemIdToAuction[_itemId];\n        require(!_owns(msg.sender, _itemId));\n        require(_auction.startingPrice == msg.value);\n\n        _removeAuction(_itemId);\n        _transfer(this, msg.sender, _itemId);\n        _auction.seller.transfer(msg.value);\n    }\n\n    /**\n    * Cancel Auction By Item ID\n    *\n    * @param _itemId                 Item ID\n    *\n     */\n    function cancelAuction(uint256 _itemId) public\n    {\n        require(_owns(address(this), _itemId));\n        ItemAuction memory _auction = itemIdToAuction[_itemId];\n        require(msg.sender == _auction.seller);\n\n        _removeAuction(_itemId);\n        _transfer(this, msg.sender, _itemId);\n    }\n}",
  "sourcePath": "/Volumes/Backup/workspace/Dave(Tron_NFT)/pizzaHero/contracts/PZItemMarketplace.sol",
  "compiler": {
    "name": "solc",
    "version": "0.4.25+commit.69a1e720.Emscripten.clang"
  },
  "schemaVersion": "2.0.1",
  "updatedAt": "2020-01-15T17:21:03.466Z"
}