{
  "contractName": "PZItemFactory",
  "abi": [
    {
      "constant": true,
      "inputs": [
        {
          "name": "_interfaceID",
          "type": "bytes4"
        }
      ],
      "name": "supportsInterface",
      "outputs": [
        {
          "name": "",
          "type": "bool"
        }
      ],
      "payable": false,
      "stateMutability": "view",
      "type": "function"
    },
    {
      "constant": true,
      "inputs": [],
      "name": "name",
      "outputs": [
        {
          "name": "",
          "type": "string"
        }
      ],
      "payable": false,
      "stateMutability": "view",
      "type": "function"
    },
    {
      "constant": false,
      "inputs": [
        {
          "name": "_to",
          "type": "address"
        },
        {
          "name": "_itemId",
          "type": "uint256"
        }
      ],
      "name": "approve",
      "outputs": [],
      "payable": false,
      "stateMutability": "nonpayable",
      "type": "function"
    },
    {
      "constant": true,
      "inputs": [],
      "name": "totalSupply",
      "outputs": [
        {
          "name": "",
          "type": "uint256"
        }
      ],
      "payable": false,
      "stateMutability": "view",
      "type": "function"
    },
    {
      "constant": false,
      "inputs": [
        {
          "name": "_from",
          "type": "address"
        },
        {
          "name": "_to",
          "type": "address"
        },
        {
          "name": "_itemId",
          "type": "uint256"
        }
      ],
      "name": "transferFrom",
      "outputs": [],
      "payable": false,
      "stateMutability": "nonpayable",
      "type": "function"
    },
    {
      "constant": true,
      "inputs": [],
      "name": "addrHero",
      "outputs": [
        {
          "name": "",
          "type": "address"
        }
      ],
      "payable": false,
      "stateMutability": "view",
      "type": "function"
    },
    {
      "constant": true,
      "inputs": [
        {
          "name": "_auctionId",
          "type": "uint256"
        }
      ],
      "name": "getItemAuction",
      "outputs": [
        {
          "name": "seller",
          "type": "address"
        },
        {
          "name": "price",
          "type": "uint256"
        },
        {
          "name": "itemId",
          "type": "uint256"
        }
      ],
      "payable": false,
      "stateMutability": "view",
      "type": "function"
    },
    {
      "constant": false,
      "inputs": [
        {
          "name": "_addrHero",
          "type": "address"
        }
      ],
      "name": "setHeroAddr",
      "outputs": [],
      "payable": false,
      "stateMutability": "nonpayable",
      "type": "function"
    },
    {
      "constant": true,
      "inputs": [
        {
          "name": "",
          "type": "address"
        }
      ],
      "name": "ownershipItemCount",
      "outputs": [
        {
          "name": "",
          "type": "uint256"
        }
      ],
      "payable": false,
      "stateMutability": "view",
      "type": "function"
    },
    {
      "constant": false,
      "inputs": [
        {
          "name": "_addrChest",
          "type": "address"
        }
      ],
      "name": "setChestAddr",
      "outputs": [],
      "payable": false,
      "stateMutability": "nonpayable",
      "type": "function"
    },
    {
      "constant": true,
      "inputs": [
        {
          "name": "_itemId",
          "type": "uint256"
        }
      ],
      "name": "ownerOf",
      "outputs": [
        {
          "name": "owner",
          "type": "address"
        }
      ],
      "payable": false,
      "stateMutability": "view",
      "type": "function"
    },
    {
      "constant": false,
      "inputs": [
        {
          "name": "_itemId",
          "type": "uint256"
        }
      ],
      "name": "bidAuction",
      "outputs": [],
      "payable": true,
      "stateMutability": "payable",
      "type": "function"
    },
    {
      "constant": true,
      "inputs": [
        {
          "name": "",
          "type": "uint256"
        }
      ],
      "name": "itemQuantityLimit",
      "outputs": [
        {
          "name": "",
          "type": "uint256"
        }
      ],
      "payable": false,
      "stateMutability": "view",
      "type": "function"
    },
    {
      "constant": true,
      "inputs": [
        {
          "name": "_owner",
          "type": "address"
        }
      ],
      "name": "balanceOf",
      "outputs": [
        {
          "name": "count",
          "type": "uint256"
        }
      ],
      "payable": false,
      "stateMutability": "view",
      "type": "function"
    },
    {
      "constant": false,
      "inputs": [
        {
          "name": "_price",
          "type": "uint256"
        },
        {
          "name": "_itemId",
          "type": "uint256"
        }
      ],
      "name": "addAuction",
      "outputs": [],
      "payable": false,
      "stateMutability": "nonpayable",
      "type": "function"
    },
    {
      "constant": true,
      "inputs": [],
      "name": "addrChest",
      "outputs": [
        {
          "name": "",
          "type": "address"
        }
      ],
      "payable": false,
      "stateMutability": "view",
      "type": "function"
    },
    {
      "constant": true,
      "inputs": [],
      "name": "getItemIdsOnSale",
      "outputs": [
        {
          "name": "",
          "type": "uint256[]"
        }
      ],
      "payable": false,
      "stateMutability": "view",
      "type": "function"
    },
    {
      "constant": true,
      "inputs": [
        {
          "name": "",
          "type": "uint256"
        }
      ],
      "name": "itemIndexToApproved",
      "outputs": [
        {
          "name": "",
          "type": "address"
        }
      ],
      "payable": false,
      "stateMutability": "view",
      "type": "function"
    },
    {
      "constant": true,
      "inputs": [
        {
          "name": "",
          "type": "uint256"
        }
      ],
      "name": "itemGroups",
      "outputs": [
        {
          "name": "price",
          "type": "uint256"
        },
        {
          "name": "tokenId",
          "type": "uint256"
        },
        {
          "name": "tokenPrice",
          "type": "uint256"
        },
        {
          "name": "itemName",
          "type": "string"
        },
        {
          "name": "itemQuantity",
          "type": "uint256"
        },
        {
          "name": "itemTotalAmount",
          "type": "uint256"
        },
        {
          "name": "itemRarity",
          "type": "uint256"
        },
        {
          "name": "itemType",
          "type": "uint256"
        }
      ],
      "payable": false,
      "stateMutability": "view",
      "type": "function"
    },
    {
      "constant": true,
      "inputs": [],
      "name": "getItemAuctionCount",
      "outputs": [
        {
          "name": "",
          "type": "uint256"
        }
      ],
      "payable": false,
      "stateMutability": "view",
      "type": "function"
    },
    {
      "constant": true,
      "inputs": [],
      "name": "symbol",
      "outputs": [
        {
          "name": "",
          "type": "string"
        }
      ],
      "payable": false,
      "stateMutability": "view",
      "type": "function"
    },
    {
      "constant": false,
      "inputs": [
        {
          "name": "_itemId",
          "type": "uint256"
        }
      ],
      "name": "cancelAuction",
      "outputs": [],
      "payable": false,
      "stateMutability": "nonpayable",
      "type": "function"
    },
    {
      "constant": true,
      "inputs": [
        {
          "name": "_owner",
          "type": "address"
        }
      ],
      "name": "itemsOfOwner",
      "outputs": [
        {
          "name": "ownerItems",
          "type": "uint256[]"
        }
      ],
      "payable": false,
      "stateMutability": "view",
      "type": "function"
    },
    {
      "constant": false,
      "inputs": [
        {
          "name": "_to",
          "type": "address"
        },
        {
          "name": "_itemId",
          "type": "uint256"
        }
      ],
      "name": "transfer",
      "outputs": [],
      "payable": false,
      "stateMutability": "nonpayable",
      "type": "function"
    },
    {
      "constant": true,
      "inputs": [],
      "name": "addrAdmin",
      "outputs": [
        {
          "name": "",
          "type": "address"
        }
      ],
      "payable": false,
      "stateMutability": "view",
      "type": "function"
    },
    {
      "constant": true,
      "inputs": [
        {
          "name": "",
          "type": "uint256"
        }
      ],
      "name": "items",
      "outputs": [
        {
          "name": "date",
          "type": "uint256"
        },
        {
          "name": "price",
          "type": "uint256"
        },
        {
          "name": "tokenId",
          "type": "uint256"
        },
        {
          "name": "tokenPrice",
          "type": "uint256"
        },
        {
          "name": "itemType",
          "type": "uint256"
        },
        {
          "name": "itemRarity",
          "type": "uint256"
        },
        {
          "name": "itemGroupID",
          "type": "uint256"
        },
        {
          "name": "itemName",
          "type": "string"
        }
      ],
      "payable": false,
      "stateMutability": "view",
      "type": "function"
    },
    {
      "constant": false,
      "inputs": [
        {
          "name": "_contractAddress",
          "type": "address"
        }
      ],
      "name": "setMetadataAddress",
      "outputs": [],
      "payable": false,
      "stateMutability": "nonpayable",
      "type": "function"
    },
    {
      "constant": true,
      "inputs": [
        {
          "name": "_itemId",
          "type": "uint256"
        }
      ],
      "name": "getItemAuctionByItemId",
      "outputs": [
        {
          "name": "seller",
          "type": "address"
        },
        {
          "name": "price",
          "type": "uint256"
        },
        {
          "name": "itemId",
          "type": "uint256"
        }
      ],
      "payable": false,
      "stateMutability": "view",
      "type": "function"
    },
    {
      "constant": true,
      "inputs": [
        {
          "name": "",
          "type": "uint256"
        }
      ],
      "name": "itemAuctions",
      "outputs": [
        {
          "name": "seller",
          "type": "address"
        },
        {
          "name": "startingPrice",
          "type": "uint256"
        },
        {
          "name": "itemId",
          "type": "uint256"
        }
      ],
      "payable": false,
      "stateMutability": "view",
      "type": "function"
    },
    {
      "constant": true,
      "inputs": [],
      "name": "trc721Metadata",
      "outputs": [
        {
          "name": "",
          "type": "address"
        }
      ],
      "payable": false,
      "stateMutability": "view",
      "type": "function"
    },
    {
      "constant": true,
      "inputs": [
        {
          "name": "",
          "type": "uint256"
        }
      ],
      "name": "itemIndexToOwner",
      "outputs": [
        {
          "name": "",
          "type": "address"
        }
      ],
      "payable": false,
      "stateMutability": "view",
      "type": "function"
    },
    {
      "anonymous": false,
      "inputs": [
        {
          "indexed": false,
          "name": "from",
          "type": "address"
        },
        {
          "indexed": false,
          "name": "to",
          "type": "address"
        },
        {
          "indexed": false,
          "name": "tokenId",
          "type": "uint256"
        }
      ],
      "name": "Transfer",
      "type": "event"
    },
    {
      "anonymous": false,
      "inputs": [
        {
          "indexed": false,
          "name": "owner",
          "type": "address"
        },
        {
          "indexed": false,
          "name": "approved",
          "type": "address"
        },
        {
          "indexed": false,
          "name": "tokenId",
          "type": "uint256"
        }
      ],
      "name": "Approval",
      "type": "event"
    },
    {
      "anonymous": false,
      "inputs": [
        {
          "indexed": false,
          "name": "itmeType",
          "type": "uint256"
        },
        {
          "indexed": false,
          "name": "quantity",
          "type": "uint256"
        }
      ],
      "name": "ItemsCreated",
      "type": "event"
    },
    {
      "anonymous": false,
      "inputs": [
        {
          "indexed": false,
          "name": "itemName",
          "type": "string"
        },
        {
          "indexed": false,
          "name": "itemQuantity",
          "type": "uint256"
        },
        {
          "indexed": false,
          "name": "itemRarity",
          "type": "uint256"
        },
        {
          "indexed": false,
          "name": "itemType",
          "type": "uint256"
        }
      ],
      "name": "ItemGroupCreated",
      "type": "event"
    },
    {
      "constant": false,
      "inputs": [
        {
          "name": "_price",
          "type": "uint256"
        },
        {
          "name": "_tokenId",
          "type": "uint256"
        },
        {
          "name": "_tokenPrice",
          "type": "uint256"
        },
        {
          "name": "_itemName",
          "type": "string"
        },
        {
          "name": "_itemQuantity",
          "type": "uint256"
        },
        {
          "name": "_itemRarity",
          "type": "uint256"
        },
        {
          "name": "_itemType",
          "type": "uint256"
        }
      ],
      "name": "createItemGroup",
      "outputs": [],
      "payable": false,
      "stateMutability": "nonpayable",
      "type": "function"
    }
  ],
  "bytecode": "0x6080604052336000806101000a81548173ffffffffffffffffffffffffffffffffffffffff021916908373ffffffffffffffffffffffffffffffffffffffff160217905550600161271090806001815401808255809150509060018203906000526020600020016000909192909190915055506001612710908060018154018082558091505090600182039060005260206000200160009091929091909150555060016127109080600181540180825580915050906001820390600052602060002001600090919290919091505550612a14806100dd6000396000f300608060405260043610610196576000357c0100000000000000000000000000000000000000000000000000000000900463ffffffff16806301ffc9a71461019b57806306fdde0314610219578063095ea7b3146102c357806318160ddd1461032a57806323b872dd1461036f5780632bc9f293146103f65780634930068b1461046757806352270c47146104fc57806353ded211146105595780636173a5d4146105ca5780636352211e1461062757806364a7d7c7146106ae57806367342448146106ce5780636a9faf711461072957806370a08231146107e857806373187d271461085957806376c0b367146108aa578063792b87521461091b57806388072700146109a15780638c2a4c4f14610a285780639524845a14610b1957806395d89b4114610b5e57806396b5a75514610c085780639a4ca3cb14610c4f578063a9059cbb14610d01578063bfae2f0e14610d68578063bfb231d214610dd9578063e17b25af14610eca578063e25b792914610f27578063e8e2b0de14610fbc578063f15f938814611051578063fe9b1a89146110c2575b600080fd5b3480156101a757600080fd5b50d380156101b457600080fd5b50d280156101c157600080fd5b506101ff60048036038101908080357bffffffffffffffffffffffffffffffffffffffffffffffffffffffff19169060200190929190505050611149565b604051808215151515815260200191505060405180910390f35b34801561022557600080fd5b50d3801561023257600080fd5b50d2801561023f57600080fd5b5061024861145a565b6040518080602001828103825283818151815260200191508051906020019080838360005b8381101561028857808201518184015260208101905061026d565b50505050905090810190601f1680156102b55780820380516001836020036101000a031916815260200191505b509250505060405180910390f35b3480156102cf57600080fd5b50d380156102dc57600080fd5b50d280156102e957600080fd5b50610328600480360381019080803573ffffffffffffffffffffffffffffffffffffffff16906020019092919080359060200190929190505050611493565b005b34801561033657600080fd5b50d3801561034357600080fd5b50d2801561035057600080fd5b50610359611555565b6040518082815260200191505060405180910390f35b34801561037b57600080fd5b50d3801561038857600080fd5b50d2801561039557600080fd5b506103f4600480360381019080803573ffffffffffffffffffffffffffffffffffffffff169060200190929190803573ffffffffffffffffffffffffffffffffffffffff16906020019092919080359060200190929190505050611565565b005b34801561040257600080fd5b50d3801561040f57600080fd5b50d2801561041c57600080fd5b50610425611616565b604051808273ffffffffffffffffffffffffffffffffffffffff1673ffffffffffffffffffffffffffffffffffffffff16815260200191505060405180910390f35b34801561047357600080fd5b50d3801561048057600080fd5b50d2801561048d57600080fd5b506104ac6004803603810190808035906020019092919050505061163c565b604051808473ffffffffffffffffffffffffffffffffffffffff1673ffffffffffffffffffffffffffffffffffffffff168152602001838152602001828152602001935050505060405180910390f35b34801561050857600080fd5b50d3801561051557600080fd5b50d2801561052257600080fd5b50610557600480360381019080803573ffffffffffffffffffffffffffffffffffffffff1690602001909291905050506116fb565b005b34801561056557600080fd5b50d3801561057257600080fd5b50d2801561057f57600080fd5b506105b4600480360381019080803573ffffffffffffffffffffffffffffffffffffffff1690602001909291905050506117d6565b6040518082815260200191505060405180910390f35b3480156105d657600080fd5b50d380156105e357600080fd5b50d280156105f057600080fd5b50610625600480360381019080803573ffffffffffffffffffffffffffffffffffffffff1690602001909291905050506117ee565b005b34801561063357600080fd5b50d3801561064057600080fd5b50d2801561064d57600080fd5b5061066c600480360381019080803590602001909291905050506118c9565b604051808273ffffffffffffffffffffffffffffffffffffffff1673ffffffffffffffffffffffffffffffffffffffff16815260200191505060405180910390f35b6106cc60048036038101908080359060200190929190505050611942565b005b3480156106da57600080fd5b50d380156106e757600080fd5b50d280156106f457600080fd5b5061071360048036038101908080359060200190929190505050611a75565b6040518082815260200191505060405180910390f35b34801561073557600080fd5b50d3801561074257600080fd5b50d2801561074f57600080fd5b506107e6600480360381019080803590602001909291908035906020019092919080359060200190929190803590602001908201803590602001908080601f0160208091040260200160405190810160405280939291908181526020018383808284378201915050505050509192919290803590602001909291908035906020019092919080359060200190929190505050611a98565b005b3480156107f457600080fd5b50d3801561080157600080fd5b50d2801561080e57600080fd5b50610843600480360381019080803573ffffffffffffffffffffffffffffffffffffffff169060200190929190505050611b0b565b6040518082815260200191505060405180910390f35b34801561086557600080fd5b50d3801561087257600080fd5b50d2801561087f57600080fd5b506108a86004803603810190808035906020019092919080359060200190929190505050611b54565b005b3480156108b657600080fd5b50d380156108c357600080fd5b50d280156108d057600080fd5b506108d9611c36565b604051808273ffffffffffffffffffffffffffffffffffffffff1673ffffffffffffffffffffffffffffffffffffffff16815260200191505060405180910390f35b34801561092757600080fd5b50d3801561093457600080fd5b50d2801561094157600080fd5b5061094a611c5c565b6040518080602001828103825283818151815260200191508051906020019060200280838360005b8381101561098d578082015181840152602081019050610972565b505050509050019250505060405180910390f35b3480156109ad57600080fd5b50d380156109ba57600080fd5b50d280156109c757600080fd5b506109e660048036038101908080359060200190929190505050611c6c565b604051808273ffffffffffffffffffffffffffffffffffffffff1673ffffffffffffffffffffffffffffffffffffffff16815260200191505060405180910390f35b348015610a3457600080fd5b50d38015610a4157600080fd5b50d28015610a4e57600080fd5b50610a6d60048036038101908080359060200190929190505050611c9f565b6040518089815260200188815260200187815260200180602001868152602001858152602001848152602001838152602001828103825287818151815260200191508051906020019080838360005b83811015610ad7578082015181840152602081019050610abc565b50505050905090810190601f168015610b045780820380516001836020036101000a031916815260200191505b50995050505050505050505060405180910390f35b348015610b2557600080fd5b50d38015610b3257600080fd5b50d28015610b3f57600080fd5b50610b48611d8e565b6040518082815260200191505060405180910390f35b348015610b6a57600080fd5b50d38015610b7757600080fd5b50d28015610b8457600080fd5b50610b8d611d9b565b6040518080602001828103825283818151815260200191508051906020019080838360005b83811015610bcd578082015181840152602081019050610bb2565b50505050905090810190601f168015610bfa5780820380516001836020036101000a031916815260200191505b509250505060405180910390f35b348015610c1457600080fd5b50d38015610c2157600080fd5b50d28015610c2e57600080fd5b50610c4d60048036038101908080359060200190929190505050611dd4565b005b348015610c5b57600080fd5b50d38015610c6857600080fd5b50d28015610c7557600080fd5b50610caa600480360381019080803573ffffffffffffffffffffffffffffffffffffffff169060200190929190505050611ed2565b6040518080602001828103825283818151815260200191508051906020019060200280838360005b83811015610ced578082015181840152602081019050610cd2565b505050509050019250505060405180910390f35b348015610d0d57600080fd5b50d38015610d1a57600080fd5b50d28015610d2757600080fd5b50610d66600480360381019080803573ffffffffffffffffffffffffffffffffffffffff1690602001909291908035906020019092919050505061201f565b005b348015610d7457600080fd5b50d38015610d8157600080fd5b50d28015610d8e57600080fd5b50610d976120ba565b604051808273ffffffffffffffffffffffffffffffffffffffff1673ffffffffffffffffffffffffffffffffffffffff16815260200191505060405180910390f35b348015610de557600080fd5b50d38015610df257600080fd5b50d28015610dff57600080fd5b50610e1e600480360381019080803590602001909291905050506120df565b6040518089815260200188815260200187815260200186815260200185815260200184815260200183815260200180602001828103825283818151815260200191508051906020019080838360005b83811015610e88578082015181840152602081019050610e6d565b50505050905090810190601f168015610eb55780820380516001836020036101000a031916815260200191505b50995050505050505050505060405180910390f35b348015610ed657600080fd5b50d38015610ee357600080fd5b50d28015610ef057600080fd5b50610f25600480360381019080803573ffffffffffffffffffffffffffffffffffffffff1690602001909291905050506121ce565b005b348015610f3357600080fd5b50d38015610f4057600080fd5b50d28015610f4d57600080fd5b50610f6c6004803603810190808035906020019092919050505061226d565b604051808473ffffffffffffffffffffffffffffffffffffffff1673ffffffffffffffffffffffffffffffffffffffff168152602001838152602001828152602001935050505060405180910390f35b348015610fc857600080fd5b50d38015610fd557600080fd5b50d28015610fe257600080fd5b5061100160048036038101908080359060200190929190505050612322565b604051808473ffffffffffffffffffffffffffffffffffffffff1673ffffffffffffffffffffffffffffffffffffffff168152602001838152602001828152602001935050505060405180910390f35b34801561105d57600080fd5b50d3801561106a57600080fd5b50d2801561107757600080fd5b5061108061237b565b604051808273ffffffffffffffffffffffffffffffffffffffff1673ffffffffffffffffffffffffffffffffffffffff16815260200191505060405180910390f35b3480156110ce57600080fd5b50d380156110db57600080fd5b50d280156110e857600080fd5b50611107600480360381019080803590602001909291905050506123a1565b604051808273ffffffffffffffffffffffffffffffffffffffff1673ffffffffffffffffffffffffffffffffffffffff16815260200191505060405180910390f35b600060405180807f737570706f727473496e74657266616365286279746573342900000000000000815250601901905060405180910390207bffffffffffffffffffffffffffffffffffffffffffffffffffffffff1916827bffffffffffffffffffffffffffffffffffffffffffffffffffffffff19161480611453575060405180807f746f6b656e4d657461646174612875696e743235362c737472696e6729000000815250601d019050604051809103902060405180807f6974656d734f664f776e657228616464726573732900000000000000000000008152506015019050604051809103902060405180807f7472616e7366657246726f6d28616464726573732c616464726573732c75696e81526020017f74323536290000000000000000000000000000000000000000000000000000008152506025019050604051809103902060405180807f7472616e7366657228616464726573732c75696e7432353629000000000000008152506019019050604051809103902060405180807f617070726f766528616464726573732c75696e743235362900000000000000008152506018019050604051809103902060405180807f6f776e65724f662875696e7432353629000000000000000000000000000000008152506010019050604051809103902060405180807f62616c616e63654f6628616464726573732900000000000000000000000000008152506012019050604051809103902060405180807f746f74616c537570706c79282900000000000000000000000000000000000000815250600d019050604051809103902060405180807f73796d626f6c28290000000000000000000000000000000000000000000000008152506008019050604051809103902060405180807f6e616d6528290000000000000000000000000000000000000000000000000000815250600601905060405180910390201818181818181818187bffffffffffffffffffffffffffffffffffffffffffffffffffffffff1916827bffffffffffffffffffffffffffffffffffffffffffffffffffffffff1916145b9050919050565b6040805190810160405280600781526020017f505a4974656d730000000000000000000000000000000000000000000000000081525081565b61149d33826123d4565b15156114a857600080fd5b6114b28183612440565b7f8c5be1e5ebec7d5bd14f71427d1e84f3dd0314c0f7b2291e5b200ac8c7c3b925338383604051808473ffffffffffffffffffffffffffffffffffffffff1673ffffffffffffffffffffffffffffffffffffffff1681526020018373ffffffffffffffffffffffffffffffffffffffff1673ffffffffffffffffffffffffffffffffffffffff168152602001828152602001935050505060405180910390a15050565b6000600160028054905003905090565b600073ffffffffffffffffffffffffffffffffffffffff168273ffffffffffffffffffffffffffffffffffffffff16141515156115a157600080fd5b3073ffffffffffffffffffffffffffffffffffffffff168273ffffffffffffffffffffffffffffffffffffffff16141515156115dc57600080fd5b6115e63382612496565b15156115f157600080fd5b6115fb83826123d4565b151561160657600080fd5b611611838383612502565b505050565b600560009054906101000a900473ffffffffffffffffffffffffffffffffffffffff1681565b600080600061164961290b565b600b8581548110151561165857fe5b9060005260206000209060030201606060405190810160405290816000820160009054906101000a900473ffffffffffffffffffffffffffffffffffffffff1673ffffffffffffffffffffffffffffffffffffffff1673ffffffffffffffffffffffffffffffffffffffff168152602001600182015481526020016002820154815250509050806000015181602001518260400151935093509350509193909250565b6000809054906101000a900473ffffffffffffffffffffffffffffffffffffffff1673ffffffffffffffffffffffffffffffffffffffff163373ffffffffffffffffffffffffffffffffffffffff1614151561175657600080fd5b600073ffffffffffffffffffffffffffffffffffffffff168173ffffffffffffffffffffffffffffffffffffffff161415151561179257600080fd5b80600560006101000a81548173ffffffffffffffffffffffffffffffffffffffff021916908373ffffffffffffffffffffffffffffffffffffffff16021790555050565b60076020528060005260406000206000915090505481565b6000809054906101000a900473ffffffffffffffffffffffffffffffffffffffff1673ffffffffffffffffffffffffffffffffffffffff163373ffffffffffffffffffffffffffffffffffffffff1614151561184957600080fd5b600073ffffffffffffffffffffffffffffffffffffffff168173ffffffffffffffffffffffffffffffffffffffff161415151561188557600080fd5b80600460006101000a81548173ffffffffffffffffffffffffffffffffffffffff021916908373ffffffffffffffffffffffffffffffffffffffff16021790555050565b60006006600083815260200190815260200160002060009054906101000a900473ffffffffffffffffffffffffffffffffffffffff169050600073ffffffffffffffffffffffffffffffffffffffff168173ffffffffffffffffffffffffffffffffffffffff161415151561193d57600080fd5b919050565b61194a61290b565b61195430836123d4565b151561195f57600080fd5b600a6000838152602001908152602001600020606060405190810160405290816000820160009054906101000a900473ffffffffffffffffffffffffffffffffffffffff1673ffffffffffffffffffffffffffffffffffffffff1673ffffffffffffffffffffffffffffffffffffffff1681526020016001820154815260200160028201548152505090506119f433836123d4565b151515611a0057600080fd5b348160200151141515611a1257600080fd5b611a1b82612704565b611a26303384612502565b806000015173ffffffffffffffffffffffffffffffffffffffff166108fc349081150290604051600060405180830381858888f19350505050158015611a70573d6000803e3d6000fd5b505050565b600181815481101515611a8457fe5b906000526020600020016000915090505481565b6000809054906101000a900473ffffffffffffffffffffffffffffffffffffffff1673ffffffffffffffffffffffffffffffffffffffff163373ffffffffffffffffffffffffffffffffffffffff16141515611af357600080fd5b611b0287878787878787612754565b50505050505050565b6000600760008373ffffffffffffffffffffffffffffffffffffffff1673ffffffffffffffffffffffffffffffffffffffff168152602001908152602001600020549050919050565b611b5c61290b565b600083111515611b6b57600080fd5b611b7533836123d4565b1515611b8057600080fd5b6060604051908101604052803373ffffffffffffffffffffffffffffffffffffffff168152602001848152602001838152509050611bbf333084612502565b80600a600084815260200190815260200160002060008201518160000160006101000a81548173ffffffffffffffffffffffffffffffffffffffff021916908373ffffffffffffffffffffffffffffffffffffffff1602179055506020820151816001015560408201518160020155905050505050565b600460009054906101000a900473ffffffffffffffffffffffffffffffffffffffff1681565b6060611c6730611ed2565b905090565b60086020528060005260406000206000915054906101000a900473ffffffffffffffffffffffffffffffffffffffff1681565b600381815481101515611cae57fe5b9060005260206000209060080201600091509050806000015490806001015490806002015490806003018054600181600116156101000203166002900480601f016020809104026020016040519081016040528092919081815260200182805460018160011615610100020316600290048015611d6c5780601f10611d4157610100808354040283529160200191611d6c565b820191906000526020600020905b815481529060010190602001808311611d4f57829003601f168201915b5050505050908060040154908060050154908060060154908060070154905088565b6000600b80549050905090565b6040805190810160405280600281526020017f504900000000000000000000000000000000000000000000000000000000000081525081565b611ddc61290b565b611de630836123d4565b1515611df157600080fd5b600a6000838152602001908152602001600020606060405190810160405290816000820160009054906101000a900473ffffffffffffffffffffffffffffffffffffffff1673ffffffffffffffffffffffffffffffffffffffff1673ffffffffffffffffffffffffffffffffffffffff168152602001600182015481526020016002820154815250509050806000015173ffffffffffffffffffffffffffffffffffffffff163373ffffffffffffffffffffffffffffffffffffffff16141515611eba57600080fd5b611ec382612704565b611ece303384612502565b5050565b6060600060606000806000611ee687611b0b565b94506000851415611f29576000604051908082528060200260200182016040528015611f215781602001602082028038833980820191505090505b509550612015565b84604051908082528060200260200182016040528015611f585781602001602082028038833980820191505090505b509350611f63611555565b925060009150600190505b8281111515612011578673ffffffffffffffffffffffffffffffffffffffff166006600083815260200190815260200160002060009054906101000a900473ffffffffffffffffffffffffffffffffffffffff1673ffffffffffffffffffffffffffffffffffffffff16141561200457808483815181101515611fed57fe5b906020019060200201818152505081806001019250505b8080600101915050611f6e565b8395505b5050505050919050565b600073ffffffffffffffffffffffffffffffffffffffff168273ffffffffffffffffffffffffffffffffffffffff161415151561205b57600080fd5b3073ffffffffffffffffffffffffffffffffffffffff168273ffffffffffffffffffffffffffffffffffffffff161415151561209657600080fd5b6120a033826123d4565b15156120ab57600080fd5b6120b6338383612502565b5050565b6000809054906101000a900473ffffffffffffffffffffffffffffffffffffffff1681565b6002818154811015156120ee57fe5b9060005260206000209060080201600091509050806000015490806001015490806002015490806003015490806004015490806005015490806006015490806007018054600181600116156101000203166002900480601f0160208091040260200160405190810160405280929190818152602001828054600181600116156101000203166002900480156121c45780601f10612199576101008083540402835291602001916121c4565b820191906000526020600020905b8154815290600101906020018083116121a757829003601f168201915b5050505050905088565b6000809054906101000a900473ffffffffffffffffffffffffffffffffffffffff1673ffffffffffffffffffffffffffffffffffffffff163373ffffffffffffffffffffffffffffffffffffffff1614151561222957600080fd5b80600960006101000a81548173ffffffffffffffffffffffffffffffffffffffff021916908373ffffffffffffffffffffffffffffffffffffffff16021790555050565b600080600061227a61290b565b600a6000868152602001908152602001600020606060405190810160405290816000820160009054906101000a900473ffffffffffffffffffffffffffffffffffffffff1673ffffffffffffffffffffffffffffffffffffffff1673ffffffffffffffffffffffffffffffffffffffff168152602001600182015481526020016002820154815250509050806000015181602001518260400151935093509350509193909250565b600b8181548110151561233157fe5b90600052602060002090600302016000915090508060000160009054906101000a900473ffffffffffffffffffffffffffffffffffffffff16908060010154908060020154905083565b600960009054906101000a900473ffffffffffffffffffffffffffffffffffffffff1681565b60066020528060005260406000206000915054906101000a900473ffffffffffffffffffffffffffffffffffffffff1681565b60008273ffffffffffffffffffffffffffffffffffffffff166006600084815260200190815260200160002060009054906101000a900473ffffffffffffffffffffffffffffffffffffffff1673ffffffffffffffffffffffffffffffffffffffff1614905092915050565b806008600084815260200190815260200160002060006101000a81548173ffffffffffffffffffffffffffffffffffffffff021916908373ffffffffffffffffffffffffffffffffffffffff1602179055505050565b60008273ffffffffffffffffffffffffffffffffffffffff166008600084815260200190815260200160002060009054906101000a900473ffffffffffffffffffffffffffffffffffffffff1673ffffffffffffffffffffffffffffffffffffffff1614905092915050565b600760008373ffffffffffffffffffffffffffffffffffffffff1673ffffffffffffffffffffffffffffffffffffffff16815260200190815260200160002060008154809291906001019190505550816006600083815260200190815260200160002060006101000a81548173ffffffffffffffffffffffffffffffffffffffff021916908373ffffffffffffffffffffffffffffffffffffffff160217905550600073ffffffffffffffffffffffffffffffffffffffff168373ffffffffffffffffffffffffffffffffffffffff1614151561266057600760008473ffffffffffffffffffffffffffffffffffffffff1673ffffffffffffffffffffffffffffffffffffffff16815260200190815260200160002060008154809291906001900391905055506008600082815260200190815260200160002060006101000a81549073ffffffffffffffffffffffffffffffffffffffff02191690555b7fddf252ad1be2c89b69c2b068fc378daa952ba7f163c4a11628f55a4df523b3ef838383604051808473ffffffffffffffffffffffffffffffffffffffff1673ffffffffffffffffffffffffffffffffffffffff1681526020018373ffffffffffffffffffffffffffffffffffffffff1673ffffffffffffffffffffffffffffffffffffffff168152602001828152602001935050505060405180910390a1505050565b600a6000828152602001908152602001600020600080820160006101000a81549073ffffffffffffffffffffffffffffffffffffffff021916905560018201600090556002820160009055505050565b60008110158015612766575060028111155b151561277157600080fd5b60008311151561278057600080fd5b60036101006040519081016040528089815260200188815260200187815260200186815260200185815260200185815260200184815260200183815250908060018154018082558091505090600182039060005260206000209060080201600090919290919091506000820151816000015560208201518160010155604082015181600201556060820151816003019080519060200190612822929190612943565b506080820151816004015560a0820151816005015560c0820151816006015560e082015181600701555050507f4b14c55a5b2e928ebe183f5ab0740bc521a292d471cf74ce254e88f6e201fe3c848484846040518080602001858152602001848152602001838152602001828103825286818151815260200191508051906020019080838360005b838110156128c55780820151818401526020810190506128aa565b50505050905090810190601f1680156128f25780820380516001836020036101000a031916815260200191505b509550505050505060405180910390a150505050505050565b606060405190810160405280600073ffffffffffffffffffffffffffffffffffffffff16815260200160008152602001600081525090565b828054600181600116156101000203166002900490600052602060002090601f016020900481019282601f1061298457805160ff19168380011785556129b2565b828001600101855582156129b2579182015b828111156129b1578251825591602001919060010190612996565b5b5090506129bf91906129c3565b5090565b6129e591905b808211156129e15760008160009055506001016129c9565b5090565b905600a165627a7a723058208dbf58cc4c7eba84a04d502e0534d6bc1de86ea2506f5b64f596df0569eae3280029",
  "source": "pragma solidity ^0.4.25;\n\nimport \"./PZItemMarketplace.sol\";\n\ncontract PZItemFactory is PZItemMarketplace\n{\n    function createItemGroup(uint _price, uint _tokenId, uint _tokenPrice, string _itemName, uint _itemQuantity, uint _itemRarity, uint _itemType) public onlyAdmin {\n        _createItemGroup(_price, _tokenId, _tokenPrice, _itemName, _itemQuantity, _itemRarity, _itemType);\n    }\n}\n",
  "sourcePath": "/Volumes/Backup/workspace/Dave(Tron_NFT)/pizzaHero/contracts/PZItemFactory.sol",
  "compiler": {
    "name": "solc",
    "version": "0.4.25+commit.69a1e720.Emscripten.clang"
  },
  "schemaVersion": "2.0.1",
  "updatedAt": "2020-01-15T17:21:03.426Z"
}