{
  "contractName": "PZItemFactory",
  "abi": [
    {
      "constant": true,
      "inputs": [
        {
          "name": "_interfaceID",
          "type": "bytes4"
        }
      ],
      "name": "supportsInterface",
      "outputs": [
        {
          "name": "",
          "type": "bool"
        }
      ],
      "payable": false,
      "stateMutability": "view",
      "type": "function"
    },
    {
      "constant": true,
      "inputs": [],
      "name": "name",
      "outputs": [
        {
          "name": "",
          "type": "string"
        }
      ],
      "payable": false,
      "stateMutability": "view",
      "type": "function"
    },
    {
      "constant": false,
      "inputs": [
        {
          "name": "_to",
          "type": "address"
        },
        {
          "name": "_itemId",
          "type": "uint256"
        }
      ],
      "name": "approve",
      "outputs": [],
      "payable": false,
      "stateMutability": "nonpayable",
      "type": "function"
    },
    {
      "constant": true,
      "inputs": [],
      "name": "totalSupply",
      "outputs": [
        {
          "name": "",
          "type": "uint256"
        }
      ],
      "payable": false,
      "stateMutability": "view",
      "type": "function"
    },
    {
      "constant": false,
      "inputs": [
        {
          "name": "_from",
          "type": "address"
        },
        {
          "name": "_to",
          "type": "address"
        },
        {
          "name": "_itemId",
          "type": "uint256"
        }
      ],
      "name": "transferFrom",
      "outputs": [],
      "payable": false,
      "stateMutability": "nonpayable",
      "type": "function"
    },
    {
      "constant": true,
      "inputs": [],
      "name": "addrHero",
      "outputs": [
        {
          "name": "",
          "type": "address"
        }
      ],
      "payable": false,
      "stateMutability": "view",
      "type": "function"
    },
    {
      "constant": true,
      "inputs": [
        {
          "name": "_auctionId",
          "type": "uint256"
        }
      ],
      "name": "getItemAuction",
      "outputs": [
        {
          "name": "seller",
          "type": "address"
        },
        {
          "name": "price",
          "type": "uint256"
        },
        {
          "name": "itemId",
          "type": "uint256"
        }
      ],
      "payable": false,
      "stateMutability": "view",
      "type": "function"
    },
    {
      "constant": false,
      "inputs": [
        {
          "name": "_addrHero",
          "type": "address"
        }
      ],
      "name": "setHeroAddr",
      "outputs": [],
      "payable": false,
      "stateMutability": "nonpayable",
      "type": "function"
    },
    {
      "constant": true,
      "inputs": [
        {
          "name": "",
          "type": "address"
        }
      ],
      "name": "ownershipItemCount",
      "outputs": [
        {
          "name": "",
          "type": "uint256"
        }
      ],
      "payable": false,
      "stateMutability": "view",
      "type": "function"
    },
    {
      "constant": false,
      "inputs": [
        {
          "name": "_addrChest",
          "type": "address"
        }
      ],
      "name": "setChestAddr",
      "outputs": [],
      "payable": false,
      "stateMutability": "nonpayable",
      "type": "function"
    },
    {
      "constant": true,
      "inputs": [
        {
          "name": "_itemId",
          "type": "uint256"
        }
      ],
      "name": "ownerOf",
      "outputs": [
        {
          "name": "owner",
          "type": "address"
        }
      ],
      "payable": false,
      "stateMutability": "view",
      "type": "function"
    },
    {
      "constant": false,
      "inputs": [
        {
          "name": "_itemId",
          "type": "uint256"
        }
      ],
      "name": "bidAuction",
      "outputs": [],
      "payable": true,
      "stateMutability": "payable",
      "type": "function"
    },
    {
      "constant": true,
      "inputs": [
        {
          "name": "",
          "type": "uint256"
        }
      ],
      "name": "itemQuantityLimit",
      "outputs": [
        {
          "name": "",
          "type": "uint256"
        }
      ],
      "payable": false,
      "stateMutability": "view",
      "type": "function"
    },
    {
      "constant": true,
      "inputs": [
        {
          "name": "_owner",
          "type": "address"
        }
      ],
      "name": "balanceOf",
      "outputs": [
        {
          "name": "count",
          "type": "uint256"
        }
      ],
      "payable": false,
      "stateMutability": "view",
      "type": "function"
    },
    {
      "constant": false,
      "inputs": [
        {
          "name": "_price",
          "type": "uint256"
        },
        {
          "name": "_itemId",
          "type": "uint256"
        }
      ],
      "name": "addAuction",
      "outputs": [],
      "payable": false,
      "stateMutability": "nonpayable",
      "type": "function"
    },
    {
      "constant": true,
      "inputs": [],
      "name": "addrChest",
      "outputs": [
        {
          "name": "",
          "type": "address"
        }
      ],
      "payable": false,
      "stateMutability": "view",
      "type": "function"
    },
    {
      "constant": true,
      "inputs": [],
      "name": "getItemIdsOnSale",
      "outputs": [
        {
          "name": "",
          "type": "uint256[]"
        }
      ],
      "payable": false,
      "stateMutability": "view",
      "type": "function"
    },
    {
      "constant": true,
      "inputs": [
        {
          "name": "",
          "type": "uint256"
        }
      ],
      "name": "itemIndexToApproved",
      "outputs": [
        {
          "name": "",
          "type": "address"
        }
      ],
      "payable": false,
      "stateMutability": "view",
      "type": "function"
    },
    {
      "constant": true,
      "inputs": [
        {
          "name": "",
          "type": "uint256"
        }
      ],
      "name": "itemGroups",
      "outputs": [
        {
          "name": "itemName",
          "type": "string"
        },
        {
          "name": "itemQuantity",
          "type": "uint256"
        },
        {
          "name": "itemRarity",
          "type": "uint256"
        },
        {
          "name": "itemType",
          "type": "uint256"
        }
      ],
      "payable": false,
      "stateMutability": "view",
      "type": "function"
    },
    {
      "constant": true,
      "inputs": [],
      "name": "getItemAuctionCount",
      "outputs": [
        {
          "name": "",
          "type": "uint256"
        }
      ],
      "payable": false,
      "stateMutability": "view",
      "type": "function"
    },
    {
      "constant": true,
      "inputs": [],
      "name": "symbol",
      "outputs": [
        {
          "name": "",
          "type": "string"
        }
      ],
      "payable": false,
      "stateMutability": "view",
      "type": "function"
    },
    {
      "constant": false,
      "inputs": [
        {
          "name": "_itemId",
          "type": "uint256"
        }
      ],
      "name": "cancelAuction",
      "outputs": [],
      "payable": false,
      "stateMutability": "nonpayable",
      "type": "function"
    },
    {
      "constant": true,
      "inputs": [
        {
          "name": "_owner",
          "type": "address"
        }
      ],
      "name": "itemsOfOwner",
      "outputs": [
        {
          "name": "ownerItems",
          "type": "uint256[]"
        }
      ],
      "payable": false,
      "stateMutability": "view",
      "type": "function"
    },
    {
      "constant": false,
      "inputs": [
        {
          "name": "_to",
          "type": "address"
        },
        {
          "name": "_itemId",
          "type": "uint256"
        }
      ],
      "name": "transfer",
      "outputs": [],
      "payable": false,
      "stateMutability": "nonpayable",
      "type": "function"
    },
    {
      "constant": true,
      "inputs": [],
      "name": "addrAdmin",
      "outputs": [
        {
          "name": "",
          "type": "address"
        }
      ],
      "payable": false,
      "stateMutability": "view",
      "type": "function"
    },
    {
      "constant": true,
      "inputs": [
        {
          "name": "",
          "type": "uint256"
        }
      ],
      "name": "items",
      "outputs": [
        {
          "name": "itemType",
          "type": "uint256"
        },
        {
          "name": "itemRarity",
          "type": "uint256"
        },
        {
          "name": "itemGroupID",
          "type": "uint256"
        },
        {
          "name": "itemName",
          "type": "string"
        }
      ],
      "payable": false,
      "stateMutability": "view",
      "type": "function"
    },
    {
      "constant": false,
      "inputs": [
        {
          "name": "_contractAddress",
          "type": "address"
        }
      ],
      "name": "setMetadataAddress",
      "outputs": [],
      "payable": false,
      "stateMutability": "nonpayable",
      "type": "function"
    },
    {
      "constant": true,
      "inputs": [
        {
          "name": "_itemId",
          "type": "uint256"
        }
      ],
      "name": "getItemAuctionByItemId",
      "outputs": [
        {
          "name": "seller",
          "type": "address"
        },
        {
          "name": "price",
          "type": "uint256"
        },
        {
          "name": "itemId",
          "type": "uint256"
        }
      ],
      "payable": false,
      "stateMutability": "view",
      "type": "function"
    },
    {
      "constant": true,
      "inputs": [
        {
          "name": "",
          "type": "uint256"
        }
      ],
      "name": "itemAuctions",
      "outputs": [
        {
          "name": "seller",
          "type": "address"
        },
        {
          "name": "startingPrice",
          "type": "uint256"
        },
        {
          "name": "itemId",
          "type": "uint256"
        }
      ],
      "payable": false,
      "stateMutability": "view",
      "type": "function"
    },
    {
      "constant": true,
      "inputs": [],
      "name": "trc721Metadata",
      "outputs": [
        {
          "name": "",
          "type": "address"
        }
      ],
      "payable": false,
      "stateMutability": "view",
      "type": "function"
    },
    {
      "constant": true,
      "inputs": [
        {
          "name": "",
          "type": "uint256"
        }
      ],
      "name": "itemIndexToOwner",
      "outputs": [
        {
          "name": "",
          "type": "address"
        }
      ],
      "payable": false,
      "stateMutability": "view",
      "type": "function"
    },
    {
      "anonymous": false,
      "inputs": [
        {
          "indexed": false,
          "name": "from",
          "type": "address"
        },
        {
          "indexed": false,
          "name": "to",
          "type": "address"
        },
        {
          "indexed": false,
          "name": "tokenId",
          "type": "uint256"
        }
      ],
      "name": "Transfer",
      "type": "event"
    },
    {
      "anonymous": false,
      "inputs": [
        {
          "indexed": false,
          "name": "owner",
          "type": "address"
        },
        {
          "indexed": false,
          "name": "approved",
          "type": "address"
        },
        {
          "indexed": false,
          "name": "tokenId",
          "type": "uint256"
        }
      ],
      "name": "Approval",
      "type": "event"
    },
    {
      "anonymous": false,
      "inputs": [
        {
          "indexed": false,
          "name": "itmeType",
          "type": "uint256"
        },
        {
          "indexed": false,
          "name": "quantity",
          "type": "uint256"
        }
      ],
      "name": "ItemsCreated",
      "type": "event"
    },
    {
      "anonymous": false,
      "inputs": [
        {
          "indexed": false,
          "name": "itemName",
          "type": "string"
        },
        {
          "indexed": false,
          "name": "itemQuantity",
          "type": "uint256"
        },
        {
          "indexed": false,
          "name": "itemRarity",
          "type": "uint256"
        },
        {
          "indexed": false,
          "name": "itemType",
          "type": "uint256"
        }
      ],
      "name": "ItemGroupCreated",
      "type": "event"
    },
    {
      "constant": false,
      "inputs": [
        {
          "name": "_itemName",
          "type": "string"
        },
        {
          "name": "_itemQuantity",
          "type": "uint256"
        },
        {
          "name": "_itemRarity",
          "type": "uint256"
        },
        {
          "name": "_itemType",
          "type": "uint256"
        }
      ],
      "name": "createItemGroup",
      "outputs": [],
      "payable": false,
      "stateMutability": "nonpayable",
      "type": "function"
    }
  ],
  "bytecode": "0x6080604052336000806101000a81548173ffffffffffffffffffffffffffffffffffffffff021916908373ffffffffffffffffffffffffffffffffffffffff160217905550600161271090806001815401808255809150509060018203906000526020600020016000909192909190915055506001612710908060018154018082558091505090600182039060005260206000200160009091929091909150555060016127109080600181540180825580915050906001820390600052602060002001600090919290919091505550612944806100dd6000396000f300608060405260043610610196576000357c0100000000000000000000000000000000000000000000000000000000900463ffffffff16806301ffc9a71461019b57806306fdde0314610219578063095ea7b3146102c357806318160ddd1461032a57806323b872dd1461036f5780632bc9f293146103f65780633e3b0516146104675780634930068b1461050857806352270c471461059d57806353ded211146105fa5780636173a5d41461066b5780636352211e146106c857806364a7d7c71461074f578063673424481461076f57806370a08231146107ca57806373187d271461083b57806376c0b3671461088c578063792b8752146108fd57806388072700146109835780638c2a4c4f14610a0a5780639524845a14610adf57806395d89b4114610b2457806396b5a75514610bce5780639a4ca3cb14610c15578063a9059cbb14610cc7578063bfae2f0e14610d2e578063bfb231d214610d9f578063e17b25af14610e74578063e25b792914610ed1578063e8e2b0de14610f66578063f15f938814610ffb578063fe9b1a891461106c575b600080fd5b3480156101a757600080fd5b50d380156101b457600080fd5b50d280156101c157600080fd5b506101ff60048036038101908080357bffffffffffffffffffffffffffffffffffffffffffffffffffffffff191690602001909291905050506110f3565b604051808215151515815260200191505060405180910390f35b34801561022557600080fd5b50d3801561023257600080fd5b50d2801561023f57600080fd5b50610248611404565b6040518080602001828103825283818151815260200191508051906020019080838360005b8381101561028857808201518184015260208101905061026d565b50505050905090810190601f1680156102b55780820380516001836020036101000a031916815260200191505b509250505060405180910390f35b3480156102cf57600080fd5b50d380156102dc57600080fd5b50d280156102e957600080fd5b50610328600480360381019080803573ffffffffffffffffffffffffffffffffffffffff1690602001909291908035906020019092919050505061143d565b005b34801561033657600080fd5b50d3801561034357600080fd5b50d2801561035057600080fd5b506103596114ff565b6040518082815260200191505060405180910390f35b34801561037b57600080fd5b50d3801561038857600080fd5b50d2801561039557600080fd5b506103f4600480360381019080803573ffffffffffffffffffffffffffffffffffffffff169060200190929190803573ffffffffffffffffffffffffffffffffffffffff1690602001909291908035906020019092919050505061150f565b005b34801561040257600080fd5b50d3801561040f57600080fd5b50d2801561041c57600080fd5b506104256115c0565b604051808273ffffffffffffffffffffffffffffffffffffffff1673ffffffffffffffffffffffffffffffffffffffff16815260200191505060405180910390f35b34801561047357600080fd5b50d3801561048057600080fd5b50d2801561048d57600080fd5b50610506600480360381019080803590602001908201803590602001908080601f01602080910402602001604051908101604052809392919081815260200183838082843782019150505050505091929192908035906020019092919080359060200190929190803590602001909291905050506115e6565b005b34801561051457600080fd5b50d3801561052157600080fd5b50d2801561052e57600080fd5b5061054d60048036038101908080359060200190929190505050611653565b604051808473ffffffffffffffffffffffffffffffffffffffff1673ffffffffffffffffffffffffffffffffffffffff168152602001838152602001828152602001935050505060405180910390f35b3480156105a957600080fd5b50d380156105b657600080fd5b50d280156105c357600080fd5b506105f8600480360381019080803573ffffffffffffffffffffffffffffffffffffffff169060200190929190505050611712565b005b34801561060657600080fd5b50d3801561061357600080fd5b50d2801561062057600080fd5b50610655600480360381019080803573ffffffffffffffffffffffffffffffffffffffff1690602001909291905050506117ed565b6040518082815260200191505060405180910390f35b34801561067757600080fd5b50d3801561068457600080fd5b50d2801561069157600080fd5b506106c6600480360381019080803573ffffffffffffffffffffffffffffffffffffffff169060200190929190505050611805565b005b3480156106d457600080fd5b50d380156106e157600080fd5b50d280156106ee57600080fd5b5061070d600480360381019080803590602001909291905050506118e0565b604051808273ffffffffffffffffffffffffffffffffffffffff1673ffffffffffffffffffffffffffffffffffffffff16815260200191505060405180910390f35b61076d60048036038101908080359060200190929190505050611959565b005b34801561077b57600080fd5b50d3801561078857600080fd5b50d2801561079557600080fd5b506107b460048036038101908080359060200190929190505050611a8c565b6040518082815260200191505060405180910390f35b3480156107d657600080fd5b50d380156107e357600080fd5b50d280156107f057600080fd5b50610825600480360381019080803573ffffffffffffffffffffffffffffffffffffffff169060200190929190505050611aaf565b6040518082815260200191505060405180910390f35b34801561084757600080fd5b50d3801561085457600080fd5b50d2801561086157600080fd5b5061088a6004803603810190808035906020019092919080359060200190929190505050611af8565b005b34801561089857600080fd5b50d380156108a557600080fd5b50d280156108b257600080fd5b506108bb611bda565b604051808273ffffffffffffffffffffffffffffffffffffffff1673ffffffffffffffffffffffffffffffffffffffff16815260200191505060405180910390f35b34801561090957600080fd5b50d3801561091657600080fd5b50d2801561092357600080fd5b5061092c611c00565b6040518080602001828103825283818151815260200191508051906020019060200280838360005b8381101561096f578082015181840152602081019050610954565b505050509050019250505060405180910390f35b34801561098f57600080fd5b50d3801561099c57600080fd5b50d280156109a957600080fd5b506109c860048036038101908080359060200190929190505050611c10565b604051808273ffffffffffffffffffffffffffffffffffffffff1673ffffffffffffffffffffffffffffffffffffffff16815260200191505060405180910390f35b348015610a1657600080fd5b50d38015610a2357600080fd5b50d28015610a3057600080fd5b50610a4f60048036038101908080359060200190929190505050611c43565b6040518080602001858152602001848152602001838152602001828103825286818151815260200191508051906020019080838360005b83811015610aa1578082015181840152602081019050610a86565b50505050905090810190601f168015610ace5780820380516001836020036101000a031916815260200191505b509550505050505060405180910390f35b348015610aeb57600080fd5b50d38015610af857600080fd5b50d28015610b0557600080fd5b50610b0e611d1a565b6040518082815260200191505060405180910390f35b348015610b3057600080fd5b50d38015610b3d57600080fd5b50d28015610b4a57600080fd5b50610b53611d27565b6040518080602001828103825283818151815260200191508051906020019080838360005b83811015610b93578082015181840152602081019050610b78565b50505050905090810190601f168015610bc05780820380516001836020036101000a031916815260200191505b509250505060405180910390f35b348015610bda57600080fd5b50d38015610be757600080fd5b50d28015610bf457600080fd5b50610c1360048036038101908080359060200190929190505050611d60565b005b348015610c2157600080fd5b50d38015610c2e57600080fd5b50d28015610c3b57600080fd5b50610c70600480360381019080803573ffffffffffffffffffffffffffffffffffffffff169060200190929190505050611e5e565b6040518080602001828103825283818151815260200191508051906020019060200280838360005b83811015610cb3578082015181840152602081019050610c98565b505050509050019250505060405180910390f35b348015610cd357600080fd5b50d38015610ce057600080fd5b50d28015610ced57600080fd5b50610d2c600480360381019080803573ffffffffffffffffffffffffffffffffffffffff16906020019092919080359060200190929190505050611fab565b005b348015610d3a57600080fd5b50d38015610d4757600080fd5b50d28015610d5457600080fd5b50610d5d612046565b604051808273ffffffffffffffffffffffffffffffffffffffff1673ffffffffffffffffffffffffffffffffffffffff16815260200191505060405180910390f35b348015610dab57600080fd5b50d38015610db857600080fd5b50d28015610dc557600080fd5b50610de46004803603810190808035906020019092919050505061206b565b6040518085815260200184815260200183815260200180602001828103825283818151815260200191508051906020019080838360005b83811015610e36578082015181840152602081019050610e1b565b50505050905090810190601f168015610e635780820380516001836020036101000a031916815260200191505b509550505050505060405180910390f35b348015610e8057600080fd5b50d38015610e8d57600080fd5b50d28015610e9a57600080fd5b50610ecf600480360381019080803573ffffffffffffffffffffffffffffffffffffffff169060200190929190505050612142565b005b348015610edd57600080fd5b50d38015610eea57600080fd5b50d28015610ef757600080fd5b50610f16600480360381019080803590602001909291905050506121e1565b604051808473ffffffffffffffffffffffffffffffffffffffff1673ffffffffffffffffffffffffffffffffffffffff168152602001838152602001828152602001935050505060405180910390f35b348015610f7257600080fd5b50d38015610f7f57600080fd5b50d28015610f8c57600080fd5b50610fab60048036038101908080359060200190929190505050612296565b604051808473ffffffffffffffffffffffffffffffffffffffff1673ffffffffffffffffffffffffffffffffffffffff168152602001838152602001828152602001935050505060405180910390f35b34801561100757600080fd5b50d3801561101457600080fd5b50d2801561102157600080fd5b5061102a6122ef565b604051808273ffffffffffffffffffffffffffffffffffffffff1673ffffffffffffffffffffffffffffffffffffffff16815260200191505060405180910390f35b34801561107857600080fd5b50d3801561108557600080fd5b50d2801561109257600080fd5b506110b160048036038101908080359060200190929190505050612315565b604051808273ffffffffffffffffffffffffffffffffffffffff1673ffffffffffffffffffffffffffffffffffffffff16815260200191505060405180910390f35b600060405180807f737570706f727473496e74657266616365286279746573342900000000000000815250601901905060405180910390207bffffffffffffffffffffffffffffffffffffffffffffffffffffffff1916827bffffffffffffffffffffffffffffffffffffffffffffffffffffffff191614806113fd575060405180807f746f6b656e4d657461646174612875696e743235362c737472696e6729000000815250601d019050604051809103902060405180807f6974656d734f664f776e657228616464726573732900000000000000000000008152506015019050604051809103902060405180807f7472616e7366657246726f6d28616464726573732c616464726573732c75696e81526020017f74323536290000000000000000000000000000000000000000000000000000008152506025019050604051809103902060405180807f7472616e7366657228616464726573732c75696e7432353629000000000000008152506019019050604051809103902060405180807f617070726f766528616464726573732c75696e743235362900000000000000008152506018019050604051809103902060405180807f6f776e65724f662875696e7432353629000000000000000000000000000000008152506010019050604051809103902060405180807f62616c616e63654f6628616464726573732900000000000000000000000000008152506012019050604051809103902060405180807f746f74616c537570706c79282900000000000000000000000000000000000000815250600d019050604051809103902060405180807f73796d626f6c28290000000000000000000000000000000000000000000000008152506008019050604051809103902060405180807f6e616d6528290000000000000000000000000000000000000000000000000000815250600601905060405180910390201818181818181818187bffffffffffffffffffffffffffffffffffffffffffffffffffffffff1916827bffffffffffffffffffffffffffffffffffffffffffffffffffffffff1916145b9050919050565b6040805190810160405280600781526020017f505a4974656d730000000000000000000000000000000000000000000000000081525081565b6114473382612348565b151561145257600080fd5b61145c81836123b4565b7f8c5be1e5ebec7d5bd14f71427d1e84f3dd0314c0f7b2291e5b200ac8c7c3b925338383604051808473ffffffffffffffffffffffffffffffffffffffff1673ffffffffffffffffffffffffffffffffffffffff1681526020018373ffffffffffffffffffffffffffffffffffffffff1673ffffffffffffffffffffffffffffffffffffffff168152602001828152602001935050505060405180910390a15050565b6000600160028054905003905090565b600073ffffffffffffffffffffffffffffffffffffffff168273ffffffffffffffffffffffffffffffffffffffff161415151561154b57600080fd5b3073ffffffffffffffffffffffffffffffffffffffff168273ffffffffffffffffffffffffffffffffffffffff161415151561158657600080fd5b611590338261240a565b151561159b57600080fd5b6115a58382612348565b15156115b057600080fd5b6115bb838383612476565b505050565b600560009054906101000a900473ffffffffffffffffffffffffffffffffffffffff1681565b6000809054906101000a900473ffffffffffffffffffffffffffffffffffffffff1673ffffffffffffffffffffffffffffffffffffffff163373ffffffffffffffffffffffffffffffffffffffff1614151561164157600080fd5b61164d84848484612678565b50505050565b600080600061166061283b565b600b8581548110151561166f57fe5b9060005260206000209060030201606060405190810160405290816000820160009054906101000a900473ffffffffffffffffffffffffffffffffffffffff1673ffffffffffffffffffffffffffffffffffffffff1673ffffffffffffffffffffffffffffffffffffffff168152602001600182015481526020016002820154815250509050806000015181602001518260400151935093509350509193909250565b6000809054906101000a900473ffffffffffffffffffffffffffffffffffffffff1673ffffffffffffffffffffffffffffffffffffffff163373ffffffffffffffffffffffffffffffffffffffff1614151561176d57600080fd5b600073ffffffffffffffffffffffffffffffffffffffff168173ffffffffffffffffffffffffffffffffffffffff16141515156117a957600080fd5b80600560006101000a81548173ffffffffffffffffffffffffffffffffffffffff021916908373ffffffffffffffffffffffffffffffffffffffff16021790555050565b60076020528060005260406000206000915090505481565b6000809054906101000a900473ffffffffffffffffffffffffffffffffffffffff1673ffffffffffffffffffffffffffffffffffffffff163373ffffffffffffffffffffffffffffffffffffffff1614151561186057600080fd5b600073ffffffffffffffffffffffffffffffffffffffff168173ffffffffffffffffffffffffffffffffffffffff161415151561189c57600080fd5b80600460006101000a81548173ffffffffffffffffffffffffffffffffffffffff021916908373ffffffffffffffffffffffffffffffffffffffff16021790555050565b60006006600083815260200190815260200160002060009054906101000a900473ffffffffffffffffffffffffffffffffffffffff169050600073ffffffffffffffffffffffffffffffffffffffff168173ffffffffffffffffffffffffffffffffffffffff161415151561195457600080fd5b919050565b61196161283b565b61196b3083612348565b151561197657600080fd5b600a6000838152602001908152602001600020606060405190810160405290816000820160009054906101000a900473ffffffffffffffffffffffffffffffffffffffff1673ffffffffffffffffffffffffffffffffffffffff1673ffffffffffffffffffffffffffffffffffffffff168152602001600182015481526020016002820154815250509050611a0b3383612348565b151515611a1757600080fd5b348160200151141515611a2957600080fd5b611a32826127eb565b611a3d303384612476565b806000015173ffffffffffffffffffffffffffffffffffffffff166108fc349081150290604051600060405180830381858888f19350505050158015611a87573d6000803e3d6000fd5b505050565b600181815481101515611a9b57fe5b906000526020600020016000915090505481565b6000600760008373ffffffffffffffffffffffffffffffffffffffff1673ffffffffffffffffffffffffffffffffffffffff168152602001908152602001600020549050919050565b611b0061283b565b600083111515611b0f57600080fd5b611b193383612348565b1515611b2457600080fd5b6060604051908101604052803373ffffffffffffffffffffffffffffffffffffffff168152602001848152602001838152509050611b63333084612476565b80600a600084815260200190815260200160002060008201518160000160006101000a81548173ffffffffffffffffffffffffffffffffffffffff021916908373ffffffffffffffffffffffffffffffffffffffff1602179055506020820151816001015560408201518160020155905050505050565b600460009054906101000a900473ffffffffffffffffffffffffffffffffffffffff1681565b6060611c0b30611e5e565b905090565b60086020528060005260406000206000915054906101000a900473ffffffffffffffffffffffffffffffffffffffff1681565b600381815481101515611c5257fe5b9060005260206000209060040201600091509050806000018054600181600116156101000203166002900480601f016020809104026020016040519081016040528092919081815260200182805460018160011615610100020316600290048015611cfe5780601f10611cd357610100808354040283529160200191611cfe565b820191906000526020600020905b815481529060010190602001808311611ce157829003601f168201915b5050505050908060010154908060020154908060030154905084565b6000600b80549050905090565b6040805190810160405280600281526020017f504900000000000000000000000000000000000000000000000000000000000081525081565b611d6861283b565b611d723083612348565b1515611d7d57600080fd5b600a6000838152602001908152602001600020606060405190810160405290816000820160009054906101000a900473ffffffffffffffffffffffffffffffffffffffff1673ffffffffffffffffffffffffffffffffffffffff1673ffffffffffffffffffffffffffffffffffffffff168152602001600182015481526020016002820154815250509050806000015173ffffffffffffffffffffffffffffffffffffffff163373ffffffffffffffffffffffffffffffffffffffff16141515611e4657600080fd5b611e4f826127eb565b611e5a303384612476565b5050565b6060600060606000806000611e7287611aaf565b94506000851415611eb5576000604051908082528060200260200182016040528015611ead5781602001602082028038833980820191505090505b509550611fa1565b84604051908082528060200260200182016040528015611ee45781602001602082028038833980820191505090505b509350611eef6114ff565b925060009150600190505b8281111515611f9d578673ffffffffffffffffffffffffffffffffffffffff166006600083815260200190815260200160002060009054906101000a900473ffffffffffffffffffffffffffffffffffffffff1673ffffffffffffffffffffffffffffffffffffffff161415611f9057808483815181101515611f7957fe5b906020019060200201818152505081806001019250505b8080600101915050611efa565b8395505b5050505050919050565b600073ffffffffffffffffffffffffffffffffffffffff168273ffffffffffffffffffffffffffffffffffffffff1614151515611fe757600080fd5b3073ffffffffffffffffffffffffffffffffffffffff168273ffffffffffffffffffffffffffffffffffffffff161415151561202257600080fd5b61202c3382612348565b151561203757600080fd5b612042338383612476565b5050565b6000809054906101000a900473ffffffffffffffffffffffffffffffffffffffff1681565b60028181548110151561207a57fe5b9060005260206000209060040201600091509050806000015490806001015490806002015490806003018054600181600116156101000203166002900480601f0160208091040260200160405190810160405280929190818152602001828054600181600116156101000203166002900480156121385780601f1061210d57610100808354040283529160200191612138565b820191906000526020600020905b81548152906001019060200180831161211b57829003601f168201915b5050505050905084565b6000809054906101000a900473ffffffffffffffffffffffffffffffffffffffff1673ffffffffffffffffffffffffffffffffffffffff163373ffffffffffffffffffffffffffffffffffffffff1614151561219d57600080fd5b80600960006101000a81548173ffffffffffffffffffffffffffffffffffffffff021916908373ffffffffffffffffffffffffffffffffffffffff16021790555050565b60008060006121ee61283b565b600a6000868152602001908152602001600020606060405190810160405290816000820160009054906101000a900473ffffffffffffffffffffffffffffffffffffffff1673ffffffffffffffffffffffffffffffffffffffff1673ffffffffffffffffffffffffffffffffffffffff168152602001600182015481526020016002820154815250509050806000015181602001518260400151935093509350509193909250565b600b818154811015156122a557fe5b90600052602060002090600302016000915090508060000160009054906101000a900473ffffffffffffffffffffffffffffffffffffffff16908060010154908060020154905083565b600960009054906101000a900473ffffffffffffffffffffffffffffffffffffffff1681565b60066020528060005260406000206000915054906101000a900473ffffffffffffffffffffffffffffffffffffffff1681565b60008273ffffffffffffffffffffffffffffffffffffffff166006600084815260200190815260200160002060009054906101000a900473ffffffffffffffffffffffffffffffffffffffff1673ffffffffffffffffffffffffffffffffffffffff1614905092915050565b806008600084815260200190815260200160002060006101000a81548173ffffffffffffffffffffffffffffffffffffffff021916908373ffffffffffffffffffffffffffffffffffffffff1602179055505050565b60008273ffffffffffffffffffffffffffffffffffffffff166008600084815260200190815260200160002060009054906101000a900473ffffffffffffffffffffffffffffffffffffffff1673ffffffffffffffffffffffffffffffffffffffff1614905092915050565b600760008373ffffffffffffffffffffffffffffffffffffffff1673ffffffffffffffffffffffffffffffffffffffff16815260200190815260200160002060008154809291906001019190505550816006600083815260200190815260200160002060006101000a81548173ffffffffffffffffffffffffffffffffffffffff021916908373ffffffffffffffffffffffffffffffffffffffff160217905550600073ffffffffffffffffffffffffffffffffffffffff168373ffffffffffffffffffffffffffffffffffffffff161415156125d457600760008473ffffffffffffffffffffffffffffffffffffffff1673ffffffffffffffffffffffffffffffffffffffff16815260200190815260200160002060008154809291906001900391905055506008600082815260200190815260200160002060006101000a81549073ffffffffffffffffffffffffffffffffffffffff02191690555b7fddf252ad1be2c89b69c2b068fc378daa952ba7f163c4a11628f55a4df523b3ef838383604051808473ffffffffffffffffffffffffffffffffffffffff1673ffffffffffffffffffffffffffffffffffffffff1681526020018373ffffffffffffffffffffffffffffffffffffffff1673ffffffffffffffffffffffffffffffffffffffff168152602001828152602001935050505060405180910390a1505050565b6000811015801561268a575060028111155b151561269557600080fd5b6000831115156126a457600080fd5b60036080604051908101604052808681526020018581526020018481526020018381525090806001815401808255809150509060018203906000526020600020906004020160009091929091909150600082015181600001908051906020019061270f929190612873565b506020820151816001015560408201518160020155606082015181600301555050507f4b14c55a5b2e928ebe183f5ab0740bc521a292d471cf74ce254e88f6e201fe3c848484846040518080602001858152602001848152602001838152602001828103825286818151815260200191508051906020019080838360005b838110156127a857808201518184015260208101905061278d565b50505050905090810190601f1680156127d55780820380516001836020036101000a031916815260200191505b509550505050505060405180910390a150505050565b600a6000828152602001908152602001600020600080820160006101000a81549073ffffffffffffffffffffffffffffffffffffffff021916905560018201600090556002820160009055505050565b606060405190810160405280600073ffffffffffffffffffffffffffffffffffffffff16815260200160008152602001600081525090565b828054600181600116156101000203166002900490600052602060002090601f016020900481019282601f106128b457805160ff19168380011785556128e2565b828001600101855582156128e2579182015b828111156128e15782518255916020019190600101906128c6565b5b5090506128ef91906128f3565b5090565b61291591905b808211156129115760008160009055506001016128f9565b5090565b905600a165627a7a72305820561329d2edd1ba537d5c60122368604a110e2d5e320888b416a8f6297e6f1dd20029",
  "source": "pragma solidity ^0.4.25;\n\nimport \"./PZItemMarketplace.sol\";\n\ncontract PZItemFactory is PZItemMarketplace\n{\n    function createItemGroup(string _itemName, uint _itemQuantity, uint _itemRarity, uint _itemType) public onlyAdmin {\n        _createItemGroup(_itemName, _itemQuantity, _itemRarity, _itemType);\n    }\n}\n",
  "sourcePath": "/Volumes/Backup/workspace/Dave(Tron_NFT)/pizzaHero/contracts/PZItemFactory.sol",
  "compiler": {
    "name": "solc",
    "version": "0.4.25+commit.69a1e720.Emscripten.clang"
  },
  "schemaVersion": "2.0.1",
  "updatedAt": "2020-01-09T11:58:49.396Z"
}