{
  "contractName": "PZItemOwnership",
  "abi": [
    {
      "constant": true,
      "inputs": [],
      "name": "name",
      "outputs": [
        {
          "name": "",
          "type": "string"
        }
      ],
      "payable": false,
      "stateMutability": "view",
      "type": "function"
    },
    {
      "constant": true,
      "inputs": [],
      "name": "addrHero",
      "outputs": [
        {
          "name": "",
          "type": "address"
        }
      ],
      "payable": false,
      "stateMutability": "view",
      "type": "function"
    },
    {
      "constant": false,
      "inputs": [
        {
          "name": "_addrHero",
          "type": "address"
        }
      ],
      "name": "setHeroAddr",
      "outputs": [],
      "payable": false,
      "stateMutability": "nonpayable",
      "type": "function"
    },
    {
      "constant": true,
      "inputs": [
        {
          "name": "",
          "type": "address"
        }
      ],
      "name": "ownershipItemCount",
      "outputs": [
        {
          "name": "",
          "type": "uint256"
        }
      ],
      "payable": false,
      "stateMutability": "view",
      "type": "function"
    },
    {
      "constant": false,
      "inputs": [
        {
          "name": "_addrChest",
          "type": "address"
        }
      ],
      "name": "setChestAddr",
      "outputs": [],
      "payable": false,
      "stateMutability": "nonpayable",
      "type": "function"
    },
    {
      "constant": true,
      "inputs": [
        {
          "name": "",
          "type": "uint256"
        }
      ],
      "name": "itemQuantityLimit",
      "outputs": [
        {
          "name": "",
          "type": "uint256"
        }
      ],
      "payable": false,
      "stateMutability": "view",
      "type": "function"
    },
    {
      "constant": true,
      "inputs": [],
      "name": "addrChest",
      "outputs": [
        {
          "name": "",
          "type": "address"
        }
      ],
      "payable": false,
      "stateMutability": "view",
      "type": "function"
    },
    {
      "constant": true,
      "inputs": [
        {
          "name": "",
          "type": "uint256"
        }
      ],
      "name": "itemIndexToApproved",
      "outputs": [
        {
          "name": "",
          "type": "address"
        }
      ],
      "payable": false,
      "stateMutability": "view",
      "type": "function"
    },
    {
      "constant": true,
      "inputs": [
        {
          "name": "",
          "type": "uint256"
        }
      ],
      "name": "itemGroups",
      "outputs": [
        {
          "name": "price",
          "type": "uint256"
        },
        {
          "name": "tokenId",
          "type": "uint256"
        },
        {
          "name": "tokenPrice",
          "type": "uint256"
        },
        {
          "name": "itemName",
          "type": "string"
        },
        {
          "name": "itemQuantity",
          "type": "uint256"
        },
        {
          "name": "itemTotalAmount",
          "type": "uint256"
        },
        {
          "name": "itemRarity",
          "type": "uint256"
        },
        {
          "name": "itemType",
          "type": "uint256"
        }
      ],
      "payable": false,
      "stateMutability": "view",
      "type": "function"
    },
    {
      "constant": true,
      "inputs": [],
      "name": "symbol",
      "outputs": [
        {
          "name": "",
          "type": "string"
        }
      ],
      "payable": false,
      "stateMutability": "view",
      "type": "function"
    },
    {
      "constant": true,
      "inputs": [],
      "name": "addrAdmin",
      "outputs": [
        {
          "name": "",
          "type": "address"
        }
      ],
      "payable": false,
      "stateMutability": "view",
      "type": "function"
    },
    {
      "constant": true,
      "inputs": [
        {
          "name": "",
          "type": "uint256"
        }
      ],
      "name": "items",
      "outputs": [
        {
          "name": "date",
          "type": "uint256"
        },
        {
          "name": "price",
          "type": "uint256"
        },
        {
          "name": "tokenId",
          "type": "uint256"
        },
        {
          "name": "tokenPrice",
          "type": "uint256"
        },
        {
          "name": "itemType",
          "type": "uint256"
        },
        {
          "name": "itemRarity",
          "type": "uint256"
        },
        {
          "name": "itemGroupID",
          "type": "uint256"
        },
        {
          "name": "itemName",
          "type": "string"
        }
      ],
      "payable": false,
      "stateMutability": "view",
      "type": "function"
    },
    {
      "constant": true,
      "inputs": [],
      "name": "trc721Metadata",
      "outputs": [
        {
          "name": "",
          "type": "address"
        }
      ],
      "payable": false,
      "stateMutability": "view",
      "type": "function"
    },
    {
      "constant": true,
      "inputs": [
        {
          "name": "",
          "type": "uint256"
        }
      ],
      "name": "itemIndexToOwner",
      "outputs": [
        {
          "name": "",
          "type": "address"
        }
      ],
      "payable": false,
      "stateMutability": "view",
      "type": "function"
    },
    {
      "anonymous": false,
      "inputs": [
        {
          "indexed": false,
          "name": "from",
          "type": "address"
        },
        {
          "indexed": false,
          "name": "to",
          "type": "address"
        },
        {
          "indexed": false,
          "name": "tokenId",
          "type": "uint256"
        }
      ],
      "name": "Transfer",
      "type": "event"
    },
    {
      "anonymous": false,
      "inputs": [
        {
          "indexed": false,
          "name": "owner",
          "type": "address"
        },
        {
          "indexed": false,
          "name": "approved",
          "type": "address"
        },
        {
          "indexed": false,
          "name": "tokenId",
          "type": "uint256"
        }
      ],
      "name": "Approval",
      "type": "event"
    },
    {
      "anonymous": false,
      "inputs": [
        {
          "indexed": false,
          "name": "itmeType",
          "type": "uint256"
        },
        {
          "indexed": false,
          "name": "quantity",
          "type": "uint256"
        }
      ],
      "name": "ItemsCreated",
      "type": "event"
    },
    {
      "anonymous": false,
      "inputs": [
        {
          "indexed": false,
          "name": "itemName",
          "type": "string"
        },
        {
          "indexed": false,
          "name": "itemQuantity",
          "type": "uint256"
        },
        {
          "indexed": false,
          "name": "itemRarity",
          "type": "uint256"
        },
        {
          "indexed": false,
          "name": "itemType",
          "type": "uint256"
        }
      ],
      "name": "ItemGroupCreated",
      "type": "event"
    },
    {
      "constant": true,
      "inputs": [
        {
          "name": "_interfaceID",
          "type": "bytes4"
        }
      ],
      "name": "supportsInterface",
      "outputs": [
        {
          "name": "",
          "type": "bool"
        }
      ],
      "payable": false,
      "stateMutability": "view",
      "type": "function"
    },
    {
      "constant": false,
      "inputs": [
        {
          "name": "_contractAddress",
          "type": "address"
        }
      ],
      "name": "setMetadataAddress",
      "outputs": [],
      "payable": false,
      "stateMutability": "nonpayable",
      "type": "function"
    },
    {
      "constant": true,
      "inputs": [
        {
          "name": "_owner",
          "type": "address"
        }
      ],
      "name": "balanceOf",
      "outputs": [
        {
          "name": "count",
          "type": "uint256"
        }
      ],
      "payable": false,
      "stateMutability": "view",
      "type": "function"
    },
    {
      "constant": false,
      "inputs": [
        {
          "name": "_to",
          "type": "address"
        },
        {
          "name": "_itemId",
          "type": "uint256"
        }
      ],
      "name": "transfer",
      "outputs": [],
      "payable": false,
      "stateMutability": "nonpayable",
      "type": "function"
    },
    {
      "constant": false,
      "inputs": [
        {
          "name": "_to",
          "type": "address"
        },
        {
          "name": "_itemId",
          "type": "uint256"
        }
      ],
      "name": "approve",
      "outputs": [],
      "payable": false,
      "stateMutability": "nonpayable",
      "type": "function"
    },
    {
      "constant": false,
      "inputs": [
        {
          "name": "_from",
          "type": "address"
        },
        {
          "name": "_to",
          "type": "address"
        },
        {
          "name": "_itemId",
          "type": "uint256"
        }
      ],
      "name": "transferFrom",
      "outputs": [],
      "payable": false,
      "stateMutability": "nonpayable",
      "type": "function"
    },
    {
      "constant": true,
      "inputs": [],
      "name": "totalSupply",
      "outputs": [
        {
          "name": "",
          "type": "uint256"
        }
      ],
      "payable": false,
      "stateMutability": "view",
      "type": "function"
    },
    {
      "constant": true,
      "inputs": [
        {
          "name": "_itemId",
          "type": "uint256"
        }
      ],
      "name": "ownerOf",
      "outputs": [
        {
          "name": "owner",
          "type": "address"
        }
      ],
      "payable": false,
      "stateMutability": "view",
      "type": "function"
    },
    {
      "constant": true,
      "inputs": [
        {
          "name": "_owner",
          "type": "address"
        }
      ],
      "name": "itemsOfOwner",
      "outputs": [
        {
          "name": "ownerItems",
          "type": "uint256[]"
        }
      ],
      "payable": false,
      "stateMutability": "view",
      "type": "function"
    }
  ],
  "bytecode": "0x6080604052336000806101000a81548173ffffffffffffffffffffffffffffffffffffffff021916908373ffffffffffffffffffffffffffffffffffffffff160217905550600161271090806001815401808255809150509060018203906000526020600020016000909192909190915055506001612710908060018154018082558091505090600182039060005260206000200160009091929091909150555060016127109080600181540180825580915050906001820390600052602060002001600090919290919091505550611d5c806100dd6000396000f300608060405260043610610133576000357c0100000000000000000000000000000000000000000000000000000000900463ffffffff16806301ffc9a71461013857806306fdde03146101b6578063095ea7b31461026057806318160ddd146102c757806323b872dd1461030c5780632bc9f2931461039357806352270c471461040457806353ded211146104615780636173a5d4146104d25780636352211e1461052f57806367342448146105b657806370a082311461061157806376c0b3671461068257806388072700146106f35780638c2a4c4f1461077a57806395d89b411461086b5780639a4ca3cb14610915578063a9059cbb146109c7578063bfae2f0e14610a2e578063bfb231d214610a9f578063e17b25af14610b90578063f15f938814610bed578063fe9b1a8914610c5e575b600080fd5b34801561014457600080fd5b50d3801561015157600080fd5b50d2801561015e57600080fd5b5061019c60048036038101908080357bffffffffffffffffffffffffffffffffffffffffffffffffffffffff19169060200190929190505050610ce5565b604051808215151515815260200191505060405180910390f35b3480156101c257600080fd5b50d380156101cf57600080fd5b50d280156101dc57600080fd5b506101e5610ff6565b6040518080602001828103825283818151815260200191508051906020019080838360005b8381101561022557808201518184015260208101905061020a565b50505050905090810190601f1680156102525780820380516001836020036101000a031916815260200191505b509250505060405180910390f35b34801561026c57600080fd5b50d3801561027957600080fd5b50d2801561028657600080fd5b506102c5600480360381019080803573ffffffffffffffffffffffffffffffffffffffff1690602001909291908035906020019092919050505061102f565b005b3480156102d357600080fd5b50d380156102e057600080fd5b50d280156102ed57600080fd5b506102f66110f1565b6040518082815260200191505060405180910390f35b34801561031857600080fd5b50d3801561032557600080fd5b50d2801561033257600080fd5b50610391600480360381019080803573ffffffffffffffffffffffffffffffffffffffff169060200190929190803573ffffffffffffffffffffffffffffffffffffffff16906020019092919080359060200190929190505050611101565b005b34801561039f57600080fd5b50d380156103ac57600080fd5b50d280156103b957600080fd5b506103c26111b2565b604051808273ffffffffffffffffffffffffffffffffffffffff1673ffffffffffffffffffffffffffffffffffffffff16815260200191505060405180910390f35b34801561041057600080fd5b50d3801561041d57600080fd5b50d2801561042a57600080fd5b5061045f600480360381019080803573ffffffffffffffffffffffffffffffffffffffff1690602001909291905050506111d8565b005b34801561046d57600080fd5b50d3801561047a57600080fd5b50d2801561048757600080fd5b506104bc600480360381019080803573ffffffffffffffffffffffffffffffffffffffff1690602001909291905050506112b3565b6040518082815260200191505060405180910390f35b3480156104de57600080fd5b50d380156104eb57600080fd5b50d280156104f857600080fd5b5061052d600480360381019080803573ffffffffffffffffffffffffffffffffffffffff1690602001909291905050506112cb565b005b34801561053b57600080fd5b50d3801561054857600080fd5b50d2801561055557600080fd5b50610574600480360381019080803590602001909291905050506113a6565b604051808273ffffffffffffffffffffffffffffffffffffffff1673ffffffffffffffffffffffffffffffffffffffff16815260200191505060405180910390f35b3480156105c257600080fd5b50d380156105cf57600080fd5b50d280156105dc57600080fd5b506105fb6004803603810190808035906020019092919050505061141f565b6040518082815260200191505060405180910390f35b34801561061d57600080fd5b50d3801561062a57600080fd5b50d2801561063757600080fd5b5061066c600480360381019080803573ffffffffffffffffffffffffffffffffffffffff169060200190929190505050611442565b6040518082815260200191505060405180910390f35b34801561068e57600080fd5b50d3801561069b57600080fd5b50d280156106a857600080fd5b506106b161148b565b604051808273ffffffffffffffffffffffffffffffffffffffff1673ffffffffffffffffffffffffffffffffffffffff16815260200191505060405180910390f35b3480156106ff57600080fd5b50d3801561070c57600080fd5b50d2801561071957600080fd5b50610738600480360381019080803590602001909291905050506114b1565b604051808273ffffffffffffffffffffffffffffffffffffffff1673ffffffffffffffffffffffffffffffffffffffff16815260200191505060405180910390f35b34801561078657600080fd5b50d3801561079357600080fd5b50d280156107a057600080fd5b506107bf600480360381019080803590602001909291905050506114e4565b6040518089815260200188815260200187815260200180602001868152602001858152602001848152602001838152602001828103825287818151815260200191508051906020019080838360005b8381101561082957808201518184015260208101905061080e565b50505050905090810190601f1680156108565780820380516001836020036101000a031916815260200191505b50995050505050505050505060405180910390f35b34801561087757600080fd5b50d3801561088457600080fd5b50d2801561089157600080fd5b5061089a6115d3565b6040518080602001828103825283818151815260200191508051906020019080838360005b838110156108da5780820151818401526020810190506108bf565b50505050905090810190601f1680156109075780820380516001836020036101000a031916815260200191505b509250505060405180910390f35b34801561092157600080fd5b50d3801561092e57600080fd5b50d2801561093b57600080fd5b50610970600480360381019080803573ffffffffffffffffffffffffffffffffffffffff16906020019092919050505061160c565b6040518080602001828103825283818151815260200191508051906020019060200280838360005b838110156109b3578082015181840152602081019050610998565b505050509050019250505060405180910390f35b3480156109d357600080fd5b50d380156109e057600080fd5b50d280156109ed57600080fd5b50610a2c600480360381019080803573ffffffffffffffffffffffffffffffffffffffff16906020019092919080359060200190929190505050611759565b005b348015610a3a57600080fd5b50d38015610a4757600080fd5b50d28015610a5457600080fd5b50610a5d6117f4565b604051808273ffffffffffffffffffffffffffffffffffffffff1673ffffffffffffffffffffffffffffffffffffffff16815260200191505060405180910390f35b348015610aab57600080fd5b50d38015610ab857600080fd5b50d28015610ac557600080fd5b50610ae460048036038101908080359060200190929190505050611819565b6040518089815260200188815260200187815260200186815260200185815260200184815260200183815260200180602001828103825283818151815260200191508051906020019080838360005b83811015610b4e578082015181840152602081019050610b33565b50505050905090810190601f168015610b7b5780820380516001836020036101000a031916815260200191505b50995050505050505050505060405180910390f35b348015610b9c57600080fd5b50d38015610ba957600080fd5b50d28015610bb657600080fd5b50610beb600480360381019080803573ffffffffffffffffffffffffffffffffffffffff169060200190929190505050611908565b005b348015610bf957600080fd5b50d38015610c0657600080fd5b50d28015610c1357600080fd5b50610c1c6119a7565b604051808273ffffffffffffffffffffffffffffffffffffffff1673ffffffffffffffffffffffffffffffffffffffff16815260200191505060405180910390f35b348015610c6a57600080fd5b50d38015610c7757600080fd5b50d28015610c8457600080fd5b50610ca3600480360381019080803590602001909291905050506119cd565b604051808273ffffffffffffffffffffffffffffffffffffffff1673ffffffffffffffffffffffffffffffffffffffff16815260200191505060405180910390f35b600060405180807f737570706f727473496e74657266616365286279746573342900000000000000815250601901905060405180910390207bffffffffffffffffffffffffffffffffffffffffffffffffffffffff1916827bffffffffffffffffffffffffffffffffffffffffffffffffffffffff19161480610fef575060405180807f746f6b656e4d657461646174612875696e743235362c737472696e6729000000815250601d019050604051809103902060405180807f6974656d734f664f776e657228616464726573732900000000000000000000008152506015019050604051809103902060405180807f7472616e7366657246726f6d28616464726573732c616464726573732c75696e81526020017f74323536290000000000000000000000000000000000000000000000000000008152506025019050604051809103902060405180807f7472616e7366657228616464726573732c75696e7432353629000000000000008152506019019050604051809103902060405180807f617070726f766528616464726573732c75696e743235362900000000000000008152506018019050604051809103902060405180807f6f776e65724f662875696e7432353629000000000000000000000000000000008152506010019050604051809103902060405180807f62616c616e63654f6628616464726573732900000000000000000000000000008152506012019050604051809103902060405180807f746f74616c537570706c79282900000000000000000000000000000000000000815250600d019050604051809103902060405180807f73796d626f6c28290000000000000000000000000000000000000000000000008152506008019050604051809103902060405180807f6e616d6528290000000000000000000000000000000000000000000000000000815250600601905060405180910390201818181818181818187bffffffffffffffffffffffffffffffffffffffffffffffffffffffff1916827bffffffffffffffffffffffffffffffffffffffffffffffffffffffff1916145b9050919050565b6040805190810160405280600781526020017f505a4974656d730000000000000000000000000000000000000000000000000081525081565b6110393382611a00565b151561104457600080fd5b61104e8183611a6c565b7f8c5be1e5ebec7d5bd14f71427d1e84f3dd0314c0f7b2291e5b200ac8c7c3b925338383604051808473ffffffffffffffffffffffffffffffffffffffff1673ffffffffffffffffffffffffffffffffffffffff1681526020018373ffffffffffffffffffffffffffffffffffffffff1673ffffffffffffffffffffffffffffffffffffffff168152602001828152602001935050505060405180910390a15050565b6000600160028054905003905090565b600073ffffffffffffffffffffffffffffffffffffffff168273ffffffffffffffffffffffffffffffffffffffff161415151561113d57600080fd5b3073ffffffffffffffffffffffffffffffffffffffff168273ffffffffffffffffffffffffffffffffffffffff161415151561117857600080fd5b6111823382611ac2565b151561118d57600080fd5b6111978382611a00565b15156111a257600080fd5b6111ad838383611b2e565b505050565b600560009054906101000a900473ffffffffffffffffffffffffffffffffffffffff1681565b6000809054906101000a900473ffffffffffffffffffffffffffffffffffffffff1673ffffffffffffffffffffffffffffffffffffffff163373ffffffffffffffffffffffffffffffffffffffff1614151561123357600080fd5b600073ffffffffffffffffffffffffffffffffffffffff168173ffffffffffffffffffffffffffffffffffffffff161415151561126f57600080fd5b80600560006101000a81548173ffffffffffffffffffffffffffffffffffffffff021916908373ffffffffffffffffffffffffffffffffffffffff16021790555050565b60076020528060005260406000206000915090505481565b6000809054906101000a900473ffffffffffffffffffffffffffffffffffffffff1673ffffffffffffffffffffffffffffffffffffffff163373ffffffffffffffffffffffffffffffffffffffff1614151561132657600080fd5b600073ffffffffffffffffffffffffffffffffffffffff168173ffffffffffffffffffffffffffffffffffffffff161415151561136257600080fd5b80600460006101000a81548173ffffffffffffffffffffffffffffffffffffffff021916908373ffffffffffffffffffffffffffffffffffffffff16021790555050565b60006006600083815260200190815260200160002060009054906101000a900473ffffffffffffffffffffffffffffffffffffffff169050600073ffffffffffffffffffffffffffffffffffffffff168173ffffffffffffffffffffffffffffffffffffffff161415151561141a57600080fd5b919050565b60018181548110151561142e57fe5b906000526020600020016000915090505481565b6000600760008373ffffffffffffffffffffffffffffffffffffffff1673ffffffffffffffffffffffffffffffffffffffff168152602001908152602001600020549050919050565b600460009054906101000a900473ffffffffffffffffffffffffffffffffffffffff1681565b60086020528060005260406000206000915054906101000a900473ffffffffffffffffffffffffffffffffffffffff1681565b6003818154811015156114f357fe5b9060005260206000209060080201600091509050806000015490806001015490806002015490806003018054600181600116156101000203166002900480601f0160208091040260200160405190810160405280929190818152602001828054600181600116156101000203166002900480156115b15780601f10611586576101008083540402835291602001916115b1565b820191906000526020600020905b81548152906001019060200180831161159457829003601f168201915b5050505050908060040154908060050154908060060154908060070154905088565b6040805190810160405280600281526020017f504900000000000000000000000000000000000000000000000000000000000081525081565b606060006060600080600061162087611442565b9450600085141561166357600060405190808252806020026020018201604052801561165b5781602001602082028038833980820191505090505b50955061174f565b846040519080825280602002602001820160405280156116925781602001602082028038833980820191505090505b50935061169d6110f1565b925060009150600190505b828111151561174b578673ffffffffffffffffffffffffffffffffffffffff166006600083815260200190815260200160002060009054906101000a900473ffffffffffffffffffffffffffffffffffffffff1673ffffffffffffffffffffffffffffffffffffffff16141561173e5780848381518110151561172757fe5b906020019060200201818152505081806001019250505b80806001019150506116a8565b8395505b5050505050919050565b600073ffffffffffffffffffffffffffffffffffffffff168273ffffffffffffffffffffffffffffffffffffffff161415151561179557600080fd5b3073ffffffffffffffffffffffffffffffffffffffff168273ffffffffffffffffffffffffffffffffffffffff16141515156117d057600080fd5b6117da3382611a00565b15156117e557600080fd5b6117f0338383611b2e565b5050565b6000809054906101000a900473ffffffffffffffffffffffffffffffffffffffff1681565b60028181548110151561182857fe5b9060005260206000209060080201600091509050806000015490806001015490806002015490806003015490806004015490806005015490806006015490806007018054600181600116156101000203166002900480601f0160208091040260200160405190810160405280929190818152602001828054600181600116156101000203166002900480156118fe5780601f106118d3576101008083540402835291602001916118fe565b820191906000526020600020905b8154815290600101906020018083116118e157829003601f168201915b5050505050905088565b6000809054906101000a900473ffffffffffffffffffffffffffffffffffffffff1673ffffffffffffffffffffffffffffffffffffffff163373ffffffffffffffffffffffffffffffffffffffff1614151561196357600080fd5b80600960006101000a81548173ffffffffffffffffffffffffffffffffffffffff021916908373ffffffffffffffffffffffffffffffffffffffff16021790555050565b600960009054906101000a900473ffffffffffffffffffffffffffffffffffffffff1681565b60066020528060005260406000206000915054906101000a900473ffffffffffffffffffffffffffffffffffffffff1681565b60008273ffffffffffffffffffffffffffffffffffffffff166006600084815260200190815260200160002060009054906101000a900473ffffffffffffffffffffffffffffffffffffffff1673ffffffffffffffffffffffffffffffffffffffff1614905092915050565b806008600084815260200190815260200160002060006101000a81548173ffffffffffffffffffffffffffffffffffffffff021916908373ffffffffffffffffffffffffffffffffffffffff1602179055505050565b60008273ffffffffffffffffffffffffffffffffffffffff166008600084815260200190815260200160002060009054906101000a900473ffffffffffffffffffffffffffffffffffffffff1673ffffffffffffffffffffffffffffffffffffffff1614905092915050565b600760008373ffffffffffffffffffffffffffffffffffffffff1673ffffffffffffffffffffffffffffffffffffffff16815260200190815260200160002060008154809291906001019190505550816006600083815260200190815260200160002060006101000a81548173ffffffffffffffffffffffffffffffffffffffff021916908373ffffffffffffffffffffffffffffffffffffffff160217905550600073ffffffffffffffffffffffffffffffffffffffff168373ffffffffffffffffffffffffffffffffffffffff16141515611c8c57600760008473ffffffffffffffffffffffffffffffffffffffff1673ffffffffffffffffffffffffffffffffffffffff16815260200190815260200160002060008154809291906001900391905055506008600082815260200190815260200160002060006101000a81549073ffffffffffffffffffffffffffffffffffffffff02191690555b7fddf252ad1be2c89b69c2b068fc378daa952ba7f163c4a11628f55a4df523b3ef838383604051808473ffffffffffffffffffffffffffffffffffffffff1673ffffffffffffffffffffffffffffffffffffffff1681526020018373ffffffffffffffffffffffffffffffffffffffff1673ffffffffffffffffffffffffffffffffffffffff168152602001828152602001935050505060405180910390a15050505600a165627a7a7230582094ef589914ca8562b539659a532dde30bbf0e81c13fca13ce3df84369e575abf0029",
  "source": "pragma solidity ^0.4.25;\n\nimport \"./PZItemBase.sol\";\nimport \"./TRC721.sol\";\nimport \"./TRC721Metadata.sol\";\n\ncontract PZItemOwnership is PZItemBase, TRC721\n{\n    string public constant name = \"PZItems\";\n    string public constant symbol = \"PI\";\n\n    // The contract that will return kitty metadata\n    TRC721Metadata public trc721Metadata;\n\n    bytes4 constant InterfaceSignature_TRC165 =\n        bytes4(keccak256('supportsInterface(bytes4)'));\n\n    bytes4 constant InterfaceSignature_TRC721 =\n        bytes4(keccak256('name()')) ^\n        bytes4(keccak256('symbol()')) ^\n        bytes4(keccak256('totalSupply()')) ^\n        bytes4(keccak256('balanceOf(address)')) ^\n        bytes4(keccak256('ownerOf(uint256)')) ^\n        bytes4(keccak256('approve(address,uint256)')) ^\n        bytes4(keccak256('transfer(address,uint256)')) ^\n        bytes4(keccak256('transferFrom(address,address,uint256)')) ^\n        bytes4(keccak256('itemsOfOwner(address)')) ^\n        bytes4(keccak256('tokenMetadata(uint256,string)'));\n\n    function supportsInterface(bytes4 _interfaceID) external view returns (bool)\n    {\n        return ((_interfaceID == InterfaceSignature_TRC165) || (_interfaceID == InterfaceSignature_TRC721));\n    }\n\n    /**\n    * Set Meta Data Address of TRC721\n    * @param _contractAddress                      Address of TRC721\n    *\n     */\n    function setMetadataAddress(address _contractAddress) public onlyAdmin {\n        trc721Metadata = TRC721Metadata(_contractAddress);\n    }\n\n    /**\n    * Check if the claimant owns Item\n    * @param _claimant                  Address of Claimer\n    * @param _itemId                    Item Id\n    *\n    * @return result                    The boolean result if claimant owns given Item\n    *\n     */\n    function _owns(address _claimant, uint256 _itemId) internal view returns (bool) {\n        return itemIndexToOwner[_itemId] == _claimant;\n    }\n\n    /**\n    * Check if Item is approved for Claimant\n    * @param _claimant                  Address of Claimer\n    * @param _itemId                    Item Id\n    *\n    * @return result                    The boolean result if claimant is approved for given Item\n    *\n     */\n    function _approvedFor(address _claimant, uint256 _itemId) internal view returns (bool) {\n        return itemIndexToApproved[_itemId] == _claimant;\n    }\n\n    /**\n    * Approve Item for for Claimant\n    * @param _approved                  Address of approved\n    * @param _itemId                    Item Id\n    *\n     */\n    function _approve(uint256 _itemId, address _approved) internal {\n        itemIndexToApproved[_itemId] = _approved;\n    }\n\n    /**\n    * Get Balance of Owner\n    * @return count                     Count of Items owned by Owner\n    *\n     */\n    function balanceOf(address _owner) public view returns (uint256 count) {\n        return ownershipItemCount[_owner];\n    }\n\n    /**\n    * Transfer Item\n    * @param _to                            Address of receiver\n    * @param _itemId                        Hero Id to be transferred\n    *\n     */\n    function transfer(\n        address _to,\n        uint256 _itemId\n    )\n        external\n    {\n        // Safety check to prevent against an unexpected 0x0 default.\n        require(_to != address(0x0));\n        require(_to != address(this));\n\n        require(_owns(msg.sender, _itemId));\n\n        _transfer(msg.sender, _to, _itemId);\n    }\n\n    /**\n    * Approve Item for for Claimant\n    * @param _to                        Address to be approved by item\n    * @param _itemId                    Item Id\n    *\n     */\n    function approve(\n        address _to,\n        uint256 _itemId\n    )\n        external\n    {\n        // Only an owner can grant transfer approval.\n        require(_owns(msg.sender, _itemId));\n\n        // Register the approval (replacing any previous approval).\n        _approve(_itemId, _to);\n\n        // Emit approval event.\n        emit Approval(msg.sender, _to, _itemId);\n    }\n\n    /**\n    * Transfer Item\n    * @param _from                          Address of transfer\n    * @param _to                            Address of receiver\n    * @param _itemId                        Item Id to be transferred\n    *\n     */\n    function transferFrom(\n        address _from,\n        address _to,\n        uint256 _itemId\n    )\n        external\n    {\n        require(_to != address(0x0));\n\n        require(_to != address(this));\n\n        require(_approvedFor(msg.sender, _itemId));\n        require(_owns(_from, _itemId));\n\n        _transfer(_from, _to, _itemId);\n    }\n\n    /**\n    * Get Total Supply\n    * @return count                     Total Supply of Items\n    *\n     */\n    function totalSupply() public view returns (uint) {\n        return items.length - 1;\n    }\n\n    /**\n    * Get Owner of Given Item\n    * @param _itemId                        Item Id\n    * @return owner                         Owner's address of Item id\n    *\n     */\n    function ownerOf(uint256 _itemId)\n        public\n        view\n        returns (address owner)\n    {\n        owner = itemIndexToOwner[_itemId];\n\n        require(owner != address(0x0));\n    }\n\n    /**\n    * Get Items of Owner\n    * @param _owner                         Owner's address\n    *\n    * @return ownerItems                    Owner's Items\n    *\n     */\n    function itemsOfOwner(address _owner) public view returns(uint256[] ownerItems) {\n        uint256 itemCount = balanceOf(_owner);\n\n        if (itemCount == 0) {\n            // Return an empty array\n            return new uint256[](0);\n        } else {\n            uint256[] memory result = new uint256[](itemCount);\n            uint256 totalItems = totalSupply();\n            uint256 resultIndex = 0;\n\n            uint256 itemId;\n\n            for (itemId = 1; itemId <= totalItems; itemId++) {\n                if (itemIndexToOwner[itemId] == _owner) {\n                    result[resultIndex] = itemId;\n                    resultIndex++;\n                }\n            }\n\n            return result;\n        }\n    }\n\n    function _memcpy(uint _dest, uint _src, uint _len) private pure {\n        // Copy word-length chunks while possible\n        for(; _len >= 32; _len -= 32) {\n            assembly {\n                mstore(_dest, mload(_src))\n            }\n            _dest += 32;\n            _src += 32;\n        }\n\n        // Copy remaining bytes\n        uint256 mask = 256 ** (32 - _len) - 1;\n        assembly {\n            let srcpart := and(mload(_src), not(mask))\n            let destpart := and(mload(_dest), mask)\n            mstore(_dest, or(destpart, srcpart))\n        }\n    }\n\n    function _toString(bytes32[4] _rawBytes, uint256 _stringLength) private pure returns (string) {\n        string memory outputString = new string(_stringLength);\n        uint256 outputPtr;\n        uint256 bytesPtr;\n\n        assembly {\n            outputPtr := add(outputString, 32)\n            bytesPtr := _rawBytes\n        }\n\n        _memcpy(outputPtr, bytesPtr, _stringLength);\n\n        return outputString;\n    }\n}\n",
  "sourcePath": "/Volumes/Backup/workspace/Dave(Tron_NFT)/pizzaHero/contracts/PZItemOwnership.sol",
  "compiler": {
    "name": "solc",
    "version": "0.4.25+commit.69a1e720.Emscripten.clang"
  },
  "schemaVersion": "2.0.1",
  "updatedAt": "2020-01-15T17:21:03.504Z"
}