{
  "contractName": "PZItemCore",
  "abi": [
    {
      "constant": true,
      "inputs": [
        {
          "name": "_interfaceID",
          "type": "bytes4"
        }
      ],
      "name": "supportsInterface",
      "outputs": [
        {
          "name": "",
          "type": "bool"
        }
      ],
      "payable": false,
      "stateMutability": "view",
      "type": "function"
    },
    {
      "constant": true,
      "inputs": [],
      "name": "name",
      "outputs": [
        {
          "name": "",
          "type": "string"
        }
      ],
      "payable": false,
      "stateMutability": "view",
      "type": "function"
    },
    {
      "constant": false,
      "inputs": [
        {
          "name": "_to",
          "type": "address"
        },
        {
          "name": "_itemId",
          "type": "uint256"
        }
      ],
      "name": "approve",
      "outputs": [],
      "payable": false,
      "stateMutability": "nonpayable",
      "type": "function"
    },
    {
      "constant": true,
      "inputs": [],
      "name": "totalSupply",
      "outputs": [
        {
          "name": "",
          "type": "uint256"
        }
      ],
      "payable": false,
      "stateMutability": "view",
      "type": "function"
    },
    {
      "constant": false,
      "inputs": [
        {
          "name": "_from",
          "type": "address"
        },
        {
          "name": "_to",
          "type": "address"
        },
        {
          "name": "_itemId",
          "type": "uint256"
        }
      ],
      "name": "transferFrom",
      "outputs": [],
      "payable": false,
      "stateMutability": "nonpayable",
      "type": "function"
    },
    {
      "constant": true,
      "inputs": [],
      "name": "addrHero",
      "outputs": [
        {
          "name": "",
          "type": "address"
        }
      ],
      "payable": false,
      "stateMutability": "view",
      "type": "function"
    },
    {
      "constant": true,
      "inputs": [
        {
          "name": "_auctionId",
          "type": "uint256"
        }
      ],
      "name": "getItemAuction",
      "outputs": [
        {
          "name": "seller",
          "type": "address"
        },
        {
          "name": "price",
          "type": "uint256"
        },
        {
          "name": "itemId",
          "type": "uint256"
        }
      ],
      "payable": false,
      "stateMutability": "view",
      "type": "function"
    },
    {
      "constant": false,
      "inputs": [
        {
          "name": "_addrHero",
          "type": "address"
        }
      ],
      "name": "setHeroAddr",
      "outputs": [],
      "payable": false,
      "stateMutability": "nonpayable",
      "type": "function"
    },
    {
      "constant": true,
      "inputs": [
        {
          "name": "",
          "type": "address"
        }
      ],
      "name": "ownershipItemCount",
      "outputs": [
        {
          "name": "",
          "type": "uint256"
        }
      ],
      "payable": false,
      "stateMutability": "view",
      "type": "function"
    },
    {
      "constant": false,
      "inputs": [
        {
          "name": "_addrChest",
          "type": "address"
        }
      ],
      "name": "setChestAddr",
      "outputs": [],
      "payable": false,
      "stateMutability": "nonpayable",
      "type": "function"
    },
    {
      "constant": true,
      "inputs": [
        {
          "name": "_itemId",
          "type": "uint256"
        }
      ],
      "name": "ownerOf",
      "outputs": [
        {
          "name": "owner",
          "type": "address"
        }
      ],
      "payable": false,
      "stateMutability": "view",
      "type": "function"
    },
    {
      "constant": false,
      "inputs": [
        {
          "name": "_itemId",
          "type": "uint256"
        }
      ],
      "name": "bidAuction",
      "outputs": [],
      "payable": true,
      "stateMutability": "payable",
      "type": "function"
    },
    {
      "constant": true,
      "inputs": [
        {
          "name": "",
          "type": "uint256"
        }
      ],
      "name": "itemQuantityLimit",
      "outputs": [
        {
          "name": "",
          "type": "uint256"
        }
      ],
      "payable": false,
      "stateMutability": "view",
      "type": "function"
    },
    {
      "constant": false,
      "inputs": [
        {
          "name": "_price",
          "type": "uint256"
        },
        {
          "name": "_tokenId",
          "type": "uint256"
        },
        {
          "name": "_tokenPrice",
          "type": "uint256"
        },
        {
          "name": "_itemName",
          "type": "string"
        },
        {
          "name": "_itemQuantity",
          "type": "uint256"
        },
        {
          "name": "_itemRarity",
          "type": "uint256"
        },
        {
          "name": "_itemType",
          "type": "uint256"
        }
      ],
      "name": "createItemGroup",
      "outputs": [],
      "payable": false,
      "stateMutability": "nonpayable",
      "type": "function"
    },
    {
      "constant": true,
      "inputs": [
        {
          "name": "_owner",
          "type": "address"
        }
      ],
      "name": "balanceOf",
      "outputs": [
        {
          "name": "count",
          "type": "uint256"
        }
      ],
      "payable": false,
      "stateMutability": "view",
      "type": "function"
    },
    {
      "constant": false,
      "inputs": [
        {
          "name": "_price",
          "type": "uint256"
        },
        {
          "name": "_itemId",
          "type": "uint256"
        }
      ],
      "name": "addAuction",
      "outputs": [],
      "payable": false,
      "stateMutability": "nonpayable",
      "type": "function"
    },
    {
      "constant": true,
      "inputs": [],
      "name": "addrChest",
      "outputs": [
        {
          "name": "",
          "type": "address"
        }
      ],
      "payable": false,
      "stateMutability": "view",
      "type": "function"
    },
    {
      "constant": true,
      "inputs": [],
      "name": "getItemIdsOnSale",
      "outputs": [
        {
          "name": "",
          "type": "uint256[]"
        }
      ],
      "payable": false,
      "stateMutability": "view",
      "type": "function"
    },
    {
      "constant": true,
      "inputs": [
        {
          "name": "",
          "type": "uint256"
        }
      ],
      "name": "itemIndexToApproved",
      "outputs": [
        {
          "name": "",
          "type": "address"
        }
      ],
      "payable": false,
      "stateMutability": "view",
      "type": "function"
    },
    {
      "constant": true,
      "inputs": [
        {
          "name": "",
          "type": "uint256"
        }
      ],
      "name": "itemGroups",
      "outputs": [
        {
          "name": "price",
          "type": "uint256"
        },
        {
          "name": "tokenId",
          "type": "uint256"
        },
        {
          "name": "tokenPrice",
          "type": "uint256"
        },
        {
          "name": "itemName",
          "type": "string"
        },
        {
          "name": "itemQuantity",
          "type": "uint256"
        },
        {
          "name": "itemTotalAmount",
          "type": "uint256"
        },
        {
          "name": "itemRarity",
          "type": "uint256"
        },
        {
          "name": "itemType",
          "type": "uint256"
        }
      ],
      "payable": false,
      "stateMutability": "view",
      "type": "function"
    },
    {
      "constant": true,
      "inputs": [],
      "name": "getItemAuctionCount",
      "outputs": [
        {
          "name": "",
          "type": "uint256"
        }
      ],
      "payable": false,
      "stateMutability": "view",
      "type": "function"
    },
    {
      "constant": true,
      "inputs": [],
      "name": "symbol",
      "outputs": [
        {
          "name": "",
          "type": "string"
        }
      ],
      "payable": false,
      "stateMutability": "view",
      "type": "function"
    },
    {
      "constant": false,
      "inputs": [
        {
          "name": "_itemId",
          "type": "uint256"
        }
      ],
      "name": "cancelAuction",
      "outputs": [],
      "payable": false,
      "stateMutability": "nonpayable",
      "type": "function"
    },
    {
      "constant": true,
      "inputs": [
        {
          "name": "_owner",
          "type": "address"
        }
      ],
      "name": "itemsOfOwner",
      "outputs": [
        {
          "name": "ownerItems",
          "type": "uint256[]"
        }
      ],
      "payable": false,
      "stateMutability": "view",
      "type": "function"
    },
    {
      "constant": false,
      "inputs": [
        {
          "name": "_to",
          "type": "address"
        },
        {
          "name": "_itemId",
          "type": "uint256"
        }
      ],
      "name": "transfer",
      "outputs": [],
      "payable": false,
      "stateMutability": "nonpayable",
      "type": "function"
    },
    {
      "constant": true,
      "inputs": [],
      "name": "addrAdmin",
      "outputs": [
        {
          "name": "",
          "type": "address"
        }
      ],
      "payable": false,
      "stateMutability": "view",
      "type": "function"
    },
    {
      "constant": true,
      "inputs": [
        {
          "name": "",
          "type": "uint256"
        }
      ],
      "name": "items",
      "outputs": [
        {
          "name": "date",
          "type": "uint256"
        },
        {
          "name": "price",
          "type": "uint256"
        },
        {
          "name": "tokenId",
          "type": "uint256"
        },
        {
          "name": "tokenPrice",
          "type": "uint256"
        },
        {
          "name": "itemType",
          "type": "uint256"
        },
        {
          "name": "itemRarity",
          "type": "uint256"
        },
        {
          "name": "itemGroupID",
          "type": "uint256"
        },
        {
          "name": "itemName",
          "type": "string"
        }
      ],
      "payable": false,
      "stateMutability": "view",
      "type": "function"
    },
    {
      "constant": false,
      "inputs": [
        {
          "name": "_contractAddress",
          "type": "address"
        }
      ],
      "name": "setMetadataAddress",
      "outputs": [],
      "payable": false,
      "stateMutability": "nonpayable",
      "type": "function"
    },
    {
      "constant": true,
      "inputs": [
        {
          "name": "_itemId",
          "type": "uint256"
        }
      ],
      "name": "getItemAuctionByItemId",
      "outputs": [
        {
          "name": "seller",
          "type": "address"
        },
        {
          "name": "price",
          "type": "uint256"
        },
        {
          "name": "itemId",
          "type": "uint256"
        }
      ],
      "payable": false,
      "stateMutability": "view",
      "type": "function"
    },
    {
      "constant": true,
      "inputs": [
        {
          "name": "",
          "type": "uint256"
        }
      ],
      "name": "itemAuctions",
      "outputs": [
        {
          "name": "seller",
          "type": "address"
        },
        {
          "name": "startingPrice",
          "type": "uint256"
        },
        {
          "name": "itemId",
          "type": "uint256"
        }
      ],
      "payable": false,
      "stateMutability": "view",
      "type": "function"
    },
    {
      "constant": true,
      "inputs": [],
      "name": "trc721Metadata",
      "outputs": [
        {
          "name": "",
          "type": "address"
        }
      ],
      "payable": false,
      "stateMutability": "view",
      "type": "function"
    },
    {
      "constant": true,
      "inputs": [
        {
          "name": "",
          "type": "uint256"
        }
      ],
      "name": "itemIndexToOwner",
      "outputs": [
        {
          "name": "",
          "type": "address"
        }
      ],
      "payable": false,
      "stateMutability": "view",
      "type": "function"
    },
    {
      "inputs": [
        {
          "name": "_pool",
          "type": "address"
        }
      ],
      "payable": false,
      "stateMutability": "nonpayable",
      "type": "constructor"
    },
    {
      "anonymous": false,
      "inputs": [
        {
          "indexed": false,
          "name": "from",
          "type": "address"
        },
        {
          "indexed": false,
          "name": "to",
          "type": "address"
        },
        {
          "indexed": false,
          "name": "tokenId",
          "type": "uint256"
        }
      ],
      "name": "Transfer",
      "type": "event"
    },
    {
      "anonymous": false,
      "inputs": [
        {
          "indexed": false,
          "name": "owner",
          "type": "address"
        },
        {
          "indexed": false,
          "name": "approved",
          "type": "address"
        },
        {
          "indexed": false,
          "name": "tokenId",
          "type": "uint256"
        }
      ],
      "name": "Approval",
      "type": "event"
    },
    {
      "anonymous": false,
      "inputs": [
        {
          "indexed": false,
          "name": "itmeType",
          "type": "uint256"
        },
        {
          "indexed": false,
          "name": "quantity",
          "type": "uint256"
        }
      ],
      "name": "ItemsCreated",
      "type": "event"
    },
    {
      "anonymous": false,
      "inputs": [
        {
          "indexed": false,
          "name": "itemName",
          "type": "string"
        },
        {
          "indexed": false,
          "name": "itemQuantity",
          "type": "uint256"
        },
        {
          "indexed": false,
          "name": "itemRarity",
          "type": "uint256"
        },
        {
          "indexed": false,
          "name": "itemType",
          "type": "uint256"
        }
      ],
      "name": "ItemGroupCreated",
      "type": "event"
    },
    {
      "constant": false,
      "inputs": [
        {
          "name": "_buyer",
          "type": "address"
        },
        {
          "name": "_itemGroupId",
          "type": "uint256"
        }
      ],
      "name": "createItemToBuyer",
      "outputs": [],
      "payable": false,
      "stateMutability": "nonpayable",
      "type": "function"
    },
    {
      "constant": false,
      "inputs": [
        {
          "name": "_pool",
          "type": "address"
        }
      ],
      "name": "setAddrPool",
      "outputs": [],
      "payable": false,
      "stateMutability": "nonpayable",
      "type": "function"
    },
    {
      "constant": false,
      "inputs": [
        {
          "name": "_itemGroupId",
          "type": "uint256"
        },
        {
          "name": "_referrer",
          "type": "address"
        },
        {
          "name": "itemAmount",
          "type": "uint256"
        },
        {
          "name": "bTrxPurchase",
          "type": "bool"
        }
      ],
      "name": "buyItems",
      "outputs": [],
      "payable": true,
      "stateMutability": "payable",
      "type": "function"
    },
    {
      "constant": false,
      "inputs": [
        {
          "name": "_to",
          "type": "address"
        },
        {
          "name": "_itemId",
          "type": "uint256"
        }
      ],
      "name": "giftItem",
      "outputs": [],
      "payable": false,
      "stateMutability": "nonpayable",
      "type": "function"
    },
    {
      "constant": true,
      "inputs": [
        {
          "name": "_id",
          "type": "uint256"
        }
      ],
      "name": "getItem",
      "outputs": [
        {
          "name": "date",
          "type": "uint256"
        },
        {
          "name": "price",
          "type": "uint256"
        },
        {
          "name": "tokenId",
          "type": "uint256"
        },
        {
          "name": "tokenPrice",
          "type": "uint256"
        },
        {
          "name": "itemType",
          "type": "uint256"
        },
        {
          "name": "itemRarity",
          "type": "uint256"
        },
        {
          "name": "itemGroupId",
          "type": "uint256"
        },
        {
          "name": "itemName",
          "type": "string"
        }
      ],
      "payable": false,
      "stateMutability": "view",
      "type": "function"
    },
    {
      "constant": true,
      "inputs": [],
      "name": "getItemGroupSupply",
      "outputs": [
        {
          "name": "",
          "type": "uint256"
        }
      ],
      "payable": false,
      "stateMutability": "view",
      "type": "function"
    },
    {
      "constant": true,
      "inputs": [
        {
          "name": "_itemGroupId",
          "type": "uint256"
        }
      ],
      "name": "getItemGroup",
      "outputs": [
        {
          "name": "price",
          "type": "uint256"
        },
        {
          "name": "tokenId",
          "type": "uint256"
        },
        {
          "name": "tokenPrice",
          "type": "uint256"
        },
        {
          "name": "itemName",
          "type": "string"
        },
        {
          "name": "itemQuantity",
          "type": "uint256"
        },
        {
          "name": "itemTotalAmount",
          "type": "uint256"
        },
        {
          "name": "itemRairty",
          "type": "uint256"
        },
        {
          "name": "itemType",
          "type": "uint256"
        }
      ],
      "payable": false,
      "stateMutability": "view",
      "type": "function"
    },
    {
      "constant": true,
      "inputs": [],
      "name": "getItemQuantity",
      "outputs": [
        {
          "name": "quantity",
          "type": "uint256"
        }
      ],
      "payable": false,
      "stateMutability": "view",
      "type": "function"
    },
    {
      "constant": true,
      "inputs": [],
      "name": "itemTest",
      "outputs": [
        {
          "name": "",
          "type": "address"
        }
      ],
      "payable": false,
      "stateMutability": "view",
      "type": "function"
    },
    {
      "constant": true,
      "inputs": [],
      "name": "isItemContract",
      "outputs": [
        {
          "name": "",
          "type": "bool"
        }
      ],
      "payable": false,
      "stateMutability": "pure",
      "type": "function"
    }
  ],
  "bytecode": "0x60806040523480156200001157600080fd5b50d380156200001f57600080fd5b50d280156200002d57600080fd5b5060405160208062004252833981018060405260208110156200004f57600080fd5b8101908080519060200190929190505050336000806101000a81548173ffffffffffffffffffffffffffffffffffffffff021916908373ffffffffffffffffffffffffffffffffffffffff160217905550600161271090806001815401808255809150509060018203906000526020600020016000909192909190915055506001612710908060018154018082558091505090600182039060005260206000200160009091929091909150555060016127109080600181540180825580915050906001820390600052602060002001600090919290919091505550600073ffffffffffffffffffffffffffffffffffffffff168173ffffffffffffffffffffffffffffffffffffffff16141515156200016757600080fd5b80600c60006101000a81548173ffffffffffffffffffffffffffffffffffffffff021916908373ffffffffffffffffffffffffffffffffffffffff1602179055505061409980620001b96000396000f3fe60806040526004361061026e576000357c01000000000000000000000000000000000000000000000000000000009004806375dba7b9116101565780639a4ca3cb116100d3578063c55ca86911610097578063c55ca86914611594578063e17b25af146115f8578063e25b792914611663578063e8e2b0de14611706578063f15f9388146117a9578063fe9b1a891461181a5761026e565b80639a4ca3cb146112aa578063a9059cbb1461136a578063bfae2f0e146113df578063bfb231d214611450578063c22b8fb21461154f5761026e565b8063880727001161011a5780638807270014610fd25780638c2a4c4f146110675780639524845a1461116657806395d89b41146111ab57806396b5a755146112555761026e565b806375dba7b914610d8a57806376c0b36714610df5578063792b875214610e665780637d4cb74e14610eec5780637fe1ad1d14610f615761026e565b806352270c47116101ef5780636352211e116101b35780636352211e14610a6257806364a7d7c714610af75780636734244814610b255780636a9faf7114610b8e57806370a0823114610cac57806373187d2714610d2b5761026e565b806352270c471461084f57806353ded211146108ba5780635461c5f9146109395780636173a5d414610982578063634c2eb6146109ed5761026e565b806318160ddd1161023657806318160ddd1461056257806323b872dd146105a75780632bc9f2931461063c5780633129e773146106ad5780634930068b146107ac5761026e565b8063019d90521461027357806301ffc9a71461037257806302bcc618146103fe57806306fdde0314610443578063095ea7b3146104ed575b600080fd5b34801561027f57600080fd5b50d3801561028c57600080fd5b50d2801561029957600080fd5b506102c6600480360360208110156102b057600080fd5b81019080803590602001909291905050506118af565b6040518089815260200188815260200187815260200180602001868152602001858152602001848152602001838152602001828103825287818151815260200191508051906020019080838360005b83811015610330578082015181840152602081019050610315565b50505050905090810190601f16801561035d5780820380516001836020036101000a031916815260200191505b50995050505050505050505060405180910390f35b34801561037e57600080fd5b50d3801561038b57600080fd5b50d2801561039857600080fd5b506103e4600480360360208110156103af57600080fd5b8101908080357bffffffffffffffffffffffffffffffffffffffffffffffffffffffff19169060200190929190505050611a1f565b604051808215151515815260200191505060405180910390f35b34801561040a57600080fd5b50d3801561041757600080fd5b50d2801561042457600080fd5b5061042d611ced565b6040518082815260200191505060405180910390f35b34801561044f57600080fd5b50d3801561045c57600080fd5b50d2801561046957600080fd5b50610472611cfa565b6040518080602001828103825283818151815260200191508051906020019080838360005b838110156104b2578082015181840152602081019050610497565b50505050905090810190601f1680156104df5780820380516001836020036101000a031916815260200191505b509250505060405180910390f35b3480156104f957600080fd5b50d3801561050657600080fd5b50d2801561051357600080fd5b506105606004803603604081101561052a57600080fd5b81019080803573ffffffffffffffffffffffffffffffffffffffff16906020019092919080359060200190929190505050611d33565b005b34801561056e57600080fd5b50d3801561057b57600080fd5b50d2801561058857600080fd5b50610591611df5565b6040518082815260200191505060405180910390f35b3480156105b357600080fd5b50d380156105c057600080fd5b50d280156105cd57600080fd5b5061063a600480360360608110156105e457600080fd5b81019080803573ffffffffffffffffffffffffffffffffffffffff169060200190929190803573ffffffffffffffffffffffffffffffffffffffff16906020019092919080359060200190929190505050611e05565b005b34801561064857600080fd5b50d3801561065557600080fd5b50d2801561066257600080fd5b5061066b611eb6565b604051808273ffffffffffffffffffffffffffffffffffffffff1673ffffffffffffffffffffffffffffffffffffffff16815260200191505060405180910390f35b3480156106b957600080fd5b50d380156106c657600080fd5b50d280156106d357600080fd5b50610700600480360360208110156106ea57600080fd5b8101908080359060200190929190505050611edc565b6040518089815260200188815260200187815260200186815260200185815260200184815260200183815260200180602001828103825283818151815260200191508051906020019080838360005b8381101561076a57808201518184015260208101905061074f565b50505050905090810190601f1680156107975780820380516001836020036101000a031916815260200191505b50995050505050505050505060405180910390f35b3480156107b857600080fd5b50d380156107c557600080fd5b50d280156107d257600080fd5b506107ff600480360360208110156107e957600080fd5b810190808035906020019092919050505061204c565b604051808473ffffffffffffffffffffffffffffffffffffffff1673ffffffffffffffffffffffffffffffffffffffff168152602001838152602001828152602001935050505060405180910390f35b34801561085b57600080fd5b50d3801561086857600080fd5b50d2801561087557600080fd5b506108b86004803603602081101561088c57600080fd5b81019080803573ffffffffffffffffffffffffffffffffffffffff16906020019092919050505061210e565b005b3480156108c657600080fd5b50d380156108d357600080fd5b50d280156108e057600080fd5b50610923600480360360208110156108f757600080fd5b81019080803573ffffffffffffffffffffffffffffffffffffffff1690602001909291905050506121e9565b6040518082815260200191505060405180910390f35b34801561094557600080fd5b50d3801561095257600080fd5b50d2801561095f57600080fd5b50610968612201565b604051808215151515815260200191505060405180910390f35b34801561098e57600080fd5b50d3801561099b57600080fd5b50d280156109a857600080fd5b506109eb600480360360208110156109bf57600080fd5b81019080803573ffffffffffffffffffffffffffffffffffffffff16906020019092919050505061220a565b005b3480156109f957600080fd5b50d38015610a0657600080fd5b50d28015610a1357600080fd5b50610a6060048036036040811015610a2a57600080fd5b81019080803573ffffffffffffffffffffffffffffffffffffffff169060200190929190803590602001909291905050506122e5565b005b348015610a6e57600080fd5b50d38015610a7b57600080fd5b50d28015610a8857600080fd5b50610ab560048036036020811015610a9f57600080fd5b8101908080359060200190929190505050612345565b604051808273ffffffffffffffffffffffffffffffffffffffff1673ffffffffffffffffffffffffffffffffffffffff16815260200191505060405180910390f35b610b2360048036036020811015610b0d57600080fd5b81019080803590602001909291905050506123be565b005b348015610b3157600080fd5b50d38015610b3e57600080fd5b50d28015610b4b57600080fd5b50610b7860048036036020811015610b6257600080fd5b81019080803590602001909291905050506124f1565b6040518082815260200191505060405180910390f35b348015610b9a57600080fd5b50d38015610ba757600080fd5b50d28015610bb457600080fd5b50610caa600480360360e0811015610bcb57600080fd5b8101908080359060200190929190803590602001909291908035906020019092919080359060200190640100000000811115610c0657600080fd5b820183602082011115610c1857600080fd5b80359060200191846001830284011164010000000083111715610c3a57600080fd5b91908080601f016020809104026020016040519081016040528093929190818152602001838380828437600081840152601f19601f820116905080830192505050505050509192919290803590602001909291908035906020019092919080359060200190929190505050612514565b005b348015610cb857600080fd5b50d38015610cc557600080fd5b50d28015610cd257600080fd5b50610d1560048036036020811015610ce957600080fd5b81019080803573ffffffffffffffffffffffffffffffffffffffff169060200190929190505050612587565b6040518082815260200191505060405180910390f35b348015610d3757600080fd5b50d38015610d4457600080fd5b50d28015610d5157600080fd5b50610d8860048036036040811015610d6857600080fd5b8101908080359060200190929190803590602001909291905050506125d0565b005b348015610d9657600080fd5b50d38015610da357600080fd5b50d28015610db057600080fd5b50610df360048036036020811015610dc757600080fd5b81019080803573ffffffffffffffffffffffffffffffffffffffff1690602001909291905050506126b2565b005b348015610e0157600080fd5b50d38015610e0e57600080fd5b50d28015610e1b57600080fd5b50610e2461278d565b604051808273ffffffffffffffffffffffffffffffffffffffff1673ffffffffffffffffffffffffffffffffffffffff16815260200191505060405180910390f35b348015610e7257600080fd5b50d38015610e7f57600080fd5b50d28015610e8c57600080fd5b50610e956127b3565b6040518080602001828103825283818151815260200191508051906020019060200280838360005b83811015610ed8578082015181840152602081019050610ebd565b505050509050019250505060405180910390f35b348015610ef857600080fd5b50d38015610f0557600080fd5b50d28015610f1257600080fd5b50610f5f60048036036040811015610f2957600080fd5b81019080803573ffffffffffffffffffffffffffffffffffffffff169060200190929190803590602001909291905050506127c3565b005b348015610f6d57600080fd5b50d38015610f7a57600080fd5b50d28015610f8757600080fd5b50610f90612972565b604051808273ffffffffffffffffffffffffffffffffffffffff1673ffffffffffffffffffffffffffffffffffffffff16815260200191505060405180910390f35b348015610fde57600080fd5b50d38015610feb57600080fd5b50d28015610ff857600080fd5b506110256004803603602081101561100f57600080fd5b810190808035906020019092919050505061299c565b604051808273ffffffffffffffffffffffffffffffffffffffff1673ffffffffffffffffffffffffffffffffffffffff16815260200191505060405180910390f35b34801561107357600080fd5b50d3801561108057600080fd5b50d2801561108d57600080fd5b506110ba600480360360208110156110a457600080fd5b81019080803590602001909291905050506129cf565b6040518089815260200188815260200187815260200180602001868152602001858152602001848152602001838152602001828103825287818151815260200191508051906020019080838360005b83811015611124578082015181840152602081019050611109565b50505050905090810190601f1680156111515780820380516001836020036101000a031916815260200191505b50995050505050505050505060405180910390f35b34801561117257600080fd5b50d3801561117f57600080fd5b50d2801561118c57600080fd5b50611195612abe565b6040518082815260200191505060405180910390f35b3480156111b757600080fd5b50d380156111c457600080fd5b50d280156111d157600080fd5b506111da612acb565b6040518080602001828103825283818151815260200191508051906020019080838360005b8381101561121a5780820151818401526020810190506111ff565b50505050905090810190601f1680156112475780820380516001836020036101000a031916815260200191505b509250505060405180910390f35b34801561126157600080fd5b50d3801561126e57600080fd5b50d2801561127b57600080fd5b506112a86004803603602081101561129257600080fd5b8101908080359060200190929190505050612b04565b005b3480156112b657600080fd5b50d380156112c357600080fd5b50d280156112d057600080fd5b50611313600480360360208110156112e757600080fd5b81019080803573ffffffffffffffffffffffffffffffffffffffff169060200190929190505050612c02565b6040518080602001828103825283818151815260200191508051906020019060200280838360005b8381101561135657808201518184015260208101905061133b565b505050509050019250505060405180910390f35b34801561137657600080fd5b50d3801561138357600080fd5b50d2801561139057600080fd5b506113dd600480360360408110156113a757600080fd5b81019080803573ffffffffffffffffffffffffffffffffffffffff16906020019092919080359060200190929190505050612d50565b005b3480156113eb57600080fd5b50d380156113f857600080fd5b50d2801561140557600080fd5b5061140e612deb565b604051808273ffffffffffffffffffffffffffffffffffffffff1673ffffffffffffffffffffffffffffffffffffffff16815260200191505060405180910390f35b34801561145c57600080fd5b50d3801561146957600080fd5b50d2801561147657600080fd5b506114a36004803603602081101561148d57600080fd5b8101908080359060200190929190505050612e10565b6040518089815260200188815260200187815260200186815260200185815260200184815260200183815260200180602001828103825283818151815260200191508051906020019080838360005b8381101561150d5780820151818401526020810190506114f2565b50505050905090810190601f16801561153a5780820380516001836020036101000a031916815260200191505b50995050505050505050505060405180910390f35b34801561155b57600080fd5b50d3801561156857600080fd5b50d2801561157557600080fd5b5061157e612eff565b6040518082815260200191505060405180910390f35b6115f6600480360360808110156115aa57600080fd5b8101908080359060200190929190803573ffffffffffffffffffffffffffffffffffffffff16906020019092919080359060200190929190803515159060200190929190505050612f0c565b005b34801561160457600080fd5b50d3801561161157600080fd5b50d2801561161e57600080fd5b506116616004803603602081101561163557600080fd5b81019080803573ffffffffffffffffffffffffffffffffffffffff1690602001909291905050506134d3565b005b34801561166f57600080fd5b50d3801561167c57600080fd5b50d2801561168957600080fd5b506116b6600480360360208110156116a057600080fd5b8101908080359060200190929190505050613572565b604051808473ffffffffffffffffffffffffffffffffffffffff1673ffffffffffffffffffffffffffffffffffffffff168152602001838152602001828152602001935050505060405180910390f35b34801561171257600080fd5b50d3801561171f57600080fd5b50d2801561172c57600080fd5b506117596004803603602081101561174357600080fd5b810190808035906020019092919050505061362a565b604051808473ffffffffffffffffffffffffffffffffffffffff1673ffffffffffffffffffffffffffffffffffffffff168152602001838152602001828152602001935050505060405180910390f35b3480156117b557600080fd5b50d380156117c257600080fd5b50d280156117cf57600080fd5b506117d8613683565b604051808273ffffffffffffffffffffffffffffffffffffffff1673ffffffffffffffffffffffffffffffffffffffff16815260200191505060405180910390f35b34801561182657600080fd5b50d3801561183357600080fd5b50d2801561184057600080fd5b5061186d6004803603602081101561185757600080fd5b81019080803590602001909291905050506136a9565b604051808273ffffffffffffffffffffffffffffffffffffffff1673ffffffffffffffffffffffffffffffffffffffff16815260200191505060405180910390f35b600080600060606000806000806118c4613edf565b60038a8154811015156118d357fe5b90600052602060002090600802016101006040519081016040529081600082015481526020016001820154815260200160028201548152602001600382018054600181600116156101000203166002900480601f0160208091040260200160405190810160405280929190818152602001828054600181600116156101000203166002900480156119a55780601f1061197a576101008083540402835291602001916119a5565b820191906000526020600020905b81548152906001019060200180831161198857829003601f168201915b505050505081526020016004820154815260200160058201548152602001600682015481526020016007820154815250509050806000015181602001518260400151836060015184608001518560a001518660c001518760e001518494509850985098509850985098509850985050919395975091939597565b600060405180807f737570706f727473496e74657266616365286279746573342900000000000000815250601901905060405180910390207bffffffffffffffffffffffffffffffffffffffffffffffffffffffff1916827bffffffffffffffffffffffffffffffffffffffffffffffffffffffff19161480611ce6575060405180807f746f6b656e4d657461646174612875696e743235362c737472696e6729000000815250601d019050604051809103902060405180807f6974656d734f664f776e65722861646472657373290000000000000000000000815250601501905060405180910390206040518080614049602591396025019050604051809103902060405180807f7472616e7366657228616464726573732c75696e7432353629000000000000008152506019019050604051809103902060405180807f617070726f766528616464726573732c75696e743235362900000000000000008152506018019050604051809103902060405180807f6f776e65724f662875696e7432353629000000000000000000000000000000008152506010019050604051809103902060405180807f62616c616e63654f6628616464726573732900000000000000000000000000008152506012019050604051809103902060405180807f746f74616c537570706c79282900000000000000000000000000000000000000815250600d019050604051809103902060405180807f73796d626f6c28290000000000000000000000000000000000000000000000008152506008019050604051809103902060405180807f6e616d6528290000000000000000000000000000000000000000000000000000815250600601905060405180910390201818181818181818187bffffffffffffffffffffffffffffffffffffffffffffffffffffffff1916827bffffffffffffffffffffffffffffffffffffffffffffffffffffffff1916145b9050919050565b6000600280549050905090565b6040805190810160405280600781526020017f505a4974656d730000000000000000000000000000000000000000000000000081525081565b611d3d33826136dc565b1515611d4857600080fd5b611d528183613748565b7f8c5be1e5ebec7d5bd14f71427d1e84f3dd0314c0f7b2291e5b200ac8c7c3b925338383604051808473ffffffffffffffffffffffffffffffffffffffff1673ffffffffffffffffffffffffffffffffffffffff1681526020018373ffffffffffffffffffffffffffffffffffffffff1673ffffffffffffffffffffffffffffffffffffffff168152602001828152602001935050505060405180910390a15050565b6000600160028054905003905090565b600073ffffffffffffffffffffffffffffffffffffffff168273ffffffffffffffffffffffffffffffffffffffff1614151515611e4157600080fd5b3073ffffffffffffffffffffffffffffffffffffffff168273ffffffffffffffffffffffffffffffffffffffff1614151515611e7c57600080fd5b611e86338261379e565b1515611e9157600080fd5b611e9b83826136dc565b1515611ea657600080fd5b611eb183838361380a565b505050565b600560009054906101000a900473ffffffffffffffffffffffffffffffffffffffff1681565b60008060008060008060006060611ef1613f25565b60028a815481101515611f0057fe5b9060005260206000209060080201610100604051908101604052908160008201548152602001600182015481526020016002820154815260200160038201548152602001600482015481526020016005820154815260200160068201548152602001600782018054600181600116156101000203166002900480601f016020809104026020016040519081016040528092919081815260200182805460018160011615610100020316600290048015611ffa5780601f10611fcf57610100808354040283529160200191611ffa565b820191906000526020600020905b815481529060010190602001808311611fdd57829003601f168201915b5050505050815250509050806000015181602001518260400151836060015184608001518560a001518660c001518760e001518090509850985098509850985098509850985050919395975091939597565b6000806000612059613f6b565b600b8581548110151561206857fe5b9060005260206000209060030201606060405190810160405290816000820160009054906101000a900473ffffffffffffffffffffffffffffffffffffffff1673ffffffffffffffffffffffffffffffffffffffff1673ffffffffffffffffffffffffffffffffffffffff168152602001600182015481526020016002820154815250509050806000015181602001518260400151829250935093509350509193909250565b6000809054906101000a900473ffffffffffffffffffffffffffffffffffffffff1673ffffffffffffffffffffffffffffffffffffffff163373ffffffffffffffffffffffffffffffffffffffff1614151561216957600080fd5b600073ffffffffffffffffffffffffffffffffffffffff168173ffffffffffffffffffffffffffffffffffffffff16141515156121a557600080fd5b80600560006101000a81548173ffffffffffffffffffffffffffffffffffffffff021916908373ffffffffffffffffffffffffffffffffffffffff16021790555050565b60076020528060005260406000206000915090505481565b60006001905090565b6000809054906101000a900473ffffffffffffffffffffffffffffffffffffffff1673ffffffffffffffffffffffffffffffffffffffff163373ffffffffffffffffffffffffffffffffffffffff1614151561226557600080fd5b600073ffffffffffffffffffffffffffffffffffffffff168173ffffffffffffffffffffffffffffffffffffffff16141515156122a157600080fd5b80600460006101000a81548173ffffffffffffffffffffffffffffffffffffffff021916908373ffffffffffffffffffffffffffffffffffffffff16021790555050565b6122ef33826136dc565b15156122fa57600080fd5b600073ffffffffffffffffffffffffffffffffffffffff168273ffffffffffffffffffffffffffffffffffffffff161415151561233657600080fd5b61234133838361380a565b5050565b60006006600083815260200190815260200160002060009054906101000a900473ffffffffffffffffffffffffffffffffffffffff169050600073ffffffffffffffffffffffffffffffffffffffff168173ffffffffffffffffffffffffffffffffffffffff16141515156123b957600080fd5b919050565b6123c830826136dc565b15156123d357600080fd5b6123db613f6b565b600a6000838152602001908152602001600020606060405190810160405290816000820160009054906101000a900473ffffffffffffffffffffffffffffffffffffffff1673ffffffffffffffffffffffffffffffffffffffff1673ffffffffffffffffffffffffffffffffffffffff16815260200160018201548152602001600282015481525050905061247033836136dc565b15151561247c57600080fd5b34816020015114151561248e57600080fd5b61249782613a0c565b6124a230338461380a565b806000015173ffffffffffffffffffffffffffffffffffffffff166108fc349081150290604051600060405180830381858888f193505050501580156124ec573d6000803e3d6000fd5b505050565b60018181548110151561250057fe5b906000526020600020016000915090505481565b6000809054906101000a900473ffffffffffffffffffffffffffffffffffffffff1673ffffffffffffffffffffffffffffffffffffffff163373ffffffffffffffffffffffffffffffffffffffff1614151561256f57600080fd5b61257e87878787878787613a5c565b50505050505050565b6000600760008373ffffffffffffffffffffffffffffffffffffffff1673ffffffffffffffffffffffffffffffffffffffff168152602001908152602001600020549050919050565b6000821115156125df57600080fd5b6125e933826136dc565b15156125f457600080fd5b6125fc613f6b565b6060604051908101604052803373ffffffffffffffffffffffffffffffffffffffff16815260200184815260200183815250905061263b33308461380a565b80600a600084815260200190815260200160002060008201518160000160006101000a81548173ffffffffffffffffffffffffffffffffffffffff021916908373ffffffffffffffffffffffffffffffffffffffff1602179055506020820151816001015560408201518160020155905050505050565b6000809054906101000a900473ffffffffffffffffffffffffffffffffffffffff1673ffffffffffffffffffffffffffffffffffffffff163373ffffffffffffffffffffffffffffffffffffffff1614151561270d57600080fd5b600073ffffffffffffffffffffffffffffffffffffffff168173ffffffffffffffffffffffffffffffffffffffff161415151561274957600080fd5b80600c60006101000a81548173ffffffffffffffffffffffffffffffffffffffff021916908373ffffffffffffffffffffffffffffffffffffffff16021790555050565b600460009054906101000a900473ffffffffffffffffffffffffffffffffffffffff1681565b60606127be30612c02565b905090565b600460009054906101000a900473ffffffffffffffffffffffffffffffffffffffff1673ffffffffffffffffffffffffffffffffffffffff163373ffffffffffffffffffffffffffffffffffffffff1614151561281f57600080fd5b612827613edf565b60038281548110151561283657fe5b90600052602060002090600802016101006040519081016040529081600082015481526020016001820154815260200160028201548152602001600382018054600181600116156101000203166002900480601f0160208091040260200160405190810160405280929190818152602001828054600181600116156101000203166002900480156129085780601f106128dd57610100808354040283529160200191612908565b820191906000526020600020905b8154815290600101906020018083116128eb57829003601f168201915b50505050508152602001600482015481526020016005820154815260200160068201548152602001600782015481525050905061296483428360000151846020015185604001518660e001518760c00151898960600151613c13565b61296d82613d64565b505050565b6000600460009054906101000a900473ffffffffffffffffffffffffffffffffffffffff16905090565b60086020528060005260406000206000915054906101000a900473ffffffffffffffffffffffffffffffffffffffff1681565b6003818154811015156129de57fe5b9060005260206000209060080201600091509050806000015490806001015490806002015490806003018054600181600116156101000203166002900480601f016020809104026020016040519081016040528092919081815260200182805460018160011615610100020316600290048015612a9c5780601f10612a7157610100808354040283529160200191612a9c565b820191906000526020600020905b815481529060010190602001808311612a7f57829003601f168201915b5050505050908060040154908060050154908060060154908060070154905088565b6000600b80549050905090565b6040805190810160405280600281526020017f504900000000000000000000000000000000000000000000000000000000000081525081565b612b0e30826136dc565b1515612b1957600080fd5b612b21613f6b565b600a6000838152602001908152602001600020606060405190810160405290816000820160009054906101000a900473ffffffffffffffffffffffffffffffffffffffff1673ffffffffffffffffffffffffffffffffffffffff1673ffffffffffffffffffffffffffffffffffffffff168152602001600182015481526020016002820154815250509050806000015173ffffffffffffffffffffffffffffffffffffffff163373ffffffffffffffffffffffffffffffffffffffff16141515612bea57600080fd5b612bf382613a0c565b612bfe30338461380a565b5050565b60606000612c0f83612587565b90506000811415612c53576000604051908082528060200260200182016040528015612c4a5781602001602082028038833980820191505090505b50915050612d4b565b606081604051908082528060200260200182016040528015612c845781602001602082028038833980820191505090505b5090506000612c91611df5565b905060008090506000600190505b8281111515612d42578673ffffffffffffffffffffffffffffffffffffffff166006600083815260200190815260200160002060009054906101000a900473ffffffffffffffffffffffffffffffffffffffff1673ffffffffffffffffffffffffffffffffffffffff161415612d3557808483815181101515612d1e57fe5b906020019060200201818152505081806001019250505b8080600101915050612c9f565b83955050505050505b919050565b600073ffffffffffffffffffffffffffffffffffffffff168273ffffffffffffffffffffffffffffffffffffffff1614151515612d8c57600080fd5b3073ffffffffffffffffffffffffffffffffffffffff168273ffffffffffffffffffffffffffffffffffffffff1614151515612dc757600080fd5b612dd133826136dc565b1515612ddc57600080fd5b612de733838361380a565b5050565b6000809054906101000a900473ffffffffffffffffffffffffffffffffffffffff1681565b600281815481101515612e1f57fe5b9060005260206000209060080201600091509050806000015490806001015490806002015490806003015490806004015490806005015490806006015490806007018054600181600116156101000203166002900480601f016020809104026020016040519081016040528092919081815260200182805460018160011615610100020316600290048015612ef55780601f10612eca57610100808354040283529160200191612ef5565b820191906000526020600020905b815481529060010190602001808311612ed857829003601f168201915b5050505050905088565b6000600380549050905090565b612f14613edf565b600385815481101515612f2357fe5b90600052602060002090600802016101006040519081016040529081600082015481526020016001820154815260200160028201548152602001600382018054600181600116156101000203166002900480601f016020809104026020016040519081016040528092919081815260200182805460018160011615610100020316600290048015612ff55780601f10612fca57610100808354040283529160200191612ff5565b820191906000526020600020905b815481529060010190602001808311612fd857829003601f168201915b50505050508152602001600482015481526020016005820154815260200160068201548152602001600782015481525050905060008311151561303757600080fd5b8281608001511015151561304a57600080fd5b6000809050821561322f57838260000151023414151561306957600080fd5b600073ffffffffffffffffffffffffffffffffffffffff168573ffffffffffffffffffffffffffffffffffffffff161415156131e1578473ffffffffffffffffffffffffffffffffffffffff166108fc600a348115156130c557fe5b049081150290604051600060405180830381858888f193505050501580156130f1573d6000803e3d6000fd5b50600c60009054906101000a900473ffffffffffffffffffffffffffffffffffffffff1673ffffffffffffffffffffffffffffffffffffffff166108fc600a3481151561313a57fe5b049081150290604051600060405180830381858888f19350505050158015613166573d6000803e3d6000fd5b506000809054906101000a900473ffffffffffffffffffffffffffffffffffffffff1673ffffffffffffffffffffffffffffffffffffffff166108fc6002600a348115156131b057fe5b040234039081150290604051600060405180830381858888f193505050501580156131df573d6000803e3d6000fd5b505b600090505b8381101561322a5761321433428460000151856020015160008760e001518860c001518d8a60600151613c13565b61321d86613d64565b80806001019150506131e6565b6134cb565b8160200151d314151561324157600080fd5b83826040015102d214151561325557600080fd5b600073ffffffffffffffffffffffffffffffffffffffff168573ffffffffffffffffffffffffffffffffffffffff16141515613481578473ffffffffffffffffffffffffffffffffffffffff166108fc600ad28115156132b157fe5b049081150290d3801580156132c557600080fd5b5080678000000000000000111580156132dd57600080fd5b5080620f4240101580156132f057600080fd5b5060405160006040518083038185878a8ad0945050505050158015613319573d6000803e3d6000fd5b50600c60009054906101000a900473ffffffffffffffffffffffffffffffffffffffff1673ffffffffffffffffffffffffffffffffffffffff166108fc600ad281151561336257fe5b049081150290d38015801561337657600080fd5b50806780000000000000001115801561338e57600080fd5b5080620f4240101580156133a157600080fd5b5060405160006040518083038185878a8ad09450505050501580156133ca573d6000803e3d6000fd5b506000809054906101000a900473ffffffffffffffffffffffffffffffffffffffff1673ffffffffffffffffffffffffffffffffffffffff166108fc6002600ad281151561341457fe5b0402d2039081150290d38015801561342b57600080fd5b50806780000000000000001115801561344357600080fd5b5080620f42401015801561345657600080fd5b5060405160006040518083038185878a8ad094505050505015801561347f573d6000803e3d6000fd5b505b600090505b838110156134ca576134b433426000856020015186604001518760e001518860c001518d8a60600151613c13565b6134bd86613d64565b8080600101915050613486565b5b505050505050565b6000809054906101000a900473ffffffffffffffffffffffffffffffffffffffff1673ffffffffffffffffffffffffffffffffffffffff163373ffffffffffffffffffffffffffffffffffffffff1614151561352e57600080fd5b80600960006101000a81548173ffffffffffffffffffffffffffffffffffffffff021916908373ffffffffffffffffffffffffffffffffffffffff16021790555050565b600080600061357f613f6b565b600a6000868152602001908152602001600020606060405190810160405290816000820160009054906101000a900473ffffffffffffffffffffffffffffffffffffffff1673ffffffffffffffffffffffffffffffffffffffff1673ffffffffffffffffffffffffffffffffffffffff168152602001600182015481526020016002820154815250509050806000015181602001518260400151829250935093509350509193909250565b600b8181548110151561363957fe5b90600052602060002090600302016000915090508060000160009054906101000a900473ffffffffffffffffffffffffffffffffffffffff16908060010154908060020154905083565b600960009054906101000a900473ffffffffffffffffffffffffffffffffffffffff1681565b60066020528060005260406000206000915054906101000a900473ffffffffffffffffffffffffffffffffffffffff1681565b60008273ffffffffffffffffffffffffffffffffffffffff166006600084815260200190815260200160002060009054906101000a900473ffffffffffffffffffffffffffffffffffffffff1673ffffffffffffffffffffffffffffffffffffffff1614905092915050565b806008600084815260200190815260200160002060006101000a81548173ffffffffffffffffffffffffffffffffffffffff021916908373ffffffffffffffffffffffffffffffffffffffff1602179055505050565b60008273ffffffffffffffffffffffffffffffffffffffff166008600084815260200190815260200160002060009054906101000a900473ffffffffffffffffffffffffffffffffffffffff1673ffffffffffffffffffffffffffffffffffffffff1614905092915050565b600760008373ffffffffffffffffffffffffffffffffffffffff1673ffffffffffffffffffffffffffffffffffffffff16815260200190815260200160002060008154809291906001019190505550816006600083815260200190815260200160002060006101000a81548173ffffffffffffffffffffffffffffffffffffffff021916908373ffffffffffffffffffffffffffffffffffffffff160217905550600073ffffffffffffffffffffffffffffffffffffffff168373ffffffffffffffffffffffffffffffffffffffff1614151561396857600760008473ffffffffffffffffffffffffffffffffffffffff1673ffffffffffffffffffffffffffffffffffffffff16815260200190815260200160002060008154809291906001900391905055506008600082815260200190815260200160002060006101000a81549073ffffffffffffffffffffffffffffffffffffffff02191690555b7fddf252ad1be2c89b69c2b068fc378daa952ba7f163c4a11628f55a4df523b3ef838383604051808473ffffffffffffffffffffffffffffffffffffffff1673ffffffffffffffffffffffffffffffffffffffff1681526020018373ffffffffffffffffffffffffffffffffffffffff1673ffffffffffffffffffffffffffffffffffffffff168152602001828152602001935050505060405180910390a1505050565b600a6000828152602001908152602001600020600080820160006101000a81549073ffffffffffffffffffffffffffffffffffffffff021916905560018201600090556002820160009055505050565b60008110158015613a6e575060028111155b1515613a7957600080fd5b600083111515613a8857600080fd5b60036101006040519081016040528089815260200188815260200187815260200186815260200185815260200185815260200184815260200183815250908060018154018082558091505090600182039060005260206000209060080201600090919290919091506000820151816000015560208201518160010155604082015181600201556060820151816003019080519060200190613b2a929190613fa3565b506080820151816004015560a0820151816005015560c0820151816006015560e082015181600701555050507f4b14c55a5b2e928ebe183f5ab0740bc521a292d471cf74ce254e88f6e201fe3c848484846040518080602001858152602001848152602001838152602001828103825286818151815260200191508051906020019080838360005b83811015613bcd578082015181840152602081019050613bb2565b50505050905090810190601f168015613bfa5780820380516001836020036101000a031916815260200191505b509550505050505060405180910390a150505050505050565b60008410158015613c25575060028411155b1515613c3057600080fd5b600073ffffffffffffffffffffffffffffffffffffffff168973ffffffffffffffffffffffffffffffffffffffff1614151515613c6c57600080fd5b613c74613f25565b610100604051908101604052808a81526020018981526020018881526020018781526020018681526020018581526020018481526020018381525090506000600160028390806001815401808255809150509060018203906000526020600020906008020160009091929091909150600082015181600001556020820151816001015560408201518160020155606082015181600301556080820151816004015560a0820151816005015560c0820151816006015560e0820151816007019080519060200190613d45929190613fa3565b505050039050613d5760008c8361380a565b5050505050505050505050565b613d6c613edf565b600382815481101515613d7b57fe5b90600052602060002090600802016101006040519081016040529081600082015481526020016001820154815260200160028201548152602001600382018054600181600116156101000203166002900480601f016020809104026020016040519081016040528092919081815260200182805460018160011615610100020316600290048015613e4d5780601f10613e2257610100808354040283529160200191613e4d565b820191906000526020600020905b815481529060010190602001808311613e3057829003601f168201915b50505050508152602001600482015481526020016005820154815260200160068201548152602001600782015481525050905060008160800151111515613e9357600080fd5b6001600383815481101515613ea457fe5b90600052602060002090600802016004015403600383815481101515613ec657fe5b9060005260206000209060080201600401819055505050565b6101006040519081016040528060008152602001600081526020016000815260200160608152602001600081526020016000815260200160008152602001600081525090565b6101006040519081016040528060008152602001600081526020016000815260200160008152602001600081526020016000815260200160008152602001606081525090565b606060405190810160405280600073ffffffffffffffffffffffffffffffffffffffff16815260200160008152602001600081525090565b828054600181600116156101000203166002900490600052602060002090601f016020900481019282601f10613fe457805160ff1916838001178555614012565b82800160010185558215614012579182015b82811115614011578251825591602001919060010190613ff6565b5b50905061401f9190614023565b5090565b61404591905b80821115614041576000816000905550600101614029565b5090565b9056fe7472616e7366657246726f6d28616464726573732c616464726573732c75696e7432353629a165627a7a723058205334711ba4873412be99f30e4f0fa409dbd196c1e4cb5f81a1bdbae2a8363d550029",
  "source": "pragma solidity ^0.5.0;\n\nimport \"./PZItemFactory.sol\";\n\ncontract PZItemCore is PZItemFactory\n{\n    address payable private                         addrPool;\n    /**\n    * Constructor\n    *\n     */\n    constructor(address payable _pool) public\n    {\n        require(_pool != address(0x0));\n        addrPool = _pool;\n    }\n\n    /**\n    * Create Item  NFT to buyer\n    *\n    * @param _buyer                         Egg Id to gift\n    * @param _itemGroupId                   Item Group Id to create\n    *\n    */\n    function createItemToBuyer(address _buyer, uint _itemGroupId) public\n    {\n        require(msg.sender == addrChest);\n\n        ItemGroup memory _itemGroup = itemGroups[_itemGroupId];\n\n        _createItem(_buyer, now, _itemGroup.price, _itemGroup.tokenId, _itemGroup.tokenPrice, _itemGroup.itemType, _itemGroup.itemRarity, _itemGroupId, _itemGroup.itemName);\n        _decreaseQuantityOfItemGroup(_itemGroupId);\n\n    }\n\n    function setAddrPool(address payable _pool) public onlyAdmin\n    {\n        require(_pool != address(0x0));\n\n        addrPool = _pool;\n    }\n\n    function buyItems(uint _itemGroupId, address payable _referrer, uint itemAmount, bool bTrxPurchase) public payable\n    {\n        // require((block.number >= chests[_chestId].startDate) && (block.number <= chests[_chestId].endDate));\n\n        //Implementation\n        ItemGroup memory _itemGroup = itemGroups[_itemGroupId];\n        require(itemAmount > 0);\n        require(_itemGroup.itemQuantity >= itemAmount);\n\n        uint i = 0;\n\n        if (bTrxPurchase) {\n            require (msg.value == _itemGroup.price * itemAmount);\n            if (_referrer != address(0x0)) {\n                address(_referrer).transfer(msg.value / 10);\n                address(addrPool).transfer(msg.value / 10);\n                address(addrAdmin).transfer(msg.value - msg.value / 10 * 2);\n                // addrAdmin.transfer(msg.value);\n            }\n            for (i = 0; i < itemAmount; i ++) {\n                _createItem(msg.sender, now, _itemGroup.price, _itemGroup.tokenId, 0, _itemGroup.itemType, _itemGroup.itemRarity, _itemGroupId, _itemGroup.itemName);\n                _decreaseQuantityOfItemGroup(_itemGroupId);\n            }\n        } else {\n            require (msg.tokenid == _itemGroup.tokenId);\n            require (msg.tokenvalue == _itemGroup.tokenPrice * itemAmount);\n        \n            if (_referrer != address(0x0)) {\n                _referrer.transferToken(msg.tokenvalue / 10, msg.tokenid);\n                address(addrPool).transferToken(msg.tokenvalue / 10, msg.tokenid);\n                address(addrAdmin).transferToken(msg.tokenvalue - msg.tokenvalue / 10 * 2, msg.tokenid);\n            }\n            for (i = 0; i < itemAmount; i ++) {\n                _createItem(msg.sender, now, 0, _itemGroup.tokenId, _itemGroup.tokenPrice, _itemGroup.itemType, _itemGroup.itemRarity, _itemGroupId, _itemGroup.itemName);\n                _decreaseQuantityOfItemGroup(_itemGroupId);\n            }\n        }\n    }\n    /**\n    * Gift Item to other users\n    *\n    * @param _to                            address of receiver\n    * @param _itemId                        Item Id to gift\n    *\n    */\n    function giftItem(address _to, uint256 _itemId) external\n    {\n        require(_owns(msg.sender, _itemId));\n        require(_to != address(0x0));\n        _transfer(msg.sender, _to, _itemId);\n    }\n\n    /**\n    * Get Information of Item\n    * @param _id                            Item Id\n    *\n    * @return itemType                      Item Type\n    * @return itemRarity                    Item Rarity\n    * @return itemName                      Item Name\n    *\n     */\n    function getItem(uint _id) external view returns(uint date, uint price, uint tokenId, uint tokenPrice, uint itemType, uint itemRarity, uint itemGroupId, string memory itemName)\n    {\n        Item memory item = items[_id];\n        return (item.date, item.price, item.tokenId, item.tokenPrice, item.itemType, item.itemRarity, item.itemGroupID, item.itemName);\n    }\n\n    /**\n    * Get Count of ItemGroup\n    * @return length                      Count of Item Group\n    *\n     */\n    function getItemGroupSupply() external view returns(uint256) {\n        return itemGroups.length;\n    }\n\n    /**\n    * Get Information of Item Group\n    *\n    * @param _itemGroupId                           ItemGroup Id\n    *\n    * @return itemType                      Item Type\n    * @return itemRarity                    Item Rarity\n    * @return itemName                      Item Name\n    * @return itemQuantity                  Item Quantity\n    *\n     */\n    function getItemGroup(uint _itemGroupId) external view returns(uint price, uint tokenId, uint tokenPrice, string memory itemName, uint itemQuantity, uint itemTotalAmount, uint itemRairty, uint itemType) {\n        ItemGroup memory _itemGroup = itemGroups[_itemGroupId];\n        return (_itemGroup.price, _itemGroup.tokenId, _itemGroup.tokenPrice, _itemGroup.itemName, _itemGroup.itemQuantity, _itemGroup.itemTotalAmount, _itemGroup.itemRarity, _itemGroup.itemType);\n    }\n\n    /**\n    * Get Item Quantity\n    *\n    * @return itemQuantity                  Item Quantity\n    *\n     */\n    function getItemQuantity() external view returns(uint quantity)\n    {\n        return items.length;\n    }\n\n    function itemTest() external view returns (address) {\n        return addrChest;\n    }\n\n    function isItemContract() public pure returns (bool) {\n        return true;\n    }\n}\n",
  "sourcePath": "/home/ubuntu/dev/Boby/pizzaHero/contracts/PZItemCore.sol",
  "compiler": {
    "name": "solc",
    "version": "0.5.4+commit.d15a3125.mod.Emscripten.clang"
  },
  "schemaVersion": "2.0.1",
  "updatedAt": "2021-03-24T05:15:11.589Z"
}