{
  "contractName": "PZItemFactory",
  "abi": [
    {
      "constant": true,
      "inputs": [
        {
          "name": "_interfaceID",
          "type": "bytes4"
        }
      ],
      "name": "supportsInterface",
      "outputs": [
        {
          "name": "",
          "type": "bool"
        }
      ],
      "payable": false,
      "stateMutability": "view",
      "type": "function"
    },
    {
      "constant": true,
      "inputs": [],
      "name": "name",
      "outputs": [
        {
          "name": "",
          "type": "string"
        }
      ],
      "payable": false,
      "stateMutability": "view",
      "type": "function"
    },
    {
      "constant": false,
      "inputs": [
        {
          "name": "_to",
          "type": "address"
        },
        {
          "name": "_itemId",
          "type": "uint256"
        }
      ],
      "name": "approve",
      "outputs": [],
      "payable": false,
      "stateMutability": "nonpayable",
      "type": "function"
    },
    {
      "constant": true,
      "inputs": [],
      "name": "totalSupply",
      "outputs": [
        {
          "name": "",
          "type": "uint256"
        }
      ],
      "payable": false,
      "stateMutability": "view",
      "type": "function"
    },
    {
      "constant": false,
      "inputs": [
        {
          "name": "_from",
          "type": "address"
        },
        {
          "name": "_to",
          "type": "address"
        },
        {
          "name": "_itemId",
          "type": "uint256"
        }
      ],
      "name": "transferFrom",
      "outputs": [],
      "payable": false,
      "stateMutability": "nonpayable",
      "type": "function"
    },
    {
      "constant": true,
      "inputs": [],
      "name": "addrHero",
      "outputs": [
        {
          "name": "",
          "type": "address"
        }
      ],
      "payable": false,
      "stateMutability": "view",
      "type": "function"
    },
    {
      "constant": true,
      "inputs": [
        {
          "name": "_auctionId",
          "type": "uint256"
        }
      ],
      "name": "getItemAuction",
      "outputs": [
        {
          "name": "seller",
          "type": "address"
        },
        {
          "name": "price",
          "type": "uint256"
        },
        {
          "name": "itemId",
          "type": "uint256"
        }
      ],
      "payable": false,
      "stateMutability": "view",
      "type": "function"
    },
    {
      "constant": false,
      "inputs": [
        {
          "name": "_addrHero",
          "type": "address"
        }
      ],
      "name": "setHeroAddr",
      "outputs": [],
      "payable": false,
      "stateMutability": "nonpayable",
      "type": "function"
    },
    {
      "constant": true,
      "inputs": [
        {
          "name": "",
          "type": "address"
        }
      ],
      "name": "ownershipItemCount",
      "outputs": [
        {
          "name": "",
          "type": "uint256"
        }
      ],
      "payable": false,
      "stateMutability": "view",
      "type": "function"
    },
    {
      "constant": false,
      "inputs": [
        {
          "name": "_addrChest",
          "type": "address"
        }
      ],
      "name": "setChestAddr",
      "outputs": [],
      "payable": false,
      "stateMutability": "nonpayable",
      "type": "function"
    },
    {
      "constant": true,
      "inputs": [
        {
          "name": "_itemId",
          "type": "uint256"
        }
      ],
      "name": "ownerOf",
      "outputs": [
        {
          "name": "owner",
          "type": "address"
        }
      ],
      "payable": false,
      "stateMutability": "view",
      "type": "function"
    },
    {
      "constant": false,
      "inputs": [
        {
          "name": "_itemId",
          "type": "uint256"
        }
      ],
      "name": "bidAuction",
      "outputs": [],
      "payable": true,
      "stateMutability": "payable",
      "type": "function"
    },
    {
      "constant": true,
      "inputs": [
        {
          "name": "",
          "type": "uint256"
        }
      ],
      "name": "itemQuantityLimit",
      "outputs": [
        {
          "name": "",
          "type": "uint256"
        }
      ],
      "payable": false,
      "stateMutability": "view",
      "type": "function"
    },
    {
      "constant": true,
      "inputs": [
        {
          "name": "_owner",
          "type": "address"
        }
      ],
      "name": "balanceOf",
      "outputs": [
        {
          "name": "count",
          "type": "uint256"
        }
      ],
      "payable": false,
      "stateMutability": "view",
      "type": "function"
    },
    {
      "constant": false,
      "inputs": [
        {
          "name": "_price",
          "type": "uint256"
        },
        {
          "name": "_itemId",
          "type": "uint256"
        }
      ],
      "name": "addAuction",
      "outputs": [],
      "payable": false,
      "stateMutability": "nonpayable",
      "type": "function"
    },
    {
      "constant": true,
      "inputs": [],
      "name": "addrChest",
      "outputs": [
        {
          "name": "",
          "type": "address"
        }
      ],
      "payable": false,
      "stateMutability": "view",
      "type": "function"
    },
    {
      "constant": true,
      "inputs": [],
      "name": "getItemIdsOnSale",
      "outputs": [
        {
          "name": "",
          "type": "uint256[]"
        }
      ],
      "payable": false,
      "stateMutability": "view",
      "type": "function"
    },
    {
      "constant": true,
      "inputs": [
        {
          "name": "",
          "type": "uint256"
        }
      ],
      "name": "itemIndexToApproved",
      "outputs": [
        {
          "name": "",
          "type": "address"
        }
      ],
      "payable": false,
      "stateMutability": "view",
      "type": "function"
    },
    {
      "constant": true,
      "inputs": [
        {
          "name": "",
          "type": "uint256"
        }
      ],
      "name": "itemGroups",
      "outputs": [
        {
          "name": "price",
          "type": "uint256"
        },
        {
          "name": "tokenId",
          "type": "uint256"
        },
        {
          "name": "tokenPrice",
          "type": "uint256"
        },
        {
          "name": "itemName",
          "type": "string"
        },
        {
          "name": "itemQuantity",
          "type": "uint256"
        },
        {
          "name": "itemTotalAmount",
          "type": "uint256"
        },
        {
          "name": "itemRarity",
          "type": "uint256"
        },
        {
          "name": "itemType",
          "type": "uint256"
        }
      ],
      "payable": false,
      "stateMutability": "view",
      "type": "function"
    },
    {
      "constant": true,
      "inputs": [],
      "name": "getItemAuctionCount",
      "outputs": [
        {
          "name": "",
          "type": "uint256"
        }
      ],
      "payable": false,
      "stateMutability": "view",
      "type": "function"
    },
    {
      "constant": true,
      "inputs": [],
      "name": "symbol",
      "outputs": [
        {
          "name": "",
          "type": "string"
        }
      ],
      "payable": false,
      "stateMutability": "view",
      "type": "function"
    },
    {
      "constant": false,
      "inputs": [
        {
          "name": "_itemId",
          "type": "uint256"
        }
      ],
      "name": "cancelAuction",
      "outputs": [],
      "payable": false,
      "stateMutability": "nonpayable",
      "type": "function"
    },
    {
      "constant": true,
      "inputs": [
        {
          "name": "_owner",
          "type": "address"
        }
      ],
      "name": "itemsOfOwner",
      "outputs": [
        {
          "name": "ownerItems",
          "type": "uint256[]"
        }
      ],
      "payable": false,
      "stateMutability": "view",
      "type": "function"
    },
    {
      "constant": false,
      "inputs": [
        {
          "name": "_to",
          "type": "address"
        },
        {
          "name": "_itemId",
          "type": "uint256"
        }
      ],
      "name": "transfer",
      "outputs": [],
      "payable": false,
      "stateMutability": "nonpayable",
      "type": "function"
    },
    {
      "constant": true,
      "inputs": [],
      "name": "addrAdmin",
      "outputs": [
        {
          "name": "",
          "type": "address"
        }
      ],
      "payable": false,
      "stateMutability": "view",
      "type": "function"
    },
    {
      "constant": true,
      "inputs": [
        {
          "name": "",
          "type": "uint256"
        }
      ],
      "name": "items",
      "outputs": [
        {
          "name": "date",
          "type": "uint256"
        },
        {
          "name": "price",
          "type": "uint256"
        },
        {
          "name": "tokenId",
          "type": "uint256"
        },
        {
          "name": "tokenPrice",
          "type": "uint256"
        },
        {
          "name": "itemType",
          "type": "uint256"
        },
        {
          "name": "itemRarity",
          "type": "uint256"
        },
        {
          "name": "itemGroupID",
          "type": "uint256"
        },
        {
          "name": "itemName",
          "type": "string"
        }
      ],
      "payable": false,
      "stateMutability": "view",
      "type": "function"
    },
    {
      "constant": false,
      "inputs": [
        {
          "name": "_contractAddress",
          "type": "address"
        }
      ],
      "name": "setMetadataAddress",
      "outputs": [],
      "payable": false,
      "stateMutability": "nonpayable",
      "type": "function"
    },
    {
      "constant": true,
      "inputs": [
        {
          "name": "_itemId",
          "type": "uint256"
        }
      ],
      "name": "getItemAuctionByItemId",
      "outputs": [
        {
          "name": "seller",
          "type": "address"
        },
        {
          "name": "price",
          "type": "uint256"
        },
        {
          "name": "itemId",
          "type": "uint256"
        }
      ],
      "payable": false,
      "stateMutability": "view",
      "type": "function"
    },
    {
      "constant": true,
      "inputs": [
        {
          "name": "",
          "type": "uint256"
        }
      ],
      "name": "itemAuctions",
      "outputs": [
        {
          "name": "seller",
          "type": "address"
        },
        {
          "name": "startingPrice",
          "type": "uint256"
        },
        {
          "name": "itemId",
          "type": "uint256"
        }
      ],
      "payable": false,
      "stateMutability": "view",
      "type": "function"
    },
    {
      "constant": true,
      "inputs": [],
      "name": "trc721Metadata",
      "outputs": [
        {
          "name": "",
          "type": "address"
        }
      ],
      "payable": false,
      "stateMutability": "view",
      "type": "function"
    },
    {
      "constant": true,
      "inputs": [
        {
          "name": "",
          "type": "uint256"
        }
      ],
      "name": "itemIndexToOwner",
      "outputs": [
        {
          "name": "",
          "type": "address"
        }
      ],
      "payable": false,
      "stateMutability": "view",
      "type": "function"
    },
    {
      "anonymous": false,
      "inputs": [
        {
          "indexed": false,
          "name": "from",
          "type": "address"
        },
        {
          "indexed": false,
          "name": "to",
          "type": "address"
        },
        {
          "indexed": false,
          "name": "tokenId",
          "type": "uint256"
        }
      ],
      "name": "Transfer",
      "type": "event"
    },
    {
      "anonymous": false,
      "inputs": [
        {
          "indexed": false,
          "name": "owner",
          "type": "address"
        },
        {
          "indexed": false,
          "name": "approved",
          "type": "address"
        },
        {
          "indexed": false,
          "name": "tokenId",
          "type": "uint256"
        }
      ],
      "name": "Approval",
      "type": "event"
    },
    {
      "anonymous": false,
      "inputs": [
        {
          "indexed": false,
          "name": "itmeType",
          "type": "uint256"
        },
        {
          "indexed": false,
          "name": "quantity",
          "type": "uint256"
        }
      ],
      "name": "ItemsCreated",
      "type": "event"
    },
    {
      "anonymous": false,
      "inputs": [
        {
          "indexed": false,
          "name": "itemName",
          "type": "string"
        },
        {
          "indexed": false,
          "name": "itemQuantity",
          "type": "uint256"
        },
        {
          "indexed": false,
          "name": "itemRarity",
          "type": "uint256"
        },
        {
          "indexed": false,
          "name": "itemType",
          "type": "uint256"
        }
      ],
      "name": "ItemGroupCreated",
      "type": "event"
    },
    {
      "constant": false,
      "inputs": [
        {
          "name": "_price",
          "type": "uint256"
        },
        {
          "name": "_tokenId",
          "type": "uint256"
        },
        {
          "name": "_tokenPrice",
          "type": "uint256"
        },
        {
          "name": "_itemName",
          "type": "string"
        },
        {
          "name": "_itemQuantity",
          "type": "uint256"
        },
        {
          "name": "_itemRarity",
          "type": "uint256"
        },
        {
          "name": "_itemType",
          "type": "uint256"
        }
      ],
      "name": "createItemGroup",
      "outputs": [],
      "payable": false,
      "stateMutability": "nonpayable",
      "type": "function"
    }
  ],
  "bytecode": "0x6080604052336000806101000a81548173ffffffffffffffffffffffffffffffffffffffff021916908373ffffffffffffffffffffffffffffffffffffffff160217905550600161271090806001815401808255809150509060018203906000526020600020016000909192909190915055506001612710908060018154018082558091505090600182039060005260206000200160009091929091909150555060016127109080600181540180825580915050906001820390600052602060002001600090919290919091505550612bfa806100dd6000396000f3fe608060405260043610610200576000357c01000000000000000000000000000000000000000000000000000000009004806376c0b3671161011f578063a9059cbb116100b2578063e25b792911610081578063e25b7929146110fa578063e8e2b0de1461119d578063f15f938814611240578063fe9b1a89146112b157610200565b8063a9059cbb14610eaa578063bfae2f0e14610f1f578063bfb231d214610f90578063e17b25af1461108f57610200565b80639524845a116100ee5780639524845a14610ca657806395d89b4114610ceb57806396b5a75514610d955780639a4ca3cb14610dea57610200565b806376c0b36714610a1b578063792b875214610a8c5780638807270014610b125780638c2a4c4f14610ba757610200565b806353ded21111610197578063673424481161016657806367342448146107b65780636a9faf711461081f57806370a082311461093d57806373187d27146109bc57610200565b806353ded211146106095780636173a5d4146106885780636352211e146106f357806364a7d7c71461078857610200565b806323b872dd116101d357806323b872dd146103f55780632bc9f2931461048a5780634930068b146104fb57806352270c471461059e57610200565b806301ffc9a71461020557806306fdde0314610291578063095ea7b31461033b57806318160ddd146103b0575b600080fd5b34801561021157600080fd5b50d3801561021e57600080fd5b50d2801561022b57600080fd5b506102776004803603602081101561024257600080fd5b8101908080357bffffffffffffffffffffffffffffffffffffffffffffffffffffffff19169060200190929190505050611346565b604051808215151515815260200191505060405180910390f35b34801561029d57600080fd5b50d380156102aa57600080fd5b50d280156102b757600080fd5b506102c0611614565b6040518080602001828103825283818151815260200191508051906020019080838360005b838110156103005780820151818401526020810190506102e5565b50505050905090810190601f16801561032d5780820380516001836020036101000a031916815260200191505b509250505060405180910390f35b34801561034757600080fd5b50d3801561035457600080fd5b50d2801561036157600080fd5b506103ae6004803603604081101561037857600080fd5b81019080803573ffffffffffffffffffffffffffffffffffffffff1690602001909291908035906020019092919050505061164d565b005b3480156103bc57600080fd5b50d380156103c957600080fd5b50d280156103d657600080fd5b506103df61170f565b6040518082815260200191505060405180910390f35b34801561040157600080fd5b50d3801561040e57600080fd5b50d2801561041b57600080fd5b506104886004803603606081101561043257600080fd5b81019080803573ffffffffffffffffffffffffffffffffffffffff169060200190929190803573ffffffffffffffffffffffffffffffffffffffff1690602001909291908035906020019092919050505061171f565b005b34801561049657600080fd5b50d380156104a357600080fd5b50d280156104b057600080fd5b506104b96117d0565b604051808273ffffffffffffffffffffffffffffffffffffffff1673ffffffffffffffffffffffffffffffffffffffff16815260200191505060405180910390f35b34801561050757600080fd5b50d3801561051457600080fd5b50d2801561052157600080fd5b5061054e6004803603602081101561053857600080fd5b81019080803590602001909291905050506117f6565b604051808473ffffffffffffffffffffffffffffffffffffffff1673ffffffffffffffffffffffffffffffffffffffff168152602001838152602001828152602001935050505060405180910390f35b3480156105aa57600080fd5b50d380156105b757600080fd5b50d280156105c457600080fd5b50610607600480360360208110156105db57600080fd5b81019080803573ffffffffffffffffffffffffffffffffffffffff1690602001909291905050506118b8565b005b34801561061557600080fd5b50d3801561062257600080fd5b50d2801561062f57600080fd5b506106726004803603602081101561064657600080fd5b81019080803573ffffffffffffffffffffffffffffffffffffffff169060200190929190505050611993565b6040518082815260200191505060405180910390f35b34801561069457600080fd5b50d380156106a157600080fd5b50d280156106ae57600080fd5b506106f1600480360360208110156106c557600080fd5b81019080803573ffffffffffffffffffffffffffffffffffffffff1690602001909291905050506119ab565b005b3480156106ff57600080fd5b50d3801561070c57600080fd5b50d2801561071957600080fd5b506107466004803603602081101561073057600080fd5b8101908080359060200190929190505050611a86565b604051808273ffffffffffffffffffffffffffffffffffffffff1673ffffffffffffffffffffffffffffffffffffffff16815260200191505060405180910390f35b6107b46004803603602081101561079e57600080fd5b8101908080359060200190929190505050611aff565b005b3480156107c257600080fd5b50d380156107cf57600080fd5b50d280156107dc57600080fd5b50610809600480360360208110156107f357600080fd5b8101908080359060200190929190505050611c32565b6040518082815260200191505060405180910390f35b34801561082b57600080fd5b50d3801561083857600080fd5b50d2801561084557600080fd5b5061093b600480360360e081101561085c57600080fd5b810190808035906020019092919080359060200190929190803590602001909291908035906020019064010000000081111561089757600080fd5b8201836020820111156108a957600080fd5b803590602001918460018302840111640100000000831117156108cb57600080fd5b91908080601f016020809104026020016040519081016040528093929190818152602001838380828437600081840152601f19601f820116905080830192505050505050509192919290803590602001909291908035906020019092919080359060200190929190505050611c55565b005b34801561094957600080fd5b50d3801561095657600080fd5b50d2801561096357600080fd5b506109a66004803603602081101561097a57600080fd5b81019080803573ffffffffffffffffffffffffffffffffffffffff169060200190929190505050611cc8565b6040518082815260200191505060405180910390f35b3480156109c857600080fd5b50d380156109d557600080fd5b50d280156109e257600080fd5b50610a19600480360360408110156109f957600080fd5b810190808035906020019092919080359060200190929190505050611d11565b005b348015610a2757600080fd5b50d38015610a3457600080fd5b50d28015610a4157600080fd5b50610a4a611df3565b604051808273ffffffffffffffffffffffffffffffffffffffff1673ffffffffffffffffffffffffffffffffffffffff16815260200191505060405180910390f35b348015610a9857600080fd5b50d38015610aa557600080fd5b50d28015610ab257600080fd5b50610abb611e19565b6040518080602001828103825283818151815260200191508051906020019060200280838360005b83811015610afe578082015181840152602081019050610ae3565b505050509050019250505060405180910390f35b348015610b1e57600080fd5b50d38015610b2b57600080fd5b50d28015610b3857600080fd5b50610b6560048036036020811015610b4f57600080fd5b8101908080359060200190929190505050611e29565b604051808273ffffffffffffffffffffffffffffffffffffffff1673ffffffffffffffffffffffffffffffffffffffff16815260200191505060405180910390f35b348015610bb357600080fd5b50d38015610bc057600080fd5b50d28015610bcd57600080fd5b50610bfa60048036036020811015610be457600080fd5b8101908080359060200190929190505050611e5c565b6040518089815260200188815260200187815260200180602001868152602001858152602001848152602001838152602001828103825287818151815260200191508051906020019080838360005b83811015610c64578082015181840152602081019050610c49565b50505050905090810190601f168015610c915780820380516001836020036101000a031916815260200191505b50995050505050505050505060405180910390f35b348015610cb257600080fd5b50d38015610cbf57600080fd5b50d28015610ccc57600080fd5b50610cd5611f4b565b6040518082815260200191505060405180910390f35b348015610cf757600080fd5b50d38015610d0457600080fd5b50d28015610d1157600080fd5b50610d1a611f58565b6040518080602001828103825283818151815260200191508051906020019080838360005b83811015610d5a578082015181840152602081019050610d3f565b50505050905090810190601f168015610d875780820380516001836020036101000a031916815260200191505b509250505060405180910390f35b348015610da157600080fd5b50d38015610dae57600080fd5b50d28015610dbb57600080fd5b50610de860048036036020811015610dd257600080fd5b8101908080359060200190929190505050611f91565b005b348015610df657600080fd5b50d38015610e0357600080fd5b50d28015610e1057600080fd5b50610e5360048036036020811015610e2757600080fd5b81019080803573ffffffffffffffffffffffffffffffffffffffff16906020019092919050505061208f565b6040518080602001828103825283818151815260200191508051906020019060200280838360005b83811015610e96578082015181840152602081019050610e7b565b505050509050019250505060405180910390f35b348015610eb657600080fd5b50d38015610ec357600080fd5b50d28015610ed057600080fd5b50610f1d60048036036040811015610ee757600080fd5b81019080803573ffffffffffffffffffffffffffffffffffffffff169060200190929190803590602001909291905050506121dd565b005b348015610f2b57600080fd5b50d38015610f3857600080fd5b50d28015610f4557600080fd5b50610f4e612278565b604051808273ffffffffffffffffffffffffffffffffffffffff1673ffffffffffffffffffffffffffffffffffffffff16815260200191505060405180910390f35b348015610f9c57600080fd5b50d38015610fa957600080fd5b50d28015610fb657600080fd5b50610fe360048036036020811015610fcd57600080fd5b810190808035906020019092919050505061229d565b6040518089815260200188815260200187815260200186815260200185815260200184815260200183815260200180602001828103825283818151815260200191508051906020019080838360005b8381101561104d578082015181840152602081019050611032565b50505050905090810190601f16801561107a5780820380516001836020036101000a031916815260200191505b50995050505050505050505060405180910390f35b34801561109b57600080fd5b50d380156110a857600080fd5b50d280156110b557600080fd5b506110f8600480360360208110156110cc57600080fd5b81019080803573ffffffffffffffffffffffffffffffffffffffff16906020019092919050505061238c565b005b34801561110657600080fd5b50d3801561111357600080fd5b50d2801561112057600080fd5b5061114d6004803603602081101561113757600080fd5b810190808035906020019092919050505061242b565b604051808473ffffffffffffffffffffffffffffffffffffffff1673ffffffffffffffffffffffffffffffffffffffff168152602001838152602001828152602001935050505060405180910390f35b3480156111a957600080fd5b50d380156111b657600080fd5b50d280156111c357600080fd5b506111f0600480360360208110156111da57600080fd5b81019080803590602001909291905050506124e3565b604051808473ffffffffffffffffffffffffffffffffffffffff1673ffffffffffffffffffffffffffffffffffffffff168152602001838152602001828152602001935050505060405180910390f35b34801561124c57600080fd5b50d3801561125957600080fd5b50d2801561126657600080fd5b5061126f61253c565b604051808273ffffffffffffffffffffffffffffffffffffffff1673ffffffffffffffffffffffffffffffffffffffff16815260200191505060405180910390f35b3480156112bd57600080fd5b50d380156112ca57600080fd5b50d280156112d757600080fd5b50611304600480360360208110156112ee57600080fd5b8101908080359060200190929190505050612562565b604051808273ffffffffffffffffffffffffffffffffffffffff1673ffffffffffffffffffffffffffffffffffffffff16815260200191505060405180910390f35b600060405180807f737570706f727473496e74657266616365286279746573342900000000000000815250601901905060405180910390207bffffffffffffffffffffffffffffffffffffffffffffffffffffffff1916827bffffffffffffffffffffffffffffffffffffffffffffffffffffffff1916148061160d575060405180807f746f6b656e4d657461646174612875696e743235362c737472696e6729000000815250601d019050604051809103902060405180807f6974656d734f664f776e65722861646472657373290000000000000000000000815250601501905060405180910390206040518080612baa602591396025019050604051809103902060405180807f7472616e7366657228616464726573732c75696e7432353629000000000000008152506019019050604051809103902060405180807f617070726f766528616464726573732c75696e743235362900000000000000008152506018019050604051809103902060405180807f6f776e65724f662875696e7432353629000000000000000000000000000000008152506010019050604051809103902060405180807f62616c616e63654f6628616464726573732900000000000000000000000000008152506012019050604051809103902060405180807f746f74616c537570706c79282900000000000000000000000000000000000000815250600d019050604051809103902060405180807f73796d626f6c28290000000000000000000000000000000000000000000000008152506008019050604051809103902060405180807f6e616d6528290000000000000000000000000000000000000000000000000000815250600601905060405180910390201818181818181818187bffffffffffffffffffffffffffffffffffffffffffffffffffffffff1916827bffffffffffffffffffffffffffffffffffffffffffffffffffffffff1916145b9050919050565b6040805190810160405280600781526020017f505a4974656d730000000000000000000000000000000000000000000000000081525081565b6116573382612595565b151561166257600080fd5b61166c8183612601565b7f8c5be1e5ebec7d5bd14f71427d1e84f3dd0314c0f7b2291e5b200ac8c7c3b925338383604051808473ffffffffffffffffffffffffffffffffffffffff1673ffffffffffffffffffffffffffffffffffffffff1681526020018373ffffffffffffffffffffffffffffffffffffffff1673ffffffffffffffffffffffffffffffffffffffff168152602001828152602001935050505060405180910390a15050565b6000600160028054905003905090565b600073ffffffffffffffffffffffffffffffffffffffff168273ffffffffffffffffffffffffffffffffffffffff161415151561175b57600080fd5b3073ffffffffffffffffffffffffffffffffffffffff168273ffffffffffffffffffffffffffffffffffffffff161415151561179657600080fd5b6117a03382612657565b15156117ab57600080fd5b6117b58382612595565b15156117c057600080fd5b6117cb8383836126c3565b505050565b600560009054906101000a900473ffffffffffffffffffffffffffffffffffffffff1681565b6000806000611803612acc565b600b8581548110151561181257fe5b9060005260206000209060030201606060405190810160405290816000820160009054906101000a900473ffffffffffffffffffffffffffffffffffffffff1673ffffffffffffffffffffffffffffffffffffffff1673ffffffffffffffffffffffffffffffffffffffff168152602001600182015481526020016002820154815250509050806000015181602001518260400151829250935093509350509193909250565b6000809054906101000a900473ffffffffffffffffffffffffffffffffffffffff1673ffffffffffffffffffffffffffffffffffffffff163373ffffffffffffffffffffffffffffffffffffffff1614151561191357600080fd5b600073ffffffffffffffffffffffffffffffffffffffff168173ffffffffffffffffffffffffffffffffffffffff161415151561194f57600080fd5b80600560006101000a81548173ffffffffffffffffffffffffffffffffffffffff021916908373ffffffffffffffffffffffffffffffffffffffff16021790555050565b60076020528060005260406000206000915090505481565b6000809054906101000a900473ffffffffffffffffffffffffffffffffffffffff1673ffffffffffffffffffffffffffffffffffffffff163373ffffffffffffffffffffffffffffffffffffffff16141515611a0657600080fd5b600073ffffffffffffffffffffffffffffffffffffffff168173ffffffffffffffffffffffffffffffffffffffff1614151515611a4257600080fd5b80600460006101000a81548173ffffffffffffffffffffffffffffffffffffffff021916908373ffffffffffffffffffffffffffffffffffffffff16021790555050565b60006006600083815260200190815260200160002060009054906101000a900473ffffffffffffffffffffffffffffffffffffffff169050600073ffffffffffffffffffffffffffffffffffffffff168173ffffffffffffffffffffffffffffffffffffffff1614151515611afa57600080fd5b919050565b611b093082612595565b1515611b1457600080fd5b611b1c612acc565b600a6000838152602001908152602001600020606060405190810160405290816000820160009054906101000a900473ffffffffffffffffffffffffffffffffffffffff1673ffffffffffffffffffffffffffffffffffffffff1673ffffffffffffffffffffffffffffffffffffffff168152602001600182015481526020016002820154815250509050611bb13383612595565b151515611bbd57600080fd5b348160200151141515611bcf57600080fd5b611bd8826128c5565b611be33033846126c3565b806000015173ffffffffffffffffffffffffffffffffffffffff166108fc349081150290604051600060405180830381858888f19350505050158015611c2d573d6000803e3d6000fd5b505050565b600181815481101515611c4157fe5b906000526020600020016000915090505481565b6000809054906101000a900473ffffffffffffffffffffffffffffffffffffffff1673ffffffffffffffffffffffffffffffffffffffff163373ffffffffffffffffffffffffffffffffffffffff16141515611cb057600080fd5b611cbf87878787878787612915565b50505050505050565b6000600760008373ffffffffffffffffffffffffffffffffffffffff1673ffffffffffffffffffffffffffffffffffffffff168152602001908152602001600020549050919050565b600082111515611d2057600080fd5b611d2a3382612595565b1515611d3557600080fd5b611d3d612acc565b6060604051908101604052803373ffffffffffffffffffffffffffffffffffffffff168152602001848152602001838152509050611d7c3330846126c3565b80600a600084815260200190815260200160002060008201518160000160006101000a81548173ffffffffffffffffffffffffffffffffffffffff021916908373ffffffffffffffffffffffffffffffffffffffff1602179055506020820151816001015560408201518160020155905050505050565b600460009054906101000a900473ffffffffffffffffffffffffffffffffffffffff1681565b6060611e243061208f565b905090565b60086020528060005260406000206000915054906101000a900473ffffffffffffffffffffffffffffffffffffffff1681565b600381815481101515611e6b57fe5b9060005260206000209060080201600091509050806000015490806001015490806002015490806003018054600181600116156101000203166002900480601f016020809104026020016040519081016040528092919081815260200182805460018160011615610100020316600290048015611f295780601f10611efe57610100808354040283529160200191611f29565b820191906000526020600020905b815481529060010190602001808311611f0c57829003601f168201915b5050505050908060040154908060050154908060060154908060070154905088565b6000600b80549050905090565b6040805190810160405280600281526020017f504900000000000000000000000000000000000000000000000000000000000081525081565b611f9b3082612595565b1515611fa657600080fd5b611fae612acc565b600a6000838152602001908152602001600020606060405190810160405290816000820160009054906101000a900473ffffffffffffffffffffffffffffffffffffffff1673ffffffffffffffffffffffffffffffffffffffff1673ffffffffffffffffffffffffffffffffffffffff168152602001600182015481526020016002820154815250509050806000015173ffffffffffffffffffffffffffffffffffffffff163373ffffffffffffffffffffffffffffffffffffffff1614151561207757600080fd5b612080826128c5565b61208b3033846126c3565b5050565b6060600061209c83611cc8565b905060008114156120e05760006040519080825280602002602001820160405280156120d75781602001602082028038833980820191505090505b509150506121d8565b6060816040519080825280602002602001820160405280156121115781602001602082028038833980820191505090505b509050600061211e61170f565b905060008090506000600190505b82811115156121cf578673ffffffffffffffffffffffffffffffffffffffff166006600083815260200190815260200160002060009054906101000a900473ffffffffffffffffffffffffffffffffffffffff1673ffffffffffffffffffffffffffffffffffffffff1614156121c2578084838151811015156121ab57fe5b906020019060200201818152505081806001019250505b808060010191505061212c565b83955050505050505b919050565b600073ffffffffffffffffffffffffffffffffffffffff168273ffffffffffffffffffffffffffffffffffffffff161415151561221957600080fd5b3073ffffffffffffffffffffffffffffffffffffffff168273ffffffffffffffffffffffffffffffffffffffff161415151561225457600080fd5b61225e3382612595565b151561226957600080fd5b6122743383836126c3565b5050565b6000809054906101000a900473ffffffffffffffffffffffffffffffffffffffff1681565b6002818154811015156122ac57fe5b9060005260206000209060080201600091509050806000015490806001015490806002015490806003015490806004015490806005015490806006015490806007018054600181600116156101000203166002900480601f0160208091040260200160405190810160405280929190818152602001828054600181600116156101000203166002900480156123825780601f1061235757610100808354040283529160200191612382565b820191906000526020600020905b81548152906001019060200180831161236557829003601f168201915b5050505050905088565b6000809054906101000a900473ffffffffffffffffffffffffffffffffffffffff1673ffffffffffffffffffffffffffffffffffffffff163373ffffffffffffffffffffffffffffffffffffffff161415156123e757600080fd5b80600960006101000a81548173ffffffffffffffffffffffffffffffffffffffff021916908373ffffffffffffffffffffffffffffffffffffffff16021790555050565b6000806000612438612acc565b600a6000868152602001908152602001600020606060405190810160405290816000820160009054906101000a900473ffffffffffffffffffffffffffffffffffffffff1673ffffffffffffffffffffffffffffffffffffffff1673ffffffffffffffffffffffffffffffffffffffff168152602001600182015481526020016002820154815250509050806000015181602001518260400151829250935093509350509193909250565b600b818154811015156124f257fe5b90600052602060002090600302016000915090508060000160009054906101000a900473ffffffffffffffffffffffffffffffffffffffff16908060010154908060020154905083565b600960009054906101000a900473ffffffffffffffffffffffffffffffffffffffff1681565b60066020528060005260406000206000915054906101000a900473ffffffffffffffffffffffffffffffffffffffff1681565b60008273ffffffffffffffffffffffffffffffffffffffff166006600084815260200190815260200160002060009054906101000a900473ffffffffffffffffffffffffffffffffffffffff1673ffffffffffffffffffffffffffffffffffffffff1614905092915050565b806008600084815260200190815260200160002060006101000a81548173ffffffffffffffffffffffffffffffffffffffff021916908373ffffffffffffffffffffffffffffffffffffffff1602179055505050565b60008273ffffffffffffffffffffffffffffffffffffffff166008600084815260200190815260200160002060009054906101000a900473ffffffffffffffffffffffffffffffffffffffff1673ffffffffffffffffffffffffffffffffffffffff1614905092915050565b600760008373ffffffffffffffffffffffffffffffffffffffff1673ffffffffffffffffffffffffffffffffffffffff16815260200190815260200160002060008154809291906001019190505550816006600083815260200190815260200160002060006101000a81548173ffffffffffffffffffffffffffffffffffffffff021916908373ffffffffffffffffffffffffffffffffffffffff160217905550600073ffffffffffffffffffffffffffffffffffffffff168373ffffffffffffffffffffffffffffffffffffffff1614151561282157600760008473ffffffffffffffffffffffffffffffffffffffff1673ffffffffffffffffffffffffffffffffffffffff16815260200190815260200160002060008154809291906001900391905055506008600082815260200190815260200160002060006101000a81549073ffffffffffffffffffffffffffffffffffffffff02191690555b7fddf252ad1be2c89b69c2b068fc378daa952ba7f163c4a11628f55a4df523b3ef838383604051808473ffffffffffffffffffffffffffffffffffffffff1673ffffffffffffffffffffffffffffffffffffffff1681526020018373ffffffffffffffffffffffffffffffffffffffff1673ffffffffffffffffffffffffffffffffffffffff168152602001828152602001935050505060405180910390a1505050565b600a6000828152602001908152602001600020600080820160006101000a81549073ffffffffffffffffffffffffffffffffffffffff021916905560018201600090556002820160009055505050565b60008110158015612927575060028111155b151561293257600080fd5b60008311151561294157600080fd5b600361010060405190810160405280898152602001888152602001878152602001868152602001858152602001858152602001848152602001838152509080600181540180825580915050906001820390600052602060002090600802016000909192909190915060008201518160000155602082015181600101556040820151816002015560608201518160030190805190602001906129e3929190612b04565b506080820151816004015560a0820151816005015560c0820151816006015560e082015181600701555050507f4b14c55a5b2e928ebe183f5ab0740bc521a292d471cf74ce254e88f6e201fe3c848484846040518080602001858152602001848152602001838152602001828103825286818151815260200191508051906020019080838360005b83811015612a86578082015181840152602081019050612a6b565b50505050905090810190601f168015612ab35780820380516001836020036101000a031916815260200191505b509550505050505060405180910390a150505050505050565b606060405190810160405280600073ffffffffffffffffffffffffffffffffffffffff16815260200160008152602001600081525090565b828054600181600116156101000203166002900490600052602060002090601f016020900481019282601f10612b4557805160ff1916838001178555612b73565b82800160010185558215612b73579182015b82811115612b72578251825591602001919060010190612b57565b5b509050612b809190612b84565b5090565b612ba691905b80821115612ba2576000816000905550600101612b8a565b5090565b9056fe7472616e7366657246726f6d28616464726573732c616464726573732c75696e7432353629a165627a7a723058204b6ea768245e2373baecfcdb084dd5fa74436ce131c2e822be2913147d7967fb0029",
  "source": "pragma solidity ^0.5.0;\n\nimport \"./PZItemMarketplace.sol\";\n\ncontract PZItemFactory is PZItemMarketplace\n{\n    function createItemGroup(uint _price, uint _tokenId, uint _tokenPrice, string memory _itemName, uint _itemQuantity, uint _itemRarity, uint _itemType) public onlyAdmin {\n        _createItemGroup(_price, _tokenId, _tokenPrice, _itemName, _itemQuantity, _itemRarity, _itemType);\n    }\n}\n",
  "sourcePath": "/home/ubuntu/dev/Boby/pizzaHero/contracts/PZItemFactory.sol",
  "compiler": {
    "name": "solc",
    "version": "0.5.4+commit.d15a3125.mod.Emscripten.clang"
  },
  "schemaVersion": "2.0.1",
  "updatedAt": "2021-03-24T05:12:23.500Z"
}