{
  "contractName": "PZItemBase",
  "abi": [
    {
      "constant": true,
      "inputs": [],
      "name": "addrHero",
      "outputs": [
        {
          "name": "",
          "type": "address"
        }
      ],
      "payable": false,
      "stateMutability": "view",
      "type": "function"
    },
    {
      "constant": true,
      "inputs": [
        {
          "name": "",
          "type": "address"
        }
      ],
      "name": "ownershipItemCount",
      "outputs": [
        {
          "name": "",
          "type": "uint256"
        }
      ],
      "payable": false,
      "stateMutability": "view",
      "type": "function"
    },
    {
      "constant": true,
      "inputs": [
        {
          "name": "",
          "type": "uint256"
        }
      ],
      "name": "itemQuantityLimit",
      "outputs": [
        {
          "name": "",
          "type": "uint256"
        }
      ],
      "payable": false,
      "stateMutability": "view",
      "type": "function"
    },
    {
      "constant": true,
      "inputs": [],
      "name": "addrChest",
      "outputs": [
        {
          "name": "",
          "type": "address"
        }
      ],
      "payable": false,
      "stateMutability": "view",
      "type": "function"
    },
    {
      "constant": true,
      "inputs": [
        {
          "name": "",
          "type": "uint256"
        }
      ],
      "name": "itemIndexToApproved",
      "outputs": [
        {
          "name": "",
          "type": "address"
        }
      ],
      "payable": false,
      "stateMutability": "view",
      "type": "function"
    },
    {
      "constant": true,
      "inputs": [
        {
          "name": "",
          "type": "uint256"
        }
      ],
      "name": "itemGroups",
      "outputs": [
        {
          "name": "price",
          "type": "uint256"
        },
        {
          "name": "tokenId",
          "type": "uint256"
        },
        {
          "name": "tokenPrice",
          "type": "uint256"
        },
        {
          "name": "itemName",
          "type": "string"
        },
        {
          "name": "itemQuantity",
          "type": "uint256"
        },
        {
          "name": "itemTotalAmount",
          "type": "uint256"
        },
        {
          "name": "itemRarity",
          "type": "uint256"
        },
        {
          "name": "itemType",
          "type": "uint256"
        }
      ],
      "payable": false,
      "stateMutability": "view",
      "type": "function"
    },
    {
      "constant": true,
      "inputs": [],
      "name": "addrAdmin",
      "outputs": [
        {
          "name": "",
          "type": "address"
        }
      ],
      "payable": false,
      "stateMutability": "view",
      "type": "function"
    },
    {
      "constant": true,
      "inputs": [
        {
          "name": "",
          "type": "uint256"
        }
      ],
      "name": "items",
      "outputs": [
        {
          "name": "date",
          "type": "uint256"
        },
        {
          "name": "price",
          "type": "uint256"
        },
        {
          "name": "tokenId",
          "type": "uint256"
        },
        {
          "name": "tokenPrice",
          "type": "uint256"
        },
        {
          "name": "itemType",
          "type": "uint256"
        },
        {
          "name": "itemRarity",
          "type": "uint256"
        },
        {
          "name": "itemGroupID",
          "type": "uint256"
        },
        {
          "name": "itemName",
          "type": "string"
        }
      ],
      "payable": false,
      "stateMutability": "view",
      "type": "function"
    },
    {
      "constant": true,
      "inputs": [
        {
          "name": "",
          "type": "uint256"
        }
      ],
      "name": "itemIndexToOwner",
      "outputs": [
        {
          "name": "",
          "type": "address"
        }
      ],
      "payable": false,
      "stateMutability": "view",
      "type": "function"
    },
    {
      "inputs": [],
      "payable": false,
      "stateMutability": "nonpayable",
      "type": "constructor"
    },
    {
      "anonymous": false,
      "inputs": [
        {
          "indexed": false,
          "name": "from",
          "type": "address"
        },
        {
          "indexed": false,
          "name": "to",
          "type": "address"
        },
        {
          "indexed": false,
          "name": "itemId",
          "type": "uint256"
        }
      ],
      "name": "Transfer",
      "type": "event"
    },
    {
      "anonymous": false,
      "inputs": [
        {
          "indexed": false,
          "name": "itmeType",
          "type": "uint256"
        },
        {
          "indexed": false,
          "name": "quantity",
          "type": "uint256"
        }
      ],
      "name": "ItemsCreated",
      "type": "event"
    },
    {
      "anonymous": false,
      "inputs": [
        {
          "indexed": false,
          "name": "itemName",
          "type": "string"
        },
        {
          "indexed": false,
          "name": "itemQuantity",
          "type": "uint256"
        },
        {
          "indexed": false,
          "name": "itemRarity",
          "type": "uint256"
        },
        {
          "indexed": false,
          "name": "itemType",
          "type": "uint256"
        }
      ],
      "name": "ItemGroupCreated",
      "type": "event"
    },
    {
      "constant": false,
      "inputs": [
        {
          "name": "_addrChest",
          "type": "address"
        }
      ],
      "name": "setChestAddr",
      "outputs": [],
      "payable": false,
      "stateMutability": "nonpayable",
      "type": "function"
    },
    {
      "constant": false,
      "inputs": [
        {
          "name": "_addrHero",
          "type": "address"
        }
      ],
      "name": "setHeroAddr",
      "outputs": [],
      "payable": false,
      "stateMutability": "nonpayable",
      "type": "function"
    }
  ],
  "bytecode": "0x608060405234801561001057600080fd5b50d3801561001d57600080fd5b50d2801561002a57600080fd5b50336000806101000a81548173ffffffffffffffffffffffffffffffffffffffff021916908373ffffffffffffffffffffffffffffffffffffffff160217905550600161271090806001815401808255809150509060018203906000526020600020016000909192909190915055506001612710908060018154018082558091505090600182039060005260206000200160009091929091909150555060016127109080600181540180825580915050906001820390600052602060002001600090919290919091505550610b4f806101046000396000f3006080604052600436106100af576000357c0100000000000000000000000000000000000000000000000000000000900463ffffffff1680632bc9f293146100b457806352270c471461012557806353ded211146101825780636173a5d4146101f3578063673424481461025057806376c0b367146102ab578063880727001461031c5780638c2a4c4f146103a3578063bfae2f0e14610494578063bfb231d214610505578063fe9b1a89146105f6575b600080fd5b3480156100c057600080fd5b50d380156100cd57600080fd5b50d280156100da57600080fd5b506100e361067d565b604051808273ffffffffffffffffffffffffffffffffffffffff1673ffffffffffffffffffffffffffffffffffffffff16815260200191505060405180910390f35b34801561013157600080fd5b50d3801561013e57600080fd5b50d2801561014b57600080fd5b50610180600480360381019080803573ffffffffffffffffffffffffffffffffffffffff1690602001909291905050506106a3565b005b34801561018e57600080fd5b50d3801561019b57600080fd5b50d280156101a857600080fd5b506101dd600480360381019080803573ffffffffffffffffffffffffffffffffffffffff16906020019092919050505061077e565b6040518082815260200191505060405180910390f35b3480156101ff57600080fd5b50d3801561020c57600080fd5b50d2801561021957600080fd5b5061024e600480360381019080803573ffffffffffffffffffffffffffffffffffffffff169060200190929190505050610796565b005b34801561025c57600080fd5b50d3801561026957600080fd5b50d2801561027657600080fd5b5061029560048036038101908080359060200190929190505050610871565b6040518082815260200191505060405180910390f35b3480156102b757600080fd5b50d380156102c457600080fd5b50d280156102d157600080fd5b506102da610894565b604051808273ffffffffffffffffffffffffffffffffffffffff1673ffffffffffffffffffffffffffffffffffffffff16815260200191505060405180910390f35b34801561032857600080fd5b50d3801561033557600080fd5b50d2801561034257600080fd5b50610361600480360381019080803590602001909291905050506108ba565b604051808273ffffffffffffffffffffffffffffffffffffffff1673ffffffffffffffffffffffffffffffffffffffff16815260200191505060405180910390f35b3480156103af57600080fd5b50d380156103bc57600080fd5b50d280156103c957600080fd5b506103e8600480360381019080803590602001909291905050506108ed565b6040518089815260200188815260200187815260200180602001868152602001858152602001848152602001838152602001828103825287818151815260200191508051906020019080838360005b83811015610452578082015181840152602081019050610437565b50505050905090810190601f16801561047f5780820380516001836020036101000a031916815260200191505b50995050505050505050505060405180910390f35b3480156104a057600080fd5b50d380156104ad57600080fd5b50d280156104ba57600080fd5b506104c36109dc565b604051808273ffffffffffffffffffffffffffffffffffffffff1673ffffffffffffffffffffffffffffffffffffffff16815260200191505060405180910390f35b34801561051157600080fd5b50d3801561051e57600080fd5b50d2801561052b57600080fd5b5061054a60048036038101908080359060200190929190505050610a01565b6040518089815260200188815260200187815260200186815260200185815260200184815260200183815260200180602001828103825283818151815260200191508051906020019080838360005b838110156105b4578082015181840152602081019050610599565b50505050905090810190601f1680156105e15780820380516001836020036101000a031916815260200191505b50995050505050505050505060405180910390f35b34801561060257600080fd5b50d3801561060f57600080fd5b50d2801561061c57600080fd5b5061063b60048036038101908080359060200190929190505050610af0565b604051808273ffffffffffffffffffffffffffffffffffffffff1673ffffffffffffffffffffffffffffffffffffffff16815260200191505060405180910390f35b600560009054906101000a900473ffffffffffffffffffffffffffffffffffffffff1681565b6000809054906101000a900473ffffffffffffffffffffffffffffffffffffffff1673ffffffffffffffffffffffffffffffffffffffff163373ffffffffffffffffffffffffffffffffffffffff161415156106fe57600080fd5b600073ffffffffffffffffffffffffffffffffffffffff168173ffffffffffffffffffffffffffffffffffffffff161415151561073a57600080fd5b80600560006101000a81548173ffffffffffffffffffffffffffffffffffffffff021916908373ffffffffffffffffffffffffffffffffffffffff16021790555050565b60076020528060005260406000206000915090505481565b6000809054906101000a900473ffffffffffffffffffffffffffffffffffffffff1673ffffffffffffffffffffffffffffffffffffffff163373ffffffffffffffffffffffffffffffffffffffff161415156107f157600080fd5b600073ffffffffffffffffffffffffffffffffffffffff168173ffffffffffffffffffffffffffffffffffffffff161415151561082d57600080fd5b80600460006101000a81548173ffffffffffffffffffffffffffffffffffffffff021916908373ffffffffffffffffffffffffffffffffffffffff16021790555050565b60018181548110151561088057fe5b906000526020600020016000915090505481565b600460009054906101000a900473ffffffffffffffffffffffffffffffffffffffff1681565b60086020528060005260406000206000915054906101000a900473ffffffffffffffffffffffffffffffffffffffff1681565b6003818154811015156108fc57fe5b9060005260206000209060080201600091509050806000015490806001015490806002015490806003018054600181600116156101000203166002900480601f0160208091040260200160405190810160405280929190818152602001828054600181600116156101000203166002900480156109ba5780601f1061098f576101008083540402835291602001916109ba565b820191906000526020600020905b81548152906001019060200180831161099d57829003601f168201915b5050505050908060040154908060050154908060060154908060070154905088565b6000809054906101000a900473ffffffffffffffffffffffffffffffffffffffff1681565b600281815481101515610a1057fe5b9060005260206000209060080201600091509050806000015490806001015490806002015490806003015490806004015490806005015490806006015490806007018054600181600116156101000203166002900480601f016020809104026020016040519081016040528092919081815260200182805460018160011615610100020316600290048015610ae65780601f10610abb57610100808354040283529160200191610ae6565b820191906000526020600020905b815481529060010190602001808311610ac957829003601f168201915b5050505050905088565b60066020528060005260406000206000915054906101000a900473ffffffffffffffffffffffffffffffffffffffff16815600a165627a7a72305820bfe2c565af2a4c7ac90fa89b5f096b7973bf88d37960b0aed90e1652a3ad02ef0029",
  "source": "pragma solidity ^0.4.25;\n\ncontract PZItemBase\n{\n    uint private constant       PZ_ITEM_GEAR = 0;\n    uint private constant       PZ_ITEM_EMOTE = 1;\n\n    uint private constant       PZ_ITEM_COMMON = 0;\n    uint private constant       PZ_ITEM_UNCOMMON = 1;\n    uint private constant       PZ_ITEM_RARE = 2;\n    uint private constant       PZ_ITEM_EPIC = 3;\n    uint private constant       PZ_ITEM_LEGENDARY = 4;\n\n    // uint private constant       PZ_ITEM_RARE = 0;\n    // uint private constant       PZ_ITEM_EPIC = 1;\n    // uint private constant       PZ_ITEM_LEGENDARY = 2;\n\n    // uint private constant       PZ_ITEM_GEAR = 0;\n    // uint private constant       PZ_ITEM_EMOTE = 1;\n\n    uint private constant       PZ_ITEM_LIMIT_RARE = 10000;\n    uint private constant       PZ_ITEM_LIMIT_EPIC = 10000;\n    uint private constant       PZ_ITEM_LIMIT_LEGENDARY = 10000;\n\n    struct Item {\n        uint        date;\n        uint        price;\n        uint        tokenId;\n        uint        tokenPrice;\n        uint        itemType;           //gear, emote\n        uint        itemRarity;         //rare, ep ic, legendary\n        uint        itemGroupID;\n        string      itemName;\n    }\n\n    struct ItemGroup {\n        uint        price;\n        uint        tokenId;\n        uint        tokenPrice;\n        string      itemName;\n        uint        itemQuantity;\n        uint        itemTotalAmount;\n        uint        itemRarity;\n        uint        itemType;\n    }\n\n    address public                          addrAdmin;\n\n    uint[] public                           itemQuantityLimit;\n    // uint[][3] public                        itemIDs;\n\n    // uint[][3] public                        availableItemIDs;\n\n    // uint[][3] public                        itemIDsInChest;\n\n    Item[]  public                          items;\n    ItemGroup[] public                      itemGroups;\n\n    address public                          addrChest;\n    address public                          addrHero;\n\n    mapping (uint256 => address) public     itemIndexToOwner;\n    mapping (address => uint256) public     ownershipItemCount;\n    mapping (uint256 => address) public     itemIndexToApproved;\n\n    event Transfer(address from, address to, uint256 itemId);\n    event ItemsCreated(uint itmeType, uint quantity);\n    event ItemGroupCreated(string itemName, uint itemQuantity, uint itemRarity, uint itemType);\n\n    /**\n    * Constructor\n    *\n     */\n    constructor() public\n    {\n        addrAdmin = msg.sender;\n\n        itemQuantityLimit.push(PZ_ITEM_LIMIT_RARE);\n        itemQuantityLimit.push(PZ_ITEM_LIMIT_EPIC);\n        itemQuantityLimit.push(PZ_ITEM_LIMIT_LEGENDARY);\n    }\n\n    /**\n    * Modifier for Admin Only\n    *\n     */\n    modifier onlyAdmin()\n    {\n        require(msg.sender == addrAdmin);\n        _;\n    }\n\n    /**\n    * Set Chest Address\n    * @param _addrChest                      Address of Chest contract\n    *\n     */\n    function setChestAddr(address _addrChest) public onlyAdmin\n    {\n        require(_addrChest != address(0x0));\n        addrChest = _addrChest;\n    }\n\n    /**\n    * Set Hero Address\n    * @param _addrHero                      Address of Hero contract\n    *\n     */\n    function setHeroAddr(address _addrHero) public onlyAdmin\n    {\n        require(_addrHero != address(0x0));\n        addrHero = _addrHero;\n    }\n\n    /**\n    * Create ItemGroup as the Meta Information of Item NFT\n    * @param _itemName                              Item Name\n    * @param _itemQuantity                          Item Quantity\n    * @param _itemRarity                            Item Rarity\n    * @param _itemType                              Item Type\n    *\n     */\n    function _createItemGroup(uint _price, uint _tokenId, uint _tokenPrice, string _itemName, uint _itemQuantity, uint _itemRarity, uint _itemType) internal {\n        require((_itemType >= 0) && (_itemType <= 2));\n        require(_itemQuantity > 0);\n\n        itemGroups.push(ItemGroup(_price, _tokenId, _tokenPrice, _itemName, _itemQuantity, _itemQuantity, _itemRarity, _itemType));\n        emit ItemGroupCreated(_itemName, _itemQuantity, _itemRarity, _itemType);\n    }\n\n    /**\n    * Create Item NFT\n    * @param _buyer                                 Buyer's address of Item\n    * @param _itemType                              Item type\n    * @param _itemRarity                            Item Rarity\n    * @param _itemGroupID                           Item Group ID\n    * @param _itemName                              Item Name\n    *\n     */\n    function _createItem(address _buyer, uint _date, uint _price, uint _tokenId, uint _tokenPrice, uint _itemType, uint _itemRarity, uint _itemGroupID, string _itemName) internal{\n        require((_itemType >= 0) && (_itemType <= 2));\n        require(_buyer != address(0x0));\n\n        Item memory _item = Item(_date, _price, _tokenId, _tokenPrice, _itemType, _itemRarity, _itemGroupID, _itemName);\n        uint256 newItemId = items.push(_item) - 1;\n        _transfer(0, _buyer, newItemId);\n    }\n\n    /**\n    * Decrease the available quantity of Item group\n    * @param _itemGroupId                            ItemGroup Id\n    *\n     */\n    function _decreaseQuantityOfItemGroup(uint _itemGroupId) internal {\n        ItemGroup memory _itemGroup = itemGroups[_itemGroupId];\n        require(_itemGroup.itemQuantity > 0);\n        itemGroups[_itemGroupId].itemQuantity = itemGroups[_itemGroupId].itemQuantity - 1;\n    }\n\n    /**\n    * Transfer Item NFT\n    * @param _from                          Address of transfer\n    * @param _to                            Address of receiver\n    * @param _itemId                        Item Id to be transferred\n    *\n     */\n    function _transfer(address _from, address _to, uint256 _itemId) internal {\n        ownershipItemCount[_to]++;\n        itemIndexToOwner[_itemId] = _to;\n        if (_from != address(0)) {\n            ownershipItemCount[_from]--;\n            delete itemIndexToApproved[_itemId];\n        }\n\n        emit Transfer(_from, _to, _itemId);\n    }\n}\n",
  "sourcePath": "/Volumes/Backup/workspace/Dave(Tron_NFT)/pizzaHero/contracts/PZItemBase.sol",
  "compiler": {
    "name": "solc",
    "version": "0.4.25+commit.69a1e720.Emscripten.clang"
  },
  "schemaVersion": "2.0.1",
  "updatedAt": "2020-01-20T04:54:37.539Z"
}