{
  "contractName": "PZToken",
  "abi": [
    {
      "constant": true,
      "inputs": [],
      "name": "addrChest",
      "outputs": [
        {
          "name": "",
          "type": "address"
        }
      ],
      "payable": false,
      "stateMutability": "view",
      "type": "function"
    },
    {
      "constant": true,
      "inputs": [],
      "name": "addrAdmin",
      "outputs": [
        {
          "name": "",
          "type": "address"
        }
      ],
      "payable": false,
      "stateMutability": "view",
      "type": "function"
    },
    {
      "inputs": [],
      "payable": false,
      "stateMutability": "nonpayable",
      "type": "constructor"
    },
    {
      "payable": true,
      "stateMutability": "payable",
      "type": "fallback"
    },
    {
      "constant": false,
      "inputs": [
        {
          "name": "toAddress",
          "type": "address"
        },
        {
          "name": "tokenValue",
          "type": "uint256"
        },
        {
          "name": "id",
          "type": "trcToken"
        }
      ],
      "name": "transferToken",
      "outputs": [],
      "payable": true,
      "stateMutability": "payable",
      "type": "function"
    },
    {
      "constant": false,
      "inputs": [],
      "name": "msgTokenValueAndTokenId",
      "outputs": [
        {
          "name": "",
          "type": "trcToken"
        },
        {
          "name": "",
          "type": "uint256"
        }
      ],
      "payable": true,
      "stateMutability": "payable",
      "type": "function"
    },
    {
      "constant": true,
      "inputs": [
        {
          "name": "accountAddress",
          "type": "address"
        },
        {
          "name": "id",
          "type": "trcToken"
        }
      ],
      "name": "getTokenBalance",
      "outputs": [
        {
          "name": "",
          "type": "uint256"
        }
      ],
      "payable": false,
      "stateMutability": "view",
      "type": "function"
    },
    {
      "constant": true,
      "inputs": [],
      "name": "tokenTest",
      "outputs": [
        {
          "name": "",
          "type": "address"
        }
      ],
      "payable": false,
      "stateMutability": "view",
      "type": "function"
    }
  ],
  "bytecode": "0x608060405234801561001057600080fd5b50d3801561001d57600080fd5b50d2801561002a57600080fd5b50336000806101000a81548173ffffffffffffffffffffffffffffffffffffffff021916908373ffffffffffffffffffffffffffffffffffffffff1602179055506104538061007a6000396000f300608060405260043610610078576000357c0100000000000000000000000000000000000000000000000000000000900463ffffffff1680635cae14a71461007a57806376c0b367146100f5578063bfae2f0e14610166578063c1f06684146101d7578063eec13165146101fc578063fda3914c1461026d575b005b34801561008657600080fd5b50d3801561009357600080fd5b50d280156100a057600080fd5b506100df600480360381019080803573ffffffffffffffffffffffffffffffffffffffff169060200190929190803590602001909291905050506102b7565b6040518082815260200191505060405180910390f35b34801561010157600080fd5b50d3801561010e57600080fd5b50d2801561011b57600080fd5b50610124610313565b604051808273ffffffffffffffffffffffffffffffffffffffff1673ffffffffffffffffffffffffffffffffffffffff16815260200191505060405180910390f35b34801561017257600080fd5b50d3801561017f57600080fd5b50d2801561018c57600080fd5b50610195610339565b604051808273ffffffffffffffffffffffffffffffffffffffff1673ffffffffffffffffffffffffffffffffffffffff16815260200191505060405180910390f35b6101df61035e565b604051808381526020018281526020019250505060405180910390f35b34801561020857600080fd5b50d3801561021557600080fd5b50d2801561022257600080fd5b5061022b610376565b604051808273ffffffffffffffffffffffffffffffffffffffff1673ffffffffffffffffffffffffffffffffffffffff16815260200191505060405180910390f35b6102b5600480360381019080803573ffffffffffffffffffffffffffffffffffffffff169060200190929190803590602001909291908035906020019092919050505061039f565b005b60008273ffffffffffffffffffffffffffffffffffffffff1682801580156102de57600080fd5b5080678000000000000000111580156102f657600080fd5b5080620f42401015801561030957600080fd5b50d1905092915050565b600160009054906101000a900473ffffffffffffffffffffffffffffffffffffffff1681565b6000809054906101000a900473ffffffffffffffffffffffffffffffffffffffff1681565b600080600080d39150d2905081819350935050509091565b60008060009054906101000a900473ffffffffffffffffffffffffffffffffffffffff16905090565b8273ffffffffffffffffffffffffffffffffffffffff166108fc83908115029083801580156103cd57600080fd5b5080678000000000000000111580156103e557600080fd5b5080620f4240101580156103f857600080fd5b5060405160006040518083038185878a8ad0945050505050158015610421573d6000803e3d6000fd5b505050505600a165627a7a72305820b9fe032cb6c3c4e9c8a3a912d9c673f4404a75cbdb9a53d020c28c31801bacc80029",
  "source": "pragma solidity ^0.4.25;\n\ncontract PZToken {\n\n    address public                          addrAdmin;\n    address public                          addrChest;\n\n    constructor() public\n    {\n        addrAdmin = msg.sender;\n    }\n\n    function() payable public\n    {\n\n    }\n\n    modifier onlyAdmin()\n    {\n        require(msg.sender == addrAdmin);\n        _;\n    }\n\n    // function setChestAddr(address _addrChest) public onlyAdmin\n    // {\n    //     require(_addrChest != address(0x0));\n    //     addrChest = _addrChest;\n    // }\n\n    function transferToken(address toAddress, uint256 tokenValue, trcToken id) payable public\n    {\n        toAddress.transferToken(tokenValue, id);\n    }\n\n    function msgTokenValueAndTokenId() public payable returns(trcToken, uint256)\n    {\n        trcToken id = msg.tokenid;\n        uint256 value = msg.tokenvalue;\n        return (id, value);\n    }\n\n    function getTokenBalance(address accountAddress, trcToken id) public view returns (uint256)\n    {\n        return accountAddress.tokenBalance(id);\n    }\n\n    function tokenTest() external view returns (address) {\n        return addrAdmin;\n    }\n}",
  "sourcePath": "/Volumes/Backup/workspace/Dave(Tron_NFT)/PizzaProject/contracts/PZToken.sol",
  "compiler": {
    "name": "solc",
    "version": "0.4.25+commit.69a1e720.Emscripten.clang"
  },
  "schemaVersion": "2.0.1",
  "updatedAt": "2019-07-03T12:41:49.804Z"
}