{
  "contractName": "TRC721Metadata",
  "abi": [
    {
      "constant": true,
      "inputs": [
        {
          "name": "_tokenId",
          "type": "uint256"
        },
        {
          "name": "",
          "type": "string"
        }
      ],
      "name": "getMetadata",
      "outputs": [
        {
          "name": "buffer",
          "type": "bytes32[4]"
        },
        {
          "name": "count",
          "type": "uint256"
        }
      ],
      "payable": false,
      "stateMutability": "pure",
      "type": "function"
    }
  ],
  "bytecode": "0x608060405234801561001057600080fd5b50d3801561001d57600080fd5b50d2801561002a57600080fd5b506103928061003a6000396000f3fe608060405234801561001057600080fd5b50d3801561001d57600080fd5b50d2801561002a57600080fd5b5060043610610062576000357c010000000000000000000000000000000000000000000000000000000090048063cb4799f214610067575b600080fd5b61012a6004803603604081101561007d57600080fd5b8101908080359060200190929190803590602001906401000000008111156100a457600080fd5b8201836020820111156100b657600080fd5b803590602001918460018302840111640100000000831117156100d857600080fd5b91908080601f016020809104026020016040519081016040528093929190818152602001838380828437600081840152601f19601f82011690508083019250505050505050919291929050505061016f565b6040518083600460200280838360005b8381101561015557808201518184015260208101905061013a565b505050509050018281526020019250505060405180910390f35b610177610343565b600060018414156101c4577f48656c6c6f20576f726c6421203a4400000000000000000000000000000000008260006004811015156101b257fe5b602002018181525050600f905061033c565b6002841415610248577f4920776f756c6420646566696e6974656c792063686f6f73652061206d6564698260006004811015156101fd57fe5b6020020181815250507f756d206c656e67746820737472696e672e00000000000000000000000000000082600160048110151561023657fe5b6020020181815250506031905061033b565b600384141561033a577f4c6f72656d20697073756d20646f6c6f722073697420616d65742c206d69206582600060048110151561028157fe5b6020020181815250507f737420616363756d73616e2064617069627573206175677565206c6f72656d2c8260016004811015156102ba57fe5b6020020181815250507f2074726973746971756520766573746962756c756d2069642c206c696265726f8260026004811015156102f357fe5b6020020181815250507f207375736369706974207661726975732073617069656e20616c697175616d2e82600360048110151561032c57fe5b602002018181525050608090505b5b5b9250929050565b60806040519081016040528060049060208202803883398082019150509050509056fea165627a7a72305820b70edb3d07b9fb8698cc6444bb6869dbb70dac9eb3e2ce223654aff8646ffcc30029",
  "source": "pragma solidity ^0.5.0;\n\ncontract TRC721Metadata {\n    \n    function getMetadata(uint256 _tokenId, string memory) public pure returns (bytes32[4] memory buffer, uint256 count) {\n        if (_tokenId == 1) {\n            buffer[0] = \"Hello World! :D\";\n            count = 15;\n        } else if (_tokenId == 2) {\n            buffer[0] = \"I would definitely choose a medi\";\n            buffer[1] = \"um length string.\";\n            count = 49;\n        } else if (_tokenId == 3) {\n            buffer[0] = \"Lorem ipsum dolor sit amet, mi e\";\n            buffer[1] = \"st accumsan dapibus augue lorem,\";\n            buffer[2] = \" tristique vestibulum id, libero\";\n            buffer[3] = \" suscipit varius sapien aliquam.\";\n            count = 128;\n        }\n    }\n}",
  "sourcePath": "/home/ubuntu/dev/Boby/pizzaHero/contracts/TRC721Metadata.sol",
  "compiler": {
    "name": "solc",
    "version": "0.5.4+commit.d15a3125.mod.Emscripten.clang"
  },
  "schemaVersion": "2.0.1",
  "updatedAt": "2021-03-24T05:12:23.500Z"
}