{
  "contractName": "TRC721Metadata",
  "abi": [
    {
      "constant": true,
      "inputs": [
        {
          "name": "_tokenId",
          "type": "uint256"
        },
        {
          "name": "",
          "type": "string"
        }
      ],
      "name": "getMetadata",
      "outputs": [
        {
          "name": "buffer",
          "type": "bytes32[4]"
        },
        {
          "name": "count",
          "type": "uint256"
        }
      ],
      "payable": false,
      "stateMutability": "pure",
      "type": "function"
    }
  ],
  "bytecode": "0x608060405234801561001057600080fd5b50d3801561001d57600080fd5b50d2801561002a57600080fd5b5061037f8061003a6000396000f300608060405260043610610041576000357c0100000000000000000000000000000000000000000000000000000000900463ffffffff168063cb4799f214610046575b600080fd5b34801561005257600080fd5b50d3801561005f57600080fd5b50d2801561006c57600080fd5b506100d160048036038101908080359060200190929190803590602001908201803590602001908080601f0160208091040260200160405190810160405280939291908181526020018383808284378201915050505050509192919290505050610116565b6040518083600460200280838360005b838110156100fc5780820151818401526020810190506100e1565b505050509050018281526020019250505060405180910390f35b61011e610330565b60006001841415610175577f48656c6c6f20576f726c6421203a44000000000000000000000000000000000082600060048110151561015957fe5b60200201906000191690816000191681525050600f9050610329565b600284141561020d577f4920776f756c6420646566696e6974656c792063686f6f73652061206d6564698260006004811015156101ae57fe5b602002019060001916908160001916815250507f756d206c656e67746820737472696e672e0000000000000000000000000000008260016004811015156101f157fe5b6020020190600019169081600019168152505060319050610328565b6003841415610327577f4c6f72656d20697073756d20646f6c6f722073697420616d65742c206d69206582600060048110151561024657fe5b602002019060001916908160001916815250507f737420616363756d73616e2064617069627573206175677565206c6f72656d2c82600160048110151561028957fe5b602002019060001916908160001916815250507f2074726973746971756520766573746962756c756d2069642c206c696265726f8260026004811015156102cc57fe5b602002019060001916908160001916815250507f207375736369706974207661726975732073617069656e20616c697175616d2e82600360048110151561030f57fe5b60200201906000191690816000191681525050608090505b5b5b9250929050565b6080604051908101604052806004906020820280388339808201915050905050905600a165627a7a723058201c9156e82f75c3abd537f6a28b99aa1951ec3fdbf987109d70e8012ee8c1f61d0029",
  "source": "pragma solidity ^0.4.25;\n\ncontract TRC721Metadata {\n    \n    function getMetadata(uint256 _tokenId, string) public pure returns (bytes32[4] buffer, uint256 count) {\n        if (_tokenId == 1) {\n            buffer[0] = \"Hello World! :D\";\n            count = 15;\n        } else if (_tokenId == 2) {\n            buffer[0] = \"I would definitely choose a medi\";\n            buffer[1] = \"um length string.\";\n            count = 49;\n        } else if (_tokenId == 3) {\n            buffer[0] = \"Lorem ipsum dolor sit amet, mi e\";\n            buffer[1] = \"st accumsan dapibus augue lorem,\";\n            buffer[2] = \" tristique vestibulum id, libero\";\n            buffer[3] = \" suscipit varius sapien aliquam.\";\n            count = 128;\n        }\n    }\n}",
  "sourcePath": "/Volumes/Backup/workspace/Dave(Tron_NFT)/pizzaHero/contracts/TRC721Metadata.sol",
  "compiler": {
    "name": "solc",
    "version": "0.4.25+commit.69a1e720.Emscripten.clang"
  },
  "schemaVersion": "2.0.1",
  "updatedAt": "2020-01-09T11:58:49.398Z"
}